{"contracts/Regulatory.sol":{"CDBCRegulatory":{"abi":[{"inputs":[],"stateMutability":"nonpayable","type":"constructor"},{"inputs":[],"name":"AccessControlBadConfirmation","type":"error"},{"inputs":[{"internalType":"address","name":"account","type":"address"},{"internalType":"bytes32","name":"neededRole","type":"bytes32"}],"name":"AccessControlUnauthorizedAccount","type":"error"},{"anonymous":false,"inputs":[{"indexed":false,"internalType":"uint256","name":"amount","type":"uint256"},{"indexed":true,"internalType":"address","name":"minter","type":"address"}],"name":"CoinsMinted","type":"event"},{"anonymous":false,"inputs":[{"indexed":true,"internalType":"uint256","name":"txId","type":"uint256"},{"indexed":false,"internalType":"string","name":"action","type":"string"},{"indexed":false,"internalType":"string","name":"reason","type":"string"},{"indexed":true,"internalType":"address","name":"regulator","type":"address"}],"name":"RegulatoryAction","type":"event"},{"anonymous":false,"inputs":[{"indexed":true,"internalType":"bytes32","name":"role","type":"bytes32"},{"indexed":true,"internalType":"bytes32","name":"previousAdminRole","type":"bytes32"},{"indexed":true,"internalType":"bytes32","name":"newAdminRole","type":"bytes32"}],"name":"RoleAdminChanged","type":"event"},{"anonymous":false,"inputs":[{"indexed":true,"internalType":"address","name":"account","type":"address"},{"indexed":true,"internalType":"bytes32","name":"role","type":"bytes32"},{"indexed":false,"internalType":"string","name":"name","type":"string"}],"name":"RoleAssigned","type":"event"},{"anonymous":false,"inputs":[{"indexed":true,"internalType":"bytes32","name":"role","type":"bytes32"},{"indexed":true,"internalType":"address","name":"account","type":"address"},{"indexed":true,"internalType":"address","name":"sender","type":"address"}],"name":"RoleGranted","type":"event"},{"anonymous":false,"inputs":[{"indexed":true,"internalType":"bytes32","name":"role","type":"bytes32"},{"indexed":true,"internalType":"address","name":"account","type":"address"},{"indexed":true,"internalType":"address","name":"sender","type":"address"}],"name":"RoleRevoked","type":"event"},{"anonymous":false,"inputs":[{"indexed":true,"internalType":"address","name":"account","type":"address"},{"indexed":true,"internalType":"bytes32","name":"role","type":"bytes32"}],"name":"RoleRevoked","type":"event"},{"anonymous":false,"inputs":[{"indexed":true,"internalType":"address","name":"account","type":"address"},{"indexed":false,"internalType":"string","name":"name","type":"string"},{"indexed":false,"internalType":"bool","name":"active","type":"bool"}],"name":"RoleUpdated","type":"event"},{"anonymous":false,"inputs":[{"indexed":true,"internalType":"uint256","name":"suspiciousId","type":"uint256"},{"indexed":true,"internalType":"uint256","name":"txId","type":"uint256"},{"indexed":false,"internalType":"string","name":"reason","type":"string"}],"name":"SuspiciousTransactionDetected","type":"event"},{"anonymous":false,"inputs":[{"indexed":true,"internalType":"uint256","name":"reportId","type":"uint256"},{"indexed":true,"internalType":"uint256","name":"txId","type":"uint256"},{"indexed":false,"internalType":"bool","name":"passed","type":"bool"},{"indexed":false,"internalType":"string","name":"result","type":"string"}],"name":"TransactionAudited","type":"event"},{"anonymous":false,"inputs":[{"indexed":true,"internalType":"uint256","name":"txId","type":"uint256"},{"indexed":true,"internalType":"address","name":"sender","type":"address"},{"indexed":false,"internalType":"uint256","name":"outputsCount","type":"uint256"}],"name":"TransactionCreated","type":"event"},{"anonymous":false,"inputs":[{"indexed":true,"internalType":"uint256","name":"suspiciousId","type":"uint256"},{"indexed":false,"internalType":"bool","name":"confirmed","type":"bool"},{"indexed":false,"internalType":"string","name":"notes","type":"string"}],"name":"TransactionInvestigated","type":"event"},{"anonymous":false,"inputs":[{"indexed":true,"internalType":"uint256","name":"utxoId","type":"uint256"},{"indexed":false,"internalType":"uint256","name":"value","type":"uint256"},{"indexed":true,"internalType":"address","name":"recipient","type":"address"}],"name":"UTXOCreated","type":"event"},{"anonymous":false,"inputs":[{"indexed":true,"internalType":"uint256","name":"utxoId","type":"uint256"},{"indexed":false,"internalType":"uint256","name":"txId","type":"uint256"}],"name":"UTXOSpent","type":"event"},{"inputs":[],"name":"DEFAULT_ADMIN_ROLE","outputs":[{"internalType":"bytes32","name":"","type":"bytes32"}],"stateMutability":"view","type":"function"},{"inputs":[],"name":"ENTERPRISE_ROLE","outputs":[{"internalType":"bytes32","name":"","type":"bytes32"}],"stateMutability":"view","type":"function"},{"inputs":[],"name":"FREQUENT_TRANSACTION_THRESHOLD","outputs":[{"internalType":"uint256","name":"","type":"uint256"}],"stateMutability":"view","type":"function"},{"inputs":[],"name":"LARGE_TRANSACTION_THRESHOLD","outputs":[{"internalType":"uint256","name":"","type":"uint256"}],"stateMutability":"view","type":"function"},{"inputs":[],"name":"MAX_SUPPLY","outputs":[{"internalType":"uint256","name":"","type":"uint256"}],"stateMutability":"view","type":"function"},{"inputs":[],"name":"PRIMARY_BANK_ROLE","outputs":[{"internalType":"bytes32","name":"","type":"bytes32"}],"stateMutability":"view","type":"function"},{"inputs":[],"name":"REGULATOR_ROLE","outputs":[{"internalType":"bytes32","name":"","type":"bytes32"}],"stateMutability":"view","type":"function"},{"inputs":[],"name":"SECONDARY_BANK_ROLE","outputs":[{"internalType":"bytes32","name":"","type":"bytes32"}],"stateMutability":"view","type":"function"},{"inputs":[],"name":"USER_ROLE","outputs":[{"internalType":"bytes32","name":"","type":"bytes32"}],"stateMutability":"view","type":"function"},{"inputs":[],"name":"VALIDATOR_ROLE","outputs":[{"internalType":"bytes32","name":"","type":"bytes32"}],"stateMutability":"view","type":"function"},{"inputs":[{"internalType":"address","name":"","type":"address"},{"internalType":"uint256","name":"","type":"uint256"}],"name":"addressAuditReports","outputs":[{"internalType":"uint256","name":"","type":"uint256"}],"stateMutability":"view","type":"function"},{"inputs":[{"internalType":"address","name":"","type":"address"},{"internalType":"uint256","name":"","type":"uint256"}],"name":"addressUTXOs","outputs":[{"internalType":"uint256","name":"","type":"uint256"}],"stateMutability":"view","type":"function"},{"inputs":[{"internalType":"address","name":"account","type":"address"},{"internalType":"string","name":"name","type":"string"}],"name":"assignEnterprise","outputs":[],"stateMutability":"nonpayable","type":"function"},{"inputs":[{"internalType":"address","name":"account","type":"address"},{"internalType":"string","name":"name","type":"string"}],"name":"assignRegulator","outputs":[],"stateMutability":"nonpayable","type":"function"},{"inputs":[{"internalType":"address","name":"account","type":"address"},{"internalType":"string","name":"name","type":"string"}],"name":"assignSecondaryBank","outputs":[],"stateMutability":"nonpayable","type":"function"},{"inputs":[{"internalType":"address","name":"account","type":"address"},{"internalType":"string","name":"name","type":"string"}],"name":"assignUser","outputs":[],"stateMutability":"nonpayable","type":"function"},{"inputs":[{"internalType":"uint256","name":"","type":"uint256"}],"name":"auditReports","outputs":[{"internalType":"uint256","name":"reportId","type":"uint256"},{"internalType":"uint256","name":"txId","type":"uint256"},{"internalType":"address","name":"auditor","type":"address"},{"internalType":"string","name":"result","type":"string"},{"internalType":"string","name":"notes","type":"string"},{"internalType":"uint256","name":"timestamp","type":"uint256"},{"internalType":"bool","name":"passed","type":"bool"}],"stateMutability":"view","type":"function"},{"inputs":[{"internalType":"uint256","name":"txId","type":"uint256"},{"internalType":"string","name":"result","type":"string"},{"internalType":"string","name":"notes","type":"string"},{"internalType":"bool","name":"passed","type":"bool"}],"name":"auditTransaction","outputs":[],"stateMutability":"nonpayable","type":"function"},{"inputs":[{"internalType":"uint256","name":"","type":"uint256"}],"name":"auditedTransactions","outputs":[{"internalType":"bool","name":"","type":"bool"}],"stateMutability":"view","type":"function"},{"inputs":[{"internalType":"uint256","name":"amount","type":"uint256"}],"name":"convertAccountToUTXO","outputs":[],"stateMutability":"nonpayable","type":"function"},{"inputs":[{"internalType":"uint256[]","name":"utxoIds","type":"uint256[]"},{"internalType":"uint256","name":"amount","type":"uint256"}],"name":"convertUTXOToAccount","outputs":[],"stateMutability":"nonpayable","type":"function"},{"inputs":[{"components":[{"internalType":"uint256","name":"prevTxId","type":"uint256"},{"internalType":"uint256","name":"outputIndex","type":"uint256"},{"internalType":"bytes","name":"signature","type":"bytes"}],"internalType":"struct CDBCTransaction.Input[]","name":"inputs","type":"tuple[]"},{"components":[{"internalType":"uint256","name":"value","type":"uint256"},{"internalType":"address payable","name":"recipient","type":"address"},{"internalType":"bool","name":"isSpent","type":"bool"},{"internalType":"uint256","name":"lockTime","type":"uint256"}],"internalType":"struct CDBCTransaction.Output[]","name":"outputs","type":"tuple[]"}],"name":"createTransaction","outputs":[{"internalType":"uint256","name":"","type":"uint256"}],"stateMutability":"nonpayable","type":"function"},{"inputs":[{"internalType":"address","name":"addr","type":"address"},{"internalType":"string","name":"notes","type":"string"}],"name":"generateAddressAuditReport","outputs":[{"internalType":"uint256","name":"","type":"uint256"}],"stateMutability":"nonpayable","type":"function"},{"inputs":[{"internalType":"address","name":"addr","type":"address"}],"name":"getAddressAuditReports","outputs":[{"internalType":"uint256[]","name":"","type":"uint256[]"}],"stateMutability":"view","type":"function"},{"inputs":[{"internalType":"address","name":"owner","type":"address"}],"name":"getAddressBalance","outputs":[{"internalType":"uint256","name":"","type":"uint256"}],"stateMutability":"view","type":"function"},{"inputs":[{"internalType":"address","name":"owner","type":"address"}],"name":"getAddressUTXOs","outputs":[{"internalType":"uint256[]","name":"","type":"uint256[]"}],"stateMutability":"view","type":"function"},{"inputs":[{"internalType":"uint256","name":"reportId","type":"uint256"}],"name":"getAuditReport","outputs":[{"components":[{"internalType":"uint256","name":"reportId","type":"uint256"},{"internalType":"uint256","name":"txId","type":"uint256"},{"internalType":"address","name":"auditor","type":"address"},{"internalType":"string","name":"result","type":"string"},{"internalType":"string","name":"notes","type":"string"},{"internalType":"uint256","name":"timestamp","type":"uint256"},{"internalType":"bool","name":"passed","type":"bool"}],"internalType":"struct CDBCRegulatory.AuditReport","name":"","type":"tuple"}],"stateMutability":"view","type":"function"},{"inputs":[{"internalType":"bytes32","name":"role","type":"bytes32"}],"name":"getRoleAdmin","outputs":[{"internalType":"bytes32","name":"","type":"bytes32"}],"stateMutability":"view","type":"function"},{"inputs":[{"internalType":"address","name":"account","type":"address"}],"name":"getRoleLevel","outputs":[{"internalType":"uint256","name":"","type":"uint256"}],"stateMutability":"view","type":"function"},{"inputs":[{"internalType":"uint256","name":"suspiciousId","type":"uint256"}],"name":"getSuspiciousTransaction","outputs":[{"components":[{"internalType":"uint256","name":"txId","type":"uint256"},{"internalType":"address","name":"sender","type":"address"},{"internalType":"address","name":"recipient","type":"address"},{"internalType":"uint256","name":"amount","type":"uint256"},{"internalType":"string","name":"reason","type":"string"},{"internalType":"bool","name":"investigated","type":"bool"},{"internalType":"uint256","name":"timestamp","type":"uint256"}],"internalType":"struct CDBCRegulatory.SuspiciousTransaction","name":"","type":"tuple"}],"stateMutability":"view","type":"function"},{"inputs":[{"internalType":"uint256","name":"txId","type":"uint256"}],"name":"getTransaction","outputs":[{"components":[{"internalType":"uint256","name":"txId","type":"uint256"},{"components":[{"internalType":"uint256","name":"prevTxId","type":"uint256"},{"internalType":"uint256","name":"outputIndex","type":"uint256"},{"internalType":"bytes","name":"signature","type":"bytes"}],"internalType":"struct CDBCTransaction.Input[]","name":"inputs","type":"tuple[]"},{"components":[{"internalType":"uint256","name":"value","type":"uint256"},{"internalType":"address payable","name":"recipient","type":"address"},{"internalType":"bool","name":"isSpent","type":"bool"},{"internalType":"uint256","name":"lockTime","type":"uint256"}],"internalType":"struct CDBCTransaction.Output[]","name":"outputs","type":"tuple[]"},{"internalType":"uint256","name":"timestamp","type":"uint256"},{"internalType":"address","name":"sender","type":"address"}],"internalType":"struct CDBCTransaction.Transaction","name":"","type":"tuple"}],"stateMutability":"view","type":"function"},{"inputs":[{"internalType":"address","name":"addr","type":"address"},{"internalType":"uint256","name":"startIndex","type":"uint256"},{"internalType":"uint256","name":"count","type":"uint256"}],"name":"getTransactionHistory","outputs":[{"components":[{"internalType":"uint256","name":"txId","type":"uint256"},{"components":[{"internalType":"uint256","name":"prevTxId","type":"uint256"},{"internalType":"uint256","name":"outputIndex","type":"uint256"},{"internalType":"bytes","name":"signature","type":"bytes"}],"internalType":"struct CDBCTransaction.Input[]","name":"inputs","type":"tuple[]"},{"components":[{"internalType":"uint256","name":"value","type":"uint256"},{"internalType":"address payable","name":"recipient","type":"address"},{"internalType":"bool","name":"isSpent","type":"bool"},{"internalType":"uint256","name":"lockTime","type":"uint256"}],"internalType":"struct CDBCTransaction.Output[]","name":"outputs","type":"tuple[]"},{"internalType":"uint256","name":"timestamp","type":"uint256"},{"internalType":"address","name":"sender","type":"address"}],"internalType":"struct CDBCTransaction.Transaction[]","name":"","type":"tuple[]"}],"stateMutability":"view","type":"function"},{"inputs":[{"internalType":"uint256","name":"utxoId","type":"uint256"}],"name":"getUTXODetails","outputs":[{"components":[{"internalType":"uint256","name":"value","type":"uint256"},{"internalType":"address payable","name":"recipient","type":"address"},{"internalType":"bool","name":"isSpent","type":"bool"},{"internalType":"uint256","name":"lockTime","type":"uint256"}],"internalType":"struct CDBCTransaction.Output","name":"","type":"tuple"}],"stateMutability":"view","type":"function"},{"inputs":[{"internalType":"bytes32","name":"role","type":"bytes32"},{"internalType":"address","name":"account","type":"address"}],"name":"grantRole","outputs":[],"stateMutability":"nonpayable","type":"function"},{"inputs":[{"internalType":"bytes32","name":"role","type":"bytes32"},{"internalType":"address","name":"account","type":"address"}],"name":"hasRole","outputs":[{"internalType":"bool","name":"","type":"bool"}],"stateMutability":"view","type":"function"},{"inputs":[{"internalType":"address","name":"account","type":"address"}],"name":"hasValidRole","outputs":[{"internalType":"bool","name":"","type":"bool"}],"stateMutability":"view","type":"function"},{"inputs":[{"internalType":"uint256","name":"suspiciousId","type":"uint256"},{"internalType":"bool","name":"confirmed","type":"bool"},{"internalType":"string","name":"notes","type":"string"}],"name":"investigateSuspiciousTransaction","outputs":[],"stateMutability":"nonpayable","type":"function"},{"inputs":[{"internalType":"address","name":"recipient","type":"address"},{"internalType":"uint256","name":"amount","type":"uint256"}],"name":"mint","outputs":[],"stateMutability":"nonpayable","type":"function"},{"inputs":[{"internalType":"address","name":"","type":"address"}],"name":"recentTransactionCount","outputs":[{"internalType":"uint256","name":"","type":"uint256"}],"stateMutability":"view","type":"function"},{"inputs":[{"internalType":"address","name":"","type":"address"}],"name":"recentTransactionWindow","outputs":[{"internalType":"uint256","name":"","type":"uint256"}],"stateMutability":"view","type":"function"},{"inputs":[{"internalType":"bytes32","name":"role","type":"bytes32"},{"internalType":"address","name":"callerConfirmation","type":"address"}],"name":"renounceRole","outputs":[],"stateMutability":"nonpayable","type":"function"},{"inputs":[],"name":"reportCounter","outputs":[{"internalType":"uint256","name":"","type":"uint256"}],"stateMutability":"view","type":"function"},{"inputs":[{"internalType":"address","name":"account","type":"address"},{"internalType":"bytes32","name":"role","type":"bytes32"}],"name":"revokeRole","outputs":[],"stateMutability":"nonpayable","type":"function"},{"inputs":[{"internalType":"bytes32","name":"role","type":"bytes32"},{"internalType":"address","name":"account","type":"address"}],"name":"revokeRole","outputs":[],"stateMutability":"nonpayable","type":"function"},{"inputs":[{"internalType":"address","name":"","type":"address"}],"name":"roleInfo","outputs":[{"internalType":"address","name":"addr","type":"address"},{"internalType":"string","name":"name","type":"string"},{"internalType":"uint256","name":"level","type":"uint256"},{"internalType":"bool","name":"active","type":"bool"},{"internalType":"uint256","name":"createdAt","type":"uint256"}],"stateMutability":"view","type":"function"},{"inputs":[{"internalType":"uint256","name":"newThreshold","type":"uint256"}],"name":"setFrequentTransactionThreshold","outputs":[],"stateMutability":"nonpayable","type":"function"},{"inputs":[{"internalType":"uint256","name":"newThreshold","type":"uint256"}],"name":"setLargeTransactionThreshold","outputs":[],"stateMutability":"nonpayable","type":"function"},{"inputs":[{"internalType":"bytes4","name":"interfaceId","type":"bytes4"}],"name":"supportsInterface","outputs":[{"internalType":"bool","name":"","type":"bool"}],"stateMutability":"view","type":"function"},{"inputs":[],"name":"suspiciousCounter","outputs":[{"internalType":"uint256","name":"","type":"uint256"}],"stateMutability":"view","type":"function"},{"inputs":[{"internalType":"uint256","name":"","type":"uint256"}],"name":"suspiciousTransactions","outputs":[{"internalType":"uint256","name":"txId","type":"uint256"},{"internalType":"address","name":"sender","type":"address"},{"internalType":"address","name":"recipient","type":"address"},{"internalType":"uint256","name":"amount","type":"uint256"},{"internalType":"string","name":"reason","type":"string"},{"internalType":"bool","name":"investigated","type":"bool"},{"internalType":"uint256","name":"timestamp","type":"uint256"}],"stateMutability":"view","type":"function"},{"inputs":[],"name":"totalSupply","outputs":[{"internalType":"uint256","name":"","type":"uint256"}],"stateMutability":"view","type":"function"},{"inputs":[{"internalType":"uint256","name":"","type":"uint256"}],"name":"transactions","outputs":[{"internalType":"uint256","name":"txId","type":"uint256"},{"internalType":"uint256","name":"timestamp","type":"uint256"},{"internalType":"address","name":"sender","type":"address"}],"stateMutability":"view","type":"function"},{"inputs":[],"name":"txCounter","outputs":[{"internalType":"uint256","name":"","type":"uint256"}],"stateMutability":"view","type":"function"},{"inputs":[{"internalType":"uint256","name":"","type":"uint256"}],"name":"txIdExists","outputs":[{"internalType":"bool","name":"","type":"bool"}],"stateMutability":"view","type":"function"},{"inputs":[{"internalType":"address","name":"account","type":"address"},{"internalType":"string","name":"name","type":"string"},{"internalType":"bool","name":"active","type":"bool"}],"name":"updateRoleInfo","outputs":[],"stateMutability":"nonpayable","type":"function"},{"inputs":[{"internalType":"uint256","name":"","type":"uint256"}],"name":"utxos","outputs":[{"internalType":"uint256","name":"value","type":"uint256"},{"internalType":"address payable","name":"recipient","type":"address"},{"internalType":"bool","name":"isSpent","type":"bool"},{"internalType":"uint256","name":"lockTime","type":"uint256"}],"stateMutability":"view","type":"function"},{"inputs":[{"internalType":"address","name":"account","type":"address"},{"internalType":"uint256","name":"requiredLevel","type":"uint256"}],"name":"validatePermission","outputs":[{"internalType":"bool","name":"","type":"bool"}],"stateMutability":"view","type":"function"}],"evm":{"bytecode":{"linkReferences":{},"object":"608060405269152d02c7e14af6800000600c55600a600d553480156200002457600080fd5b50620000326000336200018e565b506200004e60008051602062005728833981519152336200018e565b506040805160a0810182523380825282518084018452600b81526a5072696d61727942616e6b60a81b60208083019190915280840191825260018486018190526060850181905242608086015260009384529081905293909120825181546001600160a01b0319166001600160a01b0390911617815590519192909190820190620000da9082620002e2565b506040828101516002830155606083015160038301805491151560ff1990921691909117905560809092015160049091015551600080516020620057288339815191529033907f988ad249a3a578f3ca7b7f03da9ffdb25c0f9bf3684a5b8aac97d04fc81c2107906200016c906020808252600b908201526a5072696d61727942616e6b60a81b604082015260600190565b60405180910390a36000600681905560078190556010819055601155620003ae565b6000828152602081815260408083206001600160a01b038516845290915281205460ff1662000233576000838152602081815260408083206001600160a01b03861684529091529020805460ff19166001179055620001ea3390565b6001600160a01b0316826001600160a01b0316847f2f8788117e7eff1d82e926ec794901d17c78024a50270940304540a733656f0d60405160405180910390a450600162000237565b5060005b92915050565b634e487b7160e01b600052604160045260246000fd5b600181811c908216806200026857607f821691505b6020821081036200028957634e487b7160e01b600052602260045260246000fd5b50919050565b601f821115620002dd57600081815260208120601f850160051c81016020861015620002b85750805b601f850160051c820191505b81811015620002d957828155600101620002c4565b5050505b505050565b81516001600160401b03811115620002fe57620002fe6200023d565b62000316816200030f845462000253565b846200028f565b602080601f8311600181146200034e5760008415620003355750858301515b600019600386901b1c1916600185901b178555620002d9565b600085815260208120601f198616915b828110156200037f578886015182559484019460019091019084016200035e565b50858210156200039e5787850151600019600388901b60f8161c191681555b5050505050600190811b01905550565b61536a80620003be6000396000f3fe608060405234801561001057600080fd5b50600436106102935760003560e01c806301ffc9a7146102985780630daf71ac146102c057806313119161146102e6578063144bf5891461030957806316d6d2c41461031e57806317302eb91461033e57806318160ddd14610353578063197277fd1461035c578063208dd1ff1461037c578063217b8ee91461038f578063248a9ca3146103a257806324f13320146103b55780632f2ff15d146103d957806332cb6b0c146103ec57806333ea3dc8146103fe5780633409d8f61461041e578063350467221461044157806336568abe146104545780633ceaf7e9146104675780633fd4c11b1461047a57806340c10f19146104a05780635a3c61eb146104b35780635cead0e9146104c6578063612999d5146104d9578063658a4823146104ec57806368dd17a5146104ff5780637304c5881461051457806374f079b81461052757806376ad18b914610530578063780991bd146105505780637b19f48c146105595780637c0f8882146105625780638001cfe514610575578063815913871461058857806381693d27146105fb5780638805ce35146106045780638e598f181461061757806391d148541461063a5780639859199d1461064d5780639ace38c214610660578063a217fddf146106bc578063a43ef956146106c4578063b9bc38f2146106d7578063c2f959c3146106e0578063c49baebe14610700578063c5fbb61014610727578063c8aee7541461073c578063cf850c8d14610768578063d31382551461077b578063d547741f1461078e578063d980d735146107a1578063e0b99a2d146107c1578063e206ba50146107d4578063ecc6152c146107e9578063f74577d5146107fc578063f8031e901461080f578063ffe4c2d31461082f575b600080fd5b6102ab6102a63660046142d5565b61084f565b60405190151581526020015b60405180910390f35b6102d36102ce3660046142ff565b610886565b6040516102b7979695949392919061435e565b6102fb6000805160206152b583398151915281565b6040519081526020016102b7565b6102fb60008051602061527583398151915281565b61033161032c3660046142ff565b6109e1565b6040516102b791906143b9565b61035161034c3660046142ff565b610b21565b005b6102fb60075481565b61036f61036a366004614443565b610b3f565b6040516102b791906145b1565b61035161038a366004614613565b610f3c565b6102ab61039d36600461463f565b61109d565b6102fb6103b03660046142ff565b6111a9565b6103c86103c336600461463f565b6111be565b6040516102b795949392919061465c565b6103516103e736600461469d565b611286565b6102fb676765c793fa10079d601b1b81565b61041161040c3660046142ff565b6112a8565b6040516102b791906146cd565b6102ab61042c3660046142ff565b60056020526000908152604090205460ff1681565b6102fb61044f36600461463f565b611493565b61035161046236600461469d565b61156f565b6102fb610475366004614613565b6115a7565b61048d6104883660046142ff565b6115d8565b6040516102b797969594939291906146e0565b6103516104ae366004614613565b6116ae565b6102fb6104c13660046147da565b6119f6565b6103516104d43660046147da565b611c11565b6103516104e73660046142ff565b611dcc565b6103516104fa3660046147da565b611dea565b6102fb6000805160206151f583398151915281565b6103516105223660046147da565b611fae565b6102fb60065481565b61054361053e36600461463f565b612172565b6040516102b79190614829565b6102fb600d5481565b6102fb60115481565b6102ab610570366004614613565b6121de565b6102fb610583366004614613565b6122e6565b6105cd6105963660046142ff565b60036020526000908152604090208054600182015460029092015490916001600160a01b03811691600160a01b90910460ff169084565b604080519485526001600160a01b0390931660208501529015159183019190915260608201526080016102b7565b6102fb600c5481565b6103516106123660046142ff565b612302565b6102ab6106253660046142ff565b60086020526000908152604090205460ff1681565b6102ab61064836600461469d565b6123ff565b61035161065b36600461487b565b612428565b61069861066e3660046142ff565b6002602052600090815260409020805460038201546004909201549091906001600160a01b031683565b6040805193845260208401929092526001600160a01b0316908201526060016102b7565b6102fb600081565b6105436106d236600461463f565b612592565b6102fb60105481565b6102fb6106ee36600461463f565b600e6020526000908152604090205481565b6102fb7f21702c8af46127c7fa207f89d0b0a8441bb32959a0ac7df790e9ab1a25c9892681565b6102fb6000805160206152d583398151915281565b6102fb61074a36600461463f565b6001600160a01b031660009081526001602052604090206002015490565b6103516107763660046147da565b6125fc565b610351610789366004614929565b61276f565b61035161079c36600461469d565b6129b0565b6107b46107af3660046142ff565b6129cc565b6040516102b79190614974565b6102fb6107cf366004614982565b612a2b565b6102fb60008051602061525583398151915281565b6103516107f7366004614a1b565b612c31565b61035161080a366004614a73565b612d91565b61082261081d3660046142ff565b6131be565b6040516102b79190614af2565b6102fb61083d36600461463f565b600f6020526000908152604090205481565b60006001600160e01b03198216637965db0b60e01b148061088057506301ffc9a760e01b6001600160e01b03198316145b92915050565b6009602052600090815260409020805460018201546002830154600384018054939492936001600160a01b0390921692916108c090614b75565b80601f01602080910402602001604051908101604052809291908181526020018280546108ec90614b75565b80156109395780601f1061090e57610100808354040283529160200191610939565b820191906000526020600020905b81548152906001019060200180831161091c57829003601f168201915b50505050509080600401805461094e90614b75565b80601f016020809104026020016040519081016040528092919081815260200182805461097a90614b75565b80156109c75780601f1061099c576101008083540402835291602001916109c7565b820191906000526020600020905b8154815290600101906020018083116109aa57829003601f168201915b50505050600583015460069093015491929160ff16905087565b6040805160e0810182526000808252602082018190529181018290526060808201839052608082015260a0810182905260c08101919091526000828152600b6020908152604091829020825160e0810184528154815260018201546001600160a01b039081169382019390935260028201549092169282019290925260038201546060820152600482018054919291608084019190610a7f90614b75565b80601f0160208091040260200160405190810160405280929190818152602001828054610aab90614b75565b8015610af85780601f10610acd57610100808354040283529160200191610af8565b820191906000526020600020905b815481529060010190602001808311610adb57829003601f168201915b5050509183525050600582015460ff161515602082015260069091015460409091015292915050565b600080516020615255833981519152610b3981613394565b50600c55565b6060600080516020615275833981519152610b5981613394565b6000836001600160401b03811115610b7357610b7361472f565b604051908082528060200260200182016040528015610bac57816020015b610b99614217565b815260200190600190039081610b915790505b5090506000855b60065481108015610bc357508582105b15610e84576000818152600260209081526040808320815160a081018352815481526001820180548451818702810187019095528085529194929385840193909290879084015b82821015610ce257838290600052602060002090600302016040518060600160405290816000820154815260200160018201548152602001600282018054610c5190614b75565b80601f0160208091040260200160405190810160405280929190818152602001828054610c7d90614b75565b8015610cca5780601f10610c9f57610100808354040283529160200191610cca565b820191906000526020600020905b815481529060010190602001808311610cad57829003601f168201915b50505050508152505081526020019060010190610c0a565b50505050815260200160028201805480602002602001604051908101604052809291908181526020016000905b82821015610d745760008481526020908190206040805160808101825260038602909201805483526001808201546001600160a01b03811685870152600160a01b900460ff161515928401929092526002015460608301529083529092019101610d0f565b50505090825250600382015460208201526004909101546001600160a01b0390811660409092019190915260808201519192508a8116911603610de25780848481518110610dc457610dc4614baf565b60200260200101819052508280610dda90614bdb565b935050610e71565b60005b816040015151811015610e6f57896001600160a01b031682604001518281518110610e1257610e12614baf565b6020026020010151602001516001600160a01b031603610e5d5781858581518110610e3f57610e3f614baf565b60200260200101819052508380610e5590614bdb565b945050610e6f565b80610e6781614bdb565b915050610de5565b505b5080610e7c81614bdb565b915050610bb3565b506000816001600160401b03811115610e9f57610e9f61472f565b604051908082528060200260200182016040528015610ed857816020015b610ec5614217565b815260200190600190039081610ebd5790505b50905060005b82811015610f3057838181518110610ef857610ef8614baf565b6020026020010151828281518110610f1257610f12614baf565b60200260200101819052508080610f2890614bdb565b915050610ede565b50979650505050505050565b610f54600080516020615255833981519152336123ff565b610fb05760405162461bcd60e51b815260206004820152602260248201527f4f6e6c79207072696d6172792062616e6b2063616e207265766f6b6520726f6c604482015261657360f01b60648201526084015b60405180910390fd5b610fba81836123ff565b6110065760405162461bcd60e51b815260206004820152601e60248201527f4163636f756e7420646f6573206e6f7420686176652074686520726f6c6500006044820152606401610fa7565b61101081836133a1565b506001600160a01b0382166000908152600160208190526040822080546001600160a01b031916815591906110479083018261424f565b5060006002820181905560038201805460ff19169055600490910181905560405182916001600160a01b038516917fea83a7caef01824e96446a8c4bc8ff4669edd99e129b53e32c077f85d21680819190a35050565b6001600160a01b038082166000908152600160208181526040808420815160a08101909252805490951681529184018054939485949092840191906110e190614b75565b80601f016020809104026020016040519081016040528092919081815260200182805461110d90614b75565b801561115a5780601f1061112f5761010080835404028352916020019161115a565b820191906000526020600020905b81548152906001019060200180831161113d57829003601f168201915b505050918352505060028201546020820152600382015460ff161515604082015260049091015460609182015281015190915080156111a2575080516001600160a01b031615155b9392505050565b60009081526020819052604090206001015490565b6001602081905260009182526040909120805491810180546001600160a01b03909316926111eb90614b75565b80601f016020809104026020016040519081016040528092919081815260200182805461121790614b75565b80156112645780601f1061123957610100808354040283529160200191611264565b820191906000526020600020905b81548152906001019060200180831161124757829003601f168201915b50505050600283015460038401546004909401549293909260ff909116915085565b61128f826111a9565b61129881613394565b6112a28383613414565b50505050565b6112b0614217565b600260008381526020019081526020016000206040518060a00160405290816000820154815260200160018201805480602002602001604051908101604052809291908181526020016000905b828210156113d55783829060005260206000209060030201604051806060016040529081600082015481526020016001820154815260200160028201805461134490614b75565b80601f016020809104026020016040519081016040528092919081815260200182805461137090614b75565b80156113bd5780601f10611392576101008083540402835291602001916113bd565b820191906000526020600020905b8154815290600101906020018083116113a057829003601f168201915b505050505081525050815260200190600101906112fd565b50505050815260200160028201805480602002602001604051908101604052809291908181526020016000905b828210156114675760008481526020908190206040805160808101825260038602909201805483526001808201546001600160a01b03811685870152600160a01b900460ff161515928401929092526002015460608301529083529092019101611402565b50505090825250600382015460208201526004909101546001600160a01b031660409091015292915050565b6001600160a01b038116600090815260046020526040812081805b8254811015611567576000600360008584815481106114cf576114cf614baf565b6000918252602080832091909101548352828101939093526040918201902081516080810183528154815260018201546001600160a01b03811694820194909452600160a01b90930460ff161580159284018390526002909101546060840152919250611540575080606001514210155b156115545780516115519084614bf4565b92505b508061155f81614bdb565b9150506114ae565b509392505050565b6001600160a01b03811633146115985760405163334bd91960e11b815260040160405180910390fd5b6115a282826133a1565b505050565b600a60205281600052604060002081815481106115c357600080fd5b90600052602060002001600091509150505481565b600b602052600090815260409020805460018201546002830154600384015460048501805494956001600160a01b03948516959390941693919261161b90614b75565b80601f016020809104026020016040519081016040528092919081815260200182805461164790614b75565b80156116945780601f1061166957610100808354040283529160200191611694565b820191906000526020600020905b81548152906001019060200180831161167757829003601f168201915b505050506005830154600690930154919260ff1691905087565b6000805160206152558339815191526116c681613394565b676765c793fa10079d601b1b826007546116e09190614bf4565b11156117275760405162461bcd60e51b815260206004820152601660248201527545786365656473206d6178696d756d20737570706c7960501b6044820152606401610fa7565b6001600160a01b0383166117795760405162461bcd60e51b8152602060048201526019602482015278496e76616c696420726563697069656e74206164647265737360381b6044820152606401610fa7565b6117828361109d565b6117ce5760405162461bcd60e51b815260206004820181905260248201527f526563697069656e74206d757374206861766520612076616c696420726f6c656044820152606401610fa7565b60008383426006546040516020016117e99493929190614c07565b60408051601f1981840301815282825280516020918201206080840183528684526001600160a01b03808916858401818152600087870181815260608901828152868352600388528883208a51815593516001858101805494511515600160a01b026001600160a81b031990951692909816919091179290921790955593516002909201919091559081526004845293842080549182018155845291832090910181905560078054919450869290916118a3908490614bf4565b90915550506000828152600260208181526040808420868155426003808301919091556004820180546001600160a01b03191633179055908401805460018181018355918752848720885191909302909201918255868401518282018054898601511515600160a01b026001600160a81b03199091166001600160a01b0393909316929092179190911790556060870151919094015585845260059091528220805460ff19169091179055600680549161195c83614bdb565b9190505550846001600160a01b0316826000805160206152958339815191528660405161198b91815260200190565b60405180910390a360405184815233907f2c6364c33c231f6b00d9d8736d5ffc450b1a21fda45ef7847565e16a039a4cd59060200160405180910390a260405160018152339083906000805160206152f5833981519152906020015b60405180910390a35050505050565b6000600080516020615275833981519152611a1081613394565b6010546040516001600160601b0319606087811b8216602084015233901b16603482015242604882015260688101919091526000906088016040516020818303038152906040528051906020012060001c90506000611a6e86611493565b90506000611a7b87612592565b90506000808311611aaf576040518060400160405280600b81526020016a4c6f772062616c616e636560a81b815250611acf565b60405180604001604052806006815260200165139bdc9b585b60d21b8152505b6040805160e081018252868152600060208083018281523384860190815260608501878152608086018f90524260a0870152600160c087018190528c86526009909452959093208451815590518183015591516002830180546001600160a01b0319166001600160a01b0390921691909117905592519394509192909182916003820190611b5d9082614c8c565b5060808201516004820190611b729082614c8c565b5060a0820151600582015560c0909101516006909101805460ff19169115159190911790556001600160a01b038a166000908152600a60209081526040808320805460018101825590845291832090910188905551879060008051602061523583398151915290611be69086908890614d45565b60405180910390a360108054906000611bfe83614bdb565b90915550959a9950505050505050505050565b600080516020615255833981519152611c2981613394565b611c416000805160206152d5833981519152846123ff565b15611c9e5760405162461bcd60e51b815260206004820152602760248201527f4163636f756e7420616c726561647920686173207365636f6e646172792062616044820152666e6b20726f6c6560c81b6064820152608401610fa7565b611cb6600080516020615255833981519152846123ff565b15611cd35760405162461bcd60e51b8152600401610fa790614d60565b611ceb6000805160206152d583398151915284613414565b506040805160a0810182526001600160a01b03858116808352602080840187815260028587015260016060860181905242608087015260009384529182905294909120835181546001600160a01b031916931692909217825592519192909190820190611d589082614c8c565b506040828101516002830155606083015160038301805460ff1916911515919091179055608090920151600490910155516000805160206152d5833981519152906001600160a01b0385169060008051602061521583398151915290611dbf908690614da1565b60405180910390a3505050565b600080516020615255833981519152611de481613394565b50600d55565b6000805160206152d5833981519152611e0281613394565b611e1a6000805160206152b5833981519152846123ff565b158015611e3c5750611e3a6000805160206151f5833981519152846123ff565b155b611e585760405162461bcd60e51b8152600401610fa790614db4565b611e706000805160206152d5833981519152846123ff565b15611e8d5760405162461bcd60e51b8152600401610fa790614dfc565b611ea5600080516020615255833981519152846123ff565b15611ec25760405162461bcd60e51b8152600401610fa790614d60565b611eda6000805160206152b583398151915284613414565b506040805160a0810182526001600160a01b03858116808352602080840187815260038587015260016060860181905242608087015260009384529182905294909120835181546001600160a01b031916931692909217825592519192909190820190611f479082614c8c565b506040828101516002830155606083015160038301805460ff1916911515919091179055608090920151600490910155516000805160206152b5833981519152906001600160a01b0385169060008051602061521583398151915290611dbf908690614da1565b6000805160206152d5833981519152611fc681613394565b611fde6000805160206152b5833981519152846123ff565b1580156120005750611ffe6000805160206151f5833981519152846123ff565b155b61201c5760405162461bcd60e51b8152600401610fa790614db4565b6120346000805160206152d5833981519152846123ff565b156120515760405162461bcd60e51b8152600401610fa790614dfc565b612069600080516020615255833981519152846123ff565b156120865760405162461bcd60e51b8152600401610fa790614d60565b61209e6000805160206151f583398151915284613414565b506040805160a0810182526001600160a01b03858116808352602080840187815260038587015260016060860181905242608087015260009384529182905294909120835181546001600160a01b03191693169290921782559251919290919082019061210b9082614c8c565b506040828101516002830155606083015160038301805460ff1916911515919091179055608090920151600490910155516000805160206151f5833981519152906001600160a01b0385169060008051602061521583398151915290611dbf908690614da1565b6001600160a01b0381166000908152600a60209081526040918290208054835181840281018401909452808452606093928301828280156121d257602002820191906000526020600020905b8154815260200190600101908083116121be575b50505050509050919050565b6001600160a01b038083166000908152600160208181526040808420815160a081019092528054909516815291840180549394859490928401919061222290614b75565b80601f016020809104026020016040519081016040528092919081815260200182805461224e90614b75565b801561229b5780601f106122705761010080835404028352916020019161229b565b820191906000526020600020905b81548152906001019060200180831161227e57829003601f168201915b505050918352505060028201546020820152600382015460ff161515604082015260049091015460609182015281015190915080156122de575082816040015111155b949350505050565b600460205281600052604060002081815481106115c357600080fd5b61230b3361109d565b6123275760405162461bcd60e51b8152600401610fa790614e3f565b60003382426006546040516020016123429493929190614c07565b60408051601f19818403018152828252805160209182012060808401835285845233828501818152600086860181815260608801828152858352600387528783208951815593516001808601805494511515600160a01b026001600160a81b03199095166001600160a01b0390931692909217939093179055516002909301929092558281526004855285812080549283018155815284902001829055925186815290945084916000805160206152958339815191529101611dbf565b6000918252602082815260408084206001600160a01b0393909316845291905290205460ff1690565b612440600080516020615255833981519152336123ff565b8061245e575061245e6000805160206152d5833981519152336123ff565b6124a85760405162461bcd60e51b815260206004820152601b60248201527a4f6e6c792062616e6b732063616e2075706461746520726f6c657360281b6044820152606401610fa7565b6001600160a01b038381166000908152600160205260409020541661250e5760405162461bcd60e51b815260206004820152601c60248201527b4163636f756e7420646f6573206e6f742068617665206120726f6c6560201b6044820152606401610fa7565b6001600160a01b03831660009081526001602081905260409091209081016125368482614c8c565b5060038101805460ff19168315151790556040516001600160a01b038516907fc4d12f4fed3c7d8e40b10b954dc4b19c26000388e17fd31b4af750dd33b41664906125849086908690614e76565b60405180910390a250505050565b6001600160a01b0381166000908152600460209081526040918290208054835181840281018401909452808452606093928301828280156121d257602002820191906000526020600020908154815260200190600101908083116121be5750505050509050919050565b60008051602061525583398151915261261481613394565b61262c600080516020615275833981519152846123ff565b156126845760405162461bcd60e51b815260206004820152602260248201527f4163636f756e7420616c72656164792068617320726567756c61746f7220726f6044820152616c6560f01b6064820152608401610fa7565b61269c60008051602061527583398151915284613414565b506040805160a0810182526001600160a01b038581168083526020808401878152600085870181905260016060870181905242608088015293815291839052949020835181546001600160a01b0319169316929092178255925191929091908201906127089082614c8c565b506040828101516002830155606083015160038301805460ff191691151591909117905560809092015160049091015551600080516020615275833981519152906001600160a01b0385169060008051602061521583398151915290611dbf908690614da1565b6127783361109d565b6127945760405162461bcd60e51b8152600401610fa790614e3f565b6000805b83811015612872576000600360008787858181106127b8576127b8614baf565b6020908102929092013583525081019190915260400160002060018101549091506001600160a01b031633146128005760405162461bcd60e51b8152600401610fa790614e9a565b6001810154600160a01b900460ff161561282c5760405162461bcd60e51b8152600401610fa790614ec6565b80600201544210156128505760405162461bcd60e51b8152600401610fa790614ef2565b805461285c9084614bf4565b925050808061286a90614bdb565b915050612798565b50818110156128bf5760405162461bcd60e51b8152602060048201526019602482015278496e73756666696369656e74205554584f2062616c616e636560381b6044820152606401610fa7565b60005b83811015612967576000600360008787858181106128e2576128e2614baf565b6020908102929092013583525081019190915260400160002060018101805460ff60a01b1916600160a01b179055905085858381811061292457612924614baf565b9050602002013560008051602061531583398151915260065460405161294c91815260200190565b60405180910390a2508061295f81614bdb565b9150506128c2565b5060005b838110156129a9576129973386868481811061298957612989614baf565b90506020020135600061349e565b806129a181614bdb565b91505061296b565b5050505050565b6129b9826111a9565b6129c281613394565b6112a283836133a1565b6129d4614289565b5060009081526003602090815260409182902082516080810184528154815260018201546001600160a01b03811693820193909352600160a01b90920460ff16151592820192909252600290910154606082015290565b600080612a3a8686868661359e565b90506000600260008381526020019081526020016000206040518060a00160405290816000820154815260200160018201805480602002602001604051908101604052809291908181526020016000905b82821015612b6357838290600052602060002090600302016040518060600160405290816000820154815260200160018201548152602001600282018054612ad290614b75565b80601f0160208091040260200160405190810160405280929190818152602001828054612afe90614b75565b8015612b4b5780601f10612b2057610100808354040283529160200191612b4b565b820191906000526020600020905b815481529060010190602001808311612b2e57829003601f168201915b50505050508152505081526020019060010190612a8b565b50505050815260200160028201805480602002602001604051908101604052809291908181526020016000905b82821015612bf55760008481526020908190206040805160808101825260038602909201805483526001808201546001600160a01b03811685870152600160a01b900460ff161515928401929092526002015460608301529083529092019101612b90565b50505090825250600382015460208201526004909101546001600160a01b03166040909101529050612c278282613e38565b5095945050505050565b600080516020615275833981519152612c4981613394565b6011548410612ca85760405162461bcd60e51b815260206004820152602560248201527f537573706963696f7573207472616e73616374696f6e20646f6573206e6f7420604482015264195e1a5cdd60da1b6064820152608401610fa7565b6000848152600b60205260409020600581015460ff1615612d0b5760405162461bcd60e51b815260206004820181905260248201527f5472616e73616374696f6e20616c726561647920696e766573746967617465646044820152606401610fa7565b60058101805460ff1916600117905560405185907f0dc3fe18d3ee6112142a07d0b7834babf72bfa23251acf78e9ed54fac34e568e90612d4e9087908790614d45565b60405180910390a283156129a95780546040513391907f407a3279e8255059d39fbfbe4bd03bf82b6c2a737c816852ca2c79b23c3bdb22906119e7908790614f17565b600080516020615275833981519152612da981613394565b60008581526005602052604090205460ff16612e045760405162461bcd60e51b815260206004820152601a602482015279151c985b9cd858dd1a5bdb88191bd95cc81b9bdd08195e1a5cdd60321b6044820152606401610fa7565b60408051602081018790526001600160601b03193360601b169181019190915242605482015260009060740160408051808303601f19018152828252805160209182012060e0840183528084528184018a815233858501908152606086018b8152608087018b90524260a088015289151560c08801526000848152600990955294909320855181559051600182015591516002830180546001600160a01b0319166001600160a01b03909216919091179055915191935082916003820190612ecc9082614c8c565b5060808201516004820190612ee19082614c8c565b5060a082810151600583015560c0909201516006909101805491151560ff1992831617905560008981526008602090815260408083208054909416600190811790945560028252808320815195860182528054865293840180548251818502810185019093528083529395949385840193879084015b8282101561302f57838290600052602060002090600302016040518060600160405290816000820154815260200160018201548152602001600282018054612f9e90614b75565b80601f0160208091040260200160405190810160405280929190818152602001828054612fca90614b75565b80156130175780601f10612fec57610100808354040283529160200191613017565b820191906000526020600020905b815481529060010190602001808311612ffa57829003601f168201915b50505050508152505081526020019060010190612f57565b50505050815260200160028201805480602002602001604051908101604052809291908181526020016000905b828210156130c15760008481526020908190206040805160808101825260038602909201805483526001808201546001600160a01b03811685870152600160a01b900460ff16151592840192909252600201546060830152908352909201910161305c565b5050509082525060038201546020808301919091526004909201546001600160a01b039081166040928301526080840151166000908152600a83528181208054600181018255908252929020909101859055810151519091501561317657600a6000826040015160008151811061313a5761313a614baf565b6020908102919091018101518101516001600160a01b031682528181019290925260400160009081208054600181018255908252919020018390555b8783600080516020615235833981519152878a604051613197929190614d45565b60405180910390a3601080549060006131af83614bdb565b91905055505050505050505050565b6132096040518060e00160405280600081526020016000815260200160006001600160a01b031681526020016060815260200160608152602001600081526020016000151581525090565b600082815260096020908152604091829020825160e0810184528154815260018201549281019290925260028101546001600160a01b03169282019290925260038201805491929160608401919061326090614b75565b80601f016020809104026020016040519081016040528092919081815260200182805461328c90614b75565b80156132d95780601f106132ae576101008083540402835291602001916132d9565b820191906000526020600020905b8154815290600101906020018083116132bc57829003601f168201915b505050505081526020016004820180546132f290614b75565b80601f016020809104026020016040519081016040528092919081815260200182805461331e90614b75565b801561336b5780601f106133405761010080835404028352916020019161336b565b820191906000526020600020905b81548152906001019060200180831161334e57829003601f168201915b50505091835250506005820154602082015260069091015460ff16151560409091015292915050565b61339e81336141da565b50565b60006133ad83836123ff565b1561340c576000838152602081815260408083206001600160a01b0386168085529252808320805460ff1916905551339286917ff6391f5c32d9c69d2a47ea670b442974b53935d1edc7fd64eb21e047a839171b9190a4506001610880565b506000610880565b600061342083836123ff565b61340c576000838152602081815260408083206001600160a01b03861684529091529020805460ff191660011790556134563390565b6001600160a01b0316826001600160a01b0316847f2f8788117e7eff1d82e926ec794901d17c78024a50270940304540a733656f0d60405160405180910390a4506001610880565b6001600160a01b0383166000908152600460209081526040808320815180840187905280830186905282518082038401815260609091019092528151919092012090915b825481101561359657818382815481106134fe576134fe614baf565b906000526020600020015403613584578254839061351e90600190614f55565b8154811061352e5761352e614baf565b906000526020600020015483828154811061354b5761354b614baf565b90600052602060002001819055508280548061356957613569614f68565b60019003818190600052602060002001600090559055613596565b8061358e81614bdb565b9150506134e2565b505050505050565b6000836135e25760405162461bcd60e51b8152602060048201526012602482015271139bc81a5b9c1d5d1cc81c1c9bdd9a59195960721b6044820152606401610fa7565b816136255760405162461bcd60e51b8152602060048201526013602482015272139bc81bdd5d1c1d5d1cc81c1c9bdd9a591959606a1b6044820152606401610fa7565b61362e3361109d565b61364a5760405162461bcd60e51b8152600401610fa790614e3f565b6000805b85811015613812573687878381811061366957613669614baf565b905060200281019061367b9190614f7e565b803560009081526002602090815260408083206005909252909120549192509060ff166136f65760405162461bcd60e51b815260206004820152602360248201527f50726576696f7573207472616e73616374696f6e20646f6573206e6f742065786044820152621a5cdd60ea1b6064820152608401610fa7565b60028101546020830135106137445760405162461bcd60e51b8152602060048201526014602482015273092dcecc2d8d2c840deeae8e0eae840d2dcc8caf60631b6044820152606401610fa7565b60008160020183602001358154811061375f5761375f614baf565b906000526020600020906003020190508060010160149054906101000a900460ff161561379e5760405162461bcd60e51b8152600401610fa790614ec6565b60018101546001600160a01b031633146137ca5760405162461bcd60e51b8152600401610fa790614e9a565b80600201544210156137ee5760405162461bcd60e51b8152600401610fa790614ef2565b80546137fa9086614bf4565b9450505050808061380a90614bdb565b91505061364e565b506000805b848110156138585785858281811061383157613831614baf565b6138449260809091020135905083614bf4565b91508061385081614bdb565b915050613817565b50818111156138a95760405162461bcd60e51b815260206004820181905260248201527f4f75747075742076616c7565206578636565647320696e7075742076616c75656044820152606401610fa7565b60005b8681101561398c57368888838181106138c7576138c7614baf565b90506020028101906138d99190614f7e565b803560009081526002602081815260408320918201805494955091939085013590811061390857613908614baf565b60009182526020918290206001600390920201908101805460ff60a01b198116600160a01b1790915590925061394f916001600160a01b039091169085359086013561349e565b6006546040519081528335906000805160206153158339815191529060200160405180910390a2505050808061398490614bdb565b9150506138ac565b506006546040516001600160601b03193360601b166020820152426034820152605481019190915260009060740160408051601f19818403018152919052805160209091012090506000876001600160401b038111156139ee576139ee61472f565b604051908082528060200260200182016040528015613a4357816020015b613a3060405180606001604052806000815260200160008152602001606081525090565b815260200190600190039081613a0c5790505b50905060005b88811015613aae57898982818110613a6357613a63614baf565b9050602002810190613a759190614f7e565b613a7e90614f9e565b828281518110613a9057613a90614baf565b60200260200101819052508080613aa690614bdb565b915050613a49565b506000866001600160401b03811115613ac957613ac961472f565b604051908082528060200260200182016040528015613b0257816020015b613aef614289565b815260200190600190039081613ae75790505b50905060005b87811015613cc557888882818110613b2257613b22614baf565b905060800201803603810190613b389190615026565b828281518110613b4a57613b4a614baf565b6020026020010181905250600084828b8b85818110613b6b57613b6b614baf565b60408051602081019690965285019390935250608091820201356060830152016040516020818303038152906040528051906020012060001c9050898983818110613bb857613bb8614baf565b905060800201600360008381526020019081526020016000208181613bdd919061509a565b905050600460008b8b85818110613bf657613bf6614baf565b9050608002016020016020810190613c0e919061463f565b6001600160a01b031681526020808201929092526040016000908120805460018101825590825291902001819055898983818110613c4e57613c4e614baf565b9050608002016020016020810190613c66919061463f565b6001600160a01b0316816000805160206152958339815191528c8c86818110613c9157613c91614baf565b90506080020160000135604051613caa91815260200190565b60405180910390a35080613cbd81614bdb565b915050613b08565b50600083815260026020526040812084815542600382015560040180546001600160a01b031916331790555b89811015613d655760008481526002602052604090206001018b8b83818110613d1c57613d1c614baf565b9050602002810190613d2e9190614f7e565b815460018101835560009283526020909220909160030201613d5082826150f8565b50508080613d5d90614bdb565b915050613cf1565b5060005b87811015613dd857600084815260026020819052604090912001898983818110613d9557613d95614baf565b835460018101855560009485526020909420608090910292909201926003029091019050613dc3828261509a565b50508080613dd090614bdb565b915050613d69565b506000838152600560205260408120805460ff191660011790556006805491613e0083614bdb565b9091555050604051878152339084906000805160206152f58339815191529060200160405180910390a3509098975050505050505050565b604080516020810190915260008082529081805b846040015151811015613e9a5784604001518181518110613e6f57613e6f614baf565b60200260200101516000015182613e869190614bf4565b915080613e9281614bdb565b915050613e4c565b50600c54811115613edd57600192506040518060400160405280601881526020017713185c99d9481d1c985b9cd858dd1a5bdb88185b5bdd5b9d60421b81525091505b60808401516001600160a01b03166000908152600f6020526040902054610e1090613f089042614f55565b1015613f9b5760808401516001600160a01b03166000908152600e60205260408120805491613f3683614bdb565b9091555050600d5460808501516001600160a01b03166000908152600e60205260409020541115613f965760019250604051806040016040528060158152602001744672657175656e74207472616e73616374696f6e7360581b81525091505b613fd2565b6080840180516001600160a01b039081166000908152600f6020908152604080832042905593519092168152600e90915220600190555b60005b8460400151518110156140665784604001518181518110613ff857613ff8614baf565b6020026020010151602001516001600160a01b031685608001516001600160a01b03160361405457600193506040518060400160405280601081526020016f29b2b633103a3930b739b0b1ba34b7b760811b8152509250614066565b8061405e81614bdb565b915050613fd5565b5082156129a9576011546040805160e08101825287815260808701516001600160a01b0316602082015286820151516000928201906140a65760006140ca565b87604001516000815181106140bd576140bd614baf565b6020026020010151602001515b6001600160a01b039081168252602080830187905260408084018990526000606080860182905242608096870152888252600b84529082902086518155928601516001840180549186166001600160a01b03199283161790559186015160028401805491909516921691909117909255908301516003820155908201519192508291600482019061415b9082614c8c565b5060a082015160058201805460ff191691151591909117905560c090910151600690910155604051879083907f2c528baec717c6124a7b6043e8e53f0427fa6a08364005237dd6eae932153c1a906141b4908890614da1565b60405180910390a3601180549060006141cc83614bdb565b919050555050505050505050565b6141e482826123ff565b6142135760405163e2517d3f60e01b81526001600160a01b038216600482015260248101839052604401610fa7565b5050565b6040518060a001604052806000815260200160608152602001606081526020016000815260200160006001600160a01b031681525090565b50805461425b90614b75565b6000825580601f1061426b575050565b601f01602090049060005260206000209081019061339e91906142bc565b60405180608001604052806000815260200160006001600160a01b03168152602001600015158152602001600081525090565b5b808211156142d157600081556001016142bd565b5090565b6000602082840312156142e757600080fd5b81356001600160e01b0319811681146111a257600080fd5b60006020828403121561431157600080fd5b5035919050565b6000815180845260005b8181101561433e57602081850181015186830182015201614322565b506000602082860101526020601f19601f83011685010191505092915050565b87815286602082015260018060a01b038616604082015260e06060820152600061438b60e0830187614318565b828103608084015261439d8187614318565b60a0840195909552505090151560c09091015295945050505050565b60208152815160208201526000602083015160018060a01b038082166040850152806040860151166060850152505060608301516080830152608083015160e060a084015261440c610100840182614318565b905060a0840151151560c084015260c084015160e08401528091505092915050565b6001600160a01b038116811461339e57600080fd5b60008060006060848603121561445857600080fd5b83356144638161442e565b95602085013595506040909401359392505050565b805182526020808201516001600160a01b031690830152604080820151151590830152606090810151910152565b600081518084526020808501945080840160005b838110156144e0576144cd878351614478565b60809690960195908201906001016144ba565b509495945050505050565b600060a083018251845260208084015160a08287015282815180855260c08801915060c08160051b8901019450838301925060005b8181101561456e5788860360bf19018352835180518752858101518688015260409081015160609188018290529061455a81890183614318565b975050509284019291840191600101614520565b50505050506040830151848203604086015261458a82826144a6565b91505060608301516060850152608083015161156760808601826001600160a01b03169052565b6000602080830181845280855180835260408601915060408160051b870101925083870160005b8281101561460657603f198886030184526145f48583516144eb565b945092850192908501906001016145d8565b5092979650505050505050565b6000806040838503121561462657600080fd5b82356146318161442e565b946020939093013593505050565b60006020828403121561465157600080fd5b81356111a28161442e565b6001600160a01b038616815260a06020820181905260009061468090830187614318565b604083019590955250911515606083015260809091015292915050565b600080604083850312156146b057600080fd5b8235915060208301356146c28161442e565b809150509250929050565b6020815260006111a260208301846144eb565b8781526001600160a01b038781166020830152861660408201526060810185905260e06080820181905260009061471990830186614318565b93151560a08301525060c0015295945050505050565b634e487b7160e01b600052604160045260246000fd5b60006001600160401b038084111561475f5761475f61472f565b604051601f8501601f19908116603f011681019082821181831017156147875761478761472f565b816040528093508581528686860111156147a057600080fd5b858560208301376000602087830101525050509392505050565b600082601f8301126147cb57600080fd5b6111a283833560208501614745565b600080604083850312156147ed57600080fd5b82356147f88161442e565b915060208301356001600160401b0381111561481357600080fd5b61481f858286016147ba565b9150509250929050565b6020808252825182820181905260009190848201906040850190845b8181101561486157835183529284019291840191600101614845565b50909695505050505050565b801515811461339e57600080fd5b60008060006060848603121561489057600080fd5b833561489b8161442e565b925060208401356001600160401b038111156148b657600080fd5b6148c2868287016147ba565b92505060408401356148d38161486d565b809150509250925092565b60008083601f8401126148f057600080fd5b5081356001600160401b0381111561490757600080fd5b6020830191508360208260051b850101111561492257600080fd5b9250929050565b60008060006040848603121561493e57600080fd5b83356001600160401b0381111561495457600080fd5b614960868287016148de565b909790965060209590950135949350505050565b608081016108808284614478565b6000806000806040858703121561499857600080fd5b84356001600160401b03808211156149af57600080fd5b6149bb888389016148de565b909650945060208701359150808211156149d457600080fd5b818701915087601f8301126149e857600080fd5b8135818111156149f757600080fd5b8860208260071b8501011115614a0c57600080fd5b95989497505060200194505050565b600080600060608486031215614a3057600080fd5b833592506020840135614a428161486d565b915060408401356001600160401b03811115614a5d57600080fd5b614a69868287016147ba565b9150509250925092565b60008060008060808587031215614a8957600080fd5b8435935060208501356001600160401b0380821115614aa757600080fd5b614ab3888389016147ba565b94506040870135915080821115614ac957600080fd5b50614ad6878288016147ba565b9250506060850135614ae78161486d565b939692955090935050565b60208152815160208201526020820151604082015260018060a01b0360408301511660608201526000606083015160e06080840152614b35610100840182614318565b90506080840151601f198483030160a0850152614b528282614318565b91505060a084015160c084015260c0840151151560e08401528091505092915050565b600181811c90821680614b8957607f821691505b602082108103614ba957634e487b7160e01b600052602260045260246000fd5b50919050565b634e487b7160e01b600052603260045260246000fd5b634e487b7160e01b600052601160045260246000fd5b600060018201614bed57614bed614bc5565b5060010190565b8082018082111561088057610880614bc5565b60609490941b6001600160601b031916845260148401929092526034830152605482015260740190565b601f8211156115a257600081815260208120601f850160051c81016020861015614c585750805b601f850160051c820191505b8181101561359657828155600101614c64565b600019600383901b1c191660019190911b1790565b81516001600160401b03811115614ca557614ca561472f565b614cb981614cb38454614b75565b84614c31565b602080601f831160018114614ce85760008415614cd65750858301515b614ce08582614c77565b865550613596565b600085815260208120601f198616915b82811015614d1757888601518255948401946001909101908401614cf8565b5085821015614d355787850151600019600388901b60f8161c191681555b5050505050600190811b01905550565b82151581526040602082015260006122de6040830184614318565b60208082526021908201527f4163636f756e7420697320616c72656164792061207072696d6172792062616e6040820152606b60f81b606082015260800190565b6020815260006111a26020830184614318565b60208082526028908201527f4163636f756e7420616c72656164792068617320757365722f656e746572707260408201526769736520726f6c6560c01b606082015260800190565b60208082526023908201527f4163636f756e7420697320616c72656164792061207365636f6e646172792062604082015262616e6b60e81b606082015260800190565b6020808252601d908201527f53656e646572206d757374206861766520612076616c696420726f6c65000000604082015260600190565b604081526000614e896040830185614318565b905082151560208301529392505050565b6020808252601290820152712737ba103a3432902aaa2c279037bbb732b960711b604082015260600190565b60208082526012908201527115551613c8185b1c9958591e481cdc195b9d60721b604082015260600190565b6020808252600b908201526a15551613c81b1bd8dad95960aa1b604082015260600190565b604081526014604082015273436f6e6669726d656420737573706963696f757360601b60608201526080602082015260006111a26080830184614318565b8181038181111561088057610880614bc5565b634e487b7160e01b600052603160045260246000fd5b60008235605e19833603018112614f9457600080fd5b9190910192915050565b600060608236031215614fb057600080fd5b604051606081016001600160401b038082118383101715614fd357614fd361472f565b8160405284358352602085013560208401526040850135915080821115614ff957600080fd5b50830136601f82011261500b57600080fd5b61501a36823560208401614745565b60408301525092915050565b60006080828403121561503857600080fd5b604051608081016001600160401b038111828210171561505a5761505a61472f565b60405282358152602083013561506f8161442e565b602082015260408301356150828161486d565b60408201526060928301359281019290925250919050565b813581556001810160208301356150b08161442e565b815460408501356150c08161486d565b60ff60a01b90151560a01b166001600160a01b03929092166001600160a81b0319919091161717905560609190910135600290910155565b81358155600160208084013582840155600283016040850135601e1986360301811261512357600080fd5b850180356001600160401b0381111561513b57600080fd5b803603848301131561514c57600080fd5b6151608161515a8554614b75565b85614c31565b6000601f821160018114615190576000831561517e57508382018601355b6151888482614c77565b8655506151e9565b600085815260209020601f19841690835b828110156151c0578685018901358255938801939089019088016151a1565b50848210156151df5760001960f88660031b161c198885880101351681555b50508683881b0185555b50505050505050505056fe920994fc3bfe282f3f20cdccf1b7c5e46c63d963e822d98efff90abd41c12e21988ad249a3a578f3ca7b7f03da9ffdb25c0f9bf3684a5b8aac97d04fc81c21079c1f2f4d9a91fdd6d73321b3b584a7616489b99e827fd80f998abd6f379a412932d3b416b1e958137aa50d8c4ebe23bc919d27a2c40d6db677d85d5bfe33c83020b5f7ac978e5d6199de06401411960dfa81d2f762655f6206bdc61d46fc19e60d0e53201021716a89723fe8a67e0588c5489401e7faeed5379e5208272869ac14823911f2da1b49f045a0929a60b8c1f2a7fc8c06c7284ca3e8ab4e193a08c8179cfeea70bfbadfc00a9b19f8cc0d49ab2a2b6854d11ba2149c788f659e83acfd27d176b6ebb21e0182c0e43df5818e0d632867e1eb47c383c58d221205fce302129d52c426ac1b8bb3670045c8d2212568f7f40b498c5424c57dc5691c22a1a2646970667358221220ee04334a5080450b5da782544ff1263ade4d623a52eef8c3fb20de41d5e9be4564736f6c6343000814003332d3b416b1e958137aa50d8c4ebe23bc919d27a2c40d6db677d85d5bfe33c830","opcodes":"PUSH1 0x80 PUSH1 0x40 MSTORE PUSH10 0x152D02C7E14AF6800000 PUSH1 0xC SSTORE PUSH1 0xA PUSH1 0xD SSTORE CALLVALUE DUP1 ISZERO PUSH3 0x24 JUMPI PUSH1 0x0 DUP1 REVERT JUMPDEST POP PUSH3 0x32 PUSH1 0x0 CALLER PUSH3 0x18E JUMP JUMPDEST POP PUSH3 0x4E PUSH1 0x0 DUP1 MLOAD PUSH1 0x20 PUSH3 0x5728 DUP4 CODECOPY DUP2 MLOAD SWAP2 MSTORE CALLER PUSH3 0x18E JUMP JUMPDEST POP PUSH1 0x40 DUP1 MLOAD PUSH1 0xA0 DUP2 ADD DUP3 MSTORE CALLER DUP1 DUP3 MSTORE DUP3 MLOAD DUP1 DUP5 ADD DUP5 MSTORE PUSH1 0xB DUP2 MSTORE PUSH11 0x5072696D61727942616E6B PUSH1 0xA8 SHL PUSH1 0x20 DUP1 DUP4 ADD SWAP2 SWAP1 SWAP2 MSTORE DUP1 DUP5 ADD SWAP2 DUP3 MSTORE PUSH1 0x1 DUP5 DUP7 ADD DUP2 SWAP1 MSTORE PUSH1 0x60 DUP6 ADD DUP2 SWAP1 MSTORE TIMESTAMP PUSH1 0x80 DUP7 ADD MSTORE PUSH1 0x0 SWAP4 DUP5 MSTORE SWAP1 DUP2 SWAP1 MSTORE SWAP4 SWAP1 SWAP2 KECCAK256 DUP3 MLOAD DUP2 SLOAD PUSH1 0x1 PUSH1 0x1 PUSH1 0xA0 SHL SUB NOT AND PUSH1 0x1 PUSH1 0x1 PUSH1 0xA0 SHL SUB SWAP1 SWAP2 AND OR DUP2 SSTORE SWAP1 MLOAD SWAP2 SWAP3 SWAP1 SWAP2 SWAP1 DUP3 ADD SWAP1 PUSH3 0xDA SWAP1 DUP3 PUSH3 0x2E2 JUMP JUMPDEST POP PUSH1 0x40 DUP3 DUP2 ADD MLOAD PUSH1 0x2 DUP4 ADD SSTORE PUSH1 0x60 DUP4 ADD MLOAD PUSH1 0x3 DUP4 ADD DUP1 SLOAD SWAP2 ISZERO ISZERO PUSH1 0xFF NOT SWAP1 SWAP3 AND SWAP2 SWAP1 SWAP2 OR SWAP1 SSTORE PUSH1 0x80 SWAP1 SWAP3 ADD MLOAD PUSH1 0x4 SWAP1 SWAP2 ADD SSTORE MLOAD PUSH1 0x0 DUP1 MLOAD PUSH1 0x20 PUSH3 0x5728 DUP4 CODECOPY DUP2 MLOAD SWAP2 MSTORE SWAP1 CALLER SWAP1 PUSH32 0x988AD249A3A578F3CA7B7F03DA9FFDB25C0F9BF3684A5B8AAC97D04FC81C2107 SWAP1 PUSH3 0x16C SWAP1 PUSH1 0x20 DUP1 DUP3 MSTORE PUSH1 0xB SWAP1 DUP3 ADD MSTORE PUSH11 0x5072696D61727942616E6B PUSH1 0xA8 SHL PUSH1 0x40 DUP3 ADD MSTORE PUSH1 0x60 ADD SWAP1 JUMP JUMPDEST PUSH1 0x40 MLOAD DUP1 SWAP2 SUB SWAP1 LOG3 PUSH1 0x0 PUSH1 0x6 DUP2 SWAP1 SSTORE PUSH1 0x7 DUP2 SWAP1 SSTORE PUSH1 0x10 DUP2 SWAP1 SSTORE PUSH1 0x11 SSTORE PUSH3 0x3AE JUMP JUMPDEST PUSH1 0x0 DUP3 DUP2 MSTORE PUSH1 0x20 DUP2 DUP2 MSTORE PUSH1 0x40 DUP1 DUP4 KECCAK256 PUSH1 0x1 PUSH1 0x1 PUSH1 0xA0 SHL SUB DUP6 AND DUP5 MSTORE SWAP1 SWAP2 MSTORE DUP2 KECCAK256 SLOAD PUSH1 0xFF AND PUSH3 0x233 JUMPI PUSH1 0x0 DUP4 DUP2 MSTORE PUSH1 0x20 DUP2 DUP2 MSTORE PUSH1 0x40 DUP1 DUP4 KECCAK256 PUSH1 0x1 PUSH1 0x1 PUSH1 0xA0 SHL SUB DUP7 AND DUP5 MSTORE SWAP1 SWAP2 MSTORE SWAP1 KECCAK256 DUP1 SLOAD PUSH1 0xFF NOT AND PUSH1 0x1 OR SWAP1 SSTORE PUSH3 0x1EA CALLER SWAP1 JUMP JUMPDEST PUSH1 0x1 PUSH1 0x1 PUSH1 0xA0 SHL SUB AND DUP3 PUSH1 0x1 PUSH1 0x1 PUSH1 0xA0 SHL SUB AND DUP5 PUSH32 0x2F8788117E7EFF1D82E926EC794901D17C78024A50270940304540A733656F0D PUSH1 0x40 MLOAD PUSH1 0x40 MLOAD DUP1 SWAP2 SUB SWAP1 LOG4 POP PUSH1 0x1 PUSH3 0x237 JUMP JUMPDEST POP PUSH1 0x0 JUMPDEST SWAP3 SWAP2 POP POP JUMP JUMPDEST PUSH4 0x4E487B71 PUSH1 0xE0 SHL PUSH1 0x0 MSTORE PUSH1 0x41 PUSH1 0x4 MSTORE PUSH1 0x24 PUSH1 0x0 REVERT JUMPDEST PUSH1 0x1 DUP2 DUP2 SHR SWAP1 DUP3 AND DUP1 PUSH3 0x268 JUMPI PUSH1 0x7F DUP3 AND SWAP2 POP JUMPDEST PUSH1 0x20 DUP3 LT DUP2 SUB PUSH3 0x289 JUMPI PUSH4 0x4E487B71 PUSH1 0xE0 SHL PUSH1 0x0 MSTORE PUSH1 0x22 PUSH1 0x4 MSTORE PUSH1 0x24 PUSH1 0x0 REVERT JUMPDEST POP SWAP2 SWAP1 POP JUMP JUMPDEST PUSH1 0x1F DUP3 GT ISZERO PUSH3 0x2DD JUMPI PUSH1 0x0 DUP2 DUP2 MSTORE PUSH1 0x20 DUP2 KECCAK256 PUSH1 0x1F DUP6 ADD PUSH1 0x5 SHR DUP2 ADD PUSH1 0x20 DUP7 LT ISZERO PUSH3 0x2B8 JUMPI POP DUP1 JUMPDEST PUSH1 0x1F DUP6 ADD PUSH1 0x5 SHR DUP3 ADD SWAP2 POP JUMPDEST DUP2 DUP2 LT ISZERO PUSH3 0x2D9 JUMPI DUP3 DUP2 SSTORE PUSH1 0x1 ADD PUSH3 0x2C4 JUMP JUMPDEST POP POP POP JUMPDEST POP POP POP JUMP JUMPDEST DUP2 MLOAD PUSH1 0x1 PUSH1 0x1 PUSH1 0x40 SHL SUB DUP2 GT ISZERO PUSH3 0x2FE JUMPI PUSH3 0x2FE PUSH3 0x23D JUMP JUMPDEST PUSH3 0x316 DUP2 PUSH3 0x30F DUP5 SLOAD PUSH3 0x253 JUMP JUMPDEST DUP5 PUSH3 0x28F JUMP JUMPDEST PUSH1 0x20 DUP1 PUSH1 0x1F DUP4 GT PUSH1 0x1 DUP2 EQ PUSH3 0x34E JUMPI PUSH1 0x0 DUP5 ISZERO PUSH3 0x335 JUMPI POP DUP6 DUP4 ADD MLOAD JUMPDEST PUSH1 0x0 NOT PUSH1 0x3 DUP7 SWAP1 SHL SHR NOT AND PUSH1 0x1 DUP6 SWAP1 SHL OR DUP6 SSTORE PUSH3 0x2D9 JUMP JUMPDEST PUSH1 0x0 DUP6 DUP2 MSTORE PUSH1 0x20 DUP2 KECCAK256 PUSH1 0x1F NOT DUP7 AND SWAP2 JUMPDEST DUP3 DUP2 LT ISZERO PUSH3 0x37F JUMPI DUP9 DUP7 ADD MLOAD DUP3 SSTORE SWAP5 DUP5 ADD SWAP5 PUSH1 0x1 SWAP1 SWAP2 ADD SWAP1 DUP5 ADD PUSH3 0x35E JUMP JUMPDEST POP DUP6 DUP3 LT ISZERO PUSH3 0x39E JUMPI DUP8 DUP6 ADD MLOAD PUSH1 0x0 NOT PUSH1 0x3 DUP9 SWAP1 SHL PUSH1 0xF8 AND SHR NOT AND DUP2 SSTORE JUMPDEST POP POP POP POP POP PUSH1 0x1 SWAP1 DUP2 SHL ADD SWAP1 SSTORE POP JUMP JUMPDEST PUSH2 0x536A DUP1 PUSH3 0x3BE PUSH1 0x0 CODECOPY PUSH1 0x0 RETURN INVALID PUSH1 0x80 PUSH1 0x40 MSTORE CALLVALUE DUP1 ISZERO PUSH2 0x10 JUMPI PUSH1 0x0 DUP1 REVERT JUMPDEST POP PUSH1 0x4 CALLDATASIZE LT PUSH2 0x293 JUMPI PUSH1 0x0 CALLDATALOAD PUSH1 0xE0 SHR DUP1 PUSH4 0x1FFC9A7 EQ PUSH2 0x298 JUMPI DUP1 PUSH4 0xDAF71AC EQ PUSH2 0x2C0 JUMPI DUP1 PUSH4 0x13119161 EQ PUSH2 0x2E6 JUMPI DUP1 PUSH4 0x144BF589 EQ PUSH2 0x309 JUMPI DUP1 PUSH4 0x16D6D2C4 EQ PUSH2 0x31E JUMPI DUP1 PUSH4 0x17302EB9 EQ PUSH2 0x33E JUMPI DUP1 PUSH4 0x18160DDD EQ PUSH2 0x353 JUMPI DUP1 PUSH4 0x197277FD EQ PUSH2 0x35C JUMPI DUP1 PUSH4 0x208DD1FF EQ PUSH2 0x37C JUMPI DUP1 PUSH4 0x217B8EE9 EQ PUSH2 0x38F JUMPI DUP1 PUSH4 0x248A9CA3 EQ PUSH2 0x3A2 JUMPI DUP1 PUSH4 0x24F13320 EQ PUSH2 0x3B5 JUMPI DUP1 PUSH4 0x2F2FF15D EQ PUSH2 0x3D9 JUMPI DUP1 PUSH4 0x32CB6B0C EQ PUSH2 0x3EC JUMPI DUP1 PUSH4 0x33EA3DC8 EQ PUSH2 0x3FE JUMPI DUP1 PUSH4 0x3409D8F6 EQ PUSH2 0x41E JUMPI DUP1 PUSH4 0x35046722 EQ PUSH2 0x441 JUMPI DUP1 PUSH4 0x36568ABE EQ PUSH2 0x454 JUMPI DUP1 PUSH4 0x3CEAF7E9 EQ PUSH2 0x467 JUMPI DUP1 PUSH4 0x3FD4C11B EQ PUSH2 0x47A JUMPI DUP1 PUSH4 0x40C10F19 EQ PUSH2 0x4A0 JUMPI DUP1 PUSH4 0x5A3C61EB EQ PUSH2 0x4B3 JUMPI DUP1 PUSH4 0x5CEAD0E9 EQ PUSH2 0x4C6 JUMPI DUP1 PUSH4 0x612999D5 EQ PUSH2 0x4D9 JUMPI DUP1 PUSH4 0x658A4823 EQ PUSH2 0x4EC JUMPI DUP1 PUSH4 0x68DD17A5 EQ PUSH2 0x4FF JUMPI DUP1 PUSH4 0x7304C588 EQ PUSH2 0x514 JUMPI DUP1 PUSH4 0x74F079B8 EQ PUSH2 0x527 JUMPI DUP1 PUSH4 0x76AD18B9 EQ PUSH2 0x530 JUMPI DUP1 PUSH4 0x780991BD EQ PUSH2 0x550 JUMPI DUP1 PUSH4 0x7B19F48C EQ PUSH2 0x559 JUMPI DUP1 PUSH4 0x7C0F8882 EQ PUSH2 0x562 JUMPI DUP1 PUSH4 0x8001CFE5 EQ PUSH2 0x575 JUMPI DUP1 PUSH4 0x81591387 EQ PUSH2 0x588 JUMPI DUP1 PUSH4 0x81693D27 EQ PUSH2 0x5FB JUMPI DUP1 PUSH4 0x8805CE35 EQ PUSH2 0x604 JUMPI DUP1 PUSH4 0x8E598F18 EQ PUSH2 0x617 JUMPI DUP1 PUSH4 0x91D14854 EQ PUSH2 0x63A JUMPI DUP1 PUSH4 0x9859199D EQ PUSH2 0x64D JUMPI DUP1 PUSH4 0x9ACE38C2 EQ PUSH2 0x660 JUMPI DUP1 PUSH4 0xA217FDDF EQ PUSH2 0x6BC JUMPI DUP1 PUSH4 0xA43EF956 EQ PUSH2 0x6C4 JUMPI DUP1 PUSH4 0xB9BC38F2 EQ PUSH2 0x6D7 JUMPI DUP1 PUSH4 0xC2F959C3 EQ PUSH2 0x6E0 JUMPI DUP1 PUSH4 0xC49BAEBE EQ PUSH2 0x700 JUMPI DUP1 PUSH4 0xC5FBB610 EQ PUSH2 0x727 JUMPI DUP1 PUSH4 0xC8AEE754 EQ PUSH2 0x73C JUMPI DUP1 PUSH4 0xCF850C8D EQ PUSH2 0x768 JUMPI DUP1 PUSH4 0xD3138255 EQ PUSH2 0x77B JUMPI DUP1 PUSH4 0xD547741F EQ PUSH2 0x78E JUMPI DUP1 PUSH4 0xD980D735 EQ PUSH2 0x7A1 JUMPI DUP1 PUSH4 0xE0B99A2D EQ PUSH2 0x7C1 JUMPI DUP1 PUSH4 0xE206BA50 EQ PUSH2 0x7D4 JUMPI DUP1 PUSH4 0xECC6152C EQ PUSH2 0x7E9 JUMPI DUP1 PUSH4 0xF74577D5 EQ PUSH2 0x7FC JUMPI DUP1 PUSH4 0xF8031E90 EQ PUSH2 0x80F JUMPI DUP1 PUSH4 0xFFE4C2D3 EQ PUSH2 0x82F JUMPI JUMPDEST PUSH1 0x0 DUP1 REVERT JUMPDEST PUSH2 0x2AB PUSH2 0x2A6 CALLDATASIZE PUSH1 0x4 PUSH2 0x42D5 JUMP JUMPDEST PUSH2 0x84F JUMP JUMPDEST PUSH1 0x40 MLOAD SWAP1 ISZERO ISZERO DUP2 MSTORE PUSH1 0x20 ADD JUMPDEST PUSH1 0x40 MLOAD DUP1 SWAP2 SUB SWAP1 RETURN JUMPDEST PUSH2 0x2D3 PUSH2 0x2CE CALLDATASIZE PUSH1 0x4 PUSH2 0x42FF JUMP JUMPDEST PUSH2 0x886 JUMP JUMPDEST PUSH1 0x40 MLOAD PUSH2 0x2B7 SWAP8 SWAP7 SWAP6 SWAP5 SWAP4 SWAP3 SWAP2 SWAP1 PUSH2 0x435E JUMP JUMPDEST PUSH2 0x2FB PUSH1 0x0 DUP1 MLOAD PUSH1 0x20 PUSH2 0x52B5 DUP4 CODECOPY DUP2 MLOAD SWAP2 MSTORE DUP2 JUMP JUMPDEST PUSH1 0x40 MLOAD SWAP1 DUP2 MSTORE PUSH1 0x20 ADD PUSH2 0x2B7 JUMP JUMPDEST PUSH2 0x2FB PUSH1 0x0 DUP1 MLOAD PUSH1 0x20 PUSH2 0x5275 DUP4 CODECOPY DUP2 MLOAD SWAP2 MSTORE DUP2 JUMP JUMPDEST PUSH2 0x331 PUSH2 0x32C CALLDATASIZE PUSH1 0x4 PUSH2 0x42FF JUMP JUMPDEST PUSH2 0x9E1 JUMP JUMPDEST PUSH1 0x40 MLOAD PUSH2 0x2B7 SWAP2 SWAP1 PUSH2 0x43B9 JUMP JUMPDEST PUSH2 0x351 PUSH2 0x34C CALLDATASIZE PUSH1 0x4 PUSH2 0x42FF JUMP JUMPDEST PUSH2 0xB21 JUMP JUMPDEST STOP JUMPDEST PUSH2 0x2FB PUSH1 0x7 SLOAD DUP2 JUMP JUMPDEST PUSH2 0x36F PUSH2 0x36A CALLDATASIZE PUSH1 0x4 PUSH2 0x4443 JUMP JUMPDEST PUSH2 0xB3F JUMP JUMPDEST PUSH1 0x40 MLOAD PUSH2 0x2B7 SWAP2 SWAP1 PUSH2 0x45B1 JUMP JUMPDEST PUSH2 0x351 PUSH2 0x38A CALLDATASIZE PUSH1 0x4 PUSH2 0x4613 JUMP JUMPDEST PUSH2 0xF3C JUMP JUMPDEST PUSH2 0x2AB PUSH2 0x39D CALLDATASIZE PUSH1 0x4 PUSH2 0x463F JUMP JUMPDEST PUSH2 0x109D JUMP JUMPDEST PUSH2 0x2FB PUSH2 0x3B0 CALLDATASIZE PUSH1 0x4 PUSH2 0x42FF JUMP JUMPDEST PUSH2 0x11A9 JUMP JUMPDEST PUSH2 0x3C8 PUSH2 0x3C3 CALLDATASIZE PUSH1 0x4 PUSH2 0x463F JUMP JUMPDEST PUSH2 0x11BE JUMP JUMPDEST PUSH1 0x40 MLOAD PUSH2 0x2B7 SWAP6 SWAP5 SWAP4 SWAP3 SWAP2 SWAP1 PUSH2 0x465C JUMP JUMPDEST PUSH2 0x351 PUSH2 0x3E7 CALLDATASIZE PUSH1 0x4 PUSH2 0x469D JUMP JUMPDEST PUSH2 0x1286 JUMP JUMPDEST PUSH2 0x2FB PUSH8 0x6765C793FA10079D PUSH1 0x1B SHL DUP2 JUMP JUMPDEST PUSH2 0x411 PUSH2 0x40C CALLDATASIZE PUSH1 0x4 PUSH2 0x42FF JUMP JUMPDEST PUSH2 0x12A8 JUMP JUMPDEST PUSH1 0x40 MLOAD PUSH2 0x2B7 SWAP2 SWAP1 PUSH2 0x46CD JUMP JUMPDEST PUSH2 0x2AB PUSH2 0x42C CALLDATASIZE PUSH1 0x4 PUSH2 0x42FF JUMP JUMPDEST PUSH1 0x5 PUSH1 0x20 MSTORE PUSH1 0x0 SWAP1 DUP2 MSTORE PUSH1 0x40 SWAP1 KECCAK256 SLOAD PUSH1 0xFF AND DUP2 JUMP JUMPDEST PUSH2 0x2FB PUSH2 0x44F CALLDATASIZE PUSH1 0x4 PUSH2 0x463F JUMP JUMPDEST PUSH2 0x1493 JUMP JUMPDEST PUSH2 0x351 PUSH2 0x462 CALLDATASIZE PUSH1 0x4 PUSH2 0x469D JUMP JUMPDEST PUSH2 0x156F JUMP JUMPDEST PUSH2 0x2FB PUSH2 0x475 CALLDATASIZE PUSH1 0x4 PUSH2 0x4613 JUMP JUMPDEST PUSH2 0x15A7 JUMP JUMPDEST PUSH2 0x48D PUSH2 0x488 CALLDATASIZE PUSH1 0x4 PUSH2 0x42FF JUMP JUMPDEST PUSH2 0x15D8 JUMP JUMPDEST PUSH1 0x40 MLOAD PUSH2 0x2B7 SWAP8 SWAP7 SWAP6 SWAP5 SWAP4 SWAP3 SWAP2 SWAP1 PUSH2 0x46E0 JUMP JUMPDEST PUSH2 0x351 PUSH2 0x4AE CALLDATASIZE PUSH1 0x4 PUSH2 0x4613 JUMP JUMPDEST PUSH2 0x16AE JUMP JUMPDEST PUSH2 0x2FB PUSH2 0x4C1 CALLDATASIZE PUSH1 0x4 PUSH2 0x47DA JUMP JUMPDEST PUSH2 0x19F6 JUMP JUMPDEST PUSH2 0x351 PUSH2 0x4D4 CALLDATASIZE PUSH1 0x4 PUSH2 0x47DA JUMP JUMPDEST PUSH2 0x1C11 JUMP JUMPDEST PUSH2 0x351 PUSH2 0x4E7 CALLDATASIZE PUSH1 0x4 PUSH2 0x42FF JUMP JUMPDEST PUSH2 0x1DCC JUMP JUMPDEST PUSH2 0x351 PUSH2 0x4FA CALLDATASIZE PUSH1 0x4 PUSH2 0x47DA JUMP JUMPDEST PUSH2 0x1DEA JUMP JUMPDEST PUSH2 0x2FB PUSH1 0x0 DUP1 MLOAD PUSH1 0x20 PUSH2 0x51F5 DUP4 CODECOPY DUP2 MLOAD SWAP2 MSTORE DUP2 JUMP JUMPDEST PUSH2 0x351 PUSH2 0x522 CALLDATASIZE PUSH1 0x4 PUSH2 0x47DA JUMP JUMPDEST PUSH2 0x1FAE JUMP JUMPDEST PUSH2 0x2FB PUSH1 0x6 SLOAD DUP2 JUMP JUMPDEST PUSH2 0x543 PUSH2 0x53E CALLDATASIZE PUSH1 0x4 PUSH2 0x463F JUMP JUMPDEST PUSH2 0x2172 JUMP JUMPDEST PUSH1 0x40 MLOAD PUSH2 0x2B7 SWAP2 SWAP1 PUSH2 0x4829 JUMP JUMPDEST PUSH2 0x2FB PUSH1 0xD SLOAD DUP2 JUMP JUMPDEST PUSH2 0x2FB PUSH1 0x11 SLOAD DUP2 JUMP JUMPDEST PUSH2 0x2AB PUSH2 0x570 CALLDATASIZE PUSH1 0x4 PUSH2 0x4613 JUMP JUMPDEST PUSH2 0x21DE JUMP JUMPDEST PUSH2 0x2FB PUSH2 0x583 CALLDATASIZE PUSH1 0x4 PUSH2 0x4613 JUMP JUMPDEST PUSH2 0x22E6 JUMP JUMPDEST PUSH2 0x5CD PUSH2 0x596 CALLDATASIZE PUSH1 0x4 PUSH2 0x42FF JUMP JUMPDEST PUSH1 0x3 PUSH1 0x20 MSTORE PUSH1 0x0 SWAP1 DUP2 MSTORE PUSH1 0x40 SWAP1 KECCAK256 DUP1 SLOAD PUSH1 0x1 DUP3 ADD SLOAD PUSH1 0x2 SWAP1 SWAP3 ADD SLOAD SWAP1 SWAP2 PUSH1 0x1 PUSH1 0x1 PUSH1 0xA0 SHL SUB DUP2 AND SWAP2 PUSH1 0x1 PUSH1 0xA0 SHL SWAP1 SWAP2 DIV PUSH1 0xFF AND SWAP1 DUP5 JUMP JUMPDEST PUSH1 0x40 DUP1 MLOAD SWAP5 DUP6 MSTORE PUSH1 0x1 PUSH1 0x1 PUSH1 0xA0 SHL SUB SWAP1 SWAP4 AND PUSH1 0x20 DUP6 ADD MSTORE SWAP1 ISZERO ISZERO SWAP2 DUP4 ADD SWAP2 SWAP1 SWAP2 MSTORE PUSH1 0x60 DUP3 ADD MSTORE PUSH1 0x80 ADD PUSH2 0x2B7 JUMP JUMPDEST PUSH2 0x2FB PUSH1 0xC SLOAD DUP2 JUMP JUMPDEST PUSH2 0x351 PUSH2 0x612 CALLDATASIZE PUSH1 0x4 PUSH2 0x42FF JUMP JUMPDEST PUSH2 0x2302 JUMP JUMPDEST PUSH2 0x2AB PUSH2 0x625 CALLDATASIZE PUSH1 0x4 PUSH2 0x42FF JUMP JUMPDEST PUSH1 0x8 PUSH1 0x20 MSTORE PUSH1 0x0 SWAP1 DUP2 MSTORE PUSH1 0x40 SWAP1 KECCAK256 SLOAD PUSH1 0xFF AND DUP2 JUMP JUMPDEST PUSH2 0x2AB PUSH2 0x648 CALLDATASIZE PUSH1 0x4 PUSH2 0x469D JUMP JUMPDEST PUSH2 0x23FF JUMP JUMPDEST PUSH2 0x351 PUSH2 0x65B CALLDATASIZE PUSH1 0x4 PUSH2 0x487B JUMP JUMPDEST PUSH2 0x2428 JUMP JUMPDEST PUSH2 0x698 PUSH2 0x66E CALLDATASIZE PUSH1 0x4 PUSH2 0x42FF JUMP JUMPDEST PUSH1 0x2 PUSH1 0x20 MSTORE PUSH1 0x0 SWAP1 DUP2 MSTORE PUSH1 0x40 SWAP1 KECCAK256 DUP1 SLOAD PUSH1 0x3 DUP3 ADD SLOAD PUSH1 0x4 SWAP1 SWAP3 ADD SLOAD SWAP1 SWAP2 SWAP1 PUSH1 0x1 PUSH1 0x1 PUSH1 0xA0 SHL SUB AND DUP4 JUMP JUMPDEST PUSH1 0x40 DUP1 MLOAD SWAP4 DUP5 MSTORE PUSH1 0x20 DUP5 ADD SWAP3 SWAP1 SWAP3 MSTORE PUSH1 0x1 PUSH1 0x1 PUSH1 0xA0 SHL SUB AND SWAP1 DUP3 ADD MSTORE PUSH1 0x60 ADD PUSH2 0x2B7 JUMP JUMPDEST PUSH2 0x2FB PUSH1 0x0 DUP2 JUMP JUMPDEST PUSH2 0x543 PUSH2 0x6D2 CALLDATASIZE PUSH1 0x4 PUSH2 0x463F JUMP JUMPDEST PUSH2 0x2592 JUMP JUMPDEST PUSH2 0x2FB PUSH1 0x10 SLOAD DUP2 JUMP JUMPDEST PUSH2 0x2FB PUSH2 0x6EE CALLDATASIZE PUSH1 0x4 PUSH2 0x463F JUMP JUMPDEST PUSH1 0xE PUSH1 0x20 MSTORE PUSH1 0x0 SWAP1 DUP2 MSTORE PUSH1 0x40 SWAP1 KECCAK256 SLOAD DUP2 JUMP JUMPDEST PUSH2 0x2FB PUSH32 0x21702C8AF46127C7FA207F89D0B0A8441BB32959A0AC7DF790E9AB1A25C98926 DUP2 JUMP JUMPDEST PUSH2 0x2FB PUSH1 0x0 DUP1 MLOAD PUSH1 0x20 PUSH2 0x52D5 DUP4 CODECOPY DUP2 MLOAD SWAP2 MSTORE DUP2 JUMP JUMPDEST PUSH2 0x2FB PUSH2 0x74A CALLDATASIZE PUSH1 0x4 PUSH2 0x463F JUMP JUMPDEST PUSH1 0x1 PUSH1 0x1 PUSH1 0xA0 SHL SUB AND PUSH1 0x0 SWAP1 DUP2 MSTORE PUSH1 0x1 PUSH1 0x20 MSTORE PUSH1 0x40 SWAP1 KECCAK256 PUSH1 0x2 ADD SLOAD SWAP1 JUMP JUMPDEST PUSH2 0x351 PUSH2 0x776 CALLDATASIZE PUSH1 0x4 PUSH2 0x47DA JUMP JUMPDEST PUSH2 0x25FC JUMP JUMPDEST PUSH2 0x351 PUSH2 0x789 CALLDATASIZE PUSH1 0x4 PUSH2 0x4929 JUMP JUMPDEST PUSH2 0x276F JUMP JUMPDEST PUSH2 0x351 PUSH2 0x79C CALLDATASIZE PUSH1 0x4 PUSH2 0x469D JUMP JUMPDEST PUSH2 0x29B0 JUMP JUMPDEST PUSH2 0x7B4 PUSH2 0x7AF CALLDATASIZE PUSH1 0x4 PUSH2 0x42FF JUMP JUMPDEST PUSH2 0x29CC JUMP JUMPDEST PUSH1 0x40 MLOAD PUSH2 0x2B7 SWAP2 SWAP1 PUSH2 0x4974 JUMP JUMPDEST PUSH2 0x2FB PUSH2 0x7CF CALLDATASIZE PUSH1 0x4 PUSH2 0x4982 JUMP JUMPDEST PUSH2 0x2A2B JUMP JUMPDEST PUSH2 0x2FB PUSH1 0x0 DUP1 MLOAD PUSH1 0x20 PUSH2 0x5255 DUP4 CODECOPY DUP2 MLOAD SWAP2 MSTORE DUP2 JUMP JUMPDEST PUSH2 0x351 PUSH2 0x7F7 CALLDATASIZE PUSH1 0x4 PUSH2 0x4A1B JUMP JUMPDEST PUSH2 0x2C31 JUMP JUMPDEST PUSH2 0x351 PUSH2 0x80A CALLDATASIZE PUSH1 0x4 PUSH2 0x4A73 JUMP JUMPDEST PUSH2 0x2D91 JUMP JUMPDEST PUSH2 0x822 PUSH2 0x81D CALLDATASIZE PUSH1 0x4 PUSH2 0x42FF JUMP JUMPDEST PUSH2 0x31BE JUMP JUMPDEST PUSH1 0x40 MLOAD PUSH2 0x2B7 SWAP2 SWAP1 PUSH2 0x4AF2 JUMP JUMPDEST PUSH2 0x2FB PUSH2 0x83D CALLDATASIZE PUSH1 0x4 PUSH2 0x463F JUMP JUMPDEST PUSH1 0xF PUSH1 0x20 MSTORE PUSH1 0x0 SWAP1 DUP2 MSTORE PUSH1 0x40 SWAP1 KECCAK256 SLOAD DUP2 JUMP JUMPDEST PUSH1 0x0 PUSH1 0x1 PUSH1 0x1 PUSH1 0xE0 SHL SUB NOT DUP3 AND PUSH4 0x7965DB0B PUSH1 0xE0 SHL EQ DUP1 PUSH2 0x880 JUMPI POP PUSH4 0x1FFC9A7 PUSH1 0xE0 SHL PUSH1 0x1 PUSH1 0x1 PUSH1 0xE0 SHL SUB NOT DUP4 AND EQ JUMPDEST SWAP3 SWAP2 POP POP JUMP JUMPDEST PUSH1 0x9 PUSH1 0x20 MSTORE PUSH1 0x0 SWAP1 DUP2 MSTORE PUSH1 0x40 SWAP1 KECCAK256 DUP1 SLOAD PUSH1 0x1 DUP3 ADD SLOAD PUSH1 0x2 DUP4 ADD SLOAD PUSH1 0x3 DUP5 ADD DUP1 SLOAD SWAP4 SWAP5 SWAP3 SWAP4 PUSH1 0x1 PUSH1 0x1 PUSH1 0xA0 SHL SUB SWAP1 SWAP3 AND SWAP3 SWAP2 PUSH2 0x8C0 SWAP1 PUSH2 0x4B75 JUMP JUMPDEST DUP1 PUSH1 0x1F ADD PUSH1 0x20 DUP1 SWAP2 DIV MUL PUSH1 0x20 ADD PUSH1 0x40 MLOAD SWAP1 DUP2 ADD PUSH1 0x40 MSTORE DUP1 SWAP3 SWAP2 SWAP1 DUP2 DUP2 MSTORE PUSH1 0x20 ADD DUP3 DUP1 SLOAD PUSH2 0x8EC SWAP1 PUSH2 0x4B75 JUMP JUMPDEST DUP1 ISZERO PUSH2 0x939 JUMPI DUP1 PUSH1 0x1F LT PUSH2 0x90E JUMPI PUSH2 0x100 DUP1 DUP4 SLOAD DIV MUL DUP4 MSTORE SWAP2 PUSH1 0x20 ADD SWAP2 PUSH2 0x939 JUMP JUMPDEST DUP3 ADD SWAP2 SWAP1 PUSH1 0x0 MSTORE PUSH1 0x20 PUSH1 0x0 KECCAK256 SWAP1 JUMPDEST DUP2 SLOAD DUP2 MSTORE SWAP1 PUSH1 0x1 ADD SWAP1 PUSH1 0x20 ADD DUP1 DUP4 GT PUSH2 0x91C JUMPI DUP3 SWAP1 SUB PUSH1 0x1F AND DUP3 ADD SWAP2 JUMPDEST POP POP POP POP POP SWAP1 DUP1 PUSH1 0x4 ADD DUP1 SLOAD PUSH2 0x94E SWAP1 PUSH2 0x4B75 JUMP JUMPDEST DUP1 PUSH1 0x1F ADD PUSH1 0x20 DUP1 SWAP2 DIV MUL PUSH1 0x20 ADD PUSH1 0x40 MLOAD SWAP1 DUP2 ADD PUSH1 0x40 MSTORE DUP1 SWAP3 SWAP2 SWAP1 DUP2 DUP2 MSTORE PUSH1 0x20 ADD DUP3 DUP1 SLOAD PUSH2 0x97A SWAP1 PUSH2 0x4B75 JUMP JUMPDEST DUP1 ISZERO PUSH2 0x9C7 JUMPI DUP1 PUSH1 0x1F LT PUSH2 0x99C JUMPI PUSH2 0x100 DUP1 DUP4 SLOAD DIV MUL DUP4 MSTORE SWAP2 PUSH1 0x20 ADD SWAP2 PUSH2 0x9C7 JUMP JUMPDEST DUP3 ADD SWAP2 SWAP1 PUSH1 0x0 MSTORE PUSH1 0x20 PUSH1 0x0 KECCAK256 SWAP1 JUMPDEST DUP2 SLOAD DUP2 MSTORE SWAP1 PUSH1 0x1 ADD SWAP1 PUSH1 0x20 ADD DUP1 DUP4 GT PUSH2 0x9AA JUMPI DUP3 SWAP1 SUB PUSH1 0x1F AND DUP3 ADD SWAP2 JUMPDEST POP POP POP POP PUSH1 0x5 DUP4 ADD SLOAD PUSH1 0x6 SWAP1 SWAP4 ADD SLOAD SWAP2 SWAP3 SWAP2 PUSH1 0xFF AND SWAP1 POP DUP8 JUMP JUMPDEST PUSH1 0x40 DUP1 MLOAD PUSH1 0xE0 DUP2 ADD DUP3 MSTORE PUSH1 0x0 DUP1 DUP3 MSTORE PUSH1 0x20 DUP3 ADD DUP2 SWAP1 MSTORE SWAP2 DUP2 ADD DUP3 SWAP1 MSTORE PUSH1 0x60 DUP1 DUP3 ADD DUP4 SWAP1 MSTORE PUSH1 0x80 DUP3 ADD MSTORE PUSH1 0xA0 DUP2 ADD DUP3 SWAP1 MSTORE PUSH1 0xC0 DUP2 ADD SWAP2 SWAP1 SWAP2 MSTORE PUSH1 0x0 DUP3 DUP2 MSTORE PUSH1 0xB PUSH1 0x20 SWAP1 DUP2 MSTORE PUSH1 0x40 SWAP2 DUP3 SWAP1 KECCAK256 DUP3 MLOAD PUSH1 0xE0 DUP2 ADD DUP5 MSTORE DUP2 SLOAD DUP2 MSTORE PUSH1 0x1 DUP3 ADD SLOAD PUSH1 0x1 PUSH1 0x1 PUSH1 0xA0 SHL SUB SWAP1 DUP2 AND SWAP4 DUP3 ADD SWAP4 SWAP1 SWAP4 MSTORE PUSH1 0x2 DUP3 ADD SLOAD SWAP1 SWAP3 AND SWAP3 DUP3 ADD SWAP3 SWAP1 SWAP3 MSTORE PUSH1 0x3 DUP3 ADD SLOAD PUSH1 0x60 DUP3 ADD MSTORE PUSH1 0x4 DUP3 ADD DUP1 SLOAD SWAP2 SWAP3 SWAP2 PUSH1 0x80 DUP5 ADD SWAP2 SWAP1 PUSH2 0xA7F SWAP1 PUSH2 0x4B75 JUMP JUMPDEST DUP1 PUSH1 0x1F ADD PUSH1 0x20 DUP1 SWAP2 DIV MUL PUSH1 0x20 ADD PUSH1 0x40 MLOAD SWAP1 DUP2 ADD PUSH1 0x40 MSTORE DUP1 SWAP3 SWAP2 SWAP1 DUP2 DUP2 MSTORE PUSH1 0x20 ADD DUP3 DUP1 SLOAD PUSH2 0xAAB SWAP1 PUSH2 0x4B75 JUMP JUMPDEST DUP1 ISZERO PUSH2 0xAF8 JUMPI DUP1 PUSH1 0x1F LT PUSH2 0xACD JUMPI PUSH2 0x100 DUP1 DUP4 SLOAD DIV MUL DUP4 MSTORE SWAP2 PUSH1 0x20 ADD SWAP2 PUSH2 0xAF8 JUMP JUMPDEST DUP3 ADD SWAP2 SWAP1 PUSH1 0x0 MSTORE PUSH1 0x20 PUSH1 0x0 KECCAK256 SWAP1 JUMPDEST DUP2 SLOAD DUP2 MSTORE SWAP1 PUSH1 0x1 ADD SWAP1 PUSH1 0x20 ADD DUP1 DUP4 GT PUSH2 0xADB JUMPI DUP3 SWAP1 SUB PUSH1 0x1F AND DUP3 ADD SWAP2 JUMPDEST POP POP POP SWAP2 DUP4 MSTORE POP POP PUSH1 0x5 DUP3 ADD SLOAD PUSH1 0xFF AND ISZERO ISZERO PUSH1 0x20 DUP3 ADD MSTORE PUSH1 0x6 SWAP1 SWAP2 ADD SLOAD PUSH1 0x40 SWAP1 SWAP2 ADD MSTORE SWAP3 SWAP2 POP POP JUMP JUMPDEST PUSH1 0x0 DUP1 MLOAD PUSH1 0x20 PUSH2 0x5255 DUP4 CODECOPY DUP2 MLOAD SWAP2 MSTORE PUSH2 0xB39 DUP2 PUSH2 0x3394 JUMP JUMPDEST POP PUSH1 0xC SSTORE JUMP JUMPDEST PUSH1 0x60 PUSH1 0x0 DUP1 MLOAD PUSH1 0x20 PUSH2 0x5275 DUP4 CODECOPY DUP2 MLOAD SWAP2 MSTORE PUSH2 0xB59 DUP2 PUSH2 0x3394 JUMP JUMPDEST PUSH1 0x0 DUP4 PUSH1 0x1 PUSH1 0x1 PUSH1 0x40 SHL SUB DUP2 GT ISZERO PUSH2 0xB73 JUMPI PUSH2 0xB73 PUSH2 0x472F JUMP JUMPDEST PUSH1 0x40 MLOAD SWAP1 DUP1 DUP3 MSTORE DUP1 PUSH1 0x20 MUL PUSH1 0x20 ADD DUP3 ADD PUSH1 0x40 MSTORE DUP1 ISZERO PUSH2 0xBAC JUMPI DUP2 PUSH1 0x20 ADD JUMPDEST PUSH2 0xB99 PUSH2 0x4217 JUMP JUMPDEST DUP2 MSTORE PUSH1 0x20 ADD SWAP1 PUSH1 0x1 SWAP1 SUB SWAP1 DUP2 PUSH2 0xB91 JUMPI SWAP1 POP JUMPDEST POP SWAP1 POP PUSH1 0x0 DUP6 JUMPDEST PUSH1 0x6 SLOAD DUP2 LT DUP1 ISZERO PUSH2 0xBC3 JUMPI POP DUP6 DUP3 LT JUMPDEST ISZERO PUSH2 0xE84 JUMPI PUSH1 0x0 DUP2 DUP2 MSTORE PUSH1 0x2 PUSH1 0x20 SWAP1 DUP2 MSTORE PUSH1 0x40 DUP1 DUP4 KECCAK256 DUP2 MLOAD PUSH1 0xA0 DUP2 ADD DUP4 MSTORE DUP2 SLOAD DUP2 MSTORE PUSH1 0x1 DUP3 ADD DUP1 SLOAD DUP5 MLOAD DUP2 DUP8 MUL DUP2 ADD DUP8 ADD SWAP1 SWAP6 MSTORE DUP1 DUP6 MSTORE SWAP2 SWAP5 SWAP3 SWAP4 DUP6 DUP5 ADD SWAP4 SWAP1 SWAP3 SWAP1 DUP8 SWAP1 DUP5 ADD JUMPDEST DUP3 DUP3 LT ISZERO PUSH2 0xCE2 JUMPI DUP4 DUP3 SWAP1 PUSH1 0x0 MSTORE PUSH1 0x20 PUSH1 0x0 KECCAK256 SWAP1 PUSH1 0x3 MUL ADD PUSH1 0x40 MLOAD DUP1 PUSH1 0x60 ADD PUSH1 0x40 MSTORE SWAP1 DUP2 PUSH1 0x0 DUP3 ADD SLOAD DUP2 MSTORE PUSH1 0x20 ADD PUSH1 0x1 DUP3 ADD SLOAD DUP2 MSTORE PUSH1 0x20 ADD PUSH1 0x2 DUP3 ADD DUP1 SLOAD PUSH2 0xC51 SWAP1 PUSH2 0x4B75 JUMP JUMPDEST DUP1 PUSH1 0x1F ADD PUSH1 0x20 DUP1 SWAP2 DIV MUL PUSH1 0x20 ADD PUSH1 0x40 MLOAD SWAP1 DUP2 ADD PUSH1 0x40 MSTORE DUP1 SWAP3 SWAP2 SWAP1 DUP2 DUP2 MSTORE PUSH1 0x20 ADD DUP3 DUP1 SLOAD PUSH2 0xC7D SWAP1 PUSH2 0x4B75 JUMP JUMPDEST DUP1 ISZERO PUSH2 0xCCA JUMPI DUP1 PUSH1 0x1F LT PUSH2 0xC9F JUMPI PUSH2 0x100 DUP1 DUP4 SLOAD DIV MUL DUP4 MSTORE SWAP2 PUSH1 0x20 ADD SWAP2 PUSH2 0xCCA JUMP JUMPDEST DUP3 ADD SWAP2 SWAP1 PUSH1 0x0 MSTORE PUSH1 0x20 PUSH1 0x0 KECCAK256 SWAP1 JUMPDEST DUP2 SLOAD DUP2 MSTORE SWAP1 PUSH1 0x1 ADD SWAP1 PUSH1 0x20 ADD DUP1 DUP4 GT PUSH2 0xCAD JUMPI DUP3 SWAP1 SUB PUSH1 0x1F AND DUP3 ADD SWAP2 JUMPDEST POP POP POP POP POP DUP2 MSTORE POP POP DUP2 MSTORE PUSH1 0x20 ADD SWAP1 PUSH1 0x1 ADD SWAP1 PUSH2 0xC0A JUMP JUMPDEST POP POP POP POP DUP2 MSTORE PUSH1 0x20 ADD PUSH1 0x2 DUP3 ADD DUP1 SLOAD DUP1 PUSH1 0x20 MUL PUSH1 0x20 ADD PUSH1 0x40 MLOAD SWAP1 DUP2 ADD PUSH1 0x40 MSTORE DUP1 SWAP3 SWAP2 SWAP1 DUP2 DUP2 MSTORE PUSH1 0x20 ADD PUSH1 0x0 SWAP1 JUMPDEST DUP3 DUP3 LT ISZERO PUSH2 0xD74 JUMPI PUSH1 0x0 DUP5 DUP2 MSTORE PUSH1 0x20 SWAP1 DUP2 SWAP1 KECCAK256 PUSH1 0x40 DUP1 MLOAD PUSH1 0x80 DUP2 ADD DUP3 MSTORE PUSH1 0x3 DUP7 MUL SWAP1 SWAP3 ADD DUP1 SLOAD DUP4 MSTORE PUSH1 0x1 DUP1 DUP3 ADD SLOAD PUSH1 0x1 PUSH1 0x1 PUSH1 0xA0 SHL SUB DUP2 AND DUP6 DUP8 ADD MSTORE PUSH1 0x1 PUSH1 0xA0 SHL SWAP1 DIV PUSH1 0xFF AND ISZERO ISZERO SWAP3 DUP5 ADD SWAP3 SWAP1 SWAP3 MSTORE PUSH1 0x2 ADD SLOAD PUSH1 0x60 DUP4 ADD MSTORE SWAP1 DUP4 MSTORE SWAP1 SWAP3 ADD SWAP2 ADD PUSH2 0xD0F JUMP JUMPDEST POP POP POP SWAP1 DUP3 MSTORE POP PUSH1 0x3 DUP3 ADD SLOAD PUSH1 0x20 DUP3 ADD MSTORE PUSH1 0x4 SWAP1 SWAP2 ADD SLOAD PUSH1 0x1 PUSH1 0x1 PUSH1 0xA0 SHL SUB SWAP1 DUP2 AND PUSH1 0x40 SWAP1 SWAP3 ADD SWAP2 SWAP1 SWAP2 MSTORE PUSH1 0x80 DUP3 ADD MLOAD SWAP2 SWAP3 POP DUP11 DUP2 AND SWAP2 AND SUB PUSH2 0xDE2 JUMPI DUP1 DUP5 DUP5 DUP2 MLOAD DUP2 LT PUSH2 0xDC4 JUMPI PUSH2 0xDC4 PUSH2 0x4BAF JUMP JUMPDEST PUSH1 0x20 MUL PUSH1 0x20 ADD ADD DUP2 SWAP1 MSTORE POP DUP3 DUP1 PUSH2 0xDDA SWAP1 PUSH2 0x4BDB JUMP JUMPDEST SWAP4 POP POP PUSH2 0xE71 JUMP JUMPDEST PUSH1 0x0 JUMPDEST DUP2 PUSH1 0x40 ADD MLOAD MLOAD DUP2 LT ISZERO PUSH2 0xE6F JUMPI DUP10 PUSH1 0x1 PUSH1 0x1 PUSH1 0xA0 SHL SUB AND DUP3 PUSH1 0x40 ADD MLOAD DUP3 DUP2 MLOAD DUP2 LT PUSH2 0xE12 JUMPI PUSH2 0xE12 PUSH2 0x4BAF JUMP JUMPDEST PUSH1 0x20 MUL PUSH1 0x20 ADD ADD MLOAD PUSH1 0x20 ADD MLOAD PUSH1 0x1 PUSH1 0x1 PUSH1 0xA0 SHL SUB AND SUB PUSH2 0xE5D JUMPI DUP2 DUP6 DUP6 DUP2 MLOAD DUP2 LT PUSH2 0xE3F JUMPI PUSH2 0xE3F PUSH2 0x4BAF JUMP JUMPDEST PUSH1 0x20 MUL PUSH1 0x20 ADD ADD DUP2 SWAP1 MSTORE POP DUP4 DUP1 PUSH2 0xE55 SWAP1 PUSH2 0x4BDB JUMP JUMPDEST SWAP5 POP POP PUSH2 0xE6F JUMP JUMPDEST DUP1 PUSH2 0xE67 DUP2 PUSH2 0x4BDB JUMP JUMPDEST SWAP2 POP POP PUSH2 0xDE5 JUMP JUMPDEST POP JUMPDEST POP DUP1 PUSH2 0xE7C DUP2 PUSH2 0x4BDB JUMP JUMPDEST SWAP2 POP POP PUSH2 0xBB3 JUMP JUMPDEST POP PUSH1 0x0 DUP2 PUSH1 0x1 PUSH1 0x1 PUSH1 0x40 SHL SUB DUP2 GT ISZERO PUSH2 0xE9F JUMPI PUSH2 0xE9F PUSH2 0x472F JUMP JUMPDEST PUSH1 0x40 MLOAD SWAP1 DUP1 DUP3 MSTORE DUP1 PUSH1 0x20 MUL PUSH1 0x20 ADD DUP3 ADD PUSH1 0x40 MSTORE DUP1 ISZERO PUSH2 0xED8 JUMPI DUP2 PUSH1 0x20 ADD JUMPDEST PUSH2 0xEC5 PUSH2 0x4217 JUMP JUMPDEST DUP2 MSTORE PUSH1 0x20 ADD SWAP1 PUSH1 0x1 SWAP1 SUB SWAP1 DUP2 PUSH2 0xEBD JUMPI SWAP1 POP JUMPDEST POP SWAP1 POP PUSH1 0x0 JUMPDEST DUP3 DUP2 LT ISZERO PUSH2 0xF30 JUMPI DUP4 DUP2 DUP2 MLOAD DUP2 LT PUSH2 0xEF8 JUMPI PUSH2 0xEF8 PUSH2 0x4BAF JUMP JUMPDEST PUSH1 0x20 MUL PUSH1 0x20 ADD ADD MLOAD DUP3 DUP3 DUP2 MLOAD DUP2 LT PUSH2 0xF12 JUMPI PUSH2 0xF12 PUSH2 0x4BAF JUMP JUMPDEST PUSH1 0x20 MUL PUSH1 0x20 ADD ADD DUP2 SWAP1 MSTORE POP DUP1 DUP1 PUSH2 0xF28 SWAP1 PUSH2 0x4BDB JUMP JUMPDEST SWAP2 POP POP PUSH2 0xEDE JUMP JUMPDEST POP SWAP8 SWAP7 POP POP POP POP POP POP POP JUMP JUMPDEST PUSH2 0xF54 PUSH1 0x0 DUP1 MLOAD PUSH1 0x20 PUSH2 0x5255 DUP4 CODECOPY DUP2 MLOAD SWAP2 MSTORE CALLER PUSH2 0x23FF JUMP JUMPDEST PUSH2 0xFB0 JUMPI PUSH1 0x40 MLOAD PUSH3 0x461BCD PUSH1 0xE5 SHL DUP2 MSTORE PUSH1 0x20 PUSH1 0x4 DUP3 ADD MSTORE PUSH1 0x22 PUSH1 0x24 DUP3 ADD MSTORE PUSH32 0x4F6E6C79207072696D6172792062616E6B2063616E207265766F6B6520726F6C PUSH1 0x44 DUP3 ADD MSTORE PUSH2 0x6573 PUSH1 0xF0 SHL PUSH1 0x64 DUP3 ADD MSTORE PUSH1 0x84 ADD JUMPDEST PUSH1 0x40 MLOAD DUP1 SWAP2 SUB SWAP1 REVERT JUMPDEST PUSH2 0xFBA DUP2 DUP4 PUSH2 0x23FF JUMP JUMPDEST PUSH2 0x1006 JUMPI PUSH1 0x40 MLOAD PUSH3 0x461BCD PUSH1 0xE5 SHL DUP2 MSTORE PUSH1 0x20 PUSH1 0x4 DUP3 ADD MSTORE PUSH1 0x1E PUSH1 0x24 DUP3 ADD MSTORE PUSH32 0x4163636F756E7420646F6573206E6F7420686176652074686520726F6C650000 PUSH1 0x44 DUP3 ADD MSTORE PUSH1 0x64 ADD PUSH2 0xFA7 JUMP JUMPDEST PUSH2 0x1010 DUP2 DUP4 PUSH2 0x33A1 JUMP JUMPDEST POP PUSH1 0x1 PUSH1 0x1 PUSH1 0xA0 SHL SUB DUP3 AND PUSH1 0x0 SWAP1 DUP2 MSTORE PUSH1 0x1 PUSH1 0x20 DUP2 SWAP1 MSTORE PUSH1 0x40 DUP3 KECCAK256 DUP1 SLOAD PUSH1 0x1 PUSH1 0x1 PUSH1 0xA0 SHL SUB NOT AND DUP2 SSTORE SWAP2 SWAP1 PUSH2 0x1047 SWAP1 DUP4 ADD DUP3 PUSH2 0x424F JUMP JUMPDEST POP PUSH1 0x0 PUSH1 0x2 DUP3 ADD DUP2 SWAP1 SSTORE PUSH1 0x3 DUP3 ADD DUP1 SLOAD PUSH1 0xFF NOT AND SWAP1 SSTORE PUSH1 0x4 SWAP1 SWAP2 ADD DUP2 SWAP1 SSTORE PUSH1 0x40 MLOAD DUP3 SWAP2 PUSH1 0x1 PUSH1 0x1 PUSH1 0xA0 SHL SUB DUP6 AND SWAP2 PUSH32 0xEA83A7CAEF01824E96446A8C4BC8FF4669EDD99E129B53E32C077F85D2168081 SWAP2 SWAP1 LOG3 POP POP JUMP JUMPDEST PUSH1 0x1 PUSH1 0x1 PUSH1 0xA0 SHL SUB DUP1 DUP3 AND PUSH1 0x0 SWAP1 DUP2 MSTORE PUSH1 0x1 PUSH1 0x20 DUP2 DUP2 MSTORE PUSH1 0x40 DUP1 DUP5 KECCAK256 DUP2 MLOAD PUSH1 0xA0 DUP2 ADD SWAP1 SWAP3 MSTORE DUP1 SLOAD SWAP1 SWAP6 AND DUP2 MSTORE SWAP2 DUP5 ADD DUP1 SLOAD SWAP4 SWAP5 DUP6 SWAP5 SWAP1 SWAP3 DUP5 ADD SWAP2 SWAP1 PUSH2 0x10E1 SWAP1 PUSH2 0x4B75 JUMP JUMPDEST DUP1 PUSH1 0x1F ADD PUSH1 0x20 DUP1 SWAP2 DIV MUL PUSH1 0x20 ADD PUSH1 0x40 MLOAD SWAP1 DUP2 ADD PUSH1 0x40 MSTORE DUP1 SWAP3 SWAP2 SWAP1 DUP2 DUP2 MSTORE PUSH1 0x20 ADD DUP3 DUP1 SLOAD PUSH2 0x110D SWAP1 PUSH2 0x4B75 JUMP JUMPDEST DUP1 ISZERO PUSH2 0x115A JUMPI DUP1 PUSH1 0x1F LT PUSH2 0x112F JUMPI PUSH2 0x100 DUP1 DUP4 SLOAD DIV MUL DUP4 MSTORE SWAP2 PUSH1 0x20 ADD SWAP2 PUSH2 0x115A JUMP JUMPDEST DUP3 ADD SWAP2 SWAP1 PUSH1 0x0 MSTORE PUSH1 0x20 PUSH1 0x0 KECCAK256 SWAP1 JUMPDEST DUP2 SLOAD DUP2 MSTORE SWAP1 PUSH1 0x1 ADD SWAP1 PUSH1 0x20 ADD DUP1 DUP4 GT PUSH2 0x113D JUMPI DUP3 SWAP1 SUB PUSH1 0x1F AND DUP3 ADD SWAP2 JUMPDEST POP POP POP SWAP2 DUP4 MSTORE POP POP PUSH1 0x2 DUP3 ADD SLOAD PUSH1 0x20 DUP3 ADD MSTORE PUSH1 0x3 DUP3 ADD SLOAD PUSH1 0xFF AND ISZERO ISZERO PUSH1 0x40 DUP3 ADD MSTORE PUSH1 0x4 SWAP1 SWAP2 ADD SLOAD PUSH1 0x60 SWAP2 DUP3 ADD MSTORE DUP2 ADD MLOAD SWAP1 SWAP2 POP DUP1 ISZERO PUSH2 0x11A2 JUMPI POP DUP1 MLOAD PUSH1 0x1 PUSH1 0x1 PUSH1 0xA0 SHL SUB AND ISZERO ISZERO JUMPDEST SWAP4 SWAP3 POP POP POP JUMP JUMPDEST PUSH1 0x0 SWAP1 DUP2 MSTORE PUSH1 0x20 DUP2 SWAP1 MSTORE PUSH1 0x40 SWAP1 KECCAK256 PUSH1 0x1 ADD SLOAD SWAP1 JUMP JUMPDEST PUSH1 0x1 PUSH1 0x20 DUP2 SWAP1 MSTORE PUSH1 0x0 SWAP2 DUP3 MSTORE PUSH1 0x40 SWAP1 SWAP2 KECCAK256 DUP1 SLOAD SWAP2 DUP2 ADD DUP1 SLOAD PUSH1 0x1 PUSH1 0x1 PUSH1 0xA0 SHL SUB SWAP1 SWAP4 AND SWAP3 PUSH2 0x11EB SWAP1 PUSH2 0x4B75 JUMP JUMPDEST DUP1 PUSH1 0x1F ADD PUSH1 0x20 DUP1 SWAP2 DIV MUL PUSH1 0x20 ADD PUSH1 0x40 MLOAD SWAP1 DUP2 ADD PUSH1 0x40 MSTORE DUP1 SWAP3 SWAP2 SWAP1 DUP2 DUP2 MSTORE PUSH1 0x20 ADD DUP3 DUP1 SLOAD PUSH2 0x1217 SWAP1 PUSH2 0x4B75 JUMP JUMPDEST DUP1 ISZERO PUSH2 0x1264 JUMPI DUP1 PUSH1 0x1F LT PUSH2 0x1239 JUMPI PUSH2 0x100 DUP1 DUP4 SLOAD DIV MUL DUP4 MSTORE SWAP2 PUSH1 0x20 ADD SWAP2 PUSH2 0x1264 JUMP JUMPDEST DUP3 ADD SWAP2 SWAP1 PUSH1 0x0 MSTORE PUSH1 0x20 PUSH1 0x0 KECCAK256 SWAP1 JUMPDEST DUP2 SLOAD DUP2 MSTORE SWAP1 PUSH1 0x1 ADD SWAP1 PUSH1 0x20 ADD DUP1 DUP4 GT PUSH2 0x1247 JUMPI DUP3 SWAP1 SUB PUSH1 0x1F AND DUP3 ADD SWAP2 JUMPDEST POP POP POP POP PUSH1 0x2 DUP4 ADD SLOAD PUSH1 0x3 DUP5 ADD SLOAD PUSH1 0x4 SWAP1 SWAP5 ADD SLOAD SWAP3 SWAP4 SWAP1 SWAP3 PUSH1 0xFF SWAP1 SWAP2 AND SWAP2 POP DUP6 JUMP JUMPDEST PUSH2 0x128F DUP3 PUSH2 0x11A9 JUMP JUMPDEST PUSH2 0x1298 DUP2 PUSH2 0x3394 JUMP JUMPDEST PUSH2 0x12A2 DUP4 DUP4 PUSH2 0x3414 JUMP JUMPDEST POP POP POP POP JUMP JUMPDEST PUSH2 0x12B0 PUSH2 0x4217 JUMP JUMPDEST PUSH1 0x2 PUSH1 0x0 DUP4 DUP2 MSTORE PUSH1 0x20 ADD SWAP1 DUP2 MSTORE PUSH1 0x20 ADD PUSH1 0x0 KECCAK256 PUSH1 0x40 MLOAD DUP1 PUSH1 0xA0 ADD PUSH1 0x40 MSTORE SWAP1 DUP2 PUSH1 0x0 DUP3 ADD SLOAD DUP2 MSTORE PUSH1 0x20 ADD PUSH1 0x1 DUP3 ADD DUP1 SLOAD DUP1 PUSH1 0x20 MUL PUSH1 0x20 ADD PUSH1 0x40 MLOAD SWAP1 DUP2 ADD PUSH1 0x40 MSTORE DUP1 SWAP3 SWAP2 SWAP1 DUP2 DUP2 MSTORE PUSH1 0x20 ADD PUSH1 0x0 SWAP1 JUMPDEST DUP3 DUP3 LT ISZERO PUSH2 0x13D5 JUMPI DUP4 DUP3 SWAP1 PUSH1 0x0 MSTORE PUSH1 0x20 PUSH1 0x0 KECCAK256 SWAP1 PUSH1 0x3 MUL ADD PUSH1 0x40 MLOAD DUP1 PUSH1 0x60 ADD PUSH1 0x40 MSTORE SWAP1 DUP2 PUSH1 0x0 DUP3 ADD SLOAD DUP2 MSTORE PUSH1 0x20 ADD PUSH1 0x1 DUP3 ADD SLOAD DUP2 MSTORE PUSH1 0x20 ADD PUSH1 0x2 DUP3 ADD DUP1 SLOAD PUSH2 0x1344 SWAP1 PUSH2 0x4B75 JUMP JUMPDEST DUP1 PUSH1 0x1F ADD PUSH1 0x20 DUP1 SWAP2 DIV MUL PUSH1 0x20 ADD PUSH1 0x40 MLOAD SWAP1 DUP2 ADD PUSH1 0x40 MSTORE DUP1 SWAP3 SWAP2 SWAP1 DUP2 DUP2 MSTORE PUSH1 0x20 ADD DUP3 DUP1 SLOAD PUSH2 0x1370 SWAP1 PUSH2 0x4B75 JUMP JUMPDEST DUP1 ISZERO PUSH2 0x13BD JUMPI DUP1 PUSH1 0x1F LT PUSH2 0x1392 JUMPI PUSH2 0x100 DUP1 DUP4 SLOAD DIV MUL DUP4 MSTORE SWAP2 PUSH1 0x20 ADD SWAP2 PUSH2 0x13BD JUMP JUMPDEST DUP3 ADD SWAP2 SWAP1 PUSH1 0x0 MSTORE PUSH1 0x20 PUSH1 0x0 KECCAK256 SWAP1 JUMPDEST DUP2 SLOAD DUP2 MSTORE SWAP1 PUSH1 0x1 ADD SWAP1 PUSH1 0x20 ADD DUP1 DUP4 GT PUSH2 0x13A0 JUMPI DUP3 SWAP1 SUB PUSH1 0x1F AND DUP3 ADD SWAP2 JUMPDEST POP POP POP POP POP DUP2 MSTORE POP POP DUP2 MSTORE PUSH1 0x20 ADD SWAP1 PUSH1 0x1 ADD SWAP1 PUSH2 0x12FD JUMP JUMPDEST POP POP POP POP DUP2 MSTORE PUSH1 0x20 ADD PUSH1 0x2 DUP3 ADD DUP1 SLOAD DUP1 PUSH1 0x20 MUL PUSH1 0x20 ADD PUSH1 0x40 MLOAD SWAP1 DUP2 ADD PUSH1 0x40 MSTORE DUP1 SWAP3 SWAP2 SWAP1 DUP2 DUP2 MSTORE PUSH1 0x20 ADD PUSH1 0x0 SWAP1 JUMPDEST DUP3 DUP3 LT ISZERO PUSH2 0x1467 JUMPI PUSH1 0x0 DUP5 DUP2 MSTORE PUSH1 0x20 SWAP1 DUP2 SWAP1 KECCAK256 PUSH1 0x40 DUP1 MLOAD PUSH1 0x80 DUP2 ADD DUP3 MSTORE PUSH1 0x3 DUP7 MUL SWAP1 SWAP3 ADD DUP1 SLOAD DUP4 MSTORE PUSH1 0x1 DUP1 DUP3 ADD SLOAD PUSH1 0x1 PUSH1 0x1 PUSH1 0xA0 SHL SUB DUP2 AND DUP6 DUP8 ADD MSTORE PUSH1 0x1 PUSH1 0xA0 SHL SWAP1 DIV PUSH1 0xFF AND ISZERO ISZERO SWAP3 DUP5 ADD SWAP3 SWAP1 SWAP3 MSTORE PUSH1 0x2 ADD SLOAD PUSH1 0x60 DUP4 ADD MSTORE SWAP1 DUP4 MSTORE SWAP1 SWAP3 ADD SWAP2 ADD PUSH2 0x1402 JUMP JUMPDEST POP POP POP SWAP1 DUP3 MSTORE POP PUSH1 0x3 DUP3 ADD SLOAD PUSH1 0x20 DUP3 ADD MSTORE PUSH1 0x4 SWAP1 SWAP2 ADD SLOAD PUSH1 0x1 PUSH1 0x1 PUSH1 0xA0 SHL SUB AND PUSH1 0x40 SWAP1 SWAP2 ADD MSTORE SWAP3 SWAP2 POP POP JUMP JUMPDEST PUSH1 0x1 PUSH1 0x1 PUSH1 0xA0 SHL SUB DUP2 AND PUSH1 0x0 SWAP1 DUP2 MSTORE PUSH1 0x4 PUSH1 0x20 MSTORE PUSH1 0x40 DUP2 KECCAK256 DUP2 DUP1 JUMPDEST DUP3 SLOAD DUP2 LT ISZERO PUSH2 0x1567 JUMPI PUSH1 0x0 PUSH1 0x3 PUSH1 0x0 DUP6 DUP5 DUP2 SLOAD DUP2 LT PUSH2 0x14CF JUMPI PUSH2 0x14CF PUSH2 0x4BAF JUMP JUMPDEST PUSH1 0x0 SWAP2 DUP3 MSTORE PUSH1 0x20 DUP1 DUP4 KECCAK256 SWAP2 SWAP1 SWAP2 ADD SLOAD DUP4 MSTORE DUP3 DUP2 ADD SWAP4 SWAP1 SWAP4 MSTORE PUSH1 0x40 SWAP2 DUP3 ADD SWAP1 KECCAK256 DUP2 MLOAD PUSH1 0x80 DUP2 ADD DUP4 MSTORE DUP2 SLOAD DUP2 MSTORE PUSH1 0x1 DUP3 ADD SLOAD PUSH1 0x1 PUSH1 0x1 PUSH1 0xA0 SHL SUB DUP2 AND SWAP5 DUP3 ADD SWAP5 SWAP1 SWAP5 MSTORE PUSH1 0x1 PUSH1 0xA0 SHL SWAP1 SWAP4 DIV PUSH1 0xFF AND ISZERO DUP1 ISZERO SWAP3 DUP5 ADD DUP4 SWAP1 MSTORE PUSH1 0x2 SWAP1 SWAP2 ADD SLOAD PUSH1 0x60 DUP5 ADD MSTORE SWAP2 SWAP3 POP PUSH2 0x1540 JUMPI POP DUP1 PUSH1 0x60 ADD MLOAD TIMESTAMP LT ISZERO JUMPDEST ISZERO PUSH2 0x1554 JUMPI DUP1 MLOAD PUSH2 0x1551 SWAP1 DUP5 PUSH2 0x4BF4 JUMP JUMPDEST SWAP3 POP JUMPDEST POP DUP1 PUSH2 0x155F DUP2 PUSH2 0x4BDB JUMP JUMPDEST SWAP2 POP POP PUSH2 0x14AE JUMP JUMPDEST POP SWAP4 SWAP3 POP POP POP JUMP JUMPDEST PUSH1 0x1 PUSH1 0x1 PUSH1 0xA0 SHL SUB DUP2 AND CALLER EQ PUSH2 0x1598 JUMPI PUSH1 0x40 MLOAD PUSH4 0x334BD919 PUSH1 0xE1 SHL DUP2 MSTORE PUSH1 0x4 ADD PUSH1 0x40 MLOAD DUP1 SWAP2 SUB SWAP1 REVERT JUMPDEST PUSH2 0x15A2 DUP3 DUP3 PUSH2 0x33A1 JUMP JUMPDEST POP POP POP JUMP JUMPDEST PUSH1 0xA PUSH1 0x20 MSTORE DUP2 PUSH1 0x0 MSTORE PUSH1 0x40 PUSH1 0x0 KECCAK256 DUP2 DUP2 SLOAD DUP2 LT PUSH2 0x15C3 JUMPI PUSH1 0x0 DUP1 REVERT JUMPDEST SWAP1 PUSH1 0x0 MSTORE PUSH1 0x20 PUSH1 0x0 KECCAK256 ADD PUSH1 0x0 SWAP2 POP SWAP2 POP POP SLOAD DUP2 JUMP JUMPDEST PUSH1 0xB PUSH1 0x20 MSTORE PUSH1 0x0 SWAP1 DUP2 MSTORE PUSH1 0x40 SWAP1 KECCAK256 DUP1 SLOAD PUSH1 0x1 DUP3 ADD SLOAD PUSH1 0x2 DUP4 ADD SLOAD PUSH1 0x3 DUP5 ADD SLOAD PUSH1 0x4 DUP6 ADD DUP1 SLOAD SWAP5 SWAP6 PUSH1 0x1 PUSH1 0x1 PUSH1 0xA0 SHL SUB SWAP5 DUP6 AND SWAP6 SWAP4 SWAP1 SWAP5 AND SWAP4 SWAP2 SWAP3 PUSH2 0x161B SWAP1 PUSH2 0x4B75 JUMP JUMPDEST DUP1 PUSH1 0x1F ADD PUSH1 0x20 DUP1 SWAP2 DIV MUL PUSH1 0x20 ADD PUSH1 0x40 MLOAD SWAP1 DUP2 ADD PUSH1 0x40 MSTORE DUP1 SWAP3 SWAP2 SWAP1 DUP2 DUP2 MSTORE PUSH1 0x20 ADD DUP3 DUP1 SLOAD PUSH2 0x1647 SWAP1 PUSH2 0x4B75 JUMP JUMPDEST DUP1 ISZERO PUSH2 0x1694 JUMPI DUP1 PUSH1 0x1F LT PUSH2 0x1669 JUMPI PUSH2 0x100 DUP1 DUP4 SLOAD DIV MUL DUP4 MSTORE SWAP2 PUSH1 0x20 ADD SWAP2 PUSH2 0x1694 JUMP JUMPDEST DUP3 ADD SWAP2 SWAP1 PUSH1 0x0 MSTORE PUSH1 0x20 PUSH1 0x0 KECCAK256 SWAP1 JUMPDEST DUP2 SLOAD DUP2 MSTORE SWAP1 PUSH1 0x1 ADD SWAP1 PUSH1 0x20 ADD DUP1 DUP4 GT PUSH2 0x1677 JUMPI DUP3 SWAP1 SUB PUSH1 0x1F AND DUP3 ADD SWAP2 JUMPDEST POP POP POP POP PUSH1 0x5 DUP4 ADD SLOAD PUSH1 0x6 SWAP1 SWAP4 ADD SLOAD SWAP2 SWAP3 PUSH1 0xFF AND SWAP2 SWAP1 POP DUP8 JUMP JUMPDEST PUSH1 0x0 DUP1 MLOAD PUSH1 0x20 PUSH2 0x5255 DUP4 CODECOPY DUP2 MLOAD SWAP2 MSTORE PUSH2 0x16C6 DUP2 PUSH2 0x3394 JUMP JUMPDEST PUSH8 0x6765C793FA10079D PUSH1 0x1B SHL DUP3 PUSH1 0x7 SLOAD PUSH2 0x16E0 SWAP2 SWAP1 PUSH2 0x4BF4 JUMP JUMPDEST GT ISZERO PUSH2 0x1727 JUMPI PUSH1 0x40 MLOAD PUSH3 0x461BCD PUSH1 0xE5 SHL DUP2 MSTORE PUSH1 0x20 PUSH1 0x4 DUP3 ADD MSTORE PUSH1 0x16 PUSH1 0x24 DUP3 ADD MSTORE PUSH22 0x45786365656473206D6178696D756D20737570706C79 PUSH1 0x50 SHL PUSH1 0x44 DUP3 ADD MSTORE PUSH1 0x64 ADD PUSH2 0xFA7 JUMP JUMPDEST PUSH1 0x1 PUSH1 0x1 PUSH1 0xA0 SHL SUB DUP4 AND PUSH2 0x1779 JUMPI PUSH1 0x40 MLOAD PUSH3 0x461BCD PUSH1 0xE5 SHL DUP2 MSTORE PUSH1 0x20 PUSH1 0x4 DUP3 ADD MSTORE PUSH1 0x19 PUSH1 0x24 DUP3 ADD MSTORE PUSH25 0x496E76616C696420726563697069656E742061646472657373 PUSH1 0x38 SHL PUSH1 0x44 DUP3 ADD MSTORE PUSH1 0x64 ADD PUSH2 0xFA7 JUMP JUMPDEST PUSH2 0x1782 DUP4 PUSH2 0x109D JUMP JUMPDEST PUSH2 0x17CE JUMPI PUSH1 0x40 MLOAD PUSH3 0x461BCD PUSH1 0xE5 SHL DUP2 MSTORE PUSH1 0x20 PUSH1 0x4 DUP3 ADD DUP2 SWAP1 MSTORE PUSH1 0x24 DUP3 ADD MSTORE PUSH32 0x526563697069656E74206D757374206861766520612076616C696420726F6C65 PUSH1 0x44 DUP3 ADD MSTORE PUSH1 0x64 ADD PUSH2 0xFA7 JUMP JUMPDEST PUSH1 0x0 DUP4 DUP4 TIMESTAMP PUSH1 0x6 SLOAD PUSH1 0x40 MLOAD PUSH1 0x20 ADD PUSH2 0x17E9 SWAP5 SWAP4 SWAP3 SWAP2 SWAP1 PUSH2 0x4C07 JUMP JUMPDEST PUSH1 0x40 DUP1 MLOAD PUSH1 0x1F NOT DUP2 DUP5 SUB ADD DUP2 MSTORE DUP3 DUP3 MSTORE DUP1 MLOAD PUSH1 0x20 SWAP2 DUP3 ADD KECCAK256 PUSH1 0x80 DUP5 ADD DUP4 MSTORE DUP7 DUP5 MSTORE PUSH1 0x1 PUSH1 0x1 PUSH1 0xA0 SHL SUB DUP1 DUP10 AND DUP6 DUP5 ADD DUP2 DUP2 MSTORE PUSH1 0x0 DUP8 DUP8 ADD DUP2 DUP2 MSTORE PUSH1 0x60 DUP10 ADD DUP3 DUP2 MSTORE DUP7 DUP4 MSTORE PUSH1 0x3 DUP9 MSTORE DUP9 DUP4 KECCAK256 DUP11 MLOAD DUP2 SSTORE SWAP4 MLOAD PUSH1 0x1 DUP6 DUP2 ADD DUP1 SLOAD SWAP5 MLOAD ISZERO ISZERO PUSH1 0x1 PUSH1 0xA0 SHL MUL PUSH1 0x1 PUSH1 0x1 PUSH1 0xA8 SHL SUB NOT SWAP1 SWAP6 AND SWAP3 SWAP1 SWAP9 AND SWAP2 SWAP1 SWAP2 OR SWAP3 SWAP1 SWAP3 OR SWAP1 SWAP6 SSTORE SWAP4 MLOAD PUSH1 0x2 SWAP1 SWAP3 ADD SWAP2 SWAP1 SWAP2 SSTORE SWAP1 DUP2 MSTORE PUSH1 0x4 DUP5 MSTORE SWAP4 DUP5 KECCAK256 DUP1 SLOAD SWAP2 DUP3 ADD DUP2 SSTORE DUP5 MSTORE SWAP2 DUP4 KECCAK256 SWAP1 SWAP2 ADD DUP2 SWAP1 SSTORE PUSH1 0x7 DUP1 SLOAD SWAP2 SWAP5 POP DUP7 SWAP3 SWAP1 SWAP2 PUSH2 0x18A3 SWAP1 DUP5 SWAP1 PUSH2 0x4BF4 JUMP JUMPDEST SWAP1 SWAP2 SSTORE POP POP PUSH1 0x0 DUP3 DUP2 MSTORE PUSH1 0x2 PUSH1 0x20 DUP2 DUP2 MSTORE PUSH1 0x40 DUP1 DUP5 KECCAK256 DUP7 DUP2 SSTORE TIMESTAMP PUSH1 0x3 DUP1 DUP4 ADD SWAP2 SWAP1 SWAP2 SSTORE PUSH1 0x4 DUP3 ADD DUP1 SLOAD PUSH1 0x1 PUSH1 0x1 PUSH1 0xA0 SHL SUB NOT AND CALLER OR SWAP1 SSTORE SWAP1 DUP5 ADD DUP1 SLOAD PUSH1 0x1 DUP2 DUP2 ADD DUP4 SSTORE SWAP2 DUP8 MSTORE DUP5 DUP8 KECCAK256 DUP9 MLOAD SWAP2 SWAP1 SWAP4 MUL SWAP1 SWAP3 ADD SWAP2 DUP3 SSTORE DUP7 DUP5 ADD MLOAD DUP3 DUP3 ADD DUP1 SLOAD DUP10 DUP7 ADD MLOAD ISZERO ISZERO PUSH1 0x1 PUSH1 0xA0 SHL MUL PUSH1 0x1 PUSH1 0x1 PUSH1 0xA8 SHL SUB NOT SWAP1 SWAP2 AND PUSH1 0x1 PUSH1 0x1 PUSH1 0xA0 SHL SUB SWAP4 SWAP1 SWAP4 AND SWAP3 SWAP1 SWAP3 OR SWAP2 SWAP1 SWAP2 OR SWAP1 SSTORE PUSH1 0x60 DUP8 ADD MLOAD SWAP2 SWAP1 SWAP5 ADD SSTORE DUP6 DUP5 MSTORE PUSH1 0x5 SWAP1 SWAP2 MSTORE DUP3 KECCAK256 DUP1 SLOAD PUSH1 0xFF NOT AND SWAP1 SWAP2 OR SWAP1 SSTORE PUSH1 0x6 DUP1 SLOAD SWAP2 PUSH2 0x195C DUP4 PUSH2 0x4BDB JUMP JUMPDEST SWAP2 SWAP1 POP SSTORE POP DUP5 PUSH1 0x1 PUSH1 0x1 PUSH1 0xA0 SHL SUB AND DUP3 PUSH1 0x0 DUP1 MLOAD PUSH1 0x20 PUSH2 0x5295 DUP4 CODECOPY DUP2 MLOAD SWAP2 MSTORE DUP7 PUSH1 0x40 MLOAD PUSH2 0x198B SWAP2 DUP2 MSTORE PUSH1 0x20 ADD SWAP1 JUMP JUMPDEST PUSH1 0x40 MLOAD DUP1 SWAP2 SUB SWAP1 LOG3 PUSH1 0x40 MLOAD DUP5 DUP2 MSTORE CALLER SWAP1 PUSH32 0x2C6364C33C231F6B00D9D8736D5FFC450B1A21FDA45EF7847565E16A039A4CD5 SWAP1 PUSH1 0x20 ADD PUSH1 0x40 MLOAD DUP1 SWAP2 SUB SWAP1 LOG2 PUSH1 0x40 MLOAD PUSH1 0x1 DUP2 MSTORE CALLER SWAP1 DUP4 SWAP1 PUSH1 0x0 DUP1 MLOAD PUSH1 0x20 PUSH2 0x52F5 DUP4 CODECOPY DUP2 MLOAD SWAP2 MSTORE SWAP1 PUSH1 0x20 ADD JUMPDEST PUSH1 0x40 MLOAD DUP1 SWAP2 SUB SWAP1 LOG3 POP POP POP POP POP JUMP JUMPDEST PUSH1 0x0 PUSH1 0x0 DUP1 MLOAD PUSH1 0x20 PUSH2 0x5275 DUP4 CODECOPY DUP2 MLOAD SWAP2 MSTORE PUSH2 0x1A10 DUP2 PUSH2 0x3394 JUMP JUMPDEST PUSH1 0x10 SLOAD PUSH1 0x40 MLOAD PUSH1 0x1 PUSH1 0x1 PUSH1 0x60 SHL SUB NOT PUSH1 0x60 DUP8 DUP2 SHL DUP3 AND PUSH1 0x20 DUP5 ADD MSTORE CALLER SWAP1 SHL AND PUSH1 0x34 DUP3 ADD MSTORE TIMESTAMP PUSH1 0x48 DUP3 ADD MSTORE PUSH1 0x68 DUP2 ADD SWAP2 SWAP1 SWAP2 MSTORE PUSH1 0x0 SWAP1 PUSH1 0x88 ADD PUSH1 0x40 MLOAD PUSH1 0x20 DUP2 DUP4 SUB SUB DUP2 MSTORE SWAP1 PUSH1 0x40 MSTORE DUP1 MLOAD SWAP1 PUSH1 0x20 ADD KECCAK256 PUSH1 0x0 SHR SWAP1 POP PUSH1 0x0 PUSH2 0x1A6E DUP7 PUSH2 0x1493 JUMP JUMPDEST SWAP1 POP PUSH1 0x0 PUSH2 0x1A7B DUP8 PUSH2 0x2592 JUMP JUMPDEST SWAP1 POP PUSH1 0x0 DUP1 DUP4 GT PUSH2 0x1AAF JUMPI PUSH1 0x40 MLOAD DUP1 PUSH1 0x40 ADD PUSH1 0x40 MSTORE DUP1 PUSH1 0xB DUP2 MSTORE PUSH1 0x20 ADD PUSH11 0x4C6F772062616C616E6365 PUSH1 0xA8 SHL DUP2 MSTORE POP PUSH2 0x1ACF JUMP JUMPDEST PUSH1 0x40 MLOAD DUP1 PUSH1 0x40 ADD PUSH1 0x40 MSTORE DUP1 PUSH1 0x6 DUP2 MSTORE PUSH1 0x20 ADD PUSH6 0x139BDC9B585B PUSH1 0xD2 SHL DUP2 MSTORE POP JUMPDEST PUSH1 0x40 DUP1 MLOAD PUSH1 0xE0 DUP2 ADD DUP3 MSTORE DUP7 DUP2 MSTORE PUSH1 0x0 PUSH1 0x20 DUP1 DUP4 ADD DUP3 DUP2 MSTORE CALLER DUP5 DUP7 ADD SWAP1 DUP2 MSTORE PUSH1 0x60 DUP6 ADD DUP8 DUP2 MSTORE PUSH1 0x80 DUP7 ADD DUP16 SWAP1 MSTORE TIMESTAMP PUSH1 0xA0 DUP8 ADD MSTORE PUSH1 0x1 PUSH1 0xC0 DUP8 ADD DUP2 SWAP1 MSTORE DUP13 DUP7 MSTORE PUSH1 0x9 SWAP1 SWAP5 MSTORE SWAP6 SWAP1 SWAP4 KECCAK256 DUP5 MLOAD DUP2 SSTORE SWAP1 MLOAD DUP2 DUP4 ADD SSTORE SWAP2 MLOAD PUSH1 0x2 DUP4 ADD DUP1 SLOAD PUSH1 0x1 PUSH1 0x1 PUSH1 0xA0 SHL SUB NOT AND PUSH1 0x1 PUSH1 0x1 PUSH1 0xA0 SHL SUB SWAP1 SWAP3 AND SWAP2 SWAP1 SWAP2 OR SWAP1 SSTORE SWAP3 MLOAD SWAP4 SWAP5 POP SWAP2 SWAP3 SWAP1 SWAP2 DUP3 SWAP2 PUSH1 0x3 DUP3 ADD SWAP1 PUSH2 0x1B5D SWAP1 DUP3 PUSH2 0x4C8C JUMP JUMPDEST POP PUSH1 0x80 DUP3 ADD MLOAD PUSH1 0x4 DUP3 ADD SWAP1 PUSH2 0x1B72 SWAP1 DUP3 PUSH2 0x4C8C JUMP JUMPDEST POP PUSH1 0xA0 DUP3 ADD MLOAD PUSH1 0x5 DUP3 ADD SSTORE PUSH1 0xC0 SWAP1 SWAP2 ADD MLOAD PUSH1 0x6 SWAP1 SWAP2 ADD DUP1 SLOAD PUSH1 0xFF NOT AND SWAP2 ISZERO ISZERO SWAP2 SWAP1 SWAP2 OR SWAP1 SSTORE PUSH1 0x1 PUSH1 0x1 PUSH1 0xA0 SHL SUB DUP11 AND PUSH1 0x0 SWAP1 DUP2 MSTORE PUSH1 0xA PUSH1 0x20 SWAP1 DUP2 MSTORE PUSH1 0x40 DUP1 DUP4 KECCAK256 DUP1 SLOAD PUSH1 0x1 DUP2 ADD DUP3 SSTORE SWAP1 DUP5 MSTORE SWAP2 DUP4 KECCAK256 SWAP1 SWAP2 ADD DUP9 SWAP1 SSTORE MLOAD DUP8 SWAP1 PUSH1 0x0 DUP1 MLOAD PUSH1 0x20 PUSH2 0x5235 DUP4 CODECOPY DUP2 MLOAD SWAP2 MSTORE SWAP1 PUSH2 0x1BE6 SWAP1 DUP7 SWAP1 DUP9 SWAP1 PUSH2 0x4D45 JUMP JUMPDEST PUSH1 0x40 MLOAD DUP1 SWAP2 SUB SWAP1 LOG3 PUSH1 0x10 DUP1 SLOAD SWAP1 PUSH1 0x0 PUSH2 0x1BFE DUP4 PUSH2 0x4BDB JUMP JUMPDEST SWAP1 SWAP2 SSTORE POP SWAP6 SWAP11 SWAP10 POP POP POP POP POP POP POP POP POP POP JUMP JUMPDEST PUSH1 0x0 DUP1 MLOAD PUSH1 0x20 PUSH2 0x5255 DUP4 CODECOPY DUP2 MLOAD SWAP2 MSTORE PUSH2 0x1C29 DUP2 PUSH2 0x3394 JUMP JUMPDEST PUSH2 0x1C41 PUSH1 0x0 DUP1 MLOAD PUSH1 0x20 PUSH2 0x52D5 DUP4 CODECOPY DUP2 MLOAD SWAP2 MSTORE DUP5 PUSH2 0x23FF JUMP JUMPDEST ISZERO PUSH2 0x1C9E JUMPI PUSH1 0x40 MLOAD PUSH3 0x461BCD PUSH1 0xE5 SHL DUP2 MSTORE PUSH1 0x20 PUSH1 0x4 DUP3 ADD MSTORE PUSH1 0x27 PUSH1 0x24 DUP3 ADD MSTORE PUSH32 0x4163636F756E7420616C726561647920686173207365636F6E64617279206261 PUSH1 0x44 DUP3 ADD MSTORE PUSH7 0x6E6B20726F6C65 PUSH1 0xC8 SHL PUSH1 0x64 DUP3 ADD MSTORE PUSH1 0x84 ADD PUSH2 0xFA7 JUMP JUMPDEST PUSH2 0x1CB6 PUSH1 0x0 DUP1 MLOAD PUSH1 0x20 PUSH2 0x5255 DUP4 CODECOPY DUP2 MLOAD SWAP2 MSTORE DUP5 PUSH2 0x23FF JUMP JUMPDEST ISZERO PUSH2 0x1CD3 JUMPI PUSH1 0x40 MLOAD PUSH3 0x461BCD PUSH1 0xE5 SHL DUP2 MSTORE PUSH1 0x4 ADD PUSH2 0xFA7 SWAP1 PUSH2 0x4D60 JUMP JUMPDEST PUSH2 0x1CEB PUSH1 0x0 DUP1 MLOAD PUSH1 0x20 PUSH2 0x52D5 DUP4 CODECOPY DUP2 MLOAD SWAP2 MSTORE DUP5 PUSH2 0x3414 JUMP JUMPDEST POP PUSH1 0x40 DUP1 MLOAD PUSH1 0xA0 DUP2 ADD DUP3 MSTORE PUSH1 0x1 PUSH1 0x1 PUSH1 0xA0 SHL SUB DUP6 DUP2 AND DUP1 DUP4 MSTORE PUSH1 0x20 DUP1 DUP5 ADD DUP8 DUP2 MSTORE PUSH1 0x2 DUP6 DUP8 ADD MSTORE PUSH1 0x1 PUSH1 0x60 DUP7 ADD DUP2 SWAP1 MSTORE TIMESTAMP PUSH1 0x80 DUP8 ADD MSTORE PUSH1 0x0 SWAP4 DUP5 MSTORE SWAP2 DUP3 SWAP1 MSTORE SWAP5 SWAP1 SWAP2 KECCAK256 DUP4 MLOAD DUP2 SLOAD PUSH1 0x1 PUSH1 0x1 PUSH1 0xA0 SHL SUB NOT AND SWAP4 AND SWAP3 SWAP1 SWAP3 OR DUP3 SSTORE SWAP3 MLOAD SWAP2 SWAP3 SWAP1 SWAP2 SWAP1 DUP3 ADD SWAP1 PUSH2 0x1D58 SWAP1 DUP3 PUSH2 0x4C8C JUMP JUMPDEST POP PUSH1 0x40 DUP3 DUP2 ADD MLOAD PUSH1 0x2 DUP4 ADD SSTORE PUSH1 0x60 DUP4 ADD MLOAD PUSH1 0x3 DUP4 ADD DUP1 SLOAD PUSH1 0xFF NOT AND SWAP2 ISZERO ISZERO SWAP2 SWAP1 SWAP2 OR SWAP1 SSTORE PUSH1 0x80 SWAP1 SWAP3 ADD MLOAD PUSH1 0x4 SWAP1 SWAP2 ADD SSTORE MLOAD PUSH1 0x0 DUP1 MLOAD PUSH1 0x20 PUSH2 0x52D5 DUP4 CODECOPY DUP2 MLOAD SWAP2 MSTORE SWAP1 PUSH1 0x1 PUSH1 0x1 PUSH1 0xA0 SHL SUB DUP6 AND SWAP1 PUSH1 0x0 DUP1 MLOAD PUSH1 0x20 PUSH2 0x5215 DUP4 CODECOPY DUP2 MLOAD SWAP2 MSTORE SWAP1 PUSH2 0x1DBF SWAP1 DUP7 SWAP1 PUSH2 0x4DA1 JUMP JUMPDEST PUSH1 0x40 MLOAD DUP1 SWAP2 SUB SWAP1 LOG3 POP POP POP JUMP JUMPDEST PUSH1 0x0 DUP1 MLOAD PUSH1 0x20 PUSH2 0x5255 DUP4 CODECOPY DUP2 MLOAD SWAP2 MSTORE PUSH2 0x1DE4 DUP2 PUSH2 0x3394 JUMP JUMPDEST POP PUSH1 0xD SSTORE JUMP JUMPDEST PUSH1 0x0 DUP1 MLOAD PUSH1 0x20 PUSH2 0x52D5 DUP4 CODECOPY DUP2 MLOAD SWAP2 MSTORE PUSH2 0x1E02 DUP2 PUSH2 0x3394 JUMP JUMPDEST PUSH2 0x1E1A PUSH1 0x0 DUP1 MLOAD PUSH1 0x20 PUSH2 0x52B5 DUP4 CODECOPY DUP2 MLOAD SWAP2 MSTORE DUP5 PUSH2 0x23FF JUMP JUMPDEST ISZERO DUP1 ISZERO PUSH2 0x1E3C JUMPI POP PUSH2 0x1E3A PUSH1 0x0 DUP1 MLOAD PUSH1 0x20 PUSH2 0x51F5 DUP4 CODECOPY DUP2 MLOAD SWAP2 MSTORE DUP5 PUSH2 0x23FF JUMP JUMPDEST ISZERO JUMPDEST PUSH2 0x1E58 JUMPI PUSH1 0x40 MLOAD PUSH3 0x461BCD PUSH1 0xE5 SHL DUP2 MSTORE PUSH1 0x4 ADD PUSH2 0xFA7 SWAP1 PUSH2 0x4DB4 JUMP JUMPDEST PUSH2 0x1E70 PUSH1 0x0 DUP1 MLOAD PUSH1 0x20 PUSH2 0x52D5 DUP4 CODECOPY DUP2 MLOAD SWAP2 MSTORE DUP5 PUSH2 0x23FF JUMP JUMPDEST ISZERO PUSH2 0x1E8D JUMPI PUSH1 0x40 MLOAD PUSH3 0x461BCD PUSH1 0xE5 SHL DUP2 MSTORE PUSH1 0x4 ADD PUSH2 0xFA7 SWAP1 PUSH2 0x4DFC JUMP JUMPDEST PUSH2 0x1EA5 PUSH1 0x0 DUP1 MLOAD PUSH1 0x20 PUSH2 0x5255 DUP4 CODECOPY DUP2 MLOAD SWAP2 MSTORE DUP5 PUSH2 0x23FF JUMP JUMPDEST ISZERO PUSH2 0x1EC2 JUMPI PUSH1 0x40 MLOAD PUSH3 0x461BCD PUSH1 0xE5 SHL DUP2 MSTORE PUSH1 0x4 ADD PUSH2 0xFA7 SWAP1 PUSH2 0x4D60 JUMP JUMPDEST PUSH2 0x1EDA PUSH1 0x0 DUP1 MLOAD PUSH1 0x20 PUSH2 0x52B5 DUP4 CODECOPY DUP2 MLOAD SWAP2 MSTORE DUP5 PUSH2 0x3414 JUMP JUMPDEST POP PUSH1 0x40 DUP1 MLOAD PUSH1 0xA0 DUP2 ADD DUP3 MSTORE PUSH1 0x1 PUSH1 0x1 PUSH1 0xA0 SHL SUB DUP6 DUP2 AND DUP1 DUP4 MSTORE PUSH1 0x20 DUP1 DUP5 ADD DUP8 DUP2 MSTORE PUSH1 0x3 DUP6 DUP8 ADD MSTORE PUSH1 0x1 PUSH1 0x60 DUP7 ADD DUP2 SWAP1 MSTORE TIMESTAMP PUSH1 0x80 DUP8 ADD MSTORE PUSH1 0x0 SWAP4 DUP5 MSTORE SWAP2 DUP3 SWAP1 MSTORE SWAP5 SWAP1 SWAP2 KECCAK256 DUP4 MLOAD DUP2 SLOAD PUSH1 0x1 PUSH1 0x1 PUSH1 0xA0 SHL SUB NOT AND SWAP4 AND SWAP3 SWAP1 SWAP3 OR DUP3 SSTORE SWAP3 MLOAD SWAP2 SWAP3 SWAP1 SWAP2 SWAP1 DUP3 ADD SWAP1 PUSH2 0x1F47 SWAP1 DUP3 PUSH2 0x4C8C JUMP JUMPDEST POP PUSH1 0x40 DUP3 DUP2 ADD MLOAD PUSH1 0x2 DUP4 ADD SSTORE PUSH1 0x60 DUP4 ADD MLOAD PUSH1 0x3 DUP4 ADD DUP1 SLOAD PUSH1 0xFF NOT AND SWAP2 ISZERO ISZERO SWAP2 SWAP1 SWAP2 OR SWAP1 SSTORE PUSH1 0x80 SWAP1 SWAP3 ADD MLOAD PUSH1 0x4 SWAP1 SWAP2 ADD SSTORE MLOAD PUSH1 0x0 DUP1 MLOAD PUSH1 0x20 PUSH2 0x52B5 DUP4 CODECOPY DUP2 MLOAD SWAP2 MSTORE SWAP1 PUSH1 0x1 PUSH1 0x1 PUSH1 0xA0 SHL SUB DUP6 AND SWAP1 PUSH1 0x0 DUP1 MLOAD PUSH1 0x20 PUSH2 0x5215 DUP4 CODECOPY DUP2 MLOAD SWAP2 MSTORE SWAP1 PUSH2 0x1DBF SWAP1 DUP7 SWAP1 PUSH2 0x4DA1 JUMP JUMPDEST PUSH1 0x0 DUP1 MLOAD PUSH1 0x20 PUSH2 0x52D5 DUP4 CODECOPY DUP2 MLOAD SWAP2 MSTORE PUSH2 0x1FC6 DUP2 PUSH2 0x3394 JUMP JUMPDEST PUSH2 0x1FDE PUSH1 0x0 DUP1 MLOAD PUSH1 0x20 PUSH2 0x52B5 DUP4 CODECOPY DUP2 MLOAD SWAP2 MSTORE DUP5 PUSH2 0x23FF JUMP JUMPDEST ISZERO DUP1 ISZERO PUSH2 0x2000 JUMPI POP PUSH2 0x1FFE PUSH1 0x0 DUP1 MLOAD PUSH1 0x20 PUSH2 0x51F5 DUP4 CODECOPY DUP2 MLOAD SWAP2 MSTORE DUP5 PUSH2 0x23FF JUMP JUMPDEST ISZERO JUMPDEST PUSH2 0x201C JUMPI PUSH1 0x40 MLOAD PUSH3 0x461BCD PUSH1 0xE5 SHL DUP2 MSTORE PUSH1 0x4 ADD PUSH2 0xFA7 SWAP1 PUSH2 0x4DB4 JUMP JUMPDEST PUSH2 0x2034 PUSH1 0x0 DUP1 MLOAD PUSH1 0x20 PUSH2 0x52D5 DUP4 CODECOPY DUP2 MLOAD SWAP2 MSTORE DUP5 PUSH2 0x23FF JUMP JUMPDEST ISZERO PUSH2 0x2051 JUMPI PUSH1 0x40 MLOAD PUSH3 0x461BCD PUSH1 0xE5 SHL DUP2 MSTORE PUSH1 0x4 ADD PUSH2 0xFA7 SWAP1 PUSH2 0x4DFC JUMP JUMPDEST PUSH2 0x2069 PUSH1 0x0 DUP1 MLOAD PUSH1 0x20 PUSH2 0x5255 DUP4 CODECOPY DUP2 MLOAD SWAP2 MSTORE DUP5 PUSH2 0x23FF JUMP JUMPDEST ISZERO PUSH2 0x2086 JUMPI PUSH1 0x40 MLOAD PUSH3 0x461BCD PUSH1 0xE5 SHL DUP2 MSTORE PUSH1 0x4 ADD PUSH2 0xFA7 SWAP1 PUSH2 0x4D60 JUMP JUMPDEST PUSH2 0x209E PUSH1 0x0 DUP1 MLOAD PUSH1 0x20 PUSH2 0x51F5 DUP4 CODECOPY DUP2 MLOAD SWAP2 MSTORE DUP5 PUSH2 0x3414 JUMP JUMPDEST POP PUSH1 0x40 DUP1 MLOAD PUSH1 0xA0 DUP2 ADD DUP3 MSTORE PUSH1 0x1 PUSH1 0x1 PUSH1 0xA0 SHL SUB DUP6 DUP2 AND DUP1 DUP4 MSTORE PUSH1 0x20 DUP1 DUP5 ADD DUP8 DUP2 MSTORE PUSH1 0x3 DUP6 DUP8 ADD MSTORE PUSH1 0x1 PUSH1 0x60 DUP7 ADD DUP2 SWAP1 MSTORE TIMESTAMP PUSH1 0x80 DUP8 ADD MSTORE PUSH1 0x0 SWAP4 DUP5 MSTORE SWAP2 DUP3 SWAP1 MSTORE SWAP5 SWAP1 SWAP2 KECCAK256 DUP4 MLOAD DUP2 SLOAD PUSH1 0x1 PUSH1 0x1 PUSH1 0xA0 SHL SUB NOT AND SWAP4 AND SWAP3 SWAP1 SWAP3 OR DUP3 SSTORE SWAP3 MLOAD SWAP2 SWAP3 SWAP1 SWAP2 SWAP1 DUP3 ADD SWAP1 PUSH2 0x210B SWAP1 DUP3 PUSH2 0x4C8C JUMP JUMPDEST POP PUSH1 0x40 DUP3 DUP2 ADD MLOAD PUSH1 0x2 DUP4 ADD SSTORE PUSH1 0x60 DUP4 ADD MLOAD PUSH1 0x3 DUP4 ADD DUP1 SLOAD PUSH1 0xFF NOT AND SWAP2 ISZERO ISZERO SWAP2 SWAP1 SWAP2 OR SWAP1 SSTORE PUSH1 0x80 SWAP1 SWAP3 ADD MLOAD PUSH1 0x4 SWAP1 SWAP2 ADD SSTORE MLOAD PUSH1 0x0 DUP1 MLOAD PUSH1 0x20 PUSH2 0x51F5 DUP4 CODECOPY DUP2 MLOAD SWAP2 MSTORE SWAP1 PUSH1 0x1 PUSH1 0x1 PUSH1 0xA0 SHL SUB DUP6 AND SWAP1 PUSH1 0x0 DUP1 MLOAD PUSH1 0x20 PUSH2 0x5215 DUP4 CODECOPY DUP2 MLOAD SWAP2 MSTORE SWAP1 PUSH2 0x1DBF SWAP1 DUP7 SWAP1 PUSH2 0x4DA1 JUMP JUMPDEST PUSH1 0x1 PUSH1 0x1 PUSH1 0xA0 SHL SUB DUP2 AND PUSH1 0x0 SWAP1 DUP2 MSTORE PUSH1 0xA PUSH1 0x20 SWAP1 DUP2 MSTORE PUSH1 0x40 SWAP2 DUP3 SWAP1 KECCAK256 DUP1 SLOAD DUP4 MLOAD DUP2 DUP5 MUL DUP2 ADD DUP5 ADD SWAP1 SWAP5 MSTORE DUP1 DUP5 MSTORE PUSH1 0x60 SWAP4 SWAP3 DUP4 ADD DUP3 DUP3 DUP1 ISZERO PUSH2 0x21D2 JUMPI PUSH1 0x20 MUL DUP3 ADD SWAP2 SWAP1 PUSH1 0x0 MSTORE PUSH1 0x20 PUSH1 0x0 KECCAK256 SWAP1 JUMPDEST DUP2 SLOAD DUP2 MSTORE PUSH1 0x20 ADD SWAP1 PUSH1 0x1 ADD SWAP1 DUP1 DUP4 GT PUSH2 0x21BE JUMPI JUMPDEST POP POP POP POP POP SWAP1 POP SWAP2 SWAP1 POP JUMP JUMPDEST PUSH1 0x1 PUSH1 0x1 PUSH1 0xA0 SHL SUB DUP1 DUP4 AND PUSH1 0x0 SWAP1 DUP2 MSTORE PUSH1 0x1 PUSH1 0x20 DUP2 DUP2 MSTORE PUSH1 0x40 DUP1 DUP5 KECCAK256 DUP2 MLOAD PUSH1 0xA0 DUP2 ADD SWAP1 SWAP3 MSTORE DUP1 SLOAD SWAP1 SWAP6 AND DUP2 MSTORE SWAP2 DUP5 ADD DUP1 SLOAD SWAP4 SWAP5 DUP6 SWAP5 SWAP1 SWAP3 DUP5 ADD SWAP2 SWAP1 PUSH2 0x2222 SWAP1 PUSH2 0x4B75 JUMP JUMPDEST DUP1 PUSH1 0x1F ADD PUSH1 0x20 DUP1 SWAP2 DIV MUL PUSH1 0x20 ADD PUSH1 0x40 MLOAD SWAP1 DUP2 ADD PUSH1 0x40 MSTORE DUP1 SWAP3 SWAP2 SWAP1 DUP2 DUP2 MSTORE PUSH1 0x20 ADD DUP3 DUP1 SLOAD PUSH2 0x224E SWAP1 PUSH2 0x4B75 JUMP JUMPDEST DUP1 ISZERO PUSH2 0x229B JUMPI DUP1 PUSH1 0x1F LT PUSH2 0x2270 JUMPI PUSH2 0x100 DUP1 DUP4 SLOAD DIV MUL DUP4 MSTORE SWAP2 PUSH1 0x20 ADD SWAP2 PUSH2 0x229B JUMP JUMPDEST DUP3 ADD SWAP2 SWAP1 PUSH1 0x0 MSTORE PUSH1 0x20 PUSH1 0x0 KECCAK256 SWAP1 JUMPDEST DUP2 SLOAD DUP2 MSTORE SWAP1 PUSH1 0x1 ADD SWAP1 PUSH1 0x20 ADD DUP1 DUP4 GT PUSH2 0x227E JUMPI DUP3 SWAP1 SUB PUSH1 0x1F AND DUP3 ADD SWAP2 JUMPDEST POP POP POP SWAP2 DUP4 MSTORE POP POP PUSH1 0x2 DUP3 ADD SLOAD PUSH1 0x20 DUP3 ADD MSTORE PUSH1 0x3 DUP3 ADD SLOAD PUSH1 0xFF AND ISZERO ISZERO PUSH1 0x40 DUP3 ADD MSTORE PUSH1 0x4 SWAP1 SWAP2 ADD SLOAD PUSH1 0x60 SWAP2 DUP3 ADD MSTORE DUP2 ADD MLOAD SWAP1 SWAP2 POP DUP1 ISZERO PUSH2 0x22DE JUMPI POP DUP3 DUP2 PUSH1 0x40 ADD MLOAD GT ISZERO JUMPDEST SWAP5 SWAP4 POP POP POP POP JUMP JUMPDEST PUSH1 0x4 PUSH1 0x20 MSTORE DUP2 PUSH1 0x0 MSTORE PUSH1 0x40 PUSH1 0x0 KECCAK256 DUP2 DUP2 SLOAD DUP2 LT PUSH2 0x15C3 JUMPI PUSH1 0x0 DUP1 REVERT JUMPDEST PUSH2 0x230B CALLER PUSH2 0x109D JUMP JUMPDEST PUSH2 0x2327 JUMPI PUSH1 0x40 MLOAD PUSH3 0x461BCD PUSH1 0xE5 SHL DUP2 MSTORE PUSH1 0x4 ADD PUSH2 0xFA7 SWAP1 PUSH2 0x4E3F JUMP JUMPDEST PUSH1 0x0 CALLER DUP3 TIMESTAMP PUSH1 0x6 SLOAD PUSH1 0x40 MLOAD PUSH1 0x20 ADD PUSH2 0x2342 SWAP5 SWAP4 SWAP3 SWAP2 SWAP1 PUSH2 0x4C07 JUMP JUMPDEST PUSH1 0x40 DUP1 MLOAD PUSH1 0x1F NOT DUP2 DUP5 SUB ADD DUP2 MSTORE DUP3 DUP3 MSTORE DUP1 MLOAD PUSH1 0x20 SWAP2 DUP3 ADD KECCAK256 PUSH1 0x80 DUP5 ADD DUP4 MSTORE DUP6 DUP5 MSTORE CALLER DUP3 DUP6 ADD DUP2 DUP2 MSTORE PUSH1 0x0 DUP7 DUP7 ADD DUP2 DUP2 MSTORE PUSH1 0x60 DUP9 ADD DUP3 DUP2 MSTORE DUP6 DUP4 MSTORE PUSH1 0x3 DUP8 MSTORE DUP8 DUP4 KECCAK256 DUP10 MLOAD DUP2 SSTORE SWAP4 MLOAD PUSH1 0x1 DUP1 DUP7 ADD DUP1 SLOAD SWAP5 MLOAD ISZERO ISZERO PUSH1 0x1 PUSH1 0xA0 SHL MUL PUSH1 0x1 PUSH1 0x1 PUSH1 0xA8 SHL SUB NOT SWAP1 SWAP6 AND PUSH1 0x1 PUSH1 0x1 PUSH1 0xA0 SHL SUB SWAP1 SWAP4 AND SWAP3 SWAP1 SWAP3 OR SWAP4 SWAP1 SWAP4 OR SWAP1 SSTORE MLOAD PUSH1 0x2 SWAP1 SWAP4 ADD SWAP3 SWAP1 SWAP3 SSTORE DUP3 DUP2 MSTORE PUSH1 0x4 DUP6 MSTORE DUP6 DUP2 KECCAK256 DUP1 SLOAD SWAP3 DUP4 ADD DUP2 SSTORE DUP2 MSTORE DUP5 SWAP1 KECCAK256 ADD DUP3 SWAP1 SSTORE SWAP3 MLOAD DUP7 DUP2 MSTORE SWAP1 SWAP5 POP DUP5 SWAP2 PUSH1 0x0 DUP1 MLOAD PUSH1 0x20 PUSH2 0x5295 DUP4 CODECOPY DUP2 MLOAD SWAP2 MSTORE SWAP2 ADD PUSH2 0x1DBF JUMP JUMPDEST PUSH1 0x0 SWAP2 DUP3 MSTORE PUSH1 0x20 DUP3 DUP2 MSTORE PUSH1 0x40 DUP1 DUP5 KECCAK256 PUSH1 0x1 PUSH1 0x1 PUSH1 0xA0 SHL SUB SWAP4 SWAP1 SWAP4 AND DUP5 MSTORE SWAP2 SWAP1 MSTORE SWAP1 KECCAK256 SLOAD PUSH1 0xFF AND SWAP1 JUMP JUMPDEST PUSH2 0x2440 PUSH1 0x0 DUP1 MLOAD PUSH1 0x20 PUSH2 0x5255 DUP4 CODECOPY DUP2 MLOAD SWAP2 MSTORE CALLER PUSH2 0x23FF JUMP JUMPDEST DUP1 PUSH2 0x245E JUMPI POP PUSH2 0x245E PUSH1 0x0 DUP1 MLOAD PUSH1 0x20 PUSH2 0x52D5 DUP4 CODECOPY DUP2 MLOAD SWAP2 MSTORE CALLER PUSH2 0x23FF JUMP JUMPDEST PUSH2 0x24A8 JUMPI PUSH1 0x40 MLOAD PUSH3 0x461BCD PUSH1 0xE5 SHL DUP2 MSTORE PUSH1 0x20 PUSH1 0x4 DUP3 ADD MSTORE PUSH1 0x1B PUSH1 0x24 DUP3 ADD MSTORE PUSH27 0x4F6E6C792062616E6B732063616E2075706461746520726F6C6573 PUSH1 0x28 SHL PUSH1 0x44 DUP3 ADD MSTORE PUSH1 0x64 ADD PUSH2 0xFA7 JUMP JUMPDEST PUSH1 0x1 PUSH1 0x1 PUSH1 0xA0 SHL SUB DUP4 DUP2 AND PUSH1 0x0 SWAP1 DUP2 MSTORE PUSH1 0x1 PUSH1 0x20 MSTORE PUSH1 0x40 SWAP1 KECCAK256 SLOAD AND PUSH2 0x250E JUMPI PUSH1 0x40 MLOAD PUSH3 0x461BCD PUSH1 0xE5 SHL DUP2 MSTORE PUSH1 0x20 PUSH1 0x4 DUP3 ADD MSTORE PUSH1 0x1C PUSH1 0x24 DUP3 ADD MSTORE PUSH28 0x4163636F756E7420646F6573206E6F742068617665206120726F6C65 PUSH1 0x20 SHL PUSH1 0x44 DUP3 ADD MSTORE PUSH1 0x64 ADD PUSH2 0xFA7 JUMP JUMPDEST PUSH1 0x1 PUSH1 0x1 PUSH1 0xA0 SHL SUB DUP4 AND PUSH1 0x0 SWAP1 DUP2 MSTORE PUSH1 0x1 PUSH1 0x20 DUP2 SWAP1 MSTORE PUSH1 0x40 SWAP1 SWAP2 KECCAK256 SWAP1 DUP2 ADD PUSH2 0x2536 DUP5 DUP3 PUSH2 0x4C8C JUMP JUMPDEST POP PUSH1 0x3 DUP2 ADD DUP1 SLOAD PUSH1 0xFF NOT AND DUP4 ISZERO ISZERO OR SWAP1 SSTORE PUSH1 0x40 MLOAD PUSH1 0x1 PUSH1 0x1 PUSH1 0xA0 SHL SUB DUP6 AND SWAP1 PUSH32 0xC4D12F4FED3C7D8E40B10B954DC4B19C26000388E17FD31B4AF750DD33B41664 SWAP1 PUSH2 0x2584 SWAP1 DUP7 SWAP1 DUP7 SWAP1 PUSH2 0x4E76 JUMP JUMPDEST PUSH1 0x40 MLOAD DUP1 SWAP2 SUB SWAP1 LOG2 POP POP POP POP JUMP JUMPDEST PUSH1 0x1 PUSH1 0x1 PUSH1 0xA0 SHL SUB DUP2 AND PUSH1 0x0 SWAP1 DUP2 MSTORE PUSH1 0x4 PUSH1 0x20 SWAP1 DUP2 MSTORE PUSH1 0x40 SWAP2 DUP3 SWAP1 KECCAK256 DUP1 SLOAD DUP4 MLOAD DUP2 DUP5 MUL DUP2 ADD DUP5 ADD SWAP1 SWAP5 MSTORE DUP1 DUP5 MSTORE PUSH1 0x60 SWAP4 SWAP3 DUP4 ADD DUP3 DUP3 DUP1 ISZERO PUSH2 0x21D2 JUMPI PUSH1 0x20 MUL DUP3 ADD SWAP2 SWAP1 PUSH1 0x0 MSTORE PUSH1 0x20 PUSH1 0x0 KECCAK256 SWAP1 DUP2 SLOAD DUP2 MSTORE PUSH1 0x20 ADD SWAP1 PUSH1 0x1 ADD SWAP1 DUP1 DUP4 GT PUSH2 0x21BE JUMPI POP POP POP POP POP SWAP1 POP SWAP2 SWAP1 POP JUMP JUMPDEST PUSH1 0x0 DUP1 MLOAD PUSH1 0x20 PUSH2 0x5255 DUP4 CODECOPY DUP2 MLOAD SWAP2 MSTORE PUSH2 0x2614 DUP2 PUSH2 0x3394 JUMP JUMPDEST PUSH2 0x262C PUSH1 0x0 DUP1 MLOAD PUSH1 0x20 PUSH2 0x5275 DUP4 CODECOPY DUP2 MLOAD SWAP2 MSTORE DUP5 PUSH2 0x23FF JUMP JUMPDEST ISZERO PUSH2 0x2684 JUMPI PUSH1 0x40 MLOAD PUSH3 0x461BCD PUSH1 0xE5 SHL DUP2 MSTORE PUSH1 0x20 PUSH1 0x4 DUP3 ADD MSTORE PUSH1 0x22 PUSH1 0x24 DUP3 ADD MSTORE PUSH32 0x4163636F756E7420616C72656164792068617320726567756C61746F7220726F PUSH1 0x44 DUP3 ADD MSTORE PUSH2 0x6C65 PUSH1 0xF0 SHL PUSH1 0x64 DUP3 ADD MSTORE PUSH1 0x84 ADD PUSH2 0xFA7 JUMP JUMPDEST PUSH2 0x269C PUSH1 0x0 DUP1 MLOAD PUSH1 0x20 PUSH2 0x5275 DUP4 CODECOPY DUP2 MLOAD SWAP2 MSTORE DUP5 PUSH2 0x3414 JUMP JUMPDEST POP PUSH1 0x40 DUP1 MLOAD PUSH1 0xA0 DUP2 ADD DUP3 MSTORE PUSH1 0x1 PUSH1 0x1 PUSH1 0xA0 SHL SUB DUP6 DUP2 AND DUP1 DUP4 MSTORE PUSH1 0x20 DUP1 DUP5 ADD DUP8 DUP2 MSTORE PUSH1 0x0 DUP6 DUP8 ADD DUP2 SWAP1 MSTORE PUSH1 0x1 PUSH1 0x60 DUP8 ADD DUP2 SWAP1 MSTORE TIMESTAMP PUSH1 0x80 DUP9 ADD MSTORE SWAP4 DUP2 MSTORE SWAP2 DUP4 SWAP1 MSTORE SWAP5 SWAP1 KECCAK256 DUP4 MLOAD DUP2 SLOAD PUSH1 0x1 PUSH1 0x1 PUSH1 0xA0 SHL SUB NOT AND SWAP4 AND SWAP3 SWAP1 SWAP3 OR DUP3 SSTORE SWAP3 MLOAD SWAP2 SWAP3 SWAP1 SWAP2 SWAP1 DUP3 ADD SWAP1 PUSH2 0x2708 SWAP1 DUP3 PUSH2 0x4C8C JUMP JUMPDEST POP PUSH1 0x40 DUP3 DUP2 ADD MLOAD PUSH1 0x2 DUP4 ADD SSTORE PUSH1 0x60 DUP4 ADD MLOAD PUSH1 0x3 DUP4 ADD DUP1 SLOAD PUSH1 0xFF NOT AND SWAP2 ISZERO ISZERO SWAP2 SWAP1 SWAP2 OR SWAP1 SSTORE PUSH1 0x80 SWAP1 SWAP3 ADD MLOAD PUSH1 0x4 SWAP1 SWAP2 ADD SSTORE MLOAD PUSH1 0x0 DUP1 MLOAD PUSH1 0x20 PUSH2 0x5275 DUP4 CODECOPY DUP2 MLOAD SWAP2 MSTORE SWAP1 PUSH1 0x1 PUSH1 0x1 PUSH1 0xA0 SHL SUB DUP6 AND SWAP1 PUSH1 0x0 DUP1 MLOAD PUSH1 0x20 PUSH2 0x5215 DUP4 CODECOPY DUP2 MLOAD SWAP2 MSTORE SWAP1 PUSH2 0x1DBF SWAP1 DUP7 SWAP1 PUSH2 0x4DA1 JUMP JUMPDEST PUSH2 0x2778 CALLER PUSH2 0x109D JUMP JUMPDEST PUSH2 0x2794 JUMPI PUSH1 0x40 MLOAD PUSH3 0x461BCD PUSH1 0xE5 SHL DUP2 MSTORE PUSH1 0x4 ADD PUSH2 0xFA7 SWAP1 PUSH2 0x4E3F JUMP JUMPDEST PUSH1 0x0 DUP1 JUMPDEST DUP4 DUP2 LT ISZERO PUSH2 0x2872 JUMPI PUSH1 0x0 PUSH1 0x3 PUSH1 0x0 DUP8 DUP8 DUP6 DUP2 DUP2 LT PUSH2 0x27B8 JUMPI PUSH2 0x27B8 PUSH2 0x4BAF JUMP JUMPDEST PUSH1 0x20 SWAP1 DUP2 MUL SWAP3 SWAP1 SWAP3 ADD CALLDATALOAD DUP4 MSTORE POP DUP2 ADD SWAP2 SWAP1 SWAP2 MSTORE PUSH1 0x40 ADD PUSH1 0x0 KECCAK256 PUSH1 0x1 DUP2 ADD SLOAD SWAP1 SWAP2 POP PUSH1 0x1 PUSH1 0x1 PUSH1 0xA0 SHL SUB AND CALLER EQ PUSH2 0x2800 JUMPI PUSH1 0x40 MLOAD PUSH3 0x461BCD PUSH1 0xE5 SHL DUP2 MSTORE PUSH1 0x4 ADD PUSH2 0xFA7 SWAP1 PUSH2 0x4E9A JUMP JUMPDEST PUSH1 0x1 DUP2 ADD SLOAD PUSH1 0x1 PUSH1 0xA0 SHL SWAP1 DIV PUSH1 0xFF AND ISZERO PUSH2 0x282C JUMPI PUSH1 0x40 MLOAD PUSH3 0x461BCD PUSH1 0xE5 SHL DUP2 MSTORE PUSH1 0x4 ADD PUSH2 0xFA7 SWAP1 PUSH2 0x4EC6 JUMP JUMPDEST DUP1 PUSH1 0x2 ADD SLOAD TIMESTAMP LT ISZERO PUSH2 0x2850 JUMPI PUSH1 0x40 MLOAD PUSH3 0x461BCD PUSH1 0xE5 SHL DUP2 MSTORE PUSH1 0x4 ADD PUSH2 0xFA7 SWAP1 PUSH2 0x4EF2 JUMP JUMPDEST DUP1 SLOAD PUSH2 0x285C SWAP1 DUP5 PUSH2 0x4BF4 JUMP JUMPDEST SWAP3 POP POP DUP1 DUP1 PUSH2 0x286A SWAP1 PUSH2 0x4BDB JUMP JUMPDEST SWAP2 POP POP PUSH2 0x2798 JUMP JUMPDEST POP DUP2 DUP2 LT ISZERO PUSH2 0x28BF JUMPI PUSH1 0x40 MLOAD PUSH3 0x461BCD PUSH1 0xE5 SHL DUP2 MSTORE PUSH1 0x20 PUSH1 0x4 DUP3 ADD MSTORE PUSH1 0x19 PUSH1 0x24 DUP3 ADD MSTORE PUSH25 0x496E73756666696369656E74205554584F2062616C616E6365 PUSH1 0x38 SHL PUSH1 0x44 DUP3 ADD MSTORE PUSH1 0x64 ADD PUSH2 0xFA7 JUMP JUMPDEST PUSH1 0x0 JUMPDEST DUP4 DUP2 LT ISZERO PUSH2 0x2967 JUMPI PUSH1 0x0 PUSH1 0x3 PUSH1 0x0 DUP8 DUP8 DUP6 DUP2 DUP2 LT PUSH2 0x28E2 JUMPI PUSH2 0x28E2 PUSH2 0x4BAF JUMP JUMPDEST PUSH1 0x20 SWAP1 DUP2 MUL SWAP3 SWAP1 SWAP3 ADD CALLDATALOAD DUP4 MSTORE POP DUP2 ADD SWAP2 SWAP1 SWAP2 MSTORE PUSH1 0x40 ADD PUSH1 0x0 KECCAK256 PUSH1 0x1 DUP2 ADD DUP1 SLOAD PUSH1 0xFF PUSH1 0xA0 SHL NOT AND PUSH1 0x1 PUSH1 0xA0 SHL OR SWAP1 SSTORE SWAP1 POP DUP6 DUP6 DUP4 DUP2 DUP2 LT PUSH2 0x2924 JUMPI PUSH2 0x2924 PUSH2 0x4BAF JUMP JUMPDEST SWAP1 POP PUSH1 0x20 MUL ADD CALLDATALOAD PUSH1 0x0 DUP1 MLOAD PUSH1 0x20 PUSH2 0x5315 DUP4 CODECOPY DUP2 MLOAD SWAP2 MSTORE PUSH1 0x6 SLOAD PUSH1 0x40 MLOAD PUSH2 0x294C SWAP2 DUP2 MSTORE PUSH1 0x20 ADD SWAP1 JUMP JUMPDEST PUSH1 0x40 MLOAD DUP1 SWAP2 SUB SWAP1 LOG2 POP DUP1 PUSH2 0x295F DUP2 PUSH2 0x4BDB JUMP JUMPDEST SWAP2 POP POP PUSH2 0x28C2 JUMP JUMPDEST POP PUSH1 0x0 JUMPDEST DUP4 DUP2 LT ISZERO PUSH2 0x29A9 JUMPI PUSH2 0x2997 CALLER DUP7 DUP7 DUP5 DUP2 DUP2 LT PUSH2 0x2989 JUMPI PUSH2 0x2989 PUSH2 0x4BAF JUMP JUMPDEST SWAP1 POP PUSH1 0x20 MUL ADD CALLDATALOAD PUSH1 0x0 PUSH2 0x349E JUMP JUMPDEST DUP1 PUSH2 0x29A1 DUP2 PUSH2 0x4BDB JUMP JUMPDEST SWAP2 POP POP PUSH2 0x296B JUMP JUMPDEST POP POP POP POP POP JUMP JUMPDEST PUSH2 0x29B9 DUP3 PUSH2 0x11A9 JUMP JUMPDEST PUSH2 0x29C2 DUP2 PUSH2 0x3394 JUMP JUMPDEST PUSH2 0x12A2 DUP4 DUP4 PUSH2 0x33A1 JUMP JUMPDEST PUSH2 0x29D4 PUSH2 0x4289 JUMP JUMPDEST POP PUSH1 0x0 SWAP1 DUP2 MSTORE PUSH1 0x3 PUSH1 0x20 SWAP1 DUP2 MSTORE PUSH1 0x40 SWAP2 DUP3 SWAP1 KECCAK256 DUP3 MLOAD PUSH1 0x80 DUP2 ADD DUP5 MSTORE DUP2 SLOAD DUP2 MSTORE PUSH1 0x1 DUP3 ADD SLOAD PUSH1 0x1 PUSH1 0x1 PUSH1 0xA0 SHL SUB DUP2 AND SWAP4 DUP3 ADD SWAP4 SWAP1 SWAP4 MSTORE PUSH1 0x1 PUSH1 0xA0 SHL SWAP1 SWAP3 DIV PUSH1 0xFF AND ISZERO ISZERO SWAP3 DUP3 ADD SWAP3 SWAP1 SWAP3 MSTORE PUSH1 0x2 SWAP1 SWAP2 ADD SLOAD PUSH1 0x60 DUP3 ADD MSTORE SWAP1 JUMP JUMPDEST PUSH1 0x0 DUP1 PUSH2 0x2A3A DUP7 DUP7 DUP7 DUP7 PUSH2 0x359E JUMP JUMPDEST SWAP1 POP PUSH1 0x0 PUSH1 0x2 PUSH1 0x0 DUP4 DUP2 MSTORE PUSH1 0x20 ADD SWAP1 DUP2 MSTORE PUSH1 0x20 ADD PUSH1 0x0 KECCAK256 PUSH1 0x40 MLOAD DUP1 PUSH1 0xA0 ADD PUSH1 0x40 MSTORE SWAP1 DUP2 PUSH1 0x0 DUP3 ADD SLOAD DUP2 MSTORE PUSH1 0x20 ADD PUSH1 0x1 DUP3 ADD DUP1 SLOAD DUP1 PUSH1 0x20 MUL PUSH1 0x20 ADD PUSH1 0x40 MLOAD SWAP1 DUP2 ADD PUSH1 0x40 MSTORE DUP1 SWAP3 SWAP2 SWAP1 DUP2 DUP2 MSTORE PUSH1 0x20 ADD PUSH1 0x0 SWAP1 JUMPDEST DUP3 DUP3 LT ISZERO PUSH2 0x2B63 JUMPI DUP4 DUP3 SWAP1 PUSH1 0x0 MSTORE PUSH1 0x20 PUSH1 0x0 KECCAK256 SWAP1 PUSH1 0x3 MUL ADD PUSH1 0x40 MLOAD DUP1 PUSH1 0x60 ADD PUSH1 0x40 MSTORE SWAP1 DUP2 PUSH1 0x0 DUP3 ADD SLOAD DUP2 MSTORE PUSH1 0x20 ADD PUSH1 0x1 DUP3 ADD SLOAD DUP2 MSTORE PUSH1 0x20 ADD PUSH1 0x2 DUP3 ADD DUP1 SLOAD PUSH2 0x2AD2 SWAP1 PUSH2 0x4B75 JUMP JUMPDEST DUP1 PUSH1 0x1F ADD PUSH1 0x20 DUP1 SWAP2 DIV MUL PUSH1 0x20 ADD PUSH1 0x40 MLOAD SWAP1 DUP2 ADD PUSH1 0x40 MSTORE DUP1 SWAP3 SWAP2 SWAP1 DUP2 DUP2 MSTORE PUSH1 0x20 ADD DUP3 DUP1 SLOAD PUSH2 0x2AFE SWAP1 PUSH2 0x4B75 JUMP JUMPDEST DUP1 ISZERO PUSH2 0x2B4B JUMPI DUP1 PUSH1 0x1F LT PUSH2 0x2B20 JUMPI PUSH2 0x100 DUP1 DUP4 SLOAD DIV MUL DUP4 MSTORE SWAP2 PUSH1 0x20 ADD SWAP2 PUSH2 0x2B4B JUMP JUMPDEST DUP3 ADD SWAP2 SWAP1 PUSH1 0x0 MSTORE PUSH1 0x20 PUSH1 0x0 KECCAK256 SWAP1 JUMPDEST DUP2 SLOAD DUP2 MSTORE SWAP1 PUSH1 0x1 ADD SWAP1 PUSH1 0x20 ADD DUP1 DUP4 GT PUSH2 0x2B2E JUMPI DUP3 SWAP1 SUB PUSH1 0x1F AND DUP3 ADD SWAP2 JUMPDEST POP POP POP POP POP DUP2 MSTORE POP POP DUP2 MSTORE PUSH1 0x20 ADD SWAP1 PUSH1 0x1 ADD SWAP1 PUSH2 0x2A8B JUMP JUMPDEST POP POP POP POP DUP2 MSTORE PUSH1 0x20 ADD PUSH1 0x2 DUP3 ADD DUP1 SLOAD DUP1 PUSH1 0x20 MUL PUSH1 0x20 ADD PUSH1 0x40 MLOAD SWAP1 DUP2 ADD PUSH1 0x40 MSTORE DUP1 SWAP3 SWAP2 SWAP1 DUP2 DUP2 MSTORE PUSH1 0x20 ADD PUSH1 0x0 SWAP1 JUMPDEST DUP3 DUP3 LT ISZERO PUSH2 0x2BF5 JUMPI PUSH1 0x0 DUP5 DUP2 MSTORE PUSH1 0x20 SWAP1 DUP2 SWAP1 KECCAK256 PUSH1 0x40 DUP1 MLOAD PUSH1 0x80 DUP2 ADD DUP3 MSTORE PUSH1 0x3 DUP7 MUL SWAP1 SWAP3 ADD DUP1 SLOAD DUP4 MSTORE PUSH1 0x1 DUP1 DUP3 ADD SLOAD PUSH1 0x1 PUSH1 0x1 PUSH1 0xA0 SHL SUB DUP2 AND DUP6 DUP8 ADD MSTORE PUSH1 0x1 PUSH1 0xA0 SHL SWAP1 DIV PUSH1 0xFF AND ISZERO ISZERO SWAP3 DUP5 ADD SWAP3 SWAP1 SWAP3 MSTORE PUSH1 0x2 ADD SLOAD PUSH1 0x60 DUP4 ADD MSTORE SWAP1 DUP4 MSTORE SWAP1 SWAP3 ADD SWAP2 ADD PUSH2 0x2B90 JUMP JUMPDEST POP POP POP SWAP1 DUP3 MSTORE POP PUSH1 0x3 DUP3 ADD SLOAD PUSH1 0x20 DUP3 ADD MSTORE PUSH1 0x4 SWAP1 SWAP2 ADD SLOAD PUSH1 0x1 PUSH1 0x1 PUSH1 0xA0 SHL SUB AND PUSH1 0x40 SWAP1 SWAP2 ADD MSTORE SWAP1 POP PUSH2 0x2C27 DUP3 DUP3 PUSH2 0x3E38 JUMP JUMPDEST POP SWAP6 SWAP5 POP POP POP POP POP JUMP JUMPDEST PUSH1 0x0 DUP1 MLOAD PUSH1 0x20 PUSH2 0x5275 DUP4 CODECOPY DUP2 MLOAD SWAP2 MSTORE PUSH2 0x2C49 DUP2 PUSH2 0x3394 JUMP JUMPDEST PUSH1 0x11 SLOAD DUP5 LT PUSH2 0x2CA8 JUMPI PUSH1 0x40 MLOAD PUSH3 0x461BCD PUSH1 0xE5 SHL DUP2 MSTORE PUSH1 0x20 PUSH1 0x4 DUP3 ADD MSTORE PUSH1 0x25 PUSH1 0x24 DUP3 ADD MSTORE PUSH32 0x537573706963696F7573207472616E73616374696F6E20646F6573206E6F7420 PUSH1 0x44 DUP3 ADD MSTORE PUSH5 0x195E1A5CDD PUSH1 0xDA SHL PUSH1 0x64 DUP3 ADD MSTORE PUSH1 0x84 ADD PUSH2 0xFA7 JUMP JUMPDEST PUSH1 0x0 DUP5 DUP2 MSTORE PUSH1 0xB PUSH1 0x20 MSTORE PUSH1 0x40 SWAP1 KECCAK256 PUSH1 0x5 DUP2 ADD SLOAD PUSH1 0xFF AND ISZERO PUSH2 0x2D0B JUMPI PUSH1 0x40 MLOAD PUSH3 0x461BCD PUSH1 0xE5 SHL DUP2 MSTORE PUSH1 0x20 PUSH1 0x4 DUP3 ADD DUP2 SWAP1 MSTORE PUSH1 0x24 DUP3 ADD MSTORE PUSH32 0x5472616E73616374696F6E20616C726561647920696E76657374696761746564 PUSH1 0x44 DUP3 ADD MSTORE PUSH1 0x64 ADD PUSH2 0xFA7 JUMP JUMPDEST PUSH1 0x5 DUP2 ADD DUP1 SLOAD PUSH1 0xFF NOT AND PUSH1 0x1 OR SWAP1 SSTORE PUSH1 0x40 MLOAD DUP6 SWAP1 PUSH32 0xDC3FE18D3EE6112142A07D0B7834BABF72BFA23251ACF78E9ED54FAC34E568E SWAP1 PUSH2 0x2D4E SWAP1 DUP8 SWAP1 DUP8 SWAP1 PUSH2 0x4D45 JUMP JUMPDEST PUSH1 0x40 MLOAD DUP1 SWAP2 SUB SWAP1 LOG2 DUP4 ISZERO PUSH2 0x29A9 JUMPI DUP1 SLOAD PUSH1 0x40 MLOAD CALLER SWAP2 SWAP1 PUSH32 0x407A3279E8255059D39FBFBE4BD03BF82B6C2A737C816852CA2C79B23C3BDB22 SWAP1 PUSH2 0x19E7 SWAP1 DUP8 SWAP1 PUSH2 0x4F17 JUMP JUMPDEST PUSH1 0x0 DUP1 MLOAD PUSH1 0x20 PUSH2 0x5275 DUP4 CODECOPY DUP2 MLOAD SWAP2 MSTORE PUSH2 0x2DA9 DUP2 PUSH2 0x3394 JUMP JUMPDEST PUSH1 0x0 DUP6 DUP2 MSTORE PUSH1 0x5 PUSH1 0x20 MSTORE PUSH1 0x40 SWAP1 KECCAK256 SLOAD PUSH1 0xFF AND PUSH2 0x2E04 JUMPI PUSH1 0x40 MLOAD PUSH3 0x461BCD PUSH1 0xE5 SHL DUP2 MSTORE PUSH1 0x20 PUSH1 0x4 DUP3 ADD MSTORE PUSH1 0x1A PUSH1 0x24 DUP3 ADD MSTORE PUSH26 0x151C985B9CD858DD1A5BDB88191BD95CC81B9BDD08195E1A5CDD PUSH1 0x32 SHL PUSH1 0x44 DUP3 ADD MSTORE PUSH1 0x64 ADD PUSH2 0xFA7 JUMP JUMPDEST PUSH1 0x40 DUP1 MLOAD PUSH1 0x20 DUP2 ADD DUP8 SWAP1 MSTORE PUSH1 0x1 PUSH1 0x1 PUSH1 0x60 SHL SUB NOT CALLER PUSH1 0x60 SHL AND SWAP2 DUP2 ADD SWAP2 SWAP1 SWAP2 MSTORE TIMESTAMP PUSH1 0x54 DUP3 ADD MSTORE PUSH1 0x0 SWAP1 PUSH1 0x74 ADD PUSH1 0x40 DUP1 MLOAD DUP1 DUP4 SUB PUSH1 0x1F NOT ADD DUP2 MSTORE DUP3 DUP3 MSTORE DUP1 MLOAD PUSH1 0x20 SWAP2 DUP3 ADD KECCAK256 PUSH1 0xE0 DUP5 ADD DUP4 MSTORE DUP1 DUP5 MSTORE DUP2 DUP5 ADD DUP11 DUP2 MSTORE CALLER DUP6 DUP6 ADD SWAP1 DUP2 MSTORE PUSH1 0x60 DUP7 ADD DUP12 DUP2 MSTORE PUSH1 0x80 DUP8 ADD DUP12 SWAP1 MSTORE TIMESTAMP PUSH1 0xA0 DUP9 ADD MSTORE DUP10 ISZERO ISZERO PUSH1 0xC0 DUP9 ADD MSTORE PUSH1 0x0 DUP5 DUP2 MSTORE PUSH1 0x9 SWAP1 SWAP6 MSTORE SWAP5 SWAP1 SWAP4 KECCAK256 DUP6 MLOAD DUP2 SSTORE SWAP1 MLOAD PUSH1 0x1 DUP3 ADD SSTORE SWAP2 MLOAD PUSH1 0x2 DUP4 ADD DUP1 SLOAD PUSH1 0x1 PUSH1 0x1 PUSH1 0xA0 SHL SUB NOT AND PUSH1 0x1 PUSH1 0x1 PUSH1 0xA0 SHL SUB SWAP1 SWAP3 AND SWAP2 SWAP1 SWAP2 OR SWAP1 SSTORE SWAP2 MLOAD SWAP2 SWAP4 POP DUP3 SWAP2 PUSH1 0x3 DUP3 ADD SWAP1 PUSH2 0x2ECC SWAP1 DUP3 PUSH2 0x4C8C JUMP JUMPDEST POP PUSH1 0x80 DUP3 ADD MLOAD PUSH1 0x4 DUP3 ADD SWAP1 PUSH2 0x2EE1 SWAP1 DUP3 PUSH2 0x4C8C JUMP JUMPDEST POP PUSH1 0xA0 DUP3 DUP2 ADD MLOAD PUSH1 0x5 DUP4 ADD SSTORE PUSH1 0xC0 SWAP1 SWAP3 ADD MLOAD PUSH1 0x6 SWAP1 SWAP2 ADD DUP1 SLOAD SWAP2 ISZERO ISZERO PUSH1 0xFF NOT SWAP3 DUP4 AND OR SWAP1 SSTORE PUSH1 0x0 DUP10 DUP2 MSTORE PUSH1 0x8 PUSH1 0x20 SWAP1 DUP2 MSTORE PUSH1 0x40 DUP1 DUP4 KECCAK256 DUP1 SLOAD SWAP1 SWAP5 AND PUSH1 0x1 SWAP1 DUP2 OR SWAP1 SWAP5 SSTORE PUSH1 0x2 DUP3 MSTORE DUP1 DUP4 KECCAK256 DUP2 MLOAD SWAP6 DUP7 ADD DUP3 MSTORE DUP1 SLOAD DUP7 MSTORE SWAP4 DUP5 ADD DUP1 SLOAD DUP3 MLOAD DUP2 DUP6 MUL DUP2 ADD DUP6 ADD SWAP1 SWAP4 MSTORE DUP1 DUP4 MSTORE SWAP4 SWAP6 SWAP5 SWAP4 DUP6 DUP5 ADD SWAP4 DUP8 SWAP1 DUP5 ADD JUMPDEST DUP3 DUP3 LT ISZERO PUSH2 0x302F JUMPI DUP4 DUP3 SWAP1 PUSH1 0x0 MSTORE PUSH1 0x20 PUSH1 0x0 KECCAK256 SWAP1 PUSH1 0x3 MUL ADD PUSH1 0x40 MLOAD DUP1 PUSH1 0x60 ADD PUSH1 0x40 MSTORE SWAP1 DUP2 PUSH1 0x0 DUP3 ADD SLOAD DUP2 MSTORE PUSH1 0x20 ADD PUSH1 0x1 DUP3 ADD SLOAD DUP2 MSTORE PUSH1 0x20 ADD PUSH1 0x2 DUP3 ADD DUP1 SLOAD PUSH2 0x2F9E SWAP1 PUSH2 0x4B75 JUMP JUMPDEST DUP1 PUSH1 0x1F ADD PUSH1 0x20 DUP1 SWAP2 DIV MUL PUSH1 0x20 ADD PUSH1 0x40 MLOAD SWAP1 DUP2 ADD PUSH1 0x40 MSTORE DUP1 SWAP3 SWAP2 SWAP1 DUP2 DUP2 MSTORE PUSH1 0x20 ADD DUP3 DUP1 SLOAD PUSH2 0x2FCA SWAP1 PUSH2 0x4B75 JUMP JUMPDEST DUP1 ISZERO PUSH2 0x3017 JUMPI DUP1 PUSH1 0x1F LT PUSH2 0x2FEC JUMPI PUSH2 0x100 DUP1 DUP4 SLOAD DIV MUL DUP4 MSTORE SWAP2 PUSH1 0x20 ADD SWAP2 PUSH2 0x3017 JUMP JUMPDEST DUP3 ADD SWAP2 SWAP1 PUSH1 0x0 MSTORE PUSH1 0x20 PUSH1 0x0 KECCAK256 SWAP1 JUMPDEST DUP2 SLOAD DUP2 MSTORE SWAP1 PUSH1 0x1 ADD SWAP1 PUSH1 0x20 ADD DUP1 DUP4 GT PUSH2 0x2FFA JUMPI DUP3 SWAP1 SUB PUSH1 0x1F AND DUP3 ADD SWAP2 JUMPDEST POP POP POP POP POP DUP2 MSTORE POP POP DUP2 MSTORE PUSH1 0x20 ADD SWAP1 PUSH1 0x1 ADD SWAP1 PUSH2 0x2F57 JUMP JUMPDEST POP POP POP POP DUP2 MSTORE PUSH1 0x20 ADD PUSH1 0x2 DUP3 ADD DUP1 SLOAD DUP1 PUSH1 0x20 MUL PUSH1 0x20 ADD PUSH1 0x40 MLOAD SWAP1 DUP2 ADD PUSH1 0x40 MSTORE DUP1 SWAP3 SWAP2 SWAP1 DUP2 DUP2 MSTORE PUSH1 0x20 ADD PUSH1 0x0 SWAP1 JUMPDEST DUP3 DUP3 LT ISZERO PUSH2 0x30C1 JUMPI PUSH1 0x0 DUP5 DUP2 MSTORE PUSH1 0x20 SWAP1 DUP2 SWAP1 KECCAK256 PUSH1 0x40 DUP1 MLOAD PUSH1 0x80 DUP2 ADD DUP3 MSTORE PUSH1 0x3 DUP7 MUL SWAP1 SWAP3 ADD DUP1 SLOAD DUP4 MSTORE PUSH1 0x1 DUP1 DUP3 ADD SLOAD PUSH1 0x1 PUSH1 0x1 PUSH1 0xA0 SHL SUB DUP2 AND DUP6 DUP8 ADD MSTORE PUSH1 0x1 PUSH1 0xA0 SHL SWAP1 DIV PUSH1 0xFF AND ISZERO ISZERO SWAP3 DUP5 ADD SWAP3 SWAP1 SWAP3 MSTORE PUSH1 0x2 ADD SLOAD PUSH1 0x60 DUP4 ADD MSTORE SWAP1 DUP4 MSTORE SWAP1 SWAP3 ADD SWAP2 ADD PUSH2 0x305C JUMP JUMPDEST POP POP POP SWAP1 DUP3 MSTORE POP PUSH1 0x3 DUP3 ADD SLOAD PUSH1 0x20 DUP1 DUP4 ADD SWAP2 SWAP1 SWAP2 MSTORE PUSH1 0x4 SWAP1 SWAP3 ADD SLOAD PUSH1 0x1 PUSH1 0x1 PUSH1 0xA0 SHL SUB SWAP1 DUP2 AND PUSH1 0x40 SWAP3 DUP4 ADD MSTORE PUSH1 0x80 DUP5 ADD MLOAD AND PUSH1 0x0 SWAP1 DUP2 MSTORE PUSH1 0xA DUP4 MSTORE DUP2 DUP2 KECCAK256 DUP1 SLOAD PUSH1 0x1 DUP2 ADD DUP3 SSTORE SWAP1 DUP3 MSTORE SWAP3 SWAP1 KECCAK256 SWAP1 SWAP2 ADD DUP6 SWAP1 SSTORE DUP2 ADD MLOAD MLOAD SWAP1 SWAP2 POP ISZERO PUSH2 0x3176 JUMPI PUSH1 0xA PUSH1 0x0 DUP3 PUSH1 0x40 ADD MLOAD PUSH1 0x0 DUP2 MLOAD DUP2 LT PUSH2 0x313A JUMPI PUSH2 0x313A PUSH2 0x4BAF JUMP JUMPDEST PUSH1 0x20 SWAP1 DUP2 MUL SWAP2 SWAP1 SWAP2 ADD DUP2 ADD MLOAD DUP2 ADD MLOAD PUSH1 0x1 PUSH1 0x1 PUSH1 0xA0 SHL SUB AND DUP3 MSTORE DUP2 DUP2 ADD SWAP3 SWAP1 SWAP3 MSTORE PUSH1 0x40 ADD PUSH1 0x0 SWAP1 DUP2 KECCAK256 DUP1 SLOAD PUSH1 0x1 DUP2 ADD DUP3 SSTORE SWAP1 DUP3 MSTORE SWAP2 SWAP1 KECCAK256 ADD DUP4 SWAP1 SSTORE JUMPDEST DUP8 DUP4 PUSH1 0x0 DUP1 MLOAD PUSH1 0x20 PUSH2 0x5235 DUP4 CODECOPY DUP2 MLOAD SWAP2 MSTORE DUP8 DUP11 PUSH1 0x40 MLOAD PUSH2 0x3197 SWAP3 SWAP2 SWAP1 PUSH2 0x4D45 JUMP JUMPDEST PUSH1 0x40 MLOAD DUP1 SWAP2 SUB SWAP1 LOG3 PUSH1 0x10 DUP1 SLOAD SWAP1 PUSH1 0x0 PUSH2 0x31AF DUP4 PUSH2 0x4BDB JUMP JUMPDEST SWAP2 SWAP1 POP SSTORE POP POP POP POP POP POP POP POP POP JUMP JUMPDEST PUSH2 0x3209 PUSH1 0x40 MLOAD DUP1 PUSH1 0xE0 ADD PUSH1 0x40 MSTORE DUP1 PUSH1 0x0 DUP2 MSTORE PUSH1 0x20 ADD PUSH1 0x0 DUP2 MSTORE PUSH1 0x20 ADD PUSH1 0x0 PUSH1 0x1 PUSH1 0x1 PUSH1 0xA0 SHL SUB AND DUP2 MSTORE PUSH1 0x20 ADD PUSH1 0x60 DUP2 MSTORE PUSH1 0x20 ADD PUSH1 0x60 DUP2 MSTORE PUSH1 0x20 ADD PUSH1 0x0 DUP2 MSTORE PUSH1 0x20 ADD PUSH1 0x0 ISZERO ISZERO DUP2 MSTORE POP SWAP1 JUMP JUMPDEST PUSH1 0x0 DUP3 DUP2 MSTORE PUSH1 0x9 PUSH1 0x20 SWAP1 DUP2 MSTORE PUSH1 0x40 SWAP2 DUP3 SWAP1 KECCAK256 DUP3 MLOAD PUSH1 0xE0 DUP2 ADD DUP5 MSTORE DUP2 SLOAD DUP2 MSTORE PUSH1 0x1 DUP3 ADD SLOAD SWAP3 DUP2 ADD SWAP3 SWAP1 SWAP3 MSTORE PUSH1 0x2 DUP2 ADD SLOAD PUSH1 0x1 PUSH1 0x1 PUSH1 0xA0 SHL SUB AND SWAP3 DUP3 ADD SWAP3 SWAP1 SWAP3 MSTORE PUSH1 0x3 DUP3 ADD DUP1 SLOAD SWAP2 SWAP3 SWAP2 PUSH1 0x60 DUP5 ADD SWAP2 SWAP1 PUSH2 0x3260 SWAP1 PUSH2 0x4B75 JUMP JUMPDEST DUP1 PUSH1 0x1F ADD PUSH1 0x20 DUP1 SWAP2 DIV MUL PUSH1 0x20 ADD PUSH1 0x40 MLOAD SWAP1 DUP2 ADD PUSH1 0x40 MSTORE DUP1 SWAP3 SWAP2 SWAP1 DUP2 DUP2 MSTORE PUSH1 0x20 ADD DUP3 DUP1 SLOAD PUSH2 0x328C SWAP1 PUSH2 0x4B75 JUMP JUMPDEST DUP1 ISZERO PUSH2 0x32D9 JUMPI DUP1 PUSH1 0x1F LT PUSH2 0x32AE JUMPI PUSH2 0x100 DUP1 DUP4 SLOAD DIV MUL DUP4 MSTORE SWAP2 PUSH1 0x20 ADD SWAP2 PUSH2 0x32D9 JUMP JUMPDEST DUP3 ADD SWAP2 SWAP1 PUSH1 0x0 MSTORE PUSH1 0x20 PUSH1 0x0 KECCAK256 SWAP1 JUMPDEST DUP2 SLOAD DUP2 MSTORE SWAP1 PUSH1 0x1 ADD SWAP1 PUSH1 0x20 ADD DUP1 DUP4 GT PUSH2 0x32BC JUMPI DUP3 SWAP1 SUB PUSH1 0x1F AND DUP3 ADD SWAP2 JUMPDEST POP POP POP POP POP DUP2 MSTORE PUSH1 0x20 ADD PUSH1 0x4 DUP3 ADD DUP1 SLOAD PUSH2 0x32F2 SWAP1 PUSH2 0x4B75 JUMP JUMPDEST DUP1 PUSH1 0x1F ADD PUSH1 0x20 DUP1 SWAP2 DIV MUL PUSH1 0x20 ADD PUSH1 0x40 MLOAD SWAP1 DUP2 ADD PUSH1 0x40 MSTORE DUP1 SWAP3 SWAP2 SWAP1 DUP2 DUP2 MSTORE PUSH1 0x20 ADD DUP3 DUP1 SLOAD PUSH2 0x331E SWAP1 PUSH2 0x4B75 JUMP JUMPDEST DUP1 ISZERO PUSH2 0x336B JUMPI DUP1 PUSH1 0x1F LT PUSH2 0x3340 JUMPI PUSH2 0x100 DUP1 DUP4 SLOAD DIV MUL DUP4 MSTORE SWAP2 PUSH1 0x20 ADD SWAP2 PUSH2 0x336B JUMP JUMPDEST DUP3 ADD SWAP2 SWAP1 PUSH1 0x0 MSTORE PUSH1 0x20 PUSH1 0x0 KECCAK256 SWAP1 JUMPDEST DUP2 SLOAD DUP2 MSTORE SWAP1 PUSH1 0x1 ADD SWAP1 PUSH1 0x20 ADD DUP1 DUP4 GT PUSH2 0x334E JUMPI DUP3 SWAP1 SUB PUSH1 0x1F AND DUP3 ADD SWAP2 JUMPDEST POP POP POP SWAP2 DUP4 MSTORE POP POP PUSH1 0x5 DUP3 ADD SLOAD PUSH1 0x20 DUP3 ADD MSTORE PUSH1 0x6 SWAP1 SWAP2 ADD SLOAD PUSH1 0xFF AND ISZERO ISZERO PUSH1 0x40 SWAP1 SWAP2 ADD MSTORE SWAP3 SWAP2 POP POP JUMP JUMPDEST PUSH2 0x339E DUP2 CALLER PUSH2 0x41DA JUMP JUMPDEST POP JUMP JUMPDEST PUSH1 0x0 PUSH2 0x33AD DUP4 DUP4 PUSH2 0x23FF JUMP JUMPDEST ISZERO PUSH2 0x340C JUMPI PUSH1 0x0 DUP4 DUP2 MSTORE PUSH1 0x20 DUP2 DUP2 MSTORE PUSH1 0x40 DUP1 DUP4 KECCAK256 PUSH1 0x1 PUSH1 0x1 PUSH1 0xA0 SHL SUB DUP7 AND DUP1 DUP6 MSTORE SWAP3 MSTORE DUP1 DUP4 KECCAK256 DUP1 SLOAD PUSH1 0xFF NOT AND SWAP1 SSTORE MLOAD CALLER SWAP3 DUP7 SWAP2 PUSH32 0xF6391F5C32D9C69D2A47EA670B442974B53935D1EDC7FD64EB21E047A839171B SWAP2 SWAP1 LOG4 POP PUSH1 0x1 PUSH2 0x880 JUMP JUMPDEST POP PUSH1 0x0 PUSH2 0x880 JUMP JUMPDEST PUSH1 0x0 PUSH2 0x3420 DUP4 DUP4 PUSH2 0x23FF JUMP JUMPDEST PUSH2 0x340C JUMPI PUSH1 0x0 DUP4 DUP2 MSTORE PUSH1 0x20 DUP2 DUP2 MSTORE PUSH1 0x40 DUP1 DUP4 KECCAK256 PUSH1 0x1 PUSH1 0x1 PUSH1 0xA0 SHL SUB DUP7 AND DUP5 MSTORE SWAP1 SWAP2 MSTORE SWAP1 KECCAK256 DUP1 SLOAD PUSH1 0xFF NOT AND PUSH1 0x1 OR SWAP1 SSTORE PUSH2 0x3456 CALLER SWAP1 JUMP JUMPDEST PUSH1 0x1 PUSH1 0x1 PUSH1 0xA0 SHL SUB AND DUP3 PUSH1 0x1 PUSH1 0x1 PUSH1 0xA0 SHL SUB AND DUP5 PUSH32 0x2F8788117E7EFF1D82E926EC794901D17C78024A50270940304540A733656F0D PUSH1 0x40 MLOAD PUSH1 0x40 MLOAD DUP1 SWAP2 SUB SWAP1 LOG4 POP PUSH1 0x1 PUSH2 0x880 JUMP JUMPDEST PUSH1 0x1 PUSH1 0x1 PUSH1 0xA0 SHL SUB DUP4 AND PUSH1 0x0 SWAP1 DUP2 MSTORE PUSH1 0x4 PUSH1 0x20 SWAP1 DUP2 MSTORE PUSH1 0x40 DUP1 DUP4 KECCAK256 DUP2 MLOAD DUP1 DUP5 ADD DUP8 SWAP1 MSTORE DUP1 DUP4 ADD DUP7 SWAP1 MSTORE DUP3 MLOAD DUP1 DUP3 SUB DUP5 ADD DUP2 MSTORE PUSH1 0x60 SWAP1 SWAP2 ADD SWAP1 SWAP3 MSTORE DUP2 MLOAD SWAP2 SWAP1 SWAP3 ADD KECCAK256 SWAP1 SWAP2 JUMPDEST DUP3 SLOAD DUP2 LT ISZERO PUSH2 0x3596 JUMPI DUP2 DUP4 DUP3 DUP2 SLOAD DUP2 LT PUSH2 0x34FE JUMPI PUSH2 0x34FE PUSH2 0x4BAF JUMP JUMPDEST SWAP1 PUSH1 0x0 MSTORE PUSH1 0x20 PUSH1 0x0 KECCAK256 ADD SLOAD SUB PUSH2 0x3584 JUMPI DUP3 SLOAD DUP4 SWAP1 PUSH2 0x351E SWAP1 PUSH1 0x1 SWAP1 PUSH2 0x4F55 JUMP JUMPDEST DUP2 SLOAD DUP2 LT PUSH2 0x352E JUMPI PUSH2 0x352E PUSH2 0x4BAF JUMP JUMPDEST SWAP1 PUSH1 0x0 MSTORE PUSH1 0x20 PUSH1 0x0 KECCAK256 ADD SLOAD DUP4 DUP3 DUP2 SLOAD DUP2 LT PUSH2 0x354B JUMPI PUSH2 0x354B PUSH2 0x4BAF JUMP JUMPDEST SWAP1 PUSH1 0x0 MSTORE PUSH1 0x20 PUSH1 0x0 KECCAK256 ADD DUP2 SWAP1 SSTORE POP DUP3 DUP1 SLOAD DUP1 PUSH2 0x3569 JUMPI PUSH2 0x3569 PUSH2 0x4F68 JUMP JUMPDEST PUSH1 0x1 SWAP1 SUB DUP2 DUP2 SWAP1 PUSH1 0x0 MSTORE PUSH1 0x20 PUSH1 0x0 KECCAK256 ADD PUSH1 0x0 SWAP1 SSTORE SWAP1 SSTORE PUSH2 0x3596 JUMP JUMPDEST DUP1 PUSH2 0x358E DUP2 PUSH2 0x4BDB JUMP JUMPDEST SWAP2 POP POP PUSH2 0x34E2 JUMP JUMPDEST POP POP POP POP POP POP JUMP JUMPDEST PUSH1 0x0 DUP4 PUSH2 0x35E2 JUMPI PUSH1 0x40 MLOAD PUSH3 0x461BCD PUSH1 0xE5 SHL DUP2 MSTORE PUSH1 0x20 PUSH1 0x4 DUP3 ADD MSTORE PUSH1 0x12 PUSH1 0x24 DUP3 ADD MSTORE PUSH18 0x139BC81A5B9C1D5D1CC81C1C9BDD9A591959 PUSH1 0x72 SHL PUSH1 0x44 DUP3 ADD MSTORE PUSH1 0x64 ADD PUSH2 0xFA7 JUMP JUMPDEST DUP2 PUSH2 0x3625 JUMPI PUSH1 0x40 MLOAD PUSH3 0x461BCD PUSH1 0xE5 SHL DUP2 MSTORE PUSH1 0x20 PUSH1 0x4 DUP3 ADD MSTORE PUSH1 0x13 PUSH1 0x24 DUP3 ADD MSTORE PUSH19 0x139BC81BDD5D1C1D5D1CC81C1C9BDD9A591959 PUSH1 0x6A SHL PUSH1 0x44 DUP3 ADD MSTORE PUSH1 0x64 ADD PUSH2 0xFA7 JUMP JUMPDEST PUSH2 0x362E CALLER PUSH2 0x109D JUMP JUMPDEST PUSH2 0x364A JUMPI PUSH1 0x40 MLOAD PUSH3 0x461BCD PUSH1 0xE5 SHL DUP2 MSTORE PUSH1 0x4 ADD PUSH2 0xFA7 SWAP1 PUSH2 0x4E3F JUMP JUMPDEST PUSH1 0x0 DUP1 JUMPDEST DUP6 DUP2 LT ISZERO PUSH2 0x3812 JUMPI CALLDATASIZE DUP8 DUP8 DUP4 DUP2 DUP2 LT PUSH2 0x3669 JUMPI PUSH2 0x3669 PUSH2 0x4BAF JUMP JUMPDEST SWAP1 POP PUSH1 0x20 MUL DUP2 ADD SWAP1 PUSH2 0x367B SWAP2 SWAP1 PUSH2 0x4F7E JUMP JUMPDEST DUP1 CALLDATALOAD PUSH1 0x0 SWAP1 DUP2 MSTORE PUSH1 0x2 PUSH1 0x20 SWAP1 DUP2 MSTORE PUSH1 0x40 DUP1 DUP4 KECCAK256 PUSH1 0x5 SWAP1 SWAP3 MSTORE SWAP1 SWAP2 KECCAK256 SLOAD SWAP2 SWAP3 POP SWAP1 PUSH1 0xFF AND PUSH2 0x36F6 JUMPI PUSH1 0x40 MLOAD PUSH3 0x461BCD PUSH1 0xE5 SHL DUP2 MSTORE PUSH1 0x20 PUSH1 0x4 DUP3 ADD MSTORE PUSH1 0x23 PUSH1 0x24 DUP3 ADD MSTORE PUSH32 0x50726576696F7573207472616E73616374696F6E20646F6573206E6F74206578 PUSH1 0x44 DUP3 ADD MSTORE PUSH3 0x1A5CDD PUSH1 0xEA SHL PUSH1 0x64 DUP3 ADD MSTORE PUSH1 0x84 ADD PUSH2 0xFA7 JUMP JUMPDEST PUSH1 0x2 DUP2 ADD SLOAD PUSH1 0x20 DUP4 ADD CALLDATALOAD LT PUSH2 0x3744 JUMPI PUSH1 0x40 MLOAD PUSH3 0x461BCD PUSH1 0xE5 SHL DUP2 MSTORE PUSH1 0x20 PUSH1 0x4 DUP3 ADD MSTORE PUSH1 0x14 PUSH1 0x24 DUP3 ADD MSTORE PUSH20 0x92DCECC2D8D2C840DEEAE8E0EAE840D2DCC8CAF PUSH1 0x63 SHL PUSH1 0x44 DUP3 ADD MSTORE PUSH1 0x64 ADD PUSH2 0xFA7 JUMP JUMPDEST PUSH1 0x0 DUP2 PUSH1 0x2 ADD DUP4 PUSH1 0x20 ADD CALLDATALOAD DUP2 SLOAD DUP2 LT PUSH2 0x375F JUMPI PUSH2 0x375F PUSH2 0x4BAF JUMP JUMPDEST SWAP1 PUSH1 0x0 MSTORE PUSH1 0x20 PUSH1 0x0 KECCAK256 SWAP1 PUSH1 0x3 MUL ADD SWAP1 POP DUP1 PUSH1 0x1 ADD PUSH1 0x14 SWAP1 SLOAD SWAP1 PUSH2 0x100 EXP SWAP1 DIV PUSH1 0xFF AND ISZERO PUSH2 0x379E JUMPI PUSH1 0x40 MLOAD PUSH3 0x461BCD PUSH1 0xE5 SHL DUP2 MSTORE PUSH1 0x4 ADD PUSH2 0xFA7 SWAP1 PUSH2 0x4EC6 JUMP JUMPDEST PUSH1 0x1 DUP2 ADD SLOAD PUSH1 0x1 PUSH1 0x1 PUSH1 0xA0 SHL SUB AND CALLER EQ PUSH2 0x37CA JUMPI PUSH1 0x40 MLOAD PUSH3 0x461BCD PUSH1 0xE5 SHL DUP2 MSTORE PUSH1 0x4 ADD PUSH2 0xFA7 SWAP1 PUSH2 0x4E9A JUMP JUMPDEST DUP1 PUSH1 0x2 ADD SLOAD TIMESTAMP LT ISZERO PUSH2 0x37EE JUMPI PUSH1 0x40 MLOAD PUSH3 0x461BCD PUSH1 0xE5 SHL DUP2 MSTORE PUSH1 0x4 ADD PUSH2 0xFA7 SWAP1 PUSH2 0x4EF2 JUMP JUMPDEST DUP1 SLOAD PUSH2 0x37FA SWAP1 DUP7 PUSH2 0x4BF4 JUMP JUMPDEST SWAP5 POP POP POP POP DUP1 DUP1 PUSH2 0x380A SWAP1 PUSH2 0x4BDB JUMP JUMPDEST SWAP2 POP POP PUSH2 0x364E JUMP JUMPDEST POP PUSH1 0x0 DUP1 JUMPDEST DUP5 DUP2 LT ISZERO PUSH2 0x3858 JUMPI DUP6 DUP6 DUP3 DUP2 DUP2 LT PUSH2 0x3831 JUMPI PUSH2 0x3831 PUSH2 0x4BAF JUMP JUMPDEST PUSH2 0x3844 SWAP3 PUSH1 0x80 SWAP1 SWAP2 MUL ADD CALLDATALOAD SWAP1 POP DUP4 PUSH2 0x4BF4 JUMP JUMPDEST SWAP2 POP DUP1 PUSH2 0x3850 DUP2 PUSH2 0x4BDB JUMP JUMPDEST SWAP2 POP POP PUSH2 0x3817 JUMP JUMPDEST POP DUP2 DUP2 GT ISZERO PUSH2 0x38A9 JUMPI PUSH1 0x40 MLOAD PUSH3 0x461BCD PUSH1 0xE5 SHL DUP2 MSTORE PUSH1 0x20 PUSH1 0x4 DUP3 ADD DUP2 SWAP1 MSTORE PUSH1 0x24 DUP3 ADD MSTORE PUSH32 0x4F75747075742076616C7565206578636565647320696E7075742076616C7565 PUSH1 0x44 DUP3 ADD MSTORE PUSH1 0x64 ADD PUSH2 0xFA7 JUMP JUMPDEST PUSH1 0x0 JUMPDEST DUP7 DUP2 LT ISZERO PUSH2 0x398C JUMPI CALLDATASIZE DUP9 DUP9 DUP4 DUP2 DUP2 LT PUSH2 0x38C7 JUMPI PUSH2 0x38C7 PUSH2 0x4BAF JUMP JUMPDEST SWAP1 POP PUSH1 0x20 MUL DUP2 ADD SWAP1 PUSH2 0x38D9 SWAP2 SWAP1 PUSH2 0x4F7E JUMP JUMPDEST DUP1 CALLDATALOAD PUSH1 0x0 SWAP1 DUP2 MSTORE PUSH1 0x2 PUSH1 0x20 DUP2 DUP2 MSTORE PUSH1 0x40 DUP4 KECCAK256 SWAP2 DUP3 ADD DUP1 SLOAD SWAP5 SWAP6 POP SWAP2 SWAP4 SWAP1 DUP6 ADD CALLDATALOAD SWAP1 DUP2 LT PUSH2 0x3908 JUMPI PUSH2 0x3908 PUSH2 0x4BAF JUMP JUMPDEST PUSH1 0x0 SWAP2 DUP3 MSTORE PUSH1 0x20 SWAP2 DUP3 SWAP1 KECCAK256 PUSH1 0x1 PUSH1 0x3 SWAP1 SWAP3 MUL ADD SWAP1 DUP2 ADD DUP1 SLOAD PUSH1 0xFF PUSH1 0xA0 SHL NOT DUP2 AND PUSH1 0x1 PUSH1 0xA0 SHL OR SWAP1 SWAP2 SSTORE SWAP1 SWAP3 POP PUSH2 0x394F SWAP2 PUSH1 0x1 PUSH1 0x1 PUSH1 0xA0 SHL SUB SWAP1 SWAP2 AND SWAP1 DUP6 CALLDATALOAD SWAP1 DUP7 ADD CALLDATALOAD PUSH2 0x349E JUMP JUMPDEST PUSH1 0x6 SLOAD PUSH1 0x40 MLOAD SWAP1 DUP2 MSTORE DUP4 CALLDATALOAD SWAP1 PUSH1 0x0 DUP1 MLOAD PUSH1 0x20 PUSH2 0x5315 DUP4 CODECOPY DUP2 MLOAD SWAP2 MSTORE SWAP1 PUSH1 0x20 ADD PUSH1 0x40 MLOAD DUP1 SWAP2 SUB SWAP1 LOG2 POP POP POP DUP1 DUP1 PUSH2 0x3984 SWAP1 PUSH2 0x4BDB JUMP JUMPDEST SWAP2 POP POP PUSH2 0x38AC JUMP JUMPDEST POP PUSH1 0x6 SLOAD PUSH1 0x40 MLOAD PUSH1 0x1 PUSH1 0x1 PUSH1 0x60 SHL SUB NOT CALLER PUSH1 0x60 SHL AND PUSH1 0x20 DUP3 ADD MSTORE TIMESTAMP PUSH1 0x34 DUP3 ADD MSTORE PUSH1 0x54 DUP2 ADD SWAP2 SWAP1 SWAP2 MSTORE PUSH1 0x0 SWAP1 PUSH1 0x74 ADD PUSH1 0x40 DUP1 MLOAD PUSH1 0x1F NOT DUP2 DUP5 SUB ADD DUP2 MSTORE SWAP2 SWAP1 MSTORE DUP1 MLOAD PUSH1 0x20 SWAP1 SWAP2 ADD KECCAK256 SWAP1 POP PUSH1 0x0 DUP8 PUSH1 0x1 PUSH1 0x1 PUSH1 0x40 SHL SUB DUP2 GT ISZERO PUSH2 0x39EE JUMPI PUSH2 0x39EE PUSH2 0x472F JUMP JUMPDEST PUSH1 0x40 MLOAD SWAP1 DUP1 DUP3 MSTORE DUP1 PUSH1 0x20 MUL PUSH1 0x20 ADD DUP3 ADD PUSH1 0x40 MSTORE DUP1 ISZERO PUSH2 0x3A43 JUMPI DUP2 PUSH1 0x20 ADD JUMPDEST PUSH2 0x3A30 PUSH1 0x40 MLOAD DUP1 PUSH1 0x60 ADD PUSH1 0x40 MSTORE DUP1 PUSH1 0x0 DUP2 MSTORE PUSH1 0x20 ADD PUSH1 0x0 DUP2 MSTORE PUSH1 0x20 ADD PUSH1 0x60 DUP2 MSTORE POP SWAP1 JUMP JUMPDEST DUP2 MSTORE PUSH1 0x20 ADD SWAP1 PUSH1 0x1 SWAP1 SUB SWAP1 DUP2 PUSH2 0x3A0C JUMPI SWAP1 POP JUMPDEST POP SWAP1 POP PUSH1 0x0 JUMPDEST DUP9 DUP2 LT ISZERO PUSH2 0x3AAE JUMPI DUP10 DUP10 DUP3 DUP2 DUP2 LT PUSH2 0x3A63 JUMPI PUSH2 0x3A63 PUSH2 0x4BAF JUMP JUMPDEST SWAP1 POP PUSH1 0x20 MUL DUP2 ADD SWAP1 PUSH2 0x3A75 SWAP2 SWAP1 PUSH2 0x4F7E JUMP JUMPDEST PUSH2 0x3A7E SWAP1 PUSH2 0x4F9E JUMP JUMPDEST DUP3 DUP3 DUP2 MLOAD DUP2 LT PUSH2 0x3A90 JUMPI PUSH2 0x3A90 PUSH2 0x4BAF JUMP JUMPDEST PUSH1 0x20 MUL PUSH1 0x20 ADD ADD DUP2 SWAP1 MSTORE POP DUP1 DUP1 PUSH2 0x3AA6 SWAP1 PUSH2 0x4BDB JUMP JUMPDEST SWAP2 POP POP PUSH2 0x3A49 JUMP JUMPDEST POP PUSH1 0x0 DUP7 PUSH1 0x1 PUSH1 0x1 PUSH1 0x40 SHL SUB DUP2 GT ISZERO PUSH2 0x3AC9 JUMPI PUSH2 0x3AC9 PUSH2 0x472F JUMP JUMPDEST PUSH1 0x40 MLOAD SWAP1 DUP1 DUP3 MSTORE DUP1 PUSH1 0x20 MUL PUSH1 0x20 ADD DUP3 ADD PUSH1 0x40 MSTORE DUP1 ISZERO PUSH2 0x3B02 JUMPI DUP2 PUSH1 0x20 ADD JUMPDEST PUSH2 0x3AEF PUSH2 0x4289 JUMP JUMPDEST DUP2 MSTORE PUSH1 0x20 ADD SWAP1 PUSH1 0x1 SWAP1 SUB SWAP1 DUP2 PUSH2 0x3AE7 JUMPI SWAP1 POP JUMPDEST POP SWAP1 POP PUSH1 0x0 JUMPDEST DUP8 DUP2 LT ISZERO PUSH2 0x3CC5 JUMPI DUP9 DUP9 DUP3 DUP2 DUP2 LT PUSH2 0x3B22 JUMPI PUSH2 0x3B22 PUSH2 0x4BAF JUMP JUMPDEST SWAP1 POP PUSH1 0x80 MUL ADD DUP1 CALLDATASIZE SUB DUP2 ADD SWAP1 PUSH2 0x3B38 SWAP2 SWAP1 PUSH2 0x5026 JUMP JUMPDEST DUP3 DUP3 DUP2 MLOAD DUP2 LT PUSH2 0x3B4A JUMPI PUSH2 0x3B4A PUSH2 0x4BAF JUMP JUMPDEST PUSH1 0x20 MUL PUSH1 0x20 ADD ADD DUP2 SWAP1 MSTORE POP PUSH1 0x0 DUP5 DUP3 DUP12 DUP12 DUP6 DUP2 DUP2 LT PUSH2 0x3B6B JUMPI PUSH2 0x3B6B PUSH2 0x4BAF JUMP JUMPDEST PUSH1 0x40 DUP1 MLOAD PUSH1 0x20 DUP2 ADD SWAP7 SWAP1 SWAP7 MSTORE DUP6 ADD SWAP4 SWAP1 SWAP4 MSTORE POP PUSH1 0x80 SWAP2 DUP3 MUL ADD CALLDATALOAD PUSH1 0x60 DUP4 ADD MSTORE ADD PUSH1 0x40 MLOAD PUSH1 0x20 DUP2 DUP4 SUB SUB DUP2 MSTORE SWAP1 PUSH1 0x40 MSTORE DUP1 MLOAD SWAP1 PUSH1 0x20 ADD KECCAK256 PUSH1 0x0 SHR SWAP1 POP DUP10 DUP10 DUP4 DUP2 DUP2 LT PUSH2 0x3BB8 JUMPI PUSH2 0x3BB8 PUSH2 0x4BAF JUMP JUMPDEST SWAP1 POP PUSH1 0x80 MUL ADD PUSH1 0x3 PUSH1 0x0 DUP4 DUP2 MSTORE PUSH1 0x20 ADD SWAP1 DUP2 MSTORE PUSH1 0x20 ADD PUSH1 0x0 KECCAK256 DUP2 DUP2 PUSH2 0x3BDD SWAP2 SWAP1 PUSH2 0x509A JUMP JUMPDEST SWAP1 POP POP PUSH1 0x4 PUSH1 0x0 DUP12 DUP12 DUP6 DUP2 DUP2 LT PUSH2 0x3BF6 JUMPI PUSH2 0x3BF6 PUSH2 0x4BAF JUMP JUMPDEST SWAP1 POP PUSH1 0x80 MUL ADD PUSH1 0x20 ADD PUSH1 0x20 DUP2 ADD SWAP1 PUSH2 0x3C0E SWAP2 SWAP1 PUSH2 0x463F JUMP JUMPDEST PUSH1 0x1 PUSH1 0x1 PUSH1 0xA0 SHL SUB AND DUP2 MSTORE PUSH1 0x20 DUP1 DUP3 ADD SWAP3 SWAP1 SWAP3 MSTORE PUSH1 0x40 ADD PUSH1 0x0 SWAP1 DUP2 KECCAK256 DUP1 SLOAD PUSH1 0x1 DUP2 ADD DUP3 SSTORE SWAP1 DUP3 MSTORE SWAP2 SWAP1 KECCAK256 ADD DUP2 SWAP1 SSTORE DUP10 DUP10 DUP4 DUP2 DUP2 LT PUSH2 0x3C4E JUMPI PUSH2 0x3C4E PUSH2 0x4BAF JUMP JUMPDEST SWAP1 POP PUSH1 0x80 MUL ADD PUSH1 0x20 ADD PUSH1 0x20 DUP2 ADD SWAP1 PUSH2 0x3C66 SWAP2 SWAP1 PUSH2 0x463F JUMP JUMPDEST PUSH1 0x1 PUSH1 0x1 PUSH1 0xA0 SHL SUB AND DUP2 PUSH1 0x0 DUP1 MLOAD PUSH1 0x20 PUSH2 0x5295 DUP4 CODECOPY DUP2 MLOAD SWAP2 MSTORE DUP13 DUP13 DUP7 DUP2 DUP2 LT PUSH2 0x3C91 JUMPI PUSH2 0x3C91 PUSH2 0x4BAF JUMP JUMPDEST SWAP1 POP PUSH1 0x80 MUL ADD PUSH1 0x0 ADD CALLDATALOAD PUSH1 0x40 MLOAD PUSH2 0x3CAA SWAP2 DUP2 MSTORE PUSH1 0x20 ADD SWAP1 JUMP JUMPDEST PUSH1 0x40 MLOAD DUP1 SWAP2 SUB SWAP1 LOG3 POP DUP1 PUSH2 0x3CBD DUP2 PUSH2 0x4BDB JUMP JUMPDEST SWAP2 POP POP PUSH2 0x3B08 JUMP JUMPDEST POP PUSH1 0x0 DUP4 DUP2 MSTORE PUSH1 0x2 PUSH1 0x20 MSTORE PUSH1 0x40 DUP2 KECCAK256 DUP5 DUP2 SSTORE TIMESTAMP PUSH1 0x3 DUP3 ADD SSTORE PUSH1 0x4 ADD DUP1 SLOAD PUSH1 0x1 PUSH1 0x1 PUSH1 0xA0 SHL SUB NOT AND CALLER OR SWAP1 SSTORE JUMPDEST DUP10 DUP2 LT ISZERO PUSH2 0x3D65 JUMPI PUSH1 0x0 DUP5 DUP2 MSTORE PUSH1 0x2 PUSH1 0x20 MSTORE PUSH1 0x40 SWAP1 KECCAK256 PUSH1 0x1 ADD DUP12 DUP12 DUP4 DUP2 DUP2 LT PUSH2 0x3D1C JUMPI PUSH2 0x3D1C PUSH2 0x4BAF JUMP JUMPDEST SWAP1 POP PUSH1 0x20 MUL DUP2 ADD SWAP1 PUSH2 0x3D2E SWAP2 SWAP1 PUSH2 0x4F7E JUMP JUMPDEST DUP2 SLOAD PUSH1 0x1 DUP2 ADD DUP4 SSTORE PUSH1 0x0 SWAP3 DUP4 MSTORE PUSH1 0x20 SWAP1 SWAP3 KECCAK256 SWAP1 SWAP2 PUSH1 0x3 MUL ADD PUSH2 0x3D50 DUP3 DUP3 PUSH2 0x50F8 JUMP JUMPDEST POP POP DUP1 DUP1 PUSH2 0x3D5D SWAP1 PUSH2 0x4BDB JUMP JUMPDEST SWAP2 POP POP PUSH2 0x3CF1 JUMP JUMPDEST POP PUSH1 0x0 JUMPDEST DUP8 DUP2 LT ISZERO PUSH2 0x3DD8 JUMPI PUSH1 0x0 DUP5 DUP2 MSTORE PUSH1 0x2 PUSH1 0x20 DUP2 SWAP1 MSTORE PUSH1 0x40 SWAP1 SWAP2 KECCAK256 ADD DUP10 DUP10 DUP4 DUP2 DUP2 LT PUSH2 0x3D95 JUMPI PUSH2 0x3D95 PUSH2 0x4BAF JUMP JUMPDEST DUP4 SLOAD PUSH1 0x1 DUP2 ADD DUP6 SSTORE PUSH1 0x0 SWAP5 DUP6 MSTORE PUSH1 0x20 SWAP1 SWAP5 KECCAK256 PUSH1 0x80 SWAP1 SWAP2 MUL SWAP3 SWAP1 SWAP3 ADD SWAP3 PUSH1 0x3 MUL SWAP1 SWAP2 ADD SWAP1 POP PUSH2 0x3DC3 DUP3 DUP3 PUSH2 0x509A JUMP JUMPDEST POP POP DUP1 DUP1 PUSH2 0x3DD0 SWAP1 PUSH2 0x4BDB JUMP JUMPDEST SWAP2 POP POP PUSH2 0x3D69 JUMP JUMPDEST POP PUSH1 0x0 DUP4 DUP2 MSTORE PUSH1 0x5 PUSH1 0x20 MSTORE PUSH1 0x40 DUP2 KECCAK256 DUP1 SLOAD PUSH1 0xFF NOT AND PUSH1 0x1 OR SWAP1 SSTORE PUSH1 0x6 DUP1 SLOAD SWAP2 PUSH2 0x3E00 DUP4 PUSH2 0x4BDB JUMP JUMPDEST SWAP1 SWAP2 SSTORE POP POP PUSH1 0x40 MLOAD DUP8 DUP2 MSTORE CALLER SWAP1 DUP5 SWAP1 PUSH1 0x0 DUP1 MLOAD PUSH1 0x20 PUSH2 0x52F5 DUP4 CODECOPY DUP2 MLOAD SWAP2 MSTORE SWAP1 PUSH1 0x20 ADD PUSH1 0x40 MLOAD DUP1 SWAP2 SUB SWAP1 LOG3 POP SWAP1 SWAP9 SWAP8 POP POP POP POP POP POP POP POP JUMP JUMPDEST PUSH1 0x40 DUP1 MLOAD PUSH1 0x20 DUP2 ADD SWAP1 SWAP2 MSTORE PUSH1 0x0 DUP1 DUP3 MSTORE SWAP1 DUP2 DUP1 JUMPDEST DUP5 PUSH1 0x40 ADD MLOAD MLOAD DUP2 LT ISZERO PUSH2 0x3E9A JUMPI DUP5 PUSH1 0x40 ADD MLOAD DUP2 DUP2 MLOAD DUP2 LT PUSH2 0x3E6F JUMPI PUSH2 0x3E6F PUSH2 0x4BAF JUMP JUMPDEST PUSH1 0x20 MUL PUSH1 0x20 ADD ADD MLOAD PUSH1 0x0 ADD MLOAD DUP3 PUSH2 0x3E86 SWAP2 SWAP1 PUSH2 0x4BF4 JUMP JUMPDEST SWAP2 POP DUP1 PUSH2 0x3E92 DUP2 PUSH2 0x4BDB JUMP JUMPDEST SWAP2 POP POP PUSH2 0x3E4C JUMP JUMPDEST POP PUSH1 0xC SLOAD DUP2 GT ISZERO PUSH2 0x3EDD JUMPI PUSH1 0x1 SWAP3 POP PUSH1 0x40 MLOAD DUP1 PUSH1 0x40 ADD PUSH1 0x40 MSTORE DUP1 PUSH1 0x18 DUP2 MSTORE PUSH1 0x20 ADD PUSH24 0x13185C99D9481D1C985B9CD858DD1A5BDB88185B5BDD5B9D PUSH1 0x42 SHL DUP2 MSTORE POP SWAP2 POP JUMPDEST PUSH1 0x80 DUP5 ADD MLOAD PUSH1 0x1 PUSH1 0x1 PUSH1 0xA0 SHL SUB AND PUSH1 0x0 SWAP1 DUP2 MSTORE PUSH1 0xF PUSH1 0x20 MSTORE PUSH1 0x40 SWAP1 KECCAK256 SLOAD PUSH2 0xE10 SWAP1 PUSH2 0x3F08 SWAP1 TIMESTAMP PUSH2 0x4F55 JUMP JUMPDEST LT ISZERO PUSH2 0x3F9B JUMPI PUSH1 0x80 DUP5 ADD MLOAD PUSH1 0x1 PUSH1 0x1 PUSH1 0xA0 SHL SUB AND PUSH1 0x0 SWAP1 DUP2 MSTORE PUSH1 0xE PUSH1 0x20 MSTORE PUSH1 0x40 DUP2 KECCAK256 DUP1 SLOAD SWAP2 PUSH2 0x3F36 DUP4 PUSH2 0x4BDB JUMP JUMPDEST SWAP1 SWAP2 SSTORE POP POP PUSH1 0xD SLOAD PUSH1 0x80 DUP6 ADD MLOAD PUSH1 0x1 PUSH1 0x1 PUSH1 0xA0 SHL SUB AND PUSH1 0x0 SWAP1 DUP2 MSTORE PUSH1 0xE PUSH1 0x20 MSTORE PUSH1 0x40 SWAP1 KECCAK256 SLOAD GT ISZERO PUSH2 0x3F96 JUMPI PUSH1 0x1 SWAP3 POP PUSH1 0x40 MLOAD DUP1 PUSH1 0x40 ADD PUSH1 0x40 MSTORE DUP1 PUSH1 0x15 DUP2 MSTORE PUSH1 0x20 ADD PUSH21 0x4672657175656E74207472616E73616374696F6E73 PUSH1 0x58 SHL DUP2 MSTORE POP SWAP2 POP JUMPDEST PUSH2 0x3FD2 JUMP JUMPDEST PUSH1 0x80 DUP5 ADD DUP1 MLOAD PUSH1 0x1 PUSH1 0x1 PUSH1 0xA0 SHL SUB SWAP1 DUP2 AND PUSH1 0x0 SWAP1 DUP2 MSTORE PUSH1 0xF PUSH1 0x20 SWAP1 DUP2 MSTORE PUSH1 0x40 DUP1 DUP4 KECCAK256 TIMESTAMP SWAP1 SSTORE SWAP4 MLOAD SWAP1 SWAP3 AND DUP2 MSTORE PUSH1 0xE SWAP1 SWAP2 MSTORE KECCAK256 PUSH1 0x1 SWAP1 SSTORE JUMPDEST PUSH1 0x0 JUMPDEST DUP5 PUSH1 0x40 ADD MLOAD MLOAD DUP2 LT ISZERO PUSH2 0x4066 JUMPI DUP5 PUSH1 0x40 ADD MLOAD DUP2 DUP2 MLOAD DUP2 LT PUSH2 0x3FF8 JUMPI PUSH2 0x3FF8 PUSH2 0x4BAF JUMP JUMPDEST PUSH1 0x20 MUL PUSH1 0x20 ADD ADD MLOAD PUSH1 0x20 ADD MLOAD PUSH1 0x1 PUSH1 0x1 PUSH1 0xA0 SHL SUB AND DUP6 PUSH1 0x80 ADD MLOAD PUSH1 0x1 PUSH1 0x1 PUSH1 0xA0 SHL SUB AND SUB PUSH2 0x4054 JUMPI PUSH1 0x1 SWAP4 POP PUSH1 0x40 MLOAD DUP1 PUSH1 0x40 ADD PUSH1 0x40 MSTORE DUP1 PUSH1 0x10 DUP2 MSTORE PUSH1 0x20 ADD PUSH16 0x29B2B633103A3930B739B0B1BA34B7B7 PUSH1 0x81 SHL DUP2 MSTORE POP SWAP3 POP PUSH2 0x4066 JUMP JUMPDEST DUP1 PUSH2 0x405E DUP2 PUSH2 0x4BDB JUMP JUMPDEST SWAP2 POP POP PUSH2 0x3FD5 JUMP JUMPDEST POP DUP3 ISZERO PUSH2 0x29A9 JUMPI PUSH1 0x11 SLOAD PUSH1 0x40 DUP1 MLOAD PUSH1 0xE0 DUP2 ADD DUP3 MSTORE DUP8 DUP2 MSTORE PUSH1 0x80 DUP8 ADD MLOAD PUSH1 0x1 PUSH1 0x1 PUSH1 0xA0 SHL SUB AND PUSH1 0x20 DUP3 ADD MSTORE DUP7 DUP3 ADD MLOAD MLOAD PUSH1 0x0 SWAP3 DUP3 ADD SWAP1 PUSH2 0x40A6 JUMPI PUSH1 0x0 PUSH2 0x40CA JUMP JUMPDEST DUP8 PUSH1 0x40 ADD MLOAD PUSH1 0x0 DUP2 MLOAD DUP2 LT PUSH2 0x40BD JUMPI PUSH2 0x40BD PUSH2 0x4BAF JUMP JUMPDEST PUSH1 0x20 MUL PUSH1 0x20 ADD ADD MLOAD PUSH1 0x20 ADD MLOAD JUMPDEST PUSH1 0x1 PUSH1 0x1 PUSH1 0xA0 SHL SUB SWAP1 DUP2 AND DUP3 MSTORE PUSH1 0x20 DUP1 DUP4 ADD DUP8 SWAP1 MSTORE PUSH1 0x40 DUP1 DUP5 ADD DUP10 SWAP1 MSTORE PUSH1 0x0 PUSH1 0x60 DUP1 DUP7 ADD DUP3 SWAP1 MSTORE TIMESTAMP PUSH1 0x80 SWAP7 DUP8 ADD MSTORE DUP9 DUP3 MSTORE PUSH1 0xB DUP5 MSTORE SWAP1 DUP3 SWAP1 KECCAK256 DUP7 MLOAD DUP2 SSTORE SWAP3 DUP7 ADD MLOAD PUSH1 0x1 DUP5 ADD DUP1 SLOAD SWAP2 DUP7 AND PUSH1 0x1 PUSH1 0x1 PUSH1 0xA0 SHL SUB NOT SWAP3 DUP4 AND OR SWAP1 SSTORE SWAP2 DUP7 ADD MLOAD PUSH1 0x2 DUP5 ADD DUP1 SLOAD SWAP2 SWAP1 SWAP6 AND SWAP3 AND SWAP2 SWAP1 SWAP2 OR SWAP1 SWAP3 SSTORE SWAP1 DUP4 ADD MLOAD PUSH1 0x3 DUP3 ADD SSTORE SWAP1 DUP3 ADD MLOAD SWAP2 SWAP3 POP DUP3 SWAP2 PUSH1 0x4 DUP3 ADD SWAP1 PUSH2 0x415B SWAP1 DUP3 PUSH2 0x4C8C JUMP JUMPDEST POP PUSH1 0xA0 DUP3 ADD MLOAD PUSH1 0x5 DUP3 ADD DUP1 SLOAD PUSH1 0xFF NOT AND SWAP2 ISZERO ISZERO SWAP2 SWAP1 SWAP2 OR SWAP1 SSTORE PUSH1 0xC0 SWAP1 SWAP2 ADD MLOAD PUSH1 0x6 SWAP1 SWAP2 ADD SSTORE PUSH1 0x40 MLOAD DUP8 SWAP1 DUP4 SWAP1 PUSH32 0x2C528BAEC717C6124A7B6043E8E53F0427FA6A08364005237DD6EAE932153C1A SWAP1 PUSH2 0x41B4 SWAP1 DUP9 SWAP1 PUSH2 0x4DA1 JUMP JUMPDEST PUSH1 0x40 MLOAD DUP1 SWAP2 SUB SWAP1 LOG3 PUSH1 0x11 DUP1 SLOAD SWAP1 PUSH1 0x0 PUSH2 0x41CC DUP4 PUSH2 0x4BDB JUMP JUMPDEST SWAP2 SWAP1 POP SSTORE POP POP POP POP POP POP POP POP JUMP JUMPDEST PUSH2 0x41E4 DUP3 DUP3 PUSH2 0x23FF JUMP JUMPDEST PUSH2 0x4213 JUMPI PUSH1 0x40 MLOAD PUSH4 0xE2517D3F PUSH1 0xE0 SHL DUP2 MSTORE PUSH1 0x1 PUSH1 0x1 PUSH1 0xA0 SHL SUB DUP3 AND PUSH1 0x4 DUP3 ADD MSTORE PUSH1 0x24 DUP2 ADD DUP4 SWAP1 MSTORE PUSH1 0x44 ADD PUSH2 0xFA7 JUMP JUMPDEST POP POP JUMP JUMPDEST PUSH1 0x40 MLOAD DUP1 PUSH1 0xA0 ADD PUSH1 0x40 MSTORE DUP1 PUSH1 0x0 DUP2 MSTORE PUSH1 0x20 ADD PUSH1 0x60 DUP2 MSTORE PUSH1 0x20 ADD PUSH1 0x60 DUP2 MSTORE PUSH1 0x20 ADD PUSH1 0x0 DUP2 MSTORE PUSH1 0x20 ADD PUSH1 0x0 PUSH1 0x1 PUSH1 0x1 PUSH1 0xA0 SHL SUB AND DUP2 MSTORE POP SWAP1 JUMP JUMPDEST POP DUP1 SLOAD PUSH2 0x425B SWAP1 PUSH2 0x4B75 JUMP JUMPDEST PUSH1 0x0 DUP3 SSTORE DUP1 PUSH1 0x1F LT PUSH2 0x426B JUMPI POP POP JUMP JUMPDEST PUSH1 0x1F ADD PUSH1 0x20 SWAP1 DIV SWAP1 PUSH1 0x0 MSTORE PUSH1 0x20 PUSH1 0x0 KECCAK256 SWAP1 DUP2 ADD SWAP1 PUSH2 0x339E SWAP2 SWAP1 PUSH2 0x42BC JUMP JUMPDEST PUSH1 0x40 MLOAD DUP1 PUSH1 0x80 ADD PUSH1 0x40 MSTORE DUP1 PUSH1 0x0 DUP2 MSTORE PUSH1 0x20 ADD PUSH1 0x0 PUSH1 0x1 PUSH1 0x1 PUSH1 0xA0 SHL SUB AND DUP2 MSTORE PUSH1 0x20 ADD PUSH1 0x0 ISZERO ISZERO DUP2 MSTORE PUSH1 0x20 ADD PUSH1 0x0 DUP2 MSTORE POP SWAP1 JUMP JUMPDEST JUMPDEST DUP1 DUP3 GT ISZERO PUSH2 0x42D1 JUMPI PUSH1 0x0 DUP2 SSTORE PUSH1 0x1 ADD PUSH2 0x42BD JUMP JUMPDEST POP SWAP1 JUMP JUMPDEST PUSH1 0x0 PUSH1 0x20 DUP3 DUP5 SUB SLT ISZERO PUSH2 0x42E7 JUMPI PUSH1 0x0 DUP1 REVERT JUMPDEST DUP2 CALLDATALOAD PUSH1 0x1 PUSH1 0x1 PUSH1 0xE0 SHL SUB NOT DUP2 AND DUP2 EQ PUSH2 0x11A2 JUMPI PUSH1 0x0 DUP1 REVERT JUMPDEST PUSH1 0x0 PUSH1 0x20 DUP3 DUP5 SUB SLT ISZERO PUSH2 0x4311 JUMPI PUSH1 0x0 DUP1 REVERT JUMPDEST POP CALLDATALOAD SWAP2 SWAP1 POP JUMP JUMPDEST PUSH1 0x0 DUP2 MLOAD DUP1 DUP5 MSTORE PUSH1 0x0 JUMPDEST DUP2 DUP2 LT ISZERO PUSH2 0x433E JUMPI PUSH1 0x20 DUP2 DUP6 ADD DUP2 ADD MLOAD DUP7 DUP4 ADD DUP3 ADD MSTORE ADD PUSH2 0x4322 JUMP JUMPDEST POP PUSH1 0x0 PUSH1 0x20 DUP3 DUP7 ADD ADD MSTORE PUSH1 0x20 PUSH1 0x1F NOT PUSH1 0x1F DUP4 ADD AND DUP6 ADD ADD SWAP2 POP POP SWAP3 SWAP2 POP POP JUMP JUMPDEST DUP8 DUP2 MSTORE DUP7 PUSH1 0x20 DUP3 ADD MSTORE PUSH1 0x1 DUP1 PUSH1 0xA0 SHL SUB DUP7 AND PUSH1 0x40 DUP3 ADD MSTORE PUSH1 0xE0 PUSH1 0x60 DUP3 ADD MSTORE PUSH1 0x0 PUSH2 0x438B PUSH1 0xE0 DUP4 ADD DUP8 PUSH2 0x4318 JUMP JUMPDEST DUP3 DUP2 SUB PUSH1 0x80 DUP5 ADD MSTORE PUSH2 0x439D DUP2 DUP8 PUSH2 0x4318 JUMP JUMPDEST PUSH1 0xA0 DUP5 ADD SWAP6 SWAP1 SWAP6 MSTORE POP POP SWAP1 ISZERO ISZERO PUSH1 0xC0 SWAP1 SWAP2 ADD MSTORE SWAP6 SWAP5 POP POP POP POP POP JUMP JUMPDEST PUSH1 0x20 DUP2 MSTORE DUP2 MLOAD PUSH1 0x20 DUP3 ADD MSTORE PUSH1 0x0 PUSH1 0x20 DUP4 ADD MLOAD PUSH1 0x1 DUP1 PUSH1 0xA0 SHL SUB DUP1 DUP3 AND PUSH1 0x40 DUP6 ADD MSTORE DUP1 PUSH1 0x40 DUP7 ADD MLOAD AND PUSH1 0x60 DUP6 ADD MSTORE POP POP PUSH1 0x60 DUP4 ADD MLOAD PUSH1 0x80 DUP4 ADD MSTORE PUSH1 0x80 DUP4 ADD MLOAD PUSH1 0xE0 PUSH1 0xA0 DUP5 ADD MSTORE PUSH2 0x440C PUSH2 0x100 DUP5 ADD DUP3 PUSH2 0x4318 JUMP JUMPDEST SWAP1 POP PUSH1 0xA0 DUP5 ADD MLOAD ISZERO ISZERO PUSH1 0xC0 DUP5 ADD MSTORE PUSH1 0xC0 DUP5 ADD MLOAD PUSH1 0xE0 DUP5 ADD MSTORE DUP1 SWAP2 POP POP SWAP3 SWAP2 POP POP JUMP JUMPDEST PUSH1 0x1 PUSH1 0x1 PUSH1 0xA0 SHL SUB DUP2 AND DUP2 EQ PUSH2 0x339E JUMPI PUSH1 0x0 DUP1 REVERT JUMPDEST PUSH1 0x0 DUP1 PUSH1 0x0 PUSH1 0x60 DUP5 DUP7 SUB SLT ISZERO PUSH2 0x4458 JUMPI PUSH1 0x0 DUP1 REVERT JUMPDEST DUP4 CALLDATALOAD PUSH2 0x4463 DUP2 PUSH2 0x442E JUMP JUMPDEST SWAP6 PUSH1 0x20 DUP6 ADD CALLDATALOAD SWAP6 POP PUSH1 0x40 SWAP1 SWAP5 ADD CALLDATALOAD SWAP4 SWAP3 POP POP POP JUMP JUMPDEST DUP1 MLOAD DUP3 MSTORE PUSH1 0x20 DUP1 DUP3 ADD MLOAD PUSH1 0x1 PUSH1 0x1 PUSH1 0xA0 SHL SUB AND SWAP1 DUP4 ADD MSTORE PUSH1 0x40 DUP1 DUP3 ADD MLOAD ISZERO ISZERO SWAP1 DUP4 ADD MSTORE PUSH1 0x60 SWAP1 DUP2 ADD MLOAD SWAP2 ADD MSTORE JUMP JUMPDEST PUSH1 0x0 DUP2 MLOAD DUP1 DUP5 MSTORE PUSH1 0x20 DUP1 DUP6 ADD SWAP5 POP DUP1 DUP5 ADD PUSH1 0x0 JUMPDEST DUP4 DUP2 LT ISZERO PUSH2 0x44E0 JUMPI PUSH2 0x44CD DUP8 DUP4 MLOAD PUSH2 0x4478 JUMP JUMPDEST PUSH1 0x80 SWAP7 SWAP1 SWAP7 ADD SWAP6 SWAP1 DUP3 ADD SWAP1 PUSH1 0x1 ADD PUSH2 0x44BA JUMP JUMPDEST POP SWAP5 SWAP6 SWAP5 POP POP POP POP POP JUMP JUMPDEST PUSH1 0x0 PUSH1 0xA0 DUP4 ADD DUP3 MLOAD DUP5 MSTORE PUSH1 0x20 DUP1 DUP5 ADD MLOAD PUSH1 0xA0 DUP3 DUP8 ADD MSTORE DUP3 DUP2 MLOAD DUP1 DUP6 MSTORE PUSH1 0xC0 DUP9 ADD SWAP2 POP PUSH1 0xC0 DUP2 PUSH1 0x5 SHL DUP10 ADD ADD SWAP5 POP DUP4 DUP4 ADD SWAP3 POP PUSH1 0x0 JUMPDEST DUP2 DUP2 LT ISZERO PUSH2 0x456E JUMPI DUP9 DUP7 SUB PUSH1 0xBF NOT ADD DUP4 MSTORE DUP4 MLOAD DUP1 MLOAD DUP8 MSTORE DUP6 DUP2 ADD MLOAD DUP7 DUP9 ADD MSTORE PUSH1 0x40 SWAP1 DUP2 ADD MLOAD PUSH1 0x60 SWAP2 DUP9 ADD DUP3 SWAP1 MSTORE SWAP1 PUSH2 0x455A DUP2 DUP10 ADD DUP4 PUSH2 0x4318 JUMP JUMPDEST SWAP8 POP POP POP SWAP3 DUP5 ADD SWAP3 SWAP2 DUP5 ADD SWAP2 PUSH1 0x1 ADD PUSH2 0x4520 JUMP JUMPDEST POP POP POP POP POP PUSH1 0x40 DUP4 ADD MLOAD DUP5 DUP3 SUB PUSH1 0x40 DUP7 ADD MSTORE PUSH2 0x458A DUP3 DUP3 PUSH2 0x44A6 JUMP JUMPDEST SWAP2 POP POP PUSH1 0x60 DUP4 ADD MLOAD PUSH1 0x60 DUP6 ADD MSTORE PUSH1 0x80 DUP4 ADD MLOAD PUSH2 0x1567 PUSH1 0x80 DUP7 ADD DUP3 PUSH1 0x1 PUSH1 0x1 PUSH1 0xA0 SHL SUB AND SWAP1 MSTORE JUMP JUMPDEST PUSH1 0x0 PUSH1 0x20 DUP1 DUP4 ADD DUP2 DUP5 MSTORE DUP1 DUP6 MLOAD DUP1 DUP4 MSTORE PUSH1 0x40 DUP7 ADD SWAP2 POP PUSH1 0x40 DUP2 PUSH1 0x5 SHL DUP8 ADD ADD SWAP3 POP DUP4 DUP8 ADD PUSH1 0x0 JUMPDEST DUP3 DUP2 LT ISZERO PUSH2 0x4606 JUMPI PUSH1 0x3F NOT DUP9 DUP7 SUB ADD DUP5 MSTORE PUSH2 0x45F4 DUP6 DUP4 MLOAD PUSH2 0x44EB JUMP JUMPDEST SWAP5 POP SWAP3 DUP6 ADD SWAP3 SWAP1 DUP6 ADD SWAP1 PUSH1 0x1 ADD PUSH2 0x45D8 JUMP JUMPDEST POP SWAP3 SWAP8 SWAP7 POP POP POP POP POP POP POP JUMP JUMPDEST PUSH1 0x0 DUP1 PUSH1 0x40 DUP4 DUP6 SUB SLT ISZERO PUSH2 0x4626 JUMPI PUSH1 0x0 DUP1 REVERT JUMPDEST DUP3 CALLDATALOAD PUSH2 0x4631 DUP2 PUSH2 0x442E JUMP JUMPDEST SWAP5 PUSH1 0x20 SWAP4 SWAP1 SWAP4 ADD CALLDATALOAD SWAP4 POP POP POP JUMP JUMPDEST PUSH1 0x0 PUSH1 0x20 DUP3 DUP5 SUB SLT ISZERO PUSH2 0x4651 JUMPI PUSH1 0x0 DUP1 REVERT JUMPDEST DUP2 CALLDATALOAD PUSH2 0x11A2 DUP2 PUSH2 0x442E JUMP JUMPDEST PUSH1 0x1 PUSH1 0x1 PUSH1 0xA0 SHL SUB DUP7 AND DUP2 MSTORE PUSH1 0xA0 PUSH1 0x20 DUP3 ADD DUP2 SWAP1 MSTORE PUSH1 0x0 SWAP1 PUSH2 0x4680 SWAP1 DUP4 ADD DUP8 PUSH2 0x4318 JUMP JUMPDEST PUSH1 0x40 DUP4 ADD SWAP6 SWAP1 SWAP6 MSTORE POP SWAP2 ISZERO ISZERO PUSH1 0x60 DUP4 ADD MSTORE PUSH1 0x80 SWAP1 SWAP2 ADD MSTORE SWAP3 SWAP2 POP POP JUMP JUMPDEST PUSH1 0x0 DUP1 PUSH1 0x40 DUP4 DUP6 SUB SLT ISZERO PUSH2 0x46B0 JUMPI PUSH1 0x0 DUP1 REVERT JUMPDEST DUP3 CALLDATALOAD SWAP2 POP PUSH1 0x20 DUP4 ADD CALLDATALOAD PUSH2 0x46C2 DUP2 PUSH2 0x442E JUMP JUMPDEST DUP1 SWAP2 POP POP SWAP3 POP SWAP3 SWAP1 POP JUMP JUMPDEST PUSH1 0x20 DUP2 MSTORE PUSH1 0x0 PUSH2 0x11A2 PUSH1 0x20 DUP4 ADD DUP5 PUSH2 0x44EB JUMP JUMPDEST DUP8 DUP2 MSTORE PUSH1 0x1 PUSH1 0x1 PUSH1 0xA0 SHL SUB DUP8 DUP2 AND PUSH1 0x20 DUP4 ADD MSTORE DUP7 AND PUSH1 0x40 DUP3 ADD MSTORE PUSH1 0x60 DUP2 ADD DUP6 SWAP1 MSTORE PUSH1 0xE0 PUSH1 0x80 DUP3 ADD DUP2 SWAP1 MSTORE PUSH1 0x0 SWAP1 PUSH2 0x4719 SWAP1 DUP4 ADD DUP7 PUSH2 0x4318 JUMP JUMPDEST SWAP4 ISZERO ISZERO PUSH1 0xA0 DUP4 ADD MSTORE POP PUSH1 0xC0 ADD MSTORE SWAP6 SWAP5 POP POP POP POP POP JUMP JUMPDEST PUSH4 0x4E487B71 PUSH1 0xE0 SHL PUSH1 0x0 MSTORE PUSH1 0x41 PUSH1 0x4 MSTORE PUSH1 0x24 PUSH1 0x0 REVERT JUMPDEST PUSH1 0x0 PUSH1 0x1 PUSH1 0x1 PUSH1 0x40 SHL SUB DUP1 DUP5 GT ISZERO PUSH2 0x475F JUMPI PUSH2 0x475F PUSH2 0x472F JUMP JUMPDEST PUSH1 0x40 MLOAD PUSH1 0x1F DUP6 ADD PUSH1 0x1F NOT SWAP1 DUP2 AND PUSH1 0x3F ADD AND DUP2 ADD SWAP1 DUP3 DUP3 GT DUP2 DUP4 LT OR ISZERO PUSH2 0x4787 JUMPI PUSH2 0x4787 PUSH2 0x472F JUMP JUMPDEST DUP2 PUSH1 0x40 MSTORE DUP1 SWAP4 POP DUP6 DUP2 MSTORE DUP7 DUP7 DUP7 ADD GT ISZERO PUSH2 0x47A0 JUMPI PUSH1 0x0 DUP1 REVERT JUMPDEST DUP6 DUP6 PUSH1 0x20 DUP4 ADD CALLDATACOPY PUSH1 0x0 PUSH1 0x20 DUP8 DUP4 ADD ADD MSTORE POP POP POP SWAP4 SWAP3 POP POP POP JUMP JUMPDEST PUSH1 0x0 DUP3 PUSH1 0x1F DUP4 ADD SLT PUSH2 0x47CB JUMPI PUSH1 0x0 DUP1 REVERT JUMPDEST PUSH2 0x11A2 DUP4 DUP4 CALLDATALOAD PUSH1 0x20 DUP6 ADD PUSH2 0x4745 JUMP JUMPDEST PUSH1 0x0 DUP1 PUSH1 0x40 DUP4 DUP6 SUB SLT ISZERO PUSH2 0x47ED JUMPI PUSH1 0x0 DUP1 REVERT JUMPDEST DUP3 CALLDATALOAD PUSH2 0x47F8 DUP2 PUSH2 0x442E JUMP JUMPDEST SWAP2 POP PUSH1 0x20 DUP4 ADD CALLDATALOAD PUSH1 0x1 PUSH1 0x1 PUSH1 0x40 SHL SUB DUP2 GT ISZERO PUSH2 0x4813 JUMPI PUSH1 0x0 DUP1 REVERT JUMPDEST PUSH2 0x481F DUP6 DUP3 DUP7 ADD PUSH2 0x47BA JUMP JUMPDEST SWAP2 POP POP SWAP3 POP SWAP3 SWAP1 POP JUMP JUMPDEST PUSH1 0x20 DUP1 DUP3 MSTORE DUP3 MLOAD DUP3 DUP3 ADD DUP2 SWAP1 MSTORE PUSH1 0x0 SWAP2 SWAP1 DUP5 DUP3 ADD SWAP1 PUSH1 0x40 DUP6 ADD SWAP1 DUP5 JUMPDEST DUP2 DUP2 LT ISZERO PUSH2 0x4861 JUMPI DUP4 MLOAD DUP4 MSTORE SWAP3 DUP5 ADD SWAP3 SWAP2 DUP5 ADD SWAP2 PUSH1 0x1 ADD PUSH2 0x4845 JUMP JUMPDEST POP SWAP1 SWAP7 SWAP6 POP POP POP POP POP POP JUMP JUMPDEST DUP1 ISZERO ISZERO DUP2 EQ PUSH2 0x339E JUMPI PUSH1 0x0 DUP1 REVERT JUMPDEST PUSH1 0x0 DUP1 PUSH1 0x0 PUSH1 0x60 DUP5 DUP7 SUB SLT ISZERO PUSH2 0x4890 JUMPI PUSH1 0x0 DUP1 REVERT JUMPDEST DUP4 CALLDATALOAD PUSH2 0x489B DUP2 PUSH2 0x442E JUMP JUMPDEST SWAP3 POP PUSH1 0x20 DUP5 ADD CALLDATALOAD PUSH1 0x1 PUSH1 0x1 PUSH1 0x40 SHL SUB DUP2 GT ISZERO PUSH2 0x48B6 JUMPI PUSH1 0x0 DUP1 REVERT JUMPDEST PUSH2 0x48C2 DUP7 DUP3 DUP8 ADD PUSH2 0x47BA JUMP JUMPDEST SWAP3 POP POP PUSH1 0x40 DUP5 ADD CALLDATALOAD PUSH2 0x48D3 DUP2 PUSH2 0x486D JUMP JUMPDEST DUP1 SWAP2 POP POP SWAP3 POP SWAP3 POP SWAP3 JUMP JUMPDEST PUSH1 0x0 DUP1 DUP4 PUSH1 0x1F DUP5 ADD SLT PUSH2 0x48F0 JUMPI PUSH1 0x0 DUP1 REVERT JUMPDEST POP DUP2 CALLDATALOAD PUSH1 0x1 PUSH1 0x1 PUSH1 0x40 SHL SUB DUP2 GT ISZERO PUSH2 0x4907 JUMPI PUSH1 0x0 DUP1 REVERT JUMPDEST PUSH1 0x20 DUP4 ADD SWAP2 POP DUP4 PUSH1 0x20 DUP3 PUSH1 0x5 SHL DUP6 ADD ADD GT ISZERO PUSH2 0x4922 JUMPI PUSH1 0x0 DUP1 REVERT JUMPDEST SWAP3 POP SWAP3 SWAP1 POP JUMP JUMPDEST PUSH1 0x0 DUP1 PUSH1 0x0 PUSH1 0x40 DUP5 DUP7 SUB SLT ISZERO PUSH2 0x493E JUMPI PUSH1 0x0 DUP1 REVERT JUMPDEST DUP4 CALLDATALOAD PUSH1 0x1 PUSH1 0x1 PUSH1 0x40 SHL SUB DUP2 GT ISZERO PUSH2 0x4954 JUMPI PUSH1 0x0 DUP1 REVERT JUMPDEST PUSH2 0x4960 DUP7 DUP3 DUP8 ADD PUSH2 0x48DE JUMP JUMPDEST SWAP1 SWAP8 SWAP1 SWAP7 POP PUSH1 0x20 SWAP6 SWAP1 SWAP6 ADD CALLDATALOAD SWAP5 SWAP4 POP POP POP POP JUMP JUMPDEST PUSH1 0x80 DUP2 ADD PUSH2 0x880 DUP3 DUP5 PUSH2 0x4478 JUMP JUMPDEST PUSH1 0x0 DUP1 PUSH1 0x0 DUP1 PUSH1 0x40 DUP6 DUP8 SUB SLT ISZERO PUSH2 0x4998 JUMPI PUSH1 0x0 DUP1 REVERT JUMPDEST DUP5 CALLDATALOAD PUSH1 0x1 PUSH1 0x1 PUSH1 0x40 SHL SUB DUP1 DUP3 GT ISZERO PUSH2 0x49AF JUMPI PUSH1 0x0 DUP1 REVERT JUMPDEST PUSH2 0x49BB DUP9 DUP4 DUP10 ADD PUSH2 0x48DE JUMP JUMPDEST SWAP1 SWAP7 POP SWAP5 POP PUSH1 0x20 DUP8 ADD CALLDATALOAD SWAP2 POP DUP1 DUP3 GT ISZERO PUSH2 0x49D4 JUMPI PUSH1 0x0 DUP1 REVERT JUMPDEST DUP2 DUP8 ADD SWAP2 POP DUP8 PUSH1 0x1F DUP4 ADD SLT PUSH2 0x49E8 JUMPI PUSH1 0x0 DUP1 REVERT JUMPDEST DUP2 CALLDATALOAD DUP2 DUP2 GT ISZERO PUSH2 0x49F7 JUMPI PUSH1 0x0 DUP1 REVERT JUMPDEST DUP9 PUSH1 0x20 DUP3 PUSH1 0x7 SHL DUP6 ADD ADD GT ISZERO PUSH2 0x4A0C JUMPI PUSH1 0x0 DUP1 REVERT JUMPDEST SWAP6 SWAP9 SWAP5 SWAP8 POP POP PUSH1 0x20 ADD SWAP5 POP POP POP JUMP JUMPDEST PUSH1 0x0 DUP1 PUSH1 0x0 PUSH1 0x60 DUP5 DUP7 SUB SLT ISZERO PUSH2 0x4A30 JUMPI PUSH1 0x0 DUP1 REVERT JUMPDEST DUP4 CALLDATALOAD SWAP3 POP PUSH1 0x20 DUP5 ADD CALLDATALOAD PUSH2 0x4A42 DUP2 PUSH2 0x486D JUMP JUMPDEST SWAP2 POP PUSH1 0x40 DUP5 ADD CALLDATALOAD PUSH1 0x1 PUSH1 0x1 PUSH1 0x40 SHL SUB DUP2 GT ISZERO PUSH2 0x4A5D JUMPI PUSH1 0x0 DUP1 REVERT JUMPDEST PUSH2 0x4A69 DUP7 DUP3 DUP8 ADD PUSH2 0x47BA JUMP JUMPDEST SWAP2 POP POP SWAP3 POP SWAP3 POP SWAP3 JUMP JUMPDEST PUSH1 0x0 DUP1 PUSH1 0x0 DUP1 PUSH1 0x80 DUP6 DUP8 SUB SLT ISZERO PUSH2 0x4A89 JUMPI PUSH1 0x0 DUP1 REVERT JUMPDEST DUP5 CALLDATALOAD SWAP4 POP PUSH1 0x20 DUP6 ADD CALLDATALOAD PUSH1 0x1 PUSH1 0x1 PUSH1 0x40 SHL SUB DUP1 DUP3 GT ISZERO PUSH2 0x4AA7 JUMPI PUSH1 0x0 DUP1 REVERT JUMPDEST PUSH2 0x4AB3 DUP9 DUP4 DUP10 ADD PUSH2 0x47BA JUMP JUMPDEST SWAP5 POP PUSH1 0x40 DUP8 ADD CALLDATALOAD SWAP2 POP DUP1 DUP3 GT ISZERO PUSH2 0x4AC9 JUMPI PUSH1 0x0 DUP1 REVERT JUMPDEST POP PUSH2 0x4AD6 DUP8 DUP3 DUP9 ADD PUSH2 0x47BA JUMP JUMPDEST SWAP3 POP POP PUSH1 0x60 DUP6 ADD CALLDATALOAD PUSH2 0x4AE7 DUP2 PUSH2 0x486D JUMP JUMPDEST SWAP4 SWAP7 SWAP3 SWAP6 POP SWAP1 SWAP4 POP POP JUMP JUMPDEST PUSH1 0x20 DUP2 MSTORE DUP2 MLOAD PUSH1 0x20 DUP3 ADD MSTORE PUSH1 0x20 DUP3 ADD MLOAD PUSH1 0x40 DUP3 ADD MSTORE PUSH1 0x1 DUP1 PUSH1 0xA0 SHL SUB PUSH1 0x40 DUP4 ADD MLOAD AND PUSH1 0x60 DUP3 ADD MSTORE PUSH1 0x0 PUSH1 0x60 DUP4 ADD MLOAD PUSH1 0xE0 PUSH1 0x80 DUP5 ADD MSTORE PUSH2 0x4B35 PUSH2 0x100 DUP5 ADD DUP3 PUSH2 0x4318 JUMP JUMPDEST SWAP1 POP PUSH1 0x80 DUP5 ADD MLOAD PUSH1 0x1F NOT DUP5 DUP4 SUB ADD PUSH1 0xA0 DUP6 ADD MSTORE PUSH2 0x4B52 DUP3 DUP3 PUSH2 0x4318 JUMP JUMPDEST SWAP2 POP POP PUSH1 0xA0 DUP5 ADD MLOAD PUSH1 0xC0 DUP5 ADD MSTORE PUSH1 0xC0 DUP5 ADD MLOAD ISZERO ISZERO PUSH1 0xE0 DUP5 ADD MSTORE DUP1 SWAP2 POP POP SWAP3 SWAP2 POP POP JUMP JUMPDEST PUSH1 0x1 DUP2 DUP2 SHR SWAP1 DUP3 AND DUP1 PUSH2 0x4B89 JUMPI PUSH1 0x7F DUP3 AND SWAP2 POP JUMPDEST PUSH1 0x20 DUP3 LT DUP2 SUB PUSH2 0x4BA9 JUMPI PUSH4 0x4E487B71 PUSH1 0xE0 SHL PUSH1 0x0 MSTORE PUSH1 0x22 PUSH1 0x4 MSTORE PUSH1 0x24 PUSH1 0x0 REVERT JUMPDEST POP SWAP2 SWAP1 POP JUMP JUMPDEST PUSH4 0x4E487B71 PUSH1 0xE0 SHL PUSH1 0x0 MSTORE PUSH1 0x32 PUSH1 0x4 MSTORE PUSH1 0x24 PUSH1 0x0 REVERT JUMPDEST PUSH4 0x4E487B71 PUSH1 0xE0 SHL PUSH1 0x0 MSTORE PUSH1 0x11 PUSH1 0x4 MSTORE PUSH1 0x24 PUSH1 0x0 REVERT JUMPDEST PUSH1 0x0 PUSH1 0x1 DUP3 ADD PUSH2 0x4BED JUMPI PUSH2 0x4BED PUSH2 0x4BC5 JUMP JUMPDEST POP PUSH1 0x1 ADD SWAP1 JUMP JUMPDEST DUP1 DUP3 ADD DUP1 DUP3 GT ISZERO PUSH2 0x880 JUMPI PUSH2 0x880 PUSH2 0x4BC5 JUMP JUMPDEST PUSH1 0x60 SWAP5 SWAP1 SWAP5 SHL PUSH1 0x1 PUSH1 0x1 PUSH1 0x60 SHL SUB NOT AND DUP5 MSTORE PUSH1 0x14 DUP5 ADD SWAP3 SWAP1 SWAP3 MSTORE PUSH1 0x34 DUP4 ADD MSTORE PUSH1 0x54 DUP3 ADD MSTORE PUSH1 0x74 ADD SWAP1 JUMP JUMPDEST PUSH1 0x1F DUP3 GT ISZERO PUSH2 0x15A2 JUMPI PUSH1 0x0 DUP2 DUP2 MSTORE PUSH1 0x20 DUP2 KECCAK256 PUSH1 0x1F DUP6 ADD PUSH1 0x5 SHR DUP2 ADD PUSH1 0x20 DUP7 LT ISZERO PUSH2 0x4C58 JUMPI POP DUP1 JUMPDEST PUSH1 0x1F DUP6 ADD PUSH1 0x5 SHR DUP3 ADD SWAP2 POP JUMPDEST DUP2 DUP2 LT ISZERO PUSH2 0x3596 JUMPI DUP3 DUP2 SSTORE PUSH1 0x1 ADD PUSH2 0x4C64 JUMP JUMPDEST PUSH1 0x0 NOT PUSH1 0x3 DUP4 SWAP1 SHL SHR NOT AND PUSH1 0x1 SWAP2 SWAP1 SWAP2 SHL OR SWAP1 JUMP JUMPDEST DUP2 MLOAD PUSH1 0x1 PUSH1 0x1 PUSH1 0x40 SHL SUB DUP2 GT ISZERO PUSH2 0x4CA5 JUMPI PUSH2 0x4CA5 PUSH2 0x472F JUMP JUMPDEST PUSH2 0x4CB9 DUP2 PUSH2 0x4CB3 DUP5 SLOAD PUSH2 0x4B75 JUMP JUMPDEST DUP5 PUSH2 0x4C31 JUMP JUMPDEST PUSH1 0x20 DUP1 PUSH1 0x1F DUP4 GT PUSH1 0x1 DUP2 EQ PUSH2 0x4CE8 JUMPI PUSH1 0x0 DUP5 ISZERO PUSH2 0x4CD6 JUMPI POP DUP6 DUP4 ADD MLOAD JUMPDEST PUSH2 0x4CE0 DUP6 DUP3 PUSH2 0x4C77 JUMP JUMPDEST DUP7 SSTORE POP PUSH2 0x3596 JUMP JUMPDEST PUSH1 0x0 DUP6 DUP2 MSTORE PUSH1 0x20 DUP2 KECCAK256 PUSH1 0x1F NOT DUP7 AND SWAP2 JUMPDEST DUP3 DUP2 LT ISZERO PUSH2 0x4D17 JUMPI DUP9 DUP7 ADD MLOAD DUP3 SSTORE SWAP5 DUP5 ADD SWAP5 PUSH1 0x1 SWAP1 SWAP2 ADD SWAP1 DUP5 ADD PUSH2 0x4CF8 JUMP JUMPDEST POP DUP6 DUP3 LT ISZERO PUSH2 0x4D35 JUMPI DUP8 DUP6 ADD MLOAD PUSH1 0x0 NOT PUSH1 0x3 DUP9 SWAP1 SHL PUSH1 0xF8 AND SHR NOT AND DUP2 SSTORE JUMPDEST POP POP POP POP POP PUSH1 0x1 SWAP1 DUP2 SHL ADD SWAP1 SSTORE POP JUMP JUMPDEST DUP3 ISZERO ISZERO DUP2 MSTORE PUSH1 0x40 PUSH1 0x20 DUP3 ADD MSTORE PUSH1 0x0 PUSH2 0x22DE PUSH1 0x40 DUP4 ADD DUP5 PUSH2 0x4318 JUMP JUMPDEST PUSH1 0x20 DUP1 DUP3 MSTORE PUSH1 0x21 SWAP1 DUP3 ADD MSTORE PUSH32 0x4163636F756E7420697320616C72656164792061207072696D6172792062616E PUSH1 0x40 DUP3 ADD MSTORE PUSH1 0x6B PUSH1 0xF8 SHL PUSH1 0x60 DUP3 ADD MSTORE PUSH1 0x80 ADD SWAP1 JUMP JUMPDEST PUSH1 0x20 DUP2 MSTORE PUSH1 0x0 PUSH2 0x11A2 PUSH1 0x20 DUP4 ADD DUP5 PUSH2 0x4318 JUMP JUMPDEST PUSH1 0x20 DUP1 DUP3 MSTORE PUSH1 0x28 SWAP1 DUP3 ADD MSTORE PUSH32 0x4163636F756E7420616C72656164792068617320757365722F656E7465727072 PUSH1 0x40 DUP3 ADD MSTORE PUSH8 0x69736520726F6C65 PUSH1 0xC0 SHL PUSH1 0x60 DUP3 ADD MSTORE PUSH1 0x80 ADD SWAP1 JUMP JUMPDEST PUSH1 0x20 DUP1 DUP3 MSTORE PUSH1 0x23 SWAP1 DUP3 ADD MSTORE PUSH32 0x4163636F756E7420697320616C72656164792061207365636F6E646172792062 PUSH1 0x40 DUP3 ADD MSTORE PUSH3 0x616E6B PUSH1 0xE8 SHL PUSH1 0x60 DUP3 ADD MSTORE PUSH1 0x80 ADD SWAP1 JUMP JUMPDEST PUSH1 0x20 DUP1 DUP3 MSTORE PUSH1 0x1D SWAP1 DUP3 ADD MSTORE PUSH32 0x53656E646572206D757374206861766520612076616C696420726F6C65000000 PUSH1 0x40 DUP3 ADD MSTORE PUSH1 0x60 ADD SWAP1 JUMP JUMPDEST PUSH1 0x40 DUP2 MSTORE PUSH1 0x0 PUSH2 0x4E89 PUSH1 0x40 DUP4 ADD DUP6 PUSH2 0x4318 JUMP JUMPDEST SWAP1 POP DUP3 ISZERO ISZERO PUSH1 0x20 DUP4 ADD MSTORE SWAP4 SWAP3 POP POP POP JUMP JUMPDEST PUSH1 0x20 DUP1 DUP3 MSTORE PUSH1 0x12 SWAP1 DUP3 ADD MSTORE PUSH18 0x2737BA103A3432902AAA2C279037BBB732B9 PUSH1 0x71 SHL PUSH1 0x40 DUP3 ADD MSTORE PUSH1 0x60 ADD SWAP1 JUMP JUMPDEST PUSH1 0x20 DUP1 DUP3 MSTORE PUSH1 0x12 SWAP1 DUP3 ADD MSTORE PUSH18 0x15551613C8185B1C9958591E481CDC195B9D PUSH1 0x72 SHL PUSH1 0x40 DUP3 ADD MSTORE PUSH1 0x60 ADD SWAP1 JUMP JUMPDEST PUSH1 0x20 DUP1 DUP3 MSTORE PUSH1 0xB SWAP1 DUP3 ADD MSTORE PUSH11 0x15551613C81B1BD8DAD959 PUSH1 0xAA SHL PUSH1 0x40 DUP3 ADD MSTORE PUSH1 0x60 ADD SWAP1 JUMP JUMPDEST PUSH1 0x40 DUP2 MSTORE PUSH1 0x14 PUSH1 0x40 DUP3 ADD MSTORE PUSH20 0x436F6E6669726D656420737573706963696F7573 PUSH1 0x60 SHL PUSH1 0x60 DUP3 ADD MSTORE PUSH1 0x80 PUSH1 0x20 DUP3 ADD MSTORE PUSH1 0x0 PUSH2 0x11A2 PUSH1 0x80 DUP4 ADD DUP5 PUSH2 0x4318 JUMP JUMPDEST DUP2 DUP2 SUB DUP2 DUP2 GT ISZERO PUSH2 0x880 JUMPI PUSH2 0x880 PUSH2 0x4BC5 JUMP JUMPDEST PUSH4 0x4E487B71 PUSH1 0xE0 SHL PUSH1 0x0 MSTORE PUSH1 0x31 PUSH1 0x4 MSTORE PUSH1 0x24 PUSH1 0x0 REVERT JUMPDEST PUSH1 0x0 DUP3 CALLDATALOAD PUSH1 0x5E NOT DUP4 CALLDATASIZE SUB ADD DUP2 SLT PUSH2 0x4F94 JUMPI PUSH1 0x0 DUP1 REVERT JUMPDEST SWAP2 SWAP1 SWAP2 ADD SWAP3 SWAP2 POP POP JUMP JUMPDEST PUSH1 0x0 PUSH1 0x60 DUP3 CALLDATASIZE SUB SLT ISZERO PUSH2 0x4FB0 JUMPI PUSH1 0x0 DUP1 REVERT JUMPDEST PUSH1 0x40 MLOAD PUSH1 0x60 DUP2 ADD PUSH1 0x1 PUSH1 0x1 PUSH1 0x40 SHL SUB DUP1 DUP3 GT DUP4 DUP4 LT OR ISZERO PUSH2 0x4FD3 JUMPI PUSH2 0x4FD3 PUSH2 0x472F JUMP JUMPDEST DUP2 PUSH1 0x40 MSTORE DUP5 CALLDATALOAD DUP4 MSTORE PUSH1 0x20 DUP6 ADD CALLDATALOAD PUSH1 0x20 DUP5 ADD MSTORE PUSH1 0x40 DUP6 ADD CALLDATALOAD SWAP2 POP DUP1 DUP3 GT ISZERO PUSH2 0x4FF9 JUMPI PUSH1 0x0 DUP1 REVERT JUMPDEST POP DUP4 ADD CALLDATASIZE PUSH1 0x1F DUP3 ADD SLT PUSH2 0x500B JUMPI PUSH1 0x0 DUP1 REVERT JUMPDEST PUSH2 0x501A CALLDATASIZE DUP3 CALLDATALOAD PUSH1 0x20 DUP5 ADD PUSH2 0x4745 JUMP JUMPDEST PUSH1 0x40 DUP4 ADD MSTORE POP SWAP3 SWAP2 POP POP JUMP JUMPDEST PUSH1 0x0 PUSH1 0x80 DUP3 DUP5 SUB SLT ISZERO PUSH2 0x5038 JUMPI PUSH1 0x0 DUP1 REVERT JUMPDEST PUSH1 0x40 MLOAD PUSH1 0x80 DUP2 ADD PUSH1 0x1 PUSH1 0x1 PUSH1 0x40 SHL SUB DUP2 GT DUP3 DUP3 LT OR ISZERO PUSH2 0x505A JUMPI PUSH2 0x505A PUSH2 0x472F JUMP JUMPDEST PUSH1 0x40 MSTORE DUP3 CALLDATALOAD DUP2 MSTORE PUSH1 0x20 DUP4 ADD CALLDATALOAD PUSH2 0x506F DUP2 PUSH2 0x442E JUMP JUMPDEST PUSH1 0x20 DUP3 ADD MSTORE PUSH1 0x40 DUP4 ADD CALLDATALOAD PUSH2 0x5082 DUP2 PUSH2 0x486D JUMP JUMPDEST PUSH1 0x40 DUP3 ADD MSTORE PUSH1 0x60 SWAP3 DUP4 ADD CALLDATALOAD SWAP3 DUP2 ADD SWAP3 SWAP1 SWAP3 MSTORE POP SWAP2 SWAP1 POP JUMP JUMPDEST DUP2 CALLDATALOAD DUP2 SSTORE PUSH1 0x1 DUP2 ADD PUSH1 0x20 DUP4 ADD CALLDATALOAD PUSH2 0x50B0 DUP2 PUSH2 0x442E JUMP JUMPDEST DUP2 SLOAD PUSH1 0x40 DUP6 ADD CALLDATALOAD PUSH2 0x50C0 DUP2 PUSH2 0x486D JUMP JUMPDEST PUSH1 0xFF PUSH1 0xA0 SHL SWAP1 ISZERO ISZERO PUSH1 0xA0 SHL AND PUSH1 0x1 PUSH1 0x1 PUSH1 0xA0 SHL SUB SWAP3 SWAP1 SWAP3 AND PUSH1 0x1 PUSH1 0x1 PUSH1 0xA8 SHL SUB NOT SWAP2 SWAP1 SWAP2 AND OR OR SWAP1 SSTORE PUSH1 0x60 SWAP2 SWAP1 SWAP2 ADD CALLDATALOAD PUSH1 0x2 SWAP1 SWAP2 ADD SSTORE JUMP JUMPDEST DUP2 CALLDATALOAD DUP2 SSTORE PUSH1 0x1 PUSH1 0x20 DUP1 DUP5 ADD CALLDATALOAD DUP3 DUP5 ADD SSTORE PUSH1 0x2 DUP4 ADD PUSH1 0x40 DUP6 ADD CALLDATALOAD PUSH1 0x1E NOT DUP7 CALLDATASIZE SUB ADD DUP2 SLT PUSH2 0x5123 JUMPI PUSH1 0x0 DUP1 REVERT JUMPDEST DUP6 ADD DUP1 CALLDATALOAD PUSH1 0x1 PUSH1 0x1 PUSH1 0x40 SHL SUB DUP2 GT ISZERO PUSH2 0x513B JUMPI PUSH1 0x0 DUP1 REVERT JUMPDEST DUP1 CALLDATASIZE SUB DUP5 DUP4 ADD SGT ISZERO PUSH2 0x514C JUMPI PUSH1 0x0 DUP1 REVERT JUMPDEST PUSH2 0x5160 DUP2 PUSH2 0x515A DUP6 SLOAD PUSH2 0x4B75 JUMP JUMPDEST DUP6 PUSH2 0x4C31 JUMP JUMPDEST PUSH1 0x0 PUSH1 0x1F DUP3 GT PUSH1 0x1 DUP2 EQ PUSH2 0x5190 JUMPI PUSH1 0x0 DUP4 ISZERO PUSH2 0x517E JUMPI POP DUP4 DUP3 ADD DUP7 ADD CALLDATALOAD JUMPDEST PUSH2 0x5188 DUP5 DUP3 PUSH2 0x4C77 JUMP JUMPDEST DUP7 SSTORE POP PUSH2 0x51E9 JUMP JUMPDEST PUSH1 0x0 DUP6 DUP2 MSTORE PUSH1 0x20 SWAP1 KECCAK256 PUSH1 0x1F NOT DUP5 AND SWAP1 DUP4 JUMPDEST DUP3 DUP2 LT ISZERO PUSH2 0x51C0 JUMPI DUP7 DUP6 ADD DUP10 ADD CALLDATALOAD DUP3 SSTORE SWAP4 DUP9 ADD SWAP4 SWAP1 DUP10 ADD SWAP1 DUP9 ADD PUSH2 0x51A1 JUMP JUMPDEST POP DUP5 DUP3 LT ISZERO PUSH2 0x51DF JUMPI PUSH1 0x0 NOT PUSH1 0xF8 DUP7 PUSH1 0x3 SHL AND SHR NOT DUP9 DUP6 DUP9 ADD ADD CALLDATALOAD AND DUP2 SSTORE JUMPDEST POP POP DUP7 DUP4 DUP9 SHL ADD DUP6 SSTORE JUMPDEST POP POP POP POP POP POP POP POP POP JUMP INVALID SWAP3 MULMOD SWAP5 0xFC EXTCODESIZE INVALID 0x28 0x2F EXTCODEHASH KECCAK256 0xCD 0xCC CALL 0xB7 0xC5 0xE4 PUSH13 0x63D963E822D98EFFF90ABD41C1 0x2E 0x21 SWAP9 DUP11 0xD2 0x49 LOG3 0xA5 PUSH25 0xF3CA7B7F03DA9FFDB25C0F9BF3684A5B8AAC97D04FC81C2107 SWAP13 0x1F 0x2F 0x4D SWAP11 SWAP2 REVERT 0xD6 0xD7 CALLER 0x21 0xB3 0xB5 DUP5 0xA7 PUSH2 0x6489 0xB9 SWAP15 DUP3 PUSH32 0xD80F998ABD6F379A412932D3B416B1E958137AA50D8C4EBE23BC919D27A2C40D PUSH14 0xB677D85D5BFE33C83020B5F7AC97 DUP15 0x5D PUSH2 0x99DE MOD BLOCKHASH EQ GT SWAP7 0xD STATICCALL DUP2 0xD2 0xF7 PUSH3 0x655F62 MOD 0xBD 0xC6 SAR CHAINID 0xFC NOT 0xE6 0xD 0xE MSTORE8 KECCAK256 LT 0x21 PUSH18 0x6A89723FE8A67E0588C5489401E7FAEED537 SWAP15 MSTORE ADDMOD 0x27 0x28 PUSH10 0xAC14823911F2DA1B49F0 GASLIMIT LOG0 SWAP3 SWAP11 PUSH1 0xB8 0xC1 CALLCODE 0xA7 0xFC DUP13 MOD 0xC7 0x28 0x4C LOG3 0xE8 0xAB 0x4E NOT GASPRICE ADDMOD 0xC8 OR SWAP13 INVALID 0xEA PUSH17 0xBFBADFC00A9B19F8CC0D49AB2A2B6854D1 SHL LOG2 EQ SWAP13 PUSH25 0x8F659E83ACFD27D176B6EBB21E0182C0E43DF5818E0D632867 0xE1 0xEB SELFBALANCE 0xC3 DUP4 0xC5 DUP14 0x22 SLT SDIV 0xFC 0xE3 MUL SLT SWAP14 MSTORE 0xC4 0x26 0xAC SHL DUP12 0xB3 PUSH8 0x45C8D2212568F7 DELEGATECALL SIGNEXTEND 0x49 DUP13 SLOAD 0x24 0xC5 PUSH30 0xC5691C22A1A2646970667358221220EE04334A5080450B5DA782544FF126 GASPRICE 0xDE 0x4D PUSH3 0x3A52EE 0xF8 0xC3 0xFB KECCAK256 0xDE COINBASE 0xD5 0xE9 0xBE GASLIMIT PUSH5 0x736F6C6343 STOP ADDMOD EQ STOP CALLER ORIGIN 0xD3 0xB4 AND 0xB1 0xE9 PC SGT PUSH27 0xA50D8C4EBE23BC919D27A2C40D6DB677D85D5BFE33C83000000000 "},"methodIdentifiers":{"DEFAULT_ADMIN_ROLE()":"a217fddf","ENTERPRISE_ROLE()":"68dd17a5","FREQUENT_TRANSACTION_THRESHOLD()":"780991bd","LARGE_TRANSACTION_THRESHOLD()":"81693d27","MAX_SUPPLY()":"32cb6b0c","PRIMARY_BANK_ROLE()":"e206ba50","REGULATOR_ROLE()":"144bf589","SECONDARY_BANK_ROLE()":"c5fbb610","USER_ROLE()":"13119161","VALIDATOR_ROLE()":"c49baebe","addressAuditReports(address,uint256)":"3ceaf7e9","addressUTXOs(address,uint256)":"8001cfe5","assignEnterprise(address,string)":"7304c588","assignRegulator(address,string)":"cf850c8d","assignSecondaryBank(address,string)":"5cead0e9","assignUser(address,string)":"658a4823","auditReports(uint256)":"0daf71ac","auditTransaction(uint256,string,string,bool)":"f74577d5","auditedTransactions(uint256)":"8e598f18","convertAccountToUTXO(uint256)":"8805ce35","convertUTXOToAccount(uint256[],uint256)":"d3138255","createTransaction((uint256,uint256,bytes)[],(uint256,address,bool,uint256)[])":"e0b99a2d","generateAddressAuditReport(address,string)":"5a3c61eb","getAddressAuditReports(address)":"76ad18b9","getAddressBalance(address)":"35046722","getAddressUTXOs(address)":"a43ef956","getAuditReport(uint256)":"f8031e90","getRoleAdmin(bytes32)":"248a9ca3","getRoleLevel(address)":"c8aee754","getSuspiciousTransaction(uint256)":"16d6d2c4","getTransaction(uint256)":"33ea3dc8","getTransactionHistory(address,uint256,uint256)":"197277fd","getUTXODetails(uint256)":"d980d735","grantRole(bytes32,address)":"2f2ff15d","hasRole(bytes32,address)":"91d14854","hasValidRole(address)":"217b8ee9","investigateSuspiciousTransaction(uint256,bool,string)":"ecc6152c","mint(address,uint256)":"40c10f19","recentTransactionCount(address)":"c2f959c3","recentTransactionWindow(address)":"ffe4c2d3","renounceRole(bytes32,address)":"36568abe","reportCounter()":"b9bc38f2","revokeRole(address,bytes32)":"208dd1ff","revokeRole(bytes32,address)":"d547741f","roleInfo(address)":"24f13320","setFrequentTransactionThreshold(uint256)":"612999d5","setLargeTransactionThreshold(uint256)":"17302eb9","supportsInterface(bytes4)":"01ffc9a7","suspiciousCounter()":"7b19f48c","suspiciousTransactions(uint256)":"3fd4c11b","totalSupply()":"18160ddd","transactions(uint256)":"9ace38c2","txCounter()":"74f079b8","txIdExists(uint256)":"3409d8f6","updateRoleInfo(address,string,bool)":"9859199d","utxos(uint256)":"81591387","validatePermission(address,uint256)":"7c0f8882"}}}}}