{"contracts/AccessControl.sol":{"CDBCAccessControl":{"abi":[{"inputs":[],"stateMutability":"nonpayable","type":"constructor"},{"inputs":[],"name":"AccessControlBadConfirmation","type":"error"},{"inputs":[{"internalType":"address","name":"account","type":"address"},{"internalType":"bytes32","name":"neededRole","type":"bytes32"}],"name":"AccessControlUnauthorizedAccount","type":"error"},{"anonymous":false,"inputs":[{"indexed":true,"internalType":"bytes32","name":"role","type":"bytes32"},{"indexed":true,"internalType":"bytes32","name":"previousAdminRole","type":"bytes32"},{"indexed":true,"internalType":"bytes32","name":"newAdminRole","type":"bytes32"}],"name":"RoleAdminChanged","type":"event"},{"anonymous":false,"inputs":[{"indexed":true,"internalType":"address","name":"account","type":"address"},{"indexed":true,"internalType":"bytes32","name":"role","type":"bytes32"},{"indexed":false,"internalType":"string","name":"name","type":"string"}],"name":"RoleAssigned","type":"event"},{"anonymous":false,"inputs":[{"indexed":true,"internalType":"bytes32","name":"role","type":"bytes32"},{"indexed":true,"internalType":"address","name":"account","type":"address"},{"indexed":true,"internalType":"address","name":"sender","type":"address"}],"name":"RoleGranted","type":"event"},{"anonymous":false,"inputs":[{"indexed":true,"internalType":"bytes32","name":"role","type":"bytes32"},{"indexed":true,"internalType":"address","name":"account","type":"address"},{"indexed":true,"internalType":"address","name":"sender","type":"address"}],"name":"RoleRevoked","type":"event"},{"anonymous":false,"inputs":[{"indexed":true,"internalType":"address","name":"account","type":"address"},{"indexed":true,"internalType":"bytes32","name":"role","type":"bytes32"}],"name":"RoleRevoked","type":"event"},{"anonymous":false,"inputs":[{"indexed":true,"internalType":"address","name":"account","type":"address"},{"indexed":false,"internalType":"string","name":"name","type":"string"},{"indexed":false,"internalType":"bool","name":"active","type":"bool"}],"name":"RoleUpdated","type":"event"},{"inputs":[],"name":"DEFAULT_ADMIN_ROLE","outputs":[{"internalType":"bytes32","name":"","type":"bytes32"}],"stateMutability":"view","type":"function"},{"inputs":[],"name":"ENTERPRISE_ROLE","outputs":[{"internalType":"bytes32","name":"","type":"bytes32"}],"stateMutability":"view","type":"function"},{"inputs":[],"name":"PRIMARY_BANK_ROLE","outputs":[{"internalType":"bytes32","name":"","type":"bytes32"}],"stateMutability":"view","type":"function"},{"inputs":[],"name":"REGULATOR_ROLE","outputs":[{"internalType":"bytes32","name":"","type":"bytes32"}],"stateMutability":"view","type":"function"},{"inputs":[],"name":"SECONDARY_BANK_ROLE","outputs":[{"internalType":"bytes32","name":"","type":"bytes32"}],"stateMutability":"view","type":"function"},{"inputs":[],"name":"USER_ROLE","outputs":[{"internalType":"bytes32","name":"","type":"bytes32"}],"stateMutability":"view","type":"function"},{"inputs":[],"name":"VALIDATOR_ROLE","outputs":[{"internalType":"bytes32","name":"","type":"bytes32"}],"stateMutability":"view","type":"function"},{"inputs":[{"internalType":"address","name":"account","type":"address"},{"internalType":"string","name":"name","type":"string"}],"name":"assignEnterprise","outputs":[],"stateMutability":"nonpayable","type":"function"},{"inputs":[{"internalType":"address","name":"account","type":"address"},{"internalType":"string","name":"name","type":"string"}],"name":"assignRegulator","outputs":[],"stateMutability":"nonpayable","type":"function"},{"inputs":[{"internalType":"address","name":"account","type":"address"},{"internalType":"string","name":"name","type":"string"}],"name":"assignSecondaryBank","outputs":[],"stateMutability":"nonpayable","type":"function"},{"inputs":[{"internalType":"address","name":"account","type":"address"},{"internalType":"string","name":"name","type":"string"}],"name":"assignUser","outputs":[],"stateMutability":"nonpayable","type":"function"},{"inputs":[{"internalType":"bytes32","name":"role","type":"bytes32"}],"name":"getRoleAdmin","outputs":[{"internalType":"bytes32","name":"","type":"bytes32"}],"stateMutability":"view","type":"function"},{"inputs":[{"internalType":"address","name":"account","type":"address"}],"name":"getRoleLevel","outputs":[{"internalType":"uint256","name":"","type":"uint256"}],"stateMutability":"view","type":"function"},{"inputs":[{"internalType":"bytes32","name":"role","type":"bytes32"},{"internalType":"address","name":"account","type":"address"}],"name":"grantRole","outputs":[],"stateMutability":"nonpayable","type":"function"},{"inputs":[{"internalType":"bytes32","name":"role","type":"bytes32"},{"internalType":"address","name":"account","type":"address"}],"name":"hasRole","outputs":[{"internalType":"bool","name":"","type":"bool"}],"stateMutability":"view","type":"function"},{"inputs":[{"internalType":"address","name":"account","type":"address"}],"name":"hasValidRole","outputs":[{"internalType":"bool","name":"","type":"bool"}],"stateMutability":"view","type":"function"},{"inputs":[{"internalType":"bytes32","name":"role","type":"bytes32"},{"internalType":"address","name":"callerConfirmation","type":"address"}],"name":"renounceRole","outputs":[],"stateMutability":"nonpayable","type":"function"},{"inputs":[{"internalType":"address","name":"account","type":"address"},{"internalType":"bytes32","name":"role","type":"bytes32"}],"name":"revokeRole","outputs":[],"stateMutability":"nonpayable","type":"function"},{"inputs":[{"internalType":"bytes32","name":"role","type":"bytes32"},{"internalType":"address","name":"account","type":"address"}],"name":"revokeRole","outputs":[],"stateMutability":"nonpayable","type":"function"},{"inputs":[{"internalType":"address","name":"","type":"address"}],"name":"roleInfo","outputs":[{"internalType":"address","name":"addr","type":"address"},{"internalType":"string","name":"name","type":"string"},{"internalType":"uint256","name":"level","type":"uint256"},{"internalType":"bool","name":"active","type":"bool"},{"internalType":"uint256","name":"createdAt","type":"uint256"}],"stateMutability":"view","type":"function"},{"inputs":[{"internalType":"bytes4","name":"interfaceId","type":"bytes4"}],"name":"supportsInterface","outputs":[{"internalType":"bool","name":"","type":"bool"}],"stateMutability":"view","type":"function"},{"inputs":[{"internalType":"address","name":"account","type":"address"},{"internalType":"string","name":"name","type":"string"},{"internalType":"bool","name":"active","type":"bool"}],"name":"updateRoleInfo","outputs":[],"stateMutability":"nonpayable","type":"function"},{"inputs":[{"internalType":"address","name":"account","type":"address"},{"internalType":"uint256","name":"requiredLevel","type":"uint256"}],"name":"validatePermission","outputs":[{"internalType":"bool","name":"","type":"bool"}],"stateMutability":"view","type":"function"}],"evm":{"bytecode":{"linkReferences":{},"object":"60806040523480156200001157600080fd5b506200001f60003362000167565b506200003b60008051602062001b958339815191523362000167565b506040805160a0810182523380825282518084018452600b81526a5072696d61727942616e6b60a81b60208083019190915280840191825260018486018190526060850181905242608086015260009384529081905293909120825181546001600160a01b0319166001600160a01b0390911617815590519192909190820190620000c79082620002bb565b506040828101516002830155606083015160038301805491151560ff199092169190911790556080909201516004909101555160008051602062001b958339815191529033907f988ad249a3a578f3ca7b7f03da9ffdb25c0f9bf3684a5b8aac97d04fc81c21079062000159906020808252600b908201526a5072696d61727942616e6b60a81b604082015260600190565b60405180910390a362000387565b6000828152602081815260408083206001600160a01b038516845290915281205460ff166200020c576000838152602081815260408083206001600160a01b03861684529091529020805460ff19166001179055620001c33390565b6001600160a01b0316826001600160a01b0316847f2f8788117e7eff1d82e926ec794901d17c78024a50270940304540a733656f0d60405160405180910390a450600162000210565b5060005b92915050565b634e487b7160e01b600052604160045260246000fd5b600181811c908216806200024157607f821691505b6020821081036200026257634e487b7160e01b600052602260045260246000fd5b50919050565b601f821115620002b657600081815260208120601f850160051c81016020861015620002915750805b601f850160051c820191505b81811015620002b2578281556001016200029d565b5050505b505050565b81516001600160401b03811115620002d757620002d762000216565b620002ef81620002e884546200022c565b8462000268565b602080601f8311600181146200032757600084156200030e5750858301515b600019600386901b1c1916600185901b178555620002b2565b600085815260208120601f198616915b82811015620003585788860151825594840194600190910190840162000337565b5085821015620003775787850151600019600388901b60f8161c191681555b5050505050600190811b01905550565b6117fe80620003976000396000f3fe608060405234801561001057600080fd5b506004361061011d5760003560e01c806301ffc9a714610122578063131191611461014a578063144bf5891461016d578063208dd1ff14610182578063217b8ee914610197578063248a9ca3146101aa57806324f13320146101bd5780632f2ff15d146101e157806336568abe146101f45780635cead0e914610207578063658a48231461021a57806368dd17a51461022d5780637304c588146102425780637c0f88821461025557806391d14854146102685780639859199d1461027b578063a217fddf1461028e578063c49baebe14610296578063c5fbb610146102bd578063c8aee754146102d2578063cf850c8d146102fe578063d547741f14610311578063e206ba5014610324575b600080fd5b610135610130366004611212565b610339565b60405190151581526020015b60405180910390f35b61015f60008051602061178983398151915281565b604051908152602001610141565b61015f60008051602061176983398151915281565b610195610190366004611258565b610370565b005b6101356101a5366004611282565b6104d1565b61015f6101b836600461129d565b6105dd565b6101d06101cb366004611282565b6105f2565b6040516101419594939291906112fc565b6101956101ef36600461133d565b6106ba565b61019561020236600461133d565b6106dc565b61019561021536600461140b565b610714565b61019561022836600461140b565b6108cf565b61015f60008051602061170983398151915281565b61019561025036600461140b565b610a93565b610135610263366004611258565b610c57565b61013561027636600461133d565b610d5f565b610195610289366004611458565b610d88565b61015f600081565b61015f7f21702c8af46127c7fa207f89d0b0a8441bb32959a0ac7df790e9ab1a25c9892681565b61015f6000805160206117a983398151915281565b61015f6102e0366004611282565b6001600160a01b031660009081526001602052604090206002015490565b61019561030c36600461140b565b610ef2565b61019561031f36600461133d565b611065565b61015f60008051602061174983398151915281565b60006001600160e01b03198216637965db0b60e01b148061036a57506301ffc9a760e01b6001600160e01b03198316145b92915050565b61038860008051602061174983398151915233610d5f565b6103e45760405162461bcd60e51b815260206004820152602260248201527f4f6e6c79207072696d6172792062616e6b2063616e207265766f6b6520726f6c604482015261657360f01b60648201526084015b60405180910390fd5b6103ee8183610d5f565b61043a5760405162461bcd60e51b815260206004820152601e60248201527f4163636f756e7420646f6573206e6f7420686176652074686520726f6c65000060448201526064016103db565b610444818361107d565b506001600160a01b0382166000908152600160208190526040822080546001600160a01b0319168155919061047b908301826111c4565b5060006002820181905560038201805460ff19169055600490910181905560405182916001600160a01b038516917fea83a7caef01824e96446a8c4bc8ff4669edd99e129b53e32c077f85d21680819190a35050565b6001600160a01b038082166000908152600160208181526040808420815160a0810190925280549095168152918401805493948594909284019190610515906114be565b80601f0160208091040260200160405190810160405280929190818152602001828054610541906114be565b801561058e5780601f106105635761010080835404028352916020019161058e565b820191906000526020600020905b81548152906001019060200180831161057157829003601f168201915b505050918352505060028201546020820152600382015460ff161515604082015260049091015460609182015281015190915080156105d6575080516001600160a01b031615155b9392505050565b60009081526020819052604090206001015490565b6001602081905260009182526040909120805491810180546001600160a01b039093169261061f906114be565b80601f016020809104026020016040519081016040528092919081815260200182805461064b906114be565b80156106985780601f1061066d57610100808354040283529160200191610698565b820191906000526020600020905b81548152906001019060200180831161067b57829003601f168201915b50505050600283015460038401546004909401549293909260ff909116915085565b6106c3826105dd565b6106cc816110f0565b6106d683836110fd565b50505050565b6001600160a01b03811633146107055760405163334bd91960e11b815260040160405180910390fd5b61070f828261107d565b505050565b60008051602061174983398151915261072c816110f0565b6107446000805160206117a983398151915284610d5f565b156107a15760405162461bcd60e51b815260206004820152602760248201527f4163636f756e7420616c726561647920686173207365636f6e646172792062616044820152666e6b20726f6c6560c81b60648201526084016103db565b6107b960008051602061174983398151915284610d5f565b156107d65760405162461bcd60e51b81526004016103db906114f8565b6107ee6000805160206117a9833981519152846110fd565b506040805160a0810182526001600160a01b03858116808352602080840187815260028587015260016060860181905242608087015260009384529182905294909120835181546001600160a01b03191693169290921782559251919290919082019061085b9082611587565b506040828101516002830155606083015160038301805460ff1916911515919091179055608090920151600490910155516000805160206117a9833981519152906001600160a01b03851690600080516020611729833981519152906108c2908690611646565b60405180910390a3505050565b6000805160206117a98339815191526108e7816110f0565b6108ff60008051602061178983398151915284610d5f565b158015610921575061091f60008051602061170983398151915284610d5f565b155b61093d5760405162461bcd60e51b81526004016103db90611659565b6109556000805160206117a983398151915284610d5f565b156109725760405162461bcd60e51b81526004016103db906116a1565b61098a60008051602061174983398151915284610d5f565b156109a75760405162461bcd60e51b81526004016103db906114f8565b6109bf600080516020611789833981519152846110fd565b506040805160a0810182526001600160a01b03858116808352602080840187815260038587015260016060860181905242608087015260009384529182905294909120835181546001600160a01b031916931692909217825592519192909190820190610a2c9082611587565b506040828101516002830155606083015160038301805460ff191691151591909117905560809092015160049091015551600080516020611789833981519152906001600160a01b03851690600080516020611729833981519152906108c2908690611646565b6000805160206117a9833981519152610aab816110f0565b610ac360008051602061178983398151915284610d5f565b158015610ae55750610ae360008051602061170983398151915284610d5f565b155b610b015760405162461bcd60e51b81526004016103db90611659565b610b196000805160206117a983398151915284610d5f565b15610b365760405162461bcd60e51b81526004016103db906116a1565b610b4e60008051602061174983398151915284610d5f565b15610b6b5760405162461bcd60e51b81526004016103db906114f8565b610b83600080516020611709833981519152846110fd565b506040805160a0810182526001600160a01b03858116808352602080840187815260038587015260016060860181905242608087015260009384529182905294909120835181546001600160a01b031916931692909217825592519192909190820190610bf09082611587565b506040828101516002830155606083015160038301805460ff191691151591909117905560809092015160049091015551600080516020611709833981519152906001600160a01b03851690600080516020611729833981519152906108c2908690611646565b6001600160a01b038083166000908152600160208181526040808420815160a0810190925280549095168152918401805493948594909284019190610c9b906114be565b80601f0160208091040260200160405190810160405280929190818152602001828054610cc7906114be565b8015610d145780601f10610ce957610100808354040283529160200191610d14565b820191906000526020600020905b815481529060010190602001808311610cf757829003601f168201915b505050918352505060028201546020820152600382015460ff16151560408201526004909101546060918201528101519091508015610d57575082816040015111155b949350505050565b6000918252602082815260408084206001600160a01b0393909316845291905290205460ff1690565b610da060008051602061174983398151915233610d5f565b80610dbe5750610dbe6000805160206117a983398151915233610d5f565b610e085760405162461bcd60e51b815260206004820152601b60248201527a4f6e6c792062616e6b732063616e2075706461746520726f6c657360281b60448201526064016103db565b6001600160a01b0383811660009081526001602052604090205416610e6e5760405162461bcd60e51b815260206004820152601c60248201527b4163636f756e7420646f6573206e6f742068617665206120726f6c6560201b60448201526064016103db565b6001600160a01b0383166000908152600160208190526040909120908101610e968482611587565b5060038101805460ff19168315151790556040516001600160a01b038516907fc4d12f4fed3c7d8e40b10b954dc4b19c26000388e17fd31b4af750dd33b4166490610ee490869086906116e4565b60405180910390a250505050565b600080516020611749833981519152610f0a816110f0565b610f2260008051602061176983398151915284610d5f565b15610f7a5760405162461bcd60e51b815260206004820152602260248201527f4163636f756e7420616c72656164792068617320726567756c61746f7220726f6044820152616c6560f01b60648201526084016103db565b610f92600080516020611769833981519152846110fd565b506040805160a0810182526001600160a01b038581168083526020808401878152600085870181905260016060870181905242608088015293815291839052949020835181546001600160a01b031916931692909217825592519192909190820190610ffe9082611587565b506040828101516002830155606083015160038301805460ff191691151591909117905560809092015160049091015551600080516020611769833981519152906001600160a01b03851690600080516020611729833981519152906108c2908690611646565b61106e826105dd565b611077816110f0565b6106d683835b60006110898383610d5f565b156110e8576000838152602081815260408083206001600160a01b0386168085529252808320805460ff1916905551339286917ff6391f5c32d9c69d2a47ea670b442974b53935d1edc7fd64eb21e047a839171b9190a450600161036a565b50600061036a565b6110fa8133611187565b50565b60006111098383610d5f565b6110e8576000838152602081815260408083206001600160a01b03861684529091529020805460ff1916600117905561113f3390565b6001600160a01b0316826001600160a01b0316847f2f8788117e7eff1d82e926ec794901d17c78024a50270940304540a733656f0d60405160405180910390a450600161036a565b6111918282610d5f565b6111c05760405163e2517d3f60e01b81526001600160a01b0382166004820152602481018390526044016103db565b5050565b5080546111d0906114be565b6000825580601f106111e0575050565b601f0160209004906000526020600020908101906110fa91905b8082111561120e57600081556001016111fa565b5090565b60006020828403121561122457600080fd5b81356001600160e01b0319811681146105d657600080fd5b80356001600160a01b038116811461125357600080fd5b919050565b6000806040838503121561126b57600080fd5b6112748361123c565b946020939093013593505050565b60006020828403121561129457600080fd5b6105d68261123c565b6000602082840312156112af57600080fd5b5035919050565b6000815180845260005b818110156112dc576020818501810151868301820152016112c0565b506000602082860101526020601f19601f83011685010191505092915050565b6001600160a01b038616815260a060208201819052600090611320908301876112b6565b604083019590955250911515606083015260809091015292915050565b6000806040838503121561135057600080fd5b823591506113606020840161123c565b90509250929050565b634e487b7160e01b600052604160045260246000fd5b600082601f83011261139057600080fd5b81356001600160401b03808211156113aa576113aa611369565b604051601f8301601f19908116603f011681019082821181831017156113d2576113d2611369565b816040528381528660208588010111156113eb57600080fd5b836020870160208301376000602085830101528094505050505092915050565b6000806040838503121561141e57600080fd5b6114278361123c565b915060208301356001600160401b0381111561144257600080fd5b61144e8582860161137f565b9150509250929050565b60008060006060848603121561146d57600080fd5b6114768461123c565b925060208401356001600160401b0381111561149157600080fd5b61149d8682870161137f565b925050604084013580151581146114b357600080fd5b809150509250925092565b600181811c908216806114d257607f821691505b6020821081036114f257634e487b7160e01b600052602260045260246000fd5b50919050565b60208082526021908201527f4163636f756e7420697320616c72656164792061207072696d6172792062616e6040820152606b60f81b606082015260800190565b601f82111561070f57600081815260208120601f850160051c810160208610156115605750805b601f850160051c820191505b8181101561157f5782815560010161156c565b505050505050565b81516001600160401b038111156115a0576115a0611369565b6115b4816115ae84546114be565b84611539565b602080601f8311600181146115e957600084156115d15750858301515b600019600386901b1c1916600185901b17855561157f565b600085815260208120601f198616915b82811015611618578886015182559484019460019091019084016115f9565b50858210156116365787850151600019600388901b60f8161c191681555b5050505050600190811b01905550565b6020815260006105d660208301846112b6565b60208082526028908201527f4163636f756e7420616c72656164792068617320757365722f656e746572707260408201526769736520726f6c6560c01b606082015260800190565b60208082526023908201527f4163636f756e7420697320616c72656164792061207365636f6e646172792062604082015262616e6b60e81b606082015260800190565b6040815260006116f760408301856112b6565b90508215156020830152939250505056fe920994fc3bfe282f3f20cdccf1b7c5e46c63d963e822d98efff90abd41c12e21988ad249a3a578f3ca7b7f03da9ffdb25c0f9bf3684a5b8aac97d04fc81c210732d3b416b1e958137aa50d8c4ebe23bc919d27a2c40d6db677d85d5bfe33c83020b5f7ac978e5d6199de06401411960dfa81d2f762655f6206bdc61d46fc19e614823911f2da1b49f045a0929a60b8c1f2a7fc8c06c7284ca3e8ab4e193a08c8179cfeea70bfbadfc00a9b19f8cc0d49ab2a2b6854d11ba2149c788f659e83aca2646970667358221220888f4fedc17be7a30388ad4d2bf33f1f20a38196f52eaba9b225608e825a67dc64736f6c6343000814003332d3b416b1e958137aa50d8c4ebe23bc919d27a2c40d6db677d85d5bfe33c830","opcodes":"PUSH1 0x80 PUSH1 0x40 MSTORE CALLVALUE DUP1 ISZERO PUSH3 0x11 JUMPI PUSH1 0x0 DUP1 REVERT JUMPDEST POP PUSH3 0x1F PUSH1 0x0 CALLER PUSH3 0x167 JUMP JUMPDEST POP PUSH3 0x3B PUSH1 0x0 DUP1 MLOAD PUSH1 0x20 PUSH3 0x1B95 DUP4 CODECOPY DUP2 MLOAD SWAP2 MSTORE CALLER PUSH3 0x167 JUMP JUMPDEST POP PUSH1 0x40 DUP1 MLOAD PUSH1 0xA0 DUP2 ADD DUP3 MSTORE CALLER DUP1 DUP3 MSTORE DUP3 MLOAD DUP1 DUP5 ADD DUP5 MSTORE PUSH1 0xB DUP2 MSTORE PUSH11 0x5072696D61727942616E6B PUSH1 0xA8 SHL PUSH1 0x20 DUP1 DUP4 ADD SWAP2 SWAP1 SWAP2 MSTORE DUP1 DUP5 ADD SWAP2 DUP3 MSTORE PUSH1 0x1 DUP5 DUP7 ADD DUP2 SWAP1 MSTORE PUSH1 0x60 DUP6 ADD DUP2 SWAP1 MSTORE TIMESTAMP PUSH1 0x80 DUP7 ADD MSTORE PUSH1 0x0 SWAP4 DUP5 MSTORE SWAP1 DUP2 SWAP1 MSTORE SWAP4 SWAP1 SWAP2 KECCAK256 DUP3 MLOAD DUP2 SLOAD PUSH1 0x1 PUSH1 0x1 PUSH1 0xA0 SHL SUB NOT AND PUSH1 0x1 PUSH1 0x1 PUSH1 0xA0 SHL SUB SWAP1 SWAP2 AND OR DUP2 SSTORE SWAP1 MLOAD SWAP2 SWAP3 SWAP1 SWAP2 SWAP1 DUP3 ADD SWAP1 PUSH3 0xC7 SWAP1 DUP3 PUSH3 0x2BB JUMP JUMPDEST POP PUSH1 0x40 DUP3 DUP2 ADD MLOAD PUSH1 0x2 DUP4 ADD SSTORE PUSH1 0x60 DUP4 ADD MLOAD PUSH1 0x3 DUP4 ADD DUP1 SLOAD SWAP2 ISZERO ISZERO PUSH1 0xFF NOT SWAP1 SWAP3 AND SWAP2 SWAP1 SWAP2 OR SWAP1 SSTORE PUSH1 0x80 SWAP1 SWAP3 ADD MLOAD PUSH1 0x4 SWAP1 SWAP2 ADD SSTORE MLOAD PUSH1 0x0 DUP1 MLOAD PUSH1 0x20 PUSH3 0x1B95 DUP4 CODECOPY DUP2 MLOAD SWAP2 MSTORE SWAP1 CALLER SWAP1 PUSH32 0x988AD249A3A578F3CA7B7F03DA9FFDB25C0F9BF3684A5B8AAC97D04FC81C2107 SWAP1 PUSH3 0x159 SWAP1 PUSH1 0x20 DUP1 DUP3 MSTORE PUSH1 0xB SWAP1 DUP3 ADD MSTORE PUSH11 0x5072696D61727942616E6B PUSH1 0xA8 SHL PUSH1 0x40 DUP3 ADD MSTORE PUSH1 0x60 ADD SWAP1 JUMP JUMPDEST PUSH1 0x40 MLOAD DUP1 SWAP2 SUB SWAP1 LOG3 PUSH3 0x387 JUMP JUMPDEST PUSH1 0x0 DUP3 DUP2 MSTORE PUSH1 0x20 DUP2 DUP2 MSTORE PUSH1 0x40 DUP1 DUP4 KECCAK256 PUSH1 0x1 PUSH1 0x1 PUSH1 0xA0 SHL SUB DUP6 AND DUP5 MSTORE SWAP1 SWAP2 MSTORE DUP2 KECCAK256 SLOAD PUSH1 0xFF AND PUSH3 0x20C JUMPI PUSH1 0x0 DUP4 DUP2 MSTORE PUSH1 0x20 DUP2 DUP2 MSTORE PUSH1 0x40 DUP1 DUP4 KECCAK256 PUSH1 0x1 PUSH1 0x1 PUSH1 0xA0 SHL SUB DUP7 AND DUP5 MSTORE SWAP1 SWAP2 MSTORE SWAP1 KECCAK256 DUP1 SLOAD PUSH1 0xFF NOT AND PUSH1 0x1 OR SWAP1 SSTORE PUSH3 0x1C3 CALLER SWAP1 JUMP JUMPDEST PUSH1 0x1 PUSH1 0x1 PUSH1 0xA0 SHL SUB AND DUP3 PUSH1 0x1 PUSH1 0x1 PUSH1 0xA0 SHL SUB AND DUP5 PUSH32 0x2F8788117E7EFF1D82E926EC794901D17C78024A50270940304540A733656F0D PUSH1 0x40 MLOAD PUSH1 0x40 MLOAD DUP1 SWAP2 SUB SWAP1 LOG4 POP PUSH1 0x1 PUSH3 0x210 JUMP JUMPDEST POP PUSH1 0x0 JUMPDEST SWAP3 SWAP2 POP POP JUMP JUMPDEST PUSH4 0x4E487B71 PUSH1 0xE0 SHL PUSH1 0x0 MSTORE PUSH1 0x41 PUSH1 0x4 MSTORE PUSH1 0x24 PUSH1 0x0 REVERT JUMPDEST PUSH1 0x1 DUP2 DUP2 SHR SWAP1 DUP3 AND DUP1 PUSH3 0x241 JUMPI PUSH1 0x7F DUP3 AND SWAP2 POP JUMPDEST PUSH1 0x20 DUP3 LT DUP2 SUB PUSH3 0x262 JUMPI PUSH4 0x4E487B71 PUSH1 0xE0 SHL PUSH1 0x0 MSTORE PUSH1 0x22 PUSH1 0x4 MSTORE PUSH1 0x24 PUSH1 0x0 REVERT JUMPDEST POP SWAP2 SWAP1 POP JUMP JUMPDEST PUSH1 0x1F DUP3 GT ISZERO PUSH3 0x2B6 JUMPI PUSH1 0x0 DUP2 DUP2 MSTORE PUSH1 0x20 DUP2 KECCAK256 PUSH1 0x1F DUP6 ADD PUSH1 0x5 SHR DUP2 ADD PUSH1 0x20 DUP7 LT ISZERO PUSH3 0x291 JUMPI POP DUP1 JUMPDEST PUSH1 0x1F DUP6 ADD PUSH1 0x5 SHR DUP3 ADD SWAP2 POP JUMPDEST DUP2 DUP2 LT ISZERO PUSH3 0x2B2 JUMPI DUP3 DUP2 SSTORE PUSH1 0x1 ADD PUSH3 0x29D JUMP JUMPDEST POP POP POP JUMPDEST POP POP POP JUMP JUMPDEST DUP2 MLOAD PUSH1 0x1 PUSH1 0x1 PUSH1 0x40 SHL SUB DUP2 GT ISZERO PUSH3 0x2D7 JUMPI PUSH3 0x2D7 PUSH3 0x216 JUMP JUMPDEST PUSH3 0x2EF DUP2 PUSH3 0x2E8 DUP5 SLOAD PUSH3 0x22C JUMP JUMPDEST DUP5 PUSH3 0x268 JUMP JUMPDEST PUSH1 0x20 DUP1 PUSH1 0x1F DUP4 GT PUSH1 0x1 DUP2 EQ PUSH3 0x327 JUMPI PUSH1 0x0 DUP5 ISZERO PUSH3 0x30E JUMPI POP DUP6 DUP4 ADD MLOAD JUMPDEST PUSH1 0x0 NOT PUSH1 0x3 DUP7 SWAP1 SHL SHR NOT AND PUSH1 0x1 DUP6 SWAP1 SHL OR DUP6 SSTORE PUSH3 0x2B2 JUMP JUMPDEST PUSH1 0x0 DUP6 DUP2 MSTORE PUSH1 0x20 DUP2 KECCAK256 PUSH1 0x1F NOT DUP7 AND SWAP2 JUMPDEST DUP3 DUP2 LT ISZERO PUSH3 0x358 JUMPI DUP9 DUP7 ADD MLOAD DUP3 SSTORE SWAP5 DUP5 ADD SWAP5 PUSH1 0x1 SWAP1 SWAP2 ADD SWAP1 DUP5 ADD PUSH3 0x337 JUMP JUMPDEST POP DUP6 DUP3 LT ISZERO PUSH3 0x377 JUMPI DUP8 DUP6 ADD MLOAD PUSH1 0x0 NOT PUSH1 0x3 DUP9 SWAP1 SHL PUSH1 0xF8 AND SHR NOT AND DUP2 SSTORE JUMPDEST POP POP POP POP POP PUSH1 0x1 SWAP1 DUP2 SHL ADD SWAP1 SSTORE POP JUMP JUMPDEST PUSH2 0x17FE DUP1 PUSH3 0x397 PUSH1 0x0 CODECOPY PUSH1 0x0 RETURN INVALID PUSH1 0x80 PUSH1 0x40 MSTORE CALLVALUE DUP1 ISZERO PUSH2 0x10 JUMPI PUSH1 0x0 DUP1 REVERT JUMPDEST POP PUSH1 0x4 CALLDATASIZE LT PUSH2 0x11D JUMPI PUSH1 0x0 CALLDATALOAD PUSH1 0xE0 SHR DUP1 PUSH4 0x1FFC9A7 EQ PUSH2 0x122 JUMPI DUP1 PUSH4 0x13119161 EQ PUSH2 0x14A JUMPI DUP1 PUSH4 0x144BF589 EQ PUSH2 0x16D JUMPI DUP1 PUSH4 0x208DD1FF EQ PUSH2 0x182 JUMPI DUP1 PUSH4 0x217B8EE9 EQ PUSH2 0x197 JUMPI DUP1 PUSH4 0x248A9CA3 EQ PUSH2 0x1AA JUMPI DUP1 PUSH4 0x24F13320 EQ PUSH2 0x1BD JUMPI DUP1 PUSH4 0x2F2FF15D EQ PUSH2 0x1E1 JUMPI DUP1 PUSH4 0x36568ABE EQ PUSH2 0x1F4 JUMPI DUP1 PUSH4 0x5CEAD0E9 EQ PUSH2 0x207 JUMPI DUP1 PUSH4 0x658A4823 EQ PUSH2 0x21A JUMPI DUP1 PUSH4 0x68DD17A5 EQ PUSH2 0x22D JUMPI DUP1 PUSH4 0x7304C588 EQ PUSH2 0x242 JUMPI DUP1 PUSH4 0x7C0F8882 EQ PUSH2 0x255 JUMPI DUP1 PUSH4 0x91D14854 EQ PUSH2 0x268 JUMPI DUP1 PUSH4 0x9859199D EQ PUSH2 0x27B JUMPI DUP1 PUSH4 0xA217FDDF EQ PUSH2 0x28E JUMPI DUP1 PUSH4 0xC49BAEBE EQ PUSH2 0x296 JUMPI DUP1 PUSH4 0xC5FBB610 EQ PUSH2 0x2BD JUMPI DUP1 PUSH4 0xC8AEE754 EQ PUSH2 0x2D2 JUMPI DUP1 PUSH4 0xCF850C8D EQ PUSH2 0x2FE JUMPI DUP1 PUSH4 0xD547741F EQ PUSH2 0x311 JUMPI DUP1 PUSH4 0xE206BA50 EQ PUSH2 0x324 JUMPI JUMPDEST PUSH1 0x0 DUP1 REVERT JUMPDEST PUSH2 0x135 PUSH2 0x130 CALLDATASIZE PUSH1 0x4 PUSH2 0x1212 JUMP JUMPDEST PUSH2 0x339 JUMP JUMPDEST PUSH1 0x40 MLOAD SWAP1 ISZERO ISZERO DUP2 MSTORE PUSH1 0x20 ADD JUMPDEST PUSH1 0x40 MLOAD DUP1 SWAP2 SUB SWAP1 RETURN JUMPDEST PUSH2 0x15F PUSH1 0x0 DUP1 MLOAD PUSH1 0x20 PUSH2 0x1789 DUP4 CODECOPY DUP2 MLOAD SWAP2 MSTORE DUP2 JUMP JUMPDEST PUSH1 0x40 MLOAD SWAP1 DUP2 MSTORE PUSH1 0x20 ADD PUSH2 0x141 JUMP JUMPDEST PUSH2 0x15F PUSH1 0x0 DUP1 MLOAD PUSH1 0x20 PUSH2 0x1769 DUP4 CODECOPY DUP2 MLOAD SWAP2 MSTORE DUP2 JUMP JUMPDEST PUSH2 0x195 PUSH2 0x190 CALLDATASIZE PUSH1 0x4 PUSH2 0x1258 JUMP JUMPDEST PUSH2 0x370 JUMP JUMPDEST STOP JUMPDEST PUSH2 0x135 PUSH2 0x1A5 CALLDATASIZE PUSH1 0x4 PUSH2 0x1282 JUMP JUMPDEST PUSH2 0x4D1 JUMP JUMPDEST PUSH2 0x15F PUSH2 0x1B8 CALLDATASIZE PUSH1 0x4 PUSH2 0x129D JUMP JUMPDEST PUSH2 0x5DD JUMP JUMPDEST PUSH2 0x1D0 PUSH2 0x1CB CALLDATASIZE PUSH1 0x4 PUSH2 0x1282 JUMP JUMPDEST PUSH2 0x5F2 JUMP JUMPDEST PUSH1 0x40 MLOAD PUSH2 0x141 SWAP6 SWAP5 SWAP4 SWAP3 SWAP2 SWAP1 PUSH2 0x12FC JUMP JUMPDEST PUSH2 0x195 PUSH2 0x1EF CALLDATASIZE PUSH1 0x4 PUSH2 0x133D JUMP JUMPDEST PUSH2 0x6BA JUMP JUMPDEST PUSH2 0x195 PUSH2 0x202 CALLDATASIZE PUSH1 0x4 PUSH2 0x133D JUMP JUMPDEST PUSH2 0x6DC JUMP JUMPDEST PUSH2 0x195 PUSH2 0x215 CALLDATASIZE PUSH1 0x4 PUSH2 0x140B JUMP JUMPDEST PUSH2 0x714 JUMP JUMPDEST PUSH2 0x195 PUSH2 0x228 CALLDATASIZE PUSH1 0x4 PUSH2 0x140B JUMP JUMPDEST PUSH2 0x8CF JUMP JUMPDEST PUSH2 0x15F PUSH1 0x0 DUP1 MLOAD PUSH1 0x20 PUSH2 0x1709 DUP4 CODECOPY DUP2 MLOAD SWAP2 MSTORE DUP2 JUMP JUMPDEST PUSH2 0x195 PUSH2 0x250 CALLDATASIZE PUSH1 0x4 PUSH2 0x140B JUMP JUMPDEST PUSH2 0xA93 JUMP JUMPDEST PUSH2 0x135 PUSH2 0x263 CALLDATASIZE PUSH1 0x4 PUSH2 0x1258 JUMP JUMPDEST PUSH2 0xC57 JUMP JUMPDEST PUSH2 0x135 PUSH2 0x276 CALLDATASIZE PUSH1 0x4 PUSH2 0x133D JUMP JUMPDEST PUSH2 0xD5F JUMP JUMPDEST PUSH2 0x195 PUSH2 0x289 CALLDATASIZE PUSH1 0x4 PUSH2 0x1458 JUMP JUMPDEST PUSH2 0xD88 JUMP JUMPDEST PUSH2 0x15F PUSH1 0x0 DUP2 JUMP JUMPDEST PUSH2 0x15F PUSH32 0x21702C8AF46127C7FA207F89D0B0A8441BB32959A0AC7DF790E9AB1A25C98926 DUP2 JUMP JUMPDEST PUSH2 0x15F PUSH1 0x0 DUP1 MLOAD PUSH1 0x20 PUSH2 0x17A9 DUP4 CODECOPY DUP2 MLOAD SWAP2 MSTORE DUP2 JUMP JUMPDEST PUSH2 0x15F PUSH2 0x2E0 CALLDATASIZE PUSH1 0x4 PUSH2 0x1282 JUMP JUMPDEST PUSH1 0x1 PUSH1 0x1 PUSH1 0xA0 SHL SUB AND PUSH1 0x0 SWAP1 DUP2 MSTORE PUSH1 0x1 PUSH1 0x20 MSTORE PUSH1 0x40 SWAP1 KECCAK256 PUSH1 0x2 ADD SLOAD SWAP1 JUMP JUMPDEST PUSH2 0x195 PUSH2 0x30C CALLDATASIZE PUSH1 0x4 PUSH2 0x140B JUMP JUMPDEST PUSH2 0xEF2 JUMP JUMPDEST PUSH2 0x195 PUSH2 0x31F CALLDATASIZE PUSH1 0x4 PUSH2 0x133D JUMP JUMPDEST PUSH2 0x1065 JUMP JUMPDEST PUSH2 0x15F PUSH1 0x0 DUP1 MLOAD PUSH1 0x20 PUSH2 0x1749 DUP4 CODECOPY DUP2 MLOAD SWAP2 MSTORE DUP2 JUMP JUMPDEST PUSH1 0x0 PUSH1 0x1 PUSH1 0x1 PUSH1 0xE0 SHL SUB NOT DUP3 AND PUSH4 0x7965DB0B PUSH1 0xE0 SHL EQ DUP1 PUSH2 0x36A JUMPI POP PUSH4 0x1FFC9A7 PUSH1 0xE0 SHL PUSH1 0x1 PUSH1 0x1 PUSH1 0xE0 SHL SUB NOT DUP4 AND EQ JUMPDEST SWAP3 SWAP2 POP POP JUMP JUMPDEST PUSH2 0x388 PUSH1 0x0 DUP1 MLOAD PUSH1 0x20 PUSH2 0x1749 DUP4 CODECOPY DUP2 MLOAD SWAP2 MSTORE CALLER PUSH2 0xD5F JUMP JUMPDEST PUSH2 0x3E4 JUMPI PUSH1 0x40 MLOAD PUSH3 0x461BCD PUSH1 0xE5 SHL DUP2 MSTORE PUSH1 0x20 PUSH1 0x4 DUP3 ADD MSTORE PUSH1 0x22 PUSH1 0x24 DUP3 ADD MSTORE PUSH32 0x4F6E6C79207072696D6172792062616E6B2063616E207265766F6B6520726F6C PUSH1 0x44 DUP3 ADD MSTORE PUSH2 0x6573 PUSH1 0xF0 SHL PUSH1 0x64 DUP3 ADD MSTORE PUSH1 0x84 ADD JUMPDEST PUSH1 0x40 MLOAD DUP1 SWAP2 SUB SWAP1 REVERT JUMPDEST PUSH2 0x3EE DUP2 DUP4 PUSH2 0xD5F JUMP JUMPDEST PUSH2 0x43A JUMPI PUSH1 0x40 MLOAD PUSH3 0x461BCD PUSH1 0xE5 SHL DUP2 MSTORE PUSH1 0x20 PUSH1 0x4 DUP3 ADD MSTORE PUSH1 0x1E PUSH1 0x24 DUP3 ADD MSTORE PUSH32 0x4163636F756E7420646F6573206E6F7420686176652074686520726F6C650000 PUSH1 0x44 DUP3 ADD MSTORE PUSH1 0x64 ADD PUSH2 0x3DB JUMP JUMPDEST PUSH2 0x444 DUP2 DUP4 PUSH2 0x107D JUMP JUMPDEST POP PUSH1 0x1 PUSH1 0x1 PUSH1 0xA0 SHL SUB DUP3 AND PUSH1 0x0 SWAP1 DUP2 MSTORE PUSH1 0x1 PUSH1 0x20 DUP2 SWAP1 MSTORE PUSH1 0x40 DUP3 KECCAK256 DUP1 SLOAD PUSH1 0x1 PUSH1 0x1 PUSH1 0xA0 SHL SUB NOT AND DUP2 SSTORE SWAP2 SWAP1 PUSH2 0x47B SWAP1 DUP4 ADD DUP3 PUSH2 0x11C4 JUMP JUMPDEST POP PUSH1 0x0 PUSH1 0x2 DUP3 ADD DUP2 SWAP1 SSTORE PUSH1 0x3 DUP3 ADD DUP1 SLOAD PUSH1 0xFF NOT AND SWAP1 SSTORE PUSH1 0x4 SWAP1 SWAP2 ADD DUP2 SWAP1 SSTORE PUSH1 0x40 MLOAD DUP3 SWAP2 PUSH1 0x1 PUSH1 0x1 PUSH1 0xA0 SHL SUB DUP6 AND SWAP2 PUSH32 0xEA83A7CAEF01824E96446A8C4BC8FF4669EDD99E129B53E32C077F85D2168081 SWAP2 SWAP1 LOG3 POP POP JUMP JUMPDEST PUSH1 0x1 PUSH1 0x1 PUSH1 0xA0 SHL SUB DUP1 DUP3 AND PUSH1 0x0 SWAP1 DUP2 MSTORE PUSH1 0x1 PUSH1 0x20 DUP2 DUP2 MSTORE PUSH1 0x40 DUP1 DUP5 KECCAK256 DUP2 MLOAD PUSH1 0xA0 DUP2 ADD SWAP1 SWAP3 MSTORE DUP1 SLOAD SWAP1 SWAP6 AND DUP2 MSTORE SWAP2 DUP5 ADD DUP1 SLOAD SWAP4 SWAP5 DUP6 SWAP5 SWAP1 SWAP3 DUP5 ADD SWAP2 SWAP1 PUSH2 0x515 SWAP1 PUSH2 0x14BE JUMP JUMPDEST DUP1 PUSH1 0x1F ADD PUSH1 0x20 DUP1 SWAP2 DIV MUL PUSH1 0x20 ADD PUSH1 0x40 MLOAD SWAP1 DUP2 ADD PUSH1 0x40 MSTORE DUP1 SWAP3 SWAP2 SWAP1 DUP2 DUP2 MSTORE PUSH1 0x20 ADD DUP3 DUP1 SLOAD PUSH2 0x541 SWAP1 PUSH2 0x14BE JUMP JUMPDEST DUP1 ISZERO PUSH2 0x58E JUMPI DUP1 PUSH1 0x1F LT PUSH2 0x563 JUMPI PUSH2 0x100 DUP1 DUP4 SLOAD DIV MUL DUP4 MSTORE SWAP2 PUSH1 0x20 ADD SWAP2 PUSH2 0x58E JUMP JUMPDEST DUP3 ADD SWAP2 SWAP1 PUSH1 0x0 MSTORE PUSH1 0x20 PUSH1 0x0 KECCAK256 SWAP1 JUMPDEST DUP2 SLOAD DUP2 MSTORE SWAP1 PUSH1 0x1 ADD SWAP1 PUSH1 0x20 ADD DUP1 DUP4 GT PUSH2 0x571 JUMPI DUP3 SWAP1 SUB PUSH1 0x1F AND DUP3 ADD SWAP2 JUMPDEST POP POP POP SWAP2 DUP4 MSTORE POP POP PUSH1 0x2 DUP3 ADD SLOAD PUSH1 0x20 DUP3 ADD MSTORE PUSH1 0x3 DUP3 ADD SLOAD PUSH1 0xFF AND ISZERO ISZERO PUSH1 0x40 DUP3 ADD MSTORE PUSH1 0x4 SWAP1 SWAP2 ADD SLOAD PUSH1 0x60 SWAP2 DUP3 ADD MSTORE DUP2 ADD MLOAD SWAP1 SWAP2 POP DUP1 ISZERO PUSH2 0x5D6 JUMPI POP DUP1 MLOAD PUSH1 0x1 PUSH1 0x1 PUSH1 0xA0 SHL SUB AND ISZERO ISZERO JUMPDEST SWAP4 SWAP3 POP POP POP JUMP JUMPDEST PUSH1 0x0 SWAP1 DUP2 MSTORE PUSH1 0x20 DUP2 SWAP1 MSTORE PUSH1 0x40 SWAP1 KECCAK256 PUSH1 0x1 ADD SLOAD SWAP1 JUMP JUMPDEST PUSH1 0x1 PUSH1 0x20 DUP2 SWAP1 MSTORE PUSH1 0x0 SWAP2 DUP3 MSTORE PUSH1 0x40 SWAP1 SWAP2 KECCAK256 DUP1 SLOAD SWAP2 DUP2 ADD DUP1 SLOAD PUSH1 0x1 PUSH1 0x1 PUSH1 0xA0 SHL SUB SWAP1 SWAP4 AND SWAP3 PUSH2 0x61F SWAP1 PUSH2 0x14BE JUMP JUMPDEST DUP1 PUSH1 0x1F ADD PUSH1 0x20 DUP1 SWAP2 DIV MUL PUSH1 0x20 ADD PUSH1 0x40 MLOAD SWAP1 DUP2 ADD PUSH1 0x40 MSTORE DUP1 SWAP3 SWAP2 SWAP1 DUP2 DUP2 MSTORE PUSH1 0x20 ADD DUP3 DUP1 SLOAD PUSH2 0x64B SWAP1 PUSH2 0x14BE JUMP JUMPDEST DUP1 ISZERO PUSH2 0x698 JUMPI DUP1 PUSH1 0x1F LT PUSH2 0x66D JUMPI PUSH2 0x100 DUP1 DUP4 SLOAD DIV MUL DUP4 MSTORE SWAP2 PUSH1 0x20 ADD SWAP2 PUSH2 0x698 JUMP JUMPDEST DUP3 ADD SWAP2 SWAP1 PUSH1 0x0 MSTORE PUSH1 0x20 PUSH1 0x0 KECCAK256 SWAP1 JUMPDEST DUP2 SLOAD DUP2 MSTORE SWAP1 PUSH1 0x1 ADD SWAP1 PUSH1 0x20 ADD DUP1 DUP4 GT PUSH2 0x67B JUMPI DUP3 SWAP1 SUB PUSH1 0x1F AND DUP3 ADD SWAP2 JUMPDEST POP POP POP POP PUSH1 0x2 DUP4 ADD SLOAD PUSH1 0x3 DUP5 ADD SLOAD PUSH1 0x4 SWAP1 SWAP5 ADD SLOAD SWAP3 SWAP4 SWAP1 SWAP3 PUSH1 0xFF SWAP1 SWAP2 AND SWAP2 POP DUP6 JUMP JUMPDEST PUSH2 0x6C3 DUP3 PUSH2 0x5DD JUMP JUMPDEST PUSH2 0x6CC DUP2 PUSH2 0x10F0 JUMP JUMPDEST PUSH2 0x6D6 DUP4 DUP4 PUSH2 0x10FD JUMP JUMPDEST POP POP POP POP JUMP JUMPDEST PUSH1 0x1 PUSH1 0x1 PUSH1 0xA0 SHL SUB DUP2 AND CALLER EQ PUSH2 0x705 JUMPI PUSH1 0x40 MLOAD PUSH4 0x334BD919 PUSH1 0xE1 SHL DUP2 MSTORE PUSH1 0x4 ADD PUSH1 0x40 MLOAD DUP1 SWAP2 SUB SWAP1 REVERT JUMPDEST PUSH2 0x70F DUP3 DUP3 PUSH2 0x107D JUMP JUMPDEST POP POP POP JUMP JUMPDEST PUSH1 0x0 DUP1 MLOAD PUSH1 0x20 PUSH2 0x1749 DUP4 CODECOPY DUP2 MLOAD SWAP2 MSTORE PUSH2 0x72C DUP2 PUSH2 0x10F0 JUMP JUMPDEST PUSH2 0x744 PUSH1 0x0 DUP1 MLOAD PUSH1 0x20 PUSH2 0x17A9 DUP4 CODECOPY DUP2 MLOAD SWAP2 MSTORE DUP5 PUSH2 0xD5F JUMP JUMPDEST ISZERO PUSH2 0x7A1 JUMPI PUSH1 0x40 MLOAD PUSH3 0x461BCD PUSH1 0xE5 SHL DUP2 MSTORE PUSH1 0x20 PUSH1 0x4 DUP3 ADD MSTORE PUSH1 0x27 PUSH1 0x24 DUP3 ADD MSTORE PUSH32 0x4163636F756E7420616C726561647920686173207365636F6E64617279206261 PUSH1 0x44 DUP3 ADD MSTORE PUSH7 0x6E6B20726F6C65 PUSH1 0xC8 SHL PUSH1 0x64 DUP3 ADD MSTORE PUSH1 0x84 ADD PUSH2 0x3DB JUMP JUMPDEST PUSH2 0x7B9 PUSH1 0x0 DUP1 MLOAD PUSH1 0x20 PUSH2 0x1749 DUP4 CODECOPY DUP2 MLOAD SWAP2 MSTORE DUP5 PUSH2 0xD5F JUMP JUMPDEST ISZERO PUSH2 0x7D6 JUMPI PUSH1 0x40 MLOAD PUSH3 0x461BCD PUSH1 0xE5 SHL DUP2 MSTORE PUSH1 0x4 ADD PUSH2 0x3DB SWAP1 PUSH2 0x14F8 JUMP JUMPDEST PUSH2 0x7EE PUSH1 0x0 DUP1 MLOAD PUSH1 0x20 PUSH2 0x17A9 DUP4 CODECOPY DUP2 MLOAD SWAP2 MSTORE DUP5 PUSH2 0x10FD JUMP JUMPDEST POP PUSH1 0x40 DUP1 MLOAD PUSH1 0xA0 DUP2 ADD DUP3 MSTORE PUSH1 0x1 PUSH1 0x1 PUSH1 0xA0 SHL SUB DUP6 DUP2 AND DUP1 DUP4 MSTORE PUSH1 0x20 DUP1 DUP5 ADD DUP8 DUP2 MSTORE PUSH1 0x2 DUP6 DUP8 ADD MSTORE PUSH1 0x1 PUSH1 0x60 DUP7 ADD DUP2 SWAP1 MSTORE TIMESTAMP PUSH1 0x80 DUP8 ADD MSTORE PUSH1 0x0 SWAP4 DUP5 MSTORE SWAP2 DUP3 SWAP1 MSTORE SWAP5 SWAP1 SWAP2 KECCAK256 DUP4 MLOAD DUP2 SLOAD PUSH1 0x1 PUSH1 0x1 PUSH1 0xA0 SHL SUB NOT AND SWAP4 AND SWAP3 SWAP1 SWAP3 OR DUP3 SSTORE SWAP3 MLOAD SWAP2 SWAP3 SWAP1 SWAP2 SWAP1 DUP3 ADD SWAP1 PUSH2 0x85B SWAP1 DUP3 PUSH2 0x1587 JUMP JUMPDEST POP PUSH1 0x40 DUP3 DUP2 ADD MLOAD PUSH1 0x2 DUP4 ADD SSTORE PUSH1 0x60 DUP4 ADD MLOAD PUSH1 0x3 DUP4 ADD DUP1 SLOAD PUSH1 0xFF NOT AND SWAP2 ISZERO ISZERO SWAP2 SWAP1 SWAP2 OR SWAP1 SSTORE PUSH1 0x80 SWAP1 SWAP3 ADD MLOAD PUSH1 0x4 SWAP1 SWAP2 ADD SSTORE MLOAD PUSH1 0x0 DUP1 MLOAD PUSH1 0x20 PUSH2 0x17A9 DUP4 CODECOPY DUP2 MLOAD SWAP2 MSTORE SWAP1 PUSH1 0x1 PUSH1 0x1 PUSH1 0xA0 SHL SUB DUP6 AND SWAP1 PUSH1 0x0 DUP1 MLOAD PUSH1 0x20 PUSH2 0x1729 DUP4 CODECOPY DUP2 MLOAD SWAP2 MSTORE SWAP1 PUSH2 0x8C2 SWAP1 DUP7 SWAP1 PUSH2 0x1646 JUMP JUMPDEST PUSH1 0x40 MLOAD DUP1 SWAP2 SUB SWAP1 LOG3 POP POP POP JUMP JUMPDEST PUSH1 0x0 DUP1 MLOAD PUSH1 0x20 PUSH2 0x17A9 DUP4 CODECOPY DUP2 MLOAD SWAP2 MSTORE PUSH2 0x8E7 DUP2 PUSH2 0x10F0 JUMP JUMPDEST PUSH2 0x8FF PUSH1 0x0 DUP1 MLOAD PUSH1 0x20 PUSH2 0x1789 DUP4 CODECOPY DUP2 MLOAD SWAP2 MSTORE DUP5 PUSH2 0xD5F JUMP JUMPDEST ISZERO DUP1 ISZERO PUSH2 0x921 JUMPI POP PUSH2 0x91F PUSH1 0x0 DUP1 MLOAD PUSH1 0x20 PUSH2 0x1709 DUP4 CODECOPY DUP2 MLOAD SWAP2 MSTORE DUP5 PUSH2 0xD5F JUMP JUMPDEST ISZERO JUMPDEST PUSH2 0x93D JUMPI PUSH1 0x40 MLOAD PUSH3 0x461BCD PUSH1 0xE5 SHL DUP2 MSTORE PUSH1 0x4 ADD PUSH2 0x3DB SWAP1 PUSH2 0x1659 JUMP JUMPDEST PUSH2 0x955 PUSH1 0x0 DUP1 MLOAD PUSH1 0x20 PUSH2 0x17A9 DUP4 CODECOPY DUP2 MLOAD SWAP2 MSTORE DUP5 PUSH2 0xD5F JUMP JUMPDEST ISZERO PUSH2 0x972 JUMPI PUSH1 0x40 MLOAD PUSH3 0x461BCD PUSH1 0xE5 SHL DUP2 MSTORE PUSH1 0x4 ADD PUSH2 0x3DB SWAP1 PUSH2 0x16A1 JUMP JUMPDEST PUSH2 0x98A PUSH1 0x0 DUP1 MLOAD PUSH1 0x20 PUSH2 0x1749 DUP4 CODECOPY DUP2 MLOAD SWAP2 MSTORE DUP5 PUSH2 0xD5F JUMP JUMPDEST ISZERO PUSH2 0x9A7 JUMPI PUSH1 0x40 MLOAD PUSH3 0x461BCD PUSH1 0xE5 SHL DUP2 MSTORE PUSH1 0x4 ADD PUSH2 0x3DB SWAP1 PUSH2 0x14F8 JUMP JUMPDEST PUSH2 0x9BF PUSH1 0x0 DUP1 MLOAD PUSH1 0x20 PUSH2 0x1789 DUP4 CODECOPY DUP2 MLOAD SWAP2 MSTORE DUP5 PUSH2 0x10FD JUMP JUMPDEST POP PUSH1 0x40 DUP1 MLOAD PUSH1 0xA0 DUP2 ADD DUP3 MSTORE PUSH1 0x1 PUSH1 0x1 PUSH1 0xA0 SHL SUB DUP6 DUP2 AND DUP1 DUP4 MSTORE PUSH1 0x20 DUP1 DUP5 ADD DUP8 DUP2 MSTORE PUSH1 0x3 DUP6 DUP8 ADD MSTORE PUSH1 0x1 PUSH1 0x60 DUP7 ADD DUP2 SWAP1 MSTORE TIMESTAMP PUSH1 0x80 DUP8 ADD MSTORE PUSH1 0x0 SWAP4 DUP5 MSTORE SWAP2 DUP3 SWAP1 MSTORE SWAP5 SWAP1 SWAP2 KECCAK256 DUP4 MLOAD DUP2 SLOAD PUSH1 0x1 PUSH1 0x1 PUSH1 0xA0 SHL SUB NOT AND SWAP4 AND SWAP3 SWAP1 SWAP3 OR DUP3 SSTORE SWAP3 MLOAD SWAP2 SWAP3 SWAP1 SWAP2 SWAP1 DUP3 ADD SWAP1 PUSH2 0xA2C SWAP1 DUP3 PUSH2 0x1587 JUMP JUMPDEST POP PUSH1 0x40 DUP3 DUP2 ADD MLOAD PUSH1 0x2 DUP4 ADD SSTORE PUSH1 0x60 DUP4 ADD MLOAD PUSH1 0x3 DUP4 ADD DUP1 SLOAD PUSH1 0xFF NOT AND SWAP2 ISZERO ISZERO SWAP2 SWAP1 SWAP2 OR SWAP1 SSTORE PUSH1 0x80 SWAP1 SWAP3 ADD MLOAD PUSH1 0x4 SWAP1 SWAP2 ADD SSTORE MLOAD PUSH1 0x0 DUP1 MLOAD PUSH1 0x20 PUSH2 0x1789 DUP4 CODECOPY DUP2 MLOAD SWAP2 MSTORE SWAP1 PUSH1 0x1 PUSH1 0x1 PUSH1 0xA0 SHL SUB DUP6 AND SWAP1 PUSH1 0x0 DUP1 MLOAD PUSH1 0x20 PUSH2 0x1729 DUP4 CODECOPY DUP2 MLOAD SWAP2 MSTORE SWAP1 PUSH2 0x8C2 SWAP1 DUP7 SWAP1 PUSH2 0x1646 JUMP JUMPDEST PUSH1 0x0 DUP1 MLOAD PUSH1 0x20 PUSH2 0x17A9 DUP4 CODECOPY DUP2 MLOAD SWAP2 MSTORE PUSH2 0xAAB DUP2 PUSH2 0x10F0 JUMP JUMPDEST PUSH2 0xAC3 PUSH1 0x0 DUP1 MLOAD PUSH1 0x20 PUSH2 0x1789 DUP4 CODECOPY DUP2 MLOAD SWAP2 MSTORE DUP5 PUSH2 0xD5F JUMP JUMPDEST ISZERO DUP1 ISZERO PUSH2 0xAE5 JUMPI POP PUSH2 0xAE3 PUSH1 0x0 DUP1 MLOAD PUSH1 0x20 PUSH2 0x1709 DUP4 CODECOPY DUP2 MLOAD SWAP2 MSTORE DUP5 PUSH2 0xD5F JUMP JUMPDEST ISZERO JUMPDEST PUSH2 0xB01 JUMPI PUSH1 0x40 MLOAD PUSH3 0x461BCD PUSH1 0xE5 SHL DUP2 MSTORE PUSH1 0x4 ADD PUSH2 0x3DB SWAP1 PUSH2 0x1659 JUMP JUMPDEST PUSH2 0xB19 PUSH1 0x0 DUP1 MLOAD PUSH1 0x20 PUSH2 0x17A9 DUP4 CODECOPY DUP2 MLOAD SWAP2 MSTORE DUP5 PUSH2 0xD5F JUMP JUMPDEST ISZERO PUSH2 0xB36 JUMPI PUSH1 0x40 MLOAD PUSH3 0x461BCD PUSH1 0xE5 SHL DUP2 MSTORE PUSH1 0x4 ADD PUSH2 0x3DB SWAP1 PUSH2 0x16A1 JUMP JUMPDEST PUSH2 0xB4E PUSH1 0x0 DUP1 MLOAD PUSH1 0x20 PUSH2 0x1749 DUP4 CODECOPY DUP2 MLOAD SWAP2 MSTORE DUP5 PUSH2 0xD5F JUMP JUMPDEST ISZERO PUSH2 0xB6B JUMPI PUSH1 0x40 MLOAD PUSH3 0x461BCD PUSH1 0xE5 SHL DUP2 MSTORE PUSH1 0x4 ADD PUSH2 0x3DB SWAP1 PUSH2 0x14F8 JUMP JUMPDEST PUSH2 0xB83 PUSH1 0x0 DUP1 MLOAD PUSH1 0x20 PUSH2 0x1709 DUP4 CODECOPY DUP2 MLOAD SWAP2 MSTORE DUP5 PUSH2 0x10FD JUMP JUMPDEST POP PUSH1 0x40 DUP1 MLOAD PUSH1 0xA0 DUP2 ADD DUP3 MSTORE PUSH1 0x1 PUSH1 0x1 PUSH1 0xA0 SHL SUB DUP6 DUP2 AND DUP1 DUP4 MSTORE PUSH1 0x20 DUP1 DUP5 ADD DUP8 DUP2 MSTORE PUSH1 0x3 DUP6 DUP8 ADD MSTORE PUSH1 0x1 PUSH1 0x60 DUP7 ADD DUP2 SWAP1 MSTORE TIMESTAMP PUSH1 0x80 DUP8 ADD MSTORE PUSH1 0x0 SWAP4 DUP5 MSTORE SWAP2 DUP3 SWAP1 MSTORE SWAP5 SWAP1 SWAP2 KECCAK256 DUP4 MLOAD DUP2 SLOAD PUSH1 0x1 PUSH1 0x1 PUSH1 0xA0 SHL SUB NOT AND SWAP4 AND SWAP3 SWAP1 SWAP3 OR DUP3 SSTORE SWAP3 MLOAD SWAP2 SWAP3 SWAP1 SWAP2 SWAP1 DUP3 ADD SWAP1 PUSH2 0xBF0 SWAP1 DUP3 PUSH2 0x1587 JUMP JUMPDEST POP PUSH1 0x40 DUP3 DUP2 ADD MLOAD PUSH1 0x2 DUP4 ADD SSTORE PUSH1 0x60 DUP4 ADD MLOAD PUSH1 0x3 DUP4 ADD DUP1 SLOAD PUSH1 0xFF NOT AND SWAP2 ISZERO ISZERO SWAP2 SWAP1 SWAP2 OR SWAP1 SSTORE PUSH1 0x80 SWAP1 SWAP3 ADD MLOAD PUSH1 0x4 SWAP1 SWAP2 ADD SSTORE MLOAD PUSH1 0x0 DUP1 MLOAD PUSH1 0x20 PUSH2 0x1709 DUP4 CODECOPY DUP2 MLOAD SWAP2 MSTORE SWAP1 PUSH1 0x1 PUSH1 0x1 PUSH1 0xA0 SHL SUB DUP6 AND SWAP1 PUSH1 0x0 DUP1 MLOAD PUSH1 0x20 PUSH2 0x1729 DUP4 CODECOPY DUP2 MLOAD SWAP2 MSTORE SWAP1 PUSH2 0x8C2 SWAP1 DUP7 SWAP1 PUSH2 0x1646 JUMP JUMPDEST PUSH1 0x1 PUSH1 0x1 PUSH1 0xA0 SHL SUB DUP1 DUP4 AND PUSH1 0x0 SWAP1 DUP2 MSTORE PUSH1 0x1 PUSH1 0x20 DUP2 DUP2 MSTORE PUSH1 0x40 DUP1 DUP5 KECCAK256 DUP2 MLOAD PUSH1 0xA0 DUP2 ADD SWAP1 SWAP3 MSTORE DUP1 SLOAD SWAP1 SWAP6 AND DUP2 MSTORE SWAP2 DUP5 ADD DUP1 SLOAD SWAP4 SWAP5 DUP6 SWAP5 SWAP1 SWAP3 DUP5 ADD SWAP2 SWAP1 PUSH2 0xC9B SWAP1 PUSH2 0x14BE JUMP JUMPDEST DUP1 PUSH1 0x1F ADD PUSH1 0x20 DUP1 SWAP2 DIV MUL PUSH1 0x20 ADD PUSH1 0x40 MLOAD SWAP1 DUP2 ADD PUSH1 0x40 MSTORE DUP1 SWAP3 SWAP2 SWAP1 DUP2 DUP2 MSTORE PUSH1 0x20 ADD DUP3 DUP1 SLOAD PUSH2 0xCC7 SWAP1 PUSH2 0x14BE JUMP JUMPDEST DUP1 ISZERO PUSH2 0xD14 JUMPI DUP1 PUSH1 0x1F LT PUSH2 0xCE9 JUMPI PUSH2 0x100 DUP1 DUP4 SLOAD DIV MUL DUP4 MSTORE SWAP2 PUSH1 0x20 ADD SWAP2 PUSH2 0xD14 JUMP JUMPDEST DUP3 ADD SWAP2 SWAP1 PUSH1 0x0 MSTORE PUSH1 0x20 PUSH1 0x0 KECCAK256 SWAP1 JUMPDEST DUP2 SLOAD DUP2 MSTORE SWAP1 PUSH1 0x1 ADD SWAP1 PUSH1 0x20 ADD DUP1 DUP4 GT PUSH2 0xCF7 JUMPI DUP3 SWAP1 SUB PUSH1 0x1F AND DUP3 ADD SWAP2 JUMPDEST POP POP POP SWAP2 DUP4 MSTORE POP POP PUSH1 0x2 DUP3 ADD SLOAD PUSH1 0x20 DUP3 ADD MSTORE PUSH1 0x3 DUP3 ADD SLOAD PUSH1 0xFF AND ISZERO ISZERO PUSH1 0x40 DUP3 ADD MSTORE PUSH1 0x4 SWAP1 SWAP2 ADD SLOAD PUSH1 0x60 SWAP2 DUP3 ADD MSTORE DUP2 ADD MLOAD SWAP1 SWAP2 POP DUP1 ISZERO PUSH2 0xD57 JUMPI POP DUP3 DUP2 PUSH1 0x40 ADD MLOAD GT ISZERO JUMPDEST SWAP5 SWAP4 POP POP POP POP JUMP JUMPDEST PUSH1 0x0 SWAP2 DUP3 MSTORE PUSH1 0x20 DUP3 DUP2 MSTORE PUSH1 0x40 DUP1 DUP5 KECCAK256 PUSH1 0x1 PUSH1 0x1 PUSH1 0xA0 SHL SUB SWAP4 SWAP1 SWAP4 AND DUP5 MSTORE SWAP2 SWAP1 MSTORE SWAP1 KECCAK256 SLOAD PUSH1 0xFF AND SWAP1 JUMP JUMPDEST PUSH2 0xDA0 PUSH1 0x0 DUP1 MLOAD PUSH1 0x20 PUSH2 0x1749 DUP4 CODECOPY DUP2 MLOAD SWAP2 MSTORE CALLER PUSH2 0xD5F JUMP JUMPDEST DUP1 PUSH2 0xDBE JUMPI POP PUSH2 0xDBE PUSH1 0x0 DUP1 MLOAD PUSH1 0x20 PUSH2 0x17A9 DUP4 CODECOPY DUP2 MLOAD SWAP2 MSTORE CALLER PUSH2 0xD5F JUMP JUMPDEST PUSH2 0xE08 JUMPI PUSH1 0x40 MLOAD PUSH3 0x461BCD PUSH1 0xE5 SHL DUP2 MSTORE PUSH1 0x20 PUSH1 0x4 DUP3 ADD MSTORE PUSH1 0x1B PUSH1 0x24 DUP3 ADD MSTORE PUSH27 0x4F6E6C792062616E6B732063616E2075706461746520726F6C6573 PUSH1 0x28 SHL PUSH1 0x44 DUP3 ADD MSTORE PUSH1 0x64 ADD PUSH2 0x3DB JUMP JUMPDEST PUSH1 0x1 PUSH1 0x1 PUSH1 0xA0 SHL SUB DUP4 DUP2 AND PUSH1 0x0 SWAP1 DUP2 MSTORE PUSH1 0x1 PUSH1 0x20 MSTORE PUSH1 0x40 SWAP1 KECCAK256 SLOAD AND PUSH2 0xE6E JUMPI PUSH1 0x40 MLOAD PUSH3 0x461BCD PUSH1 0xE5 SHL DUP2 MSTORE PUSH1 0x20 PUSH1 0x4 DUP3 ADD MSTORE PUSH1 0x1C PUSH1 0x24 DUP3 ADD MSTORE PUSH28 0x4163636F756E7420646F6573206E6F742068617665206120726F6C65 PUSH1 0x20 SHL PUSH1 0x44 DUP3 ADD MSTORE PUSH1 0x64 ADD PUSH2 0x3DB JUMP JUMPDEST PUSH1 0x1 PUSH1 0x1 PUSH1 0xA0 SHL SUB DUP4 AND PUSH1 0x0 SWAP1 DUP2 MSTORE PUSH1 0x1 PUSH1 0x20 DUP2 SWAP1 MSTORE PUSH1 0x40 SWAP1 SWAP2 KECCAK256 SWAP1 DUP2 ADD PUSH2 0xE96 DUP5 DUP3 PUSH2 0x1587 JUMP JUMPDEST POP PUSH1 0x3 DUP2 ADD DUP1 SLOAD PUSH1 0xFF NOT AND DUP4 ISZERO ISZERO OR SWAP1 SSTORE PUSH1 0x40 MLOAD PUSH1 0x1 PUSH1 0x1 PUSH1 0xA0 SHL SUB DUP6 AND SWAP1 PUSH32 0xC4D12F4FED3C7D8E40B10B954DC4B19C26000388E17FD31B4AF750DD33B41664 SWAP1 PUSH2 0xEE4 SWAP1 DUP7 SWAP1 DUP7 SWAP1 PUSH2 0x16E4 JUMP JUMPDEST PUSH1 0x40 MLOAD DUP1 SWAP2 SUB SWAP1 LOG2 POP POP POP POP JUMP JUMPDEST PUSH1 0x0 DUP1 MLOAD PUSH1 0x20 PUSH2 0x1749 DUP4 CODECOPY DUP2 MLOAD SWAP2 MSTORE PUSH2 0xF0A DUP2 PUSH2 0x10F0 JUMP JUMPDEST PUSH2 0xF22 PUSH1 0x0 DUP1 MLOAD PUSH1 0x20 PUSH2 0x1769 DUP4 CODECOPY DUP2 MLOAD SWAP2 MSTORE DUP5 PUSH2 0xD5F JUMP JUMPDEST ISZERO PUSH2 0xF7A JUMPI PUSH1 0x40 MLOAD PUSH3 0x461BCD PUSH1 0xE5 SHL DUP2 MSTORE PUSH1 0x20 PUSH1 0x4 DUP3 ADD MSTORE PUSH1 0x22 PUSH1 0x24 DUP3 ADD MSTORE PUSH32 0x4163636F756E7420616C72656164792068617320726567756C61746F7220726F PUSH1 0x44 DUP3 ADD MSTORE PUSH2 0x6C65 PUSH1 0xF0 SHL PUSH1 0x64 DUP3 ADD MSTORE PUSH1 0x84 ADD PUSH2 0x3DB JUMP JUMPDEST PUSH2 0xF92 PUSH1 0x0 DUP1 MLOAD PUSH1 0x20 PUSH2 0x1769 DUP4 CODECOPY DUP2 MLOAD SWAP2 MSTORE DUP5 PUSH2 0x10FD JUMP JUMPDEST POP PUSH1 0x40 DUP1 MLOAD PUSH1 0xA0 DUP2 ADD DUP3 MSTORE PUSH1 0x1 PUSH1 0x1 PUSH1 0xA0 SHL SUB DUP6 DUP2 AND DUP1 DUP4 MSTORE PUSH1 0x20 DUP1 DUP5 ADD DUP8 DUP2 MSTORE PUSH1 0x0 DUP6 DUP8 ADD DUP2 SWAP1 MSTORE PUSH1 0x1 PUSH1 0x60 DUP8 ADD DUP2 SWAP1 MSTORE TIMESTAMP PUSH1 0x80 DUP9 ADD MSTORE SWAP4 DUP2 MSTORE SWAP2 DUP4 SWAP1 MSTORE SWAP5 SWAP1 KECCAK256 DUP4 MLOAD DUP2 SLOAD PUSH1 0x1 PUSH1 0x1 PUSH1 0xA0 SHL SUB NOT AND SWAP4 AND SWAP3 SWAP1 SWAP3 OR DUP3 SSTORE SWAP3 MLOAD SWAP2 SWAP3 SWAP1 SWAP2 SWAP1 DUP3 ADD SWAP1 PUSH2 0xFFE SWAP1 DUP3 PUSH2 0x1587 JUMP JUMPDEST POP PUSH1 0x40 DUP3 DUP2 ADD MLOAD PUSH1 0x2 DUP4 ADD SSTORE PUSH1 0x60 DUP4 ADD MLOAD PUSH1 0x3 DUP4 ADD DUP1 SLOAD PUSH1 0xFF NOT AND SWAP2 ISZERO ISZERO SWAP2 SWAP1 SWAP2 OR SWAP1 SSTORE PUSH1 0x80 SWAP1 SWAP3 ADD MLOAD PUSH1 0x4 SWAP1 SWAP2 ADD SSTORE MLOAD PUSH1 0x0 DUP1 MLOAD PUSH1 0x20 PUSH2 0x1769 DUP4 CODECOPY DUP2 MLOAD SWAP2 MSTORE SWAP1 PUSH1 0x1 PUSH1 0x1 PUSH1 0xA0 SHL SUB DUP6 AND SWAP1 PUSH1 0x0 DUP1 MLOAD PUSH1 0x20 PUSH2 0x1729 DUP4 CODECOPY DUP2 MLOAD SWAP2 MSTORE SWAP1 PUSH2 0x8C2 SWAP1 DUP7 SWAP1 PUSH2 0x1646 JUMP JUMPDEST PUSH2 0x106E DUP3 PUSH2 0x5DD JUMP JUMPDEST PUSH2 0x1077 DUP2 PUSH2 0x10F0 JUMP JUMPDEST PUSH2 0x6D6 DUP4 DUP4 JUMPDEST PUSH1 0x0 PUSH2 0x1089 DUP4 DUP4 PUSH2 0xD5F JUMP JUMPDEST ISZERO PUSH2 0x10E8 JUMPI PUSH1 0x0 DUP4 DUP2 MSTORE PUSH1 0x20 DUP2 DUP2 MSTORE PUSH1 0x40 DUP1 DUP4 KECCAK256 PUSH1 0x1 PUSH1 0x1 PUSH1 0xA0 SHL SUB DUP7 AND DUP1 DUP6 MSTORE SWAP3 MSTORE DUP1 DUP4 KECCAK256 DUP1 SLOAD PUSH1 0xFF NOT AND SWAP1 SSTORE MLOAD CALLER SWAP3 DUP7 SWAP2 PUSH32 0xF6391F5C32D9C69D2A47EA670B442974B53935D1EDC7FD64EB21E047A839171B SWAP2 SWAP1 LOG4 POP PUSH1 0x1 PUSH2 0x36A JUMP JUMPDEST POP PUSH1 0x0 PUSH2 0x36A JUMP JUMPDEST PUSH2 0x10FA DUP2 CALLER PUSH2 0x1187 JUMP JUMPDEST POP JUMP JUMPDEST PUSH1 0x0 PUSH2 0x1109 DUP4 DUP4 PUSH2 0xD5F JUMP JUMPDEST PUSH2 0x10E8 JUMPI PUSH1 0x0 DUP4 DUP2 MSTORE PUSH1 0x20 DUP2 DUP2 MSTORE PUSH1 0x40 DUP1 DUP4 KECCAK256 PUSH1 0x1 PUSH1 0x1 PUSH1 0xA0 SHL SUB DUP7 AND DUP5 MSTORE SWAP1 SWAP2 MSTORE SWAP1 KECCAK256 DUP1 SLOAD PUSH1 0xFF NOT AND PUSH1 0x1 OR SWAP1 SSTORE PUSH2 0x113F CALLER SWAP1 JUMP JUMPDEST PUSH1 0x1 PUSH1 0x1 PUSH1 0xA0 SHL SUB AND DUP3 PUSH1 0x1 PUSH1 0x1 PUSH1 0xA0 SHL SUB AND DUP5 PUSH32 0x2F8788117E7EFF1D82E926EC794901D17C78024A50270940304540A733656F0D PUSH1 0x40 MLOAD PUSH1 0x40 MLOAD DUP1 SWAP2 SUB SWAP1 LOG4 POP PUSH1 0x1 PUSH2 0x36A JUMP JUMPDEST PUSH2 0x1191 DUP3 DUP3 PUSH2 0xD5F JUMP JUMPDEST PUSH2 0x11C0 JUMPI PUSH1 0x40 MLOAD PUSH4 0xE2517D3F PUSH1 0xE0 SHL DUP2 MSTORE PUSH1 0x1 PUSH1 0x1 PUSH1 0xA0 SHL SUB DUP3 AND PUSH1 0x4 DUP3 ADD MSTORE PUSH1 0x24 DUP2 ADD DUP4 SWAP1 MSTORE PUSH1 0x44 ADD PUSH2 0x3DB JUMP JUMPDEST POP POP JUMP JUMPDEST POP DUP1 SLOAD PUSH2 0x11D0 SWAP1 PUSH2 0x14BE JUMP JUMPDEST PUSH1 0x0 DUP3 SSTORE DUP1 PUSH1 0x1F LT PUSH2 0x11E0 JUMPI POP POP JUMP JUMPDEST PUSH1 0x1F ADD PUSH1 0x20 SWAP1 DIV SWAP1 PUSH1 0x0 MSTORE PUSH1 0x20 PUSH1 0x0 KECCAK256 SWAP1 DUP2 ADD SWAP1 PUSH2 0x10FA SWAP2 SWAP1 JUMPDEST DUP1 DUP3 GT ISZERO PUSH2 0x120E JUMPI PUSH1 0x0 DUP2 SSTORE PUSH1 0x1 ADD PUSH2 0x11FA JUMP JUMPDEST POP SWAP1 JUMP JUMPDEST PUSH1 0x0 PUSH1 0x20 DUP3 DUP5 SUB SLT ISZERO PUSH2 0x1224 JUMPI PUSH1 0x0 DUP1 REVERT JUMPDEST DUP2 CALLDATALOAD PUSH1 0x1 PUSH1 0x1 PUSH1 0xE0 SHL SUB NOT DUP2 AND DUP2 EQ PUSH2 0x5D6 JUMPI PUSH1 0x0 DUP1 REVERT JUMPDEST DUP1 CALLDATALOAD PUSH1 0x1 PUSH1 0x1 PUSH1 0xA0 SHL SUB DUP2 AND DUP2 EQ PUSH2 0x1253 JUMPI PUSH1 0x0 DUP1 REVERT JUMPDEST SWAP2 SWAP1 POP JUMP JUMPDEST PUSH1 0x0 DUP1 PUSH1 0x40 DUP4 DUP6 SUB SLT ISZERO PUSH2 0x126B JUMPI PUSH1 0x0 DUP1 REVERT JUMPDEST PUSH2 0x1274 DUP4 PUSH2 0x123C JUMP JUMPDEST SWAP5 PUSH1 0x20 SWAP4 SWAP1 SWAP4 ADD CALLDATALOAD SWAP4 POP POP POP JUMP JUMPDEST PUSH1 0x0 PUSH1 0x20 DUP3 DUP5 SUB SLT ISZERO PUSH2 0x1294 JUMPI PUSH1 0x0 DUP1 REVERT JUMPDEST PUSH2 0x5D6 DUP3 PUSH2 0x123C JUMP JUMPDEST PUSH1 0x0 PUSH1 0x20 DUP3 DUP5 SUB SLT ISZERO PUSH2 0x12AF JUMPI PUSH1 0x0 DUP1 REVERT JUMPDEST POP CALLDATALOAD SWAP2 SWAP1 POP JUMP JUMPDEST PUSH1 0x0 DUP2 MLOAD DUP1 DUP5 MSTORE PUSH1 0x0 JUMPDEST DUP2 DUP2 LT ISZERO PUSH2 0x12DC JUMPI PUSH1 0x20 DUP2 DUP6 ADD DUP2 ADD MLOAD DUP7 DUP4 ADD DUP3 ADD MSTORE ADD PUSH2 0x12C0 JUMP JUMPDEST POP PUSH1 0x0 PUSH1 0x20 DUP3 DUP7 ADD ADD MSTORE PUSH1 0x20 PUSH1 0x1F NOT PUSH1 0x1F DUP4 ADD AND DUP6 ADD ADD SWAP2 POP POP SWAP3 SWAP2 POP POP JUMP JUMPDEST PUSH1 0x1 PUSH1 0x1 PUSH1 0xA0 SHL SUB DUP7 AND DUP2 MSTORE PUSH1 0xA0 PUSH1 0x20 DUP3 ADD DUP2 SWAP1 MSTORE PUSH1 0x0 SWAP1 PUSH2 0x1320 SWAP1 DUP4 ADD DUP8 PUSH2 0x12B6 JUMP JUMPDEST PUSH1 0x40 DUP4 ADD SWAP6 SWAP1 SWAP6 MSTORE POP SWAP2 ISZERO ISZERO PUSH1 0x60 DUP4 ADD MSTORE PUSH1 0x80 SWAP1 SWAP2 ADD MSTORE SWAP3 SWAP2 POP POP JUMP JUMPDEST PUSH1 0x0 DUP1 PUSH1 0x40 DUP4 DUP6 SUB SLT ISZERO PUSH2 0x1350 JUMPI PUSH1 0x0 DUP1 REVERT JUMPDEST DUP3 CALLDATALOAD SWAP2 POP PUSH2 0x1360 PUSH1 0x20 DUP5 ADD PUSH2 0x123C JUMP JUMPDEST SWAP1 POP SWAP3 POP SWAP3 SWAP1 POP JUMP JUMPDEST PUSH4 0x4E487B71 PUSH1 0xE0 SHL PUSH1 0x0 MSTORE PUSH1 0x41 PUSH1 0x4 MSTORE PUSH1 0x24 PUSH1 0x0 REVERT JUMPDEST PUSH1 0x0 DUP3 PUSH1 0x1F DUP4 ADD SLT PUSH2 0x1390 JUMPI PUSH1 0x0 DUP1 REVERT JUMPDEST DUP2 CALLDATALOAD PUSH1 0x1 PUSH1 0x1 PUSH1 0x40 SHL SUB DUP1 DUP3 GT ISZERO PUSH2 0x13AA JUMPI PUSH2 0x13AA PUSH2 0x1369 JUMP JUMPDEST PUSH1 0x40 MLOAD PUSH1 0x1F DUP4 ADD PUSH1 0x1F NOT SWAP1 DUP2 AND PUSH1 0x3F ADD AND DUP2 ADD SWAP1 DUP3 DUP3 GT DUP2 DUP4 LT OR ISZERO PUSH2 0x13D2 JUMPI PUSH2 0x13D2 PUSH2 0x1369 JUMP JUMPDEST DUP2 PUSH1 0x40 MSTORE DUP4 DUP2 MSTORE DUP7 PUSH1 0x20 DUP6 DUP9 ADD ADD GT ISZERO PUSH2 0x13EB JUMPI PUSH1 0x0 DUP1 REVERT JUMPDEST DUP4 PUSH1 0x20 DUP8 ADD PUSH1 0x20 DUP4 ADD CALLDATACOPY PUSH1 0x0 PUSH1 0x20 DUP6 DUP4 ADD ADD MSTORE DUP1 SWAP5 POP POP POP POP POP SWAP3 SWAP2 POP POP JUMP JUMPDEST PUSH1 0x0 DUP1 PUSH1 0x40 DUP4 DUP6 SUB SLT ISZERO PUSH2 0x141E JUMPI PUSH1 0x0 DUP1 REVERT JUMPDEST PUSH2 0x1427 DUP4 PUSH2 0x123C JUMP JUMPDEST SWAP2 POP PUSH1 0x20 DUP4 ADD CALLDATALOAD PUSH1 0x1 PUSH1 0x1 PUSH1 0x40 SHL SUB DUP2 GT ISZERO PUSH2 0x1442 JUMPI PUSH1 0x0 DUP1 REVERT JUMPDEST PUSH2 0x144E DUP6 DUP3 DUP7 ADD PUSH2 0x137F JUMP JUMPDEST SWAP2 POP POP SWAP3 POP SWAP3 SWAP1 POP JUMP JUMPDEST PUSH1 0x0 DUP1 PUSH1 0x0 PUSH1 0x60 DUP5 DUP7 SUB SLT ISZERO PUSH2 0x146D JUMPI PUSH1 0x0 DUP1 REVERT JUMPDEST PUSH2 0x1476 DUP5 PUSH2 0x123C JUMP JUMPDEST SWAP3 POP PUSH1 0x20 DUP5 ADD CALLDATALOAD PUSH1 0x1 PUSH1 0x1 PUSH1 0x40 SHL SUB DUP2 GT ISZERO PUSH2 0x1491 JUMPI PUSH1 0x0 DUP1 REVERT JUMPDEST PUSH2 0x149D DUP7 DUP3 DUP8 ADD PUSH2 0x137F JUMP JUMPDEST SWAP3 POP POP PUSH1 0x40 DUP5 ADD CALLDATALOAD DUP1 ISZERO ISZERO DUP2 EQ PUSH2 0x14B3 JUMPI PUSH1 0x0 DUP1 REVERT JUMPDEST DUP1 SWAP2 POP POP SWAP3 POP SWAP3 POP SWAP3 JUMP JUMPDEST PUSH1 0x1 DUP2 DUP2 SHR SWAP1 DUP3 AND DUP1 PUSH2 0x14D2 JUMPI PUSH1 0x7F DUP3 AND SWAP2 POP JUMPDEST PUSH1 0x20 DUP3 LT DUP2 SUB PUSH2 0x14F2 JUMPI PUSH4 0x4E487B71 PUSH1 0xE0 SHL PUSH1 0x0 MSTORE PUSH1 0x22 PUSH1 0x4 MSTORE PUSH1 0x24 PUSH1 0x0 REVERT JUMPDEST POP SWAP2 SWAP1 POP JUMP JUMPDEST PUSH1 0x20 DUP1 DUP3 MSTORE PUSH1 0x21 SWAP1 DUP3 ADD MSTORE PUSH32 0x4163636F756E7420697320616C72656164792061207072696D6172792062616E PUSH1 0x40 DUP3 ADD MSTORE PUSH1 0x6B PUSH1 0xF8 SHL PUSH1 0x60 DUP3 ADD MSTORE PUSH1 0x80 ADD SWAP1 JUMP JUMPDEST PUSH1 0x1F DUP3 GT ISZERO PUSH2 0x70F JUMPI PUSH1 0x0 DUP2 DUP2 MSTORE PUSH1 0x20 DUP2 KECCAK256 PUSH1 0x1F DUP6 ADD PUSH1 0x5 SHR DUP2 ADD PUSH1 0x20 DUP7 LT ISZERO PUSH2 0x1560 JUMPI POP DUP1 JUMPDEST PUSH1 0x1F DUP6 ADD PUSH1 0x5 SHR DUP3 ADD SWAP2 POP JUMPDEST DUP2 DUP2 LT ISZERO PUSH2 0x157F JUMPI DUP3 DUP2 SSTORE PUSH1 0x1 ADD PUSH2 0x156C JUMP JUMPDEST POP POP POP POP POP POP JUMP JUMPDEST DUP2 MLOAD PUSH1 0x1 PUSH1 0x1 PUSH1 0x40 SHL SUB DUP2 GT ISZERO PUSH2 0x15A0 JUMPI PUSH2 0x15A0 PUSH2 0x1369 JUMP JUMPDEST PUSH2 0x15B4 DUP2 PUSH2 0x15AE DUP5 SLOAD PUSH2 0x14BE JUMP JUMPDEST DUP5 PUSH2 0x1539 JUMP JUMPDEST PUSH1 0x20 DUP1 PUSH1 0x1F DUP4 GT PUSH1 0x1 DUP2 EQ PUSH2 0x15E9 JUMPI PUSH1 0x0 DUP5 ISZERO PUSH2 0x15D1 JUMPI POP DUP6 DUP4 ADD MLOAD JUMPDEST PUSH1 0x0 NOT PUSH1 0x3 DUP7 SWAP1 SHL SHR NOT AND PUSH1 0x1 DUP6 SWAP1 SHL OR DUP6 SSTORE PUSH2 0x157F JUMP JUMPDEST PUSH1 0x0 DUP6 DUP2 MSTORE PUSH1 0x20 DUP2 KECCAK256 PUSH1 0x1F NOT DUP7 AND SWAP2 JUMPDEST DUP3 DUP2 LT ISZERO PUSH2 0x1618 JUMPI DUP9 DUP7 ADD MLOAD DUP3 SSTORE SWAP5 DUP5 ADD SWAP5 PUSH1 0x1 SWAP1 SWAP2 ADD SWAP1 DUP5 ADD PUSH2 0x15F9 JUMP JUMPDEST POP DUP6 DUP3 LT ISZERO PUSH2 0x1636 JUMPI DUP8 DUP6 ADD MLOAD PUSH1 0x0 NOT PUSH1 0x3 DUP9 SWAP1 SHL PUSH1 0xF8 AND SHR NOT AND DUP2 SSTORE JUMPDEST POP POP POP POP POP PUSH1 0x1 SWAP1 DUP2 SHL ADD SWAP1 SSTORE POP JUMP JUMPDEST PUSH1 0x20 DUP2 MSTORE PUSH1 0x0 PUSH2 0x5D6 PUSH1 0x20 DUP4 ADD DUP5 PUSH2 0x12B6 JUMP JUMPDEST PUSH1 0x20 DUP1 DUP3 MSTORE PUSH1 0x28 SWAP1 DUP3 ADD MSTORE PUSH32 0x4163636F756E7420616C72656164792068617320757365722F656E7465727072 PUSH1 0x40 DUP3 ADD MSTORE PUSH8 0x69736520726F6C65 PUSH1 0xC0 SHL PUSH1 0x60 DUP3 ADD MSTORE PUSH1 0x80 ADD SWAP1 JUMP JUMPDEST PUSH1 0x20 DUP1 DUP3 MSTORE PUSH1 0x23 SWAP1 DUP3 ADD MSTORE PUSH32 0x4163636F756E7420697320616C72656164792061207365636F6E646172792062 PUSH1 0x40 DUP3 ADD MSTORE PUSH3 0x616E6B PUSH1 0xE8 SHL PUSH1 0x60 DUP3 ADD MSTORE PUSH1 0x80 ADD SWAP1 JUMP JUMPDEST PUSH1 0x40 DUP2 MSTORE PUSH1 0x0 PUSH2 0x16F7 PUSH1 0x40 DUP4 ADD DUP6 PUSH2 0x12B6 JUMP JUMPDEST SWAP1 POP DUP3 ISZERO ISZERO PUSH1 0x20 DUP4 ADD MSTORE SWAP4 SWAP3 POP POP POP JUMP INVALID SWAP3 MULMOD SWAP5 0xFC EXTCODESIZE INVALID 0x28 0x2F EXTCODEHASH KECCAK256 0xCD 0xCC CALL 0xB7 0xC5 0xE4 PUSH13 0x63D963E822D98EFFF90ABD41C1 0x2E 0x21 SWAP9 DUP11 0xD2 0x49 LOG3 0xA5 PUSH25 0xF3CA7B7F03DA9FFDB25C0F9BF3684A5B8AAC97D04FC81C2107 ORIGIN 0xD3 0xB4 AND 0xB1 0xE9 PC SGT PUSH27 0xA50D8C4EBE23BC919D27A2C40D6DB677D85D5BFE33C83020B5F7AC SWAP8 DUP15 0x5D PUSH2 0x99DE MOD BLOCKHASH EQ GT SWAP7 0xD STATICCALL DUP2 0xD2 0xF7 PUSH3 0x655F62 MOD 0xBD 0xC6 SAR CHAINID 0xFC NOT 0xE6 EQ DUP3 CODECOPY GT CALLCODE 0xDA SHL 0x49 CREATE GASLIMIT LOG0 SWAP3 SWAP11 PUSH1 0xB8 0xC1 CALLCODE 0xA7 0xFC DUP13 MOD 0xC7 0x28 0x4C LOG3 0xE8 0xAB 0x4E NOT GASPRICE ADDMOD 0xC8 OR SWAP13 INVALID 0xEA PUSH17 0xBFBADFC00A9B19F8CC0D49AB2A2B6854D1 SHL LOG2 EQ SWAP13 PUSH25 0x8F659E83ACA2646970667358221220888F4FEDC17BE7A30388 0xAD 0x4D 0x2B RETURN EXTCODEHASH 0x1F KECCAK256 LOG3 DUP2 SWAP7 CREATE2 0x2E 0xAB 0xA9 0xB2 0x25 PUSH1 0x8E DUP3 GAS PUSH8 0xDC64736F6C634300 ADDMOD EQ STOP CALLER ORIGIN 0xD3 0xB4 AND 0xB1 0xE9 PC SGT PUSH27 0xA50D8C4EBE23BC919D27A2C40D6DB677D85D5BFE33C83000000000 "},"methodIdentifiers":{"DEFAULT_ADMIN_ROLE()":"a217fddf","ENTERPRISE_ROLE()":"68dd17a5","PRIMARY_BANK_ROLE()":"e206ba50","REGULATOR_ROLE()":"144bf589","SECONDARY_BANK_ROLE()":"c5fbb610","USER_ROLE()":"13119161","VALIDATOR_ROLE()":"c49baebe","assignEnterprise(address,string)":"7304c588","assignRegulator(address,string)":"cf850c8d","assignSecondaryBank(address,string)":"5cead0e9","assignUser(address,string)":"658a4823","getRoleAdmin(bytes32)":"248a9ca3","getRoleLevel(address)":"c8aee754","grantRole(bytes32,address)":"2f2ff15d","hasRole(bytes32,address)":"91d14854","hasValidRole(address)":"217b8ee9","renounceRole(bytes32,address)":"36568abe","revokeRole(address,bytes32)":"208dd1ff","revokeRole(bytes32,address)":"d547741f","roleInfo(address)":"24f13320","supportsInterface(bytes4)":"01ffc9a7","updateRoleInfo(address,string,bool)":"9859199d","validatePermission(address,uint256)":"7c0f8882"}}}}}