{"contracts/UTXO.sol":{"CDBCUTXO":{"abi":[{"inputs":[],"stateMutability":"nonpayable","type":"constructor"},{"inputs":[],"name":"AccessControlBadConfirmation","type":"error"},{"inputs":[{"internalType":"address","name":"account","type":"address"},{"internalType":"bytes32","name":"neededRole","type":"bytes32"}],"name":"AccessControlUnauthorizedAccount","type":"error"},{"anonymous":false,"inputs":[{"indexed":false,"internalType":"uint256","name":"amount","type":"uint256"},{"indexed":true,"internalType":"address","name":"minter","type":"address"}],"name":"CoinsMinted","type":"event"},{"anonymous":false,"inputs":[{"indexed":true,"internalType":"bytes32","name":"role","type":"bytes32"},{"indexed":true,"internalType":"bytes32","name":"previousAdminRole","type":"bytes32"},{"indexed":true,"internalType":"bytes32","name":"newAdminRole","type":"bytes32"}],"name":"RoleAdminChanged","type":"event"},{"anonymous":false,"inputs":[{"indexed":true,"internalType":"address","name":"account","type":"address"},{"indexed":true,"internalType":"bytes32","name":"role","type":"bytes32"},{"indexed":false,"internalType":"string","name":"name","type":"string"}],"name":"RoleAssigned","type":"event"},{"anonymous":false,"inputs":[{"indexed":true,"internalType":"bytes32","name":"role","type":"bytes32"},{"indexed":true,"internalType":"address","name":"account","type":"address"},{"indexed":true,"internalType":"address","name":"sender","type":"address"}],"name":"RoleGranted","type":"event"},{"anonymous":false,"inputs":[{"indexed":true,"internalType":"bytes32","name":"role","type":"bytes32"},{"indexed":true,"internalType":"address","name":"account","type":"address"},{"indexed":true,"internalType":"address","name":"sender","type":"address"}],"name":"RoleRevoked","type":"event"},{"anonymous":false,"inputs":[{"indexed":true,"internalType":"address","name":"account","type":"address"},{"indexed":true,"internalType":"bytes32","name":"role","type":"bytes32"}],"name":"RoleRevoked","type":"event"},{"anonymous":false,"inputs":[{"indexed":true,"internalType":"address","name":"account","type":"address"},{"indexed":false,"internalType":"string","name":"name","type":"string"},{"indexed":false,"internalType":"bool","name":"active","type":"bool"}],"name":"RoleUpdated","type":"event"},{"anonymous":false,"inputs":[{"indexed":true,"internalType":"uint256","name":"txId","type":"uint256"},{"indexed":true,"internalType":"address","name":"sender","type":"address"},{"indexed":false,"internalType":"uint256","name":"outputsCount","type":"uint256"}],"name":"TransactionCreated","type":"event"},{"anonymous":false,"inputs":[{"indexed":true,"internalType":"uint256","name":"utxoId","type":"uint256"},{"indexed":false,"internalType":"uint256","name":"value","type":"uint256"},{"indexed":true,"internalType":"address","name":"recipient","type":"address"}],"name":"UTXOCreated","type":"event"},{"anonymous":false,"inputs":[{"indexed":true,"internalType":"uint256","name":"utxoId","type":"uint256"},{"indexed":false,"internalType":"uint256","name":"txId","type":"uint256"}],"name":"UTXOSpent","type":"event"},{"inputs":[],"name":"DEFAULT_ADMIN_ROLE","outputs":[{"internalType":"bytes32","name":"","type":"bytes32"}],"stateMutability":"view","type":"function"},{"inputs":[],"name":"ENTERPRISE_ROLE","outputs":[{"internalType":"bytes32","name":"","type":"bytes32"}],"stateMutability":"view","type":"function"},{"inputs":[],"name":"MAX_SUPPLY","outputs":[{"internalType":"uint256","name":"","type":"uint256"}],"stateMutability":"view","type":"function"},{"inputs":[],"name":"PRIMARY_BANK_ROLE","outputs":[{"internalType":"bytes32","name":"","type":"bytes32"}],"stateMutability":"view","type":"function"},{"inputs":[],"name":"REGULATOR_ROLE","outputs":[{"internalType":"bytes32","name":"","type":"bytes32"}],"stateMutability":"view","type":"function"},{"inputs":[],"name":"SECONDARY_BANK_ROLE","outputs":[{"internalType":"bytes32","name":"","type":"bytes32"}],"stateMutability":"view","type":"function"},{"inputs":[],"name":"USER_ROLE","outputs":[{"internalType":"bytes32","name":"","type":"bytes32"}],"stateMutability":"view","type":"function"},{"inputs":[],"name":"VALIDATOR_ROLE","outputs":[{"internalType":"bytes32","name":"","type":"bytes32"}],"stateMutability":"view","type":"function"},{"inputs":[{"internalType":"address","name":"","type":"address"},{"internalType":"uint256","name":"","type":"uint256"}],"name":"addressUTXOs","outputs":[{"internalType":"uint256","name":"","type":"uint256"}],"stateMutability":"view","type":"function"},{"inputs":[{"internalType":"address","name":"account","type":"address"},{"internalType":"string","name":"name","type":"string"}],"name":"assignEnterprise","outputs":[],"stateMutability":"nonpayable","type":"function"},{"inputs":[{"internalType":"address","name":"account","type":"address"},{"internalType":"string","name":"name","type":"string"}],"name":"assignRegulator","outputs":[],"stateMutability":"nonpayable","type":"function"},{"inputs":[{"internalType":"address","name":"account","type":"address"},{"internalType":"string","name":"name","type":"string"}],"name":"assignSecondaryBank","outputs":[],"stateMutability":"nonpayable","type":"function"},{"inputs":[{"internalType":"address","name":"account","type":"address"},{"internalType":"string","name":"name","type":"string"}],"name":"assignUser","outputs":[],"stateMutability":"nonpayable","type":"function"},{"inputs":[{"internalType":"uint256","name":"amount","type":"uint256"}],"name":"convertAccountToUTXO","outputs":[],"stateMutability":"nonpayable","type":"function"},{"inputs":[{"internalType":"uint256[]","name":"utxoIds","type":"uint256[]"},{"internalType":"uint256","name":"amount","type":"uint256"}],"name":"convertUTXOToAccount","outputs":[],"stateMutability":"nonpayable","type":"function"},{"inputs":[{"components":[{"internalType":"uint256","name":"prevTxId","type":"uint256"},{"internalType":"uint256","name":"outputIndex","type":"uint256"},{"internalType":"bytes","name":"signature","type":"bytes"}],"internalType":"struct CDBCTransaction.Input[]","name":"inputs","type":"tuple[]"},{"components":[{"internalType":"uint256","name":"value","type":"uint256"},{"internalType":"address payable","name":"recipient","type":"address"},{"internalType":"bool","name":"isSpent","type":"bool"},{"internalType":"uint256","name":"lockTime","type":"uint256"}],"internalType":"struct CDBCTransaction.Output[]","name":"outputs","type":"tuple[]"}],"name":"createTransaction","outputs":[{"internalType":"uint256","name":"","type":"uint256"}],"stateMutability":"nonpayable","type":"function"},{"inputs":[{"internalType":"address","name":"owner","type":"address"}],"name":"getAddressBalance","outputs":[{"internalType":"uint256","name":"","type":"uint256"}],"stateMutability":"view","type":"function"},{"inputs":[{"internalType":"address","name":"owner","type":"address"}],"name":"getAddressUTXOs","outputs":[{"internalType":"uint256[]","name":"","type":"uint256[]"}],"stateMutability":"view","type":"function"},{"inputs":[{"internalType":"bytes32","name":"role","type":"bytes32"}],"name":"getRoleAdmin","outputs":[{"internalType":"bytes32","name":"","type":"bytes32"}],"stateMutability":"view","type":"function"},{"inputs":[{"internalType":"address","name":"account","type":"address"}],"name":"getRoleLevel","outputs":[{"internalType":"uint256","name":"","type":"uint256"}],"stateMutability":"view","type":"function"},{"inputs":[{"internalType":"uint256","name":"txId","type":"uint256"}],"name":"getTransaction","outputs":[{"components":[{"internalType":"uint256","name":"txId","type":"uint256"},{"components":[{"internalType":"uint256","name":"prevTxId","type":"uint256"},{"internalType":"uint256","name":"outputIndex","type":"uint256"},{"internalType":"bytes","name":"signature","type":"bytes"}],"internalType":"struct CDBCTransaction.Input[]","name":"inputs","type":"tuple[]"},{"components":[{"internalType":"uint256","name":"value","type":"uint256"},{"internalType":"address payable","name":"recipient","type":"address"},{"internalType":"bool","name":"isSpent","type":"bool"},{"internalType":"uint256","name":"lockTime","type":"uint256"}],"internalType":"struct CDBCTransaction.Output[]","name":"outputs","type":"tuple[]"},{"internalType":"uint256","name":"timestamp","type":"uint256"},{"internalType":"address","name":"sender","type":"address"}],"internalType":"struct CDBCTransaction.Transaction","name":"","type":"tuple"}],"stateMutability":"view","type":"function"},{"inputs":[{"internalType":"uint256","name":"utxoId","type":"uint256"}],"name":"getUTXODetails","outputs":[{"components":[{"internalType":"uint256","name":"value","type":"uint256"},{"internalType":"address payable","name":"recipient","type":"address"},{"internalType":"bool","name":"isSpent","type":"bool"},{"internalType":"uint256","name":"lockTime","type":"uint256"}],"internalType":"struct CDBCTransaction.Output","name":"","type":"tuple"}],"stateMutability":"view","type":"function"},{"inputs":[{"internalType":"bytes32","name":"role","type":"bytes32"},{"internalType":"address","name":"account","type":"address"}],"name":"grantRole","outputs":[],"stateMutability":"nonpayable","type":"function"},{"inputs":[{"internalType":"bytes32","name":"role","type":"bytes32"},{"internalType":"address","name":"account","type":"address"}],"name":"hasRole","outputs":[{"internalType":"bool","name":"","type":"bool"}],"stateMutability":"view","type":"function"},{"inputs":[{"internalType":"address","name":"account","type":"address"}],"name":"hasValidRole","outputs":[{"internalType":"bool","name":"","type":"bool"}],"stateMutability":"view","type":"function"},{"inputs":[{"internalType":"address","name":"recipient","type":"address"},{"internalType":"uint256","name":"amount","type":"uint256"}],"name":"mint","outputs":[],"stateMutability":"nonpayable","type":"function"},{"inputs":[{"internalType":"bytes32","name":"role","type":"bytes32"},{"internalType":"address","name":"callerConfirmation","type":"address"}],"name":"renounceRole","outputs":[],"stateMutability":"nonpayable","type":"function"},{"inputs":[{"internalType":"address","name":"account","type":"address"},{"internalType":"bytes32","name":"role","type":"bytes32"}],"name":"revokeRole","outputs":[],"stateMutability":"nonpayable","type":"function"},{"inputs":[{"internalType":"bytes32","name":"role","type":"bytes32"},{"internalType":"address","name":"account","type":"address"}],"name":"revokeRole","outputs":[],"stateMutability":"nonpayable","type":"function"},{"inputs":[{"internalType":"address","name":"","type":"address"}],"name":"roleInfo","outputs":[{"internalType":"address","name":"addr","type":"address"},{"internalType":"string","name":"name","type":"string"},{"internalType":"uint256","name":"level","type":"uint256"},{"internalType":"bool","name":"active","type":"bool"},{"internalType":"uint256","name":"createdAt","type":"uint256"}],"stateMutability":"view","type":"function"},{"inputs":[{"internalType":"bytes4","name":"interfaceId","type":"bytes4"}],"name":"supportsInterface","outputs":[{"internalType":"bool","name":"","type":"bool"}],"stateMutability":"view","type":"function"},{"inputs":[],"name":"totalSupply","outputs":[{"internalType":"uint256","name":"","type":"uint256"}],"stateMutability":"view","type":"function"},{"inputs":[{"internalType":"uint256","name":"","type":"uint256"}],"name":"transactions","outputs":[{"internalType":"uint256","name":"txId","type":"uint256"},{"internalType":"uint256","name":"timestamp","type":"uint256"},{"internalType":"address","name":"sender","type":"address"}],"stateMutability":"view","type":"function"},{"inputs":[],"name":"txCounter","outputs":[{"internalType":"uint256","name":"","type":"uint256"}],"stateMutability":"view","type":"function"},{"inputs":[{"internalType":"uint256","name":"","type":"uint256"}],"name":"txIdExists","outputs":[{"internalType":"bool","name":"","type":"bool"}],"stateMutability":"view","type":"function"},{"inputs":[{"internalType":"address","name":"account","type":"address"},{"internalType":"string","name":"name","type":"string"},{"internalType":"bool","name":"active","type":"bool"}],"name":"updateRoleInfo","outputs":[],"stateMutability":"nonpayable","type":"function"},{"inputs":[{"internalType":"uint256","name":"","type":"uint256"}],"name":"utxos","outputs":[{"internalType":"uint256","name":"value","type":"uint256"},{"internalType":"address payable","name":"recipient","type":"address"},{"internalType":"bool","name":"isSpent","type":"bool"},{"internalType":"uint256","name":"lockTime","type":"uint256"}],"stateMutability":"view","type":"function"},{"inputs":[{"internalType":"address","name":"account","type":"address"},{"internalType":"uint256","name":"requiredLevel","type":"uint256"}],"name":"validatePermission","outputs":[{"internalType":"bool","name":"","type":"bool"}],"stateMutability":"view","type":"function"}],"evm":{"bytecode":{"linkReferences":{},"object":"60806040523480156200001157600080fd5b506200001f60003362000171565b506200003b600080516020620039918339815191523362000171565b506040805160a0810182523380825282518084018452600b81526a5072696d61727942616e6b60a81b60208083019190915280840191825260018486018190526060850181905242608086015260009384529081905293909120825181546001600160a01b0319166001600160a01b0390911617815590519192909190820190620000c79082620002c5565b506040828101516002830155606083015160038301805491151560ff1990921691909117905560809092015160049091015551600080516020620039918339815191529033907f988ad249a3a578f3ca7b7f03da9ffdb25c0f9bf3684a5b8aac97d04fc81c21079062000159906020808252600b908201526a5072696d61727942616e6b60a81b604082015260600190565b60405180910390a36000600681905560075562000391565b6000828152602081815260408083206001600160a01b038516845290915281205460ff1662000216576000838152602081815260408083206001600160a01b03861684529091529020805460ff19166001179055620001cd3390565b6001600160a01b0316826001600160a01b0316847f2f8788117e7eff1d82e926ec794901d17c78024a50270940304540a733656f0d60405160405180910390a45060016200021a565b5060005b92915050565b634e487b7160e01b600052604160045260246000fd5b600181811c908216806200024b57607f821691505b6020821081036200026c57634e487b7160e01b600052602260045260246000fd5b50919050565b601f821115620002c057600081815260208120601f850160051c810160208610156200029b5750805b601f850160051c820191505b81811015620002bc57828155600101620002a7565b5050505b505050565b81516001600160401b03811115620002e157620002e162000220565b620002f981620002f2845462000236565b8462000272565b602080601f831160018114620003315760008415620003185750858301515b600019600386901b1c1916600185901b178555620002bc565b600085815260208120601f198616915b82811015620003625788860151825594840194600190910190840162000341565b5085821015620003815787850151600019600388901b60f8161c191681555b5050505050600190811b01905550565b6135f080620003a16000396000f3fe608060405234801561001057600080fd5b50600436106101c25760003560e01c806301ffc9a7146101c757806313119161146101ef578063144bf5891461021257806318160ddd14610227578063208dd1ff14610230578063217b8ee914610245578063248a9ca31461025857806324f133201461026b5780632f2ff15d1461028f57806332cb6b0c146102a257806333ea3dc8146102b45780633409d8f6146102d457806335046722146102f757806336568abe1461030a57806340c10f191461031d5780635cead0e914610330578063658a48231461034357806368dd17a5146103565780637304c5881461036b57806374f079b81461037e5780637c0f8882146103875780638001cfe51461039a57806381591387146103ad5780638805ce351461042057806391d14854146104335780639859199d146104465780639ace38c214610459578063a217fddf146104b5578063a43ef956146104bd578063c49baebe146104dd578063c5fbb61014610504578063c8aee75414610519578063cf850c8d14610545578063d313825514610558578063d547741f1461056b578063d980d7351461057e578063e0b99a2d1461059e578063e206ba50146105b1575b600080fd5b6101da6101d53660046128f0565b6105c6565b60405190151581526020015b60405180910390f35b61020460008051602061353b83398151915281565b6040519081526020016101e6565b6102046000805160206134fb83398151915281565b61020460075481565b61024361023e36600461292f565b6105fd565b005b6101da61025336600461295b565b61075e565b610204610266366004612978565b61086a565b61027e61027936600461295b565b61087f565b6040516101e69594939291906129d7565b61024361029d366004612a18565b610947565b610204676765c793fa10079d601b1b81565b6102c76102c2366004612978565b610969565b6040516101e69190612abb565b6101da6102e2366004612978565b60056020526000908152604090205460ff1681565b61020461030536600461295b565b610b87565b610243610318366004612a18565b610c63565b61024361032b36600461292f565b610c9b565b61024361033e366004612c33565b610fe2565b610243610351366004612c33565b61119d565b61020460008051602061349b83398151915281565b610243610379366004612c33565b611361565b61020460065481565b6101da61039536600461292f565b611525565b6102046103a836600461292f565b61162d565b6103f26103bb366004612978565b60036020526000908152604090208054600182015460029092015490916001600160a01b03811691600160a01b90910460ff169084565b604080519485526001600160a01b0390931660208501529015159183019190915260608201526080016101e6565b61024361042e366004612978565b61165e565b6101da610441366004612a18565b61175b565b610243610454366004612c90565b611784565b610491610467366004612978565b6002602052600090815260409020805460038201546004909201549091906001600160a01b031683565b6040805193845260208401929092526001600160a01b0316908201526060016101e6565b610204600081565b6104d06104cb36600461295b565b6118ee565b6040516101e69190612cf3565b6102047f21702c8af46127c7fa207f89d0b0a8441bb32959a0ac7df790e9ab1a25c9892681565b61020460008051602061355b83398151915281565b61020461052736600461295b565b6001600160a01b031660009081526001602052604090206002015490565b610243610553366004612c33565b61195a565b610243610566366004612d82565b611acd565b610243610579366004612a18565b611d0e565b61059161058c366004612978565b611d2a565b6040516101e69190612dcd565b6102046105ac366004612ddb565b611d89565b6102046000805160206134db83398151915281565b60006001600160e01b03198216637965db0b60e01b14806105f757506301ffc9a760e01b6001600160e01b03198316145b92915050565b6106156000805160206134db8339815191523361175b565b6106715760405162461bcd60e51b815260206004820152602260248201527f4f6e6c79207072696d6172792062616e6b2063616e207265766f6b6520726f6c604482015261657360f01b60648201526084015b60405180910390fd5b61067b818361175b565b6106c75760405162461bcd60e51b815260206004820152601e60248201527f4163636f756e7420646f6573206e6f7420686176652074686520726f6c6500006044820152606401610668565b6106d18183612623565b506001600160a01b0382166000908152600160208190526040822080546001600160a01b031916815591906107089083018261286a565b5060006002820181905560038201805460ff19169055600490910181905560405182916001600160a01b038516917fea83a7caef01824e96446a8c4bc8ff4669edd99e129b53e32c077f85d21680819190a35050565b6001600160a01b038082166000908152600160208181526040808420815160a08101909252805490951681529184018054939485949092840191906107a290612e74565b80601f01602080910402602001604051908101604052809291908181526020018280546107ce90612e74565b801561081b5780601f106107f05761010080835404028352916020019161081b565b820191906000526020600020905b8154815290600101906020018083116107fe57829003601f168201915b505050918352505060028201546020820152600382015460ff16151560408201526004909101546060918201528101519091508015610863575080516001600160a01b031615155b9392505050565b60009081526020819052604090206001015490565b6001602081905260009182526040909120805491810180546001600160a01b03909316926108ac90612e74565b80601f01602080910402602001604051908101604052809291908181526020018280546108d890612e74565b80156109255780601f106108fa57610100808354040283529160200191610925565b820191906000526020600020905b81548152906001019060200180831161090857829003601f168201915b50505050600283015460038401546004909401549293909260ff909116915085565b6109508261086a565b61095981612696565b61096383836126a3565b50505050565b6109a46040518060a001604052806000815260200160608152602001606081526020016000815260200160006001600160a01b031681525090565b600260008381526020019081526020016000206040518060a00160405290816000820154815260200160018201805480602002602001604051908101604052809291908181526020016000905b82821015610ac957838290600052602060002090600302016040518060600160405290816000820154815260200160018201548152602001600282018054610a3890612e74565b80601f0160208091040260200160405190810160405280929190818152602001828054610a6490612e74565b8015610ab15780601f10610a8657610100808354040283529160200191610ab1565b820191906000526020600020905b815481529060010190602001808311610a9457829003601f168201915b505050505081525050815260200190600101906109f1565b50505050815260200160028201805480602002602001604051908101604052809291908181526020016000905b82821015610b5b5760008481526020908190206040805160808101825260038602909201805483526001808201546001600160a01b03811685870152600160a01b900460ff161515928401929092526002015460608301529083529092019101610af6565b50505090825250600382015460208201526004909101546001600160a01b031660409091015292915050565b6001600160a01b038116600090815260046020526040812081805b8254811015610c5b57600060036000858481548110610bc357610bc3612eae565b6000918252602080832091909101548352828101939093526040918201902081516080810183528154815260018201546001600160a01b03811694820194909452600160a01b90930460ff161580159284018390526002909101546060840152919250610c34575080606001514210155b15610c48578051610c459084612eda565b92505b5080610c5381612eed565b915050610ba2565b509392505050565b6001600160a01b0381163314610c8c5760405163334bd91960e11b815260040160405180910390fd5b610c968282612623565b505050565b6000805160206134db833981519152610cb381612696565b676765c793fa10079d601b1b82600754610ccd9190612eda565b1115610d145760405162461bcd60e51b815260206004820152601660248201527545786365656473206d6178696d756d20737570706c7960501b6044820152606401610668565b6001600160a01b038316610d665760405162461bcd60e51b8152602060048201526019602482015278496e76616c696420726563697069656e74206164647265737360381b6044820152606401610668565b610d6f8361075e565b610dbb5760405162461bcd60e51b815260206004820181905260248201527f526563697069656e74206d757374206861766520612076616c696420726f6c656044820152606401610668565b6000838342600654604051602001610dd69493929190612f06565b60408051601f1981840301815282825280516020918201206080840183528684526001600160a01b03808916858401818152600087870181815260608901828152868352600388528883208a51815593516001858101805494511515600160a01b026001600160a81b03199095169290981691909117929092179095559351600290920191909155908152600484529384208054918201815584529183209091018190556007805491945086929091610e90908490612eda565b90915550506000828152600260208181526040808420868155426003808301919091556004820180546001600160a01b03191633179055908401805460018181018355918752848720885191909302909201918255868401518282018054898601511515600160a01b026001600160a81b03199091166001600160a01b0393909316929092179190911790556060870151919094015585845260059091528220805460ff191690911790556006805491610f4983612eed565b9190505550846001600160a01b03168260008051602061351b83398151915286604051610f7891815260200190565b60405180910390a360405184815233907f2c6364c33c231f6b00d9d8736d5ffc450b1a21fda45ef7847565e16a039a4cd59060200160405180910390a2604051600181523390839060008051602061357b8339815191529060200160405180910390a35050505050565b6000805160206134db833981519152610ffa81612696565b61101260008051602061355b8339815191528461175b565b1561106f5760405162461bcd60e51b815260206004820152602760248201527f4163636f756e7420616c726561647920686173207365636f6e646172792062616044820152666e6b20726f6c6560c81b6064820152608401610668565b6110876000805160206134db8339815191528461175b565b156110a45760405162461bcd60e51b815260040161066890612f30565b6110bc60008051602061355b833981519152846126a3565b506040805160a0810182526001600160a01b03858116808352602080840187815260028587015260016060860181905242608087015260009384529182905294909120835181546001600160a01b0319169316929092178255925191929091908201906111299082612fcc565b506040828101516002830155606083015160038301805460ff19169115159190911790556080909201516004909101555160008051602061355b833981519152906001600160a01b038516906000805160206134bb83398151915290611190908690613085565b60405180910390a3505050565b60008051602061355b8339815191526111b581612696565b6111cd60008051602061353b8339815191528461175b565b1580156111ef57506111ed60008051602061349b8339815191528461175b565b155b61120b5760405162461bcd60e51b815260040161066890613098565b61122360008051602061355b8339815191528461175b565b156112405760405162461bcd60e51b8152600401610668906130e0565b6112586000805160206134db8339815191528461175b565b156112755760405162461bcd60e51b815260040161066890612f30565b61128d60008051602061353b833981519152846126a3565b506040805160a0810182526001600160a01b03858116808352602080840187815260038587015260016060860181905242608087015260009384529182905294909120835181546001600160a01b0319169316929092178255925191929091908201906112fa9082612fcc565b506040828101516002830155606083015160038301805460ff19169115159190911790556080909201516004909101555160008051602061353b833981519152906001600160a01b038516906000805160206134bb83398151915290611190908690613085565b60008051602061355b83398151915261137981612696565b61139160008051602061353b8339815191528461175b565b1580156113b357506113b160008051602061349b8339815191528461175b565b155b6113cf5760405162461bcd60e51b815260040161066890613098565b6113e760008051602061355b8339815191528461175b565b156114045760405162461bcd60e51b8152600401610668906130e0565b61141c6000805160206134db8339815191528461175b565b156114395760405162461bcd60e51b815260040161066890612f30565b61145160008051602061349b833981519152846126a3565b506040805160a0810182526001600160a01b03858116808352602080840187815260038587015260016060860181905242608087015260009384529182905294909120835181546001600160a01b0319169316929092178255925191929091908201906114be9082612fcc565b506040828101516002830155606083015160038301805460ff19169115159190911790556080909201516004909101555160008051602061349b833981519152906001600160a01b038516906000805160206134bb83398151915290611190908690613085565b6001600160a01b038083166000908152600160208181526040808420815160a081019092528054909516815291840180549394859490928401919061156990612e74565b80601f016020809104026020016040519081016040528092919081815260200182805461159590612e74565b80156115e25780601f106115b7576101008083540402835291602001916115e2565b820191906000526020600020905b8154815290600101906020018083116115c557829003601f168201915b505050918352505060028201546020820152600382015460ff16151560408201526004909101546060918201528101519091508015611625575082816040015111155b949350505050565b6004602052816000526040600020818154811061164957600080fd5b90600052602060002001600091509150505481565b6116673361075e565b6116835760405162461bcd60e51b815260040161066890613123565b600033824260065460405160200161169e9493929190612f06565b60408051601f19818403018152828252805160209182012060808401835285845233828501818152600086860181815260608801828152858352600387528783208951815593516001808601805494511515600160a01b026001600160a81b03199095166001600160a01b03909316929092179390931790555160029093019290925582815260048552858120805492830181558152849020018290559251868152909450849160008051602061351b8339815191529101611190565b6000918252602082815260408084206001600160a01b0393909316845291905290205460ff1690565b61179c6000805160206134db8339815191523361175b565b806117ba57506117ba60008051602061355b8339815191523361175b565b6118045760405162461bcd60e51b815260206004820152601b60248201527a4f6e6c792062616e6b732063616e2075706461746520726f6c657360281b6044820152606401610668565b6001600160a01b038381166000908152600160205260409020541661186a5760405162461bcd60e51b815260206004820152601c60248201527b4163636f756e7420646f6573206e6f742068617665206120726f6c6560201b6044820152606401610668565b6001600160a01b03831660009081526001602081905260409091209081016118928482612fcc565b5060038101805460ff19168315151790556040516001600160a01b038516907fc4d12f4fed3c7d8e40b10b954dc4b19c26000388e17fd31b4af750dd33b41664906118e0908690869061315a565b60405180910390a250505050565b6001600160a01b03811660009081526004602090815260409182902080548351818402810184019094528084526060939283018282801561194e57602002820191906000526020600020905b81548152602001906001019080831161193a575b50505050509050919050565b6000805160206134db83398151915261197281612696565b61198a6000805160206134fb8339815191528461175b565b156119e25760405162461bcd60e51b815260206004820152602260248201527f4163636f756e7420616c72656164792068617320726567756c61746f7220726f6044820152616c6560f01b6064820152608401610668565b6119fa6000805160206134fb833981519152846126a3565b506040805160a0810182526001600160a01b038581168083526020808401878152600085870181905260016060870181905242608088015293815291839052949020835181546001600160a01b031916931692909217825592519192909190820190611a669082612fcc565b506040828101516002830155606083015160038301805460ff1916911515919091179055608090920151600490910155516000805160206134fb833981519152906001600160a01b038516906000805160206134bb83398151915290611190908690613085565b611ad63361075e565b611af25760405162461bcd60e51b815260040161066890613123565b6000805b83811015611bd057600060036000878785818110611b1657611b16612eae565b6020908102929092013583525081019190915260400160002060018101549091506001600160a01b03163314611b5e5760405162461bcd60e51b81526004016106689061317e565b6001810154600160a01b900460ff1615611b8a5760405162461bcd60e51b8152600401610668906131aa565b8060020154421015611bae5760405162461bcd60e51b8152600401610668906131d6565b8054611bba9084612eda565b9250508080611bc890612eed565b915050611af6565b5081811015611c1d5760405162461bcd60e51b8152602060048201526019602482015278496e73756666696369656e74205554584f2062616c616e636560381b6044820152606401610668565b60005b83811015611cc557600060036000878785818110611c4057611c40612eae565b6020908102929092013583525081019190915260400160002060018101805460ff60a01b1916600160a01b1790559050858583818110611c8257611c82612eae565b9050602002013560008051602061359b833981519152600654604051611caa91815260200190565b60405180910390a25080611cbd81612eed565b915050611c20565b5060005b83811015611d0757611cf533868684818110611ce757611ce7612eae565b90506020020135600061272d565b80611cff81612eed565b915050611cc9565b5050505050565b611d178261086a565b611d2081612696565b6109638383612623565b611d326128a4565b5060009081526003602090815260409182902082516080810184528154815260018201546001600160a01b03811693820193909352600160a01b90920460ff16151592820192909252600290910154606082015290565b600083611dcd5760405162461bcd60e51b8152602060048201526012602482015271139bc81a5b9c1d5d1cc81c1c9bdd9a59195960721b6044820152606401610668565b81611e105760405162461bcd60e51b8152602060048201526013602482015272139bc81bdd5d1c1d5d1cc81c1c9bdd9a591959606a1b6044820152606401610668565b611e193361075e565b611e355760405162461bcd60e51b815260040161066890613123565b6000805b85811015611ffd5736878783818110611e5457611e54612eae565b9050602002810190611e6691906131fb565b803560009081526002602090815260408083206005909252909120549192509060ff16611ee15760405162461bcd60e51b815260206004820152602360248201527f50726576696f7573207472616e73616374696f6e20646f6573206e6f742065786044820152621a5cdd60ea1b6064820152608401610668565b6002810154602083013510611f2f5760405162461bcd60e51b8152602060048201526014602482015273092dcecc2d8d2c840deeae8e0eae840d2dcc8caf60631b6044820152606401610668565b600081600201836020013581548110611f4a57611f4a612eae565b906000526020600020906003020190508060010160149054906101000a900460ff1615611f895760405162461bcd60e51b8152600401610668906131aa565b60018101546001600160a01b03163314611fb55760405162461bcd60e51b81526004016106689061317e565b8060020154421015611fd95760405162461bcd60e51b8152600401610668906131d6565b8054611fe59086612eda565b94505050508080611ff590612eed565b915050611e39565b506000805b848110156120435785858281811061201c5761201c612eae565b61202f9260809091020135905083612eda565b91508061203b81612eed565b915050612002565b50818111156120945760405162461bcd60e51b815260206004820181905260248201527f4f75747075742076616c7565206578636565647320696e7075742076616c75656044820152606401610668565b60005b8681101561217757368888838181106120b2576120b2612eae565b90506020028101906120c491906131fb565b80356000908152600260208181526040832091820180549495509193908501359081106120f3576120f3612eae565b60009182526020918290206001600390920201908101805460ff60a01b198116600160a01b1790915590925061213a916001600160a01b039091169085359086013561272d565b60065460405190815283359060008051602061359b8339815191529060200160405180910390a2505050808061216f90612eed565b915050612097565b506006546040516001600160601b03193360601b166020820152426034820152605481019190915260009060740160408051601f19818403018152919052805160209091012090506000876001600160401b038111156121d9576121d9612b88565b60405190808252806020026020018201604052801561222e57816020015b61221b60405180606001604052806000815260200160008152602001606081525090565b8152602001906001900390816121f75790505b50905060005b888110156122995789898281811061224e5761224e612eae565b905060200281019061226091906131fb565b6122699061321b565b82828151811061227b5761227b612eae565b6020026020010181905250808061229190612eed565b915050612234565b506000866001600160401b038111156122b4576122b4612b88565b6040519080825280602002602001820160405280156122ed57816020015b6122da6128a4565b8152602001906001900390816122d25790505b50905060005b878110156124b05788888281811061230d5761230d612eae565b90506080020180360381019061232391906132a3565b82828151811061233557612335612eae565b6020026020010181905250600084828b8b8581811061235657612356612eae565b60408051602081019690965285019390935250608091820201356060830152016040516020818303038152906040528051906020012060001c90508989838181106123a3576123a3612eae565b9050608002016003600083815260200190815260200160002081816123c89190613317565b905050600460008b8b858181106123e1576123e1612eae565b90506080020160200160208101906123f9919061295b565b6001600160a01b03168152602080820192909252604001600090812080546001810182559082529190200181905589898381811061243957612439612eae565b9050608002016020016020810190612451919061295b565b6001600160a01b03168160008051602061351b8339815191528c8c8681811061247c5761247c612eae565b9050608002016000013560405161249591815260200190565b60405180910390a350806124a881612eed565b9150506122f3565b50600083815260026020526040812084815542600382015560040180546001600160a01b031916331790555b898110156125505760008481526002602052604090206001018b8b8381811061250757612507612eae565b905060200281019061251991906131fb565b81546001810183556000928352602090922090916003020161253b8282613375565b5050808061254890612eed565b9150506124dc565b5060005b878110156125c35760008481526002602081905260409091200189898381811061258057612580612eae565b8354600181018555600094855260209094206080909102929092019260030290910190506125ae8282613317565b505080806125bb90612eed565b915050612554565b506000838152600560205260408120805460ff1916600117905560068054916125eb83612eed565b90915550506040518781523390849060008051602061357b8339815191529060200160405180910390a3509098975050505050505050565b600061262f838361175b565b1561268e576000838152602081815260408083206001600160a01b0386168085529252808320805460ff1916905551339286917ff6391f5c32d9c69d2a47ea670b442974b53935d1edc7fd64eb21e047a839171b9190a45060016105f7565b5060006105f7565b6126a0813361282d565b50565b60006126af838361175b565b61268e576000838152602081815260408083206001600160a01b03861684529091529020805460ff191660011790556126e53390565b6001600160a01b0316826001600160a01b0316847f2f8788117e7eff1d82e926ec794901d17c78024a50270940304540a733656f0d60405160405180910390a45060016105f7565b6001600160a01b0383166000908152600460209081526040808320815180840187905280830186905282518082038401815260609091019092528151919092012090915b8254811015612825578183828154811061278d5761278d612eae565b90600052602060002001540361281357825483906127ad90600190613471565b815481106127bd576127bd612eae565b90600052602060002001548382815481106127da576127da612eae565b9060005260206000200181905550828054806127f8576127f8613484565b60019003818190600052602060002001600090559055612825565b8061281d81612eed565b915050612771565b505050505050565b612837828261175b565b6128665760405163e2517d3f60e01b81526001600160a01b038216600482015260248101839052604401610668565b5050565b50805461287690612e74565b6000825580601f10612886575050565b601f0160209004906000526020600020908101906126a091906128d7565b60405180608001604052806000815260200160006001600160a01b03168152602001600015158152602001600081525090565b5b808211156128ec57600081556001016128d8565b5090565b60006020828403121561290257600080fd5b81356001600160e01b03198116811461086357600080fd5b6001600160a01b03811681146126a057600080fd5b6000806040838503121561294257600080fd5b823561294d8161291a565b946020939093013593505050565b60006020828403121561296d57600080fd5b81356108638161291a565b60006020828403121561298a57600080fd5b5035919050565b6000815180845260005b818110156129b75760208185018101518683018201520161299b565b506000602082860101526020601f19601f83011685010191505092915050565b6001600160a01b038616815260a0602082018190526000906129fb90830187612991565b604083019590955250911515606083015260809091015292915050565b60008060408385031215612a2b57600080fd5b823591506020830135612a3d8161291a565b809150509250929050565b805182526020808201516001600160a01b031690830152604080820151151590830152606090810151910152565b600081518084526020808501945080840160005b83811015612ab057612a9d878351612a48565b6080969096019590820190600101612a8a565b509495945050505050565b6000602080835260c0830184518285015281850151604060a08187015282825180855260e08801915060e08160051b8901019450858401935060005b81811015612b415788860360df1901835284518051875287810151888801528401516060858801819052612b2d81890183612991565b975050509386019391860191600101612af7565b505050860151858303601f190160608701529250612b6190508183612a76565b915050606084015160808401526080840151610c5b60a08501826001600160a01b03169052565b634e487b7160e01b600052604160045260246000fd5b60006001600160401b0380841115612bb857612bb8612b88565b604051601f8501601f19908116603f01168101908282118183101715612be057612be0612b88565b81604052809350858152868686011115612bf957600080fd5b858560208301376000602087830101525050509392505050565b600082601f830112612c2457600080fd5b61086383833560208501612b9e565b60008060408385031215612c4657600080fd5b8235612c518161291a565b915060208301356001600160401b03811115612c6c57600080fd5b612c7885828601612c13565b9150509250929050565b80151581146126a057600080fd5b600080600060608486031215612ca557600080fd5b8335612cb08161291a565b925060208401356001600160401b03811115612ccb57600080fd5b612cd786828701612c13565b9250506040840135612ce881612c82565b809150509250925092565b6020808252825182820181905260009190848201906040850190845b81811015612d2b57835183529284019291840191600101612d0f565b50909695505050505050565b60008083601f840112612d4957600080fd5b5081356001600160401b03811115612d6057600080fd5b6020830191508360208260051b8501011115612d7b57600080fd5b9250929050565b600080600060408486031215612d9757600080fd5b83356001600160401b03811115612dad57600080fd5b612db986828701612d37565b909790965060209590950135949350505050565b608081016105f78284612a48565b60008060008060408587031215612df157600080fd5b84356001600160401b0380821115612e0857600080fd5b612e1488838901612d37565b90965094506020870135915080821115612e2d57600080fd5b818701915087601f830112612e4157600080fd5b813581811115612e5057600080fd5b8860208260071b8501011115612e6557600080fd5b95989497505060200194505050565b600181811c90821680612e8857607f821691505b602082108103612ea857634e487b7160e01b600052602260045260246000fd5b50919050565b634e487b7160e01b600052603260045260246000fd5b634e487b7160e01b600052601160045260246000fd5b808201808211156105f7576105f7612ec4565b600060018201612eff57612eff612ec4565b5060010190565b60609490941b6001600160601b031916845260148401929092526034830152605482015260740190565b60208082526021908201527f4163636f756e7420697320616c72656164792061207072696d6172792062616e6040820152606b60f81b606082015260800190565b601f821115610c9657600081815260208120601f850160051c81016020861015612f985750805b601f850160051c820191505b8181101561282557828155600101612fa4565b600019600383901b1c191660019190911b1790565b81516001600160401b03811115612fe557612fe5612b88565b612ff981612ff38454612e74565b84612f71565b602080601f83116001811461302857600084156130165750858301515b6130208582612fb7565b865550612825565b600085815260208120601f198616915b8281101561305757888601518255948401946001909101908401613038565b50858210156130755787850151600019600388901b60f8161c191681555b5050505050600190811b01905550565b6020815260006108636020830184612991565b60208082526028908201527f4163636f756e7420616c72656164792068617320757365722f656e746572707260408201526769736520726f6c6560c01b606082015260800190565b60208082526023908201527f4163636f756e7420697320616c72656164792061207365636f6e646172792062604082015262616e6b60e81b606082015260800190565b6020808252601d908201527f53656e646572206d757374206861766520612076616c696420726f6c65000000604082015260600190565b60408152600061316d6040830185612991565b905082151560208301529392505050565b6020808252601290820152712737ba103a3432902aaa2c279037bbb732b960711b604082015260600190565b60208082526012908201527115551613c8185b1c9958591e481cdc195b9d60721b604082015260600190565b6020808252600b908201526a15551613c81b1bd8dad95960aa1b604082015260600190565b60008235605e1983360301811261321157600080fd5b9190910192915050565b60006060823603121561322d57600080fd5b604051606081016001600160401b03808211838310171561325057613250612b88565b816040528435835260208501356020840152604085013591508082111561327657600080fd5b50830136601f82011261328857600080fd5b61329736823560208401612b9e565b60408301525092915050565b6000608082840312156132b557600080fd5b604051608081016001600160401b03811182821017156132d7576132d7612b88565b6040528235815260208301356132ec8161291a565b602082015260408301356132ff81612c82565b60408201526060928301359281019290925250919050565b8135815560018101602083013561332d8161291a565b8154604085013561333d81612c82565b60ff60a01b90151560a01b166001600160a01b03929092166001600160a81b0319919091161717905560609190910135600290910155565b81358155600160208084013582840155600283016040850135601e198636030181126133a057600080fd5b850180356001600160401b038111156133b857600080fd5b80360384830113156133c957600080fd5b6133dd816133d78554612e74565b85612f71565b6000601f82116001811461340d57600083156133fb57508382018601355b6134058482612fb7565b865550613466565b600085815260209020601f19841690835b8281101561343d5786850189013582559388019390890190880161341e565b508482101561345c5760001960f88660031b161c198885880101351681555b50508683881b0185555b505050505050505050565b818103818111156105f7576105f7612ec4565b634e487b7160e01b600052603160045260246000fdfe920994fc3bfe282f3f20cdccf1b7c5e46c63d963e822d98efff90abd41c12e21988ad249a3a578f3ca7b7f03da9ffdb25c0f9bf3684a5b8aac97d04fc81c210732d3b416b1e958137aa50d8c4ebe23bc919d27a2c40d6db677d85d5bfe33c83020b5f7ac978e5d6199de06401411960dfa81d2f762655f6206bdc61d46fc19e60d0e53201021716a89723fe8a67e0588c5489401e7faeed5379e5208272869ac14823911f2da1b49f045a0929a60b8c1f2a7fc8c06c7284ca3e8ab4e193a08c8179cfeea70bfbadfc00a9b19f8cc0d49ab2a2b6854d11ba2149c788f659e83acfd27d176b6ebb21e0182c0e43df5818e0d632867e1eb47c383c58d221205fce302129d52c426ac1b8bb3670045c8d2212568f7f40b498c5424c57dc5691c22a1a2646970667358221220a9abadb9985b73daed21b32d48b40c6897633fb42b0161639ec01f397d18c9a964736f6c6343000814003332d3b416b1e958137aa50d8c4ebe23bc919d27a2c40d6db677d85d5bfe33c830","opcodes":"PUSH1 0x80 PUSH1 0x40 MSTORE CALLVALUE DUP1 ISZERO PUSH3 0x11 JUMPI PUSH1 0x0 DUP1 REVERT JUMPDEST POP PUSH3 0x1F PUSH1 0x0 CALLER PUSH3 0x171 JUMP JUMPDEST POP PUSH3 0x3B PUSH1 0x0 DUP1 MLOAD PUSH1 0x20 PUSH3 0x3991 DUP4 CODECOPY DUP2 MLOAD SWAP2 MSTORE CALLER PUSH3 0x171 JUMP JUMPDEST POP PUSH1 0x40 DUP1 MLOAD PUSH1 0xA0 DUP2 ADD DUP3 MSTORE CALLER DUP1 DUP3 MSTORE DUP3 MLOAD DUP1 DUP5 ADD DUP5 MSTORE PUSH1 0xB DUP2 MSTORE PUSH11 0x5072696D61727942616E6B PUSH1 0xA8 SHL PUSH1 0x20 DUP1 DUP4 ADD SWAP2 SWAP1 SWAP2 MSTORE DUP1 DUP5 ADD SWAP2 DUP3 MSTORE PUSH1 0x1 DUP5 DUP7 ADD DUP2 SWAP1 MSTORE PUSH1 0x60 DUP6 ADD DUP2 SWAP1 MSTORE TIMESTAMP PUSH1 0x80 DUP7 ADD MSTORE PUSH1 0x0 SWAP4 DUP5 MSTORE SWAP1 DUP2 SWAP1 MSTORE SWAP4 SWAP1 SWAP2 KECCAK256 DUP3 MLOAD DUP2 SLOAD PUSH1 0x1 PUSH1 0x1 PUSH1 0xA0 SHL SUB NOT AND PUSH1 0x1 PUSH1 0x1 PUSH1 0xA0 SHL SUB SWAP1 SWAP2 AND OR DUP2 SSTORE SWAP1 MLOAD SWAP2 SWAP3 SWAP1 SWAP2 SWAP1 DUP3 ADD SWAP1 PUSH3 0xC7 SWAP1 DUP3 PUSH3 0x2C5 JUMP JUMPDEST POP PUSH1 0x40 DUP3 DUP2 ADD MLOAD PUSH1 0x2 DUP4 ADD SSTORE PUSH1 0x60 DUP4 ADD MLOAD PUSH1 0x3 DUP4 ADD DUP1 SLOAD SWAP2 ISZERO ISZERO PUSH1 0xFF NOT SWAP1 SWAP3 AND SWAP2 SWAP1 SWAP2 OR SWAP1 SSTORE PUSH1 0x80 SWAP1 SWAP3 ADD MLOAD PUSH1 0x4 SWAP1 SWAP2 ADD SSTORE MLOAD PUSH1 0x0 DUP1 MLOAD PUSH1 0x20 PUSH3 0x3991 DUP4 CODECOPY DUP2 MLOAD SWAP2 MSTORE SWAP1 CALLER SWAP1 PUSH32 0x988AD249A3A578F3CA7B7F03DA9FFDB25C0F9BF3684A5B8AAC97D04FC81C2107 SWAP1 PUSH3 0x159 SWAP1 PUSH1 0x20 DUP1 DUP3 MSTORE PUSH1 0xB SWAP1 DUP3 ADD MSTORE PUSH11 0x5072696D61727942616E6B PUSH1 0xA8 SHL PUSH1 0x40 DUP3 ADD MSTORE PUSH1 0x60 ADD SWAP1 JUMP JUMPDEST PUSH1 0x40 MLOAD DUP1 SWAP2 SUB SWAP1 LOG3 PUSH1 0x0 PUSH1 0x6 DUP2 SWAP1 SSTORE PUSH1 0x7 SSTORE PUSH3 0x391 JUMP JUMPDEST PUSH1 0x0 DUP3 DUP2 MSTORE PUSH1 0x20 DUP2 DUP2 MSTORE PUSH1 0x40 DUP1 DUP4 KECCAK256 PUSH1 0x1 PUSH1 0x1 PUSH1 0xA0 SHL SUB DUP6 AND DUP5 MSTORE SWAP1 SWAP2 MSTORE DUP2 KECCAK256 SLOAD PUSH1 0xFF AND PUSH3 0x216 JUMPI PUSH1 0x0 DUP4 DUP2 MSTORE PUSH1 0x20 DUP2 DUP2 MSTORE PUSH1 0x40 DUP1 DUP4 KECCAK256 PUSH1 0x1 PUSH1 0x1 PUSH1 0xA0 SHL SUB DUP7 AND DUP5 MSTORE SWAP1 SWAP2 MSTORE SWAP1 KECCAK256 DUP1 SLOAD PUSH1 0xFF NOT AND PUSH1 0x1 OR SWAP1 SSTORE PUSH3 0x1CD CALLER SWAP1 JUMP JUMPDEST PUSH1 0x1 PUSH1 0x1 PUSH1 0xA0 SHL SUB AND DUP3 PUSH1 0x1 PUSH1 0x1 PUSH1 0xA0 SHL SUB AND DUP5 PUSH32 0x2F8788117E7EFF1D82E926EC794901D17C78024A50270940304540A733656F0D PUSH1 0x40 MLOAD PUSH1 0x40 MLOAD DUP1 SWAP2 SUB SWAP1 LOG4 POP PUSH1 0x1 PUSH3 0x21A JUMP JUMPDEST POP PUSH1 0x0 JUMPDEST SWAP3 SWAP2 POP POP JUMP JUMPDEST PUSH4 0x4E487B71 PUSH1 0xE0 SHL PUSH1 0x0 MSTORE PUSH1 0x41 PUSH1 0x4 MSTORE PUSH1 0x24 PUSH1 0x0 REVERT JUMPDEST PUSH1 0x1 DUP2 DUP2 SHR SWAP1 DUP3 AND DUP1 PUSH3 0x24B JUMPI PUSH1 0x7F DUP3 AND SWAP2 POP JUMPDEST PUSH1 0x20 DUP3 LT DUP2 SUB PUSH3 0x26C JUMPI PUSH4 0x4E487B71 PUSH1 0xE0 SHL PUSH1 0x0 MSTORE PUSH1 0x22 PUSH1 0x4 MSTORE PUSH1 0x24 PUSH1 0x0 REVERT JUMPDEST POP SWAP2 SWAP1 POP JUMP JUMPDEST PUSH1 0x1F DUP3 GT ISZERO PUSH3 0x2C0 JUMPI PUSH1 0x0 DUP2 DUP2 MSTORE PUSH1 0x20 DUP2 KECCAK256 PUSH1 0x1F DUP6 ADD PUSH1 0x5 SHR DUP2 ADD PUSH1 0x20 DUP7 LT ISZERO PUSH3 0x29B JUMPI POP DUP1 JUMPDEST PUSH1 0x1F DUP6 ADD PUSH1 0x5 SHR DUP3 ADD SWAP2 POP JUMPDEST DUP2 DUP2 LT ISZERO PUSH3 0x2BC JUMPI DUP3 DUP2 SSTORE PUSH1 0x1 ADD PUSH3 0x2A7 JUMP JUMPDEST POP POP POP JUMPDEST POP POP POP JUMP JUMPDEST DUP2 MLOAD PUSH1 0x1 PUSH1 0x1 PUSH1 0x40 SHL SUB DUP2 GT ISZERO PUSH3 0x2E1 JUMPI PUSH3 0x2E1 PUSH3 0x220 JUMP JUMPDEST PUSH3 0x2F9 DUP2 PUSH3 0x2F2 DUP5 SLOAD PUSH3 0x236 JUMP JUMPDEST DUP5 PUSH3 0x272 JUMP JUMPDEST PUSH1 0x20 DUP1 PUSH1 0x1F DUP4 GT PUSH1 0x1 DUP2 EQ PUSH3 0x331 JUMPI PUSH1 0x0 DUP5 ISZERO PUSH3 0x318 JUMPI POP DUP6 DUP4 ADD MLOAD JUMPDEST PUSH1 0x0 NOT PUSH1 0x3 DUP7 SWAP1 SHL SHR NOT AND PUSH1 0x1 DUP6 SWAP1 SHL OR DUP6 SSTORE PUSH3 0x2BC JUMP JUMPDEST PUSH1 0x0 DUP6 DUP2 MSTORE PUSH1 0x20 DUP2 KECCAK256 PUSH1 0x1F NOT DUP7 AND SWAP2 JUMPDEST DUP3 DUP2 LT ISZERO PUSH3 0x362 JUMPI DUP9 DUP7 ADD MLOAD DUP3 SSTORE SWAP5 DUP5 ADD SWAP5 PUSH1 0x1 SWAP1 SWAP2 ADD SWAP1 DUP5 ADD PUSH3 0x341 JUMP JUMPDEST POP DUP6 DUP3 LT ISZERO PUSH3 0x381 JUMPI DUP8 DUP6 ADD MLOAD PUSH1 0x0 NOT PUSH1 0x3 DUP9 SWAP1 SHL PUSH1 0xF8 AND SHR NOT AND DUP2 SSTORE JUMPDEST POP POP POP POP POP PUSH1 0x1 SWAP1 DUP2 SHL ADD SWAP1 SSTORE POP JUMP JUMPDEST PUSH2 0x35F0 DUP1 PUSH3 0x3A1 PUSH1 0x0 CODECOPY PUSH1 0x0 RETURN INVALID PUSH1 0x80 PUSH1 0x40 MSTORE CALLVALUE DUP1 ISZERO PUSH2 0x10 JUMPI PUSH1 0x0 DUP1 REVERT JUMPDEST POP PUSH1 0x4 CALLDATASIZE LT PUSH2 0x1C2 JUMPI PUSH1 0x0 CALLDATALOAD PUSH1 0xE0 SHR DUP1 PUSH4 0x1FFC9A7 EQ PUSH2 0x1C7 JUMPI DUP1 PUSH4 0x13119161 EQ PUSH2 0x1EF JUMPI DUP1 PUSH4 0x144BF589 EQ PUSH2 0x212 JUMPI DUP1 PUSH4 0x18160DDD EQ PUSH2 0x227 JUMPI DUP1 PUSH4 0x208DD1FF EQ PUSH2 0x230 JUMPI DUP1 PUSH4 0x217B8EE9 EQ PUSH2 0x245 JUMPI DUP1 PUSH4 0x248A9CA3 EQ PUSH2 0x258 JUMPI DUP1 PUSH4 0x24F13320 EQ PUSH2 0x26B JUMPI DUP1 PUSH4 0x2F2FF15D EQ PUSH2 0x28F JUMPI DUP1 PUSH4 0x32CB6B0C EQ PUSH2 0x2A2 JUMPI DUP1 PUSH4 0x33EA3DC8 EQ PUSH2 0x2B4 JUMPI DUP1 PUSH4 0x3409D8F6 EQ PUSH2 0x2D4 JUMPI DUP1 PUSH4 0x35046722 EQ PUSH2 0x2F7 JUMPI DUP1 PUSH4 0x36568ABE EQ PUSH2 0x30A JUMPI DUP1 PUSH4 0x40C10F19 EQ PUSH2 0x31D JUMPI DUP1 PUSH4 0x5CEAD0E9 EQ PUSH2 0x330 JUMPI DUP1 PUSH4 0x658A4823 EQ PUSH2 0x343 JUMPI DUP1 PUSH4 0x68DD17A5 EQ PUSH2 0x356 JUMPI DUP1 PUSH4 0x7304C588 EQ PUSH2 0x36B JUMPI DUP1 PUSH4 0x74F079B8 EQ PUSH2 0x37E JUMPI DUP1 PUSH4 0x7C0F8882 EQ PUSH2 0x387 JUMPI DUP1 PUSH4 0x8001CFE5 EQ PUSH2 0x39A JUMPI DUP1 PUSH4 0x81591387 EQ PUSH2 0x3AD JUMPI DUP1 PUSH4 0x8805CE35 EQ PUSH2 0x420 JUMPI DUP1 PUSH4 0x91D14854 EQ PUSH2 0x433 JUMPI DUP1 PUSH4 0x9859199D EQ PUSH2 0x446 JUMPI DUP1 PUSH4 0x9ACE38C2 EQ PUSH2 0x459 JUMPI DUP1 PUSH4 0xA217FDDF EQ PUSH2 0x4B5 JUMPI DUP1 PUSH4 0xA43EF956 EQ PUSH2 0x4BD JUMPI DUP1 PUSH4 0xC49BAEBE EQ PUSH2 0x4DD JUMPI DUP1 PUSH4 0xC5FBB610 EQ PUSH2 0x504 JUMPI DUP1 PUSH4 0xC8AEE754 EQ PUSH2 0x519 JUMPI DUP1 PUSH4 0xCF850C8D EQ PUSH2 0x545 JUMPI DUP1 PUSH4 0xD3138255 EQ PUSH2 0x558 JUMPI DUP1 PUSH4 0xD547741F EQ PUSH2 0x56B JUMPI DUP1 PUSH4 0xD980D735 EQ PUSH2 0x57E JUMPI DUP1 PUSH4 0xE0B99A2D EQ PUSH2 0x59E JUMPI DUP1 PUSH4 0xE206BA50 EQ PUSH2 0x5B1 JUMPI JUMPDEST PUSH1 0x0 DUP1 REVERT JUMPDEST PUSH2 0x1DA PUSH2 0x1D5 CALLDATASIZE PUSH1 0x4 PUSH2 0x28F0 JUMP JUMPDEST PUSH2 0x5C6 JUMP JUMPDEST PUSH1 0x40 MLOAD SWAP1 ISZERO ISZERO DUP2 MSTORE PUSH1 0x20 ADD JUMPDEST PUSH1 0x40 MLOAD DUP1 SWAP2 SUB SWAP1 RETURN JUMPDEST PUSH2 0x204 PUSH1 0x0 DUP1 MLOAD PUSH1 0x20 PUSH2 0x353B DUP4 CODECOPY DUP2 MLOAD SWAP2 MSTORE DUP2 JUMP JUMPDEST PUSH1 0x40 MLOAD SWAP1 DUP2 MSTORE PUSH1 0x20 ADD PUSH2 0x1E6 JUMP JUMPDEST PUSH2 0x204 PUSH1 0x0 DUP1 MLOAD PUSH1 0x20 PUSH2 0x34FB DUP4 CODECOPY DUP2 MLOAD SWAP2 MSTORE DUP2 JUMP JUMPDEST PUSH2 0x204 PUSH1 0x7 SLOAD DUP2 JUMP JUMPDEST PUSH2 0x243 PUSH2 0x23E CALLDATASIZE PUSH1 0x4 PUSH2 0x292F JUMP JUMPDEST PUSH2 0x5FD JUMP JUMPDEST STOP JUMPDEST PUSH2 0x1DA PUSH2 0x253 CALLDATASIZE PUSH1 0x4 PUSH2 0x295B JUMP JUMPDEST PUSH2 0x75E JUMP JUMPDEST PUSH2 0x204 PUSH2 0x266 CALLDATASIZE PUSH1 0x4 PUSH2 0x2978 JUMP JUMPDEST PUSH2 0x86A JUMP JUMPDEST PUSH2 0x27E PUSH2 0x279 CALLDATASIZE PUSH1 0x4 PUSH2 0x295B JUMP JUMPDEST PUSH2 0x87F JUMP JUMPDEST PUSH1 0x40 MLOAD PUSH2 0x1E6 SWAP6 SWAP5 SWAP4 SWAP3 SWAP2 SWAP1 PUSH2 0x29D7 JUMP JUMPDEST PUSH2 0x243 PUSH2 0x29D CALLDATASIZE PUSH1 0x4 PUSH2 0x2A18 JUMP JUMPDEST PUSH2 0x947 JUMP JUMPDEST PUSH2 0x204 PUSH8 0x6765C793FA10079D PUSH1 0x1B SHL DUP2 JUMP JUMPDEST PUSH2 0x2C7 PUSH2 0x2C2 CALLDATASIZE PUSH1 0x4 PUSH2 0x2978 JUMP JUMPDEST PUSH2 0x969 JUMP JUMPDEST PUSH1 0x40 MLOAD PUSH2 0x1E6 SWAP2 SWAP1 PUSH2 0x2ABB JUMP JUMPDEST PUSH2 0x1DA PUSH2 0x2E2 CALLDATASIZE PUSH1 0x4 PUSH2 0x2978 JUMP JUMPDEST PUSH1 0x5 PUSH1 0x20 MSTORE PUSH1 0x0 SWAP1 DUP2 MSTORE PUSH1 0x40 SWAP1 KECCAK256 SLOAD PUSH1 0xFF AND DUP2 JUMP JUMPDEST PUSH2 0x204 PUSH2 0x305 CALLDATASIZE PUSH1 0x4 PUSH2 0x295B JUMP JUMPDEST PUSH2 0xB87 JUMP JUMPDEST PUSH2 0x243 PUSH2 0x318 CALLDATASIZE PUSH1 0x4 PUSH2 0x2A18 JUMP JUMPDEST PUSH2 0xC63 JUMP JUMPDEST PUSH2 0x243 PUSH2 0x32B CALLDATASIZE PUSH1 0x4 PUSH2 0x292F JUMP JUMPDEST PUSH2 0xC9B JUMP JUMPDEST PUSH2 0x243 PUSH2 0x33E CALLDATASIZE PUSH1 0x4 PUSH2 0x2C33 JUMP JUMPDEST PUSH2 0xFE2 JUMP JUMPDEST PUSH2 0x243 PUSH2 0x351 CALLDATASIZE PUSH1 0x4 PUSH2 0x2C33 JUMP JUMPDEST PUSH2 0x119D JUMP JUMPDEST PUSH2 0x204 PUSH1 0x0 DUP1 MLOAD PUSH1 0x20 PUSH2 0x349B DUP4 CODECOPY DUP2 MLOAD SWAP2 MSTORE DUP2 JUMP JUMPDEST PUSH2 0x243 PUSH2 0x379 CALLDATASIZE PUSH1 0x4 PUSH2 0x2C33 JUMP JUMPDEST PUSH2 0x1361 JUMP JUMPDEST PUSH2 0x204 PUSH1 0x6 SLOAD DUP2 JUMP JUMPDEST PUSH2 0x1DA PUSH2 0x395 CALLDATASIZE PUSH1 0x4 PUSH2 0x292F JUMP JUMPDEST PUSH2 0x1525 JUMP JUMPDEST PUSH2 0x204 PUSH2 0x3A8 CALLDATASIZE PUSH1 0x4 PUSH2 0x292F JUMP JUMPDEST PUSH2 0x162D JUMP JUMPDEST PUSH2 0x3F2 PUSH2 0x3BB CALLDATASIZE PUSH1 0x4 PUSH2 0x2978 JUMP JUMPDEST PUSH1 0x3 PUSH1 0x20 MSTORE PUSH1 0x0 SWAP1 DUP2 MSTORE PUSH1 0x40 SWAP1 KECCAK256 DUP1 SLOAD PUSH1 0x1 DUP3 ADD SLOAD PUSH1 0x2 SWAP1 SWAP3 ADD SLOAD SWAP1 SWAP2 PUSH1 0x1 PUSH1 0x1 PUSH1 0xA0 SHL SUB DUP2 AND SWAP2 PUSH1 0x1 PUSH1 0xA0 SHL SWAP1 SWAP2 DIV PUSH1 0xFF AND SWAP1 DUP5 JUMP JUMPDEST PUSH1 0x40 DUP1 MLOAD SWAP5 DUP6 MSTORE PUSH1 0x1 PUSH1 0x1 PUSH1 0xA0 SHL SUB SWAP1 SWAP4 AND PUSH1 0x20 DUP6 ADD MSTORE SWAP1 ISZERO ISZERO SWAP2 DUP4 ADD SWAP2 SWAP1 SWAP2 MSTORE PUSH1 0x60 DUP3 ADD MSTORE PUSH1 0x80 ADD PUSH2 0x1E6 JUMP JUMPDEST PUSH2 0x243 PUSH2 0x42E CALLDATASIZE PUSH1 0x4 PUSH2 0x2978 JUMP JUMPDEST PUSH2 0x165E JUMP JUMPDEST PUSH2 0x1DA PUSH2 0x441 CALLDATASIZE PUSH1 0x4 PUSH2 0x2A18 JUMP JUMPDEST PUSH2 0x175B JUMP JUMPDEST PUSH2 0x243 PUSH2 0x454 CALLDATASIZE PUSH1 0x4 PUSH2 0x2C90 JUMP JUMPDEST PUSH2 0x1784 JUMP JUMPDEST PUSH2 0x491 PUSH2 0x467 CALLDATASIZE PUSH1 0x4 PUSH2 0x2978 JUMP JUMPDEST PUSH1 0x2 PUSH1 0x20 MSTORE PUSH1 0x0 SWAP1 DUP2 MSTORE PUSH1 0x40 SWAP1 KECCAK256 DUP1 SLOAD PUSH1 0x3 DUP3 ADD SLOAD PUSH1 0x4 SWAP1 SWAP3 ADD SLOAD SWAP1 SWAP2 SWAP1 PUSH1 0x1 PUSH1 0x1 PUSH1 0xA0 SHL SUB AND DUP4 JUMP JUMPDEST PUSH1 0x40 DUP1 MLOAD SWAP4 DUP5 MSTORE PUSH1 0x20 DUP5 ADD SWAP3 SWAP1 SWAP3 MSTORE PUSH1 0x1 PUSH1 0x1 PUSH1 0xA0 SHL SUB AND SWAP1 DUP3 ADD MSTORE PUSH1 0x60 ADD PUSH2 0x1E6 JUMP JUMPDEST PUSH2 0x204 PUSH1 0x0 DUP2 JUMP JUMPDEST PUSH2 0x4D0 PUSH2 0x4CB CALLDATASIZE PUSH1 0x4 PUSH2 0x295B JUMP JUMPDEST PUSH2 0x18EE JUMP JUMPDEST PUSH1 0x40 MLOAD PUSH2 0x1E6 SWAP2 SWAP1 PUSH2 0x2CF3 JUMP JUMPDEST PUSH2 0x204 PUSH32 0x21702C8AF46127C7FA207F89D0B0A8441BB32959A0AC7DF790E9AB1A25C98926 DUP2 JUMP JUMPDEST PUSH2 0x204 PUSH1 0x0 DUP1 MLOAD PUSH1 0x20 PUSH2 0x355B DUP4 CODECOPY DUP2 MLOAD SWAP2 MSTORE DUP2 JUMP JUMPDEST PUSH2 0x204 PUSH2 0x527 CALLDATASIZE PUSH1 0x4 PUSH2 0x295B JUMP JUMPDEST PUSH1 0x1 PUSH1 0x1 PUSH1 0xA0 SHL SUB AND PUSH1 0x0 SWAP1 DUP2 MSTORE PUSH1 0x1 PUSH1 0x20 MSTORE PUSH1 0x40 SWAP1 KECCAK256 PUSH1 0x2 ADD SLOAD SWAP1 JUMP JUMPDEST PUSH2 0x243 PUSH2 0x553 CALLDATASIZE PUSH1 0x4 PUSH2 0x2C33 JUMP JUMPDEST PUSH2 0x195A JUMP JUMPDEST PUSH2 0x243 PUSH2 0x566 CALLDATASIZE PUSH1 0x4 PUSH2 0x2D82 JUMP JUMPDEST PUSH2 0x1ACD JUMP JUMPDEST PUSH2 0x243 PUSH2 0x579 CALLDATASIZE PUSH1 0x4 PUSH2 0x2A18 JUMP JUMPDEST PUSH2 0x1D0E JUMP JUMPDEST PUSH2 0x591 PUSH2 0x58C CALLDATASIZE PUSH1 0x4 PUSH2 0x2978 JUMP JUMPDEST PUSH2 0x1D2A JUMP JUMPDEST PUSH1 0x40 MLOAD PUSH2 0x1E6 SWAP2 SWAP1 PUSH2 0x2DCD JUMP JUMPDEST PUSH2 0x204 PUSH2 0x5AC CALLDATASIZE PUSH1 0x4 PUSH2 0x2DDB JUMP JUMPDEST PUSH2 0x1D89 JUMP JUMPDEST PUSH2 0x204 PUSH1 0x0 DUP1 MLOAD PUSH1 0x20 PUSH2 0x34DB DUP4 CODECOPY DUP2 MLOAD SWAP2 MSTORE DUP2 JUMP JUMPDEST PUSH1 0x0 PUSH1 0x1 PUSH1 0x1 PUSH1 0xE0 SHL SUB NOT DUP3 AND PUSH4 0x7965DB0B PUSH1 0xE0 SHL EQ DUP1 PUSH2 0x5F7 JUMPI POP PUSH4 0x1FFC9A7 PUSH1 0xE0 SHL PUSH1 0x1 PUSH1 0x1 PUSH1 0xE0 SHL SUB NOT DUP4 AND EQ JUMPDEST SWAP3 SWAP2 POP POP JUMP JUMPDEST PUSH2 0x615 PUSH1 0x0 DUP1 MLOAD PUSH1 0x20 PUSH2 0x34DB DUP4 CODECOPY DUP2 MLOAD SWAP2 MSTORE CALLER PUSH2 0x175B JUMP JUMPDEST PUSH2 0x671 JUMPI PUSH1 0x40 MLOAD PUSH3 0x461BCD PUSH1 0xE5 SHL DUP2 MSTORE PUSH1 0x20 PUSH1 0x4 DUP3 ADD MSTORE PUSH1 0x22 PUSH1 0x24 DUP3 ADD MSTORE PUSH32 0x4F6E6C79207072696D6172792062616E6B2063616E207265766F6B6520726F6C PUSH1 0x44 DUP3 ADD MSTORE PUSH2 0x6573 PUSH1 0xF0 SHL PUSH1 0x64 DUP3 ADD MSTORE PUSH1 0x84 ADD JUMPDEST PUSH1 0x40 MLOAD DUP1 SWAP2 SUB SWAP1 REVERT JUMPDEST PUSH2 0x67B DUP2 DUP4 PUSH2 0x175B JUMP JUMPDEST PUSH2 0x6C7 JUMPI PUSH1 0x40 MLOAD PUSH3 0x461BCD PUSH1 0xE5 SHL DUP2 MSTORE PUSH1 0x20 PUSH1 0x4 DUP3 ADD MSTORE PUSH1 0x1E PUSH1 0x24 DUP3 ADD MSTORE PUSH32 0x4163636F756E7420646F6573206E6F7420686176652074686520726F6C650000 PUSH1 0x44 DUP3 ADD MSTORE PUSH1 0x64 ADD PUSH2 0x668 JUMP JUMPDEST PUSH2 0x6D1 DUP2 DUP4 PUSH2 0x2623 JUMP JUMPDEST POP PUSH1 0x1 PUSH1 0x1 PUSH1 0xA0 SHL SUB DUP3 AND PUSH1 0x0 SWAP1 DUP2 MSTORE PUSH1 0x1 PUSH1 0x20 DUP2 SWAP1 MSTORE PUSH1 0x40 DUP3 KECCAK256 DUP1 SLOAD PUSH1 0x1 PUSH1 0x1 PUSH1 0xA0 SHL SUB NOT AND DUP2 SSTORE SWAP2 SWAP1 PUSH2 0x708 SWAP1 DUP4 ADD DUP3 PUSH2 0x286A JUMP JUMPDEST POP PUSH1 0x0 PUSH1 0x2 DUP3 ADD DUP2 SWAP1 SSTORE PUSH1 0x3 DUP3 ADD DUP1 SLOAD PUSH1 0xFF NOT AND SWAP1 SSTORE PUSH1 0x4 SWAP1 SWAP2 ADD DUP2 SWAP1 SSTORE PUSH1 0x40 MLOAD DUP3 SWAP2 PUSH1 0x1 PUSH1 0x1 PUSH1 0xA0 SHL SUB DUP6 AND SWAP2 PUSH32 0xEA83A7CAEF01824E96446A8C4BC8FF4669EDD99E129B53E32C077F85D2168081 SWAP2 SWAP1 LOG3 POP POP JUMP JUMPDEST PUSH1 0x1 PUSH1 0x1 PUSH1 0xA0 SHL SUB DUP1 DUP3 AND PUSH1 0x0 SWAP1 DUP2 MSTORE PUSH1 0x1 PUSH1 0x20 DUP2 DUP2 MSTORE PUSH1 0x40 DUP1 DUP5 KECCAK256 DUP2 MLOAD PUSH1 0xA0 DUP2 ADD SWAP1 SWAP3 MSTORE DUP1 SLOAD SWAP1 SWAP6 AND DUP2 MSTORE SWAP2 DUP5 ADD DUP1 SLOAD SWAP4 SWAP5 DUP6 SWAP5 SWAP1 SWAP3 DUP5 ADD SWAP2 SWAP1 PUSH2 0x7A2 SWAP1 PUSH2 0x2E74 JUMP JUMPDEST DUP1 PUSH1 0x1F ADD PUSH1 0x20 DUP1 SWAP2 DIV MUL PUSH1 0x20 ADD PUSH1 0x40 MLOAD SWAP1 DUP2 ADD PUSH1 0x40 MSTORE DUP1 SWAP3 SWAP2 SWAP1 DUP2 DUP2 MSTORE PUSH1 0x20 ADD DUP3 DUP1 SLOAD PUSH2 0x7CE SWAP1 PUSH2 0x2E74 JUMP JUMPDEST DUP1 ISZERO PUSH2 0x81B JUMPI DUP1 PUSH1 0x1F LT PUSH2 0x7F0 JUMPI PUSH2 0x100 DUP1 DUP4 SLOAD DIV MUL DUP4 MSTORE SWAP2 PUSH1 0x20 ADD SWAP2 PUSH2 0x81B JUMP JUMPDEST DUP3 ADD SWAP2 SWAP1 PUSH1 0x0 MSTORE PUSH1 0x20 PUSH1 0x0 KECCAK256 SWAP1 JUMPDEST DUP2 SLOAD DUP2 MSTORE SWAP1 PUSH1 0x1 ADD SWAP1 PUSH1 0x20 ADD DUP1 DUP4 GT PUSH2 0x7FE JUMPI DUP3 SWAP1 SUB PUSH1 0x1F AND DUP3 ADD SWAP2 JUMPDEST POP POP POP SWAP2 DUP4 MSTORE POP POP PUSH1 0x2 DUP3 ADD SLOAD PUSH1 0x20 DUP3 ADD MSTORE PUSH1 0x3 DUP3 ADD SLOAD PUSH1 0xFF AND ISZERO ISZERO PUSH1 0x40 DUP3 ADD MSTORE PUSH1 0x4 SWAP1 SWAP2 ADD SLOAD PUSH1 0x60 SWAP2 DUP3 ADD MSTORE DUP2 ADD MLOAD SWAP1 SWAP2 POP DUP1 ISZERO PUSH2 0x863 JUMPI POP DUP1 MLOAD PUSH1 0x1 PUSH1 0x1 PUSH1 0xA0 SHL SUB AND ISZERO ISZERO JUMPDEST SWAP4 SWAP3 POP POP POP JUMP JUMPDEST PUSH1 0x0 SWAP1 DUP2 MSTORE PUSH1 0x20 DUP2 SWAP1 MSTORE PUSH1 0x40 SWAP1 KECCAK256 PUSH1 0x1 ADD SLOAD SWAP1 JUMP JUMPDEST PUSH1 0x1 PUSH1 0x20 DUP2 SWAP1 MSTORE PUSH1 0x0 SWAP2 DUP3 MSTORE PUSH1 0x40 SWAP1 SWAP2 KECCAK256 DUP1 SLOAD SWAP2 DUP2 ADD DUP1 SLOAD PUSH1 0x1 PUSH1 0x1 PUSH1 0xA0 SHL SUB SWAP1 SWAP4 AND SWAP3 PUSH2 0x8AC SWAP1 PUSH2 0x2E74 JUMP JUMPDEST DUP1 PUSH1 0x1F ADD PUSH1 0x20 DUP1 SWAP2 DIV MUL PUSH1 0x20 ADD PUSH1 0x40 MLOAD SWAP1 DUP2 ADD PUSH1 0x40 MSTORE DUP1 SWAP3 SWAP2 SWAP1 DUP2 DUP2 MSTORE PUSH1 0x20 ADD DUP3 DUP1 SLOAD PUSH2 0x8D8 SWAP1 PUSH2 0x2E74 JUMP JUMPDEST DUP1 ISZERO PUSH2 0x925 JUMPI DUP1 PUSH1 0x1F LT PUSH2 0x8FA JUMPI PUSH2 0x100 DUP1 DUP4 SLOAD DIV MUL DUP4 MSTORE SWAP2 PUSH1 0x20 ADD SWAP2 PUSH2 0x925 JUMP JUMPDEST DUP3 ADD SWAP2 SWAP1 PUSH1 0x0 MSTORE PUSH1 0x20 PUSH1 0x0 KECCAK256 SWAP1 JUMPDEST DUP2 SLOAD DUP2 MSTORE SWAP1 PUSH1 0x1 ADD SWAP1 PUSH1 0x20 ADD DUP1 DUP4 GT PUSH2 0x908 JUMPI DUP3 SWAP1 SUB PUSH1 0x1F AND DUP3 ADD SWAP2 JUMPDEST POP POP POP POP PUSH1 0x2 DUP4 ADD SLOAD PUSH1 0x3 DUP5 ADD SLOAD PUSH1 0x4 SWAP1 SWAP5 ADD SLOAD SWAP3 SWAP4 SWAP1 SWAP3 PUSH1 0xFF SWAP1 SWAP2 AND SWAP2 POP DUP6 JUMP JUMPDEST PUSH2 0x950 DUP3 PUSH2 0x86A JUMP JUMPDEST PUSH2 0x959 DUP2 PUSH2 0x2696 JUMP JUMPDEST PUSH2 0x963 DUP4 DUP4 PUSH2 0x26A3 JUMP JUMPDEST POP POP POP POP JUMP JUMPDEST PUSH2 0x9A4 PUSH1 0x40 MLOAD DUP1 PUSH1 0xA0 ADD PUSH1 0x40 MSTORE DUP1 PUSH1 0x0 DUP2 MSTORE PUSH1 0x20 ADD PUSH1 0x60 DUP2 MSTORE PUSH1 0x20 ADD PUSH1 0x60 DUP2 MSTORE PUSH1 0x20 ADD PUSH1 0x0 DUP2 MSTORE PUSH1 0x20 ADD PUSH1 0x0 PUSH1 0x1 PUSH1 0x1 PUSH1 0xA0 SHL SUB AND DUP2 MSTORE POP SWAP1 JUMP JUMPDEST PUSH1 0x2 PUSH1 0x0 DUP4 DUP2 MSTORE PUSH1 0x20 ADD SWAP1 DUP2 MSTORE PUSH1 0x20 ADD PUSH1 0x0 KECCAK256 PUSH1 0x40 MLOAD DUP1 PUSH1 0xA0 ADD PUSH1 0x40 MSTORE SWAP1 DUP2 PUSH1 0x0 DUP3 ADD SLOAD DUP2 MSTORE PUSH1 0x20 ADD PUSH1 0x1 DUP3 ADD DUP1 SLOAD DUP1 PUSH1 0x20 MUL PUSH1 0x20 ADD PUSH1 0x40 MLOAD SWAP1 DUP2 ADD PUSH1 0x40 MSTORE DUP1 SWAP3 SWAP2 SWAP1 DUP2 DUP2 MSTORE PUSH1 0x20 ADD PUSH1 0x0 SWAP1 JUMPDEST DUP3 DUP3 LT ISZERO PUSH2 0xAC9 JUMPI DUP4 DUP3 SWAP1 PUSH1 0x0 MSTORE PUSH1 0x20 PUSH1 0x0 KECCAK256 SWAP1 PUSH1 0x3 MUL ADD PUSH1 0x40 MLOAD DUP1 PUSH1 0x60 ADD PUSH1 0x40 MSTORE SWAP1 DUP2 PUSH1 0x0 DUP3 ADD SLOAD DUP2 MSTORE PUSH1 0x20 ADD PUSH1 0x1 DUP3 ADD SLOAD DUP2 MSTORE PUSH1 0x20 ADD PUSH1 0x2 DUP3 ADD DUP1 SLOAD PUSH2 0xA38 SWAP1 PUSH2 0x2E74 JUMP JUMPDEST DUP1 PUSH1 0x1F ADD PUSH1 0x20 DUP1 SWAP2 DIV MUL PUSH1 0x20 ADD PUSH1 0x40 MLOAD SWAP1 DUP2 ADD PUSH1 0x40 MSTORE DUP1 SWAP3 SWAP2 SWAP1 DUP2 DUP2 MSTORE PUSH1 0x20 ADD DUP3 DUP1 SLOAD PUSH2 0xA64 SWAP1 PUSH2 0x2E74 JUMP JUMPDEST DUP1 ISZERO PUSH2 0xAB1 JUMPI DUP1 PUSH1 0x1F LT PUSH2 0xA86 JUMPI PUSH2 0x100 DUP1 DUP4 SLOAD DIV MUL DUP4 MSTORE SWAP2 PUSH1 0x20 ADD SWAP2 PUSH2 0xAB1 JUMP JUMPDEST DUP3 ADD SWAP2 SWAP1 PUSH1 0x0 MSTORE PUSH1 0x20 PUSH1 0x0 KECCAK256 SWAP1 JUMPDEST DUP2 SLOAD DUP2 MSTORE SWAP1 PUSH1 0x1 ADD SWAP1 PUSH1 0x20 ADD DUP1 DUP4 GT PUSH2 0xA94 JUMPI DUP3 SWAP1 SUB PUSH1 0x1F AND DUP3 ADD SWAP2 JUMPDEST POP POP POP POP POP DUP2 MSTORE POP POP DUP2 MSTORE PUSH1 0x20 ADD SWAP1 PUSH1 0x1 ADD SWAP1 PUSH2 0x9F1 JUMP JUMPDEST POP POP POP POP DUP2 MSTORE PUSH1 0x20 ADD PUSH1 0x2 DUP3 ADD DUP1 SLOAD DUP1 PUSH1 0x20 MUL PUSH1 0x20 ADD PUSH1 0x40 MLOAD SWAP1 DUP2 ADD PUSH1 0x40 MSTORE DUP1 SWAP3 SWAP2 SWAP1 DUP2 DUP2 MSTORE PUSH1 0x20 ADD PUSH1 0x0 SWAP1 JUMPDEST DUP3 DUP3 LT ISZERO PUSH2 0xB5B JUMPI PUSH1 0x0 DUP5 DUP2 MSTORE PUSH1 0x20 SWAP1 DUP2 SWAP1 KECCAK256 PUSH1 0x40 DUP1 MLOAD PUSH1 0x80 DUP2 ADD DUP3 MSTORE PUSH1 0x3 DUP7 MUL SWAP1 SWAP3 ADD DUP1 SLOAD DUP4 MSTORE PUSH1 0x1 DUP1 DUP3 ADD SLOAD PUSH1 0x1 PUSH1 0x1 PUSH1 0xA0 SHL SUB DUP2 AND DUP6 DUP8 ADD MSTORE PUSH1 0x1 PUSH1 0xA0 SHL SWAP1 DIV PUSH1 0xFF AND ISZERO ISZERO SWAP3 DUP5 ADD SWAP3 SWAP1 SWAP3 MSTORE PUSH1 0x2 ADD SLOAD PUSH1 0x60 DUP4 ADD MSTORE SWAP1 DUP4 MSTORE SWAP1 SWAP3 ADD SWAP2 ADD PUSH2 0xAF6 JUMP JUMPDEST POP POP POP SWAP1 DUP3 MSTORE POP PUSH1 0x3 DUP3 ADD SLOAD PUSH1 0x20 DUP3 ADD MSTORE PUSH1 0x4 SWAP1 SWAP2 ADD SLOAD PUSH1 0x1 PUSH1 0x1 PUSH1 0xA0 SHL SUB AND PUSH1 0x40 SWAP1 SWAP2 ADD MSTORE SWAP3 SWAP2 POP POP JUMP JUMPDEST PUSH1 0x1 PUSH1 0x1 PUSH1 0xA0 SHL SUB DUP2 AND PUSH1 0x0 SWAP1 DUP2 MSTORE PUSH1 0x4 PUSH1 0x20 MSTORE PUSH1 0x40 DUP2 KECCAK256 DUP2 DUP1 JUMPDEST DUP3 SLOAD DUP2 LT ISZERO PUSH2 0xC5B JUMPI PUSH1 0x0 PUSH1 0x3 PUSH1 0x0 DUP6 DUP5 DUP2 SLOAD DUP2 LT PUSH2 0xBC3 JUMPI PUSH2 0xBC3 PUSH2 0x2EAE JUMP JUMPDEST PUSH1 0x0 SWAP2 DUP3 MSTORE PUSH1 0x20 DUP1 DUP4 KECCAK256 SWAP2 SWAP1 SWAP2 ADD SLOAD DUP4 MSTORE DUP3 DUP2 ADD SWAP4 SWAP1 SWAP4 MSTORE PUSH1 0x40 SWAP2 DUP3 ADD SWAP1 KECCAK256 DUP2 MLOAD PUSH1 0x80 DUP2 ADD DUP4 MSTORE DUP2 SLOAD DUP2 MSTORE PUSH1 0x1 DUP3 ADD SLOAD PUSH1 0x1 PUSH1 0x1 PUSH1 0xA0 SHL SUB DUP2 AND SWAP5 DUP3 ADD SWAP5 SWAP1 SWAP5 MSTORE PUSH1 0x1 PUSH1 0xA0 SHL SWAP1 SWAP4 DIV PUSH1 0xFF AND ISZERO DUP1 ISZERO SWAP3 DUP5 ADD DUP4 SWAP1 MSTORE PUSH1 0x2 SWAP1 SWAP2 ADD SLOAD PUSH1 0x60 DUP5 ADD MSTORE SWAP2 SWAP3 POP PUSH2 0xC34 JUMPI POP DUP1 PUSH1 0x60 ADD MLOAD TIMESTAMP LT ISZERO JUMPDEST ISZERO PUSH2 0xC48 JUMPI DUP1 MLOAD PUSH2 0xC45 SWAP1 DUP5 PUSH2 0x2EDA JUMP JUMPDEST SWAP3 POP JUMPDEST POP DUP1 PUSH2 0xC53 DUP2 PUSH2 0x2EED JUMP JUMPDEST SWAP2 POP POP PUSH2 0xBA2 JUMP JUMPDEST POP SWAP4 SWAP3 POP POP POP JUMP JUMPDEST PUSH1 0x1 PUSH1 0x1 PUSH1 0xA0 SHL SUB DUP2 AND CALLER EQ PUSH2 0xC8C JUMPI PUSH1 0x40 MLOAD PUSH4 0x334BD919 PUSH1 0xE1 SHL DUP2 MSTORE PUSH1 0x4 ADD PUSH1 0x40 MLOAD DUP1 SWAP2 SUB SWAP1 REVERT JUMPDEST PUSH2 0xC96 DUP3 DUP3 PUSH2 0x2623 JUMP JUMPDEST POP POP POP JUMP JUMPDEST PUSH1 0x0 DUP1 MLOAD PUSH1 0x20 PUSH2 0x34DB DUP4 CODECOPY DUP2 MLOAD SWAP2 MSTORE PUSH2 0xCB3 DUP2 PUSH2 0x2696 JUMP JUMPDEST PUSH8 0x6765C793FA10079D PUSH1 0x1B SHL DUP3 PUSH1 0x7 SLOAD PUSH2 0xCCD SWAP2 SWAP1 PUSH2 0x2EDA JUMP JUMPDEST GT ISZERO PUSH2 0xD14 JUMPI PUSH1 0x40 MLOAD PUSH3 0x461BCD PUSH1 0xE5 SHL DUP2 MSTORE PUSH1 0x20 PUSH1 0x4 DUP3 ADD MSTORE PUSH1 0x16 PUSH1 0x24 DUP3 ADD MSTORE PUSH22 0x45786365656473206D6178696D756D20737570706C79 PUSH1 0x50 SHL PUSH1 0x44 DUP3 ADD MSTORE PUSH1 0x64 ADD PUSH2 0x668 JUMP JUMPDEST PUSH1 0x1 PUSH1 0x1 PUSH1 0xA0 SHL SUB DUP4 AND PUSH2 0xD66 JUMPI PUSH1 0x40 MLOAD PUSH3 0x461BCD PUSH1 0xE5 SHL DUP2 MSTORE PUSH1 0x20 PUSH1 0x4 DUP3 ADD MSTORE PUSH1 0x19 PUSH1 0x24 DUP3 ADD MSTORE PUSH25 0x496E76616C696420726563697069656E742061646472657373 PUSH1 0x38 SHL PUSH1 0x44 DUP3 ADD MSTORE PUSH1 0x64 ADD PUSH2 0x668 JUMP JUMPDEST PUSH2 0xD6F DUP4 PUSH2 0x75E JUMP JUMPDEST PUSH2 0xDBB JUMPI PUSH1 0x40 MLOAD PUSH3 0x461BCD PUSH1 0xE5 SHL DUP2 MSTORE PUSH1 0x20 PUSH1 0x4 DUP3 ADD DUP2 SWAP1 MSTORE PUSH1 0x24 DUP3 ADD MSTORE PUSH32 0x526563697069656E74206D757374206861766520612076616C696420726F6C65 PUSH1 0x44 DUP3 ADD MSTORE PUSH1 0x64 ADD PUSH2 0x668 JUMP JUMPDEST PUSH1 0x0 DUP4 DUP4 TIMESTAMP PUSH1 0x6 SLOAD PUSH1 0x40 MLOAD PUSH1 0x20 ADD PUSH2 0xDD6 SWAP5 SWAP4 SWAP3 SWAP2 SWAP1 PUSH2 0x2F06 JUMP JUMPDEST PUSH1 0x40 DUP1 MLOAD PUSH1 0x1F NOT DUP2 DUP5 SUB ADD DUP2 MSTORE DUP3 DUP3 MSTORE DUP1 MLOAD PUSH1 0x20 SWAP2 DUP3 ADD KECCAK256 PUSH1 0x80 DUP5 ADD DUP4 MSTORE DUP7 DUP5 MSTORE PUSH1 0x1 PUSH1 0x1 PUSH1 0xA0 SHL SUB DUP1 DUP10 AND DUP6 DUP5 ADD DUP2 DUP2 MSTORE PUSH1 0x0 DUP8 DUP8 ADD DUP2 DUP2 MSTORE PUSH1 0x60 DUP10 ADD DUP3 DUP2 MSTORE DUP7 DUP4 MSTORE PUSH1 0x3 DUP9 MSTORE DUP9 DUP4 KECCAK256 DUP11 MLOAD DUP2 SSTORE SWAP4 MLOAD PUSH1 0x1 DUP6 DUP2 ADD DUP1 SLOAD SWAP5 MLOAD ISZERO ISZERO PUSH1 0x1 PUSH1 0xA0 SHL MUL PUSH1 0x1 PUSH1 0x1 PUSH1 0xA8 SHL SUB NOT SWAP1 SWAP6 AND SWAP3 SWAP1 SWAP9 AND SWAP2 SWAP1 SWAP2 OR SWAP3 SWAP1 SWAP3 OR SWAP1 SWAP6 SSTORE SWAP4 MLOAD PUSH1 0x2 SWAP1 SWAP3 ADD SWAP2 SWAP1 SWAP2 SSTORE SWAP1 DUP2 MSTORE PUSH1 0x4 DUP5 MSTORE SWAP4 DUP5 KECCAK256 DUP1 SLOAD SWAP2 DUP3 ADD DUP2 SSTORE DUP5 MSTORE SWAP2 DUP4 KECCAK256 SWAP1 SWAP2 ADD DUP2 SWAP1 SSTORE PUSH1 0x7 DUP1 SLOAD SWAP2 SWAP5 POP DUP7 SWAP3 SWAP1 SWAP2 PUSH2 0xE90 SWAP1 DUP5 SWAP1 PUSH2 0x2EDA JUMP JUMPDEST SWAP1 SWAP2 SSTORE POP POP PUSH1 0x0 DUP3 DUP2 MSTORE PUSH1 0x2 PUSH1 0x20 DUP2 DUP2 MSTORE PUSH1 0x40 DUP1 DUP5 KECCAK256 DUP7 DUP2 SSTORE TIMESTAMP PUSH1 0x3 DUP1 DUP4 ADD SWAP2 SWAP1 SWAP2 SSTORE PUSH1 0x4 DUP3 ADD DUP1 SLOAD PUSH1 0x1 PUSH1 0x1 PUSH1 0xA0 SHL SUB NOT AND CALLER OR SWAP1 SSTORE SWAP1 DUP5 ADD DUP1 SLOAD PUSH1 0x1 DUP2 DUP2 ADD DUP4 SSTORE SWAP2 DUP8 MSTORE DUP5 DUP8 KECCAK256 DUP9 MLOAD SWAP2 SWAP1 SWAP4 MUL SWAP1 SWAP3 ADD SWAP2 DUP3 SSTORE DUP7 DUP5 ADD MLOAD DUP3 DUP3 ADD DUP1 SLOAD DUP10 DUP7 ADD MLOAD ISZERO ISZERO PUSH1 0x1 PUSH1 0xA0 SHL MUL PUSH1 0x1 PUSH1 0x1 PUSH1 0xA8 SHL SUB NOT SWAP1 SWAP2 AND PUSH1 0x1 PUSH1 0x1 PUSH1 0xA0 SHL SUB SWAP4 SWAP1 SWAP4 AND SWAP3 SWAP1 SWAP3 OR SWAP2 SWAP1 SWAP2 OR SWAP1 SSTORE PUSH1 0x60 DUP8 ADD MLOAD SWAP2 SWAP1 SWAP5 ADD SSTORE DUP6 DUP5 MSTORE PUSH1 0x5 SWAP1 SWAP2 MSTORE DUP3 KECCAK256 DUP1 SLOAD PUSH1 0xFF NOT AND SWAP1 SWAP2 OR SWAP1 SSTORE PUSH1 0x6 DUP1 SLOAD SWAP2 PUSH2 0xF49 DUP4 PUSH2 0x2EED JUMP JUMPDEST SWAP2 SWAP1 POP SSTORE POP DUP5 PUSH1 0x1 PUSH1 0x1 PUSH1 0xA0 SHL SUB AND DUP3 PUSH1 0x0 DUP1 MLOAD PUSH1 0x20 PUSH2 0x351B DUP4 CODECOPY DUP2 MLOAD SWAP2 MSTORE DUP7 PUSH1 0x40 MLOAD PUSH2 0xF78 SWAP2 DUP2 MSTORE PUSH1 0x20 ADD SWAP1 JUMP JUMPDEST PUSH1 0x40 MLOAD DUP1 SWAP2 SUB SWAP1 LOG3 PUSH1 0x40 MLOAD DUP5 DUP2 MSTORE CALLER SWAP1 PUSH32 0x2C6364C33C231F6B00D9D8736D5FFC450B1A21FDA45EF7847565E16A039A4CD5 SWAP1 PUSH1 0x20 ADD PUSH1 0x40 MLOAD DUP1 SWAP2 SUB SWAP1 LOG2 PUSH1 0x40 MLOAD PUSH1 0x1 DUP2 MSTORE CALLER SWAP1 DUP4 SWAP1 PUSH1 0x0 DUP1 MLOAD PUSH1 0x20 PUSH2 0x357B DUP4 CODECOPY DUP2 MLOAD SWAP2 MSTORE SWAP1 PUSH1 0x20 ADD PUSH1 0x40 MLOAD DUP1 SWAP2 SUB SWAP1 LOG3 POP POP POP POP POP JUMP JUMPDEST PUSH1 0x0 DUP1 MLOAD PUSH1 0x20 PUSH2 0x34DB DUP4 CODECOPY DUP2 MLOAD SWAP2 MSTORE PUSH2 0xFFA DUP2 PUSH2 0x2696 JUMP JUMPDEST PUSH2 0x1012 PUSH1 0x0 DUP1 MLOAD PUSH1 0x20 PUSH2 0x355B DUP4 CODECOPY DUP2 MLOAD SWAP2 MSTORE DUP5 PUSH2 0x175B JUMP JUMPDEST ISZERO PUSH2 0x106F JUMPI PUSH1 0x40 MLOAD PUSH3 0x461BCD PUSH1 0xE5 SHL DUP2 MSTORE PUSH1 0x20 PUSH1 0x4 DUP3 ADD MSTORE PUSH1 0x27 PUSH1 0x24 DUP3 ADD MSTORE PUSH32 0x4163636F756E7420616C726561647920686173207365636F6E64617279206261 PUSH1 0x44 DUP3 ADD MSTORE PUSH7 0x6E6B20726F6C65 PUSH1 0xC8 SHL PUSH1 0x64 DUP3 ADD MSTORE PUSH1 0x84 ADD PUSH2 0x668 JUMP JUMPDEST PUSH2 0x1087 PUSH1 0x0 DUP1 MLOAD PUSH1 0x20 PUSH2 0x34DB DUP4 CODECOPY DUP2 MLOAD SWAP2 MSTORE DUP5 PUSH2 0x175B JUMP JUMPDEST ISZERO PUSH2 0x10A4 JUMPI PUSH1 0x40 MLOAD PUSH3 0x461BCD PUSH1 0xE5 SHL DUP2 MSTORE PUSH1 0x4 ADD PUSH2 0x668 SWAP1 PUSH2 0x2F30 JUMP JUMPDEST PUSH2 0x10BC PUSH1 0x0 DUP1 MLOAD PUSH1 0x20 PUSH2 0x355B DUP4 CODECOPY DUP2 MLOAD SWAP2 MSTORE DUP5 PUSH2 0x26A3 JUMP JUMPDEST POP PUSH1 0x40 DUP1 MLOAD PUSH1 0xA0 DUP2 ADD DUP3 MSTORE PUSH1 0x1 PUSH1 0x1 PUSH1 0xA0 SHL SUB DUP6 DUP2 AND DUP1 DUP4 MSTORE PUSH1 0x20 DUP1 DUP5 ADD DUP8 DUP2 MSTORE PUSH1 0x2 DUP6 DUP8 ADD MSTORE PUSH1 0x1 PUSH1 0x60 DUP7 ADD DUP2 SWAP1 MSTORE TIMESTAMP PUSH1 0x80 DUP8 ADD MSTORE PUSH1 0x0 SWAP4 DUP5 MSTORE SWAP2 DUP3 SWAP1 MSTORE SWAP5 SWAP1 SWAP2 KECCAK256 DUP4 MLOAD DUP2 SLOAD PUSH1 0x1 PUSH1 0x1 PUSH1 0xA0 SHL SUB NOT AND SWAP4 AND SWAP3 SWAP1 SWAP3 OR DUP3 SSTORE SWAP3 MLOAD SWAP2 SWAP3 SWAP1 SWAP2 SWAP1 DUP3 ADD SWAP1 PUSH2 0x1129 SWAP1 DUP3 PUSH2 0x2FCC JUMP JUMPDEST POP PUSH1 0x40 DUP3 DUP2 ADD MLOAD PUSH1 0x2 DUP4 ADD SSTORE PUSH1 0x60 DUP4 ADD MLOAD PUSH1 0x3 DUP4 ADD DUP1 SLOAD PUSH1 0xFF NOT AND SWAP2 ISZERO ISZERO SWAP2 SWAP1 SWAP2 OR SWAP1 SSTORE PUSH1 0x80 SWAP1 SWAP3 ADD MLOAD PUSH1 0x4 SWAP1 SWAP2 ADD SSTORE MLOAD PUSH1 0x0 DUP1 MLOAD PUSH1 0x20 PUSH2 0x355B DUP4 CODECOPY DUP2 MLOAD SWAP2 MSTORE SWAP1 PUSH1 0x1 PUSH1 0x1 PUSH1 0xA0 SHL SUB DUP6 AND SWAP1 PUSH1 0x0 DUP1 MLOAD PUSH1 0x20 PUSH2 0x34BB DUP4 CODECOPY DUP2 MLOAD SWAP2 MSTORE SWAP1 PUSH2 0x1190 SWAP1 DUP7 SWAP1 PUSH2 0x3085 JUMP JUMPDEST PUSH1 0x40 MLOAD DUP1 SWAP2 SUB SWAP1 LOG3 POP POP POP JUMP JUMPDEST PUSH1 0x0 DUP1 MLOAD PUSH1 0x20 PUSH2 0x355B DUP4 CODECOPY DUP2 MLOAD SWAP2 MSTORE PUSH2 0x11B5 DUP2 PUSH2 0x2696 JUMP JUMPDEST PUSH2 0x11CD PUSH1 0x0 DUP1 MLOAD PUSH1 0x20 PUSH2 0x353B DUP4 CODECOPY DUP2 MLOAD SWAP2 MSTORE DUP5 PUSH2 0x175B JUMP JUMPDEST ISZERO DUP1 ISZERO PUSH2 0x11EF JUMPI POP PUSH2 0x11ED PUSH1 0x0 DUP1 MLOAD PUSH1 0x20 PUSH2 0x349B DUP4 CODECOPY DUP2 MLOAD SWAP2 MSTORE DUP5 PUSH2 0x175B JUMP JUMPDEST ISZERO JUMPDEST PUSH2 0x120B JUMPI PUSH1 0x40 MLOAD PUSH3 0x461BCD PUSH1 0xE5 SHL DUP2 MSTORE PUSH1 0x4 ADD PUSH2 0x668 SWAP1 PUSH2 0x3098 JUMP JUMPDEST PUSH2 0x1223 PUSH1 0x0 DUP1 MLOAD PUSH1 0x20 PUSH2 0x355B DUP4 CODECOPY DUP2 MLOAD SWAP2 MSTORE DUP5 PUSH2 0x175B JUMP JUMPDEST ISZERO PUSH2 0x1240 JUMPI PUSH1 0x40 MLOAD PUSH3 0x461BCD PUSH1 0xE5 SHL DUP2 MSTORE PUSH1 0x4 ADD PUSH2 0x668 SWAP1 PUSH2 0x30E0 JUMP JUMPDEST PUSH2 0x1258 PUSH1 0x0 DUP1 MLOAD PUSH1 0x20 PUSH2 0x34DB DUP4 CODECOPY DUP2 MLOAD SWAP2 MSTORE DUP5 PUSH2 0x175B JUMP JUMPDEST ISZERO PUSH2 0x1275 JUMPI PUSH1 0x40 MLOAD PUSH3 0x461BCD PUSH1 0xE5 SHL DUP2 MSTORE PUSH1 0x4 ADD PUSH2 0x668 SWAP1 PUSH2 0x2F30 JUMP JUMPDEST PUSH2 0x128D PUSH1 0x0 DUP1 MLOAD PUSH1 0x20 PUSH2 0x353B DUP4 CODECOPY DUP2 MLOAD SWAP2 MSTORE DUP5 PUSH2 0x26A3 JUMP JUMPDEST POP PUSH1 0x40 DUP1 MLOAD PUSH1 0xA0 DUP2 ADD DUP3 MSTORE PUSH1 0x1 PUSH1 0x1 PUSH1 0xA0 SHL SUB DUP6 DUP2 AND DUP1 DUP4 MSTORE PUSH1 0x20 DUP1 DUP5 ADD DUP8 DUP2 MSTORE PUSH1 0x3 DUP6 DUP8 ADD MSTORE PUSH1 0x1 PUSH1 0x60 DUP7 ADD DUP2 SWAP1 MSTORE TIMESTAMP PUSH1 0x80 DUP8 ADD MSTORE PUSH1 0x0 SWAP4 DUP5 MSTORE SWAP2 DUP3 SWAP1 MSTORE SWAP5 SWAP1 SWAP2 KECCAK256 DUP4 MLOAD DUP2 SLOAD PUSH1 0x1 PUSH1 0x1 PUSH1 0xA0 SHL SUB NOT AND SWAP4 AND SWAP3 SWAP1 SWAP3 OR DUP3 SSTORE SWAP3 MLOAD SWAP2 SWAP3 SWAP1 SWAP2 SWAP1 DUP3 ADD SWAP1 PUSH2 0x12FA SWAP1 DUP3 PUSH2 0x2FCC JUMP JUMPDEST POP PUSH1 0x40 DUP3 DUP2 ADD MLOAD PUSH1 0x2 DUP4 ADD SSTORE PUSH1 0x60 DUP4 ADD MLOAD PUSH1 0x3 DUP4 ADD DUP1 SLOAD PUSH1 0xFF NOT AND SWAP2 ISZERO ISZERO SWAP2 SWAP1 SWAP2 OR SWAP1 SSTORE PUSH1 0x80 SWAP1 SWAP3 ADD MLOAD PUSH1 0x4 SWAP1 SWAP2 ADD SSTORE MLOAD PUSH1 0x0 DUP1 MLOAD PUSH1 0x20 PUSH2 0x353B DUP4 CODECOPY DUP2 MLOAD SWAP2 MSTORE SWAP1 PUSH1 0x1 PUSH1 0x1 PUSH1 0xA0 SHL SUB DUP6 AND SWAP1 PUSH1 0x0 DUP1 MLOAD PUSH1 0x20 PUSH2 0x34BB DUP4 CODECOPY DUP2 MLOAD SWAP2 MSTORE SWAP1 PUSH2 0x1190 SWAP1 DUP7 SWAP1 PUSH2 0x3085 JUMP JUMPDEST PUSH1 0x0 DUP1 MLOAD PUSH1 0x20 PUSH2 0x355B DUP4 CODECOPY DUP2 MLOAD SWAP2 MSTORE PUSH2 0x1379 DUP2 PUSH2 0x2696 JUMP JUMPDEST PUSH2 0x1391 PUSH1 0x0 DUP1 MLOAD PUSH1 0x20 PUSH2 0x353B DUP4 CODECOPY DUP2 MLOAD SWAP2 MSTORE DUP5 PUSH2 0x175B JUMP JUMPDEST ISZERO DUP1 ISZERO PUSH2 0x13B3 JUMPI POP PUSH2 0x13B1 PUSH1 0x0 DUP1 MLOAD PUSH1 0x20 PUSH2 0x349B DUP4 CODECOPY DUP2 MLOAD SWAP2 MSTORE DUP5 PUSH2 0x175B JUMP JUMPDEST ISZERO JUMPDEST PUSH2 0x13CF JUMPI PUSH1 0x40 MLOAD PUSH3 0x461BCD PUSH1 0xE5 SHL DUP2 MSTORE PUSH1 0x4 ADD PUSH2 0x668 SWAP1 PUSH2 0x3098 JUMP JUMPDEST PUSH2 0x13E7 PUSH1 0x0 DUP1 MLOAD PUSH1 0x20 PUSH2 0x355B DUP4 CODECOPY DUP2 MLOAD SWAP2 MSTORE DUP5 PUSH2 0x175B JUMP JUMPDEST ISZERO PUSH2 0x1404 JUMPI PUSH1 0x40 MLOAD PUSH3 0x461BCD PUSH1 0xE5 SHL DUP2 MSTORE PUSH1 0x4 ADD PUSH2 0x668 SWAP1 PUSH2 0x30E0 JUMP JUMPDEST PUSH2 0x141C PUSH1 0x0 DUP1 MLOAD PUSH1 0x20 PUSH2 0x34DB DUP4 CODECOPY DUP2 MLOAD SWAP2 MSTORE DUP5 PUSH2 0x175B JUMP JUMPDEST ISZERO PUSH2 0x1439 JUMPI PUSH1 0x40 MLOAD PUSH3 0x461BCD PUSH1 0xE5 SHL DUP2 MSTORE PUSH1 0x4 ADD PUSH2 0x668 SWAP1 PUSH2 0x2F30 JUMP JUMPDEST PUSH2 0x1451 PUSH1 0x0 DUP1 MLOAD PUSH1 0x20 PUSH2 0x349B DUP4 CODECOPY DUP2 MLOAD SWAP2 MSTORE DUP5 PUSH2 0x26A3 JUMP JUMPDEST POP PUSH1 0x40 DUP1 MLOAD PUSH1 0xA0 DUP2 ADD DUP3 MSTORE PUSH1 0x1 PUSH1 0x1 PUSH1 0xA0 SHL SUB DUP6 DUP2 AND DUP1 DUP4 MSTORE PUSH1 0x20 DUP1 DUP5 ADD DUP8 DUP2 MSTORE PUSH1 0x3 DUP6 DUP8 ADD MSTORE PUSH1 0x1 PUSH1 0x60 DUP7 ADD DUP2 SWAP1 MSTORE TIMESTAMP PUSH1 0x80 DUP8 ADD MSTORE PUSH1 0x0 SWAP4 DUP5 MSTORE SWAP2 DUP3 SWAP1 MSTORE SWAP5 SWAP1 SWAP2 KECCAK256 DUP4 MLOAD DUP2 SLOAD PUSH1 0x1 PUSH1 0x1 PUSH1 0xA0 SHL SUB NOT AND SWAP4 AND SWAP3 SWAP1 SWAP3 OR DUP3 SSTORE SWAP3 MLOAD SWAP2 SWAP3 SWAP1 SWAP2 SWAP1 DUP3 ADD SWAP1 PUSH2 0x14BE SWAP1 DUP3 PUSH2 0x2FCC JUMP JUMPDEST POP PUSH1 0x40 DUP3 DUP2 ADD MLOAD PUSH1 0x2 DUP4 ADD SSTORE PUSH1 0x60 DUP4 ADD MLOAD PUSH1 0x3 DUP4 ADD DUP1 SLOAD PUSH1 0xFF NOT AND SWAP2 ISZERO ISZERO SWAP2 SWAP1 SWAP2 OR SWAP1 SSTORE PUSH1 0x80 SWAP1 SWAP3 ADD MLOAD PUSH1 0x4 SWAP1 SWAP2 ADD SSTORE MLOAD PUSH1 0x0 DUP1 MLOAD PUSH1 0x20 PUSH2 0x349B DUP4 CODECOPY DUP2 MLOAD SWAP2 MSTORE SWAP1 PUSH1 0x1 PUSH1 0x1 PUSH1 0xA0 SHL SUB DUP6 AND SWAP1 PUSH1 0x0 DUP1 MLOAD PUSH1 0x20 PUSH2 0x34BB DUP4 CODECOPY DUP2 MLOAD SWAP2 MSTORE SWAP1 PUSH2 0x1190 SWAP1 DUP7 SWAP1 PUSH2 0x3085 JUMP JUMPDEST PUSH1 0x1 PUSH1 0x1 PUSH1 0xA0 SHL SUB DUP1 DUP4 AND PUSH1 0x0 SWAP1 DUP2 MSTORE PUSH1 0x1 PUSH1 0x20 DUP2 DUP2 MSTORE PUSH1 0x40 DUP1 DUP5 KECCAK256 DUP2 MLOAD PUSH1 0xA0 DUP2 ADD SWAP1 SWAP3 MSTORE DUP1 SLOAD SWAP1 SWAP6 AND DUP2 MSTORE SWAP2 DUP5 ADD DUP1 SLOAD SWAP4 SWAP5 DUP6 SWAP5 SWAP1 SWAP3 DUP5 ADD SWAP2 SWAP1 PUSH2 0x1569 SWAP1 PUSH2 0x2E74 JUMP JUMPDEST DUP1 PUSH1 0x1F ADD PUSH1 0x20 DUP1 SWAP2 DIV MUL PUSH1 0x20 ADD PUSH1 0x40 MLOAD SWAP1 DUP2 ADD PUSH1 0x40 MSTORE DUP1 SWAP3 SWAP2 SWAP1 DUP2 DUP2 MSTORE PUSH1 0x20 ADD DUP3 DUP1 SLOAD PUSH2 0x1595 SWAP1 PUSH2 0x2E74 JUMP JUMPDEST DUP1 ISZERO PUSH2 0x15E2 JUMPI DUP1 PUSH1 0x1F LT PUSH2 0x15B7 JUMPI PUSH2 0x100 DUP1 DUP4 SLOAD DIV MUL DUP4 MSTORE SWAP2 PUSH1 0x20 ADD SWAP2 PUSH2 0x15E2 JUMP JUMPDEST DUP3 ADD SWAP2 SWAP1 PUSH1 0x0 MSTORE PUSH1 0x20 PUSH1 0x0 KECCAK256 SWAP1 JUMPDEST DUP2 SLOAD DUP2 MSTORE SWAP1 PUSH1 0x1 ADD SWAP1 PUSH1 0x20 ADD DUP1 DUP4 GT PUSH2 0x15C5 JUMPI DUP3 SWAP1 SUB PUSH1 0x1F AND DUP3 ADD SWAP2 JUMPDEST POP POP POP SWAP2 DUP4 MSTORE POP POP PUSH1 0x2 DUP3 ADD SLOAD PUSH1 0x20 DUP3 ADD MSTORE PUSH1 0x3 DUP3 ADD SLOAD PUSH1 0xFF AND ISZERO ISZERO PUSH1 0x40 DUP3 ADD MSTORE PUSH1 0x4 SWAP1 SWAP2 ADD SLOAD PUSH1 0x60 SWAP2 DUP3 ADD MSTORE DUP2 ADD MLOAD SWAP1 SWAP2 POP DUP1 ISZERO PUSH2 0x1625 JUMPI POP DUP3 DUP2 PUSH1 0x40 ADD MLOAD GT ISZERO JUMPDEST SWAP5 SWAP4 POP POP POP POP JUMP JUMPDEST PUSH1 0x4 PUSH1 0x20 MSTORE DUP2 PUSH1 0x0 MSTORE PUSH1 0x40 PUSH1 0x0 KECCAK256 DUP2 DUP2 SLOAD DUP2 LT PUSH2 0x1649 JUMPI PUSH1 0x0 DUP1 REVERT JUMPDEST SWAP1 PUSH1 0x0 MSTORE PUSH1 0x20 PUSH1 0x0 KECCAK256 ADD PUSH1 0x0 SWAP2 POP SWAP2 POP POP SLOAD DUP2 JUMP JUMPDEST PUSH2 0x1667 CALLER PUSH2 0x75E JUMP JUMPDEST PUSH2 0x1683 JUMPI PUSH1 0x40 MLOAD PUSH3 0x461BCD PUSH1 0xE5 SHL DUP2 MSTORE PUSH1 0x4 ADD PUSH2 0x668 SWAP1 PUSH2 0x3123 JUMP JUMPDEST PUSH1 0x0 CALLER DUP3 TIMESTAMP PUSH1 0x6 SLOAD PUSH1 0x40 MLOAD PUSH1 0x20 ADD PUSH2 0x169E SWAP5 SWAP4 SWAP3 SWAP2 SWAP1 PUSH2 0x2F06 JUMP JUMPDEST PUSH1 0x40 DUP1 MLOAD PUSH1 0x1F NOT DUP2 DUP5 SUB ADD DUP2 MSTORE DUP3 DUP3 MSTORE DUP1 MLOAD PUSH1 0x20 SWAP2 DUP3 ADD KECCAK256 PUSH1 0x80 DUP5 ADD DUP4 MSTORE DUP6 DUP5 MSTORE CALLER DUP3 DUP6 ADD DUP2 DUP2 MSTORE PUSH1 0x0 DUP7 DUP7 ADD DUP2 DUP2 MSTORE PUSH1 0x60 DUP9 ADD DUP3 DUP2 MSTORE DUP6 DUP4 MSTORE PUSH1 0x3 DUP8 MSTORE DUP8 DUP4 KECCAK256 DUP10 MLOAD DUP2 SSTORE SWAP4 MLOAD PUSH1 0x1 DUP1 DUP7 ADD DUP1 SLOAD SWAP5 MLOAD ISZERO ISZERO PUSH1 0x1 PUSH1 0xA0 SHL MUL PUSH1 0x1 PUSH1 0x1 PUSH1 0xA8 SHL SUB NOT SWAP1 SWAP6 AND PUSH1 0x1 PUSH1 0x1 PUSH1 0xA0 SHL SUB SWAP1 SWAP4 AND SWAP3 SWAP1 SWAP3 OR SWAP4 SWAP1 SWAP4 OR SWAP1 SSTORE MLOAD PUSH1 0x2 SWAP1 SWAP4 ADD SWAP3 SWAP1 SWAP3 SSTORE DUP3 DUP2 MSTORE PUSH1 0x4 DUP6 MSTORE DUP6 DUP2 KECCAK256 DUP1 SLOAD SWAP3 DUP4 ADD DUP2 SSTORE DUP2 MSTORE DUP5 SWAP1 KECCAK256 ADD DUP3 SWAP1 SSTORE SWAP3 MLOAD DUP7 DUP2 MSTORE SWAP1 SWAP5 POP DUP5 SWAP2 PUSH1 0x0 DUP1 MLOAD PUSH1 0x20 PUSH2 0x351B DUP4 CODECOPY DUP2 MLOAD SWAP2 MSTORE SWAP2 ADD PUSH2 0x1190 JUMP JUMPDEST PUSH1 0x0 SWAP2 DUP3 MSTORE PUSH1 0x20 DUP3 DUP2 MSTORE PUSH1 0x40 DUP1 DUP5 KECCAK256 PUSH1 0x1 PUSH1 0x1 PUSH1 0xA0 SHL SUB SWAP4 SWAP1 SWAP4 AND DUP5 MSTORE SWAP2 SWAP1 MSTORE SWAP1 KECCAK256 SLOAD PUSH1 0xFF AND SWAP1 JUMP JUMPDEST PUSH2 0x179C PUSH1 0x0 DUP1 MLOAD PUSH1 0x20 PUSH2 0x34DB DUP4 CODECOPY DUP2 MLOAD SWAP2 MSTORE CALLER PUSH2 0x175B JUMP JUMPDEST DUP1 PUSH2 0x17BA JUMPI POP PUSH2 0x17BA PUSH1 0x0 DUP1 MLOAD PUSH1 0x20 PUSH2 0x355B DUP4 CODECOPY DUP2 MLOAD SWAP2 MSTORE CALLER PUSH2 0x175B JUMP JUMPDEST PUSH2 0x1804 JUMPI PUSH1 0x40 MLOAD PUSH3 0x461BCD PUSH1 0xE5 SHL DUP2 MSTORE PUSH1 0x20 PUSH1 0x4 DUP3 ADD MSTORE PUSH1 0x1B PUSH1 0x24 DUP3 ADD MSTORE PUSH27 0x4F6E6C792062616E6B732063616E2075706461746520726F6C6573 PUSH1 0x28 SHL PUSH1 0x44 DUP3 ADD MSTORE PUSH1 0x64 ADD PUSH2 0x668 JUMP JUMPDEST PUSH1 0x1 PUSH1 0x1 PUSH1 0xA0 SHL SUB DUP4 DUP2 AND PUSH1 0x0 SWAP1 DUP2 MSTORE PUSH1 0x1 PUSH1 0x20 MSTORE PUSH1 0x40 SWAP1 KECCAK256 SLOAD AND PUSH2 0x186A JUMPI PUSH1 0x40 MLOAD PUSH3 0x461BCD PUSH1 0xE5 SHL DUP2 MSTORE PUSH1 0x20 PUSH1 0x4 DUP3 ADD MSTORE PUSH1 0x1C PUSH1 0x24 DUP3 ADD MSTORE PUSH28 0x4163636F756E7420646F6573206E6F742068617665206120726F6C65 PUSH1 0x20 SHL PUSH1 0x44 DUP3 ADD MSTORE PUSH1 0x64 ADD PUSH2 0x668 JUMP JUMPDEST PUSH1 0x1 PUSH1 0x1 PUSH1 0xA0 SHL SUB DUP4 AND PUSH1 0x0 SWAP1 DUP2 MSTORE PUSH1 0x1 PUSH1 0x20 DUP2 SWAP1 MSTORE PUSH1 0x40 SWAP1 SWAP2 KECCAK256 SWAP1 DUP2 ADD PUSH2 0x1892 DUP5 DUP3 PUSH2 0x2FCC JUMP JUMPDEST POP PUSH1 0x3 DUP2 ADD DUP1 SLOAD PUSH1 0xFF NOT AND DUP4 ISZERO ISZERO OR SWAP1 SSTORE PUSH1 0x40 MLOAD PUSH1 0x1 PUSH1 0x1 PUSH1 0xA0 SHL SUB DUP6 AND SWAP1 PUSH32 0xC4D12F4FED3C7D8E40B10B954DC4B19C26000388E17FD31B4AF750DD33B41664 SWAP1 PUSH2 0x18E0 SWAP1 DUP7 SWAP1 DUP7 SWAP1 PUSH2 0x315A JUMP JUMPDEST PUSH1 0x40 MLOAD DUP1 SWAP2 SUB SWAP1 LOG2 POP POP POP POP JUMP JUMPDEST PUSH1 0x1 PUSH1 0x1 PUSH1 0xA0 SHL SUB DUP2 AND PUSH1 0x0 SWAP1 DUP2 MSTORE PUSH1 0x4 PUSH1 0x20 SWAP1 DUP2 MSTORE PUSH1 0x40 SWAP2 DUP3 SWAP1 KECCAK256 DUP1 SLOAD DUP4 MLOAD DUP2 DUP5 MUL DUP2 ADD DUP5 ADD SWAP1 SWAP5 MSTORE DUP1 DUP5 MSTORE PUSH1 0x60 SWAP4 SWAP3 DUP4 ADD DUP3 DUP3 DUP1 ISZERO PUSH2 0x194E JUMPI PUSH1 0x20 MUL DUP3 ADD SWAP2 SWAP1 PUSH1 0x0 MSTORE PUSH1 0x20 PUSH1 0x0 KECCAK256 SWAP1 JUMPDEST DUP2 SLOAD DUP2 MSTORE PUSH1 0x20 ADD SWAP1 PUSH1 0x1 ADD SWAP1 DUP1 DUP4 GT PUSH2 0x193A JUMPI JUMPDEST POP POP POP POP POP SWAP1 POP SWAP2 SWAP1 POP JUMP JUMPDEST PUSH1 0x0 DUP1 MLOAD PUSH1 0x20 PUSH2 0x34DB DUP4 CODECOPY DUP2 MLOAD SWAP2 MSTORE PUSH2 0x1972 DUP2 PUSH2 0x2696 JUMP JUMPDEST PUSH2 0x198A PUSH1 0x0 DUP1 MLOAD PUSH1 0x20 PUSH2 0x34FB DUP4 CODECOPY DUP2 MLOAD SWAP2 MSTORE DUP5 PUSH2 0x175B JUMP JUMPDEST ISZERO PUSH2 0x19E2 JUMPI PUSH1 0x40 MLOAD PUSH3 0x461BCD PUSH1 0xE5 SHL DUP2 MSTORE PUSH1 0x20 PUSH1 0x4 DUP3 ADD MSTORE PUSH1 0x22 PUSH1 0x24 DUP3 ADD MSTORE PUSH32 0x4163636F756E7420616C72656164792068617320726567756C61746F7220726F PUSH1 0x44 DUP3 ADD MSTORE PUSH2 0x6C65 PUSH1 0xF0 SHL PUSH1 0x64 DUP3 ADD MSTORE PUSH1 0x84 ADD PUSH2 0x668 JUMP JUMPDEST PUSH2 0x19FA PUSH1 0x0 DUP1 MLOAD PUSH1 0x20 PUSH2 0x34FB DUP4 CODECOPY DUP2 MLOAD SWAP2 MSTORE DUP5 PUSH2 0x26A3 JUMP JUMPDEST POP PUSH1 0x40 DUP1 MLOAD PUSH1 0xA0 DUP2 ADD DUP3 MSTORE PUSH1 0x1 PUSH1 0x1 PUSH1 0xA0 SHL SUB DUP6 DUP2 AND DUP1 DUP4 MSTORE PUSH1 0x20 DUP1 DUP5 ADD DUP8 DUP2 MSTORE PUSH1 0x0 DUP6 DUP8 ADD DUP2 SWAP1 MSTORE PUSH1 0x1 PUSH1 0x60 DUP8 ADD DUP2 SWAP1 MSTORE TIMESTAMP PUSH1 0x80 DUP9 ADD MSTORE SWAP4 DUP2 MSTORE SWAP2 DUP4 SWAP1 MSTORE SWAP5 SWAP1 KECCAK256 DUP4 MLOAD DUP2 SLOAD PUSH1 0x1 PUSH1 0x1 PUSH1 0xA0 SHL SUB NOT AND SWAP4 AND SWAP3 SWAP1 SWAP3 OR DUP3 SSTORE SWAP3 MLOAD SWAP2 SWAP3 SWAP1 SWAP2 SWAP1 DUP3 ADD SWAP1 PUSH2 0x1A66 SWAP1 DUP3 PUSH2 0x2FCC JUMP JUMPDEST POP PUSH1 0x40 DUP3 DUP2 ADD MLOAD PUSH1 0x2 DUP4 ADD SSTORE PUSH1 0x60 DUP4 ADD MLOAD PUSH1 0x3 DUP4 ADD DUP1 SLOAD PUSH1 0xFF NOT AND SWAP2 ISZERO ISZERO SWAP2 SWAP1 SWAP2 OR SWAP1 SSTORE PUSH1 0x80 SWAP1 SWAP3 ADD MLOAD PUSH1 0x4 SWAP1 SWAP2 ADD SSTORE MLOAD PUSH1 0x0 DUP1 MLOAD PUSH1 0x20 PUSH2 0x34FB DUP4 CODECOPY DUP2 MLOAD SWAP2 MSTORE SWAP1 PUSH1 0x1 PUSH1 0x1 PUSH1 0xA0 SHL SUB DUP6 AND SWAP1 PUSH1 0x0 DUP1 MLOAD PUSH1 0x20 PUSH2 0x34BB DUP4 CODECOPY DUP2 MLOAD SWAP2 MSTORE SWAP1 PUSH2 0x1190 SWAP1 DUP7 SWAP1 PUSH2 0x3085 JUMP JUMPDEST PUSH2 0x1AD6 CALLER PUSH2 0x75E JUMP JUMPDEST PUSH2 0x1AF2 JUMPI PUSH1 0x40 MLOAD PUSH3 0x461BCD PUSH1 0xE5 SHL DUP2 MSTORE PUSH1 0x4 ADD PUSH2 0x668 SWAP1 PUSH2 0x3123 JUMP JUMPDEST PUSH1 0x0 DUP1 JUMPDEST DUP4 DUP2 LT ISZERO PUSH2 0x1BD0 JUMPI PUSH1 0x0 PUSH1 0x3 PUSH1 0x0 DUP8 DUP8 DUP6 DUP2 DUP2 LT PUSH2 0x1B16 JUMPI PUSH2 0x1B16 PUSH2 0x2EAE JUMP JUMPDEST PUSH1 0x20 SWAP1 DUP2 MUL SWAP3 SWAP1 SWAP3 ADD CALLDATALOAD DUP4 MSTORE POP DUP2 ADD SWAP2 SWAP1 SWAP2 MSTORE PUSH1 0x40 ADD PUSH1 0x0 KECCAK256 PUSH1 0x1 DUP2 ADD SLOAD SWAP1 SWAP2 POP PUSH1 0x1 PUSH1 0x1 PUSH1 0xA0 SHL SUB AND CALLER EQ PUSH2 0x1B5E JUMPI PUSH1 0x40 MLOAD PUSH3 0x461BCD PUSH1 0xE5 SHL DUP2 MSTORE PUSH1 0x4 ADD PUSH2 0x668 SWAP1 PUSH2 0x317E JUMP JUMPDEST PUSH1 0x1 DUP2 ADD SLOAD PUSH1 0x1 PUSH1 0xA0 SHL SWAP1 DIV PUSH1 0xFF AND ISZERO PUSH2 0x1B8A JUMPI PUSH1 0x40 MLOAD PUSH3 0x461BCD PUSH1 0xE5 SHL DUP2 MSTORE PUSH1 0x4 ADD PUSH2 0x668 SWAP1 PUSH2 0x31AA JUMP JUMPDEST DUP1 PUSH1 0x2 ADD SLOAD TIMESTAMP LT ISZERO PUSH2 0x1BAE JUMPI PUSH1 0x40 MLOAD PUSH3 0x461BCD PUSH1 0xE5 SHL DUP2 MSTORE PUSH1 0x4 ADD PUSH2 0x668 SWAP1 PUSH2 0x31D6 JUMP JUMPDEST DUP1 SLOAD PUSH2 0x1BBA SWAP1 DUP5 PUSH2 0x2EDA JUMP JUMPDEST SWAP3 POP POP DUP1 DUP1 PUSH2 0x1BC8 SWAP1 PUSH2 0x2EED JUMP JUMPDEST SWAP2 POP POP PUSH2 0x1AF6 JUMP JUMPDEST POP DUP2 DUP2 LT ISZERO PUSH2 0x1C1D JUMPI PUSH1 0x40 MLOAD PUSH3 0x461BCD PUSH1 0xE5 SHL DUP2 MSTORE PUSH1 0x20 PUSH1 0x4 DUP3 ADD MSTORE PUSH1 0x19 PUSH1 0x24 DUP3 ADD MSTORE PUSH25 0x496E73756666696369656E74205554584F2062616C616E6365 PUSH1 0x38 SHL PUSH1 0x44 DUP3 ADD MSTORE PUSH1 0x64 ADD PUSH2 0x668 JUMP JUMPDEST PUSH1 0x0 JUMPDEST DUP4 DUP2 LT ISZERO PUSH2 0x1CC5 JUMPI PUSH1 0x0 PUSH1 0x3 PUSH1 0x0 DUP8 DUP8 DUP6 DUP2 DUP2 LT PUSH2 0x1C40 JUMPI PUSH2 0x1C40 PUSH2 0x2EAE JUMP JUMPDEST PUSH1 0x20 SWAP1 DUP2 MUL SWAP3 SWAP1 SWAP3 ADD CALLDATALOAD DUP4 MSTORE POP DUP2 ADD SWAP2 SWAP1 SWAP2 MSTORE PUSH1 0x40 ADD PUSH1 0x0 KECCAK256 PUSH1 0x1 DUP2 ADD DUP1 SLOAD PUSH1 0xFF PUSH1 0xA0 SHL NOT AND PUSH1 0x1 PUSH1 0xA0 SHL OR SWAP1 SSTORE SWAP1 POP DUP6 DUP6 DUP4 DUP2 DUP2 LT PUSH2 0x1C82 JUMPI PUSH2 0x1C82 PUSH2 0x2EAE JUMP JUMPDEST SWAP1 POP PUSH1 0x20 MUL ADD CALLDATALOAD PUSH1 0x0 DUP1 MLOAD PUSH1 0x20 PUSH2 0x359B DUP4 CODECOPY DUP2 MLOAD SWAP2 MSTORE PUSH1 0x6 SLOAD PUSH1 0x40 MLOAD PUSH2 0x1CAA SWAP2 DUP2 MSTORE PUSH1 0x20 ADD SWAP1 JUMP JUMPDEST PUSH1 0x40 MLOAD DUP1 SWAP2 SUB SWAP1 LOG2 POP DUP1 PUSH2 0x1CBD DUP2 PUSH2 0x2EED JUMP JUMPDEST SWAP2 POP POP PUSH2 0x1C20 JUMP JUMPDEST POP PUSH1 0x0 JUMPDEST DUP4 DUP2 LT ISZERO PUSH2 0x1D07 JUMPI PUSH2 0x1CF5 CALLER DUP7 DUP7 DUP5 DUP2 DUP2 LT PUSH2 0x1CE7 JUMPI PUSH2 0x1CE7 PUSH2 0x2EAE JUMP JUMPDEST SWAP1 POP PUSH1 0x20 MUL ADD CALLDATALOAD PUSH1 0x0 PUSH2 0x272D JUMP JUMPDEST DUP1 PUSH2 0x1CFF DUP2 PUSH2 0x2EED JUMP JUMPDEST SWAP2 POP POP PUSH2 0x1CC9 JUMP JUMPDEST POP POP POP POP POP JUMP JUMPDEST PUSH2 0x1D17 DUP3 PUSH2 0x86A JUMP JUMPDEST PUSH2 0x1D20 DUP2 PUSH2 0x2696 JUMP JUMPDEST PUSH2 0x963 DUP4 DUP4 PUSH2 0x2623 JUMP JUMPDEST PUSH2 0x1D32 PUSH2 0x28A4 JUMP JUMPDEST POP PUSH1 0x0 SWAP1 DUP2 MSTORE PUSH1 0x3 PUSH1 0x20 SWAP1 DUP2 MSTORE PUSH1 0x40 SWAP2 DUP3 SWAP1 KECCAK256 DUP3 MLOAD PUSH1 0x80 DUP2 ADD DUP5 MSTORE DUP2 SLOAD DUP2 MSTORE PUSH1 0x1 DUP3 ADD SLOAD PUSH1 0x1 PUSH1 0x1 PUSH1 0xA0 SHL SUB DUP2 AND SWAP4 DUP3 ADD SWAP4 SWAP1 SWAP4 MSTORE PUSH1 0x1 PUSH1 0xA0 SHL SWAP1 SWAP3 DIV PUSH1 0xFF AND ISZERO ISZERO SWAP3 DUP3 ADD SWAP3 SWAP1 SWAP3 MSTORE PUSH1 0x2 SWAP1 SWAP2 ADD SLOAD PUSH1 0x60 DUP3 ADD MSTORE SWAP1 JUMP JUMPDEST PUSH1 0x0 DUP4 PUSH2 0x1DCD JUMPI PUSH1 0x40 MLOAD PUSH3 0x461BCD PUSH1 0xE5 SHL DUP2 MSTORE PUSH1 0x20 PUSH1 0x4 DUP3 ADD MSTORE PUSH1 0x12 PUSH1 0x24 DUP3 ADD MSTORE PUSH18 0x139BC81A5B9C1D5D1CC81C1C9BDD9A591959 PUSH1 0x72 SHL PUSH1 0x44 DUP3 ADD MSTORE PUSH1 0x64 ADD PUSH2 0x668 JUMP JUMPDEST DUP2 PUSH2 0x1E10 JUMPI PUSH1 0x40 MLOAD PUSH3 0x461BCD PUSH1 0xE5 SHL DUP2 MSTORE PUSH1 0x20 PUSH1 0x4 DUP3 ADD MSTORE PUSH1 0x13 PUSH1 0x24 DUP3 ADD MSTORE PUSH19 0x139BC81BDD5D1C1D5D1CC81C1C9BDD9A591959 PUSH1 0x6A SHL PUSH1 0x44 DUP3 ADD MSTORE PUSH1 0x64 ADD PUSH2 0x668 JUMP JUMPDEST PUSH2 0x1E19 CALLER PUSH2 0x75E JUMP JUMPDEST PUSH2 0x1E35 JUMPI PUSH1 0x40 MLOAD PUSH3 0x461BCD PUSH1 0xE5 SHL DUP2 MSTORE PUSH1 0x4 ADD PUSH2 0x668 SWAP1 PUSH2 0x3123 JUMP JUMPDEST PUSH1 0x0 DUP1 JUMPDEST DUP6 DUP2 LT ISZERO PUSH2 0x1FFD JUMPI CALLDATASIZE DUP8 DUP8 DUP4 DUP2 DUP2 LT PUSH2 0x1E54 JUMPI PUSH2 0x1E54 PUSH2 0x2EAE JUMP JUMPDEST SWAP1 POP PUSH1 0x20 MUL DUP2 ADD SWAP1 PUSH2 0x1E66 SWAP2 SWAP1 PUSH2 0x31FB JUMP JUMPDEST DUP1 CALLDATALOAD PUSH1 0x0 SWAP1 DUP2 MSTORE PUSH1 0x2 PUSH1 0x20 SWAP1 DUP2 MSTORE PUSH1 0x40 DUP1 DUP4 KECCAK256 PUSH1 0x5 SWAP1 SWAP3 MSTORE SWAP1 SWAP2 KECCAK256 SLOAD SWAP2 SWAP3 POP SWAP1 PUSH1 0xFF AND PUSH2 0x1EE1 JUMPI PUSH1 0x40 MLOAD PUSH3 0x461BCD PUSH1 0xE5 SHL DUP2 MSTORE PUSH1 0x20 PUSH1 0x4 DUP3 ADD MSTORE PUSH1 0x23 PUSH1 0x24 DUP3 ADD MSTORE PUSH32 0x50726576696F7573207472616E73616374696F6E20646F6573206E6F74206578 PUSH1 0x44 DUP3 ADD MSTORE PUSH3 0x1A5CDD PUSH1 0xEA SHL PUSH1 0x64 DUP3 ADD MSTORE PUSH1 0x84 ADD PUSH2 0x668 JUMP JUMPDEST PUSH1 0x2 DUP2 ADD SLOAD PUSH1 0x20 DUP4 ADD CALLDATALOAD LT PUSH2 0x1F2F JUMPI PUSH1 0x40 MLOAD PUSH3 0x461BCD PUSH1 0xE5 SHL DUP2 MSTORE PUSH1 0x20 PUSH1 0x4 DUP3 ADD MSTORE PUSH1 0x14 PUSH1 0x24 DUP3 ADD MSTORE PUSH20 0x92DCECC2D8D2C840DEEAE8E0EAE840D2DCC8CAF PUSH1 0x63 SHL PUSH1 0x44 DUP3 ADD MSTORE PUSH1 0x64 ADD PUSH2 0x668 JUMP JUMPDEST PUSH1 0x0 DUP2 PUSH1 0x2 ADD DUP4 PUSH1 0x20 ADD CALLDATALOAD DUP2 SLOAD DUP2 LT PUSH2 0x1F4A JUMPI PUSH2 0x1F4A PUSH2 0x2EAE JUMP JUMPDEST SWAP1 PUSH1 0x0 MSTORE PUSH1 0x20 PUSH1 0x0 KECCAK256 SWAP1 PUSH1 0x3 MUL ADD SWAP1 POP DUP1 PUSH1 0x1 ADD PUSH1 0x14 SWAP1 SLOAD SWAP1 PUSH2 0x100 EXP SWAP1 DIV PUSH1 0xFF AND ISZERO PUSH2 0x1F89 JUMPI PUSH1 0x40 MLOAD PUSH3 0x461BCD PUSH1 0xE5 SHL DUP2 MSTORE PUSH1 0x4 ADD PUSH2 0x668 SWAP1 PUSH2 0x31AA JUMP JUMPDEST PUSH1 0x1 DUP2 ADD SLOAD PUSH1 0x1 PUSH1 0x1 PUSH1 0xA0 SHL SUB AND CALLER EQ PUSH2 0x1FB5 JUMPI PUSH1 0x40 MLOAD PUSH3 0x461BCD PUSH1 0xE5 SHL DUP2 MSTORE PUSH1 0x4 ADD PUSH2 0x668 SWAP1 PUSH2 0x317E JUMP JUMPDEST DUP1 PUSH1 0x2 ADD SLOAD TIMESTAMP LT ISZERO PUSH2 0x1FD9 JUMPI PUSH1 0x40 MLOAD PUSH3 0x461BCD PUSH1 0xE5 SHL DUP2 MSTORE PUSH1 0x4 ADD PUSH2 0x668 SWAP1 PUSH2 0x31D6 JUMP JUMPDEST DUP1 SLOAD PUSH2 0x1FE5 SWAP1 DUP7 PUSH2 0x2EDA JUMP JUMPDEST SWAP5 POP POP POP POP DUP1 DUP1 PUSH2 0x1FF5 SWAP1 PUSH2 0x2EED JUMP JUMPDEST SWAP2 POP POP PUSH2 0x1E39 JUMP JUMPDEST POP PUSH1 0x0 DUP1 JUMPDEST DUP5 DUP2 LT ISZERO PUSH2 0x2043 JUMPI DUP6 DUP6 DUP3 DUP2 DUP2 LT PUSH2 0x201C JUMPI PUSH2 0x201C PUSH2 0x2EAE JUMP JUMPDEST PUSH2 0x202F SWAP3 PUSH1 0x80 SWAP1 SWAP2 MUL ADD CALLDATALOAD SWAP1 POP DUP4 PUSH2 0x2EDA JUMP JUMPDEST SWAP2 POP DUP1 PUSH2 0x203B DUP2 PUSH2 0x2EED JUMP JUMPDEST SWAP2 POP POP PUSH2 0x2002 JUMP JUMPDEST POP DUP2 DUP2 GT ISZERO PUSH2 0x2094 JUMPI PUSH1 0x40 MLOAD PUSH3 0x461BCD PUSH1 0xE5 SHL DUP2 MSTORE PUSH1 0x20 PUSH1 0x4 DUP3 ADD DUP2 SWAP1 MSTORE PUSH1 0x24 DUP3 ADD MSTORE PUSH32 0x4F75747075742076616C7565206578636565647320696E7075742076616C7565 PUSH1 0x44 DUP3 ADD MSTORE PUSH1 0x64 ADD PUSH2 0x668 JUMP JUMPDEST PUSH1 0x0 JUMPDEST DUP7 DUP2 LT ISZERO PUSH2 0x2177 JUMPI CALLDATASIZE DUP9 DUP9 DUP4 DUP2 DUP2 LT PUSH2 0x20B2 JUMPI PUSH2 0x20B2 PUSH2 0x2EAE JUMP JUMPDEST SWAP1 POP PUSH1 0x20 MUL DUP2 ADD SWAP1 PUSH2 0x20C4 SWAP2 SWAP1 PUSH2 0x31FB JUMP JUMPDEST DUP1 CALLDATALOAD PUSH1 0x0 SWAP1 DUP2 MSTORE PUSH1 0x2 PUSH1 0x20 DUP2 DUP2 MSTORE PUSH1 0x40 DUP4 KECCAK256 SWAP2 DUP3 ADD DUP1 SLOAD SWAP5 SWAP6 POP SWAP2 SWAP4 SWAP1 DUP6 ADD CALLDATALOAD SWAP1 DUP2 LT PUSH2 0x20F3 JUMPI PUSH2 0x20F3 PUSH2 0x2EAE JUMP JUMPDEST PUSH1 0x0 SWAP2 DUP3 MSTORE PUSH1 0x20 SWAP2 DUP3 SWAP1 KECCAK256 PUSH1 0x1 PUSH1 0x3 SWAP1 SWAP3 MUL ADD SWAP1 DUP2 ADD DUP1 SLOAD PUSH1 0xFF PUSH1 0xA0 SHL NOT DUP2 AND PUSH1 0x1 PUSH1 0xA0 SHL OR SWAP1 SWAP2 SSTORE SWAP1 SWAP3 POP PUSH2 0x213A SWAP2 PUSH1 0x1 PUSH1 0x1 PUSH1 0xA0 SHL SUB SWAP1 SWAP2 AND SWAP1 DUP6 CALLDATALOAD SWAP1 DUP7 ADD CALLDATALOAD PUSH2 0x272D JUMP JUMPDEST PUSH1 0x6 SLOAD PUSH1 0x40 MLOAD SWAP1 DUP2 MSTORE DUP4 CALLDATALOAD SWAP1 PUSH1 0x0 DUP1 MLOAD PUSH1 0x20 PUSH2 0x359B DUP4 CODECOPY DUP2 MLOAD SWAP2 MSTORE SWAP1 PUSH1 0x20 ADD PUSH1 0x40 MLOAD DUP1 SWAP2 SUB SWAP1 LOG2 POP POP POP DUP1 DUP1 PUSH2 0x216F SWAP1 PUSH2 0x2EED JUMP JUMPDEST SWAP2 POP POP PUSH2 0x2097 JUMP JUMPDEST POP PUSH1 0x6 SLOAD PUSH1 0x40 MLOAD PUSH1 0x1 PUSH1 0x1 PUSH1 0x60 SHL SUB NOT CALLER PUSH1 0x60 SHL AND PUSH1 0x20 DUP3 ADD MSTORE TIMESTAMP PUSH1 0x34 DUP3 ADD MSTORE PUSH1 0x54 DUP2 ADD SWAP2 SWAP1 SWAP2 MSTORE PUSH1 0x0 SWAP1 PUSH1 0x74 ADD PUSH1 0x40 DUP1 MLOAD PUSH1 0x1F NOT DUP2 DUP5 SUB ADD DUP2 MSTORE SWAP2 SWAP1 MSTORE DUP1 MLOAD PUSH1 0x20 SWAP1 SWAP2 ADD KECCAK256 SWAP1 POP PUSH1 0x0 DUP8 PUSH1 0x1 PUSH1 0x1 PUSH1 0x40 SHL SUB DUP2 GT ISZERO PUSH2 0x21D9 JUMPI PUSH2 0x21D9 PUSH2 0x2B88 JUMP JUMPDEST PUSH1 0x40 MLOAD SWAP1 DUP1 DUP3 MSTORE DUP1 PUSH1 0x20 MUL PUSH1 0x20 ADD DUP3 ADD PUSH1 0x40 MSTORE DUP1 ISZERO PUSH2 0x222E JUMPI DUP2 PUSH1 0x20 ADD JUMPDEST PUSH2 0x221B PUSH1 0x40 MLOAD DUP1 PUSH1 0x60 ADD PUSH1 0x40 MSTORE DUP1 PUSH1 0x0 DUP2 MSTORE PUSH1 0x20 ADD PUSH1 0x0 DUP2 MSTORE PUSH1 0x20 ADD PUSH1 0x60 DUP2 MSTORE POP SWAP1 JUMP JUMPDEST DUP2 MSTORE PUSH1 0x20 ADD SWAP1 PUSH1 0x1 SWAP1 SUB SWAP1 DUP2 PUSH2 0x21F7 JUMPI SWAP1 POP JUMPDEST POP SWAP1 POP PUSH1 0x0 JUMPDEST DUP9 DUP2 LT ISZERO PUSH2 0x2299 JUMPI DUP10 DUP10 DUP3 DUP2 DUP2 LT PUSH2 0x224E JUMPI PUSH2 0x224E PUSH2 0x2EAE JUMP JUMPDEST SWAP1 POP PUSH1 0x20 MUL DUP2 ADD SWAP1 PUSH2 0x2260 SWAP2 SWAP1 PUSH2 0x31FB JUMP JUMPDEST PUSH2 0x2269 SWAP1 PUSH2 0x321B JUMP JUMPDEST DUP3 DUP3 DUP2 MLOAD DUP2 LT PUSH2 0x227B JUMPI PUSH2 0x227B PUSH2 0x2EAE JUMP JUMPDEST PUSH1 0x20 MUL PUSH1 0x20 ADD ADD DUP2 SWAP1 MSTORE POP DUP1 DUP1 PUSH2 0x2291 SWAP1 PUSH2 0x2EED JUMP JUMPDEST SWAP2 POP POP PUSH2 0x2234 JUMP JUMPDEST POP PUSH1 0x0 DUP7 PUSH1 0x1 PUSH1 0x1 PUSH1 0x40 SHL SUB DUP2 GT ISZERO PUSH2 0x22B4 JUMPI PUSH2 0x22B4 PUSH2 0x2B88 JUMP JUMPDEST PUSH1 0x40 MLOAD SWAP1 DUP1 DUP3 MSTORE DUP1 PUSH1 0x20 MUL PUSH1 0x20 ADD DUP3 ADD PUSH1 0x40 MSTORE DUP1 ISZERO PUSH2 0x22ED JUMPI DUP2 PUSH1 0x20 ADD JUMPDEST PUSH2 0x22DA PUSH2 0x28A4 JUMP JUMPDEST DUP2 MSTORE PUSH1 0x20 ADD SWAP1 PUSH1 0x1 SWAP1 SUB SWAP1 DUP2 PUSH2 0x22D2 JUMPI SWAP1 POP JUMPDEST POP SWAP1 POP PUSH1 0x0 JUMPDEST DUP8 DUP2 LT ISZERO PUSH2 0x24B0 JUMPI DUP9 DUP9 DUP3 DUP2 DUP2 LT PUSH2 0x230D JUMPI PUSH2 0x230D PUSH2 0x2EAE JUMP JUMPDEST SWAP1 POP PUSH1 0x80 MUL ADD DUP1 CALLDATASIZE SUB DUP2 ADD SWAP1 PUSH2 0x2323 SWAP2 SWAP1 PUSH2 0x32A3 JUMP JUMPDEST DUP3 DUP3 DUP2 MLOAD DUP2 LT PUSH2 0x2335 JUMPI PUSH2 0x2335 PUSH2 0x2EAE JUMP JUMPDEST PUSH1 0x20 MUL PUSH1 0x20 ADD ADD DUP2 SWAP1 MSTORE POP PUSH1 0x0 DUP5 DUP3 DUP12 DUP12 DUP6 DUP2 DUP2 LT PUSH2 0x2356 JUMPI PUSH2 0x2356 PUSH2 0x2EAE JUMP JUMPDEST PUSH1 0x40 DUP1 MLOAD PUSH1 0x20 DUP2 ADD SWAP7 SWAP1 SWAP7 MSTORE DUP6 ADD SWAP4 SWAP1 SWAP4 MSTORE POP PUSH1 0x80 SWAP2 DUP3 MUL ADD CALLDATALOAD PUSH1 0x60 DUP4 ADD MSTORE ADD PUSH1 0x40 MLOAD PUSH1 0x20 DUP2 DUP4 SUB SUB DUP2 MSTORE SWAP1 PUSH1 0x40 MSTORE DUP1 MLOAD SWAP1 PUSH1 0x20 ADD KECCAK256 PUSH1 0x0 SHR SWAP1 POP DUP10 DUP10 DUP4 DUP2 DUP2 LT PUSH2 0x23A3 JUMPI PUSH2 0x23A3 PUSH2 0x2EAE JUMP JUMPDEST SWAP1 POP PUSH1 0x80 MUL ADD PUSH1 0x3 PUSH1 0x0 DUP4 DUP2 MSTORE PUSH1 0x20 ADD SWAP1 DUP2 MSTORE PUSH1 0x20 ADD PUSH1 0x0 KECCAK256 DUP2 DUP2 PUSH2 0x23C8 SWAP2 SWAP1 PUSH2 0x3317 JUMP JUMPDEST SWAP1 POP POP PUSH1 0x4 PUSH1 0x0 DUP12 DUP12 DUP6 DUP2 DUP2 LT PUSH2 0x23E1 JUMPI PUSH2 0x23E1 PUSH2 0x2EAE JUMP JUMPDEST SWAP1 POP PUSH1 0x80 MUL ADD PUSH1 0x20 ADD PUSH1 0x20 DUP2 ADD SWAP1 PUSH2 0x23F9 SWAP2 SWAP1 PUSH2 0x295B JUMP JUMPDEST PUSH1 0x1 PUSH1 0x1 PUSH1 0xA0 SHL SUB AND DUP2 MSTORE PUSH1 0x20 DUP1 DUP3 ADD SWAP3 SWAP1 SWAP3 MSTORE PUSH1 0x40 ADD PUSH1 0x0 SWAP1 DUP2 KECCAK256 DUP1 SLOAD PUSH1 0x1 DUP2 ADD DUP3 SSTORE SWAP1 DUP3 MSTORE SWAP2 SWAP1 KECCAK256 ADD DUP2 SWAP1 SSTORE DUP10 DUP10 DUP4 DUP2 DUP2 LT PUSH2 0x2439 JUMPI PUSH2 0x2439 PUSH2 0x2EAE JUMP JUMPDEST SWAP1 POP PUSH1 0x80 MUL ADD PUSH1 0x20 ADD PUSH1 0x20 DUP2 ADD SWAP1 PUSH2 0x2451 SWAP2 SWAP1 PUSH2 0x295B JUMP JUMPDEST PUSH1 0x1 PUSH1 0x1 PUSH1 0xA0 SHL SUB AND DUP2 PUSH1 0x0 DUP1 MLOAD PUSH1 0x20 PUSH2 0x351B DUP4 CODECOPY DUP2 MLOAD SWAP2 MSTORE DUP13 DUP13 DUP7 DUP2 DUP2 LT PUSH2 0x247C JUMPI PUSH2 0x247C PUSH2 0x2EAE JUMP JUMPDEST SWAP1 POP PUSH1 0x80 MUL ADD PUSH1 0x0 ADD CALLDATALOAD PUSH1 0x40 MLOAD PUSH2 0x2495 SWAP2 DUP2 MSTORE PUSH1 0x20 ADD SWAP1 JUMP JUMPDEST PUSH1 0x40 MLOAD DUP1 SWAP2 SUB SWAP1 LOG3 POP DUP1 PUSH2 0x24A8 DUP2 PUSH2 0x2EED JUMP JUMPDEST SWAP2 POP POP PUSH2 0x22F3 JUMP JUMPDEST POP PUSH1 0x0 DUP4 DUP2 MSTORE PUSH1 0x2 PUSH1 0x20 MSTORE PUSH1 0x40 DUP2 KECCAK256 DUP5 DUP2 SSTORE TIMESTAMP PUSH1 0x3 DUP3 ADD SSTORE PUSH1 0x4 ADD DUP1 SLOAD PUSH1 0x1 PUSH1 0x1 PUSH1 0xA0 SHL SUB NOT AND CALLER OR SWAP1 SSTORE JUMPDEST DUP10 DUP2 LT ISZERO PUSH2 0x2550 JUMPI PUSH1 0x0 DUP5 DUP2 MSTORE PUSH1 0x2 PUSH1 0x20 MSTORE PUSH1 0x40 SWAP1 KECCAK256 PUSH1 0x1 ADD DUP12 DUP12 DUP4 DUP2 DUP2 LT PUSH2 0x2507 JUMPI PUSH2 0x2507 PUSH2 0x2EAE JUMP JUMPDEST SWAP1 POP PUSH1 0x20 MUL DUP2 ADD SWAP1 PUSH2 0x2519 SWAP2 SWAP1 PUSH2 0x31FB JUMP JUMPDEST DUP2 SLOAD PUSH1 0x1 DUP2 ADD DUP4 SSTORE PUSH1 0x0 SWAP3 DUP4 MSTORE PUSH1 0x20 SWAP1 SWAP3 KECCAK256 SWAP1 SWAP2 PUSH1 0x3 MUL ADD PUSH2 0x253B DUP3 DUP3 PUSH2 0x3375 JUMP JUMPDEST POP POP DUP1 DUP1 PUSH2 0x2548 SWAP1 PUSH2 0x2EED JUMP JUMPDEST SWAP2 POP POP PUSH2 0x24DC JUMP JUMPDEST POP PUSH1 0x0 JUMPDEST DUP8 DUP2 LT ISZERO PUSH2 0x25C3 JUMPI PUSH1 0x0 DUP5 DUP2 MSTORE PUSH1 0x2 PUSH1 0x20 DUP2 SWAP1 MSTORE PUSH1 0x40 SWAP1 SWAP2 KECCAK256 ADD DUP10 DUP10 DUP4 DUP2 DUP2 LT PUSH2 0x2580 JUMPI PUSH2 0x2580 PUSH2 0x2EAE JUMP JUMPDEST DUP4 SLOAD PUSH1 0x1 DUP2 ADD DUP6 SSTORE PUSH1 0x0 SWAP5 DUP6 MSTORE PUSH1 0x20 SWAP1 SWAP5 KECCAK256 PUSH1 0x80 SWAP1 SWAP2 MUL SWAP3 SWAP1 SWAP3 ADD SWAP3 PUSH1 0x3 MUL SWAP1 SWAP2 ADD SWAP1 POP PUSH2 0x25AE DUP3 DUP3 PUSH2 0x3317 JUMP JUMPDEST POP POP DUP1 DUP1 PUSH2 0x25BB SWAP1 PUSH2 0x2EED JUMP JUMPDEST SWAP2 POP POP PUSH2 0x2554 JUMP JUMPDEST POP PUSH1 0x0 DUP4 DUP2 MSTORE PUSH1 0x5 PUSH1 0x20 MSTORE PUSH1 0x40 DUP2 KECCAK256 DUP1 SLOAD PUSH1 0xFF NOT AND PUSH1 0x1 OR SWAP1 SSTORE PUSH1 0x6 DUP1 SLOAD SWAP2 PUSH2 0x25EB DUP4 PUSH2 0x2EED JUMP JUMPDEST SWAP1 SWAP2 SSTORE POP POP PUSH1 0x40 MLOAD DUP8 DUP2 MSTORE CALLER SWAP1 DUP5 SWAP1 PUSH1 0x0 DUP1 MLOAD PUSH1 0x20 PUSH2 0x357B DUP4 CODECOPY DUP2 MLOAD SWAP2 MSTORE SWAP1 PUSH1 0x20 ADD PUSH1 0x40 MLOAD DUP1 SWAP2 SUB SWAP1 LOG3 POP SWAP1 SWAP9 SWAP8 POP POP POP POP POP POP POP POP JUMP JUMPDEST PUSH1 0x0 PUSH2 0x262F DUP4 DUP4 PUSH2 0x175B JUMP JUMPDEST ISZERO PUSH2 0x268E JUMPI PUSH1 0x0 DUP4 DUP2 MSTORE PUSH1 0x20 DUP2 DUP2 MSTORE PUSH1 0x40 DUP1 DUP4 KECCAK256 PUSH1 0x1 PUSH1 0x1 PUSH1 0xA0 SHL SUB DUP7 AND DUP1 DUP6 MSTORE SWAP3 MSTORE DUP1 DUP4 KECCAK256 DUP1 SLOAD PUSH1 0xFF NOT AND SWAP1 SSTORE MLOAD CALLER SWAP3 DUP7 SWAP2 PUSH32 0xF6391F5C32D9C69D2A47EA670B442974B53935D1EDC7FD64EB21E047A839171B SWAP2 SWAP1 LOG4 POP PUSH1 0x1 PUSH2 0x5F7 JUMP JUMPDEST POP PUSH1 0x0 PUSH2 0x5F7 JUMP JUMPDEST PUSH2 0x26A0 DUP2 CALLER PUSH2 0x282D JUMP JUMPDEST POP JUMP JUMPDEST PUSH1 0x0 PUSH2 0x26AF DUP4 DUP4 PUSH2 0x175B JUMP JUMPDEST PUSH2 0x268E JUMPI PUSH1 0x0 DUP4 DUP2 MSTORE PUSH1 0x20 DUP2 DUP2 MSTORE PUSH1 0x40 DUP1 DUP4 KECCAK256 PUSH1 0x1 PUSH1 0x1 PUSH1 0xA0 SHL SUB DUP7 AND DUP5 MSTORE SWAP1 SWAP2 MSTORE SWAP1 KECCAK256 DUP1 SLOAD PUSH1 0xFF NOT AND PUSH1 0x1 OR SWAP1 SSTORE PUSH2 0x26E5 CALLER SWAP1 JUMP JUMPDEST PUSH1 0x1 PUSH1 0x1 PUSH1 0xA0 SHL SUB AND DUP3 PUSH1 0x1 PUSH1 0x1 PUSH1 0xA0 SHL SUB AND DUP5 PUSH32 0x2F8788117E7EFF1D82E926EC794901D17C78024A50270940304540A733656F0D PUSH1 0x40 MLOAD PUSH1 0x40 MLOAD DUP1 SWAP2 SUB SWAP1 LOG4 POP PUSH1 0x1 PUSH2 0x5F7 JUMP JUMPDEST PUSH1 0x1 PUSH1 0x1 PUSH1 0xA0 SHL SUB DUP4 AND PUSH1 0x0 SWAP1 DUP2 MSTORE PUSH1 0x4 PUSH1 0x20 SWAP1 DUP2 MSTORE PUSH1 0x40 DUP1 DUP4 KECCAK256 DUP2 MLOAD DUP1 DUP5 ADD DUP8 SWAP1 MSTORE DUP1 DUP4 ADD DUP7 SWAP1 MSTORE DUP3 MLOAD DUP1 DUP3 SUB DUP5 ADD DUP2 MSTORE PUSH1 0x60 SWAP1 SWAP2 ADD SWAP1 SWAP3 MSTORE DUP2 MLOAD SWAP2 SWAP1 SWAP3 ADD KECCAK256 SWAP1 SWAP2 JUMPDEST DUP3 SLOAD DUP2 LT ISZERO PUSH2 0x2825 JUMPI DUP2 DUP4 DUP3 DUP2 SLOAD DUP2 LT PUSH2 0x278D JUMPI PUSH2 0x278D PUSH2 0x2EAE JUMP JUMPDEST SWAP1 PUSH1 0x0 MSTORE PUSH1 0x20 PUSH1 0x0 KECCAK256 ADD SLOAD SUB PUSH2 0x2813 JUMPI DUP3 SLOAD DUP4 SWAP1 PUSH2 0x27AD SWAP1 PUSH1 0x1 SWAP1 PUSH2 0x3471 JUMP JUMPDEST DUP2 SLOAD DUP2 LT PUSH2 0x27BD JUMPI PUSH2 0x27BD PUSH2 0x2EAE JUMP JUMPDEST SWAP1 PUSH1 0x0 MSTORE PUSH1 0x20 PUSH1 0x0 KECCAK256 ADD SLOAD DUP4 DUP3 DUP2 SLOAD DUP2 LT PUSH2 0x27DA JUMPI PUSH2 0x27DA PUSH2 0x2EAE JUMP JUMPDEST SWAP1 PUSH1 0x0 MSTORE PUSH1 0x20 PUSH1 0x0 KECCAK256 ADD DUP2 SWAP1 SSTORE POP DUP3 DUP1 SLOAD DUP1 PUSH2 0x27F8 JUMPI PUSH2 0x27F8 PUSH2 0x3484 JUMP JUMPDEST PUSH1 0x1 SWAP1 SUB DUP2 DUP2 SWAP1 PUSH1 0x0 MSTORE PUSH1 0x20 PUSH1 0x0 KECCAK256 ADD PUSH1 0x0 SWAP1 SSTORE SWAP1 SSTORE PUSH2 0x2825 JUMP JUMPDEST DUP1 PUSH2 0x281D DUP2 PUSH2 0x2EED JUMP JUMPDEST SWAP2 POP POP PUSH2 0x2771 JUMP JUMPDEST POP POP POP POP POP POP JUMP JUMPDEST PUSH2 0x2837 DUP3 DUP3 PUSH2 0x175B JUMP JUMPDEST PUSH2 0x2866 JUMPI PUSH1 0x40 MLOAD PUSH4 0xE2517D3F PUSH1 0xE0 SHL DUP2 MSTORE PUSH1 0x1 PUSH1 0x1 PUSH1 0xA0 SHL SUB DUP3 AND PUSH1 0x4 DUP3 ADD MSTORE PUSH1 0x24 DUP2 ADD DUP4 SWAP1 MSTORE PUSH1 0x44 ADD PUSH2 0x668 JUMP JUMPDEST POP POP JUMP JUMPDEST POP DUP1 SLOAD PUSH2 0x2876 SWAP1 PUSH2 0x2E74 JUMP JUMPDEST PUSH1 0x0 DUP3 SSTORE DUP1 PUSH1 0x1F LT PUSH2 0x2886 JUMPI POP POP JUMP JUMPDEST PUSH1 0x1F ADD PUSH1 0x20 SWAP1 DIV SWAP1 PUSH1 0x0 MSTORE PUSH1 0x20 PUSH1 0x0 KECCAK256 SWAP1 DUP2 ADD SWAP1 PUSH2 0x26A0 SWAP2 SWAP1 PUSH2 0x28D7 JUMP JUMPDEST PUSH1 0x40 MLOAD DUP1 PUSH1 0x80 ADD PUSH1 0x40 MSTORE DUP1 PUSH1 0x0 DUP2 MSTORE PUSH1 0x20 ADD PUSH1 0x0 PUSH1 0x1 PUSH1 0x1 PUSH1 0xA0 SHL SUB AND DUP2 MSTORE PUSH1 0x20 ADD PUSH1 0x0 ISZERO ISZERO DUP2 MSTORE PUSH1 0x20 ADD PUSH1 0x0 DUP2 MSTORE POP SWAP1 JUMP JUMPDEST JUMPDEST DUP1 DUP3 GT ISZERO PUSH2 0x28EC JUMPI PUSH1 0x0 DUP2 SSTORE PUSH1 0x1 ADD PUSH2 0x28D8 JUMP JUMPDEST POP SWAP1 JUMP JUMPDEST PUSH1 0x0 PUSH1 0x20 DUP3 DUP5 SUB SLT ISZERO PUSH2 0x2902 JUMPI PUSH1 0x0 DUP1 REVERT JUMPDEST DUP2 CALLDATALOAD PUSH1 0x1 PUSH1 0x1 PUSH1 0xE0 SHL SUB NOT DUP2 AND DUP2 EQ PUSH2 0x863 JUMPI PUSH1 0x0 DUP1 REVERT JUMPDEST PUSH1 0x1 PUSH1 0x1 PUSH1 0xA0 SHL SUB DUP2 AND DUP2 EQ PUSH2 0x26A0 JUMPI PUSH1 0x0 DUP1 REVERT JUMPDEST PUSH1 0x0 DUP1 PUSH1 0x40 DUP4 DUP6 SUB SLT ISZERO PUSH2 0x2942 JUMPI PUSH1 0x0 DUP1 REVERT JUMPDEST DUP3 CALLDATALOAD PUSH2 0x294D DUP2 PUSH2 0x291A JUMP JUMPDEST SWAP5 PUSH1 0x20 SWAP4 SWAP1 SWAP4 ADD CALLDATALOAD SWAP4 POP POP POP JUMP JUMPDEST PUSH1 0x0 PUSH1 0x20 DUP3 DUP5 SUB SLT ISZERO PUSH2 0x296D JUMPI PUSH1 0x0 DUP1 REVERT JUMPDEST DUP2 CALLDATALOAD PUSH2 0x863 DUP2 PUSH2 0x291A JUMP JUMPDEST PUSH1 0x0 PUSH1 0x20 DUP3 DUP5 SUB SLT ISZERO PUSH2 0x298A JUMPI PUSH1 0x0 DUP1 REVERT JUMPDEST POP CALLDATALOAD SWAP2 SWAP1 POP JUMP JUMPDEST PUSH1 0x0 DUP2 MLOAD DUP1 DUP5 MSTORE PUSH1 0x0 JUMPDEST DUP2 DUP2 LT ISZERO PUSH2 0x29B7 JUMPI PUSH1 0x20 DUP2 DUP6 ADD DUP2 ADD MLOAD DUP7 DUP4 ADD DUP3 ADD MSTORE ADD PUSH2 0x299B JUMP JUMPDEST POP PUSH1 0x0 PUSH1 0x20 DUP3 DUP7 ADD ADD MSTORE PUSH1 0x20 PUSH1 0x1F NOT PUSH1 0x1F DUP4 ADD AND DUP6 ADD ADD SWAP2 POP POP SWAP3 SWAP2 POP POP JUMP JUMPDEST PUSH1 0x1 PUSH1 0x1 PUSH1 0xA0 SHL SUB DUP7 AND DUP2 MSTORE PUSH1 0xA0 PUSH1 0x20 DUP3 ADD DUP2 SWAP1 MSTORE PUSH1 0x0 SWAP1 PUSH2 0x29FB SWAP1 DUP4 ADD DUP8 PUSH2 0x2991 JUMP JUMPDEST PUSH1 0x40 DUP4 ADD SWAP6 SWAP1 SWAP6 MSTORE POP SWAP2 ISZERO ISZERO PUSH1 0x60 DUP4 ADD MSTORE PUSH1 0x80 SWAP1 SWAP2 ADD MSTORE SWAP3 SWAP2 POP POP JUMP JUMPDEST PUSH1 0x0 DUP1 PUSH1 0x40 DUP4 DUP6 SUB SLT ISZERO PUSH2 0x2A2B JUMPI PUSH1 0x0 DUP1 REVERT JUMPDEST DUP3 CALLDATALOAD SWAP2 POP PUSH1 0x20 DUP4 ADD CALLDATALOAD PUSH2 0x2A3D DUP2 PUSH2 0x291A JUMP JUMPDEST DUP1 SWAP2 POP POP SWAP3 POP SWAP3 SWAP1 POP JUMP JUMPDEST DUP1 MLOAD DUP3 MSTORE PUSH1 0x20 DUP1 DUP3 ADD MLOAD PUSH1 0x1 PUSH1 0x1 PUSH1 0xA0 SHL SUB AND SWAP1 DUP4 ADD MSTORE PUSH1 0x40 DUP1 DUP3 ADD MLOAD ISZERO ISZERO SWAP1 DUP4 ADD MSTORE PUSH1 0x60 SWAP1 DUP2 ADD MLOAD SWAP2 ADD MSTORE JUMP JUMPDEST PUSH1 0x0 DUP2 MLOAD DUP1 DUP5 MSTORE PUSH1 0x20 DUP1 DUP6 ADD SWAP5 POP DUP1 DUP5 ADD PUSH1 0x0 JUMPDEST DUP4 DUP2 LT ISZERO PUSH2 0x2AB0 JUMPI PUSH2 0x2A9D DUP8 DUP4 MLOAD PUSH2 0x2A48 JUMP JUMPDEST PUSH1 0x80 SWAP7 SWAP1 SWAP7 ADD SWAP6 SWAP1 DUP3 ADD SWAP1 PUSH1 0x1 ADD PUSH2 0x2A8A JUMP JUMPDEST POP SWAP5 SWAP6 SWAP5 POP POP POP POP POP JUMP JUMPDEST PUSH1 0x0 PUSH1 0x20 DUP1 DUP4 MSTORE PUSH1 0xC0 DUP4 ADD DUP5 MLOAD DUP3 DUP6 ADD MSTORE DUP2 DUP6 ADD MLOAD PUSH1 0x40 PUSH1 0xA0 DUP2 DUP8 ADD MSTORE DUP3 DUP3 MLOAD DUP1 DUP6 MSTORE PUSH1 0xE0 DUP9 ADD SWAP2 POP PUSH1 0xE0 DUP2 PUSH1 0x5 SHL DUP10 ADD ADD SWAP5 POP DUP6 DUP5 ADD SWAP4 POP PUSH1 0x0 JUMPDEST DUP2 DUP2 LT ISZERO PUSH2 0x2B41 JUMPI DUP9 DUP7 SUB PUSH1 0xDF NOT ADD DUP4 MSTORE DUP5 MLOAD DUP1 MLOAD DUP8 MSTORE DUP8 DUP2 ADD MLOAD DUP9 DUP9 ADD MSTORE DUP5 ADD MLOAD PUSH1 0x60 DUP6 DUP9 ADD DUP2 SWAP1 MSTORE PUSH2 0x2B2D DUP2 DUP10 ADD DUP4 PUSH2 0x2991 JUMP JUMPDEST SWAP8 POP POP POP SWAP4 DUP7 ADD SWAP4 SWAP2 DUP7 ADD SWAP2 PUSH1 0x1 ADD PUSH2 0x2AF7 JUMP JUMPDEST POP POP POP DUP7 ADD MLOAD DUP6 DUP4 SUB PUSH1 0x1F NOT ADD PUSH1 0x60 DUP8 ADD MSTORE SWAP3 POP PUSH2 0x2B61 SWAP1 POP DUP2 DUP4 PUSH2 0x2A76 JUMP JUMPDEST SWAP2 POP POP PUSH1 0x60 DUP5 ADD MLOAD PUSH1 0x80 DUP5 ADD MSTORE PUSH1 0x80 DUP5 ADD MLOAD PUSH2 0xC5B PUSH1 0xA0 DUP6 ADD DUP3 PUSH1 0x1 PUSH1 0x1 PUSH1 0xA0 SHL SUB AND SWAP1 MSTORE JUMP JUMPDEST PUSH4 0x4E487B71 PUSH1 0xE0 SHL PUSH1 0x0 MSTORE PUSH1 0x41 PUSH1 0x4 MSTORE PUSH1 0x24 PUSH1 0x0 REVERT JUMPDEST PUSH1 0x0 PUSH1 0x1 PUSH1 0x1 PUSH1 0x40 SHL SUB DUP1 DUP5 GT ISZERO PUSH2 0x2BB8 JUMPI PUSH2 0x2BB8 PUSH2 0x2B88 JUMP JUMPDEST PUSH1 0x40 MLOAD PUSH1 0x1F DUP6 ADD PUSH1 0x1F NOT SWAP1 DUP2 AND PUSH1 0x3F ADD AND DUP2 ADD SWAP1 DUP3 DUP3 GT DUP2 DUP4 LT OR ISZERO PUSH2 0x2BE0 JUMPI PUSH2 0x2BE0 PUSH2 0x2B88 JUMP JUMPDEST DUP2 PUSH1 0x40 MSTORE DUP1 SWAP4 POP DUP6 DUP2 MSTORE DUP7 DUP7 DUP7 ADD GT ISZERO PUSH2 0x2BF9 JUMPI PUSH1 0x0 DUP1 REVERT JUMPDEST DUP6 DUP6 PUSH1 0x20 DUP4 ADD CALLDATACOPY PUSH1 0x0 PUSH1 0x20 DUP8 DUP4 ADD ADD MSTORE POP POP POP SWAP4 SWAP3 POP POP POP JUMP JUMPDEST PUSH1 0x0 DUP3 PUSH1 0x1F DUP4 ADD SLT PUSH2 0x2C24 JUMPI PUSH1 0x0 DUP1 REVERT JUMPDEST PUSH2 0x863 DUP4 DUP4 CALLDATALOAD PUSH1 0x20 DUP6 ADD PUSH2 0x2B9E JUMP JUMPDEST PUSH1 0x0 DUP1 PUSH1 0x40 DUP4 DUP6 SUB SLT ISZERO PUSH2 0x2C46 JUMPI PUSH1 0x0 DUP1 REVERT JUMPDEST DUP3 CALLDATALOAD PUSH2 0x2C51 DUP2 PUSH2 0x291A JUMP JUMPDEST SWAP2 POP PUSH1 0x20 DUP4 ADD CALLDATALOAD PUSH1 0x1 PUSH1 0x1 PUSH1 0x40 SHL SUB DUP2 GT ISZERO PUSH2 0x2C6C JUMPI PUSH1 0x0 DUP1 REVERT JUMPDEST PUSH2 0x2C78 DUP6 DUP3 DUP7 ADD PUSH2 0x2C13 JUMP JUMPDEST SWAP2 POP POP SWAP3 POP SWAP3 SWAP1 POP JUMP JUMPDEST DUP1 ISZERO ISZERO DUP2 EQ PUSH2 0x26A0 JUMPI PUSH1 0x0 DUP1 REVERT JUMPDEST PUSH1 0x0 DUP1 PUSH1 0x0 PUSH1 0x60 DUP5 DUP7 SUB SLT ISZERO PUSH2 0x2CA5 JUMPI PUSH1 0x0 DUP1 REVERT JUMPDEST DUP4 CALLDATALOAD PUSH2 0x2CB0 DUP2 PUSH2 0x291A JUMP JUMPDEST SWAP3 POP PUSH1 0x20 DUP5 ADD CALLDATALOAD PUSH1 0x1 PUSH1 0x1 PUSH1 0x40 SHL SUB DUP2 GT ISZERO PUSH2 0x2CCB JUMPI PUSH1 0x0 DUP1 REVERT JUMPDEST PUSH2 0x2CD7 DUP7 DUP3 DUP8 ADD PUSH2 0x2C13 JUMP JUMPDEST SWAP3 POP POP PUSH1 0x40 DUP5 ADD CALLDATALOAD PUSH2 0x2CE8 DUP2 PUSH2 0x2C82 JUMP JUMPDEST DUP1 SWAP2 POP POP SWAP3 POP SWAP3 POP SWAP3 JUMP JUMPDEST PUSH1 0x20 DUP1 DUP3 MSTORE DUP3 MLOAD DUP3 DUP3 ADD DUP2 SWAP1 MSTORE PUSH1 0x0 SWAP2 SWAP1 DUP5 DUP3 ADD SWAP1 PUSH1 0x40 DUP6 ADD SWAP1 DUP5 JUMPDEST DUP2 DUP2 LT ISZERO PUSH2 0x2D2B JUMPI DUP4 MLOAD DUP4 MSTORE SWAP3 DUP5 ADD SWAP3 SWAP2 DUP5 ADD SWAP2 PUSH1 0x1 ADD PUSH2 0x2D0F JUMP JUMPDEST POP SWAP1 SWAP7 SWAP6 POP POP POP POP POP POP JUMP JUMPDEST PUSH1 0x0 DUP1 DUP4 PUSH1 0x1F DUP5 ADD SLT PUSH2 0x2D49 JUMPI PUSH1 0x0 DUP1 REVERT JUMPDEST POP DUP2 CALLDATALOAD PUSH1 0x1 PUSH1 0x1 PUSH1 0x40 SHL SUB DUP2 GT ISZERO PUSH2 0x2D60 JUMPI PUSH1 0x0 DUP1 REVERT JUMPDEST PUSH1 0x20 DUP4 ADD SWAP2 POP DUP4 PUSH1 0x20 DUP3 PUSH1 0x5 SHL DUP6 ADD ADD GT ISZERO PUSH2 0x2D7B JUMPI PUSH1 0x0 DUP1 REVERT JUMPDEST SWAP3 POP SWAP3 SWAP1 POP JUMP JUMPDEST PUSH1 0x0 DUP1 PUSH1 0x0 PUSH1 0x40 DUP5 DUP7 SUB SLT ISZERO PUSH2 0x2D97 JUMPI PUSH1 0x0 DUP1 REVERT JUMPDEST DUP4 CALLDATALOAD PUSH1 0x1 PUSH1 0x1 PUSH1 0x40 SHL SUB DUP2 GT ISZERO PUSH2 0x2DAD JUMPI PUSH1 0x0 DUP1 REVERT JUMPDEST PUSH2 0x2DB9 DUP7 DUP3 DUP8 ADD PUSH2 0x2D37 JUMP JUMPDEST SWAP1 SWAP8 SWAP1 SWAP7 POP PUSH1 0x20 SWAP6 SWAP1 SWAP6 ADD CALLDATALOAD SWAP5 SWAP4 POP POP POP POP JUMP JUMPDEST PUSH1 0x80 DUP2 ADD PUSH2 0x5F7 DUP3 DUP5 PUSH2 0x2A48 JUMP JUMPDEST PUSH1 0x0 DUP1 PUSH1 0x0 DUP1 PUSH1 0x40 DUP6 DUP8 SUB SLT ISZERO PUSH2 0x2DF1 JUMPI PUSH1 0x0 DUP1 REVERT JUMPDEST DUP5 CALLDATALOAD PUSH1 0x1 PUSH1 0x1 PUSH1 0x40 SHL SUB DUP1 DUP3 GT ISZERO PUSH2 0x2E08 JUMPI PUSH1 0x0 DUP1 REVERT JUMPDEST PUSH2 0x2E14 DUP9 DUP4 DUP10 ADD PUSH2 0x2D37 JUMP JUMPDEST SWAP1 SWAP7 POP SWAP5 POP PUSH1 0x20 DUP8 ADD CALLDATALOAD SWAP2 POP DUP1 DUP3 GT ISZERO PUSH2 0x2E2D JUMPI PUSH1 0x0 DUP1 REVERT JUMPDEST DUP2 DUP8 ADD SWAP2 POP DUP8 PUSH1 0x1F DUP4 ADD SLT PUSH2 0x2E41 JUMPI PUSH1 0x0 DUP1 REVERT JUMPDEST DUP2 CALLDATALOAD DUP2 DUP2 GT ISZERO PUSH2 0x2E50 JUMPI PUSH1 0x0 DUP1 REVERT JUMPDEST DUP9 PUSH1 0x20 DUP3 PUSH1 0x7 SHL DUP6 ADD ADD GT ISZERO PUSH2 0x2E65 JUMPI PUSH1 0x0 DUP1 REVERT JUMPDEST SWAP6 SWAP9 SWAP5 SWAP8 POP POP PUSH1 0x20 ADD SWAP5 POP POP POP JUMP JUMPDEST PUSH1 0x1 DUP2 DUP2 SHR SWAP1 DUP3 AND DUP1 PUSH2 0x2E88 JUMPI PUSH1 0x7F DUP3 AND SWAP2 POP JUMPDEST PUSH1 0x20 DUP3 LT DUP2 SUB PUSH2 0x2EA8 JUMPI PUSH4 0x4E487B71 PUSH1 0xE0 SHL PUSH1 0x0 MSTORE PUSH1 0x22 PUSH1 0x4 MSTORE PUSH1 0x24 PUSH1 0x0 REVERT JUMPDEST POP SWAP2 SWAP1 POP JUMP JUMPDEST PUSH4 0x4E487B71 PUSH1 0xE0 SHL PUSH1 0x0 MSTORE PUSH1 0x32 PUSH1 0x4 MSTORE PUSH1 0x24 PUSH1 0x0 REVERT JUMPDEST PUSH4 0x4E487B71 PUSH1 0xE0 SHL PUSH1 0x0 MSTORE PUSH1 0x11 PUSH1 0x4 MSTORE PUSH1 0x24 PUSH1 0x0 REVERT JUMPDEST DUP1 DUP3 ADD DUP1 DUP3 GT ISZERO PUSH2 0x5F7 JUMPI PUSH2 0x5F7 PUSH2 0x2EC4 JUMP JUMPDEST PUSH1 0x0 PUSH1 0x1 DUP3 ADD PUSH2 0x2EFF JUMPI PUSH2 0x2EFF PUSH2 0x2EC4 JUMP JUMPDEST POP PUSH1 0x1 ADD SWAP1 JUMP JUMPDEST PUSH1 0x60 SWAP5 SWAP1 SWAP5 SHL PUSH1 0x1 PUSH1 0x1 PUSH1 0x60 SHL SUB NOT AND DUP5 MSTORE PUSH1 0x14 DUP5 ADD SWAP3 SWAP1 SWAP3 MSTORE PUSH1 0x34 DUP4 ADD MSTORE PUSH1 0x54 DUP3 ADD MSTORE PUSH1 0x74 ADD SWAP1 JUMP JUMPDEST PUSH1 0x20 DUP1 DUP3 MSTORE PUSH1 0x21 SWAP1 DUP3 ADD MSTORE PUSH32 0x4163636F756E7420697320616C72656164792061207072696D6172792062616E PUSH1 0x40 DUP3 ADD MSTORE PUSH1 0x6B PUSH1 0xF8 SHL PUSH1 0x60 DUP3 ADD MSTORE PUSH1 0x80 ADD SWAP1 JUMP JUMPDEST PUSH1 0x1F DUP3 GT ISZERO PUSH2 0xC96 JUMPI PUSH1 0x0 DUP2 DUP2 MSTORE PUSH1 0x20 DUP2 KECCAK256 PUSH1 0x1F DUP6 ADD PUSH1 0x5 SHR DUP2 ADD PUSH1 0x20 DUP7 LT ISZERO PUSH2 0x2F98 JUMPI POP DUP1 JUMPDEST PUSH1 0x1F DUP6 ADD PUSH1 0x5 SHR DUP3 ADD SWAP2 POP JUMPDEST DUP2 DUP2 LT ISZERO PUSH2 0x2825 JUMPI DUP3 DUP2 SSTORE PUSH1 0x1 ADD PUSH2 0x2FA4 JUMP JUMPDEST PUSH1 0x0 NOT PUSH1 0x3 DUP4 SWAP1 SHL SHR NOT AND PUSH1 0x1 SWAP2 SWAP1 SWAP2 SHL OR SWAP1 JUMP JUMPDEST DUP2 MLOAD PUSH1 0x1 PUSH1 0x1 PUSH1 0x40 SHL SUB DUP2 GT ISZERO PUSH2 0x2FE5 JUMPI PUSH2 0x2FE5 PUSH2 0x2B88 JUMP JUMPDEST PUSH2 0x2FF9 DUP2 PUSH2 0x2FF3 DUP5 SLOAD PUSH2 0x2E74 JUMP JUMPDEST DUP5 PUSH2 0x2F71 JUMP JUMPDEST PUSH1 0x20 DUP1 PUSH1 0x1F DUP4 GT PUSH1 0x1 DUP2 EQ PUSH2 0x3028 JUMPI PUSH1 0x0 DUP5 ISZERO PUSH2 0x3016 JUMPI POP DUP6 DUP4 ADD MLOAD JUMPDEST PUSH2 0x3020 DUP6 DUP3 PUSH2 0x2FB7 JUMP JUMPDEST DUP7 SSTORE POP PUSH2 0x2825 JUMP JUMPDEST PUSH1 0x0 DUP6 DUP2 MSTORE PUSH1 0x20 DUP2 KECCAK256 PUSH1 0x1F NOT DUP7 AND SWAP2 JUMPDEST DUP3 DUP2 LT ISZERO PUSH2 0x3057 JUMPI DUP9 DUP7 ADD MLOAD DUP3 SSTORE SWAP5 DUP5 ADD SWAP5 PUSH1 0x1 SWAP1 SWAP2 ADD SWAP1 DUP5 ADD PUSH2 0x3038 JUMP JUMPDEST POP DUP6 DUP3 LT ISZERO PUSH2 0x3075 JUMPI DUP8 DUP6 ADD MLOAD PUSH1 0x0 NOT PUSH1 0x3 DUP9 SWAP1 SHL PUSH1 0xF8 AND SHR NOT AND DUP2 SSTORE JUMPDEST POP POP POP POP POP PUSH1 0x1 SWAP1 DUP2 SHL ADD SWAP1 SSTORE POP JUMP JUMPDEST PUSH1 0x20 DUP2 MSTORE PUSH1 0x0 PUSH2 0x863 PUSH1 0x20 DUP4 ADD DUP5 PUSH2 0x2991 JUMP JUMPDEST PUSH1 0x20 DUP1 DUP3 MSTORE PUSH1 0x28 SWAP1 DUP3 ADD MSTORE PUSH32 0x4163636F756E7420616C72656164792068617320757365722F656E7465727072 PUSH1 0x40 DUP3 ADD MSTORE PUSH8 0x69736520726F6C65 PUSH1 0xC0 SHL PUSH1 0x60 DUP3 ADD MSTORE PUSH1 0x80 ADD SWAP1 JUMP JUMPDEST PUSH1 0x20 DUP1 DUP3 MSTORE PUSH1 0x23 SWAP1 DUP3 ADD MSTORE PUSH32 0x4163636F756E7420697320616C72656164792061207365636F6E646172792062 PUSH1 0x40 DUP3 ADD MSTORE PUSH3 0x616E6B PUSH1 0xE8 SHL PUSH1 0x60 DUP3 ADD MSTORE PUSH1 0x80 ADD SWAP1 JUMP JUMPDEST PUSH1 0x20 DUP1 DUP3 MSTORE PUSH1 0x1D SWAP1 DUP3 ADD MSTORE PUSH32 0x53656E646572206D757374206861766520612076616C696420726F6C65000000 PUSH1 0x40 DUP3 ADD MSTORE PUSH1 0x60 ADD SWAP1 JUMP JUMPDEST PUSH1 0x40 DUP2 MSTORE PUSH1 0x0 PUSH2 0x316D PUSH1 0x40 DUP4 ADD DUP6 PUSH2 0x2991 JUMP JUMPDEST SWAP1 POP DUP3 ISZERO ISZERO PUSH1 0x20 DUP4 ADD MSTORE SWAP4 SWAP3 POP POP POP JUMP JUMPDEST PUSH1 0x20 DUP1 DUP3 MSTORE PUSH1 0x12 SWAP1 DUP3 ADD MSTORE PUSH18 0x2737BA103A3432902AAA2C279037BBB732B9 PUSH1 0x71 SHL PUSH1 0x40 DUP3 ADD MSTORE PUSH1 0x60 ADD SWAP1 JUMP JUMPDEST PUSH1 0x20 DUP1 DUP3 MSTORE PUSH1 0x12 SWAP1 DUP3 ADD MSTORE PUSH18 0x15551613C8185B1C9958591E481CDC195B9D PUSH1 0x72 SHL PUSH1 0x40 DUP3 ADD MSTORE PUSH1 0x60 ADD SWAP1 JUMP JUMPDEST PUSH1 0x20 DUP1 DUP3 MSTORE PUSH1 0xB SWAP1 DUP3 ADD MSTORE PUSH11 0x15551613C81B1BD8DAD959 PUSH1 0xAA SHL PUSH1 0x40 DUP3 ADD MSTORE PUSH1 0x60 ADD SWAP1 JUMP JUMPDEST PUSH1 0x0 DUP3 CALLDATALOAD PUSH1 0x5E NOT DUP4 CALLDATASIZE SUB ADD DUP2 SLT PUSH2 0x3211 JUMPI PUSH1 0x0 DUP1 REVERT JUMPDEST SWAP2 SWAP1 SWAP2 ADD SWAP3 SWAP2 POP POP JUMP JUMPDEST PUSH1 0x0 PUSH1 0x60 DUP3 CALLDATASIZE SUB SLT ISZERO PUSH2 0x322D JUMPI PUSH1 0x0 DUP1 REVERT JUMPDEST PUSH1 0x40 MLOAD PUSH1 0x60 DUP2 ADD PUSH1 0x1 PUSH1 0x1 PUSH1 0x40 SHL SUB DUP1 DUP3 GT DUP4 DUP4 LT OR ISZERO PUSH2 0x3250 JUMPI PUSH2 0x3250 PUSH2 0x2B88 JUMP JUMPDEST DUP2 PUSH1 0x40 MSTORE DUP5 CALLDATALOAD DUP4 MSTORE PUSH1 0x20 DUP6 ADD CALLDATALOAD PUSH1 0x20 DUP5 ADD MSTORE PUSH1 0x40 DUP6 ADD CALLDATALOAD SWAP2 POP DUP1 DUP3 GT ISZERO PUSH2 0x3276 JUMPI PUSH1 0x0 DUP1 REVERT JUMPDEST POP DUP4 ADD CALLDATASIZE PUSH1 0x1F DUP3 ADD SLT PUSH2 0x3288 JUMPI PUSH1 0x0 DUP1 REVERT JUMPDEST PUSH2 0x3297 CALLDATASIZE DUP3 CALLDATALOAD PUSH1 0x20 DUP5 ADD PUSH2 0x2B9E JUMP JUMPDEST PUSH1 0x40 DUP4 ADD MSTORE POP SWAP3 SWAP2 POP POP JUMP JUMPDEST PUSH1 0x0 PUSH1 0x80 DUP3 DUP5 SUB SLT ISZERO PUSH2 0x32B5 JUMPI PUSH1 0x0 DUP1 REVERT JUMPDEST PUSH1 0x40 MLOAD PUSH1 0x80 DUP2 ADD PUSH1 0x1 PUSH1 0x1 PUSH1 0x40 SHL SUB DUP2 GT DUP3 DUP3 LT OR ISZERO PUSH2 0x32D7 JUMPI PUSH2 0x32D7 PUSH2 0x2B88 JUMP JUMPDEST PUSH1 0x40 MSTORE DUP3 CALLDATALOAD DUP2 MSTORE PUSH1 0x20 DUP4 ADD CALLDATALOAD PUSH2 0x32EC DUP2 PUSH2 0x291A JUMP JUMPDEST PUSH1 0x20 DUP3 ADD MSTORE PUSH1 0x40 DUP4 ADD CALLDATALOAD PUSH2 0x32FF DUP2 PUSH2 0x2C82 JUMP JUMPDEST PUSH1 0x40 DUP3 ADD MSTORE PUSH1 0x60 SWAP3 DUP4 ADD CALLDATALOAD SWAP3 DUP2 ADD SWAP3 SWAP1 SWAP3 MSTORE POP SWAP2 SWAP1 POP JUMP JUMPDEST DUP2 CALLDATALOAD DUP2 SSTORE PUSH1 0x1 DUP2 ADD PUSH1 0x20 DUP4 ADD CALLDATALOAD PUSH2 0x332D DUP2 PUSH2 0x291A JUMP JUMPDEST DUP2 SLOAD PUSH1 0x40 DUP6 ADD CALLDATALOAD PUSH2 0x333D DUP2 PUSH2 0x2C82 JUMP JUMPDEST PUSH1 0xFF PUSH1 0xA0 SHL SWAP1 ISZERO ISZERO PUSH1 0xA0 SHL AND PUSH1 0x1 PUSH1 0x1 PUSH1 0xA0 SHL SUB SWAP3 SWAP1 SWAP3 AND PUSH1 0x1 PUSH1 0x1 PUSH1 0xA8 SHL SUB NOT SWAP2 SWAP1 SWAP2 AND OR OR SWAP1 SSTORE PUSH1 0x60 SWAP2 SWAP1 SWAP2 ADD CALLDATALOAD PUSH1 0x2 SWAP1 SWAP2 ADD SSTORE JUMP JUMPDEST DUP2 CALLDATALOAD DUP2 SSTORE PUSH1 0x1 PUSH1 0x20 DUP1 DUP5 ADD CALLDATALOAD DUP3 DUP5 ADD SSTORE PUSH1 0x2 DUP4 ADD PUSH1 0x40 DUP6 ADD CALLDATALOAD PUSH1 0x1E NOT DUP7 CALLDATASIZE SUB ADD DUP2 SLT PUSH2 0x33A0 JUMPI PUSH1 0x0 DUP1 REVERT JUMPDEST DUP6 ADD DUP1 CALLDATALOAD PUSH1 0x1 PUSH1 0x1 PUSH1 0x40 SHL SUB DUP2 GT ISZERO PUSH2 0x33B8 JUMPI PUSH1 0x0 DUP1 REVERT JUMPDEST DUP1 CALLDATASIZE SUB DUP5 DUP4 ADD SGT ISZERO PUSH2 0x33C9 JUMPI PUSH1 0x0 DUP1 REVERT JUMPDEST PUSH2 0x33DD DUP2 PUSH2 0x33D7 DUP6 SLOAD PUSH2 0x2E74 JUMP JUMPDEST DUP6 PUSH2 0x2F71 JUMP JUMPDEST PUSH1 0x0 PUSH1 0x1F DUP3 GT PUSH1 0x1 DUP2 EQ PUSH2 0x340D JUMPI PUSH1 0x0 DUP4 ISZERO PUSH2 0x33FB JUMPI POP DUP4 DUP3 ADD DUP7 ADD CALLDATALOAD JUMPDEST PUSH2 0x3405 DUP5 DUP3 PUSH2 0x2FB7 JUMP JUMPDEST DUP7 SSTORE POP PUSH2 0x3466 JUMP JUMPDEST PUSH1 0x0 DUP6 DUP2 MSTORE PUSH1 0x20 SWAP1 KECCAK256 PUSH1 0x1F NOT DUP5 AND SWAP1 DUP4 JUMPDEST DUP3 DUP2 LT ISZERO PUSH2 0x343D JUMPI DUP7 DUP6 ADD DUP10 ADD CALLDATALOAD DUP3 SSTORE SWAP4 DUP9 ADD SWAP4 SWAP1 DUP10 ADD SWAP1 DUP9 ADD PUSH2 0x341E JUMP JUMPDEST POP DUP5 DUP3 LT ISZERO PUSH2 0x345C JUMPI PUSH1 0x0 NOT PUSH1 0xF8 DUP7 PUSH1 0x3 SHL AND SHR NOT DUP9 DUP6 DUP9 ADD ADD CALLDATALOAD AND DUP2 SSTORE JUMPDEST POP POP DUP7 DUP4 DUP9 SHL ADD DUP6 SSTORE JUMPDEST POP POP POP POP POP POP POP POP POP JUMP JUMPDEST DUP2 DUP2 SUB DUP2 DUP2 GT ISZERO PUSH2 0x5F7 JUMPI PUSH2 0x5F7 PUSH2 0x2EC4 JUMP JUMPDEST PUSH4 0x4E487B71 PUSH1 0xE0 SHL PUSH1 0x0 MSTORE PUSH1 0x31 PUSH1 0x4 MSTORE PUSH1 0x24 PUSH1 0x0 REVERT INVALID SWAP3 MULMOD SWAP5 0xFC EXTCODESIZE INVALID 0x28 0x2F EXTCODEHASH KECCAK256 0xCD 0xCC CALL 0xB7 0xC5 0xE4 PUSH13 0x63D963E822D98EFFF90ABD41C1 0x2E 0x21 SWAP9 DUP11 0xD2 0x49 LOG3 0xA5 PUSH25 0xF3CA7B7F03DA9FFDB25C0F9BF3684A5B8AAC97D04FC81C2107 ORIGIN 0xD3 0xB4 AND 0xB1 0xE9 PC SGT PUSH27 0xA50D8C4EBE23BC919D27A2C40D6DB677D85D5BFE33C83020B5F7AC SWAP8 DUP15 0x5D PUSH2 0x99DE MOD BLOCKHASH EQ GT SWAP7 0xD STATICCALL DUP2 0xD2 0xF7 PUSH3 0x655F62 MOD 0xBD 0xC6 SAR CHAINID 0xFC NOT 0xE6 0xD 0xE MSTORE8 KECCAK256 LT 0x21 PUSH18 0x6A89723FE8A67E0588C5489401E7FAEED537 SWAP15 MSTORE ADDMOD 0x27 0x28 PUSH10 0xAC14823911F2DA1B49F0 GASLIMIT LOG0 SWAP3 SWAP11 PUSH1 0xB8 0xC1 CALLCODE 0xA7 0xFC DUP13 MOD 0xC7 0x28 0x4C LOG3 0xE8 0xAB 0x4E NOT GASPRICE ADDMOD 0xC8 OR SWAP13 INVALID 0xEA PUSH17 0xBFBADFC00A9B19F8CC0D49AB2A2B6854D1 SHL LOG2 EQ SWAP13 PUSH25 0x8F659E83ACFD27D176B6EBB21E0182C0E43DF5818E0D632867 0xE1 0xEB SELFBALANCE 0xC3 DUP4 0xC5 DUP14 0x22 SLT SDIV 0xFC 0xE3 MUL SLT SWAP14 MSTORE 0xC4 0x26 0xAC SHL DUP12 0xB3 PUSH8 0x45C8D2212568F7 DELEGATECALL SIGNEXTEND 0x49 DUP13 SLOAD 0x24 0xC5 PUSH30 0xC5691C22A1A2646970667358221220A9ABADB9985B73DAED21B32D48B40C PUSH9 0x97633FB42B0161639E 0xC0 0x1F CODECOPY PUSH30 0x18C9A964736F6C6343000814003332D3B416B1E958137AA50D8C4EBE23BC SWAP2 SWAP14 0x27 LOG2 0xC4 0xD PUSH14 0xB677D85D5BFE33C8300000000000 "},"methodIdentifiers":{"DEFAULT_ADMIN_ROLE()":"a217fddf","ENTERPRISE_ROLE()":"68dd17a5","MAX_SUPPLY()":"32cb6b0c","PRIMARY_BANK_ROLE()":"e206ba50","REGULATOR_ROLE()":"144bf589","SECONDARY_BANK_ROLE()":"c5fbb610","USER_ROLE()":"13119161","VALIDATOR_ROLE()":"c49baebe","addressUTXOs(address,uint256)":"8001cfe5","assignEnterprise(address,string)":"7304c588","assignRegulator(address,string)":"cf850c8d","assignSecondaryBank(address,string)":"5cead0e9","assignUser(address,string)":"658a4823","convertAccountToUTXO(uint256)":"8805ce35","convertUTXOToAccount(uint256[],uint256)":"d3138255","createTransaction((uint256,uint256,bytes)[],(uint256,address,bool,uint256)[])":"e0b99a2d","getAddressBalance(address)":"35046722","getAddressUTXOs(address)":"a43ef956","getRoleAdmin(bytes32)":"248a9ca3","getRoleLevel(address)":"c8aee754","getTransaction(uint256)":"33ea3dc8","getUTXODetails(uint256)":"d980d735","grantRole(bytes32,address)":"2f2ff15d","hasRole(bytes32,address)":"91d14854","hasValidRole(address)":"217b8ee9","mint(address,uint256)":"40c10f19","renounceRole(bytes32,address)":"36568abe","revokeRole(address,bytes32)":"208dd1ff","revokeRole(bytes32,address)":"d547741f","roleInfo(address)":"24f13320","supportsInterface(bytes4)":"01ffc9a7","totalSupply()":"18160ddd","transactions(uint256)":"9ace38c2","txCounter()":"74f079b8","txIdExists(uint256)":"3409d8f6","updateRoleInfo(address,string,bool)":"9859199d","utxos(uint256)":"81591387","validatePermission(address,uint256)":"7c0f8882"}}}}}