{"contracts/CDBCMain.sol":{"CDBCMain":{"abi":[{"inputs":[{"internalType":"address","name":"_accessControlAddr","type":"address"},{"internalType":"address","name":"_utxoAddr","type":"address"},{"internalType":"address","name":"_regulatoryAddr","type":"address"},{"internalType":"address","name":"_consensusAddr","type":"address"}],"stateMutability":"nonpayable","type":"constructor"},{"anonymous":false,"inputs":[{"indexed":false,"internalType":"address","name":"accessControl","type":"address"},{"indexed":false,"internalType":"address","name":"utxo","type":"address"},{"indexed":false,"internalType":"address","name":"regulatory","type":"address"},{"indexed":false,"internalType":"address","name":"consensus","type":"address"}],"name":"ContractsDeployed","type":"event"},{"inputs":[],"name":"accessControlAddr","outputs":[{"internalType":"address","name":"","type":"address"}],"stateMutability":"view","type":"function"},{"inputs":[],"name":"consensusAddr","outputs":[{"internalType":"address","name":"","type":"address"}],"stateMutability":"view","type":"function"},{"inputs":[],"name":"getAccessControl","outputs":[{"internalType":"contract ICDBCAccessControl","name":"","type":"address"}],"stateMutability":"view","type":"function"},{"inputs":[],"name":"getConsensus","outputs":[{"internalType":"contract ICDBCConsensus","name":"","type":"address"}],"stateMutability":"view","type":"function"},{"inputs":[],"name":"getRegulatory","outputs":[{"internalType":"contract ICDBCRegulatory","name":"","type":"address"}],"stateMutability":"view","type":"function"},{"inputs":[],"name":"getUTXO","outputs":[{"internalType":"contract ICDBCUTXO","name":"","type":"address"}],"stateMutability":"view","type":"function"},{"inputs":[],"name":"regulatoryAddr","outputs":[{"internalType":"address","name":"","type":"address"}],"stateMutability":"view","type":"function"},{"inputs":[{"internalType":"address","name":"newAddr","type":"address"}],"name":"updateAccessControlAddr","outputs":[],"stateMutability":"nonpayable","type":"function"},{"inputs":[{"internalType":"address","name":"newAddr","type":"address"}],"name":"updateConsensusAddr","outputs":[],"stateMutability":"nonpayable","type":"function"},{"inputs":[{"internalType":"address","name":"newAddr","type":"address"}],"name":"updateRegulatoryAddr","outputs":[],"stateMutability":"nonpayable","type":"function"},{"inputs":[{"internalType":"address","name":"newAddr","type":"address"}],"name":"updateUTXOAddr","outputs":[],"stateMutability":"nonpayable","type":"function"},{"inputs":[],"name":"utxoAddr","outputs":[{"internalType":"address","name":"","type":"address"}],"stateMutability":"view","type":"function"}],"evm":{"bytecode":{"linkReferences":{},"object":"608060405234801561001057600080fd5b506040516104d13803806104d183398101604081905261002f916100e9565b600080546001600160a01b038681166001600160a01b031992831681179093556001805487831690841681179091556002805487841690851681179091556003805493871693909416831790935560408051948552602085019190915283019190915260608201527f4b75aa1a13a160f48feea5d6d4f23760de2ae3e26f90d390b095aa4faa4854859060800160405180910390a15050505061013d565b80516001600160a01b03811681146100e457600080fd5b919050565b600080600080608085870312156100ff57600080fd5b610108856100cd565b9350610116602086016100cd565b9250610124604086016100cd565b9150610132606086016100cd565b905092959194509250565b6103858061014c6000396000f3fe608060405234801561001057600080fd5b50600436106100a45760003560e01c8063017aeae7146100a9578063179e740b146100be57806350509859146100e75780637c9cc57d146100fa57806387c6291b1461010d5780639cb506b614610120578063a95d217d14610133578063cd6feb4b14610146578063d27d284114610159578063ed8f04211461016c578063fae9c8d91461017d578063fc1dad811461018e575b600080fd5b6100bc6100b73660046102d8565b61019f565b005b6003546001600160a01b03165b6040516001600160a01b03909116815260200160405180910390f35b6100bc6100f53660046102d8565b6101f4565b6100bc6101083660046102d8565b610240565b6003546100cb906001600160a01b031681565b6001546100cb906001600160a01b031681565b6002546100cb906001600160a01b031681565b6000546100cb906001600160a01b031681565b6100bc6101673660046102d8565b61028c565b6002546001600160a01b03166100cb565b6001546001600160a01b03166100cb565b6000546001600160a01b03166100cb565b6000546001600160a01b031633146101d25760405162461bcd60e51b81526004016101c990610308565b60405180910390fd5b600080546001600160a01b0319166001600160a01b0392909216919091179055565b6000546001600160a01b0316331461021e5760405162461bcd60e51b81526004016101c990610308565b600180546001600160a01b0319166001600160a01b0392909216919091179055565b6000546001600160a01b0316331461026a5760405162461bcd60e51b81526004016101c990610308565b600380546001600160a01b0319166001600160a01b0392909216919091179055565b6000546001600160a01b031633146102b65760405162461bcd60e51b81526004016101c990610308565b600280546001600160a01b0319166001600160a01b0392909216919091179055565b6000602082840312156102ea57600080fd5b81356001600160a01b038116811461030157600080fd5b9392505050565b60208082526027908201527f4f6e6c792061636365737320636f6e74726f6c20636f6e74726163742063616e6040820152662075706461746560c81b60608201526080019056fea2646970667358221220745fab1f80fc957293134afb5035a37dce1abd636a4d7b509970321627cbb0a064736f6c63430008140033","opcodes":"PUSH1 0x80 PUSH1 0x40 MSTORE CALLVALUE DUP1 ISZERO PUSH2 0x10 JUMPI PUSH1 0x0 DUP1 REVERT JUMPDEST POP PUSH1 0x40 MLOAD PUSH2 0x4D1 CODESIZE SUB DUP1 PUSH2 0x4D1 DUP4 CODECOPY DUP2 ADD PUSH1 0x40 DUP2 SWAP1 MSTORE PUSH2 0x2F SWAP2 PUSH2 0xE9 JUMP JUMPDEST PUSH1 0x0 DUP1 SLOAD PUSH1 0x1 PUSH1 0x1 PUSH1 0xA0 SHL SUB DUP7 DUP2 AND PUSH1 0x1 PUSH1 0x1 PUSH1 0xA0 SHL SUB NOT SWAP3 DUP4 AND DUP2 OR SWAP1 SWAP4 SSTORE PUSH1 0x1 DUP1 SLOAD DUP8 DUP4 AND SWAP1 DUP5 AND DUP2 OR SWAP1 SWAP2 SSTORE PUSH1 0x2 DUP1 SLOAD DUP8 DUP5 AND SWAP1 DUP6 AND DUP2 OR SWAP1 SWAP2 SSTORE PUSH1 0x3 DUP1 SLOAD SWAP4 DUP8 AND SWAP4 SWAP1 SWAP5 AND DUP4 OR SWAP1 SWAP4 SSTORE PUSH1 0x40 DUP1 MLOAD SWAP5 DUP6 MSTORE PUSH1 0x20 DUP6 ADD SWAP2 SWAP1 SWAP2 MSTORE DUP4 ADD SWAP2 SWAP1 SWAP2 MSTORE PUSH1 0x60 DUP3 ADD MSTORE PUSH32 0x4B75AA1A13A160F48FEEA5D6D4F23760DE2AE3E26F90D390B095AA4FAA485485 SWAP1 PUSH1 0x80 ADD PUSH1 0x40 MLOAD DUP1 SWAP2 SUB SWAP1 LOG1 POP POP POP POP PUSH2 0x13D JUMP JUMPDEST DUP1 MLOAD PUSH1 0x1 PUSH1 0x1 PUSH1 0xA0 SHL SUB DUP2 AND DUP2 EQ PUSH2 0xE4 JUMPI PUSH1 0x0 DUP1 REVERT JUMPDEST SWAP2 SWAP1 POP JUMP JUMPDEST PUSH1 0x0 DUP1 PUSH1 0x0 DUP1 PUSH1 0x80 DUP6 DUP8 SUB SLT ISZERO PUSH2 0xFF JUMPI PUSH1 0x0 DUP1 REVERT JUMPDEST PUSH2 0x108 DUP6 PUSH2 0xCD JUMP JUMPDEST SWAP4 POP PUSH2 0x116 PUSH1 0x20 DUP7 ADD PUSH2 0xCD JUMP JUMPDEST SWAP3 POP PUSH2 0x124 PUSH1 0x40 DUP7 ADD PUSH2 0xCD JUMP JUMPDEST SWAP2 POP PUSH2 0x132 PUSH1 0x60 DUP7 ADD PUSH2 0xCD JUMP JUMPDEST SWAP1 POP SWAP3 SWAP6 SWAP2 SWAP5 POP SWAP3 POP JUMP JUMPDEST PUSH2 0x385 DUP1 PUSH2 0x14C PUSH1 0x0 CODECOPY PUSH1 0x0 RETURN INVALID PUSH1 0x80 PUSH1 0x40 MSTORE CALLVALUE DUP1 ISZERO PUSH2 0x10 JUMPI PUSH1 0x0 DUP1 REVERT JUMPDEST POP PUSH1 0x4 CALLDATASIZE LT PUSH2 0xA4 JUMPI PUSH1 0x0 CALLDATALOAD PUSH1 0xE0 SHR DUP1 PUSH4 0x17AEAE7 EQ PUSH2 0xA9 JUMPI DUP1 PUSH4 0x179E740B EQ PUSH2 0xBE JUMPI DUP1 PUSH4 0x50509859 EQ PUSH2 0xE7 JUMPI DUP1 PUSH4 0x7C9CC57D EQ PUSH2 0xFA JUMPI DUP1 PUSH4 0x87C6291B EQ PUSH2 0x10D JUMPI DUP1 PUSH4 0x9CB506B6 EQ PUSH2 0x120 JUMPI DUP1 PUSH4 0xA95D217D EQ PUSH2 0x133 JUMPI DUP1 PUSH4 0xCD6FEB4B EQ PUSH2 0x146 JUMPI DUP1 PUSH4 0xD27D2841 EQ PUSH2 0x159 JUMPI DUP1 PUSH4 0xED8F0421 EQ PUSH2 0x16C JUMPI DUP1 PUSH4 0xFAE9C8D9 EQ PUSH2 0x17D JUMPI DUP1 PUSH4 0xFC1DAD81 EQ PUSH2 0x18E JUMPI JUMPDEST PUSH1 0x0 DUP1 REVERT JUMPDEST PUSH2 0xBC PUSH2 0xB7 CALLDATASIZE PUSH1 0x4 PUSH2 0x2D8 JUMP JUMPDEST PUSH2 0x19F JUMP JUMPDEST STOP JUMPDEST PUSH1 0x3 SLOAD PUSH1 0x1 PUSH1 0x1 PUSH1 0xA0 SHL SUB AND JUMPDEST PUSH1 0x40 MLOAD PUSH1 0x1 PUSH1 0x1 PUSH1 0xA0 SHL SUB SWAP1 SWAP2 AND DUP2 MSTORE PUSH1 0x20 ADD PUSH1 0x40 MLOAD DUP1 SWAP2 SUB SWAP1 RETURN JUMPDEST PUSH2 0xBC PUSH2 0xF5 CALLDATASIZE PUSH1 0x4 PUSH2 0x2D8 JUMP JUMPDEST PUSH2 0x1F4 JUMP JUMPDEST PUSH2 0xBC PUSH2 0x108 CALLDATASIZE PUSH1 0x4 PUSH2 0x2D8 JUMP JUMPDEST PUSH2 0x240 JUMP JUMPDEST PUSH1 0x3 SLOAD PUSH2 0xCB SWAP1 PUSH1 0x1 PUSH1 0x1 PUSH1 0xA0 SHL SUB AND DUP2 JUMP JUMPDEST PUSH1 0x1 SLOAD PUSH2 0xCB SWAP1 PUSH1 0x1 PUSH1 0x1 PUSH1 0xA0 SHL SUB AND DUP2 JUMP JUMPDEST PUSH1 0x2 SLOAD PUSH2 0xCB SWAP1 PUSH1 0x1 PUSH1 0x1 PUSH1 0xA0 SHL SUB AND DUP2 JUMP JUMPDEST PUSH1 0x0 SLOAD PUSH2 0xCB SWAP1 PUSH1 0x1 PUSH1 0x1 PUSH1 0xA0 SHL SUB AND DUP2 JUMP JUMPDEST PUSH2 0xBC PUSH2 0x167 CALLDATASIZE PUSH1 0x4 PUSH2 0x2D8 JUMP JUMPDEST PUSH2 0x28C JUMP JUMPDEST PUSH1 0x2 SLOAD PUSH1 0x1 PUSH1 0x1 PUSH1 0xA0 SHL SUB AND PUSH2 0xCB JUMP JUMPDEST PUSH1 0x1 SLOAD PUSH1 0x1 PUSH1 0x1 PUSH1 0xA0 SHL SUB AND PUSH2 0xCB JUMP JUMPDEST PUSH1 0x0 SLOAD PUSH1 0x1 PUSH1 0x1 PUSH1 0xA0 SHL SUB AND PUSH2 0xCB JUMP JUMPDEST PUSH1 0x0 SLOAD PUSH1 0x1 PUSH1 0x1 PUSH1 0xA0 SHL SUB AND CALLER EQ PUSH2 0x1D2 JUMPI PUSH1 0x40 MLOAD PUSH3 0x461BCD PUSH1 0xE5 SHL DUP2 MSTORE PUSH1 0x4 ADD PUSH2 0x1C9 SWAP1 PUSH2 0x308 JUMP JUMPDEST PUSH1 0x40 MLOAD DUP1 SWAP2 SUB SWAP1 REVERT JUMPDEST PUSH1 0x0 DUP1 SLOAD PUSH1 0x1 PUSH1 0x1 PUSH1 0xA0 SHL SUB NOT AND PUSH1 0x1 PUSH1 0x1 PUSH1 0xA0 SHL SUB SWAP3 SWAP1 SWAP3 AND SWAP2 SWAP1 SWAP2 OR SWAP1 SSTORE JUMP JUMPDEST PUSH1 0x0 SLOAD PUSH1 0x1 PUSH1 0x1 PUSH1 0xA0 SHL SUB AND CALLER EQ PUSH2 0x21E JUMPI PUSH1 0x40 MLOAD PUSH3 0x461BCD PUSH1 0xE5 SHL DUP2 MSTORE PUSH1 0x4 ADD PUSH2 0x1C9 SWAP1 PUSH2 0x308 JUMP JUMPDEST PUSH1 0x1 DUP1 SLOAD PUSH1 0x1 PUSH1 0x1 PUSH1 0xA0 SHL SUB NOT AND PUSH1 0x1 PUSH1 0x1 PUSH1 0xA0 SHL SUB SWAP3 SWAP1 SWAP3 AND SWAP2 SWAP1 SWAP2 OR SWAP1 SSTORE JUMP JUMPDEST PUSH1 0x0 SLOAD PUSH1 0x1 PUSH1 0x1 PUSH1 0xA0 SHL SUB AND CALLER EQ PUSH2 0x26A JUMPI PUSH1 0x40 MLOAD PUSH3 0x461BCD PUSH1 0xE5 SHL DUP2 MSTORE PUSH1 0x4 ADD PUSH2 0x1C9 SWAP1 PUSH2 0x308 JUMP JUMPDEST PUSH1 0x3 DUP1 SLOAD PUSH1 0x1 PUSH1 0x1 PUSH1 0xA0 SHL SUB NOT AND PUSH1 0x1 PUSH1 0x1 PUSH1 0xA0 SHL SUB SWAP3 SWAP1 SWAP3 AND SWAP2 SWAP1 SWAP2 OR SWAP1 SSTORE JUMP JUMPDEST PUSH1 0x0 SLOAD PUSH1 0x1 PUSH1 0x1 PUSH1 0xA0 SHL SUB AND CALLER EQ PUSH2 0x2B6 JUMPI PUSH1 0x40 MLOAD PUSH3 0x461BCD PUSH1 0xE5 SHL DUP2 MSTORE PUSH1 0x4 ADD PUSH2 0x1C9 SWAP1 PUSH2 0x308 JUMP JUMPDEST PUSH1 0x2 DUP1 SLOAD PUSH1 0x1 PUSH1 0x1 PUSH1 0xA0 SHL SUB NOT AND PUSH1 0x1 PUSH1 0x1 PUSH1 0xA0 SHL SUB SWAP3 SWAP1 SWAP3 AND SWAP2 SWAP1 SWAP2 OR SWAP1 SSTORE JUMP JUMPDEST PUSH1 0x0 PUSH1 0x20 DUP3 DUP5 SUB SLT ISZERO PUSH2 0x2EA JUMPI PUSH1 0x0 DUP1 REVERT JUMPDEST DUP2 CALLDATALOAD PUSH1 0x1 PUSH1 0x1 PUSH1 0xA0 SHL SUB DUP2 AND DUP2 EQ PUSH2 0x301 JUMPI PUSH1 0x0 DUP1 REVERT JUMPDEST SWAP4 SWAP3 POP POP POP JUMP JUMPDEST PUSH1 0x20 DUP1 DUP3 MSTORE PUSH1 0x27 SWAP1 DUP3 ADD MSTORE PUSH32 0x4F6E6C792061636365737320636F6E74726F6C20636F6E74726163742063616E PUSH1 0x40 DUP3 ADD MSTORE PUSH7 0x20757064617465 PUSH1 0xC8 SHL PUSH1 0x60 DUP3 ADD MSTORE PUSH1 0x80 ADD SWAP1 JUMP INVALID LOG2 PUSH5 0x6970667358 0x22 SLT KECCAK256 PUSH21 0x5FAB1F80FC957293134AFB5035A37DCE1ABD636A4D PUSH28 0x509970321627CBB0A064736F6C634300081400330000000000000000 "},"methodIdentifiers":{"accessControlAddr()":"cd6feb4b","consensusAddr()":"87c6291b","getAccessControl()":"fc1dad81","getConsensus()":"179e740b","getRegulatory()":"ed8f0421","getUTXO()":"fae9c8d9","regulatoryAddr()":"a95d217d","updateAccessControlAddr(address)":"017aeae7","updateConsensusAddr(address)":"7c9cc57d","updateRegulatoryAddr(address)":"d27d2841","updateUTXOAddr(address)":"50509859","utxoAddr()":"9cb506b6"}}}}}