{"contracts/Regulatory.sol":{"CDBCRegulatory":{"abi":[{"inputs":[],"stateMutability":"nonpayable","type":"constructor"},{"inputs":[],"name":"AccessControlBadConfirmation","type":"error"},{"inputs":[{"internalType":"address","name":"account","type":"address"},{"internalType":"bytes32","name":"neededRole","type":"bytes32"}],"name":"AccessControlUnauthorizedAccount","type":"error"},{"anonymous":false,"inputs":[{"indexed":false,"internalType":"uint256","name":"amount","type":"uint256"},{"indexed":true,"internalType":"address","name":"minter","type":"address"}],"name":"CoinsMinted","type":"event"},{"anonymous":false,"inputs":[{"indexed":true,"internalType":"uint256","name":"txId","type":"uint256"},{"indexed":false,"internalType":"string","name":"action","type":"string"},{"indexed":false,"internalType":"string","name":"reason","type":"string"},{"indexed":true,"internalType":"address","name":"regulator","type":"address"}],"name":"RegulatoryAction","type":"event"},{"anonymous":false,"inputs":[{"indexed":true,"internalType":"bytes32","name":"role","type":"bytes32"},{"indexed":true,"internalType":"bytes32","name":"previousAdminRole","type":"bytes32"},{"indexed":true,"internalType":"bytes32","name":"newAdminRole","type":"bytes32"}],"name":"RoleAdminChanged","type":"event"},{"anonymous":false,"inputs":[{"indexed":true,"internalType":"address","name":"account","type":"address"},{"indexed":true,"internalType":"bytes32","name":"role","type":"bytes32"},{"indexed":false,"internalType":"string","name":"name","type":"string"}],"name":"RoleAssigned","type":"event"},{"anonymous":false,"inputs":[{"indexed":true,"internalType":"bytes32","name":"role","type":"bytes32"},{"indexed":true,"internalType":"address","name":"account","type":"address"},{"indexed":true,"internalType":"address","name":"sender","type":"address"}],"name":"RoleGranted","type":"event"},{"anonymous":false,"inputs":[{"indexed":true,"internalType":"bytes32","name":"role","type":"bytes32"},{"indexed":true,"internalType":"address","name":"account","type":"address"},{"indexed":true,"internalType":"address","name":"sender","type":"address"}],"name":"RoleRevoked","type":"event"},{"anonymous":false,"inputs":[{"indexed":true,"internalType":"address","name":"account","type":"address"},{"indexed":true,"internalType":"bytes32","name":"role","type":"bytes32"}],"name":"RoleRevoked","type":"event"},{"anonymous":false,"inputs":[{"indexed":true,"internalType":"address","name":"account","type":"address"},{"indexed":false,"internalType":"string","name":"name","type":"string"},{"indexed":false,"internalType":"bool","name":"active","type":"bool"}],"name":"RoleUpdated","type":"event"},{"anonymous":false,"inputs":[{"indexed":true,"internalType":"uint256","name":"suspiciousId","type":"uint256"},{"indexed":true,"internalType":"uint256","name":"txId","type":"uint256"},{"indexed":false,"internalType":"string","name":"reason","type":"string"}],"name":"SuspiciousTransactionDetected","type":"event"},{"anonymous":false,"inputs":[{"indexed":true,"internalType":"uint256","name":"reportId","type":"uint256"},{"indexed":true,"internalType":"uint256","name":"txId","type":"uint256"},{"indexed":false,"internalType":"bool","name":"passed","type":"bool"},{"indexed":false,"internalType":"string","name":"result","type":"string"}],"name":"TransactionAudited","type":"event"},{"anonymous":false,"inputs":[{"indexed":true,"internalType":"uint256","name":"txId","type":"uint256"},{"indexed":true,"internalType":"address","name":"sender","type":"address"},{"indexed":false,"internalType":"uint256","name":"outputsCount","type":"uint256"}],"name":"TransactionCreated","type":"event"},{"anonymous":false,"inputs":[{"indexed":true,"internalType":"uint256","name":"suspiciousId","type":"uint256"},{"indexed":false,"internalType":"bool","name":"confirmed","type":"bool"},{"indexed":false,"internalType":"string","name":"notes","type":"string"}],"name":"TransactionInvestigated","type":"event"},{"anonymous":false,"inputs":[{"indexed":true,"internalType":"uint256","name":"utxoId","type":"uint256"},{"indexed":false,"internalType":"uint256","name":"value","type":"uint256"},{"indexed":true,"internalType":"address","name":"recipient","type":"address"}],"name":"UTXOCreated","type":"event"},{"anonymous":false,"inputs":[{"indexed":true,"internalType":"uint256","name":"utxoId","type":"uint256"},{"indexed":false,"internalType":"uint256","name":"txId","type":"uint256"}],"name":"UTXOSpent","type":"event"},{"inputs":[],"name":"DEFAULT_ADMIN_ROLE","outputs":[{"internalType":"bytes32","name":"","type":"bytes32"}],"stateMutability":"view","type":"function"},{"inputs":[],"name":"ENTERPRISE_ROLE","outputs":[{"internalType":"bytes32","name":"","type":"bytes32"}],"stateMutability":"view","type":"function"},{"inputs":[],"name":"FREQUENT_TRANSACTION_THRESHOLD","outputs":[{"internalType":"uint256","name":"","type":"uint256"}],"stateMutability":"view","type":"function"},{"inputs":[],"name":"LARGE_TRANSACTION_THRESHOLD","outputs":[{"internalType":"uint256","name":"","type":"uint256"}],"stateMutability":"view","type":"function"},{"inputs":[],"name":"MAX_SUPPLY","outputs":[{"internalType":"uint256","name":"","type":"uint256"}],"stateMutability":"view","type":"function"},{"inputs":[],"name":"PRIMARY_BANK_ROLE","outputs":[{"internalType":"bytes32","name":"","type":"bytes32"}],"stateMutability":"view","type":"function"},{"inputs":[],"name":"REGULATOR_ROLE","outputs":[{"internalType":"bytes32","name":"","type":"bytes32"}],"stateMutability":"view","type":"function"},{"inputs":[],"name":"SECONDARY_BANK_ROLE","outputs":[{"internalType":"bytes32","name":"","type":"bytes32"}],"stateMutability":"view","type":"function"},{"inputs":[],"name":"USER_ROLE","outputs":[{"internalType":"bytes32","name":"","type":"bytes32"}],"stateMutability":"view","type":"function"},{"inputs":[],"name":"VALIDATOR_ROLE","outputs":[{"internalType":"bytes32","name":"","type":"bytes32"}],"stateMutability":"view","type":"function"},{"inputs":[{"internalType":"address","name":"","type":"address"},{"internalType":"uint256","name":"","type":"uint256"}],"name":"addressAuditReports","outputs":[{"internalType":"uint256","name":"","type":"uint256"}],"stateMutability":"view","type":"function"},{"inputs":[{"internalType":"address","name":"","type":"address"},{"internalType":"uint256","name":"","type":"uint256"}],"name":"addressUTXOs","outputs":[{"internalType":"uint256","name":"","type":"uint256"}],"stateMutability":"view","type":"function"},{"inputs":[{"internalType":"address","name":"account","type":"address"},{"internalType":"string","name":"name","type":"string"}],"name":"assignEnterprise","outputs":[],"stateMutability":"nonpayable","type":"function"},{"inputs":[{"internalType":"address","name":"account","type":"address"},{"internalType":"string","name":"name","type":"string"}],"name":"assignRegulator","outputs":[],"stateMutability":"nonpayable","type":"function"},{"inputs":[{"internalType":"address","name":"account","type":"address"},{"internalType":"string","name":"name","type":"string"}],"name":"assignSecondaryBank","outputs":[],"stateMutability":"nonpayable","type":"function"},{"inputs":[{"internalType":"address","name":"account","type":"address"},{"internalType":"string","name":"name","type":"string"}],"name":"assignUser","outputs":[],"stateMutability":"nonpayable","type":"function"},{"inputs":[{"internalType":"address","name":"account","type":"address"},{"internalType":"string","name":"name","type":"string"}],"name":"assignValidator","outputs":[],"stateMutability":"nonpayable","type":"function"},{"inputs":[{"internalType":"uint256","name":"","type":"uint256"}],"name":"auditReports","outputs":[{"internalType":"uint256","name":"reportId","type":"uint256"},{"internalType":"uint256","name":"txId","type":"uint256"},{"internalType":"address","name":"auditor","type":"address"},{"internalType":"string","name":"result","type":"string"},{"internalType":"string","name":"notes","type":"string"},{"internalType":"uint256","name":"timestamp","type":"uint256"},{"internalType":"bool","name":"passed","type":"bool"}],"stateMutability":"view","type":"function"},{"inputs":[{"internalType":"uint256","name":"txId","type":"uint256"},{"internalType":"string","name":"result","type":"string"},{"internalType":"string","name":"notes","type":"string"},{"internalType":"bool","name":"passed","type":"bool"}],"name":"auditTransaction","outputs":[],"stateMutability":"nonpayable","type":"function"},{"inputs":[{"internalType":"uint256","name":"","type":"uint256"}],"name":"auditedTransactions","outputs":[{"internalType":"bool","name":"","type":"bool"}],"stateMutability":"view","type":"function"},{"inputs":[{"internalType":"uint256","name":"amount","type":"uint256"}],"name":"convertAccountToUTXO","outputs":[],"stateMutability":"nonpayable","type":"function"},{"inputs":[{"internalType":"uint256[]","name":"utxoIds","type":"uint256[]"},{"internalType":"uint256","name":"amount","type":"uint256"}],"name":"convertUTXOToAccount","outputs":[],"stateMutability":"nonpayable","type":"function"},{"inputs":[{"components":[{"internalType":"uint256","name":"prevTxId","type":"uint256"},{"internalType":"uint256","name":"outputIndex","type":"uint256"},{"internalType":"bytes","name":"signature","type":"bytes"}],"internalType":"struct CDBCTransaction.Input[]","name":"inputs","type":"tuple[]"},{"components":[{"internalType":"uint256","name":"value","type":"uint256"},{"internalType":"address payable","name":"recipient","type":"address"},{"internalType":"bool","name":"isSpent","type":"bool"},{"internalType":"uint256","name":"lockTime","type":"uint256"}],"internalType":"struct CDBCTransaction.Output[]","name":"outputs","type":"tuple[]"}],"name":"createTransaction","outputs":[{"internalType":"uint256","name":"","type":"uint256"}],"stateMutability":"nonpayable","type":"function"},{"inputs":[{"internalType":"address","name":"addr","type":"address"},{"internalType":"string","name":"notes","type":"string"}],"name":"generateAddressAuditReport","outputs":[{"internalType":"uint256","name":"","type":"uint256"}],"stateMutability":"nonpayable","type":"function"},{"inputs":[{"internalType":"address","name":"addr","type":"address"}],"name":"getAddressAuditReports","outputs":[{"internalType":"uint256[]","name":"","type":"uint256[]"}],"stateMutability":"view","type":"function"},{"inputs":[{"internalType":"address","name":"owner","type":"address"}],"name":"getAddressBalance","outputs":[{"internalType":"uint256","name":"","type":"uint256"}],"stateMutability":"view","type":"function"},{"inputs":[{"internalType":"address","name":"owner","type":"address"}],"name":"getAddressUTXOs","outputs":[{"internalType":"uint256[]","name":"","type":"uint256[]"}],"stateMutability":"view","type":"function"},{"inputs":[{"internalType":"uint256","name":"reportId","type":"uint256"}],"name":"getAuditReport","outputs":[{"components":[{"internalType":"uint256","name":"reportId","type":"uint256"},{"internalType":"uint256","name":"txId","type":"uint256"},{"internalType":"address","name":"auditor","type":"address"},{"internalType":"string","name":"result","type":"string"},{"internalType":"string","name":"notes","type":"string"},{"internalType":"uint256","name":"timestamp","type":"uint256"},{"internalType":"bool","name":"passed","type":"bool"}],"internalType":"struct CDBCRegulatory.AuditReport","name":"","type":"tuple"}],"stateMutability":"view","type":"function"},{"inputs":[{"internalType":"bytes32","name":"role","type":"bytes32"}],"name":"getRoleAdmin","outputs":[{"internalType":"bytes32","name":"","type":"bytes32"}],"stateMutability":"view","type":"function"},{"inputs":[{"internalType":"address","name":"account","type":"address"}],"name":"getRoleLevel","outputs":[{"internalType":"uint256","name":"","type":"uint256"}],"stateMutability":"view","type":"function"},{"inputs":[{"internalType":"uint256","name":"suspiciousId","type":"uint256"}],"name":"getSuspiciousTransaction","outputs":[{"components":[{"internalType":"uint256","name":"txId","type":"uint256"},{"internalType":"address","name":"sender","type":"address"},{"internalType":"address","name":"recipient","type":"address"},{"internalType":"uint256","name":"amount","type":"uint256"},{"internalType":"string","name":"reason","type":"string"},{"internalType":"bool","name":"investigated","type":"bool"},{"internalType":"uint256","name":"timestamp","type":"uint256"}],"internalType":"struct CDBCRegulatory.SuspiciousTransaction","name":"","type":"tuple"}],"stateMutability":"view","type":"function"},{"inputs":[{"internalType":"uint256","name":"txId","type":"uint256"}],"name":"getTransaction","outputs":[{"components":[{"internalType":"uint256","name":"txId","type":"uint256"},{"components":[{"internalType":"uint256","name":"prevTxId","type":"uint256"},{"internalType":"uint256","name":"outputIndex","type":"uint256"},{"internalType":"bytes","name":"signature","type":"bytes"}],"internalType":"struct CDBCTransaction.Input[]","name":"inputs","type":"tuple[]"},{"components":[{"internalType":"uint256","name":"value","type":"uint256"},{"internalType":"address payable","name":"recipient","type":"address"},{"internalType":"bool","name":"isSpent","type":"bool"},{"internalType":"uint256","name":"lockTime","type":"uint256"}],"internalType":"struct CDBCTransaction.Output[]","name":"outputs","type":"tuple[]"},{"internalType":"uint256","name":"timestamp","type":"uint256"},{"internalType":"address","name":"sender","type":"address"}],"internalType":"struct CDBCTransaction.Transaction","name":"","type":"tuple"}],"stateMutability":"view","type":"function"},{"inputs":[{"internalType":"address","name":"addr","type":"address"},{"internalType":"uint256","name":"startIndex","type":"uint256"},{"internalType":"uint256","name":"count","type":"uint256"}],"name":"getTransactionHistory","outputs":[{"components":[{"internalType":"uint256","name":"txId","type":"uint256"},{"components":[{"internalType":"uint256","name":"prevTxId","type":"uint256"},{"internalType":"uint256","name":"outputIndex","type":"uint256"},{"internalType":"bytes","name":"signature","type":"bytes"}],"internalType":"struct CDBCTransaction.Input[]","name":"inputs","type":"tuple[]"},{"components":[{"internalType":"uint256","name":"value","type":"uint256"},{"internalType":"address payable","name":"recipient","type":"address"},{"internalType":"bool","name":"isSpent","type":"bool"},{"internalType":"uint256","name":"lockTime","type":"uint256"}],"internalType":"struct CDBCTransaction.Output[]","name":"outputs","type":"tuple[]"},{"internalType":"uint256","name":"timestamp","type":"uint256"},{"internalType":"address","name":"sender","type":"address"}],"internalType":"struct CDBCTransaction.Transaction[]","name":"","type":"tuple[]"}],"stateMutability":"view","type":"function"},{"inputs":[{"internalType":"uint256","name":"utxoId","type":"uint256"}],"name":"getUTXODetails","outputs":[{"components":[{"internalType":"uint256","name":"value","type":"uint256"},{"internalType":"address payable","name":"recipient","type":"address"},{"internalType":"bool","name":"isSpent","type":"bool"},{"internalType":"uint256","name":"lockTime","type":"uint256"}],"internalType":"struct CDBCTransaction.Output","name":"","type":"tuple"}],"stateMutability":"view","type":"function"},{"inputs":[{"internalType":"bytes32","name":"role","type":"bytes32"},{"internalType":"address","name":"account","type":"address"}],"name":"grantRole","outputs":[],"stateMutability":"nonpayable","type":"function"},{"inputs":[{"internalType":"bytes32","name":"role","type":"bytes32"},{"internalType":"address","name":"account","type":"address"}],"name":"hasRole","outputs":[{"internalType":"bool","name":"","type":"bool"}],"stateMutability":"view","type":"function"},{"inputs":[{"internalType":"address","name":"account","type":"address"}],"name":"hasValidRole","outputs":[{"internalType":"bool","name":"","type":"bool"}],"stateMutability":"view","type":"function"},{"inputs":[{"internalType":"uint256","name":"suspiciousId","type":"uint256"},{"internalType":"bool","name":"confirmed","type":"bool"},{"internalType":"string","name":"notes","type":"string"}],"name":"investigateSuspiciousTransaction","outputs":[],"stateMutability":"nonpayable","type":"function"},{"inputs":[{"internalType":"address","name":"recipient","type":"address"},{"internalType":"uint256","name":"amount","type":"uint256"}],"name":"mint","outputs":[],"stateMutability":"nonpayable","type":"function"},{"inputs":[{"internalType":"address","name":"","type":"address"}],"name":"recentTransactionCount","outputs":[{"internalType":"uint256","name":"","type":"uint256"}],"stateMutability":"view","type":"function"},{"inputs":[{"internalType":"address","name":"","type":"address"}],"name":"recentTransactionWindow","outputs":[{"internalType":"uint256","name":"","type":"uint256"}],"stateMutability":"view","type":"function"},{"inputs":[{"internalType":"bytes32","name":"role","type":"bytes32"},{"internalType":"address","name":"callerConfirmation","type":"address"}],"name":"renounceRole","outputs":[],"stateMutability":"nonpayable","type":"function"},{"inputs":[],"name":"reportCounter","outputs":[{"internalType":"uint256","name":"","type":"uint256"}],"stateMutability":"view","type":"function"},{"inputs":[{"internalType":"address","name":"account","type":"address"},{"internalType":"bytes32","name":"role","type":"bytes32"}],"name":"revokeRole","outputs":[],"stateMutability":"nonpayable","type":"function"},{"inputs":[{"internalType":"bytes32","name":"role","type":"bytes32"},{"internalType":"address","name":"account","type":"address"}],"name":"revokeRole","outputs":[],"stateMutability":"nonpayable","type":"function"},{"inputs":[{"internalType":"address","name":"","type":"address"}],"name":"roleInfo","outputs":[{"internalType":"address","name":"addr","type":"address"},{"internalType":"string","name":"name","type":"string"},{"internalType":"uint256","name":"level","type":"uint256"},{"internalType":"bool","name":"active","type":"bool"},{"internalType":"uint256","name":"createdAt","type":"uint256"}],"stateMutability":"view","type":"function"},{"inputs":[{"internalType":"uint256","name":"newThreshold","type":"uint256"}],"name":"setFrequentTransactionThreshold","outputs":[],"stateMutability":"nonpayable","type":"function"},{"inputs":[{"internalType":"uint256","name":"newThreshold","type":"uint256"}],"name":"setLargeTransactionThreshold","outputs":[],"stateMutability":"nonpayable","type":"function"},{"inputs":[{"internalType":"bytes4","name":"interfaceId","type":"bytes4"}],"name":"supportsInterface","outputs":[{"internalType":"bool","name":"","type":"bool"}],"stateMutability":"view","type":"function"},{"inputs":[],"name":"suspiciousCounter","outputs":[{"internalType":"uint256","name":"","type":"uint256"}],"stateMutability":"view","type":"function"},{"inputs":[{"internalType":"uint256","name":"","type":"uint256"}],"name":"suspiciousTransactions","outputs":[{"internalType":"uint256","name":"txId","type":"uint256"},{"internalType":"address","name":"sender","type":"address"},{"internalType":"address","name":"recipient","type":"address"},{"internalType":"uint256","name":"amount","type":"uint256"},{"internalType":"string","name":"reason","type":"string"},{"internalType":"bool","name":"investigated","type":"bool"},{"internalType":"uint256","name":"timestamp","type":"uint256"}],"stateMutability":"view","type":"function"},{"inputs":[],"name":"totalSupply","outputs":[{"internalType":"uint256","name":"","type":"uint256"}],"stateMutability":"view","type":"function"},{"inputs":[{"internalType":"uint256","name":"","type":"uint256"}],"name":"transactions","outputs":[{"internalType":"uint256","name":"txId","type":"uint256"},{"internalType":"uint256","name":"timestamp","type":"uint256"},{"internalType":"address","name":"sender","type":"address"}],"stateMutability":"view","type":"function"},{"inputs":[],"name":"txCounter","outputs":[{"internalType":"uint256","name":"","type":"uint256"}],"stateMutability":"view","type":"function"},{"inputs":[{"internalType":"uint256","name":"","type":"uint256"}],"name":"txIdExists","outputs":[{"internalType":"bool","name":"","type":"bool"}],"stateMutability":"view","type":"function"},{"inputs":[{"internalType":"address","name":"account","type":"address"},{"internalType":"string","name":"name","type":"string"},{"internalType":"bool","name":"active","type":"bool"}],"name":"updateRoleInfo","outputs":[],"stateMutability":"nonpayable","type":"function"},{"inputs":[{"internalType":"uint256","name":"","type":"uint256"}],"name":"utxos","outputs":[{"internalType":"uint256","name":"value","type":"uint256"},{"internalType":"address payable","name":"recipient","type":"address"},{"internalType":"bool","name":"isSpent","type":"bool"},{"internalType":"uint256","name":"lockTime","type":"uint256"}],"stateMutability":"view","type":"function"},{"inputs":[{"internalType":"address","name":"account","type":"address"},{"internalType":"uint256","name":"requiredLevel","type":"uint256"}],"name":"validatePermission","outputs":[{"internalType":"bool","name":"","type":"bool"}],"stateMutability":"view","type":"function"}],"evm":{"bytecode":{"linkReferences":{},"object":"608060405269152d02c7e14af6800000600c55600a600d553480156200002457600080fd5b50620000326000336200018e565b506200004e600080516020620058c8833981519152336200018e565b506040805160a0810182523380825282518084018452600b81526a5072696d61727942616e6b60a81b60208083019190915280840191825260018486018190526060850181905242608086015260009384529081905293909120825181546001600160a01b0319166001600160a01b0390911617815590519192909190820190620000da9082620002e2565b506040828101516002830155606083015160038301805491151560ff1990921691909117905560809092015160049091015551600080516020620058c88339815191529033907f988ad249a3a578f3ca7b7f03da9ffdb25c0f9bf3684a5b8aac97d04fc81c2107906200016c906020808252600b908201526a5072696d61727942616e6b60a81b604082015260600190565b60405180910390a36000600681905560078190556010819055601155620003ae565b6000828152602081815260408083206001600160a01b038516845290915281205460ff1662000233576000838152602081815260408083206001600160a01b03861684529091529020805460ff19166001179055620001ea3390565b6001600160a01b0316826001600160a01b0316847f2f8788117e7eff1d82e926ec794901d17c78024a50270940304540a733656f0d60405160405180910390a450600162000237565b5060005b92915050565b634e487b7160e01b600052604160045260246000fd5b600181811c908216806200026857607f821691505b6020821081036200028957634e487b7160e01b600052602260045260246000fd5b50919050565b601f821115620002dd57600081815260208120601f850160051c81016020861015620002b85750805b601f850160051c820191505b81811015620002d957828155600101620002c4565b5050505b505050565b81516001600160401b03811115620002fe57620002fe6200023d565b62000316816200030f845462000253565b846200028f565b602080601f8311600181146200034e5760008415620003355750858301515b600019600386901b1c1916600185901b178555620002d9565b600085815260208120601f198616915b828110156200037f578886015182559484019460019091019084016200035e565b50858210156200039e5787850151600019600388901b60f8161c191681555b5050505050600190811b01905550565b61550a80620003be6000396000f3fe608060405234801561001057600080fd5b506004361061029e5760003560e01c806301ffc9a7146102a35780630daf71ac146102cb57806313119161146102f1578063144bf5891461031457806316d6d2c41461032957806317302eb91461034957806318160ddd1461035e578063197277fd14610367578063208dd1ff14610387578063217b8ee91461039a578063248a9ca3146103ad57806324f13320146103c05780632f2ff15d146103e457806332cb6b0c146103f757806333ea3dc8146104095780633409d8f614610429578063350467221461044c57806336568abe1461045f5780633ceaf7e9146104725780633fd4c11b1461048557806340c10f19146104ab5780635a3c61eb146104be5780635cead0e9146104d1578063612999d5146104e4578063658a4823146104f757806368dd17a51461050a5780637304c5881461051f57806374f079b81461053257806376ad18b91461053b578063780991bd1461055b5780637b19f48c146105645780637c0f88821461056d5780638001cfe514610580578063815913871461059357806381693d27146106065780638805ce351461060f5780638e598f181461062257806391d148541461064557806395706957146106585780639859199d1461066b5780639ace38c21461067e578063a217fddf146106da578063a43ef956146106e2578063b9bc38f2146106f5578063c2f959c3146106fe578063c49baebe1461071e578063c5fbb61014610733578063c8aee75414610748578063cf850c8d14610774578063d313825514610787578063d547741f1461079a578063d980d735146107ad578063e0b99a2d146107cd578063e206ba50146107e0578063ecc6152c146107f5578063f74577d514610808578063f8031e901461081b578063ffe4c2d31461083b575b600080fd5b6102b66102b1366004614455565b61085b565b60405190151581526020015b60405180910390f35b6102de6102d936600461447f565b610892565b6040516102c297969594939291906144de565b61030660008051602061545583398151915281565b6040519081526020016102c2565b61030660008051602061541583398151915281565b61033c61033736600461447f565b6109ed565b6040516102c29190614539565b61035c61035736600461447f565b610b2d565b005b61030660075481565b61037a6103753660046145c3565b610b4b565b6040516102c29190614731565b61035c610395366004614793565b610f48565b6102b66103a83660046147bf565b6110a9565b6103066103bb36600461447f565b6111b5565b6103d36103ce3660046147bf565b6111ca565b6040516102c29594939291906147dc565b61035c6103f236600461481d565b611292565b610306676765c793fa10079d601b1b81565b61041c61041736600461447f565b6112b4565b6040516102c2919061484d565b6102b661043736600461447f565b60056020526000908152604090205460ff1681565b61030661045a3660046147bf565b61149f565b61035c61046d36600461481d565b61157b565b610306610480366004614793565b6115b3565b61049861049336600461447f565b6115e4565b6040516102c29796959493929190614860565b61035c6104b9366004614793565b6116ba565b6103066104cc36600461495a565b611a02565b61035c6104df36600461495a565b611c1d565b61035c6104f236600461447f565b611dd8565b61035c61050536600461495a565b611df6565b61030660008051602061537583398151915281565b61035c61052d36600461495a565b611fba565b61030660065481565b61054e6105493660046147bf565b61217e565b6040516102c291906149a9565b610306600d5481565b61030660115481565b6102b661057b366004614793565b6121ea565b61030661058e366004614793565b6122f2565b6105d86105a136600461447f565b60036020526000908152604090208054600182015460029092015490916001600160a01b03811691600160a01b90910460ff169084565b604080519485526001600160a01b0390931660208501529015159183019190915260608201526080016102c2565b610306600c5481565b61035c61061d36600461447f565b61230e565b6102b661063036600461447f565b60086020526000908152604090205460ff1681565b6102b661065336600461481d565b61240b565b61035c61066636600461495a565b612434565b61035c6106793660046149fb565b6125a8565b6106b661068c36600461447f565b6002602052600090815260409020805460038201546004909201549091906001600160a01b031683565b6040805193845260208401929092526001600160a01b0316908201526060016102c2565b610306600081565b61054e6106f03660046147bf565b612712565b61030660105481565b61030661070c3660046147bf565b600e6020526000908152604090205481565b6103066000805160206153b583398151915281565b61030660008051602061547583398151915281565b6103066107563660046147bf565b6001600160a01b031660009081526001602052604090206002015490565b61035c61078236600461495a565b61277c565b61035c610795366004614aa9565b6128ef565b61035c6107a836600461481d565b612b30565b6107c06107bb36600461447f565b612b4c565b6040516102c29190614af4565b6103066107db366004614b02565b612bab565b6103066000805160206153f583398151915281565b61035c610803366004614b9b565b612db1565b61035c610816366004614bf3565b612f11565b61082e61082936600461447f565b61333e565b6040516102c29190614c72565b6103066108493660046147bf565b600f6020526000908152604090205481565b60006001600160e01b03198216637965db0b60e01b148061088c57506301ffc9a760e01b6001600160e01b03198316145b92915050565b6009602052600090815260409020805460018201546002830154600384018054939492936001600160a01b0390921692916108cc90614cf5565b80601f01602080910402602001604051908101604052809291908181526020018280546108f890614cf5565b80156109455780601f1061091a57610100808354040283529160200191610945565b820191906000526020600020905b81548152906001019060200180831161092857829003601f168201915b50505050509080600401805461095a90614cf5565b80601f016020809104026020016040519081016040528092919081815260200182805461098690614cf5565b80156109d35780601f106109a8576101008083540402835291602001916109d3565b820191906000526020600020905b8154815290600101906020018083116109b657829003601f168201915b50505050600583015460069093015491929160ff16905087565b6040805160e0810182526000808252602082018190529181018290526060808201839052608082015260a0810182905260c08101919091526000828152600b6020908152604091829020825160e0810184528154815260018201546001600160a01b039081169382019390935260028201549092169282019290925260038201546060820152600482018054919291608084019190610a8b90614cf5565b80601f0160208091040260200160405190810160405280929190818152602001828054610ab790614cf5565b8015610b045780601f10610ad957610100808354040283529160200191610b04565b820191906000526020600020905b815481529060010190602001808311610ae757829003601f168201915b5050509183525050600582015460ff161515602082015260069091015460409091015292915050565b6000805160206153f5833981519152610b4581613514565b50600c55565b6060600080516020615415833981519152610b6581613514565b6000836001600160401b03811115610b7f57610b7f6148af565b604051908082528060200260200182016040528015610bb857816020015b610ba5614397565b815260200190600190039081610b9d5790505b5090506000855b60065481108015610bcf57508582105b15610e90576000818152600260209081526040808320815160a081018352815481526001820180548451818702810187019095528085529194929385840193909290879084015b82821015610cee57838290600052602060002090600302016040518060600160405290816000820154815260200160018201548152602001600282018054610c5d90614cf5565b80601f0160208091040260200160405190810160405280929190818152602001828054610c8990614cf5565b8015610cd65780601f10610cab57610100808354040283529160200191610cd6565b820191906000526020600020905b815481529060010190602001808311610cb957829003601f168201915b50505050508152505081526020019060010190610c16565b50505050815260200160028201805480602002602001604051908101604052809291908181526020016000905b82821015610d805760008481526020908190206040805160808101825260038602909201805483526001808201546001600160a01b03811685870152600160a01b900460ff161515928401929092526002015460608301529083529092019101610d1b565b50505090825250600382015460208201526004909101546001600160a01b0390811660409092019190915260808201519192508a8116911603610dee5780848481518110610dd057610dd0614d2f565b60200260200101819052508280610de690614d5b565b935050610e7d565b60005b816040015151811015610e7b57896001600160a01b031682604001518281518110610e1e57610e1e614d2f565b6020026020010151602001516001600160a01b031603610e695781858581518110610e4b57610e4b614d2f565b60200260200101819052508380610e6190614d5b565b945050610e7b565b80610e7381614d5b565b915050610df1565b505b5080610e8881614d5b565b915050610bbf565b506000816001600160401b03811115610eab57610eab6148af565b604051908082528060200260200182016040528015610ee457816020015b610ed1614397565b815260200190600190039081610ec95790505b50905060005b82811015610f3c57838181518110610f0457610f04614d2f565b6020026020010151828281518110610f1e57610f1e614d2f565b60200260200101819052508080610f3490614d5b565b915050610eea565b50979650505050505050565b610f606000805160206153f58339815191523361240b565b610fbc5760405162461bcd60e51b815260206004820152602260248201527f4f6e6c79207072696d6172792062616e6b2063616e207265766f6b6520726f6c604482015261657360f01b60648201526084015b60405180910390fd5b610fc6818361240b565b6110125760405162461bcd60e51b815260206004820152601e60248201527f4163636f756e7420646f6573206e6f7420686176652074686520726f6c6500006044820152606401610fb3565b61101c8183613521565b506001600160a01b0382166000908152600160208190526040822080546001600160a01b03191681559190611053908301826143cf565b5060006002820181905560038201805460ff19169055600490910181905560405182916001600160a01b038516917fea83a7caef01824e96446a8c4bc8ff4669edd99e129b53e32c077f85d21680819190a35050565b6001600160a01b038082166000908152600160208181526040808420815160a08101909252805490951681529184018054939485949092840191906110ed90614cf5565b80601f016020809104026020016040519081016040528092919081815260200182805461111990614cf5565b80156111665780601f1061113b57610100808354040283529160200191611166565b820191906000526020600020905b81548152906001019060200180831161114957829003601f168201915b505050918352505060028201546020820152600382015460ff161515604082015260049091015460609182015281015190915080156111ae575080516001600160a01b031615155b9392505050565b60009081526020819052604090206001015490565b6001602081905260009182526040909120805491810180546001600160a01b03909316926111f790614cf5565b80601f016020809104026020016040519081016040528092919081815260200182805461122390614cf5565b80156112705780601f1061124557610100808354040283529160200191611270565b820191906000526020600020905b81548152906001019060200180831161125357829003601f168201915b50505050600283015460038401546004909401549293909260ff909116915085565b61129b826111b5565b6112a481613514565b6112ae8383613594565b50505050565b6112bc614397565b600260008381526020019081526020016000206040518060a00160405290816000820154815260200160018201805480602002602001604051908101604052809291908181526020016000905b828210156113e15783829060005260206000209060030201604051806060016040529081600082015481526020016001820154815260200160028201805461135090614cf5565b80601f016020809104026020016040519081016040528092919081815260200182805461137c90614cf5565b80156113c95780601f1061139e576101008083540402835291602001916113c9565b820191906000526020600020905b8154815290600101906020018083116113ac57829003601f168201915b50505050508152505081526020019060010190611309565b50505050815260200160028201805480602002602001604051908101604052809291908181526020016000905b828210156114735760008481526020908190206040805160808101825260038602909201805483526001808201546001600160a01b03811685870152600160a01b900460ff16151592840192909252600201546060830152908352909201910161140e565b50505090825250600382015460208201526004909101546001600160a01b031660409091015292915050565b6001600160a01b038116600090815260046020526040812081805b8254811015611573576000600360008584815481106114db576114db614d2f565b6000918252602080832091909101548352828101939093526040918201902081516080810183528154815260018201546001600160a01b03811694820194909452600160a01b90930460ff16158015928401839052600290910154606084015291925061154c575080606001514210155b1561156057805161155d9084614d74565b92505b508061156b81614d5b565b9150506114ba565b509392505050565b6001600160a01b03811633146115a45760405163334bd91960e11b815260040160405180910390fd5b6115ae8282613521565b505050565b600a60205281600052604060002081815481106115cf57600080fd5b90600052602060002001600091509150505481565b600b602052600090815260409020805460018201546002830154600384015460048501805494956001600160a01b03948516959390941693919261162790614cf5565b80601f016020809104026020016040519081016040528092919081815260200182805461165390614cf5565b80156116a05780601f10611675576101008083540402835291602001916116a0565b820191906000526020600020905b81548152906001019060200180831161168357829003601f168201915b505050506005830154600690930154919260ff1691905087565b6000805160206153f58339815191526116d281613514565b676765c793fa10079d601b1b826007546116ec9190614d74565b11156117335760405162461bcd60e51b815260206004820152601660248201527545786365656473206d6178696d756d20737570706c7960501b6044820152606401610fb3565b6001600160a01b0383166117855760405162461bcd60e51b8152602060048201526019602482015278496e76616c696420726563697069656e74206164647265737360381b6044820152606401610fb3565b61178e836110a9565b6117da5760405162461bcd60e51b815260206004820181905260248201527f526563697069656e74206d757374206861766520612076616c696420726f6c656044820152606401610fb3565b60008383426006546040516020016117f59493929190614d87565b60408051601f1981840301815282825280516020918201206080840183528684526001600160a01b03808916858401818152600087870181815260608901828152868352600388528883208a51815593516001858101805494511515600160a01b026001600160a81b031990951692909816919091179290921790955593516002909201919091559081526004845293842080549182018155845291832090910181905560078054919450869290916118af908490614d74565b90915550506000828152600260208181526040808420868155426003808301919091556004820180546001600160a01b03191633179055908401805460018181018355918752848720885191909302909201918255868401518282018054898601511515600160a01b026001600160a81b03199091166001600160a01b0393909316929092179190911790556060870151919094015585845260059091528220805460ff19169091179055600680549161196883614d5b565b9190505550846001600160a01b0316826000805160206154358339815191528660405161199791815260200190565b60405180910390a360405184815233907f2c6364c33c231f6b00d9d8736d5ffc450b1a21fda45ef7847565e16a039a4cd59060200160405180910390a26040516001815233908390600080516020615495833981519152906020015b60405180910390a35050505050565b6000600080516020615415833981519152611a1c81613514565b6010546040516001600160601b0319606087811b8216602084015233901b16603482015242604882015260688101919091526000906088016040516020818303038152906040528051906020012060001c90506000611a7a8661149f565b90506000611a8787612712565b90506000808311611abb576040518060400160405280600b81526020016a4c6f772062616c616e636560a81b815250611adb565b60405180604001604052806006815260200165139bdc9b585b60d21b8152505b6040805160e081018252868152600060208083018281523384860190815260608501878152608086018f90524260a0870152600160c087018190528c86526009909452959093208451815590518183015591516002830180546001600160a01b0319166001600160a01b0390921691909117905592519394509192909182916003820190611b699082614e0c565b5060808201516004820190611b7e9082614e0c565b5060a0820151600582015560c0909101516006909101805460ff19169115159190911790556001600160a01b038a166000908152600a6020908152604080832080546001810182559084529183209091018890555187906000805160206153d583398151915290611bf29086908890614ec5565b60405180910390a360108054906000611c0a83614d5b565b90915550959a9950505050505050505050565b6000805160206153f5833981519152611c3581613514565b611c4d6000805160206154758339815191528461240b565b15611caa5760405162461bcd60e51b815260206004820152602760248201527f4163636f756e7420616c726561647920686173207365636f6e646172792062616044820152666e6b20726f6c6560c81b6064820152608401610fb3565b611cc26000805160206153f58339815191528461240b565b15611cdf5760405162461bcd60e51b8152600401610fb390614ee0565b611cf760008051602061547583398151915284613594565b506040805160a0810182526001600160a01b03858116808352602080840187815260028587015260016060860181905242608087015260009384529182905294909120835181546001600160a01b031916931692909217825592519192909190820190611d649082614e0c565b506040828101516002830155606083015160038301805460ff191691151591909117905560809092015160049091015551600080516020615475833981519152906001600160a01b0385169060008051602061539583398151915290611dcb908690614f21565b60405180910390a3505050565b6000805160206153f5833981519152611df081613514565b50600d55565b600080516020615475833981519152611e0e81613514565b611e266000805160206154558339815191528461240b565b158015611e485750611e466000805160206153758339815191528461240b565b155b611e645760405162461bcd60e51b8152600401610fb390614f34565b611e7c6000805160206154758339815191528461240b565b15611e995760405162461bcd60e51b8152600401610fb390614f7c565b611eb16000805160206153f58339815191528461240b565b15611ece5760405162461bcd60e51b8152600401610fb390614ee0565b611ee660008051602061545583398151915284613594565b506040805160a0810182526001600160a01b03858116808352602080840187815260038587015260016060860181905242608087015260009384529182905294909120835181546001600160a01b031916931692909217825592519192909190820190611f539082614e0c565b506040828101516002830155606083015160038301805460ff191691151591909117905560809092015160049091015551600080516020615455833981519152906001600160a01b0385169060008051602061539583398151915290611dcb908690614f21565b600080516020615475833981519152611fd281613514565b611fea6000805160206154558339815191528461240b565b15801561200c575061200a6000805160206153758339815191528461240b565b155b6120285760405162461bcd60e51b8152600401610fb390614f34565b6120406000805160206154758339815191528461240b565b1561205d5760405162461bcd60e51b8152600401610fb390614f7c565b6120756000805160206153f58339815191528461240b565b156120925760405162461bcd60e51b8152600401610fb390614ee0565b6120aa60008051602061537583398151915284613594565b506040805160a0810182526001600160a01b03858116808352602080840187815260038587015260016060860181905242608087015260009384529182905294909120835181546001600160a01b0319169316929092178255925191929091908201906121179082614e0c565b506040828101516002830155606083015160038301805460ff191691151591909117905560809092015160049091015551600080516020615375833981519152906001600160a01b0385169060008051602061539583398151915290611dcb908690614f21565b6001600160a01b0381166000908152600a60209081526040918290208054835181840281018401909452808452606093928301828280156121de57602002820191906000526020600020905b8154815260200190600101908083116121ca575b50505050509050919050565b6001600160a01b038083166000908152600160208181526040808420815160a081019092528054909516815291840180549394859490928401919061222e90614cf5565b80601f016020809104026020016040519081016040528092919081815260200182805461225a90614cf5565b80156122a75780601f1061227c576101008083540402835291602001916122a7565b820191906000526020600020905b81548152906001019060200180831161228a57829003601f168201915b505050918352505060028201546020820152600382015460ff161515604082015260049091015460609182015281015190915080156122ea575082816040015111155b949350505050565b600460205281600052604060002081815481106115cf57600080fd5b612317336110a9565b6123335760405162461bcd60e51b8152600401610fb390614fbf565b600033824260065460405160200161234e9493929190614d87565b60408051601f19818403018152828252805160209182012060808401835285845233828501818152600086860181815260608801828152858352600387528783208951815593516001808601805494511515600160a01b026001600160a81b03199095166001600160a01b0390931692909217939093179055516002909301929092558281526004855285812080549283018155815284902001829055925186815290945084916000805160206154358339815191529101611dcb565b6000918252602082815260408084206001600160a01b0393909316845291905290205460ff1690565b6000805160206153f583398151915261244c81613514565b6124646000805160206153b58339815191528461240b565b156124bc5760405162461bcd60e51b815260206004820152602260248201527f4163636f756e7420616c7265616479206861732076616c696461746f7220726f6044820152616c6560f01b6064820152608401610fb3565b6124d46000805160206153b583398151915284613594565b506040805160a0810182526001600160a01b03858116808352602080840187815260028587015260016060860181905242608087015260009384529182905294909120835181546001600160a01b0319169316929092178255925191929091908201906125419082614e0c565b506040828101516002830155606083015160038301805460ff1916911515919091179055608090920151600490910155516000805160206153b5833981519152906001600160a01b0385169060008051602061539583398151915290611dcb908690614f21565b6125c06000805160206153f58339815191523361240b565b806125de57506125de6000805160206154758339815191523361240b565b6126285760405162461bcd60e51b815260206004820152601b60248201527a4f6e6c792062616e6b732063616e2075706461746520726f6c657360281b6044820152606401610fb3565b6001600160a01b038381166000908152600160205260409020541661268e5760405162461bcd60e51b815260206004820152601c60248201527b4163636f756e7420646f6573206e6f742068617665206120726f6c6560201b6044820152606401610fb3565b6001600160a01b03831660009081526001602081905260409091209081016126b68482614e0c565b5060038101805460ff19168315151790556040516001600160a01b038516907fc4d12f4fed3c7d8e40b10b954dc4b19c26000388e17fd31b4af750dd33b41664906127049086908690614ff6565b60405180910390a250505050565b6001600160a01b0381166000908152600460209081526040918290208054835181840281018401909452808452606093928301828280156121de57602002820191906000526020600020908154815260200190600101908083116121ca5750505050509050919050565b6000805160206153f583398151915261279481613514565b6127ac6000805160206154158339815191528461240b565b156128045760405162461bcd60e51b815260206004820152602260248201527f4163636f756e7420616c72656164792068617320726567756c61746f7220726f6044820152616c6560f01b6064820152608401610fb3565b61281c60008051602061541583398151915284613594565b506040805160a0810182526001600160a01b038581168083526020808401878152600085870181905260016060870181905242608088015293815291839052949020835181546001600160a01b0319169316929092178255925191929091908201906128889082614e0c565b506040828101516002830155606083015160038301805460ff191691151591909117905560809092015160049091015551600080516020615415833981519152906001600160a01b0385169060008051602061539583398151915290611dcb908690614f21565b6128f8336110a9565b6129145760405162461bcd60e51b8152600401610fb390614fbf565b6000805b838110156129f25760006003600087878581811061293857612938614d2f565b6020908102929092013583525081019190915260400160002060018101549091506001600160a01b031633146129805760405162461bcd60e51b8152600401610fb39061501a565b6001810154600160a01b900460ff16156129ac5760405162461bcd60e51b8152600401610fb390615046565b80600201544210156129d05760405162461bcd60e51b8152600401610fb390615072565b80546129dc9084614d74565b92505080806129ea90614d5b565b915050612918565b5081811015612a3f5760405162461bcd60e51b8152602060048201526019602482015278496e73756666696369656e74205554584f2062616c616e636560381b6044820152606401610fb3565b60005b83811015612ae757600060036000878785818110612a6257612a62614d2f565b6020908102929092013583525081019190915260400160002060018101805460ff60a01b1916600160a01b1790559050858583818110612aa457612aa4614d2f565b905060200201356000805160206154b5833981519152600654604051612acc91815260200190565b60405180910390a25080612adf81614d5b565b915050612a42565b5060005b83811015612b2957612b1733868684818110612b0957612b09614d2f565b90506020020135600061361e565b80612b2181614d5b565b915050612aeb565b5050505050565b612b39826111b5565b612b4281613514565b6112ae8383613521565b612b54614409565b5060009081526003602090815260409182902082516080810184528154815260018201546001600160a01b03811693820193909352600160a01b90920460ff16151592820192909252600290910154606082015290565b600080612bba8686868661371e565b90506000600260008381526020019081526020016000206040518060a00160405290816000820154815260200160018201805480602002602001604051908101604052809291908181526020016000905b82821015612ce357838290600052602060002090600302016040518060600160405290816000820154815260200160018201548152602001600282018054612c5290614cf5565b80601f0160208091040260200160405190810160405280929190818152602001828054612c7e90614cf5565b8015612ccb5780601f10612ca057610100808354040283529160200191612ccb565b820191906000526020600020905b815481529060010190602001808311612cae57829003601f168201915b50505050508152505081526020019060010190612c0b565b50505050815260200160028201805480602002602001604051908101604052809291908181526020016000905b82821015612d755760008481526020908190206040805160808101825260038602909201805483526001808201546001600160a01b03811685870152600160a01b900460ff161515928401929092526002015460608301529083529092019101612d10565b50505090825250600382015460208201526004909101546001600160a01b03166040909101529050612da78282613fb8565b5095945050505050565b600080516020615415833981519152612dc981613514565b6011548410612e285760405162461bcd60e51b815260206004820152602560248201527f537573706963696f7573207472616e73616374696f6e20646f6573206e6f7420604482015264195e1a5cdd60da1b6064820152608401610fb3565b6000848152600b60205260409020600581015460ff1615612e8b5760405162461bcd60e51b815260206004820181905260248201527f5472616e73616374696f6e20616c726561647920696e766573746967617465646044820152606401610fb3565b60058101805460ff1916600117905560405185907f0dc3fe18d3ee6112142a07d0b7834babf72bfa23251acf78e9ed54fac34e568e90612ece9087908790614ec5565b60405180910390a28315612b295780546040513391907f407a3279e8255059d39fbfbe4bd03bf82b6c2a737c816852ca2c79b23c3bdb22906119f3908790615097565b600080516020615415833981519152612f2981613514565b60008581526005602052604090205460ff16612f845760405162461bcd60e51b815260206004820152601a602482015279151c985b9cd858dd1a5bdb88191bd95cc81b9bdd08195e1a5cdd60321b6044820152606401610fb3565b60408051602081018790526001600160601b03193360601b169181019190915242605482015260009060740160408051808303601f19018152828252805160209182012060e0840183528084528184018a815233858501908152606086018b8152608087018b90524260a088015289151560c08801526000848152600990955294909320855181559051600182015591516002830180546001600160a01b0319166001600160a01b0390921691909117905591519193508291600382019061304c9082614e0c565b50608082015160048201906130619082614e0c565b5060a082810151600583015560c0909201516006909101805491151560ff1992831617905560008981526008602090815260408083208054909416600190811790945560028252808320815195860182528054865293840180548251818502810185019093528083529395949385840193879084015b828210156131af5783829060005260206000209060030201604051806060016040529081600082015481526020016001820154815260200160028201805461311e90614cf5565b80601f016020809104026020016040519081016040528092919081815260200182805461314a90614cf5565b80156131975780601f1061316c57610100808354040283529160200191613197565b820191906000526020600020905b81548152906001019060200180831161317a57829003601f168201915b505050505081525050815260200190600101906130d7565b50505050815260200160028201805480602002602001604051908101604052809291908181526020016000905b828210156132415760008481526020908190206040805160808101825260038602909201805483526001808201546001600160a01b03811685870152600160a01b900460ff1615159284019290925260020154606083015290835290920191016131dc565b5050509082525060038201546020808301919091526004909201546001600160a01b039081166040928301526080840151166000908152600a8352818120805460018101825590825292902090910185905581015151909150156132f657600a600082604001516000815181106132ba576132ba614d2f565b6020908102919091018101518101516001600160a01b031682528181019290925260400160009081208054600181018255908252919020018390555b87836000805160206153d5833981519152878a604051613317929190614ec5565b60405180910390a36010805490600061332f83614d5b565b91905055505050505050505050565b6133896040518060e00160405280600081526020016000815260200160006001600160a01b031681526020016060815260200160608152602001600081526020016000151581525090565b600082815260096020908152604091829020825160e0810184528154815260018201549281019290925260028101546001600160a01b0316928201929092526003820180549192916060840191906133e090614cf5565b80601f016020809104026020016040519081016040528092919081815260200182805461340c90614cf5565b80156134595780601f1061342e57610100808354040283529160200191613459565b820191906000526020600020905b81548152906001019060200180831161343c57829003601f168201915b5050505050815260200160048201805461347290614cf5565b80601f016020809104026020016040519081016040528092919081815260200182805461349e90614cf5565b80156134eb5780601f106134c0576101008083540402835291602001916134eb565b820191906000526020600020905b8154815290600101906020018083116134ce57829003601f168201915b50505091835250506005820154602082015260069091015460ff16151560409091015292915050565b61351e813361435a565b50565b600061352d838361240b565b1561358c576000838152602081815260408083206001600160a01b0386168085529252808320805460ff1916905551339286917ff6391f5c32d9c69d2a47ea670b442974b53935d1edc7fd64eb21e047a839171b9190a450600161088c565b50600061088c565b60006135a0838361240b565b61358c576000838152602081815260408083206001600160a01b03861684529091529020805460ff191660011790556135d63390565b6001600160a01b0316826001600160a01b0316847f2f8788117e7eff1d82e926ec794901d17c78024a50270940304540a733656f0d60405160405180910390a450600161088c565b6001600160a01b0383166000908152600460209081526040808320815180840187905280830186905282518082038401815260609091019092528151919092012090915b8254811015613716578183828154811061367e5761367e614d2f565b906000526020600020015403613704578254839061369e906001906150d5565b815481106136ae576136ae614d2f565b90600052602060002001548382815481106136cb576136cb614d2f565b9060005260206000200181905550828054806136e9576136e96150e8565b60019003818190600052602060002001600090559055613716565b8061370e81614d5b565b915050613662565b505050505050565b6000836137625760405162461bcd60e51b8152602060048201526012602482015271139bc81a5b9c1d5d1cc81c1c9bdd9a59195960721b6044820152606401610fb3565b816137a55760405162461bcd60e51b8152602060048201526013602482015272139bc81bdd5d1c1d5d1cc81c1c9bdd9a591959606a1b6044820152606401610fb3565b6137ae336110a9565b6137ca5760405162461bcd60e51b8152600401610fb390614fbf565b6000805b8581101561399257368787838181106137e9576137e9614d2f565b90506020028101906137fb91906150fe565b803560009081526002602090815260408083206005909252909120549192509060ff166138765760405162461bcd60e51b815260206004820152602360248201527f50726576696f7573207472616e73616374696f6e20646f6573206e6f742065786044820152621a5cdd60ea1b6064820152608401610fb3565b60028101546020830135106138c45760405162461bcd60e51b8152602060048201526014602482015273092dcecc2d8d2c840deeae8e0eae840d2dcc8caf60631b6044820152606401610fb3565b6000816002018360200135815481106138df576138df614d2f565b906000526020600020906003020190508060010160149054906101000a900460ff161561391e5760405162461bcd60e51b8152600401610fb390615046565b60018101546001600160a01b0316331461394a5760405162461bcd60e51b8152600401610fb39061501a565b806002015442101561396e5760405162461bcd60e51b8152600401610fb390615072565b805461397a9086614d74565b9450505050808061398a90614d5b565b9150506137ce565b506000805b848110156139d8578585828181106139b1576139b1614d2f565b6139c49260809091020135905083614d74565b9150806139d081614d5b565b915050613997565b5081811115613a295760405162461bcd60e51b815260206004820181905260248201527f4f75747075742076616c7565206578636565647320696e7075742076616c75656044820152606401610fb3565b60005b86811015613b0c5736888883818110613a4757613a47614d2f565b9050602002810190613a5991906150fe565b8035600090815260026020818152604083209182018054949550919390850135908110613a8857613a88614d2f565b60009182526020918290206001600390920201908101805460ff60a01b198116600160a01b17909155909250613acf916001600160a01b039091169085359086013561361e565b6006546040519081528335906000805160206154b58339815191529060200160405180910390a25050508080613b0490614d5b565b915050613a2c565b506006546040516001600160601b03193360601b166020820152426034820152605481019190915260009060740160408051601f19818403018152919052805160209091012090506000876001600160401b03811115613b6e57613b6e6148af565b604051908082528060200260200182016040528015613bc357816020015b613bb060405180606001604052806000815260200160008152602001606081525090565b815260200190600190039081613b8c5790505b50905060005b88811015613c2e57898982818110613be357613be3614d2f565b9050602002810190613bf591906150fe565b613bfe9061511e565b828281518110613c1057613c10614d2f565b60200260200101819052508080613c2690614d5b565b915050613bc9565b506000866001600160401b03811115613c4957613c496148af565b604051908082528060200260200182016040528015613c8257816020015b613c6f614409565b815260200190600190039081613c675790505b50905060005b87811015613e4557888882818110613ca257613ca2614d2f565b905060800201803603810190613cb891906151a6565b828281518110613cca57613cca614d2f565b6020026020010181905250600084828b8b85818110613ceb57613ceb614d2f565b60408051602081019690965285019390935250608091820201356060830152016040516020818303038152906040528051906020012060001c9050898983818110613d3857613d38614d2f565b905060800201600360008381526020019081526020016000208181613d5d919061521a565b905050600460008b8b85818110613d7657613d76614d2f565b9050608002016020016020810190613d8e91906147bf565b6001600160a01b031681526020808201929092526040016000908120805460018101825590825291902001819055898983818110613dce57613dce614d2f565b9050608002016020016020810190613de691906147bf565b6001600160a01b0316816000805160206154358339815191528c8c86818110613e1157613e11614d2f565b90506080020160000135604051613e2a91815260200190565b60405180910390a35080613e3d81614d5b565b915050613c88565b50600083815260026020526040812084815542600382015560040180546001600160a01b031916331790555b89811015613ee55760008481526002602052604090206001018b8b83818110613e9c57613e9c614d2f565b9050602002810190613eae91906150fe565b815460018101835560009283526020909220909160030201613ed08282615278565b50508080613edd90614d5b565b915050613e71565b5060005b87811015613f5857600084815260026020819052604090912001898983818110613f1557613f15614d2f565b835460018101855560009485526020909420608090910292909201926003029091019050613f43828261521a565b50508080613f5090614d5b565b915050613ee9565b506000838152600560205260408120805460ff191660011790556006805491613f8083614d5b565b9091555050604051878152339084906000805160206154958339815191529060200160405180910390a3509098975050505050505050565b604080516020810190915260008082529081805b84604001515181101561401a5784604001518181518110613fef57613fef614d2f565b602002602001015160000151826140069190614d74565b91508061401281614d5b565b915050613fcc565b50600c5481111561405d57600192506040518060400160405280601881526020017713185c99d9481d1c985b9cd858dd1a5bdb88185b5bdd5b9d60421b81525091505b60808401516001600160a01b03166000908152600f6020526040902054610e109061408890426150d5565b101561411b5760808401516001600160a01b03166000908152600e602052604081208054916140b683614d5b565b9091555050600d5460808501516001600160a01b03166000908152600e602052604090205411156141165760019250604051806040016040528060158152602001744672657175656e74207472616e73616374696f6e7360581b81525091505b614152565b6080840180516001600160a01b039081166000908152600f6020908152604080832042905593519092168152600e90915220600190555b60005b8460400151518110156141e6578460400151818151811061417857614178614d2f565b6020026020010151602001516001600160a01b031685608001516001600160a01b0316036141d457600193506040518060400160405280601081526020016f29b2b633103a3930b739b0b1ba34b7b760811b81525092506141e6565b806141de81614d5b565b915050614155565b508215612b29576011546040805160e08101825287815260808701516001600160a01b03166020820152868201515160009282019061422657600061424a565b876040015160008151811061423d5761423d614d2f565b6020026020010151602001515b6001600160a01b039081168252602080830187905260408084018990526000606080860182905242608096870152888252600b84529082902086518155928601516001840180549186166001600160a01b0319928316179055918601516002840180549190951692169190911790925590830151600382015590820151919250829160048201906142db9082614e0c565b5060a082015160058201805460ff191691151591909117905560c090910151600690910155604051879083907f2c528baec717c6124a7b6043e8e53f0427fa6a08364005237dd6eae932153c1a90614334908890614f21565b60405180910390a36011805490600061434c83614d5b565b919050555050505050505050565b614364828261240b565b6143935760405163e2517d3f60e01b81526001600160a01b038216600482015260248101839052604401610fb3565b5050565b6040518060a001604052806000815260200160608152602001606081526020016000815260200160006001600160a01b031681525090565b5080546143db90614cf5565b6000825580601f106143eb575050565b601f01602090049060005260206000209081019061351e919061443c565b60405180608001604052806000815260200160006001600160a01b03168152602001600015158152602001600081525090565b5b80821115614451576000815560010161443d565b5090565b60006020828403121561446757600080fd5b81356001600160e01b0319811681146111ae57600080fd5b60006020828403121561449157600080fd5b5035919050565b6000815180845260005b818110156144be576020818501810151868301820152016144a2565b506000602082860101526020601f19601f83011685010191505092915050565b87815286602082015260018060a01b038616604082015260e06060820152600061450b60e0830187614498565b828103608084015261451d8187614498565b60a0840195909552505090151560c09091015295945050505050565b60208152815160208201526000602083015160018060a01b038082166040850152806040860151166060850152505060608301516080830152608083015160e060a084015261458c610100840182614498565b905060a0840151151560c084015260c084015160e08401528091505092915050565b6001600160a01b038116811461351e57600080fd5b6000806000606084860312156145d857600080fd5b83356145e3816145ae565b95602085013595506040909401359392505050565b805182526020808201516001600160a01b031690830152604080820151151590830152606090810151910152565b600081518084526020808501945080840160005b838110156146605761464d8783516145f8565b608096909601959082019060010161463a565b509495945050505050565b600060a083018251845260208084015160a08287015282815180855260c08801915060c08160051b8901019450838301925060005b818110156146ee5788860360bf1901835283518051875285810151868801526040908101516060918801829052906146da81890183614498565b9750505092840192918401916001016146a0565b50505050506040830151848203604086015261470a8282614626565b91505060608301516060850152608083015161157360808601826001600160a01b03169052565b6000602080830181845280855180835260408601915060408160051b870101925083870160005b8281101561478657603f1988860301845261477485835161466b565b94509285019290850190600101614758565b5092979650505050505050565b600080604083850312156147a657600080fd5b82356147b1816145ae565b946020939093013593505050565b6000602082840312156147d157600080fd5b81356111ae816145ae565b6001600160a01b038616815260a06020820181905260009061480090830187614498565b604083019590955250911515606083015260809091015292915050565b6000806040838503121561483057600080fd5b823591506020830135614842816145ae565b809150509250929050565b6020815260006111ae602083018461466b565b8781526001600160a01b038781166020830152861660408201526060810185905260e06080820181905260009061489990830186614498565b93151560a08301525060c0015295945050505050565b634e487b7160e01b600052604160045260246000fd5b60006001600160401b03808411156148df576148df6148af565b604051601f8501601f19908116603f01168101908282118183101715614907576149076148af565b8160405280935085815286868601111561492057600080fd5b858560208301376000602087830101525050509392505050565b600082601f83011261494b57600080fd5b6111ae838335602085016148c5565b6000806040838503121561496d57600080fd5b8235614978816145ae565b915060208301356001600160401b0381111561499357600080fd5b61499f8582860161493a565b9150509250929050565b6020808252825182820181905260009190848201906040850190845b818110156149e1578351835292840192918401916001016149c5565b50909695505050505050565b801515811461351e57600080fd5b600080600060608486031215614a1057600080fd5b8335614a1b816145ae565b925060208401356001600160401b03811115614a3657600080fd5b614a428682870161493a565b9250506040840135614a53816149ed565b809150509250925092565b60008083601f840112614a7057600080fd5b5081356001600160401b03811115614a8757600080fd5b6020830191508360208260051b8501011115614aa257600080fd5b9250929050565b600080600060408486031215614abe57600080fd5b83356001600160401b03811115614ad457600080fd5b614ae086828701614a5e565b909790965060209590950135949350505050565b6080810161088c82846145f8565b60008060008060408587031215614b1857600080fd5b84356001600160401b0380821115614b2f57600080fd5b614b3b88838901614a5e565b90965094506020870135915080821115614b5457600080fd5b818701915087601f830112614b6857600080fd5b813581811115614b7757600080fd5b8860208260071b8501011115614b8c57600080fd5b95989497505060200194505050565b600080600060608486031215614bb057600080fd5b833592506020840135614bc2816149ed565b915060408401356001600160401b03811115614bdd57600080fd5b614be98682870161493a565b9150509250925092565b60008060008060808587031215614c0957600080fd5b8435935060208501356001600160401b0380821115614c2757600080fd5b614c338883890161493a565b94506040870135915080821115614c4957600080fd5b50614c568782880161493a565b9250506060850135614c67816149ed565b939692955090935050565b60208152815160208201526020820151604082015260018060a01b0360408301511660608201526000606083015160e06080840152614cb5610100840182614498565b90506080840151601f198483030160a0850152614cd28282614498565b91505060a084015160c084015260c0840151151560e08401528091505092915050565b600181811c90821680614d0957607f821691505b602082108103614d2957634e487b7160e01b600052602260045260246000fd5b50919050565b634e487b7160e01b600052603260045260246000fd5b634e487b7160e01b600052601160045260246000fd5b600060018201614d6d57614d6d614d45565b5060010190565b8082018082111561088c5761088c614d45565b60609490941b6001600160601b031916845260148401929092526034830152605482015260740190565b601f8211156115ae57600081815260208120601f850160051c81016020861015614dd85750805b601f850160051c820191505b8181101561371657828155600101614de4565b600019600383901b1c191660019190911b1790565b81516001600160401b03811115614e2557614e256148af565b614e3981614e338454614cf5565b84614db1565b602080601f831160018114614e685760008415614e565750858301515b614e608582614df7565b865550613716565b600085815260208120601f198616915b82811015614e9757888601518255948401946001909101908401614e78565b5085821015614eb55787850151600019600388901b60f8161c191681555b5050505050600190811b01905550565b82151581526040602082015260006122ea6040830184614498565b60208082526021908201527f4163636f756e7420697320616c72656164792061207072696d6172792062616e6040820152606b60f81b606082015260800190565b6020815260006111ae6020830184614498565b60208082526028908201527f4163636f756e7420616c72656164792068617320757365722f656e746572707260408201526769736520726f6c6560c01b606082015260800190565b60208082526023908201527f4163636f756e7420697320616c72656164792061207365636f6e646172792062604082015262616e6b60e81b606082015260800190565b6020808252601d908201527f53656e646572206d757374206861766520612076616c696420726f6c65000000604082015260600190565b6040815260006150096040830185614498565b905082151560208301529392505050565b6020808252601290820152712737ba103a3432902aaa2c279037bbb732b960711b604082015260600190565b60208082526012908201527115551613c8185b1c9958591e481cdc195b9d60721b604082015260600190565b6020808252600b908201526a15551613c81b1bd8dad95960aa1b604082015260600190565b604081526014604082015273436f6e6669726d656420737573706963696f757360601b60608201526080602082015260006111ae6080830184614498565b8181038181111561088c5761088c614d45565b634e487b7160e01b600052603160045260246000fd5b60008235605e1983360301811261511457600080fd5b9190910192915050565b60006060823603121561513057600080fd5b604051606081016001600160401b038082118383101715615153576151536148af565b816040528435835260208501356020840152604085013591508082111561517957600080fd5b50830136601f82011261518b57600080fd5b61519a368235602084016148c5565b60408301525092915050565b6000608082840312156151b857600080fd5b604051608081016001600160401b03811182821017156151da576151da6148af565b6040528235815260208301356151ef816145ae565b60208201526040830135615202816149ed565b60408201526060928301359281019290925250919050565b81358155600181016020830135615230816145ae565b81546040850135615240816149ed565b60ff60a01b90151560a01b166001600160a01b03929092166001600160a81b0319919091161717905560609190910135600290910155565b81358155600160208084013582840155600283016040850135601e198636030181126152a357600080fd5b850180356001600160401b038111156152bb57600080fd5b80360384830113156152cc57600080fd5b6152e0816152da8554614cf5565b85614db1565b6000601f82116001811461531057600083156152fe57508382018601355b6153088482614df7565b865550615369565b600085815260209020601f19841690835b8281101561534057868501890135825593880193908901908801615321565b508482101561535f5760001960f88660031b161c198885880101351681555b50508683881b0185555b50505050505050505056fe920994fc3bfe282f3f20cdccf1b7c5e46c63d963e822d98efff90abd41c12e21988ad249a3a578f3ca7b7f03da9ffdb25c0f9bf3684a5b8aac97d04fc81c210721702c8af46127c7fa207f89d0b0a8441bb32959a0ac7df790e9ab1a25c989269c1f2f4d9a91fdd6d73321b3b584a7616489b99e827fd80f998abd6f379a412932d3b416b1e958137aa50d8c4ebe23bc919d27a2c40d6db677d85d5bfe33c83020b5f7ac978e5d6199de06401411960dfa81d2f762655f6206bdc61d46fc19e60d0e53201021716a89723fe8a67e0588c5489401e7faeed5379e5208272869ac14823911f2da1b49f045a0929a60b8c1f2a7fc8c06c7284ca3e8ab4e193a08c8179cfeea70bfbadfc00a9b19f8cc0d49ab2a2b6854d11ba2149c788f659e83acfd27d176b6ebb21e0182c0e43df5818e0d632867e1eb47c383c58d221205fce302129d52c426ac1b8bb3670045c8d2212568f7f40b498c5424c57dc5691c22a1a26469706673582212209c31350e8414d7f2ad34b304c19b5b3e22fd0246d2024ff73fa387d441acc88664736f6c6343000814003332d3b416b1e958137aa50d8c4ebe23bc919d27a2c40d6db677d85d5bfe33c830","opcodes":"PUSH1 0x80 PUSH1 0x40 MSTORE PUSH10 0x152D02C7E14AF6800000 PUSH1 0xC SSTORE PUSH1 0xA PUSH1 0xD SSTORE CALLVALUE DUP1 ISZERO PUSH3 0x24 JUMPI PUSH1 0x0 DUP1 REVERT JUMPDEST POP PUSH3 0x32 PUSH1 0x0 CALLER PUSH3 0x18E JUMP JUMPDEST POP PUSH3 0x4E PUSH1 0x0 DUP1 MLOAD PUSH1 0x20 PUSH3 0x58C8 DUP4 CODECOPY DUP2 MLOAD SWAP2 MSTORE CALLER PUSH3 0x18E JUMP JUMPDEST POP PUSH1 0x40 DUP1 MLOAD PUSH1 0xA0 DUP2 ADD DUP3 MSTORE CALLER DUP1 DUP3 MSTORE DUP3 MLOAD DUP1 DUP5 ADD DUP5 MSTORE PUSH1 0xB DUP2 MSTORE PUSH11 0x5072696D61727942616E6B PUSH1 0xA8 SHL PUSH1 0x20 DUP1 DUP4 ADD SWAP2 SWAP1 SWAP2 MSTORE DUP1 DUP5 ADD SWAP2 DUP3 MSTORE PUSH1 0x1 DUP5 DUP7 ADD DUP2 SWAP1 MSTORE PUSH1 0x60 DUP6 ADD DUP2 SWAP1 MSTORE TIMESTAMP PUSH1 0x80 DUP7 ADD MSTORE PUSH1 0x0 SWAP4 DUP5 MSTORE SWAP1 DUP2 SWAP1 MSTORE SWAP4 SWAP1 SWAP2 KECCAK256 DUP3 MLOAD DUP2 SLOAD PUSH1 0x1 PUSH1 0x1 PUSH1 0xA0 SHL SUB NOT AND PUSH1 0x1 PUSH1 0x1 PUSH1 0xA0 SHL SUB SWAP1 SWAP2 AND OR DUP2 SSTORE SWAP1 MLOAD SWAP2 SWAP3 SWAP1 SWAP2 SWAP1 DUP3 ADD SWAP1 PUSH3 0xDA SWAP1 DUP3 PUSH3 0x2E2 JUMP JUMPDEST POP PUSH1 0x40 DUP3 DUP2 ADD MLOAD PUSH1 0x2 DUP4 ADD SSTORE PUSH1 0x60 DUP4 ADD MLOAD PUSH1 0x3 DUP4 ADD DUP1 SLOAD SWAP2 ISZERO ISZERO PUSH1 0xFF NOT SWAP1 SWAP3 AND SWAP2 SWAP1 SWAP2 OR SWAP1 SSTORE PUSH1 0x80 SWAP1 SWAP3 ADD MLOAD PUSH1 0x4 SWAP1 SWAP2 ADD SSTORE MLOAD PUSH1 0x0 DUP1 MLOAD PUSH1 0x20 PUSH3 0x58C8 DUP4 CODECOPY DUP2 MLOAD SWAP2 MSTORE SWAP1 CALLER SWAP1 PUSH32 0x988AD249A3A578F3CA7B7F03DA9FFDB25C0F9BF3684A5B8AAC97D04FC81C2107 SWAP1 PUSH3 0x16C SWAP1 PUSH1 0x20 DUP1 DUP3 MSTORE PUSH1 0xB SWAP1 DUP3 ADD MSTORE PUSH11 0x5072696D61727942616E6B PUSH1 0xA8 SHL PUSH1 0x40 DUP3 ADD MSTORE PUSH1 0x60 ADD SWAP1 JUMP JUMPDEST PUSH1 0x40 MLOAD DUP1 SWAP2 SUB SWAP1 LOG3 PUSH1 0x0 PUSH1 0x6 DUP2 SWAP1 SSTORE PUSH1 0x7 DUP2 SWAP1 SSTORE PUSH1 0x10 DUP2 SWAP1 SSTORE PUSH1 0x11 SSTORE PUSH3 0x3AE JUMP JUMPDEST PUSH1 0x0 DUP3 DUP2 MSTORE PUSH1 0x20 DUP2 DUP2 MSTORE PUSH1 0x40 DUP1 DUP4 KECCAK256 PUSH1 0x1 PUSH1 0x1 PUSH1 0xA0 SHL SUB DUP6 AND DUP5 MSTORE SWAP1 SWAP2 MSTORE DUP2 KECCAK256 SLOAD PUSH1 0xFF AND PUSH3 0x233 JUMPI PUSH1 0x0 DUP4 DUP2 MSTORE PUSH1 0x20 DUP2 DUP2 MSTORE PUSH1 0x40 DUP1 DUP4 KECCAK256 PUSH1 0x1 PUSH1 0x1 PUSH1 0xA0 SHL SUB DUP7 AND DUP5 MSTORE SWAP1 SWAP2 MSTORE SWAP1 KECCAK256 DUP1 SLOAD PUSH1 0xFF NOT AND PUSH1 0x1 OR SWAP1 SSTORE PUSH3 0x1EA CALLER SWAP1 JUMP JUMPDEST PUSH1 0x1 PUSH1 0x1 PUSH1 0xA0 SHL SUB AND DUP3 PUSH1 0x1 PUSH1 0x1 PUSH1 0xA0 SHL SUB AND DUP5 PUSH32 0x2F8788117E7EFF1D82E926EC794901D17C78024A50270940304540A733656F0D PUSH1 0x40 MLOAD PUSH1 0x40 MLOAD DUP1 SWAP2 SUB SWAP1 LOG4 POP PUSH1 0x1 PUSH3 0x237 JUMP JUMPDEST POP PUSH1 0x0 JUMPDEST SWAP3 SWAP2 POP POP JUMP JUMPDEST PUSH4 0x4E487B71 PUSH1 0xE0 SHL PUSH1 0x0 MSTORE PUSH1 0x41 PUSH1 0x4 MSTORE PUSH1 0x24 PUSH1 0x0 REVERT JUMPDEST PUSH1 0x1 DUP2 DUP2 SHR SWAP1 DUP3 AND DUP1 PUSH3 0x268 JUMPI PUSH1 0x7F DUP3 AND SWAP2 POP JUMPDEST PUSH1 0x20 DUP3 LT DUP2 SUB PUSH3 0x289 JUMPI PUSH4 0x4E487B71 PUSH1 0xE0 SHL PUSH1 0x0 MSTORE PUSH1 0x22 PUSH1 0x4 MSTORE PUSH1 0x24 PUSH1 0x0 REVERT JUMPDEST POP SWAP2 SWAP1 POP JUMP JUMPDEST PUSH1 0x1F DUP3 GT ISZERO PUSH3 0x2DD JUMPI PUSH1 0x0 DUP2 DUP2 MSTORE PUSH1 0x20 DUP2 KECCAK256 PUSH1 0x1F DUP6 ADD PUSH1 0x5 SHR DUP2 ADD PUSH1 0x20 DUP7 LT ISZERO PUSH3 0x2B8 JUMPI POP DUP1 JUMPDEST PUSH1 0x1F DUP6 ADD PUSH1 0x5 SHR DUP3 ADD SWAP2 POP JUMPDEST DUP2 DUP2 LT ISZERO PUSH3 0x2D9 JUMPI DUP3 DUP2 SSTORE PUSH1 0x1 ADD PUSH3 0x2C4 JUMP JUMPDEST POP POP POP JUMPDEST POP POP POP JUMP JUMPDEST DUP2 MLOAD PUSH1 0x1 PUSH1 0x1 PUSH1 0x40 SHL SUB DUP2 GT ISZERO PUSH3 0x2FE JUMPI PUSH3 0x2FE PUSH3 0x23D JUMP JUMPDEST PUSH3 0x316 DUP2 PUSH3 0x30F DUP5 SLOAD PUSH3 0x253 JUMP JUMPDEST DUP5 PUSH3 0x28F JUMP JUMPDEST PUSH1 0x20 DUP1 PUSH1 0x1F DUP4 GT PUSH1 0x1 DUP2 EQ PUSH3 0x34E JUMPI PUSH1 0x0 DUP5 ISZERO PUSH3 0x335 JUMPI POP DUP6 DUP4 ADD MLOAD JUMPDEST PUSH1 0x0 NOT PUSH1 0x3 DUP7 SWAP1 SHL SHR NOT AND PUSH1 0x1 DUP6 SWAP1 SHL OR DUP6 SSTORE PUSH3 0x2D9 JUMP JUMPDEST PUSH1 0x0 DUP6 DUP2 MSTORE PUSH1 0x20 DUP2 KECCAK256 PUSH1 0x1F NOT DUP7 AND SWAP2 JUMPDEST DUP3 DUP2 LT ISZERO PUSH3 0x37F JUMPI DUP9 DUP7 ADD MLOAD DUP3 SSTORE SWAP5 DUP5 ADD SWAP5 PUSH1 0x1 SWAP1 SWAP2 ADD SWAP1 DUP5 ADD PUSH3 0x35E JUMP JUMPDEST POP DUP6 DUP3 LT ISZERO PUSH3 0x39E JUMPI DUP8 DUP6 ADD MLOAD PUSH1 0x0 NOT PUSH1 0x3 DUP9 SWAP1 SHL PUSH1 0xF8 AND SHR NOT AND DUP2 SSTORE JUMPDEST POP POP POP POP POP PUSH1 0x1 SWAP1 DUP2 SHL ADD SWAP1 SSTORE POP JUMP JUMPDEST PUSH2 0x550A DUP1 PUSH3 0x3BE PUSH1 0x0 CODECOPY PUSH1 0x0 RETURN INVALID PUSH1 0x80 PUSH1 0x40 MSTORE CALLVALUE DUP1 ISZERO PUSH2 0x10 JUMPI PUSH1 0x0 DUP1 REVERT JUMPDEST POP PUSH1 0x4 CALLDATASIZE LT PUSH2 0x29E JUMPI PUSH1 0x0 CALLDATALOAD PUSH1 0xE0 SHR DUP1 PUSH4 0x1FFC9A7 EQ PUSH2 0x2A3 JUMPI DUP1 PUSH4 0xDAF71AC EQ PUSH2 0x2CB JUMPI DUP1 PUSH4 0x13119161 EQ PUSH2 0x2F1 JUMPI DUP1 PUSH4 0x144BF589 EQ PUSH2 0x314 JUMPI DUP1 PUSH4 0x16D6D2C4 EQ PUSH2 0x329 JUMPI DUP1 PUSH4 0x17302EB9 EQ PUSH2 0x349 JUMPI DUP1 PUSH4 0x18160DDD EQ PUSH2 0x35E JUMPI DUP1 PUSH4 0x197277FD EQ PUSH2 0x367 JUMPI DUP1 PUSH4 0x208DD1FF EQ PUSH2 0x387 JUMPI DUP1 PUSH4 0x217B8EE9 EQ PUSH2 0x39A JUMPI DUP1 PUSH4 0x248A9CA3 EQ PUSH2 0x3AD JUMPI DUP1 PUSH4 0x24F13320 EQ PUSH2 0x3C0 JUMPI DUP1 PUSH4 0x2F2FF15D EQ PUSH2 0x3E4 JUMPI DUP1 PUSH4 0x32CB6B0C EQ PUSH2 0x3F7 JUMPI DUP1 PUSH4 0x33EA3DC8 EQ PUSH2 0x409 JUMPI DUP1 PUSH4 0x3409D8F6 EQ PUSH2 0x429 JUMPI DUP1 PUSH4 0x35046722 EQ PUSH2 0x44C JUMPI DUP1 PUSH4 0x36568ABE EQ PUSH2 0x45F JUMPI DUP1 PUSH4 0x3CEAF7E9 EQ PUSH2 0x472 JUMPI DUP1 PUSH4 0x3FD4C11B EQ PUSH2 0x485 JUMPI DUP1 PUSH4 0x40C10F19 EQ PUSH2 0x4AB JUMPI DUP1 PUSH4 0x5A3C61EB EQ PUSH2 0x4BE JUMPI DUP1 PUSH4 0x5CEAD0E9 EQ PUSH2 0x4D1 JUMPI DUP1 PUSH4 0x612999D5 EQ PUSH2 0x4E4 JUMPI DUP1 PUSH4 0x658A4823 EQ PUSH2 0x4F7 JUMPI DUP1 PUSH4 0x68DD17A5 EQ PUSH2 0x50A JUMPI DUP1 PUSH4 0x7304C588 EQ PUSH2 0x51F JUMPI DUP1 PUSH4 0x74F079B8 EQ PUSH2 0x532 JUMPI DUP1 PUSH4 0x76AD18B9 EQ PUSH2 0x53B JUMPI DUP1 PUSH4 0x780991BD EQ PUSH2 0x55B JUMPI DUP1 PUSH4 0x7B19F48C EQ PUSH2 0x564 JUMPI DUP1 PUSH4 0x7C0F8882 EQ PUSH2 0x56D JUMPI DUP1 PUSH4 0x8001CFE5 EQ PUSH2 0x580 JUMPI DUP1 PUSH4 0x81591387 EQ PUSH2 0x593 JUMPI DUP1 PUSH4 0x81693D27 EQ PUSH2 0x606 JUMPI DUP1 PUSH4 0x8805CE35 EQ PUSH2 0x60F JUMPI DUP1 PUSH4 0x8E598F18 EQ PUSH2 0x622 JUMPI DUP1 PUSH4 0x91D14854 EQ PUSH2 0x645 JUMPI DUP1 PUSH4 0x95706957 EQ PUSH2 0x658 JUMPI DUP1 PUSH4 0x9859199D EQ PUSH2 0x66B JUMPI DUP1 PUSH4 0x9ACE38C2 EQ PUSH2 0x67E JUMPI DUP1 PUSH4 0xA217FDDF EQ PUSH2 0x6DA JUMPI DUP1 PUSH4 0xA43EF956 EQ PUSH2 0x6E2 JUMPI DUP1 PUSH4 0xB9BC38F2 EQ PUSH2 0x6F5 JUMPI DUP1 PUSH4 0xC2F959C3 EQ PUSH2 0x6FE JUMPI DUP1 PUSH4 0xC49BAEBE EQ PUSH2 0x71E JUMPI DUP1 PUSH4 0xC5FBB610 EQ PUSH2 0x733 JUMPI DUP1 PUSH4 0xC8AEE754 EQ PUSH2 0x748 JUMPI DUP1 PUSH4 0xCF850C8D EQ PUSH2 0x774 JUMPI DUP1 PUSH4 0xD3138255 EQ PUSH2 0x787 JUMPI DUP1 PUSH4 0xD547741F EQ PUSH2 0x79A JUMPI DUP1 PUSH4 0xD980D735 EQ PUSH2 0x7AD JUMPI DUP1 PUSH4 0xE0B99A2D EQ PUSH2 0x7CD JUMPI DUP1 PUSH4 0xE206BA50 EQ PUSH2 0x7E0 JUMPI DUP1 PUSH4 0xECC6152C EQ PUSH2 0x7F5 JUMPI DUP1 PUSH4 0xF74577D5 EQ PUSH2 0x808 JUMPI DUP1 PUSH4 0xF8031E90 EQ PUSH2 0x81B JUMPI DUP1 PUSH4 0xFFE4C2D3 EQ PUSH2 0x83B JUMPI JUMPDEST PUSH1 0x0 DUP1 REVERT JUMPDEST PUSH2 0x2B6 PUSH2 0x2B1 CALLDATASIZE PUSH1 0x4 PUSH2 0x4455 JUMP JUMPDEST PUSH2 0x85B JUMP JUMPDEST PUSH1 0x40 MLOAD SWAP1 ISZERO ISZERO DUP2 MSTORE PUSH1 0x20 ADD JUMPDEST PUSH1 0x40 MLOAD DUP1 SWAP2 SUB SWAP1 RETURN JUMPDEST PUSH2 0x2DE PUSH2 0x2D9 CALLDATASIZE PUSH1 0x4 PUSH2 0x447F JUMP JUMPDEST PUSH2 0x892 JUMP JUMPDEST PUSH1 0x40 MLOAD PUSH2 0x2C2 SWAP8 SWAP7 SWAP6 SWAP5 SWAP4 SWAP3 SWAP2 SWAP1 PUSH2 0x44DE JUMP JUMPDEST PUSH2 0x306 PUSH1 0x0 DUP1 MLOAD PUSH1 0x20 PUSH2 0x5455 DUP4 CODECOPY DUP2 MLOAD SWAP2 MSTORE DUP2 JUMP JUMPDEST PUSH1 0x40 MLOAD SWAP1 DUP2 MSTORE PUSH1 0x20 ADD PUSH2 0x2C2 JUMP JUMPDEST PUSH2 0x306 PUSH1 0x0 DUP1 MLOAD PUSH1 0x20 PUSH2 0x5415 DUP4 CODECOPY DUP2 MLOAD SWAP2 MSTORE DUP2 JUMP JUMPDEST PUSH2 0x33C PUSH2 0x337 CALLDATASIZE PUSH1 0x4 PUSH2 0x447F JUMP JUMPDEST PUSH2 0x9ED JUMP JUMPDEST PUSH1 0x40 MLOAD PUSH2 0x2C2 SWAP2 SWAP1 PUSH2 0x4539 JUMP JUMPDEST PUSH2 0x35C PUSH2 0x357 CALLDATASIZE PUSH1 0x4 PUSH2 0x447F JUMP JUMPDEST PUSH2 0xB2D JUMP JUMPDEST STOP JUMPDEST PUSH2 0x306 PUSH1 0x7 SLOAD DUP2 JUMP JUMPDEST PUSH2 0x37A PUSH2 0x375 CALLDATASIZE PUSH1 0x4 PUSH2 0x45C3 JUMP JUMPDEST PUSH2 0xB4B JUMP JUMPDEST PUSH1 0x40 MLOAD PUSH2 0x2C2 SWAP2 SWAP1 PUSH2 0x4731 JUMP JUMPDEST PUSH2 0x35C PUSH2 0x395 CALLDATASIZE PUSH1 0x4 PUSH2 0x4793 JUMP JUMPDEST PUSH2 0xF48 JUMP JUMPDEST PUSH2 0x2B6 PUSH2 0x3A8 CALLDATASIZE PUSH1 0x4 PUSH2 0x47BF JUMP JUMPDEST PUSH2 0x10A9 JUMP JUMPDEST PUSH2 0x306 PUSH2 0x3BB CALLDATASIZE PUSH1 0x4 PUSH2 0x447F JUMP JUMPDEST PUSH2 0x11B5 JUMP JUMPDEST PUSH2 0x3D3 PUSH2 0x3CE CALLDATASIZE PUSH1 0x4 PUSH2 0x47BF JUMP JUMPDEST PUSH2 0x11CA JUMP JUMPDEST PUSH1 0x40 MLOAD PUSH2 0x2C2 SWAP6 SWAP5 SWAP4 SWAP3 SWAP2 SWAP1 PUSH2 0x47DC JUMP JUMPDEST PUSH2 0x35C PUSH2 0x3F2 CALLDATASIZE PUSH1 0x4 PUSH2 0x481D JUMP JUMPDEST PUSH2 0x1292 JUMP JUMPDEST PUSH2 0x306 PUSH8 0x6765C793FA10079D PUSH1 0x1B SHL DUP2 JUMP JUMPDEST PUSH2 0x41C PUSH2 0x417 CALLDATASIZE PUSH1 0x4 PUSH2 0x447F JUMP JUMPDEST PUSH2 0x12B4 JUMP JUMPDEST PUSH1 0x40 MLOAD PUSH2 0x2C2 SWAP2 SWAP1 PUSH2 0x484D JUMP JUMPDEST PUSH2 0x2B6 PUSH2 0x437 CALLDATASIZE PUSH1 0x4 PUSH2 0x447F JUMP JUMPDEST PUSH1 0x5 PUSH1 0x20 MSTORE PUSH1 0x0 SWAP1 DUP2 MSTORE PUSH1 0x40 SWAP1 KECCAK256 SLOAD PUSH1 0xFF AND DUP2 JUMP JUMPDEST PUSH2 0x306 PUSH2 0x45A CALLDATASIZE PUSH1 0x4 PUSH2 0x47BF JUMP JUMPDEST PUSH2 0x149F JUMP JUMPDEST PUSH2 0x35C PUSH2 0x46D CALLDATASIZE PUSH1 0x4 PUSH2 0x481D JUMP JUMPDEST PUSH2 0x157B JUMP JUMPDEST PUSH2 0x306 PUSH2 0x480 CALLDATASIZE PUSH1 0x4 PUSH2 0x4793 JUMP JUMPDEST PUSH2 0x15B3 JUMP JUMPDEST PUSH2 0x498 PUSH2 0x493 CALLDATASIZE PUSH1 0x4 PUSH2 0x447F JUMP JUMPDEST PUSH2 0x15E4 JUMP JUMPDEST PUSH1 0x40 MLOAD PUSH2 0x2C2 SWAP8 SWAP7 SWAP6 SWAP5 SWAP4 SWAP3 SWAP2 SWAP1 PUSH2 0x4860 JUMP JUMPDEST PUSH2 0x35C PUSH2 0x4B9 CALLDATASIZE PUSH1 0x4 PUSH2 0x4793 JUMP JUMPDEST PUSH2 0x16BA JUMP JUMPDEST PUSH2 0x306 PUSH2 0x4CC CALLDATASIZE PUSH1 0x4 PUSH2 0x495A JUMP JUMPDEST PUSH2 0x1A02 JUMP JUMPDEST PUSH2 0x35C PUSH2 0x4DF CALLDATASIZE PUSH1 0x4 PUSH2 0x495A JUMP JUMPDEST PUSH2 0x1C1D JUMP JUMPDEST PUSH2 0x35C PUSH2 0x4F2 CALLDATASIZE PUSH1 0x4 PUSH2 0x447F JUMP JUMPDEST PUSH2 0x1DD8 JUMP JUMPDEST PUSH2 0x35C PUSH2 0x505 CALLDATASIZE PUSH1 0x4 PUSH2 0x495A JUMP JUMPDEST PUSH2 0x1DF6 JUMP JUMPDEST PUSH2 0x306 PUSH1 0x0 DUP1 MLOAD PUSH1 0x20 PUSH2 0x5375 DUP4 CODECOPY DUP2 MLOAD SWAP2 MSTORE DUP2 JUMP JUMPDEST PUSH2 0x35C PUSH2 0x52D CALLDATASIZE PUSH1 0x4 PUSH2 0x495A JUMP JUMPDEST PUSH2 0x1FBA JUMP JUMPDEST PUSH2 0x306 PUSH1 0x6 SLOAD DUP2 JUMP JUMPDEST PUSH2 0x54E PUSH2 0x549 CALLDATASIZE PUSH1 0x4 PUSH2 0x47BF JUMP JUMPDEST PUSH2 0x217E JUMP JUMPDEST PUSH1 0x40 MLOAD PUSH2 0x2C2 SWAP2 SWAP1 PUSH2 0x49A9 JUMP JUMPDEST PUSH2 0x306 PUSH1 0xD SLOAD DUP2 JUMP JUMPDEST PUSH2 0x306 PUSH1 0x11 SLOAD DUP2 JUMP JUMPDEST PUSH2 0x2B6 PUSH2 0x57B CALLDATASIZE PUSH1 0x4 PUSH2 0x4793 JUMP JUMPDEST PUSH2 0x21EA JUMP JUMPDEST PUSH2 0x306 PUSH2 0x58E CALLDATASIZE PUSH1 0x4 PUSH2 0x4793 JUMP JUMPDEST PUSH2 0x22F2 JUMP JUMPDEST PUSH2 0x5D8 PUSH2 0x5A1 CALLDATASIZE PUSH1 0x4 PUSH2 0x447F JUMP JUMPDEST PUSH1 0x3 PUSH1 0x20 MSTORE PUSH1 0x0 SWAP1 DUP2 MSTORE PUSH1 0x40 SWAP1 KECCAK256 DUP1 SLOAD PUSH1 0x1 DUP3 ADD SLOAD PUSH1 0x2 SWAP1 SWAP3 ADD SLOAD SWAP1 SWAP2 PUSH1 0x1 PUSH1 0x1 PUSH1 0xA0 SHL SUB DUP2 AND SWAP2 PUSH1 0x1 PUSH1 0xA0 SHL SWAP1 SWAP2 DIV PUSH1 0xFF AND SWAP1 DUP5 JUMP JUMPDEST PUSH1 0x40 DUP1 MLOAD SWAP5 DUP6 MSTORE PUSH1 0x1 PUSH1 0x1 PUSH1 0xA0 SHL SUB SWAP1 SWAP4 AND PUSH1 0x20 DUP6 ADD MSTORE SWAP1 ISZERO ISZERO SWAP2 DUP4 ADD SWAP2 SWAP1 SWAP2 MSTORE PUSH1 0x60 DUP3 ADD MSTORE PUSH1 0x80 ADD PUSH2 0x2C2 JUMP JUMPDEST PUSH2 0x306 PUSH1 0xC SLOAD DUP2 JUMP JUMPDEST PUSH2 0x35C PUSH2 0x61D CALLDATASIZE PUSH1 0x4 PUSH2 0x447F JUMP JUMPDEST PUSH2 0x230E JUMP JUMPDEST PUSH2 0x2B6 PUSH2 0x630 CALLDATASIZE PUSH1 0x4 PUSH2 0x447F JUMP JUMPDEST PUSH1 0x8 PUSH1 0x20 MSTORE PUSH1 0x0 SWAP1 DUP2 MSTORE PUSH1 0x40 SWAP1 KECCAK256 SLOAD PUSH1 0xFF AND DUP2 JUMP JUMPDEST PUSH2 0x2B6 PUSH2 0x653 CALLDATASIZE PUSH1 0x4 PUSH2 0x481D JUMP JUMPDEST PUSH2 0x240B JUMP JUMPDEST PUSH2 0x35C PUSH2 0x666 CALLDATASIZE PUSH1 0x4 PUSH2 0x495A JUMP JUMPDEST PUSH2 0x2434 JUMP JUMPDEST PUSH2 0x35C PUSH2 0x679 CALLDATASIZE PUSH1 0x4 PUSH2 0x49FB JUMP JUMPDEST PUSH2 0x25A8 JUMP JUMPDEST PUSH2 0x6B6 PUSH2 0x68C CALLDATASIZE PUSH1 0x4 PUSH2 0x447F JUMP JUMPDEST PUSH1 0x2 PUSH1 0x20 MSTORE PUSH1 0x0 SWAP1 DUP2 MSTORE PUSH1 0x40 SWAP1 KECCAK256 DUP1 SLOAD PUSH1 0x3 DUP3 ADD SLOAD PUSH1 0x4 SWAP1 SWAP3 ADD SLOAD SWAP1 SWAP2 SWAP1 PUSH1 0x1 PUSH1 0x1 PUSH1 0xA0 SHL SUB AND DUP4 JUMP JUMPDEST PUSH1 0x40 DUP1 MLOAD SWAP4 DUP5 MSTORE PUSH1 0x20 DUP5 ADD SWAP3 SWAP1 SWAP3 MSTORE PUSH1 0x1 PUSH1 0x1 PUSH1 0xA0 SHL SUB AND SWAP1 DUP3 ADD MSTORE PUSH1 0x60 ADD PUSH2 0x2C2 JUMP JUMPDEST PUSH2 0x306 PUSH1 0x0 DUP2 JUMP JUMPDEST PUSH2 0x54E PUSH2 0x6F0 CALLDATASIZE PUSH1 0x4 PUSH2 0x47BF JUMP JUMPDEST PUSH2 0x2712 JUMP JUMPDEST PUSH2 0x306 PUSH1 0x10 SLOAD DUP2 JUMP JUMPDEST PUSH2 0x306 PUSH2 0x70C CALLDATASIZE PUSH1 0x4 PUSH2 0x47BF JUMP JUMPDEST PUSH1 0xE PUSH1 0x20 MSTORE PUSH1 0x0 SWAP1 DUP2 MSTORE PUSH1 0x40 SWAP1 KECCAK256 SLOAD DUP2 JUMP JUMPDEST PUSH2 0x306 PUSH1 0x0 DUP1 MLOAD PUSH1 0x20 PUSH2 0x53B5 DUP4 CODECOPY DUP2 MLOAD SWAP2 MSTORE DUP2 JUMP JUMPDEST PUSH2 0x306 PUSH1 0x0 DUP1 MLOAD PUSH1 0x20 PUSH2 0x5475 DUP4 CODECOPY DUP2 MLOAD SWAP2 MSTORE DUP2 JUMP JUMPDEST PUSH2 0x306 PUSH2 0x756 CALLDATASIZE PUSH1 0x4 PUSH2 0x47BF JUMP JUMPDEST PUSH1 0x1 PUSH1 0x1 PUSH1 0xA0 SHL SUB AND PUSH1 0x0 SWAP1 DUP2 MSTORE PUSH1 0x1 PUSH1 0x20 MSTORE PUSH1 0x40 SWAP1 KECCAK256 PUSH1 0x2 ADD SLOAD SWAP1 JUMP JUMPDEST PUSH2 0x35C PUSH2 0x782 CALLDATASIZE PUSH1 0x4 PUSH2 0x495A JUMP JUMPDEST PUSH2 0x277C JUMP JUMPDEST PUSH2 0x35C PUSH2 0x795 CALLDATASIZE PUSH1 0x4 PUSH2 0x4AA9 JUMP JUMPDEST PUSH2 0x28EF JUMP JUMPDEST PUSH2 0x35C PUSH2 0x7A8 CALLDATASIZE PUSH1 0x4 PUSH2 0x481D JUMP JUMPDEST PUSH2 0x2B30 JUMP JUMPDEST PUSH2 0x7C0 PUSH2 0x7BB CALLDATASIZE PUSH1 0x4 PUSH2 0x447F JUMP JUMPDEST PUSH2 0x2B4C JUMP JUMPDEST PUSH1 0x40 MLOAD PUSH2 0x2C2 SWAP2 SWAP1 PUSH2 0x4AF4 JUMP JUMPDEST PUSH2 0x306 PUSH2 0x7DB CALLDATASIZE PUSH1 0x4 PUSH2 0x4B02 JUMP JUMPDEST PUSH2 0x2BAB JUMP JUMPDEST PUSH2 0x306 PUSH1 0x0 DUP1 MLOAD PUSH1 0x20 PUSH2 0x53F5 DUP4 CODECOPY DUP2 MLOAD SWAP2 MSTORE DUP2 JUMP JUMPDEST PUSH2 0x35C PUSH2 0x803 CALLDATASIZE PUSH1 0x4 PUSH2 0x4B9B JUMP JUMPDEST PUSH2 0x2DB1 JUMP JUMPDEST PUSH2 0x35C PUSH2 0x816 CALLDATASIZE PUSH1 0x4 PUSH2 0x4BF3 JUMP JUMPDEST PUSH2 0x2F11 JUMP JUMPDEST PUSH2 0x82E PUSH2 0x829 CALLDATASIZE PUSH1 0x4 PUSH2 0x447F JUMP JUMPDEST PUSH2 0x333E JUMP JUMPDEST PUSH1 0x40 MLOAD PUSH2 0x2C2 SWAP2 SWAP1 PUSH2 0x4C72 JUMP JUMPDEST PUSH2 0x306 PUSH2 0x849 CALLDATASIZE PUSH1 0x4 PUSH2 0x47BF JUMP JUMPDEST PUSH1 0xF PUSH1 0x20 MSTORE PUSH1 0x0 SWAP1 DUP2 MSTORE PUSH1 0x40 SWAP1 KECCAK256 SLOAD DUP2 JUMP JUMPDEST PUSH1 0x0 PUSH1 0x1 PUSH1 0x1 PUSH1 0xE0 SHL SUB NOT DUP3 AND PUSH4 0x7965DB0B PUSH1 0xE0 SHL EQ DUP1 PUSH2 0x88C JUMPI POP PUSH4 0x1FFC9A7 PUSH1 0xE0 SHL PUSH1 0x1 PUSH1 0x1 PUSH1 0xE0 SHL SUB NOT DUP4 AND EQ JUMPDEST SWAP3 SWAP2 POP POP JUMP JUMPDEST PUSH1 0x9 PUSH1 0x20 MSTORE PUSH1 0x0 SWAP1 DUP2 MSTORE PUSH1 0x40 SWAP1 KECCAK256 DUP1 SLOAD PUSH1 0x1 DUP3 ADD SLOAD PUSH1 0x2 DUP4 ADD SLOAD PUSH1 0x3 DUP5 ADD DUP1 SLOAD SWAP4 SWAP5 SWAP3 SWAP4 PUSH1 0x1 PUSH1 0x1 PUSH1 0xA0 SHL SUB SWAP1 SWAP3 AND SWAP3 SWAP2 PUSH2 0x8CC SWAP1 PUSH2 0x4CF5 JUMP JUMPDEST DUP1 PUSH1 0x1F ADD PUSH1 0x20 DUP1 SWAP2 DIV MUL PUSH1 0x20 ADD PUSH1 0x40 MLOAD SWAP1 DUP2 ADD PUSH1 0x40 MSTORE DUP1 SWAP3 SWAP2 SWAP1 DUP2 DUP2 MSTORE PUSH1 0x20 ADD DUP3 DUP1 SLOAD PUSH2 0x8F8 SWAP1 PUSH2 0x4CF5 JUMP JUMPDEST DUP1 ISZERO PUSH2 0x945 JUMPI DUP1 PUSH1 0x1F LT PUSH2 0x91A JUMPI PUSH2 0x100 DUP1 DUP4 SLOAD DIV MUL DUP4 MSTORE SWAP2 PUSH1 0x20 ADD SWAP2 PUSH2 0x945 JUMP JUMPDEST DUP3 ADD SWAP2 SWAP1 PUSH1 0x0 MSTORE PUSH1 0x20 PUSH1 0x0 KECCAK256 SWAP1 JUMPDEST DUP2 SLOAD DUP2 MSTORE SWAP1 PUSH1 0x1 ADD SWAP1 PUSH1 0x20 ADD DUP1 DUP4 GT PUSH2 0x928 JUMPI DUP3 SWAP1 SUB PUSH1 0x1F AND DUP3 ADD SWAP2 JUMPDEST POP POP POP POP POP SWAP1 DUP1 PUSH1 0x4 ADD DUP1 SLOAD PUSH2 0x95A SWAP1 PUSH2 0x4CF5 JUMP JUMPDEST DUP1 PUSH1 0x1F ADD PUSH1 0x20 DUP1 SWAP2 DIV MUL PUSH1 0x20 ADD PUSH1 0x40 MLOAD SWAP1 DUP2 ADD PUSH1 0x40 MSTORE DUP1 SWAP3 SWAP2 SWAP1 DUP2 DUP2 MSTORE PUSH1 0x20 ADD DUP3 DUP1 SLOAD PUSH2 0x986 SWAP1 PUSH2 0x4CF5 JUMP JUMPDEST DUP1 ISZERO PUSH2 0x9D3 JUMPI DUP1 PUSH1 0x1F LT PUSH2 0x9A8 JUMPI PUSH2 0x100 DUP1 DUP4 SLOAD DIV MUL DUP4 MSTORE SWAP2 PUSH1 0x20 ADD SWAP2 PUSH2 0x9D3 JUMP JUMPDEST DUP3 ADD SWAP2 SWAP1 PUSH1 0x0 MSTORE PUSH1 0x20 PUSH1 0x0 KECCAK256 SWAP1 JUMPDEST DUP2 SLOAD DUP2 MSTORE SWAP1 PUSH1 0x1 ADD SWAP1 PUSH1 0x20 ADD DUP1 DUP4 GT PUSH2 0x9B6 JUMPI DUP3 SWAP1 SUB PUSH1 0x1F AND DUP3 ADD SWAP2 JUMPDEST POP POP POP POP PUSH1 0x5 DUP4 ADD SLOAD PUSH1 0x6 SWAP1 SWAP4 ADD SLOAD SWAP2 SWAP3 SWAP2 PUSH1 0xFF AND SWAP1 POP DUP8 JUMP JUMPDEST PUSH1 0x40 DUP1 MLOAD PUSH1 0xE0 DUP2 ADD DUP3 MSTORE PUSH1 0x0 DUP1 DUP3 MSTORE PUSH1 0x20 DUP3 ADD DUP2 SWAP1 MSTORE SWAP2 DUP2 ADD DUP3 SWAP1 MSTORE PUSH1 0x60 DUP1 DUP3 ADD DUP4 SWAP1 MSTORE PUSH1 0x80 DUP3 ADD MSTORE PUSH1 0xA0 DUP2 ADD DUP3 SWAP1 MSTORE PUSH1 0xC0 DUP2 ADD SWAP2 SWAP1 SWAP2 MSTORE PUSH1 0x0 DUP3 DUP2 MSTORE PUSH1 0xB PUSH1 0x20 SWAP1 DUP2 MSTORE PUSH1 0x40 SWAP2 DUP3 SWAP1 KECCAK256 DUP3 MLOAD PUSH1 0xE0 DUP2 ADD DUP5 MSTORE DUP2 SLOAD DUP2 MSTORE PUSH1 0x1 DUP3 ADD SLOAD PUSH1 0x1 PUSH1 0x1 PUSH1 0xA0 SHL SUB SWAP1 DUP2 AND SWAP4 DUP3 ADD SWAP4 SWAP1 SWAP4 MSTORE PUSH1 0x2 DUP3 ADD SLOAD SWAP1 SWAP3 AND SWAP3 DUP3 ADD SWAP3 SWAP1 SWAP3 MSTORE PUSH1 0x3 DUP3 ADD SLOAD PUSH1 0x60 DUP3 ADD MSTORE PUSH1 0x4 DUP3 ADD DUP1 SLOAD SWAP2 SWAP3 SWAP2 PUSH1 0x80 DUP5 ADD SWAP2 SWAP1 PUSH2 0xA8B SWAP1 PUSH2 0x4CF5 JUMP JUMPDEST DUP1 PUSH1 0x1F ADD PUSH1 0x20 DUP1 SWAP2 DIV MUL PUSH1 0x20 ADD PUSH1 0x40 MLOAD SWAP1 DUP2 ADD PUSH1 0x40 MSTORE DUP1 SWAP3 SWAP2 SWAP1 DUP2 DUP2 MSTORE PUSH1 0x20 ADD DUP3 DUP1 SLOAD PUSH2 0xAB7 SWAP1 PUSH2 0x4CF5 JUMP JUMPDEST DUP1 ISZERO PUSH2 0xB04 JUMPI DUP1 PUSH1 0x1F LT PUSH2 0xAD9 JUMPI PUSH2 0x100 DUP1 DUP4 SLOAD DIV MUL DUP4 MSTORE SWAP2 PUSH1 0x20 ADD SWAP2 PUSH2 0xB04 JUMP JUMPDEST DUP3 ADD SWAP2 SWAP1 PUSH1 0x0 MSTORE PUSH1 0x20 PUSH1 0x0 KECCAK256 SWAP1 JUMPDEST DUP2 SLOAD DUP2 MSTORE SWAP1 PUSH1 0x1 ADD SWAP1 PUSH1 0x20 ADD DUP1 DUP4 GT PUSH2 0xAE7 JUMPI DUP3 SWAP1 SUB PUSH1 0x1F AND DUP3 ADD SWAP2 JUMPDEST POP POP POP SWAP2 DUP4 MSTORE POP POP PUSH1 0x5 DUP3 ADD SLOAD PUSH1 0xFF AND ISZERO ISZERO PUSH1 0x20 DUP3 ADD MSTORE PUSH1 0x6 SWAP1 SWAP2 ADD SLOAD PUSH1 0x40 SWAP1 SWAP2 ADD MSTORE SWAP3 SWAP2 POP POP JUMP JUMPDEST PUSH1 0x0 DUP1 MLOAD PUSH1 0x20 PUSH2 0x53F5 DUP4 CODECOPY DUP2 MLOAD SWAP2 MSTORE PUSH2 0xB45 DUP2 PUSH2 0x3514 JUMP JUMPDEST POP PUSH1 0xC SSTORE JUMP JUMPDEST PUSH1 0x60 PUSH1 0x0 DUP1 MLOAD PUSH1 0x20 PUSH2 0x5415 DUP4 CODECOPY DUP2 MLOAD SWAP2 MSTORE PUSH2 0xB65 DUP2 PUSH2 0x3514 JUMP JUMPDEST PUSH1 0x0 DUP4 PUSH1 0x1 PUSH1 0x1 PUSH1 0x40 SHL SUB DUP2 GT ISZERO PUSH2 0xB7F JUMPI PUSH2 0xB7F PUSH2 0x48AF JUMP JUMPDEST PUSH1 0x40 MLOAD SWAP1 DUP1 DUP3 MSTORE DUP1 PUSH1 0x20 MUL PUSH1 0x20 ADD DUP3 ADD PUSH1 0x40 MSTORE DUP1 ISZERO PUSH2 0xBB8 JUMPI DUP2 PUSH1 0x20 ADD JUMPDEST PUSH2 0xBA5 PUSH2 0x4397 JUMP JUMPDEST DUP2 MSTORE PUSH1 0x20 ADD SWAP1 PUSH1 0x1 SWAP1 SUB SWAP1 DUP2 PUSH2 0xB9D JUMPI SWAP1 POP JUMPDEST POP SWAP1 POP PUSH1 0x0 DUP6 JUMPDEST PUSH1 0x6 SLOAD DUP2 LT DUP1 ISZERO PUSH2 0xBCF JUMPI POP DUP6 DUP3 LT JUMPDEST ISZERO PUSH2 0xE90 JUMPI PUSH1 0x0 DUP2 DUP2 MSTORE PUSH1 0x2 PUSH1 0x20 SWAP1 DUP2 MSTORE PUSH1 0x40 DUP1 DUP4 KECCAK256 DUP2 MLOAD PUSH1 0xA0 DUP2 ADD DUP4 MSTORE DUP2 SLOAD DUP2 MSTORE PUSH1 0x1 DUP3 ADD DUP1 SLOAD DUP5 MLOAD DUP2 DUP8 MUL DUP2 ADD DUP8 ADD SWAP1 SWAP6 MSTORE DUP1 DUP6 MSTORE SWAP2 SWAP5 SWAP3 SWAP4 DUP6 DUP5 ADD SWAP4 SWAP1 SWAP3 SWAP1 DUP8 SWAP1 DUP5 ADD JUMPDEST DUP3 DUP3 LT ISZERO PUSH2 0xCEE JUMPI DUP4 DUP3 SWAP1 PUSH1 0x0 MSTORE PUSH1 0x20 PUSH1 0x0 KECCAK256 SWAP1 PUSH1 0x3 MUL ADD PUSH1 0x40 MLOAD DUP1 PUSH1 0x60 ADD PUSH1 0x40 MSTORE SWAP1 DUP2 PUSH1 0x0 DUP3 ADD SLOAD DUP2 MSTORE PUSH1 0x20 ADD PUSH1 0x1 DUP3 ADD SLOAD DUP2 MSTORE PUSH1 0x20 ADD PUSH1 0x2 DUP3 ADD DUP1 SLOAD PUSH2 0xC5D SWAP1 PUSH2 0x4CF5 JUMP JUMPDEST DUP1 PUSH1 0x1F ADD PUSH1 0x20 DUP1 SWAP2 DIV MUL PUSH1 0x20 ADD PUSH1 0x40 MLOAD SWAP1 DUP2 ADD PUSH1 0x40 MSTORE DUP1 SWAP3 SWAP2 SWAP1 DUP2 DUP2 MSTORE PUSH1 0x20 ADD DUP3 DUP1 SLOAD PUSH2 0xC89 SWAP1 PUSH2 0x4CF5 JUMP JUMPDEST DUP1 ISZERO PUSH2 0xCD6 JUMPI DUP1 PUSH1 0x1F LT PUSH2 0xCAB JUMPI PUSH2 0x100 DUP1 DUP4 SLOAD DIV MUL DUP4 MSTORE SWAP2 PUSH1 0x20 ADD SWAP2 PUSH2 0xCD6 JUMP JUMPDEST DUP3 ADD SWAP2 SWAP1 PUSH1 0x0 MSTORE PUSH1 0x20 PUSH1 0x0 KECCAK256 SWAP1 JUMPDEST DUP2 SLOAD DUP2 MSTORE SWAP1 PUSH1 0x1 ADD SWAP1 PUSH1 0x20 ADD DUP1 DUP4 GT PUSH2 0xCB9 JUMPI DUP3 SWAP1 SUB PUSH1 0x1F AND DUP3 ADD SWAP2 JUMPDEST POP POP POP POP POP DUP2 MSTORE POP POP DUP2 MSTORE PUSH1 0x20 ADD SWAP1 PUSH1 0x1 ADD SWAP1 PUSH2 0xC16 JUMP JUMPDEST POP POP POP POP DUP2 MSTORE PUSH1 0x20 ADD PUSH1 0x2 DUP3 ADD DUP1 SLOAD DUP1 PUSH1 0x20 MUL PUSH1 0x20 ADD PUSH1 0x40 MLOAD SWAP1 DUP2 ADD PUSH1 0x40 MSTORE DUP1 SWAP3 SWAP2 SWAP1 DUP2 DUP2 MSTORE PUSH1 0x20 ADD PUSH1 0x0 SWAP1 JUMPDEST DUP3 DUP3 LT ISZERO PUSH2 0xD80 JUMPI PUSH1 0x0 DUP5 DUP2 MSTORE PUSH1 0x20 SWAP1 DUP2 SWAP1 KECCAK256 PUSH1 0x40 DUP1 MLOAD PUSH1 0x80 DUP2 ADD DUP3 MSTORE PUSH1 0x3 DUP7 MUL SWAP1 SWAP3 ADD DUP1 SLOAD DUP4 MSTORE PUSH1 0x1 DUP1 DUP3 ADD SLOAD PUSH1 0x1 PUSH1 0x1 PUSH1 0xA0 SHL SUB DUP2 AND DUP6 DUP8 ADD MSTORE PUSH1 0x1 PUSH1 0xA0 SHL SWAP1 DIV PUSH1 0xFF AND ISZERO ISZERO SWAP3 DUP5 ADD SWAP3 SWAP1 SWAP3 MSTORE PUSH1 0x2 ADD SLOAD PUSH1 0x60 DUP4 ADD MSTORE SWAP1 DUP4 MSTORE SWAP1 SWAP3 ADD SWAP2 ADD PUSH2 0xD1B JUMP JUMPDEST POP POP POP SWAP1 DUP3 MSTORE POP PUSH1 0x3 DUP3 ADD SLOAD PUSH1 0x20 DUP3 ADD MSTORE PUSH1 0x4 SWAP1 SWAP2 ADD SLOAD PUSH1 0x1 PUSH1 0x1 PUSH1 0xA0 SHL SUB SWAP1 DUP2 AND PUSH1 0x40 SWAP1 SWAP3 ADD SWAP2 SWAP1 SWAP2 MSTORE PUSH1 0x80 DUP3 ADD MLOAD SWAP2 SWAP3 POP DUP11 DUP2 AND SWAP2 AND SUB PUSH2 0xDEE JUMPI DUP1 DUP5 DUP5 DUP2 MLOAD DUP2 LT PUSH2 0xDD0 JUMPI PUSH2 0xDD0 PUSH2 0x4D2F JUMP JUMPDEST PUSH1 0x20 MUL PUSH1 0x20 ADD ADD DUP2 SWAP1 MSTORE POP DUP3 DUP1 PUSH2 0xDE6 SWAP1 PUSH2 0x4D5B JUMP JUMPDEST SWAP4 POP POP PUSH2 0xE7D JUMP JUMPDEST PUSH1 0x0 JUMPDEST DUP2 PUSH1 0x40 ADD MLOAD MLOAD DUP2 LT ISZERO PUSH2 0xE7B JUMPI DUP10 PUSH1 0x1 PUSH1 0x1 PUSH1 0xA0 SHL SUB AND DUP3 PUSH1 0x40 ADD MLOAD DUP3 DUP2 MLOAD DUP2 LT PUSH2 0xE1E JUMPI PUSH2 0xE1E PUSH2 0x4D2F JUMP JUMPDEST PUSH1 0x20 MUL PUSH1 0x20 ADD ADD MLOAD PUSH1 0x20 ADD MLOAD PUSH1 0x1 PUSH1 0x1 PUSH1 0xA0 SHL SUB AND SUB PUSH2 0xE69 JUMPI DUP2 DUP6 DUP6 DUP2 MLOAD DUP2 LT PUSH2 0xE4B JUMPI PUSH2 0xE4B PUSH2 0x4D2F JUMP JUMPDEST PUSH1 0x20 MUL PUSH1 0x20 ADD ADD DUP2 SWAP1 MSTORE POP DUP4 DUP1 PUSH2 0xE61 SWAP1 PUSH2 0x4D5B JUMP JUMPDEST SWAP5 POP POP PUSH2 0xE7B JUMP JUMPDEST DUP1 PUSH2 0xE73 DUP2 PUSH2 0x4D5B JUMP JUMPDEST SWAP2 POP POP PUSH2 0xDF1 JUMP JUMPDEST POP JUMPDEST POP DUP1 PUSH2 0xE88 DUP2 PUSH2 0x4D5B JUMP JUMPDEST SWAP2 POP POP PUSH2 0xBBF JUMP JUMPDEST POP PUSH1 0x0 DUP2 PUSH1 0x1 PUSH1 0x1 PUSH1 0x40 SHL SUB DUP2 GT ISZERO PUSH2 0xEAB JUMPI PUSH2 0xEAB PUSH2 0x48AF JUMP JUMPDEST PUSH1 0x40 MLOAD SWAP1 DUP1 DUP3 MSTORE DUP1 PUSH1 0x20 MUL PUSH1 0x20 ADD DUP3 ADD PUSH1 0x40 MSTORE DUP1 ISZERO PUSH2 0xEE4 JUMPI DUP2 PUSH1 0x20 ADD JUMPDEST PUSH2 0xED1 PUSH2 0x4397 JUMP JUMPDEST DUP2 MSTORE PUSH1 0x20 ADD SWAP1 PUSH1 0x1 SWAP1 SUB SWAP1 DUP2 PUSH2 0xEC9 JUMPI SWAP1 POP JUMPDEST POP SWAP1 POP PUSH1 0x0 JUMPDEST DUP3 DUP2 LT ISZERO PUSH2 0xF3C JUMPI DUP4 DUP2 DUP2 MLOAD DUP2 LT PUSH2 0xF04 JUMPI PUSH2 0xF04 PUSH2 0x4D2F JUMP JUMPDEST PUSH1 0x20 MUL PUSH1 0x20 ADD ADD MLOAD DUP3 DUP3 DUP2 MLOAD DUP2 LT PUSH2 0xF1E JUMPI PUSH2 0xF1E PUSH2 0x4D2F JUMP JUMPDEST PUSH1 0x20 MUL PUSH1 0x20 ADD ADD DUP2 SWAP1 MSTORE POP DUP1 DUP1 PUSH2 0xF34 SWAP1 PUSH2 0x4D5B JUMP JUMPDEST SWAP2 POP POP PUSH2 0xEEA JUMP JUMPDEST POP SWAP8 SWAP7 POP POP POP POP POP POP POP JUMP JUMPDEST PUSH2 0xF60 PUSH1 0x0 DUP1 MLOAD PUSH1 0x20 PUSH2 0x53F5 DUP4 CODECOPY DUP2 MLOAD SWAP2 MSTORE CALLER PUSH2 0x240B JUMP JUMPDEST PUSH2 0xFBC JUMPI PUSH1 0x40 MLOAD PUSH3 0x461BCD PUSH1 0xE5 SHL DUP2 MSTORE PUSH1 0x20 PUSH1 0x4 DUP3 ADD MSTORE PUSH1 0x22 PUSH1 0x24 DUP3 ADD MSTORE PUSH32 0x4F6E6C79207072696D6172792062616E6B2063616E207265766F6B6520726F6C PUSH1 0x44 DUP3 ADD MSTORE PUSH2 0x6573 PUSH1 0xF0 SHL PUSH1 0x64 DUP3 ADD MSTORE PUSH1 0x84 ADD JUMPDEST PUSH1 0x40 MLOAD DUP1 SWAP2 SUB SWAP1 REVERT JUMPDEST PUSH2 0xFC6 DUP2 DUP4 PUSH2 0x240B JUMP JUMPDEST PUSH2 0x1012 JUMPI PUSH1 0x40 MLOAD PUSH3 0x461BCD PUSH1 0xE5 SHL DUP2 MSTORE PUSH1 0x20 PUSH1 0x4 DUP3 ADD MSTORE PUSH1 0x1E PUSH1 0x24 DUP3 ADD MSTORE PUSH32 0x4163636F756E7420646F6573206E6F7420686176652074686520726F6C650000 PUSH1 0x44 DUP3 ADD MSTORE PUSH1 0x64 ADD PUSH2 0xFB3 JUMP JUMPDEST PUSH2 0x101C DUP2 DUP4 PUSH2 0x3521 JUMP JUMPDEST POP PUSH1 0x1 PUSH1 0x1 PUSH1 0xA0 SHL SUB DUP3 AND PUSH1 0x0 SWAP1 DUP2 MSTORE PUSH1 0x1 PUSH1 0x20 DUP2 SWAP1 MSTORE PUSH1 0x40 DUP3 KECCAK256 DUP1 SLOAD PUSH1 0x1 PUSH1 0x1 PUSH1 0xA0 SHL SUB NOT AND DUP2 SSTORE SWAP2 SWAP1 PUSH2 0x1053 SWAP1 DUP4 ADD DUP3 PUSH2 0x43CF JUMP JUMPDEST POP PUSH1 0x0 PUSH1 0x2 DUP3 ADD DUP2 SWAP1 SSTORE PUSH1 0x3 DUP3 ADD DUP1 SLOAD PUSH1 0xFF NOT AND SWAP1 SSTORE PUSH1 0x4 SWAP1 SWAP2 ADD DUP2 SWAP1 SSTORE PUSH1 0x40 MLOAD DUP3 SWAP2 PUSH1 0x1 PUSH1 0x1 PUSH1 0xA0 SHL SUB DUP6 AND SWAP2 PUSH32 0xEA83A7CAEF01824E96446A8C4BC8FF4669EDD99E129B53E32C077F85D2168081 SWAP2 SWAP1 LOG3 POP POP JUMP JUMPDEST PUSH1 0x1 PUSH1 0x1 PUSH1 0xA0 SHL SUB DUP1 DUP3 AND PUSH1 0x0 SWAP1 DUP2 MSTORE PUSH1 0x1 PUSH1 0x20 DUP2 DUP2 MSTORE PUSH1 0x40 DUP1 DUP5 KECCAK256 DUP2 MLOAD PUSH1 0xA0 DUP2 ADD SWAP1 SWAP3 MSTORE DUP1 SLOAD SWAP1 SWAP6 AND DUP2 MSTORE SWAP2 DUP5 ADD DUP1 SLOAD SWAP4 SWAP5 DUP6 SWAP5 SWAP1 SWAP3 DUP5 ADD SWAP2 SWAP1 PUSH2 0x10ED SWAP1 PUSH2 0x4CF5 JUMP JUMPDEST DUP1 PUSH1 0x1F ADD PUSH1 0x20 DUP1 SWAP2 DIV MUL PUSH1 0x20 ADD PUSH1 0x40 MLOAD SWAP1 DUP2 ADD PUSH1 0x40 MSTORE DUP1 SWAP3 SWAP2 SWAP1 DUP2 DUP2 MSTORE PUSH1 0x20 ADD DUP3 DUP1 SLOAD PUSH2 0x1119 SWAP1 PUSH2 0x4CF5 JUMP JUMPDEST DUP1 ISZERO PUSH2 0x1166 JUMPI DUP1 PUSH1 0x1F LT PUSH2 0x113B JUMPI PUSH2 0x100 DUP1 DUP4 SLOAD DIV MUL DUP4 MSTORE SWAP2 PUSH1 0x20 ADD SWAP2 PUSH2 0x1166 JUMP JUMPDEST DUP3 ADD SWAP2 SWAP1 PUSH1 0x0 MSTORE PUSH1 0x20 PUSH1 0x0 KECCAK256 SWAP1 JUMPDEST DUP2 SLOAD DUP2 MSTORE SWAP1 PUSH1 0x1 ADD SWAP1 PUSH1 0x20 ADD DUP1 DUP4 GT PUSH2 0x1149 JUMPI DUP3 SWAP1 SUB PUSH1 0x1F AND DUP3 ADD SWAP2 JUMPDEST POP POP POP SWAP2 DUP4 MSTORE POP POP PUSH1 0x2 DUP3 ADD SLOAD PUSH1 0x20 DUP3 ADD MSTORE PUSH1 0x3 DUP3 ADD SLOAD PUSH1 0xFF AND ISZERO ISZERO PUSH1 0x40 DUP3 ADD MSTORE PUSH1 0x4 SWAP1 SWAP2 ADD SLOAD PUSH1 0x60 SWAP2 DUP3 ADD MSTORE DUP2 ADD MLOAD SWAP1 SWAP2 POP DUP1 ISZERO PUSH2 0x11AE JUMPI POP DUP1 MLOAD PUSH1 0x1 PUSH1 0x1 PUSH1 0xA0 SHL SUB AND ISZERO ISZERO JUMPDEST SWAP4 SWAP3 POP POP POP JUMP JUMPDEST PUSH1 0x0 SWAP1 DUP2 MSTORE PUSH1 0x20 DUP2 SWAP1 MSTORE PUSH1 0x40 SWAP1 KECCAK256 PUSH1 0x1 ADD SLOAD SWAP1 JUMP JUMPDEST PUSH1 0x1 PUSH1 0x20 DUP2 SWAP1 MSTORE PUSH1 0x0 SWAP2 DUP3 MSTORE PUSH1 0x40 SWAP1 SWAP2 KECCAK256 DUP1 SLOAD SWAP2 DUP2 ADD DUP1 SLOAD PUSH1 0x1 PUSH1 0x1 PUSH1 0xA0 SHL SUB SWAP1 SWAP4 AND SWAP3 PUSH2 0x11F7 SWAP1 PUSH2 0x4CF5 JUMP JUMPDEST DUP1 PUSH1 0x1F ADD PUSH1 0x20 DUP1 SWAP2 DIV MUL PUSH1 0x20 ADD PUSH1 0x40 MLOAD SWAP1 DUP2 ADD PUSH1 0x40 MSTORE DUP1 SWAP3 SWAP2 SWAP1 DUP2 DUP2 MSTORE PUSH1 0x20 ADD DUP3 DUP1 SLOAD PUSH2 0x1223 SWAP1 PUSH2 0x4CF5 JUMP JUMPDEST DUP1 ISZERO PUSH2 0x1270 JUMPI DUP1 PUSH1 0x1F LT PUSH2 0x1245 JUMPI PUSH2 0x100 DUP1 DUP4 SLOAD DIV MUL DUP4 MSTORE SWAP2 PUSH1 0x20 ADD SWAP2 PUSH2 0x1270 JUMP JUMPDEST DUP3 ADD SWAP2 SWAP1 PUSH1 0x0 MSTORE PUSH1 0x20 PUSH1 0x0 KECCAK256 SWAP1 JUMPDEST DUP2 SLOAD DUP2 MSTORE SWAP1 PUSH1 0x1 ADD SWAP1 PUSH1 0x20 ADD DUP1 DUP4 GT PUSH2 0x1253 JUMPI DUP3 SWAP1 SUB PUSH1 0x1F AND DUP3 ADD SWAP2 JUMPDEST POP POP POP POP PUSH1 0x2 DUP4 ADD SLOAD PUSH1 0x3 DUP5 ADD SLOAD PUSH1 0x4 SWAP1 SWAP5 ADD SLOAD SWAP3 SWAP4 SWAP1 SWAP3 PUSH1 0xFF SWAP1 SWAP2 AND SWAP2 POP DUP6 JUMP JUMPDEST PUSH2 0x129B DUP3 PUSH2 0x11B5 JUMP JUMPDEST PUSH2 0x12A4 DUP2 PUSH2 0x3514 JUMP JUMPDEST PUSH2 0x12AE DUP4 DUP4 PUSH2 0x3594 JUMP JUMPDEST POP POP POP POP JUMP JUMPDEST PUSH2 0x12BC PUSH2 0x4397 JUMP JUMPDEST PUSH1 0x2 PUSH1 0x0 DUP4 DUP2 MSTORE PUSH1 0x20 ADD SWAP1 DUP2 MSTORE PUSH1 0x20 ADD PUSH1 0x0 KECCAK256 PUSH1 0x40 MLOAD DUP1 PUSH1 0xA0 ADD PUSH1 0x40 MSTORE SWAP1 DUP2 PUSH1 0x0 DUP3 ADD SLOAD DUP2 MSTORE PUSH1 0x20 ADD PUSH1 0x1 DUP3 ADD DUP1 SLOAD DUP1 PUSH1 0x20 MUL PUSH1 0x20 ADD PUSH1 0x40 MLOAD SWAP1 DUP2 ADD PUSH1 0x40 MSTORE DUP1 SWAP3 SWAP2 SWAP1 DUP2 DUP2 MSTORE PUSH1 0x20 ADD PUSH1 0x0 SWAP1 JUMPDEST DUP3 DUP3 LT ISZERO PUSH2 0x13E1 JUMPI DUP4 DUP3 SWAP1 PUSH1 0x0 MSTORE PUSH1 0x20 PUSH1 0x0 KECCAK256 SWAP1 PUSH1 0x3 MUL ADD PUSH1 0x40 MLOAD DUP1 PUSH1 0x60 ADD PUSH1 0x40 MSTORE SWAP1 DUP2 PUSH1 0x0 DUP3 ADD SLOAD DUP2 MSTORE PUSH1 0x20 ADD PUSH1 0x1 DUP3 ADD SLOAD DUP2 MSTORE PUSH1 0x20 ADD PUSH1 0x2 DUP3 ADD DUP1 SLOAD PUSH2 0x1350 SWAP1 PUSH2 0x4CF5 JUMP JUMPDEST DUP1 PUSH1 0x1F ADD PUSH1 0x20 DUP1 SWAP2 DIV MUL PUSH1 0x20 ADD PUSH1 0x40 MLOAD SWAP1 DUP2 ADD PUSH1 0x40 MSTORE DUP1 SWAP3 SWAP2 SWAP1 DUP2 DUP2 MSTORE PUSH1 0x20 ADD DUP3 DUP1 SLOAD PUSH2 0x137C SWAP1 PUSH2 0x4CF5 JUMP JUMPDEST DUP1 ISZERO PUSH2 0x13C9 JUMPI DUP1 PUSH1 0x1F LT PUSH2 0x139E JUMPI PUSH2 0x100 DUP1 DUP4 SLOAD DIV MUL DUP4 MSTORE SWAP2 PUSH1 0x20 ADD SWAP2 PUSH2 0x13C9 JUMP JUMPDEST DUP3 ADD SWAP2 SWAP1 PUSH1 0x0 MSTORE PUSH1 0x20 PUSH1 0x0 KECCAK256 SWAP1 JUMPDEST DUP2 SLOAD DUP2 MSTORE SWAP1 PUSH1 0x1 ADD SWAP1 PUSH1 0x20 ADD DUP1 DUP4 GT PUSH2 0x13AC JUMPI DUP3 SWAP1 SUB PUSH1 0x1F AND DUP3 ADD SWAP2 JUMPDEST POP POP POP POP POP DUP2 MSTORE POP POP DUP2 MSTORE PUSH1 0x20 ADD SWAP1 PUSH1 0x1 ADD SWAP1 PUSH2 0x1309 JUMP JUMPDEST POP POP POP POP DUP2 MSTORE PUSH1 0x20 ADD PUSH1 0x2 DUP3 ADD DUP1 SLOAD DUP1 PUSH1 0x20 MUL PUSH1 0x20 ADD PUSH1 0x40 MLOAD SWAP1 DUP2 ADD PUSH1 0x40 MSTORE DUP1 SWAP3 SWAP2 SWAP1 DUP2 DUP2 MSTORE PUSH1 0x20 ADD PUSH1 0x0 SWAP1 JUMPDEST DUP3 DUP3 LT ISZERO PUSH2 0x1473 JUMPI PUSH1 0x0 DUP5 DUP2 MSTORE PUSH1 0x20 SWAP1 DUP2 SWAP1 KECCAK256 PUSH1 0x40 DUP1 MLOAD PUSH1 0x80 DUP2 ADD DUP3 MSTORE PUSH1 0x3 DUP7 MUL SWAP1 SWAP3 ADD DUP1 SLOAD DUP4 MSTORE PUSH1 0x1 DUP1 DUP3 ADD SLOAD PUSH1 0x1 PUSH1 0x1 PUSH1 0xA0 SHL SUB DUP2 AND DUP6 DUP8 ADD MSTORE PUSH1 0x1 PUSH1 0xA0 SHL SWAP1 DIV PUSH1 0xFF AND ISZERO ISZERO SWAP3 DUP5 ADD SWAP3 SWAP1 SWAP3 MSTORE PUSH1 0x2 ADD SLOAD PUSH1 0x60 DUP4 ADD MSTORE SWAP1 DUP4 MSTORE SWAP1 SWAP3 ADD SWAP2 ADD PUSH2 0x140E JUMP JUMPDEST POP POP POP SWAP1 DUP3 MSTORE POP PUSH1 0x3 DUP3 ADD SLOAD PUSH1 0x20 DUP3 ADD MSTORE PUSH1 0x4 SWAP1 SWAP2 ADD SLOAD PUSH1 0x1 PUSH1 0x1 PUSH1 0xA0 SHL SUB AND PUSH1 0x40 SWAP1 SWAP2 ADD MSTORE SWAP3 SWAP2 POP POP JUMP JUMPDEST PUSH1 0x1 PUSH1 0x1 PUSH1 0xA0 SHL SUB DUP2 AND PUSH1 0x0 SWAP1 DUP2 MSTORE PUSH1 0x4 PUSH1 0x20 MSTORE PUSH1 0x40 DUP2 KECCAK256 DUP2 DUP1 JUMPDEST DUP3 SLOAD DUP2 LT ISZERO PUSH2 0x1573 JUMPI PUSH1 0x0 PUSH1 0x3 PUSH1 0x0 DUP6 DUP5 DUP2 SLOAD DUP2 LT PUSH2 0x14DB JUMPI PUSH2 0x14DB PUSH2 0x4D2F JUMP JUMPDEST PUSH1 0x0 SWAP2 DUP3 MSTORE PUSH1 0x20 DUP1 DUP4 KECCAK256 SWAP2 SWAP1 SWAP2 ADD SLOAD DUP4 MSTORE DUP3 DUP2 ADD SWAP4 SWAP1 SWAP4 MSTORE PUSH1 0x40 SWAP2 DUP3 ADD SWAP1 KECCAK256 DUP2 MLOAD PUSH1 0x80 DUP2 ADD DUP4 MSTORE DUP2 SLOAD DUP2 MSTORE PUSH1 0x1 DUP3 ADD SLOAD PUSH1 0x1 PUSH1 0x1 PUSH1 0xA0 SHL SUB DUP2 AND SWAP5 DUP3 ADD SWAP5 SWAP1 SWAP5 MSTORE PUSH1 0x1 PUSH1 0xA0 SHL SWAP1 SWAP4 DIV PUSH1 0xFF AND ISZERO DUP1 ISZERO SWAP3 DUP5 ADD DUP4 SWAP1 MSTORE PUSH1 0x2 SWAP1 SWAP2 ADD SLOAD PUSH1 0x60 DUP5 ADD MSTORE SWAP2 SWAP3 POP PUSH2 0x154C JUMPI POP DUP1 PUSH1 0x60 ADD MLOAD TIMESTAMP LT ISZERO JUMPDEST ISZERO PUSH2 0x1560 JUMPI DUP1 MLOAD PUSH2 0x155D SWAP1 DUP5 PUSH2 0x4D74 JUMP JUMPDEST SWAP3 POP JUMPDEST POP DUP1 PUSH2 0x156B DUP2 PUSH2 0x4D5B JUMP JUMPDEST SWAP2 POP POP PUSH2 0x14BA JUMP JUMPDEST POP SWAP4 SWAP3 POP POP POP JUMP JUMPDEST PUSH1 0x1 PUSH1 0x1 PUSH1 0xA0 SHL SUB DUP2 AND CALLER EQ PUSH2 0x15A4 JUMPI PUSH1 0x40 MLOAD PUSH4 0x334BD919 PUSH1 0xE1 SHL DUP2 MSTORE PUSH1 0x4 ADD PUSH1 0x40 MLOAD DUP1 SWAP2 SUB SWAP1 REVERT JUMPDEST PUSH2 0x15AE DUP3 DUP3 PUSH2 0x3521 JUMP JUMPDEST POP POP POP JUMP JUMPDEST PUSH1 0xA PUSH1 0x20 MSTORE DUP2 PUSH1 0x0 MSTORE PUSH1 0x40 PUSH1 0x0 KECCAK256 DUP2 DUP2 SLOAD DUP2 LT PUSH2 0x15CF JUMPI PUSH1 0x0 DUP1 REVERT JUMPDEST SWAP1 PUSH1 0x0 MSTORE PUSH1 0x20 PUSH1 0x0 KECCAK256 ADD PUSH1 0x0 SWAP2 POP SWAP2 POP POP SLOAD DUP2 JUMP JUMPDEST PUSH1 0xB PUSH1 0x20 MSTORE PUSH1 0x0 SWAP1 DUP2 MSTORE PUSH1 0x40 SWAP1 KECCAK256 DUP1 SLOAD PUSH1 0x1 DUP3 ADD SLOAD PUSH1 0x2 DUP4 ADD SLOAD PUSH1 0x3 DUP5 ADD SLOAD PUSH1 0x4 DUP6 ADD DUP1 SLOAD SWAP5 SWAP6 PUSH1 0x1 PUSH1 0x1 PUSH1 0xA0 SHL SUB SWAP5 DUP6 AND SWAP6 SWAP4 SWAP1 SWAP5 AND SWAP4 SWAP2 SWAP3 PUSH2 0x1627 SWAP1 PUSH2 0x4CF5 JUMP JUMPDEST DUP1 PUSH1 0x1F ADD PUSH1 0x20 DUP1 SWAP2 DIV MUL PUSH1 0x20 ADD PUSH1 0x40 MLOAD SWAP1 DUP2 ADD PUSH1 0x40 MSTORE DUP1 SWAP3 SWAP2 SWAP1 DUP2 DUP2 MSTORE PUSH1 0x20 ADD DUP3 DUP1 SLOAD PUSH2 0x1653 SWAP1 PUSH2 0x4CF5 JUMP JUMPDEST DUP1 ISZERO PUSH2 0x16A0 JUMPI DUP1 PUSH1 0x1F LT PUSH2 0x1675 JUMPI PUSH2 0x100 DUP1 DUP4 SLOAD DIV MUL DUP4 MSTORE SWAP2 PUSH1 0x20 ADD SWAP2 PUSH2 0x16A0 JUMP JUMPDEST DUP3 ADD SWAP2 SWAP1 PUSH1 0x0 MSTORE PUSH1 0x20 PUSH1 0x0 KECCAK256 SWAP1 JUMPDEST DUP2 SLOAD DUP2 MSTORE SWAP1 PUSH1 0x1 ADD SWAP1 PUSH1 0x20 ADD DUP1 DUP4 GT PUSH2 0x1683 JUMPI DUP3 SWAP1 SUB PUSH1 0x1F AND DUP3 ADD SWAP2 JUMPDEST POP POP POP POP PUSH1 0x5 DUP4 ADD SLOAD PUSH1 0x6 SWAP1 SWAP4 ADD SLOAD SWAP2 SWAP3 PUSH1 0xFF AND SWAP2 SWAP1 POP DUP8 JUMP JUMPDEST PUSH1 0x0 DUP1 MLOAD PUSH1 0x20 PUSH2 0x53F5 DUP4 CODECOPY DUP2 MLOAD SWAP2 MSTORE PUSH2 0x16D2 DUP2 PUSH2 0x3514 JUMP JUMPDEST PUSH8 0x6765C793FA10079D PUSH1 0x1B SHL DUP3 PUSH1 0x7 SLOAD PUSH2 0x16EC SWAP2 SWAP1 PUSH2 0x4D74 JUMP JUMPDEST GT ISZERO PUSH2 0x1733 JUMPI PUSH1 0x40 MLOAD PUSH3 0x461BCD PUSH1 0xE5 SHL DUP2 MSTORE PUSH1 0x20 PUSH1 0x4 DUP3 ADD MSTORE PUSH1 0x16 PUSH1 0x24 DUP3 ADD MSTORE PUSH22 0x45786365656473206D6178696D756D20737570706C79 PUSH1 0x50 SHL PUSH1 0x44 DUP3 ADD MSTORE PUSH1 0x64 ADD PUSH2 0xFB3 JUMP JUMPDEST PUSH1 0x1 PUSH1 0x1 PUSH1 0xA0 SHL SUB DUP4 AND PUSH2 0x1785 JUMPI PUSH1 0x40 MLOAD PUSH3 0x461BCD PUSH1 0xE5 SHL DUP2 MSTORE PUSH1 0x20 PUSH1 0x4 DUP3 ADD MSTORE PUSH1 0x19 PUSH1 0x24 DUP3 ADD MSTORE PUSH25 0x496E76616C696420726563697069656E742061646472657373 PUSH1 0x38 SHL PUSH1 0x44 DUP3 ADD MSTORE PUSH1 0x64 ADD PUSH2 0xFB3 JUMP JUMPDEST PUSH2 0x178E DUP4 PUSH2 0x10A9 JUMP JUMPDEST PUSH2 0x17DA JUMPI PUSH1 0x40 MLOAD PUSH3 0x461BCD PUSH1 0xE5 SHL DUP2 MSTORE PUSH1 0x20 PUSH1 0x4 DUP3 ADD DUP2 SWAP1 MSTORE PUSH1 0x24 DUP3 ADD MSTORE PUSH32 0x526563697069656E74206D757374206861766520612076616C696420726F6C65 PUSH1 0x44 DUP3 ADD MSTORE PUSH1 0x64 ADD PUSH2 0xFB3 JUMP JUMPDEST PUSH1 0x0 DUP4 DUP4 TIMESTAMP PUSH1 0x6 SLOAD PUSH1 0x40 MLOAD PUSH1 0x20 ADD PUSH2 0x17F5 SWAP5 SWAP4 SWAP3 SWAP2 SWAP1 PUSH2 0x4D87 JUMP JUMPDEST PUSH1 0x40 DUP1 MLOAD PUSH1 0x1F NOT DUP2 DUP5 SUB ADD DUP2 MSTORE DUP3 DUP3 MSTORE DUP1 MLOAD PUSH1 0x20 SWAP2 DUP3 ADD KECCAK256 PUSH1 0x80 DUP5 ADD DUP4 MSTORE DUP7 DUP5 MSTORE PUSH1 0x1 PUSH1 0x1 PUSH1 0xA0 SHL SUB DUP1 DUP10 AND DUP6 DUP5 ADD DUP2 DUP2 MSTORE PUSH1 0x0 DUP8 DUP8 ADD DUP2 DUP2 MSTORE PUSH1 0x60 DUP10 ADD DUP3 DUP2 MSTORE DUP7 DUP4 MSTORE PUSH1 0x3 DUP9 MSTORE DUP9 DUP4 KECCAK256 DUP11 MLOAD DUP2 SSTORE SWAP4 MLOAD PUSH1 0x1 DUP6 DUP2 ADD DUP1 SLOAD SWAP5 MLOAD ISZERO ISZERO PUSH1 0x1 PUSH1 0xA0 SHL MUL PUSH1 0x1 PUSH1 0x1 PUSH1 0xA8 SHL SUB NOT SWAP1 SWAP6 AND SWAP3 SWAP1 SWAP9 AND SWAP2 SWAP1 SWAP2 OR SWAP3 SWAP1 SWAP3 OR SWAP1 SWAP6 SSTORE SWAP4 MLOAD PUSH1 0x2 SWAP1 SWAP3 ADD SWAP2 SWAP1 SWAP2 SSTORE SWAP1 DUP2 MSTORE PUSH1 0x4 DUP5 MSTORE SWAP4 DUP5 KECCAK256 DUP1 SLOAD SWAP2 DUP3 ADD DUP2 SSTORE DUP5 MSTORE SWAP2 DUP4 KECCAK256 SWAP1 SWAP2 ADD DUP2 SWAP1 SSTORE PUSH1 0x7 DUP1 SLOAD SWAP2 SWAP5 POP DUP7 SWAP3 SWAP1 SWAP2 PUSH2 0x18AF SWAP1 DUP5 SWAP1 PUSH2 0x4D74 JUMP JUMPDEST SWAP1 SWAP2 SSTORE POP POP PUSH1 0x0 DUP3 DUP2 MSTORE PUSH1 0x2 PUSH1 0x20 DUP2 DUP2 MSTORE PUSH1 0x40 DUP1 DUP5 KECCAK256 DUP7 DUP2 SSTORE TIMESTAMP PUSH1 0x3 DUP1 DUP4 ADD SWAP2 SWAP1 SWAP2 SSTORE PUSH1 0x4 DUP3 ADD DUP1 SLOAD PUSH1 0x1 PUSH1 0x1 PUSH1 0xA0 SHL SUB NOT AND CALLER OR SWAP1 SSTORE SWAP1 DUP5 ADD DUP1 SLOAD PUSH1 0x1 DUP2 DUP2 ADD DUP4 SSTORE SWAP2 DUP8 MSTORE DUP5 DUP8 KECCAK256 DUP9 MLOAD SWAP2 SWAP1 SWAP4 MUL SWAP1 SWAP3 ADD SWAP2 DUP3 SSTORE DUP7 DUP5 ADD MLOAD DUP3 DUP3 ADD DUP1 SLOAD DUP10 DUP7 ADD MLOAD ISZERO ISZERO PUSH1 0x1 PUSH1 0xA0 SHL MUL PUSH1 0x1 PUSH1 0x1 PUSH1 0xA8 SHL SUB NOT SWAP1 SWAP2 AND PUSH1 0x1 PUSH1 0x1 PUSH1 0xA0 SHL SUB SWAP4 SWAP1 SWAP4 AND SWAP3 SWAP1 SWAP3 OR SWAP2 SWAP1 SWAP2 OR SWAP1 SSTORE PUSH1 0x60 DUP8 ADD MLOAD SWAP2 SWAP1 SWAP5 ADD SSTORE DUP6 DUP5 MSTORE PUSH1 0x5 SWAP1 SWAP2 MSTORE DUP3 KECCAK256 DUP1 SLOAD PUSH1 0xFF NOT AND SWAP1 SWAP2 OR SWAP1 SSTORE PUSH1 0x6 DUP1 SLOAD SWAP2 PUSH2 0x1968 DUP4 PUSH2 0x4D5B JUMP JUMPDEST SWAP2 SWAP1 POP SSTORE POP DUP5 PUSH1 0x1 PUSH1 0x1 PUSH1 0xA0 SHL SUB AND DUP3 PUSH1 0x0 DUP1 MLOAD PUSH1 0x20 PUSH2 0x5435 DUP4 CODECOPY DUP2 MLOAD SWAP2 MSTORE DUP7 PUSH1 0x40 MLOAD PUSH2 0x1997 SWAP2 DUP2 MSTORE PUSH1 0x20 ADD SWAP1 JUMP JUMPDEST PUSH1 0x40 MLOAD DUP1 SWAP2 SUB SWAP1 LOG3 PUSH1 0x40 MLOAD DUP5 DUP2 MSTORE CALLER SWAP1 PUSH32 0x2C6364C33C231F6B00D9D8736D5FFC450B1A21FDA45EF7847565E16A039A4CD5 SWAP1 PUSH1 0x20 ADD PUSH1 0x40 MLOAD DUP1 SWAP2 SUB SWAP1 LOG2 PUSH1 0x40 MLOAD PUSH1 0x1 DUP2 MSTORE CALLER SWAP1 DUP4 SWAP1 PUSH1 0x0 DUP1 MLOAD PUSH1 0x20 PUSH2 0x5495 DUP4 CODECOPY DUP2 MLOAD SWAP2 MSTORE SWAP1 PUSH1 0x20 ADD JUMPDEST PUSH1 0x40 MLOAD DUP1 SWAP2 SUB SWAP1 LOG3 POP POP POP POP POP JUMP JUMPDEST PUSH1 0x0 PUSH1 0x0 DUP1 MLOAD PUSH1 0x20 PUSH2 0x5415 DUP4 CODECOPY DUP2 MLOAD SWAP2 MSTORE PUSH2 0x1A1C DUP2 PUSH2 0x3514 JUMP JUMPDEST PUSH1 0x10 SLOAD PUSH1 0x40 MLOAD PUSH1 0x1 PUSH1 0x1 PUSH1 0x60 SHL SUB NOT PUSH1 0x60 DUP8 DUP2 SHL DUP3 AND PUSH1 0x20 DUP5 ADD MSTORE CALLER SWAP1 SHL AND PUSH1 0x34 DUP3 ADD MSTORE TIMESTAMP PUSH1 0x48 DUP3 ADD MSTORE PUSH1 0x68 DUP2 ADD SWAP2 SWAP1 SWAP2 MSTORE PUSH1 0x0 SWAP1 PUSH1 0x88 ADD PUSH1 0x40 MLOAD PUSH1 0x20 DUP2 DUP4 SUB SUB DUP2 MSTORE SWAP1 PUSH1 0x40 MSTORE DUP1 MLOAD SWAP1 PUSH1 0x20 ADD KECCAK256 PUSH1 0x0 SHR SWAP1 POP PUSH1 0x0 PUSH2 0x1A7A DUP7 PUSH2 0x149F JUMP JUMPDEST SWAP1 POP PUSH1 0x0 PUSH2 0x1A87 DUP8 PUSH2 0x2712 JUMP JUMPDEST SWAP1 POP PUSH1 0x0 DUP1 DUP4 GT PUSH2 0x1ABB JUMPI PUSH1 0x40 MLOAD DUP1 PUSH1 0x40 ADD PUSH1 0x40 MSTORE DUP1 PUSH1 0xB DUP2 MSTORE PUSH1 0x20 ADD PUSH11 0x4C6F772062616C616E6365 PUSH1 0xA8 SHL DUP2 MSTORE POP PUSH2 0x1ADB JUMP JUMPDEST PUSH1 0x40 MLOAD DUP1 PUSH1 0x40 ADD PUSH1 0x40 MSTORE DUP1 PUSH1 0x6 DUP2 MSTORE PUSH1 0x20 ADD PUSH6 0x139BDC9B585B PUSH1 0xD2 SHL DUP2 MSTORE POP JUMPDEST PUSH1 0x40 DUP1 MLOAD PUSH1 0xE0 DUP2 ADD DUP3 MSTORE DUP7 DUP2 MSTORE PUSH1 0x0 PUSH1 0x20 DUP1 DUP4 ADD DUP3 DUP2 MSTORE CALLER DUP5 DUP7 ADD SWAP1 DUP2 MSTORE PUSH1 0x60 DUP6 ADD DUP8 DUP2 MSTORE PUSH1 0x80 DUP7 ADD DUP16 SWAP1 MSTORE TIMESTAMP PUSH1 0xA0 DUP8 ADD MSTORE PUSH1 0x1 PUSH1 0xC0 DUP8 ADD DUP2 SWAP1 MSTORE DUP13 DUP7 MSTORE PUSH1 0x9 SWAP1 SWAP5 MSTORE SWAP6 SWAP1 SWAP4 KECCAK256 DUP5 MLOAD DUP2 SSTORE SWAP1 MLOAD DUP2 DUP4 ADD SSTORE SWAP2 MLOAD PUSH1 0x2 DUP4 ADD DUP1 SLOAD PUSH1 0x1 PUSH1 0x1 PUSH1 0xA0 SHL SUB NOT AND PUSH1 0x1 PUSH1 0x1 PUSH1 0xA0 SHL SUB SWAP1 SWAP3 AND SWAP2 SWAP1 SWAP2 OR SWAP1 SSTORE SWAP3 MLOAD SWAP4 SWAP5 POP SWAP2 SWAP3 SWAP1 SWAP2 DUP3 SWAP2 PUSH1 0x3 DUP3 ADD SWAP1 PUSH2 0x1B69 SWAP1 DUP3 PUSH2 0x4E0C JUMP JUMPDEST POP PUSH1 0x80 DUP3 ADD MLOAD PUSH1 0x4 DUP3 ADD SWAP1 PUSH2 0x1B7E SWAP1 DUP3 PUSH2 0x4E0C JUMP JUMPDEST POP PUSH1 0xA0 DUP3 ADD MLOAD PUSH1 0x5 DUP3 ADD SSTORE PUSH1 0xC0 SWAP1 SWAP2 ADD MLOAD PUSH1 0x6 SWAP1 SWAP2 ADD DUP1 SLOAD PUSH1 0xFF NOT AND SWAP2 ISZERO ISZERO SWAP2 SWAP1 SWAP2 OR SWAP1 SSTORE PUSH1 0x1 PUSH1 0x1 PUSH1 0xA0 SHL SUB DUP11 AND PUSH1 0x0 SWAP1 DUP2 MSTORE PUSH1 0xA PUSH1 0x20 SWAP1 DUP2 MSTORE PUSH1 0x40 DUP1 DUP4 KECCAK256 DUP1 SLOAD PUSH1 0x1 DUP2 ADD DUP3 SSTORE SWAP1 DUP5 MSTORE SWAP2 DUP4 KECCAK256 SWAP1 SWAP2 ADD DUP9 SWAP1 SSTORE MLOAD DUP8 SWAP1 PUSH1 0x0 DUP1 MLOAD PUSH1 0x20 PUSH2 0x53D5 DUP4 CODECOPY DUP2 MLOAD SWAP2 MSTORE SWAP1 PUSH2 0x1BF2 SWAP1 DUP7 SWAP1 DUP9 SWAP1 PUSH2 0x4EC5 JUMP JUMPDEST PUSH1 0x40 MLOAD DUP1 SWAP2 SUB SWAP1 LOG3 PUSH1 0x10 DUP1 SLOAD SWAP1 PUSH1 0x0 PUSH2 0x1C0A DUP4 PUSH2 0x4D5B JUMP JUMPDEST SWAP1 SWAP2 SSTORE POP SWAP6 SWAP11 SWAP10 POP POP POP POP POP POP POP POP POP POP JUMP JUMPDEST PUSH1 0x0 DUP1 MLOAD PUSH1 0x20 PUSH2 0x53F5 DUP4 CODECOPY DUP2 MLOAD SWAP2 MSTORE PUSH2 0x1C35 DUP2 PUSH2 0x3514 JUMP JUMPDEST PUSH2 0x1C4D PUSH1 0x0 DUP1 MLOAD PUSH1 0x20 PUSH2 0x5475 DUP4 CODECOPY DUP2 MLOAD SWAP2 MSTORE DUP5 PUSH2 0x240B JUMP JUMPDEST ISZERO PUSH2 0x1CAA JUMPI PUSH1 0x40 MLOAD PUSH3 0x461BCD PUSH1 0xE5 SHL DUP2 MSTORE PUSH1 0x20 PUSH1 0x4 DUP3 ADD MSTORE PUSH1 0x27 PUSH1 0x24 DUP3 ADD MSTORE PUSH32 0x4163636F756E7420616C726561647920686173207365636F6E64617279206261 PUSH1 0x44 DUP3 ADD MSTORE PUSH7 0x6E6B20726F6C65 PUSH1 0xC8 SHL PUSH1 0x64 DUP3 ADD MSTORE PUSH1 0x84 ADD PUSH2 0xFB3 JUMP JUMPDEST PUSH2 0x1CC2 PUSH1 0x0 DUP1 MLOAD PUSH1 0x20 PUSH2 0x53F5 DUP4 CODECOPY DUP2 MLOAD SWAP2 MSTORE DUP5 PUSH2 0x240B JUMP JUMPDEST ISZERO PUSH2 0x1CDF JUMPI PUSH1 0x40 MLOAD PUSH3 0x461BCD PUSH1 0xE5 SHL DUP2 MSTORE PUSH1 0x4 ADD PUSH2 0xFB3 SWAP1 PUSH2 0x4EE0 JUMP JUMPDEST PUSH2 0x1CF7 PUSH1 0x0 DUP1 MLOAD PUSH1 0x20 PUSH2 0x5475 DUP4 CODECOPY DUP2 MLOAD SWAP2 MSTORE DUP5 PUSH2 0x3594 JUMP JUMPDEST POP PUSH1 0x40 DUP1 MLOAD PUSH1 0xA0 DUP2 ADD DUP3 MSTORE PUSH1 0x1 PUSH1 0x1 PUSH1 0xA0 SHL SUB DUP6 DUP2 AND DUP1 DUP4 MSTORE PUSH1 0x20 DUP1 DUP5 ADD DUP8 DUP2 MSTORE PUSH1 0x2 DUP6 DUP8 ADD MSTORE PUSH1 0x1 PUSH1 0x60 DUP7 ADD DUP2 SWAP1 MSTORE TIMESTAMP PUSH1 0x80 DUP8 ADD MSTORE PUSH1 0x0 SWAP4 DUP5 MSTORE SWAP2 DUP3 SWAP1 MSTORE SWAP5 SWAP1 SWAP2 KECCAK256 DUP4 MLOAD DUP2 SLOAD PUSH1 0x1 PUSH1 0x1 PUSH1 0xA0 SHL SUB NOT AND SWAP4 AND SWAP3 SWAP1 SWAP3 OR DUP3 SSTORE SWAP3 MLOAD SWAP2 SWAP3 SWAP1 SWAP2 SWAP1 DUP3 ADD SWAP1 PUSH2 0x1D64 SWAP1 DUP3 PUSH2 0x4E0C JUMP JUMPDEST POP PUSH1 0x40 DUP3 DUP2 ADD MLOAD PUSH1 0x2 DUP4 ADD SSTORE PUSH1 0x60 DUP4 ADD MLOAD PUSH1 0x3 DUP4 ADD DUP1 SLOAD PUSH1 0xFF NOT AND SWAP2 ISZERO ISZERO SWAP2 SWAP1 SWAP2 OR SWAP1 SSTORE PUSH1 0x80 SWAP1 SWAP3 ADD MLOAD PUSH1 0x4 SWAP1 SWAP2 ADD SSTORE MLOAD PUSH1 0x0 DUP1 MLOAD PUSH1 0x20 PUSH2 0x5475 DUP4 CODECOPY DUP2 MLOAD SWAP2 MSTORE SWAP1 PUSH1 0x1 PUSH1 0x1 PUSH1 0xA0 SHL SUB DUP6 AND SWAP1 PUSH1 0x0 DUP1 MLOAD PUSH1 0x20 PUSH2 0x5395 DUP4 CODECOPY DUP2 MLOAD SWAP2 MSTORE SWAP1 PUSH2 0x1DCB SWAP1 DUP7 SWAP1 PUSH2 0x4F21 JUMP JUMPDEST PUSH1 0x40 MLOAD DUP1 SWAP2 SUB SWAP1 LOG3 POP POP POP JUMP JUMPDEST PUSH1 0x0 DUP1 MLOAD PUSH1 0x20 PUSH2 0x53F5 DUP4 CODECOPY DUP2 MLOAD SWAP2 MSTORE PUSH2 0x1DF0 DUP2 PUSH2 0x3514 JUMP JUMPDEST POP PUSH1 0xD SSTORE JUMP JUMPDEST PUSH1 0x0 DUP1 MLOAD PUSH1 0x20 PUSH2 0x5475 DUP4 CODECOPY DUP2 MLOAD SWAP2 MSTORE PUSH2 0x1E0E DUP2 PUSH2 0x3514 JUMP JUMPDEST PUSH2 0x1E26 PUSH1 0x0 DUP1 MLOAD PUSH1 0x20 PUSH2 0x5455 DUP4 CODECOPY DUP2 MLOAD SWAP2 MSTORE DUP5 PUSH2 0x240B JUMP JUMPDEST ISZERO DUP1 ISZERO PUSH2 0x1E48 JUMPI POP PUSH2 0x1E46 PUSH1 0x0 DUP1 MLOAD PUSH1 0x20 PUSH2 0x5375 DUP4 CODECOPY DUP2 MLOAD SWAP2 MSTORE DUP5 PUSH2 0x240B JUMP JUMPDEST ISZERO JUMPDEST PUSH2 0x1E64 JUMPI PUSH1 0x40 MLOAD PUSH3 0x461BCD PUSH1 0xE5 SHL DUP2 MSTORE PUSH1 0x4 ADD PUSH2 0xFB3 SWAP1 PUSH2 0x4F34 JUMP JUMPDEST PUSH2 0x1E7C PUSH1 0x0 DUP1 MLOAD PUSH1 0x20 PUSH2 0x5475 DUP4 CODECOPY DUP2 MLOAD SWAP2 MSTORE DUP5 PUSH2 0x240B JUMP JUMPDEST ISZERO PUSH2 0x1E99 JUMPI PUSH1 0x40 MLOAD PUSH3 0x461BCD PUSH1 0xE5 SHL DUP2 MSTORE PUSH1 0x4 ADD PUSH2 0xFB3 SWAP1 PUSH2 0x4F7C JUMP JUMPDEST PUSH2 0x1EB1 PUSH1 0x0 DUP1 MLOAD PUSH1 0x20 PUSH2 0x53F5 DUP4 CODECOPY DUP2 MLOAD SWAP2 MSTORE DUP5 PUSH2 0x240B JUMP JUMPDEST ISZERO PUSH2 0x1ECE JUMPI PUSH1 0x40 MLOAD PUSH3 0x461BCD PUSH1 0xE5 SHL DUP2 MSTORE PUSH1 0x4 ADD PUSH2 0xFB3 SWAP1 PUSH2 0x4EE0 JUMP JUMPDEST PUSH2 0x1EE6 PUSH1 0x0 DUP1 MLOAD PUSH1 0x20 PUSH2 0x5455 DUP4 CODECOPY DUP2 MLOAD SWAP2 MSTORE DUP5 PUSH2 0x3594 JUMP JUMPDEST POP PUSH1 0x40 DUP1 MLOAD PUSH1 0xA0 DUP2 ADD DUP3 MSTORE PUSH1 0x1 PUSH1 0x1 PUSH1 0xA0 SHL SUB DUP6 DUP2 AND DUP1 DUP4 MSTORE PUSH1 0x20 DUP1 DUP5 ADD DUP8 DUP2 MSTORE PUSH1 0x3 DUP6 DUP8 ADD MSTORE PUSH1 0x1 PUSH1 0x60 DUP7 ADD DUP2 SWAP1 MSTORE TIMESTAMP PUSH1 0x80 DUP8 ADD MSTORE PUSH1 0x0 SWAP4 DUP5 MSTORE SWAP2 DUP3 SWAP1 MSTORE SWAP5 SWAP1 SWAP2 KECCAK256 DUP4 MLOAD DUP2 SLOAD PUSH1 0x1 PUSH1 0x1 PUSH1 0xA0 SHL SUB NOT AND SWAP4 AND SWAP3 SWAP1 SWAP3 OR DUP3 SSTORE SWAP3 MLOAD SWAP2 SWAP3 SWAP1 SWAP2 SWAP1 DUP3 ADD SWAP1 PUSH2 0x1F53 SWAP1 DUP3 PUSH2 0x4E0C JUMP JUMPDEST POP PUSH1 0x40 DUP3 DUP2 ADD MLOAD PUSH1 0x2 DUP4 ADD SSTORE PUSH1 0x60 DUP4 ADD MLOAD PUSH1 0x3 DUP4 ADD DUP1 SLOAD PUSH1 0xFF NOT AND SWAP2 ISZERO ISZERO SWAP2 SWAP1 SWAP2 OR SWAP1 SSTORE PUSH1 0x80 SWAP1 SWAP3 ADD MLOAD PUSH1 0x4 SWAP1 SWAP2 ADD SSTORE MLOAD PUSH1 0x0 DUP1 MLOAD PUSH1 0x20 PUSH2 0x5455 DUP4 CODECOPY DUP2 MLOAD SWAP2 MSTORE SWAP1 PUSH1 0x1 PUSH1 0x1 PUSH1 0xA0 SHL SUB DUP6 AND SWAP1 PUSH1 0x0 DUP1 MLOAD PUSH1 0x20 PUSH2 0x5395 DUP4 CODECOPY DUP2 MLOAD SWAP2 MSTORE SWAP1 PUSH2 0x1DCB SWAP1 DUP7 SWAP1 PUSH2 0x4F21 JUMP JUMPDEST PUSH1 0x0 DUP1 MLOAD PUSH1 0x20 PUSH2 0x5475 DUP4 CODECOPY DUP2 MLOAD SWAP2 MSTORE PUSH2 0x1FD2 DUP2 PUSH2 0x3514 JUMP JUMPDEST PUSH2 0x1FEA PUSH1 0x0 DUP1 MLOAD PUSH1 0x20 PUSH2 0x5455 DUP4 CODECOPY DUP2 MLOAD SWAP2 MSTORE DUP5 PUSH2 0x240B JUMP JUMPDEST ISZERO DUP1 ISZERO PUSH2 0x200C JUMPI POP PUSH2 0x200A PUSH1 0x0 DUP1 MLOAD PUSH1 0x20 PUSH2 0x5375 DUP4 CODECOPY DUP2 MLOAD SWAP2 MSTORE DUP5 PUSH2 0x240B JUMP JUMPDEST ISZERO JUMPDEST PUSH2 0x2028 JUMPI PUSH1 0x40 MLOAD PUSH3 0x461BCD PUSH1 0xE5 SHL DUP2 MSTORE PUSH1 0x4 ADD PUSH2 0xFB3 SWAP1 PUSH2 0x4F34 JUMP JUMPDEST PUSH2 0x2040 PUSH1 0x0 DUP1 MLOAD PUSH1 0x20 PUSH2 0x5475 DUP4 CODECOPY DUP2 MLOAD SWAP2 MSTORE DUP5 PUSH2 0x240B JUMP JUMPDEST ISZERO PUSH2 0x205D JUMPI PUSH1 0x40 MLOAD PUSH3 0x461BCD PUSH1 0xE5 SHL DUP2 MSTORE PUSH1 0x4 ADD PUSH2 0xFB3 SWAP1 PUSH2 0x4F7C JUMP JUMPDEST PUSH2 0x2075 PUSH1 0x0 DUP1 MLOAD PUSH1 0x20 PUSH2 0x53F5 DUP4 CODECOPY DUP2 MLOAD SWAP2 MSTORE DUP5 PUSH2 0x240B JUMP JUMPDEST ISZERO PUSH2 0x2092 JUMPI PUSH1 0x40 MLOAD PUSH3 0x461BCD PUSH1 0xE5 SHL DUP2 MSTORE PUSH1 0x4 ADD PUSH2 0xFB3 SWAP1 PUSH2 0x4EE0 JUMP JUMPDEST PUSH2 0x20AA PUSH1 0x0 DUP1 MLOAD PUSH1 0x20 PUSH2 0x5375 DUP4 CODECOPY DUP2 MLOAD SWAP2 MSTORE DUP5 PUSH2 0x3594 JUMP JUMPDEST POP PUSH1 0x40 DUP1 MLOAD PUSH1 0xA0 DUP2 ADD DUP3 MSTORE PUSH1 0x1 PUSH1 0x1 PUSH1 0xA0 SHL SUB DUP6 DUP2 AND DUP1 DUP4 MSTORE PUSH1 0x20 DUP1 DUP5 ADD DUP8 DUP2 MSTORE PUSH1 0x3 DUP6 DUP8 ADD MSTORE PUSH1 0x1 PUSH1 0x60 DUP7 ADD DUP2 SWAP1 MSTORE TIMESTAMP PUSH1 0x80 DUP8 ADD MSTORE PUSH1 0x0 SWAP4 DUP5 MSTORE SWAP2 DUP3 SWAP1 MSTORE SWAP5 SWAP1 SWAP2 KECCAK256 DUP4 MLOAD DUP2 SLOAD PUSH1 0x1 PUSH1 0x1 PUSH1 0xA0 SHL SUB NOT AND SWAP4 AND SWAP3 SWAP1 SWAP3 OR DUP3 SSTORE SWAP3 MLOAD SWAP2 SWAP3 SWAP1 SWAP2 SWAP1 DUP3 ADD SWAP1 PUSH2 0x2117 SWAP1 DUP3 PUSH2 0x4E0C JUMP JUMPDEST POP PUSH1 0x40 DUP3 DUP2 ADD MLOAD PUSH1 0x2 DUP4 ADD SSTORE PUSH1 0x60 DUP4 ADD MLOAD PUSH1 0x3 DUP4 ADD DUP1 SLOAD PUSH1 0xFF NOT AND SWAP2 ISZERO ISZERO SWAP2 SWAP1 SWAP2 OR SWAP1 SSTORE PUSH1 0x80 SWAP1 SWAP3 ADD MLOAD PUSH1 0x4 SWAP1 SWAP2 ADD SSTORE MLOAD PUSH1 0x0 DUP1 MLOAD PUSH1 0x20 PUSH2 0x5375 DUP4 CODECOPY DUP2 MLOAD SWAP2 MSTORE SWAP1 PUSH1 0x1 PUSH1 0x1 PUSH1 0xA0 SHL SUB DUP6 AND SWAP1 PUSH1 0x0 DUP1 MLOAD PUSH1 0x20 PUSH2 0x5395 DUP4 CODECOPY DUP2 MLOAD SWAP2 MSTORE SWAP1 PUSH2 0x1DCB SWAP1 DUP7 SWAP1 PUSH2 0x4F21 JUMP JUMPDEST PUSH1 0x1 PUSH1 0x1 PUSH1 0xA0 SHL SUB DUP2 AND PUSH1 0x0 SWAP1 DUP2 MSTORE PUSH1 0xA PUSH1 0x20 SWAP1 DUP2 MSTORE PUSH1 0x40 SWAP2 DUP3 SWAP1 KECCAK256 DUP1 SLOAD DUP4 MLOAD DUP2 DUP5 MUL DUP2 ADD DUP5 ADD SWAP1 SWAP5 MSTORE DUP1 DUP5 MSTORE PUSH1 0x60 SWAP4 SWAP3 DUP4 ADD DUP3 DUP3 DUP1 ISZERO PUSH2 0x21DE JUMPI PUSH1 0x20 MUL DUP3 ADD SWAP2 SWAP1 PUSH1 0x0 MSTORE PUSH1 0x20 PUSH1 0x0 KECCAK256 SWAP1 JUMPDEST DUP2 SLOAD DUP2 MSTORE PUSH1 0x20 ADD SWAP1 PUSH1 0x1 ADD SWAP1 DUP1 DUP4 GT PUSH2 0x21CA JUMPI JUMPDEST POP POP POP POP POP SWAP1 POP SWAP2 SWAP1 POP JUMP JUMPDEST PUSH1 0x1 PUSH1 0x1 PUSH1 0xA0 SHL SUB DUP1 DUP4 AND PUSH1 0x0 SWAP1 DUP2 MSTORE PUSH1 0x1 PUSH1 0x20 DUP2 DUP2 MSTORE PUSH1 0x40 DUP1 DUP5 KECCAK256 DUP2 MLOAD PUSH1 0xA0 DUP2 ADD SWAP1 SWAP3 MSTORE DUP1 SLOAD SWAP1 SWAP6 AND DUP2 MSTORE SWAP2 DUP5 ADD DUP1 SLOAD SWAP4 SWAP5 DUP6 SWAP5 SWAP1 SWAP3 DUP5 ADD SWAP2 SWAP1 PUSH2 0x222E SWAP1 PUSH2 0x4CF5 JUMP JUMPDEST DUP1 PUSH1 0x1F ADD PUSH1 0x20 DUP1 SWAP2 DIV MUL PUSH1 0x20 ADD PUSH1 0x40 MLOAD SWAP1 DUP2 ADD PUSH1 0x40 MSTORE DUP1 SWAP3 SWAP2 SWAP1 DUP2 DUP2 MSTORE PUSH1 0x20 ADD DUP3 DUP1 SLOAD PUSH2 0x225A SWAP1 PUSH2 0x4CF5 JUMP JUMPDEST DUP1 ISZERO PUSH2 0x22A7 JUMPI DUP1 PUSH1 0x1F LT PUSH2 0x227C JUMPI PUSH2 0x100 DUP1 DUP4 SLOAD DIV MUL DUP4 MSTORE SWAP2 PUSH1 0x20 ADD SWAP2 PUSH2 0x22A7 JUMP JUMPDEST DUP3 ADD SWAP2 SWAP1 PUSH1 0x0 MSTORE PUSH1 0x20 PUSH1 0x0 KECCAK256 SWAP1 JUMPDEST DUP2 SLOAD DUP2 MSTORE SWAP1 PUSH1 0x1 ADD SWAP1 PUSH1 0x20 ADD DUP1 DUP4 GT PUSH2 0x228A JUMPI DUP3 SWAP1 SUB PUSH1 0x1F AND DUP3 ADD SWAP2 JUMPDEST POP POP POP SWAP2 DUP4 MSTORE POP POP PUSH1 0x2 DUP3 ADD SLOAD PUSH1 0x20 DUP3 ADD MSTORE PUSH1 0x3 DUP3 ADD SLOAD PUSH1 0xFF AND ISZERO ISZERO PUSH1 0x40 DUP3 ADD MSTORE PUSH1 0x4 SWAP1 SWAP2 ADD SLOAD PUSH1 0x60 SWAP2 DUP3 ADD MSTORE DUP2 ADD MLOAD SWAP1 SWAP2 POP DUP1 ISZERO PUSH2 0x22EA JUMPI POP DUP3 DUP2 PUSH1 0x40 ADD MLOAD GT ISZERO JUMPDEST SWAP5 SWAP4 POP POP POP POP JUMP JUMPDEST PUSH1 0x4 PUSH1 0x20 MSTORE DUP2 PUSH1 0x0 MSTORE PUSH1 0x40 PUSH1 0x0 KECCAK256 DUP2 DUP2 SLOAD DUP2 LT PUSH2 0x15CF JUMPI PUSH1 0x0 DUP1 REVERT JUMPDEST PUSH2 0x2317 CALLER PUSH2 0x10A9 JUMP JUMPDEST PUSH2 0x2333 JUMPI PUSH1 0x40 MLOAD PUSH3 0x461BCD PUSH1 0xE5 SHL DUP2 MSTORE PUSH1 0x4 ADD PUSH2 0xFB3 SWAP1 PUSH2 0x4FBF JUMP JUMPDEST PUSH1 0x0 CALLER DUP3 TIMESTAMP PUSH1 0x6 SLOAD PUSH1 0x40 MLOAD PUSH1 0x20 ADD PUSH2 0x234E SWAP5 SWAP4 SWAP3 SWAP2 SWAP1 PUSH2 0x4D87 JUMP JUMPDEST PUSH1 0x40 DUP1 MLOAD PUSH1 0x1F NOT DUP2 DUP5 SUB ADD DUP2 MSTORE DUP3 DUP3 MSTORE DUP1 MLOAD PUSH1 0x20 SWAP2 DUP3 ADD KECCAK256 PUSH1 0x80 DUP5 ADD DUP4 MSTORE DUP6 DUP5 MSTORE CALLER DUP3 DUP6 ADD DUP2 DUP2 MSTORE PUSH1 0x0 DUP7 DUP7 ADD DUP2 DUP2 MSTORE PUSH1 0x60 DUP9 ADD DUP3 DUP2 MSTORE DUP6 DUP4 MSTORE PUSH1 0x3 DUP8 MSTORE DUP8 DUP4 KECCAK256 DUP10 MLOAD DUP2 SSTORE SWAP4 MLOAD PUSH1 0x1 DUP1 DUP7 ADD DUP1 SLOAD SWAP5 MLOAD ISZERO ISZERO PUSH1 0x1 PUSH1 0xA0 SHL MUL PUSH1 0x1 PUSH1 0x1 PUSH1 0xA8 SHL SUB NOT SWAP1 SWAP6 AND PUSH1 0x1 PUSH1 0x1 PUSH1 0xA0 SHL SUB SWAP1 SWAP4 AND SWAP3 SWAP1 SWAP3 OR SWAP4 SWAP1 SWAP4 OR SWAP1 SSTORE MLOAD PUSH1 0x2 SWAP1 SWAP4 ADD SWAP3 SWAP1 SWAP3 SSTORE DUP3 DUP2 MSTORE PUSH1 0x4 DUP6 MSTORE DUP6 DUP2 KECCAK256 DUP1 SLOAD SWAP3 DUP4 ADD DUP2 SSTORE DUP2 MSTORE DUP5 SWAP1 KECCAK256 ADD DUP3 SWAP1 SSTORE SWAP3 MLOAD DUP7 DUP2 MSTORE SWAP1 SWAP5 POP DUP5 SWAP2 PUSH1 0x0 DUP1 MLOAD PUSH1 0x20 PUSH2 0x5435 DUP4 CODECOPY DUP2 MLOAD SWAP2 MSTORE SWAP2 ADD PUSH2 0x1DCB JUMP JUMPDEST PUSH1 0x0 SWAP2 DUP3 MSTORE PUSH1 0x20 DUP3 DUP2 MSTORE PUSH1 0x40 DUP1 DUP5 KECCAK256 PUSH1 0x1 PUSH1 0x1 PUSH1 0xA0 SHL SUB SWAP4 SWAP1 SWAP4 AND DUP5 MSTORE SWAP2 SWAP1 MSTORE SWAP1 KECCAK256 SLOAD PUSH1 0xFF AND SWAP1 JUMP JUMPDEST PUSH1 0x0 DUP1 MLOAD PUSH1 0x20 PUSH2 0x53F5 DUP4 CODECOPY DUP2 MLOAD SWAP2 MSTORE PUSH2 0x244C DUP2 PUSH2 0x3514 JUMP JUMPDEST PUSH2 0x2464 PUSH1 0x0 DUP1 MLOAD PUSH1 0x20 PUSH2 0x53B5 DUP4 CODECOPY DUP2 MLOAD SWAP2 MSTORE DUP5 PUSH2 0x240B JUMP JUMPDEST ISZERO PUSH2 0x24BC JUMPI PUSH1 0x40 MLOAD PUSH3 0x461BCD PUSH1 0xE5 SHL DUP2 MSTORE PUSH1 0x20 PUSH1 0x4 DUP3 ADD MSTORE PUSH1 0x22 PUSH1 0x24 DUP3 ADD MSTORE PUSH32 0x4163636F756E7420616C7265616479206861732076616C696461746F7220726F PUSH1 0x44 DUP3 ADD MSTORE PUSH2 0x6C65 PUSH1 0xF0 SHL PUSH1 0x64 DUP3 ADD MSTORE PUSH1 0x84 ADD PUSH2 0xFB3 JUMP JUMPDEST PUSH2 0x24D4 PUSH1 0x0 DUP1 MLOAD PUSH1 0x20 PUSH2 0x53B5 DUP4 CODECOPY DUP2 MLOAD SWAP2 MSTORE DUP5 PUSH2 0x3594 JUMP JUMPDEST POP PUSH1 0x40 DUP1 MLOAD PUSH1 0xA0 DUP2 ADD DUP3 MSTORE PUSH1 0x1 PUSH1 0x1 PUSH1 0xA0 SHL SUB DUP6 DUP2 AND DUP1 DUP4 MSTORE PUSH1 0x20 DUP1 DUP5 ADD DUP8 DUP2 MSTORE PUSH1 0x2 DUP6 DUP8 ADD MSTORE PUSH1 0x1 PUSH1 0x60 DUP7 ADD DUP2 SWAP1 MSTORE TIMESTAMP PUSH1 0x80 DUP8 ADD MSTORE PUSH1 0x0 SWAP4 DUP5 MSTORE SWAP2 DUP3 SWAP1 MSTORE SWAP5 SWAP1 SWAP2 KECCAK256 DUP4 MLOAD DUP2 SLOAD PUSH1 0x1 PUSH1 0x1 PUSH1 0xA0 SHL SUB NOT AND SWAP4 AND SWAP3 SWAP1 SWAP3 OR DUP3 SSTORE SWAP3 MLOAD SWAP2 SWAP3 SWAP1 SWAP2 SWAP1 DUP3 ADD SWAP1 PUSH2 0x2541 SWAP1 DUP3 PUSH2 0x4E0C JUMP JUMPDEST POP PUSH1 0x40 DUP3 DUP2 ADD MLOAD PUSH1 0x2 DUP4 ADD SSTORE PUSH1 0x60 DUP4 ADD MLOAD PUSH1 0x3 DUP4 ADD DUP1 SLOAD PUSH1 0xFF NOT AND SWAP2 ISZERO ISZERO SWAP2 SWAP1 SWAP2 OR SWAP1 SSTORE PUSH1 0x80 SWAP1 SWAP3 ADD MLOAD PUSH1 0x4 SWAP1 SWAP2 ADD SSTORE MLOAD PUSH1 0x0 DUP1 MLOAD PUSH1 0x20 PUSH2 0x53B5 DUP4 CODECOPY DUP2 MLOAD SWAP2 MSTORE SWAP1 PUSH1 0x1 PUSH1 0x1 PUSH1 0xA0 SHL SUB DUP6 AND SWAP1 PUSH1 0x0 DUP1 MLOAD PUSH1 0x20 PUSH2 0x5395 DUP4 CODECOPY DUP2 MLOAD SWAP2 MSTORE SWAP1 PUSH2 0x1DCB SWAP1 DUP7 SWAP1 PUSH2 0x4F21 JUMP JUMPDEST PUSH2 0x25C0 PUSH1 0x0 DUP1 MLOAD PUSH1 0x20 PUSH2 0x53F5 DUP4 CODECOPY DUP2 MLOAD SWAP2 MSTORE CALLER PUSH2 0x240B JUMP JUMPDEST DUP1 PUSH2 0x25DE JUMPI POP PUSH2 0x25DE PUSH1 0x0 DUP1 MLOAD PUSH1 0x20 PUSH2 0x5475 DUP4 CODECOPY DUP2 MLOAD SWAP2 MSTORE CALLER PUSH2 0x240B JUMP JUMPDEST PUSH2 0x2628 JUMPI PUSH1 0x40 MLOAD PUSH3 0x461BCD PUSH1 0xE5 SHL DUP2 MSTORE PUSH1 0x20 PUSH1 0x4 DUP3 ADD MSTORE PUSH1 0x1B PUSH1 0x24 DUP3 ADD MSTORE PUSH27 0x4F6E6C792062616E6B732063616E2075706461746520726F6C6573 PUSH1 0x28 SHL PUSH1 0x44 DUP3 ADD MSTORE PUSH1 0x64 ADD PUSH2 0xFB3 JUMP JUMPDEST PUSH1 0x1 PUSH1 0x1 PUSH1 0xA0 SHL SUB DUP4 DUP2 AND PUSH1 0x0 SWAP1 DUP2 MSTORE PUSH1 0x1 PUSH1 0x20 MSTORE PUSH1 0x40 SWAP1 KECCAK256 SLOAD AND PUSH2 0x268E JUMPI PUSH1 0x40 MLOAD PUSH3 0x461BCD PUSH1 0xE5 SHL DUP2 MSTORE PUSH1 0x20 PUSH1 0x4 DUP3 ADD MSTORE PUSH1 0x1C PUSH1 0x24 DUP3 ADD MSTORE PUSH28 0x4163636F756E7420646F6573206E6F742068617665206120726F6C65 PUSH1 0x20 SHL PUSH1 0x44 DUP3 ADD MSTORE PUSH1 0x64 ADD PUSH2 0xFB3 JUMP JUMPDEST PUSH1 0x1 PUSH1 0x1 PUSH1 0xA0 SHL SUB DUP4 AND PUSH1 0x0 SWAP1 DUP2 MSTORE PUSH1 0x1 PUSH1 0x20 DUP2 SWAP1 MSTORE PUSH1 0x40 SWAP1 SWAP2 KECCAK256 SWAP1 DUP2 ADD PUSH2 0x26B6 DUP5 DUP3 PUSH2 0x4E0C JUMP JUMPDEST POP PUSH1 0x3 DUP2 ADD DUP1 SLOAD PUSH1 0xFF NOT AND DUP4 ISZERO ISZERO OR SWAP1 SSTORE PUSH1 0x40 MLOAD PUSH1 0x1 PUSH1 0x1 PUSH1 0xA0 SHL SUB DUP6 AND SWAP1 PUSH32 0xC4D12F4FED3C7D8E40B10B954DC4B19C26000388E17FD31B4AF750DD33B41664 SWAP1 PUSH2 0x2704 SWAP1 DUP7 SWAP1 DUP7 SWAP1 PUSH2 0x4FF6 JUMP JUMPDEST PUSH1 0x40 MLOAD DUP1 SWAP2 SUB SWAP1 LOG2 POP POP POP POP JUMP JUMPDEST PUSH1 0x1 PUSH1 0x1 PUSH1 0xA0 SHL SUB DUP2 AND PUSH1 0x0 SWAP1 DUP2 MSTORE PUSH1 0x4 PUSH1 0x20 SWAP1 DUP2 MSTORE PUSH1 0x40 SWAP2 DUP3 SWAP1 KECCAK256 DUP1 SLOAD DUP4 MLOAD DUP2 DUP5 MUL DUP2 ADD DUP5 ADD SWAP1 SWAP5 MSTORE DUP1 DUP5 MSTORE PUSH1 0x60 SWAP4 SWAP3 DUP4 ADD DUP3 DUP3 DUP1 ISZERO PUSH2 0x21DE JUMPI PUSH1 0x20 MUL DUP3 ADD SWAP2 SWAP1 PUSH1 0x0 MSTORE PUSH1 0x20 PUSH1 0x0 KECCAK256 SWAP1 DUP2 SLOAD DUP2 MSTORE PUSH1 0x20 ADD SWAP1 PUSH1 0x1 ADD SWAP1 DUP1 DUP4 GT PUSH2 0x21CA JUMPI POP POP POP POP POP SWAP1 POP SWAP2 SWAP1 POP JUMP JUMPDEST PUSH1 0x0 DUP1 MLOAD PUSH1 0x20 PUSH2 0x53F5 DUP4 CODECOPY DUP2 MLOAD SWAP2 MSTORE PUSH2 0x2794 DUP2 PUSH2 0x3514 JUMP JUMPDEST PUSH2 0x27AC PUSH1 0x0 DUP1 MLOAD PUSH1 0x20 PUSH2 0x5415 DUP4 CODECOPY DUP2 MLOAD SWAP2 MSTORE DUP5 PUSH2 0x240B JUMP JUMPDEST ISZERO PUSH2 0x2804 JUMPI PUSH1 0x40 MLOAD PUSH3 0x461BCD PUSH1 0xE5 SHL DUP2 MSTORE PUSH1 0x20 PUSH1 0x4 DUP3 ADD MSTORE PUSH1 0x22 PUSH1 0x24 DUP3 ADD MSTORE PUSH32 0x4163636F756E7420616C72656164792068617320726567756C61746F7220726F PUSH1 0x44 DUP3 ADD MSTORE PUSH2 0x6C65 PUSH1 0xF0 SHL PUSH1 0x64 DUP3 ADD MSTORE PUSH1 0x84 ADD PUSH2 0xFB3 JUMP JUMPDEST PUSH2 0x281C PUSH1 0x0 DUP1 MLOAD PUSH1 0x20 PUSH2 0x5415 DUP4 CODECOPY DUP2 MLOAD SWAP2 MSTORE DUP5 PUSH2 0x3594 JUMP JUMPDEST POP PUSH1 0x40 DUP1 MLOAD PUSH1 0xA0 DUP2 ADD DUP3 MSTORE PUSH1 0x1 PUSH1 0x1 PUSH1 0xA0 SHL SUB DUP6 DUP2 AND DUP1 DUP4 MSTORE PUSH1 0x20 DUP1 DUP5 ADD DUP8 DUP2 MSTORE PUSH1 0x0 DUP6 DUP8 ADD DUP2 SWAP1 MSTORE PUSH1 0x1 PUSH1 0x60 DUP8 ADD DUP2 SWAP1 MSTORE TIMESTAMP PUSH1 0x80 DUP9 ADD MSTORE SWAP4 DUP2 MSTORE SWAP2 DUP4 SWAP1 MSTORE SWAP5 SWAP1 KECCAK256 DUP4 MLOAD DUP2 SLOAD PUSH1 0x1 PUSH1 0x1 PUSH1 0xA0 SHL SUB NOT AND SWAP4 AND SWAP3 SWAP1 SWAP3 OR DUP3 SSTORE SWAP3 MLOAD SWAP2 SWAP3 SWAP1 SWAP2 SWAP1 DUP3 ADD SWAP1 PUSH2 0x2888 SWAP1 DUP3 PUSH2 0x4E0C JUMP JUMPDEST POP PUSH1 0x40 DUP3 DUP2 ADD MLOAD PUSH1 0x2 DUP4 ADD SSTORE PUSH1 0x60 DUP4 ADD MLOAD PUSH1 0x3 DUP4 ADD DUP1 SLOAD PUSH1 0xFF NOT AND SWAP2 ISZERO ISZERO SWAP2 SWAP1 SWAP2 OR SWAP1 SSTORE PUSH1 0x80 SWAP1 SWAP3 ADD MLOAD PUSH1 0x4 SWAP1 SWAP2 ADD SSTORE MLOAD PUSH1 0x0 DUP1 MLOAD PUSH1 0x20 PUSH2 0x5415 DUP4 CODECOPY DUP2 MLOAD SWAP2 MSTORE SWAP1 PUSH1 0x1 PUSH1 0x1 PUSH1 0xA0 SHL SUB DUP6 AND SWAP1 PUSH1 0x0 DUP1 MLOAD PUSH1 0x20 PUSH2 0x5395 DUP4 CODECOPY DUP2 MLOAD SWAP2 MSTORE SWAP1 PUSH2 0x1DCB SWAP1 DUP7 SWAP1 PUSH2 0x4F21 JUMP JUMPDEST PUSH2 0x28F8 CALLER PUSH2 0x10A9 JUMP JUMPDEST PUSH2 0x2914 JUMPI PUSH1 0x40 MLOAD PUSH3 0x461BCD PUSH1 0xE5 SHL DUP2 MSTORE PUSH1 0x4 ADD PUSH2 0xFB3 SWAP1 PUSH2 0x4FBF JUMP JUMPDEST PUSH1 0x0 DUP1 JUMPDEST DUP4 DUP2 LT ISZERO PUSH2 0x29F2 JUMPI PUSH1 0x0 PUSH1 0x3 PUSH1 0x0 DUP8 DUP8 DUP6 DUP2 DUP2 LT PUSH2 0x2938 JUMPI PUSH2 0x2938 PUSH2 0x4D2F JUMP JUMPDEST PUSH1 0x20 SWAP1 DUP2 MUL SWAP3 SWAP1 SWAP3 ADD CALLDATALOAD DUP4 MSTORE POP DUP2 ADD SWAP2 SWAP1 SWAP2 MSTORE PUSH1 0x40 ADD PUSH1 0x0 KECCAK256 PUSH1 0x1 DUP2 ADD SLOAD SWAP1 SWAP2 POP PUSH1 0x1 PUSH1 0x1 PUSH1 0xA0 SHL SUB AND CALLER EQ PUSH2 0x2980 JUMPI PUSH1 0x40 MLOAD PUSH3 0x461BCD PUSH1 0xE5 SHL DUP2 MSTORE PUSH1 0x4 ADD PUSH2 0xFB3 SWAP1 PUSH2 0x501A JUMP JUMPDEST PUSH1 0x1 DUP2 ADD SLOAD PUSH1 0x1 PUSH1 0xA0 SHL SWAP1 DIV PUSH1 0xFF AND ISZERO PUSH2 0x29AC JUMPI PUSH1 0x40 MLOAD PUSH3 0x461BCD PUSH1 0xE5 SHL DUP2 MSTORE PUSH1 0x4 ADD PUSH2 0xFB3 SWAP1 PUSH2 0x5046 JUMP JUMPDEST DUP1 PUSH1 0x2 ADD SLOAD TIMESTAMP LT ISZERO PUSH2 0x29D0 JUMPI PUSH1 0x40 MLOAD PUSH3 0x461BCD PUSH1 0xE5 SHL DUP2 MSTORE PUSH1 0x4 ADD PUSH2 0xFB3 SWAP1 PUSH2 0x5072 JUMP JUMPDEST DUP1 SLOAD PUSH2 0x29DC SWAP1 DUP5 PUSH2 0x4D74 JUMP JUMPDEST SWAP3 POP POP DUP1 DUP1 PUSH2 0x29EA SWAP1 PUSH2 0x4D5B JUMP JUMPDEST SWAP2 POP POP PUSH2 0x2918 JUMP JUMPDEST POP DUP2 DUP2 LT ISZERO PUSH2 0x2A3F JUMPI PUSH1 0x40 MLOAD PUSH3 0x461BCD PUSH1 0xE5 SHL DUP2 MSTORE PUSH1 0x20 PUSH1 0x4 DUP3 ADD MSTORE PUSH1 0x19 PUSH1 0x24 DUP3 ADD MSTORE PUSH25 0x496E73756666696369656E74205554584F2062616C616E6365 PUSH1 0x38 SHL PUSH1 0x44 DUP3 ADD MSTORE PUSH1 0x64 ADD PUSH2 0xFB3 JUMP JUMPDEST PUSH1 0x0 JUMPDEST DUP4 DUP2 LT ISZERO PUSH2 0x2AE7 JUMPI PUSH1 0x0 PUSH1 0x3 PUSH1 0x0 DUP8 DUP8 DUP6 DUP2 DUP2 LT PUSH2 0x2A62 JUMPI PUSH2 0x2A62 PUSH2 0x4D2F JUMP JUMPDEST PUSH1 0x20 SWAP1 DUP2 MUL SWAP3 SWAP1 SWAP3 ADD CALLDATALOAD DUP4 MSTORE POP DUP2 ADD SWAP2 SWAP1 SWAP2 MSTORE PUSH1 0x40 ADD PUSH1 0x0 KECCAK256 PUSH1 0x1 DUP2 ADD DUP1 SLOAD PUSH1 0xFF PUSH1 0xA0 SHL NOT AND PUSH1 0x1 PUSH1 0xA0 SHL OR SWAP1 SSTORE SWAP1 POP DUP6 DUP6 DUP4 DUP2 DUP2 LT PUSH2 0x2AA4 JUMPI PUSH2 0x2AA4 PUSH2 0x4D2F JUMP JUMPDEST SWAP1 POP PUSH1 0x20 MUL ADD CALLDATALOAD PUSH1 0x0 DUP1 MLOAD PUSH1 0x20 PUSH2 0x54B5 DUP4 CODECOPY DUP2 MLOAD SWAP2 MSTORE PUSH1 0x6 SLOAD PUSH1 0x40 MLOAD PUSH2 0x2ACC SWAP2 DUP2 MSTORE PUSH1 0x20 ADD SWAP1 JUMP JUMPDEST PUSH1 0x40 MLOAD DUP1 SWAP2 SUB SWAP1 LOG2 POP DUP1 PUSH2 0x2ADF DUP2 PUSH2 0x4D5B JUMP JUMPDEST SWAP2 POP POP PUSH2 0x2A42 JUMP JUMPDEST POP PUSH1 0x0 JUMPDEST DUP4 DUP2 LT ISZERO PUSH2 0x2B29 JUMPI PUSH2 0x2B17 CALLER DUP7 DUP7 DUP5 DUP2 DUP2 LT PUSH2 0x2B09 JUMPI PUSH2 0x2B09 PUSH2 0x4D2F JUMP JUMPDEST SWAP1 POP PUSH1 0x20 MUL ADD CALLDATALOAD PUSH1 0x0 PUSH2 0x361E JUMP JUMPDEST DUP1 PUSH2 0x2B21 DUP2 PUSH2 0x4D5B JUMP JUMPDEST SWAP2 POP POP PUSH2 0x2AEB JUMP JUMPDEST POP POP POP POP POP JUMP JUMPDEST PUSH2 0x2B39 DUP3 PUSH2 0x11B5 JUMP JUMPDEST PUSH2 0x2B42 DUP2 PUSH2 0x3514 JUMP JUMPDEST PUSH2 0x12AE DUP4 DUP4 PUSH2 0x3521 JUMP JUMPDEST PUSH2 0x2B54 PUSH2 0x4409 JUMP JUMPDEST POP PUSH1 0x0 SWAP1 DUP2 MSTORE PUSH1 0x3 PUSH1 0x20 SWAP1 DUP2 MSTORE PUSH1 0x40 SWAP2 DUP3 SWAP1 KECCAK256 DUP3 MLOAD PUSH1 0x80 DUP2 ADD DUP5 MSTORE DUP2 SLOAD DUP2 MSTORE PUSH1 0x1 DUP3 ADD SLOAD PUSH1 0x1 PUSH1 0x1 PUSH1 0xA0 SHL SUB DUP2 AND SWAP4 DUP3 ADD SWAP4 SWAP1 SWAP4 MSTORE PUSH1 0x1 PUSH1 0xA0 SHL SWAP1 SWAP3 DIV PUSH1 0xFF AND ISZERO ISZERO SWAP3 DUP3 ADD SWAP3 SWAP1 SWAP3 MSTORE PUSH1 0x2 SWAP1 SWAP2 ADD SLOAD PUSH1 0x60 DUP3 ADD MSTORE SWAP1 JUMP JUMPDEST PUSH1 0x0 DUP1 PUSH2 0x2BBA DUP7 DUP7 DUP7 DUP7 PUSH2 0x371E JUMP JUMPDEST SWAP1 POP PUSH1 0x0 PUSH1 0x2 PUSH1 0x0 DUP4 DUP2 MSTORE PUSH1 0x20 ADD SWAP1 DUP2 MSTORE PUSH1 0x20 ADD PUSH1 0x0 KECCAK256 PUSH1 0x40 MLOAD DUP1 PUSH1 0xA0 ADD PUSH1 0x40 MSTORE SWAP1 DUP2 PUSH1 0x0 DUP3 ADD SLOAD DUP2 MSTORE PUSH1 0x20 ADD PUSH1 0x1 DUP3 ADD DUP1 SLOAD DUP1 PUSH1 0x20 MUL PUSH1 0x20 ADD PUSH1 0x40 MLOAD SWAP1 DUP2 ADD PUSH1 0x40 MSTORE DUP1 SWAP3 SWAP2 SWAP1 DUP2 DUP2 MSTORE PUSH1 0x20 ADD PUSH1 0x0 SWAP1 JUMPDEST DUP3 DUP3 LT ISZERO PUSH2 0x2CE3 JUMPI DUP4 DUP3 SWAP1 PUSH1 0x0 MSTORE PUSH1 0x20 PUSH1 0x0 KECCAK256 SWAP1 PUSH1 0x3 MUL ADD PUSH1 0x40 MLOAD DUP1 PUSH1 0x60 ADD PUSH1 0x40 MSTORE SWAP1 DUP2 PUSH1 0x0 DUP3 ADD SLOAD DUP2 MSTORE PUSH1 0x20 ADD PUSH1 0x1 DUP3 ADD SLOAD DUP2 MSTORE PUSH1 0x20 ADD PUSH1 0x2 DUP3 ADD DUP1 SLOAD PUSH2 0x2C52 SWAP1 PUSH2 0x4CF5 JUMP JUMPDEST DUP1 PUSH1 0x1F ADD PUSH1 0x20 DUP1 SWAP2 DIV MUL PUSH1 0x20 ADD PUSH1 0x40 MLOAD SWAP1 DUP2 ADD PUSH1 0x40 MSTORE DUP1 SWAP3 SWAP2 SWAP1 DUP2 DUP2 MSTORE PUSH1 0x20 ADD DUP3 DUP1 SLOAD PUSH2 0x2C7E SWAP1 PUSH2 0x4CF5 JUMP JUMPDEST DUP1 ISZERO PUSH2 0x2CCB JUMPI DUP1 PUSH1 0x1F LT PUSH2 0x2CA0 JUMPI PUSH2 0x100 DUP1 DUP4 SLOAD DIV MUL DUP4 MSTORE SWAP2 PUSH1 0x20 ADD SWAP2 PUSH2 0x2CCB JUMP JUMPDEST DUP3 ADD SWAP2 SWAP1 PUSH1 0x0 MSTORE PUSH1 0x20 PUSH1 0x0 KECCAK256 SWAP1 JUMPDEST DUP2 SLOAD DUP2 MSTORE SWAP1 PUSH1 0x1 ADD SWAP1 PUSH1 0x20 ADD DUP1 DUP4 GT PUSH2 0x2CAE JUMPI DUP3 SWAP1 SUB PUSH1 0x1F AND DUP3 ADD SWAP2 JUMPDEST POP POP POP POP POP DUP2 MSTORE POP POP DUP2 MSTORE PUSH1 0x20 ADD SWAP1 PUSH1 0x1 ADD SWAP1 PUSH2 0x2C0B JUMP JUMPDEST POP POP POP POP DUP2 MSTORE PUSH1 0x20 ADD PUSH1 0x2 DUP3 ADD DUP1 SLOAD DUP1 PUSH1 0x20 MUL PUSH1 0x20 ADD PUSH1 0x40 MLOAD SWAP1 DUP2 ADD PUSH1 0x40 MSTORE DUP1 SWAP3 SWAP2 SWAP1 DUP2 DUP2 MSTORE PUSH1 0x20 ADD PUSH1 0x0 SWAP1 JUMPDEST DUP3 DUP3 LT ISZERO PUSH2 0x2D75 JUMPI PUSH1 0x0 DUP5 DUP2 MSTORE PUSH1 0x20 SWAP1 DUP2 SWAP1 KECCAK256 PUSH1 0x40 DUP1 MLOAD PUSH1 0x80 DUP2 ADD DUP3 MSTORE PUSH1 0x3 DUP7 MUL SWAP1 SWAP3 ADD DUP1 SLOAD DUP4 MSTORE PUSH1 0x1 DUP1 DUP3 ADD SLOAD PUSH1 0x1 PUSH1 0x1 PUSH1 0xA0 SHL SUB DUP2 AND DUP6 DUP8 ADD MSTORE PUSH1 0x1 PUSH1 0xA0 SHL SWAP1 DIV PUSH1 0xFF AND ISZERO ISZERO SWAP3 DUP5 ADD SWAP3 SWAP1 SWAP3 MSTORE PUSH1 0x2 ADD SLOAD PUSH1 0x60 DUP4 ADD MSTORE SWAP1 DUP4 MSTORE SWAP1 SWAP3 ADD SWAP2 ADD PUSH2 0x2D10 JUMP JUMPDEST POP POP POP SWAP1 DUP3 MSTORE POP PUSH1 0x3 DUP3 ADD SLOAD PUSH1 0x20 DUP3 ADD MSTORE PUSH1 0x4 SWAP1 SWAP2 ADD SLOAD PUSH1 0x1 PUSH1 0x1 PUSH1 0xA0 SHL SUB AND PUSH1 0x40 SWAP1 SWAP2 ADD MSTORE SWAP1 POP PUSH2 0x2DA7 DUP3 DUP3 PUSH2 0x3FB8 JUMP JUMPDEST POP SWAP6 SWAP5 POP POP POP POP POP JUMP JUMPDEST PUSH1 0x0 DUP1 MLOAD PUSH1 0x20 PUSH2 0x5415 DUP4 CODECOPY DUP2 MLOAD SWAP2 MSTORE PUSH2 0x2DC9 DUP2 PUSH2 0x3514 JUMP JUMPDEST PUSH1 0x11 SLOAD DUP5 LT PUSH2 0x2E28 JUMPI PUSH1 0x40 MLOAD PUSH3 0x461BCD PUSH1 0xE5 SHL DUP2 MSTORE PUSH1 0x20 PUSH1 0x4 DUP3 ADD MSTORE PUSH1 0x25 PUSH1 0x24 DUP3 ADD MSTORE PUSH32 0x537573706963696F7573207472616E73616374696F6E20646F6573206E6F7420 PUSH1 0x44 DUP3 ADD MSTORE PUSH5 0x195E1A5CDD PUSH1 0xDA SHL PUSH1 0x64 DUP3 ADD MSTORE PUSH1 0x84 ADD PUSH2 0xFB3 JUMP JUMPDEST PUSH1 0x0 DUP5 DUP2 MSTORE PUSH1 0xB PUSH1 0x20 MSTORE PUSH1 0x40 SWAP1 KECCAK256 PUSH1 0x5 DUP2 ADD SLOAD PUSH1 0xFF AND ISZERO PUSH2 0x2E8B JUMPI PUSH1 0x40 MLOAD PUSH3 0x461BCD PUSH1 0xE5 SHL DUP2 MSTORE PUSH1 0x20 PUSH1 0x4 DUP3 ADD DUP2 SWAP1 MSTORE PUSH1 0x24 DUP3 ADD MSTORE PUSH32 0x5472616E73616374696F6E20616C726561647920696E76657374696761746564 PUSH1 0x44 DUP3 ADD MSTORE PUSH1 0x64 ADD PUSH2 0xFB3 JUMP JUMPDEST PUSH1 0x5 DUP2 ADD DUP1 SLOAD PUSH1 0xFF NOT AND PUSH1 0x1 OR SWAP1 SSTORE PUSH1 0x40 MLOAD DUP6 SWAP1 PUSH32 0xDC3FE18D3EE6112142A07D0B7834BABF72BFA23251ACF78E9ED54FAC34E568E SWAP1 PUSH2 0x2ECE SWAP1 DUP8 SWAP1 DUP8 SWAP1 PUSH2 0x4EC5 JUMP JUMPDEST PUSH1 0x40 MLOAD DUP1 SWAP2 SUB SWAP1 LOG2 DUP4 ISZERO PUSH2 0x2B29 JUMPI DUP1 SLOAD PUSH1 0x40 MLOAD CALLER SWAP2 SWAP1 PUSH32 0x407A3279E8255059D39FBFBE4BD03BF82B6C2A737C816852CA2C79B23C3BDB22 SWAP1 PUSH2 0x19F3 SWAP1 DUP8 SWAP1 PUSH2 0x5097 JUMP JUMPDEST PUSH1 0x0 DUP1 MLOAD PUSH1 0x20 PUSH2 0x5415 DUP4 CODECOPY DUP2 MLOAD SWAP2 MSTORE PUSH2 0x2F29 DUP2 PUSH2 0x3514 JUMP JUMPDEST PUSH1 0x0 DUP6 DUP2 MSTORE PUSH1 0x5 PUSH1 0x20 MSTORE PUSH1 0x40 SWAP1 KECCAK256 SLOAD PUSH1 0xFF AND PUSH2 0x2F84 JUMPI PUSH1 0x40 MLOAD PUSH3 0x461BCD PUSH1 0xE5 SHL DUP2 MSTORE PUSH1 0x20 PUSH1 0x4 DUP3 ADD MSTORE PUSH1 0x1A PUSH1 0x24 DUP3 ADD MSTORE PUSH26 0x151C985B9CD858DD1A5BDB88191BD95CC81B9BDD08195E1A5CDD PUSH1 0x32 SHL PUSH1 0x44 DUP3 ADD MSTORE PUSH1 0x64 ADD PUSH2 0xFB3 JUMP JUMPDEST PUSH1 0x40 DUP1 MLOAD PUSH1 0x20 DUP2 ADD DUP8 SWAP1 MSTORE PUSH1 0x1 PUSH1 0x1 PUSH1 0x60 SHL SUB NOT CALLER PUSH1 0x60 SHL AND SWAP2 DUP2 ADD SWAP2 SWAP1 SWAP2 MSTORE TIMESTAMP PUSH1 0x54 DUP3 ADD MSTORE PUSH1 0x0 SWAP1 PUSH1 0x74 ADD PUSH1 0x40 DUP1 MLOAD DUP1 DUP4 SUB PUSH1 0x1F NOT ADD DUP2 MSTORE DUP3 DUP3 MSTORE DUP1 MLOAD PUSH1 0x20 SWAP2 DUP3 ADD KECCAK256 PUSH1 0xE0 DUP5 ADD DUP4 MSTORE DUP1 DUP5 MSTORE DUP2 DUP5 ADD DUP11 DUP2 MSTORE CALLER DUP6 DUP6 ADD SWAP1 DUP2 MSTORE PUSH1 0x60 DUP7 ADD DUP12 DUP2 MSTORE PUSH1 0x80 DUP8 ADD DUP12 SWAP1 MSTORE TIMESTAMP PUSH1 0xA0 DUP9 ADD MSTORE DUP10 ISZERO ISZERO PUSH1 0xC0 DUP9 ADD MSTORE PUSH1 0x0 DUP5 DUP2 MSTORE PUSH1 0x9 SWAP1 SWAP6 MSTORE SWAP5 SWAP1 SWAP4 KECCAK256 DUP6 MLOAD DUP2 SSTORE SWAP1 MLOAD PUSH1 0x1 DUP3 ADD SSTORE SWAP2 MLOAD PUSH1 0x2 DUP4 ADD DUP1 SLOAD PUSH1 0x1 PUSH1 0x1 PUSH1 0xA0 SHL SUB NOT AND PUSH1 0x1 PUSH1 0x1 PUSH1 0xA0 SHL SUB SWAP1 SWAP3 AND SWAP2 SWAP1 SWAP2 OR SWAP1 SSTORE SWAP2 MLOAD SWAP2 SWAP4 POP DUP3 SWAP2 PUSH1 0x3 DUP3 ADD SWAP1 PUSH2 0x304C SWAP1 DUP3 PUSH2 0x4E0C JUMP JUMPDEST POP PUSH1 0x80 DUP3 ADD MLOAD PUSH1 0x4 DUP3 ADD SWAP1 PUSH2 0x3061 SWAP1 DUP3 PUSH2 0x4E0C JUMP JUMPDEST POP PUSH1 0xA0 DUP3 DUP2 ADD MLOAD PUSH1 0x5 DUP4 ADD SSTORE PUSH1 0xC0 SWAP1 SWAP3 ADD MLOAD PUSH1 0x6 SWAP1 SWAP2 ADD DUP1 SLOAD SWAP2 ISZERO ISZERO PUSH1 0xFF NOT SWAP3 DUP4 AND OR SWAP1 SSTORE PUSH1 0x0 DUP10 DUP2 MSTORE PUSH1 0x8 PUSH1 0x20 SWAP1 DUP2 MSTORE PUSH1 0x40 DUP1 DUP4 KECCAK256 DUP1 SLOAD SWAP1 SWAP5 AND PUSH1 0x1 SWAP1 DUP2 OR SWAP1 SWAP5 SSTORE PUSH1 0x2 DUP3 MSTORE DUP1 DUP4 KECCAK256 DUP2 MLOAD SWAP6 DUP7 ADD DUP3 MSTORE DUP1 SLOAD DUP7 MSTORE SWAP4 DUP5 ADD DUP1 SLOAD DUP3 MLOAD DUP2 DUP6 MUL DUP2 ADD DUP6 ADD SWAP1 SWAP4 MSTORE DUP1 DUP4 MSTORE SWAP4 SWAP6 SWAP5 SWAP4 DUP6 DUP5 ADD SWAP4 DUP8 SWAP1 DUP5 ADD JUMPDEST DUP3 DUP3 LT ISZERO PUSH2 0x31AF JUMPI DUP4 DUP3 SWAP1 PUSH1 0x0 MSTORE PUSH1 0x20 PUSH1 0x0 KECCAK256 SWAP1 PUSH1 0x3 MUL ADD PUSH1 0x40 MLOAD DUP1 PUSH1 0x60 ADD PUSH1 0x40 MSTORE SWAP1 DUP2 PUSH1 0x0 DUP3 ADD SLOAD DUP2 MSTORE PUSH1 0x20 ADD PUSH1 0x1 DUP3 ADD SLOAD DUP2 MSTORE PUSH1 0x20 ADD PUSH1 0x2 DUP3 ADD DUP1 SLOAD PUSH2 0x311E SWAP1 PUSH2 0x4CF5 JUMP JUMPDEST DUP1 PUSH1 0x1F ADD PUSH1 0x20 DUP1 SWAP2 DIV MUL PUSH1 0x20 ADD PUSH1 0x40 MLOAD SWAP1 DUP2 ADD PUSH1 0x40 MSTORE DUP1 SWAP3 SWAP2 SWAP1 DUP2 DUP2 MSTORE PUSH1 0x20 ADD DUP3 DUP1 SLOAD PUSH2 0x314A SWAP1 PUSH2 0x4CF5 JUMP JUMPDEST DUP1 ISZERO PUSH2 0x3197 JUMPI DUP1 PUSH1 0x1F LT PUSH2 0x316C JUMPI PUSH2 0x100 DUP1 DUP4 SLOAD DIV MUL DUP4 MSTORE SWAP2 PUSH1 0x20 ADD SWAP2 PUSH2 0x3197 JUMP JUMPDEST DUP3 ADD SWAP2 SWAP1 PUSH1 0x0 MSTORE PUSH1 0x20 PUSH1 0x0 KECCAK256 SWAP1 JUMPDEST DUP2 SLOAD DUP2 MSTORE SWAP1 PUSH1 0x1 ADD SWAP1 PUSH1 0x20 ADD DUP1 DUP4 GT PUSH2 0x317A JUMPI DUP3 SWAP1 SUB PUSH1 0x1F AND DUP3 ADD SWAP2 JUMPDEST POP POP POP POP POP DUP2 MSTORE POP POP DUP2 MSTORE PUSH1 0x20 ADD SWAP1 PUSH1 0x1 ADD SWAP1 PUSH2 0x30D7 JUMP JUMPDEST POP POP POP POP DUP2 MSTORE PUSH1 0x20 ADD PUSH1 0x2 DUP3 ADD DUP1 SLOAD DUP1 PUSH1 0x20 MUL PUSH1 0x20 ADD PUSH1 0x40 MLOAD SWAP1 DUP2 ADD PUSH1 0x40 MSTORE DUP1 SWAP3 SWAP2 SWAP1 DUP2 DUP2 MSTORE PUSH1 0x20 ADD PUSH1 0x0 SWAP1 JUMPDEST DUP3 DUP3 LT ISZERO PUSH2 0x3241 JUMPI PUSH1 0x0 DUP5 DUP2 MSTORE PUSH1 0x20 SWAP1 DUP2 SWAP1 KECCAK256 PUSH1 0x40 DUP1 MLOAD PUSH1 0x80 DUP2 ADD DUP3 MSTORE PUSH1 0x3 DUP7 MUL SWAP1 SWAP3 ADD DUP1 SLOAD DUP4 MSTORE PUSH1 0x1 DUP1 DUP3 ADD SLOAD PUSH1 0x1 PUSH1 0x1 PUSH1 0xA0 SHL SUB DUP2 AND DUP6 DUP8 ADD MSTORE PUSH1 0x1 PUSH1 0xA0 SHL SWAP1 DIV PUSH1 0xFF AND ISZERO ISZERO SWAP3 DUP5 ADD SWAP3 SWAP1 SWAP3 MSTORE PUSH1 0x2 ADD SLOAD PUSH1 0x60 DUP4 ADD MSTORE SWAP1 DUP4 MSTORE SWAP1 SWAP3 ADD SWAP2 ADD PUSH2 0x31DC JUMP JUMPDEST POP POP POP SWAP1 DUP3 MSTORE POP PUSH1 0x3 DUP3 ADD SLOAD PUSH1 0x20 DUP1 DUP4 ADD SWAP2 SWAP1 SWAP2 MSTORE PUSH1 0x4 SWAP1 SWAP3 ADD SLOAD PUSH1 0x1 PUSH1 0x1 PUSH1 0xA0 SHL SUB SWAP1 DUP2 AND PUSH1 0x40 SWAP3 DUP4 ADD MSTORE PUSH1 0x80 DUP5 ADD MLOAD AND PUSH1 0x0 SWAP1 DUP2 MSTORE PUSH1 0xA DUP4 MSTORE DUP2 DUP2 KECCAK256 DUP1 SLOAD PUSH1 0x1 DUP2 ADD DUP3 SSTORE SWAP1 DUP3 MSTORE SWAP3 SWAP1 KECCAK256 SWAP1 SWAP2 ADD DUP6 SWAP1 SSTORE DUP2 ADD MLOAD MLOAD SWAP1 SWAP2 POP ISZERO PUSH2 0x32F6 JUMPI PUSH1 0xA PUSH1 0x0 DUP3 PUSH1 0x40 ADD MLOAD PUSH1 0x0 DUP2 MLOAD DUP2 LT PUSH2 0x32BA JUMPI PUSH2 0x32BA PUSH2 0x4D2F JUMP JUMPDEST PUSH1 0x20 SWAP1 DUP2 MUL SWAP2 SWAP1 SWAP2 ADD DUP2 ADD MLOAD DUP2 ADD MLOAD PUSH1 0x1 PUSH1 0x1 PUSH1 0xA0 SHL SUB AND DUP3 MSTORE DUP2 DUP2 ADD SWAP3 SWAP1 SWAP3 MSTORE PUSH1 0x40 ADD PUSH1 0x0 SWAP1 DUP2 KECCAK256 DUP1 SLOAD PUSH1 0x1 DUP2 ADD DUP3 SSTORE SWAP1 DUP3 MSTORE SWAP2 SWAP1 KECCAK256 ADD DUP4 SWAP1 SSTORE JUMPDEST DUP8 DUP4 PUSH1 0x0 DUP1 MLOAD PUSH1 0x20 PUSH2 0x53D5 DUP4 CODECOPY DUP2 MLOAD SWAP2 MSTORE DUP8 DUP11 PUSH1 0x40 MLOAD PUSH2 0x3317 SWAP3 SWAP2 SWAP1 PUSH2 0x4EC5 JUMP JUMPDEST PUSH1 0x40 MLOAD DUP1 SWAP2 SUB SWAP1 LOG3 PUSH1 0x10 DUP1 SLOAD SWAP1 PUSH1 0x0 PUSH2 0x332F DUP4 PUSH2 0x4D5B JUMP JUMPDEST SWAP2 SWAP1 POP SSTORE POP POP POP POP POP POP POP POP POP JUMP JUMPDEST PUSH2 0x3389 PUSH1 0x40 MLOAD DUP1 PUSH1 0xE0 ADD PUSH1 0x40 MSTORE DUP1 PUSH1 0x0 DUP2 MSTORE PUSH1 0x20 ADD PUSH1 0x0 DUP2 MSTORE PUSH1 0x20 ADD PUSH1 0x0 PUSH1 0x1 PUSH1 0x1 PUSH1 0xA0 SHL SUB AND DUP2 MSTORE PUSH1 0x20 ADD PUSH1 0x60 DUP2 MSTORE PUSH1 0x20 ADD PUSH1 0x60 DUP2 MSTORE PUSH1 0x20 ADD PUSH1 0x0 DUP2 MSTORE PUSH1 0x20 ADD PUSH1 0x0 ISZERO ISZERO DUP2 MSTORE POP SWAP1 JUMP JUMPDEST PUSH1 0x0 DUP3 DUP2 MSTORE PUSH1 0x9 PUSH1 0x20 SWAP1 DUP2 MSTORE PUSH1 0x40 SWAP2 DUP3 SWAP1 KECCAK256 DUP3 MLOAD PUSH1 0xE0 DUP2 ADD DUP5 MSTORE DUP2 SLOAD DUP2 MSTORE PUSH1 0x1 DUP3 ADD SLOAD SWAP3 DUP2 ADD SWAP3 SWAP1 SWAP3 MSTORE PUSH1 0x2 DUP2 ADD SLOAD PUSH1 0x1 PUSH1 0x1 PUSH1 0xA0 SHL SUB AND SWAP3 DUP3 ADD SWAP3 SWAP1 SWAP3 MSTORE PUSH1 0x3 DUP3 ADD DUP1 SLOAD SWAP2 SWAP3 SWAP2 PUSH1 0x60 DUP5 ADD SWAP2 SWAP1 PUSH2 0x33E0 SWAP1 PUSH2 0x4CF5 JUMP JUMPDEST DUP1 PUSH1 0x1F ADD PUSH1 0x20 DUP1 SWAP2 DIV MUL PUSH1 0x20 ADD PUSH1 0x40 MLOAD SWAP1 DUP2 ADD PUSH1 0x40 MSTORE DUP1 SWAP3 SWAP2 SWAP1 DUP2 DUP2 MSTORE PUSH1 0x20 ADD DUP3 DUP1 SLOAD PUSH2 0x340C SWAP1 PUSH2 0x4CF5 JUMP JUMPDEST DUP1 ISZERO PUSH2 0x3459 JUMPI DUP1 PUSH1 0x1F LT PUSH2 0x342E JUMPI PUSH2 0x100 DUP1 DUP4 SLOAD DIV MUL DUP4 MSTORE SWAP2 PUSH1 0x20 ADD SWAP2 PUSH2 0x3459 JUMP JUMPDEST DUP3 ADD SWAP2 SWAP1 PUSH1 0x0 MSTORE PUSH1 0x20 PUSH1 0x0 KECCAK256 SWAP1 JUMPDEST DUP2 SLOAD DUP2 MSTORE SWAP1 PUSH1 0x1 ADD SWAP1 PUSH1 0x20 ADD DUP1 DUP4 GT PUSH2 0x343C JUMPI DUP3 SWAP1 SUB PUSH1 0x1F AND DUP3 ADD SWAP2 JUMPDEST POP POP POP POP POP DUP2 MSTORE PUSH1 0x20 ADD PUSH1 0x4 DUP3 ADD DUP1 SLOAD PUSH2 0x3472 SWAP1 PUSH2 0x4CF5 JUMP JUMPDEST DUP1 PUSH1 0x1F ADD PUSH1 0x20 DUP1 SWAP2 DIV MUL PUSH1 0x20 ADD PUSH1 0x40 MLOAD SWAP1 DUP2 ADD PUSH1 0x40 MSTORE DUP1 SWAP3 SWAP2 SWAP1 DUP2 DUP2 MSTORE PUSH1 0x20 ADD DUP3 DUP1 SLOAD PUSH2 0x349E SWAP1 PUSH2 0x4CF5 JUMP JUMPDEST DUP1 ISZERO PUSH2 0x34EB JUMPI DUP1 PUSH1 0x1F LT PUSH2 0x34C0 JUMPI PUSH2 0x100 DUP1 DUP4 SLOAD DIV MUL DUP4 MSTORE SWAP2 PUSH1 0x20 ADD SWAP2 PUSH2 0x34EB JUMP JUMPDEST DUP3 ADD SWAP2 SWAP1 PUSH1 0x0 MSTORE PUSH1 0x20 PUSH1 0x0 KECCAK256 SWAP1 JUMPDEST DUP2 SLOAD DUP2 MSTORE SWAP1 PUSH1 0x1 ADD SWAP1 PUSH1 0x20 ADD DUP1 DUP4 GT PUSH2 0x34CE JUMPI DUP3 SWAP1 SUB PUSH1 0x1F AND DUP3 ADD SWAP2 JUMPDEST POP POP POP SWAP2 DUP4 MSTORE POP POP PUSH1 0x5 DUP3 ADD SLOAD PUSH1 0x20 DUP3 ADD MSTORE PUSH1 0x6 SWAP1 SWAP2 ADD SLOAD PUSH1 0xFF AND ISZERO ISZERO PUSH1 0x40 SWAP1 SWAP2 ADD MSTORE SWAP3 SWAP2 POP POP JUMP JUMPDEST PUSH2 0x351E DUP2 CALLER PUSH2 0x435A JUMP JUMPDEST POP JUMP JUMPDEST PUSH1 0x0 PUSH2 0x352D DUP4 DUP4 PUSH2 0x240B JUMP JUMPDEST ISZERO PUSH2 0x358C JUMPI PUSH1 0x0 DUP4 DUP2 MSTORE PUSH1 0x20 DUP2 DUP2 MSTORE PUSH1 0x40 DUP1 DUP4 KECCAK256 PUSH1 0x1 PUSH1 0x1 PUSH1 0xA0 SHL SUB DUP7 AND DUP1 DUP6 MSTORE SWAP3 MSTORE DUP1 DUP4 KECCAK256 DUP1 SLOAD PUSH1 0xFF NOT AND SWAP1 SSTORE MLOAD CALLER SWAP3 DUP7 SWAP2 PUSH32 0xF6391F5C32D9C69D2A47EA670B442974B53935D1EDC7FD64EB21E047A839171B SWAP2 SWAP1 LOG4 POP PUSH1 0x1 PUSH2 0x88C JUMP JUMPDEST POP PUSH1 0x0 PUSH2 0x88C JUMP JUMPDEST PUSH1 0x0 PUSH2 0x35A0 DUP4 DUP4 PUSH2 0x240B JUMP JUMPDEST PUSH2 0x358C JUMPI PUSH1 0x0 DUP4 DUP2 MSTORE PUSH1 0x20 DUP2 DUP2 MSTORE PUSH1 0x40 DUP1 DUP4 KECCAK256 PUSH1 0x1 PUSH1 0x1 PUSH1 0xA0 SHL SUB DUP7 AND DUP5 MSTORE SWAP1 SWAP2 MSTORE SWAP1 KECCAK256 DUP1 SLOAD PUSH1 0xFF NOT AND PUSH1 0x1 OR SWAP1 SSTORE PUSH2 0x35D6 CALLER SWAP1 JUMP JUMPDEST PUSH1 0x1 PUSH1 0x1 PUSH1 0xA0 SHL SUB AND DUP3 PUSH1 0x1 PUSH1 0x1 PUSH1 0xA0 SHL SUB AND DUP5 PUSH32 0x2F8788117E7EFF1D82E926EC794901D17C78024A50270940304540A733656F0D PUSH1 0x40 MLOAD PUSH1 0x40 MLOAD DUP1 SWAP2 SUB SWAP1 LOG4 POP PUSH1 0x1 PUSH2 0x88C JUMP JUMPDEST PUSH1 0x1 PUSH1 0x1 PUSH1 0xA0 SHL SUB DUP4 AND PUSH1 0x0 SWAP1 DUP2 MSTORE PUSH1 0x4 PUSH1 0x20 SWAP1 DUP2 MSTORE PUSH1 0x40 DUP1 DUP4 KECCAK256 DUP2 MLOAD DUP1 DUP5 ADD DUP8 SWAP1 MSTORE DUP1 DUP4 ADD DUP7 SWAP1 MSTORE DUP3 MLOAD DUP1 DUP3 SUB DUP5 ADD DUP2 MSTORE PUSH1 0x60 SWAP1 SWAP2 ADD SWAP1 SWAP3 MSTORE DUP2 MLOAD SWAP2 SWAP1 SWAP3 ADD KECCAK256 SWAP1 SWAP2 JUMPDEST DUP3 SLOAD DUP2 LT ISZERO PUSH2 0x3716 JUMPI DUP2 DUP4 DUP3 DUP2 SLOAD DUP2 LT PUSH2 0x367E JUMPI PUSH2 0x367E PUSH2 0x4D2F JUMP JUMPDEST SWAP1 PUSH1 0x0 MSTORE PUSH1 0x20 PUSH1 0x0 KECCAK256 ADD SLOAD SUB PUSH2 0x3704 JUMPI DUP3 SLOAD DUP4 SWAP1 PUSH2 0x369E SWAP1 PUSH1 0x1 SWAP1 PUSH2 0x50D5 JUMP JUMPDEST DUP2 SLOAD DUP2 LT PUSH2 0x36AE JUMPI PUSH2 0x36AE PUSH2 0x4D2F JUMP JUMPDEST SWAP1 PUSH1 0x0 MSTORE PUSH1 0x20 PUSH1 0x0 KECCAK256 ADD SLOAD DUP4 DUP3 DUP2 SLOAD DUP2 LT PUSH2 0x36CB JUMPI PUSH2 0x36CB PUSH2 0x4D2F JUMP JUMPDEST SWAP1 PUSH1 0x0 MSTORE PUSH1 0x20 PUSH1 0x0 KECCAK256 ADD DUP2 SWAP1 SSTORE POP DUP3 DUP1 SLOAD DUP1 PUSH2 0x36E9 JUMPI PUSH2 0x36E9 PUSH2 0x50E8 JUMP JUMPDEST PUSH1 0x1 SWAP1 SUB DUP2 DUP2 SWAP1 PUSH1 0x0 MSTORE PUSH1 0x20 PUSH1 0x0 KECCAK256 ADD PUSH1 0x0 SWAP1 SSTORE SWAP1 SSTORE PUSH2 0x3716 JUMP JUMPDEST DUP1 PUSH2 0x370E DUP2 PUSH2 0x4D5B JUMP JUMPDEST SWAP2 POP POP PUSH2 0x3662 JUMP JUMPDEST POP POP POP POP POP POP JUMP JUMPDEST PUSH1 0x0 DUP4 PUSH2 0x3762 JUMPI PUSH1 0x40 MLOAD PUSH3 0x461BCD PUSH1 0xE5 SHL DUP2 MSTORE PUSH1 0x20 PUSH1 0x4 DUP3 ADD MSTORE PUSH1 0x12 PUSH1 0x24 DUP3 ADD MSTORE PUSH18 0x139BC81A5B9C1D5D1CC81C1C9BDD9A591959 PUSH1 0x72 SHL PUSH1 0x44 DUP3 ADD MSTORE PUSH1 0x64 ADD PUSH2 0xFB3 JUMP JUMPDEST DUP2 PUSH2 0x37A5 JUMPI PUSH1 0x40 MLOAD PUSH3 0x461BCD PUSH1 0xE5 SHL DUP2 MSTORE PUSH1 0x20 PUSH1 0x4 DUP3 ADD MSTORE PUSH1 0x13 PUSH1 0x24 DUP3 ADD MSTORE PUSH19 0x139BC81BDD5D1C1D5D1CC81C1C9BDD9A591959 PUSH1 0x6A SHL PUSH1 0x44 DUP3 ADD MSTORE PUSH1 0x64 ADD PUSH2 0xFB3 JUMP JUMPDEST PUSH2 0x37AE CALLER PUSH2 0x10A9 JUMP JUMPDEST PUSH2 0x37CA JUMPI PUSH1 0x40 MLOAD PUSH3 0x461BCD PUSH1 0xE5 SHL DUP2 MSTORE PUSH1 0x4 ADD PUSH2 0xFB3 SWAP1 PUSH2 0x4FBF JUMP JUMPDEST PUSH1 0x0 DUP1 JUMPDEST DUP6 DUP2 LT ISZERO PUSH2 0x3992 JUMPI CALLDATASIZE DUP8 DUP8 DUP4 DUP2 DUP2 LT PUSH2 0x37E9 JUMPI PUSH2 0x37E9 PUSH2 0x4D2F JUMP JUMPDEST SWAP1 POP PUSH1 0x20 MUL DUP2 ADD SWAP1 PUSH2 0x37FB SWAP2 SWAP1 PUSH2 0x50FE JUMP JUMPDEST DUP1 CALLDATALOAD PUSH1 0x0 SWAP1 DUP2 MSTORE PUSH1 0x2 PUSH1 0x20 SWAP1 DUP2 MSTORE PUSH1 0x40 DUP1 DUP4 KECCAK256 PUSH1 0x5 SWAP1 SWAP3 MSTORE SWAP1 SWAP2 KECCAK256 SLOAD SWAP2 SWAP3 POP SWAP1 PUSH1 0xFF AND PUSH2 0x3876 JUMPI PUSH1 0x40 MLOAD PUSH3 0x461BCD PUSH1 0xE5 SHL DUP2 MSTORE PUSH1 0x20 PUSH1 0x4 DUP3 ADD MSTORE PUSH1 0x23 PUSH1 0x24 DUP3 ADD MSTORE PUSH32 0x50726576696F7573207472616E73616374696F6E20646F6573206E6F74206578 PUSH1 0x44 DUP3 ADD MSTORE PUSH3 0x1A5CDD PUSH1 0xEA SHL PUSH1 0x64 DUP3 ADD MSTORE PUSH1 0x84 ADD PUSH2 0xFB3 JUMP JUMPDEST PUSH1 0x2 DUP2 ADD SLOAD PUSH1 0x20 DUP4 ADD CALLDATALOAD LT PUSH2 0x38C4 JUMPI PUSH1 0x40 MLOAD PUSH3 0x461BCD PUSH1 0xE5 SHL DUP2 MSTORE PUSH1 0x20 PUSH1 0x4 DUP3 ADD MSTORE PUSH1 0x14 PUSH1 0x24 DUP3 ADD MSTORE PUSH20 0x92DCECC2D8D2C840DEEAE8E0EAE840D2DCC8CAF PUSH1 0x63 SHL PUSH1 0x44 DUP3 ADD MSTORE PUSH1 0x64 ADD PUSH2 0xFB3 JUMP JUMPDEST PUSH1 0x0 DUP2 PUSH1 0x2 ADD DUP4 PUSH1 0x20 ADD CALLDATALOAD DUP2 SLOAD DUP2 LT PUSH2 0x38DF JUMPI PUSH2 0x38DF PUSH2 0x4D2F JUMP JUMPDEST SWAP1 PUSH1 0x0 MSTORE PUSH1 0x20 PUSH1 0x0 KECCAK256 SWAP1 PUSH1 0x3 MUL ADD SWAP1 POP DUP1 PUSH1 0x1 ADD PUSH1 0x14 SWAP1 SLOAD SWAP1 PUSH2 0x100 EXP SWAP1 DIV PUSH1 0xFF AND ISZERO PUSH2 0x391E JUMPI PUSH1 0x40 MLOAD PUSH3 0x461BCD PUSH1 0xE5 SHL DUP2 MSTORE PUSH1 0x4 ADD PUSH2 0xFB3 SWAP1 PUSH2 0x5046 JUMP JUMPDEST PUSH1 0x1 DUP2 ADD SLOAD PUSH1 0x1 PUSH1 0x1 PUSH1 0xA0 SHL SUB AND CALLER EQ PUSH2 0x394A JUMPI PUSH1 0x40 MLOAD PUSH3 0x461BCD PUSH1 0xE5 SHL DUP2 MSTORE PUSH1 0x4 ADD PUSH2 0xFB3 SWAP1 PUSH2 0x501A JUMP JUMPDEST DUP1 PUSH1 0x2 ADD SLOAD TIMESTAMP LT ISZERO PUSH2 0x396E JUMPI PUSH1 0x40 MLOAD PUSH3 0x461BCD PUSH1 0xE5 SHL DUP2 MSTORE PUSH1 0x4 ADD PUSH2 0xFB3 SWAP1 PUSH2 0x5072 JUMP JUMPDEST DUP1 SLOAD PUSH2 0x397A SWAP1 DUP7 PUSH2 0x4D74 JUMP JUMPDEST SWAP5 POP POP POP POP DUP1 DUP1 PUSH2 0x398A SWAP1 PUSH2 0x4D5B JUMP JUMPDEST SWAP2 POP POP PUSH2 0x37CE JUMP JUMPDEST POP PUSH1 0x0 DUP1 JUMPDEST DUP5 DUP2 LT ISZERO PUSH2 0x39D8 JUMPI DUP6 DUP6 DUP3 DUP2 DUP2 LT PUSH2 0x39B1 JUMPI PUSH2 0x39B1 PUSH2 0x4D2F JUMP JUMPDEST PUSH2 0x39C4 SWAP3 PUSH1 0x80 SWAP1 SWAP2 MUL ADD CALLDATALOAD SWAP1 POP DUP4 PUSH2 0x4D74 JUMP JUMPDEST SWAP2 POP DUP1 PUSH2 0x39D0 DUP2 PUSH2 0x4D5B JUMP JUMPDEST SWAP2 POP POP PUSH2 0x3997 JUMP JUMPDEST POP DUP2 DUP2 GT ISZERO PUSH2 0x3A29 JUMPI PUSH1 0x40 MLOAD PUSH3 0x461BCD PUSH1 0xE5 SHL DUP2 MSTORE PUSH1 0x20 PUSH1 0x4 DUP3 ADD DUP2 SWAP1 MSTORE PUSH1 0x24 DUP3 ADD MSTORE PUSH32 0x4F75747075742076616C7565206578636565647320696E7075742076616C7565 PUSH1 0x44 DUP3 ADD MSTORE PUSH1 0x64 ADD PUSH2 0xFB3 JUMP JUMPDEST PUSH1 0x0 JUMPDEST DUP7 DUP2 LT ISZERO PUSH2 0x3B0C JUMPI CALLDATASIZE DUP9 DUP9 DUP4 DUP2 DUP2 LT PUSH2 0x3A47 JUMPI PUSH2 0x3A47 PUSH2 0x4D2F JUMP JUMPDEST SWAP1 POP PUSH1 0x20 MUL DUP2 ADD SWAP1 PUSH2 0x3A59 SWAP2 SWAP1 PUSH2 0x50FE JUMP JUMPDEST DUP1 CALLDATALOAD PUSH1 0x0 SWAP1 DUP2 MSTORE PUSH1 0x2 PUSH1 0x20 DUP2 DUP2 MSTORE PUSH1 0x40 DUP4 KECCAK256 SWAP2 DUP3 ADD DUP1 SLOAD SWAP5 SWAP6 POP SWAP2 SWAP4 SWAP1 DUP6 ADD CALLDATALOAD SWAP1 DUP2 LT PUSH2 0x3A88 JUMPI PUSH2 0x3A88 PUSH2 0x4D2F JUMP JUMPDEST PUSH1 0x0 SWAP2 DUP3 MSTORE PUSH1 0x20 SWAP2 DUP3 SWAP1 KECCAK256 PUSH1 0x1 PUSH1 0x3 SWAP1 SWAP3 MUL ADD SWAP1 DUP2 ADD DUP1 SLOAD PUSH1 0xFF PUSH1 0xA0 SHL NOT DUP2 AND PUSH1 0x1 PUSH1 0xA0 SHL OR SWAP1 SWAP2 SSTORE SWAP1 SWAP3 POP PUSH2 0x3ACF SWAP2 PUSH1 0x1 PUSH1 0x1 PUSH1 0xA0 SHL SUB SWAP1 SWAP2 AND SWAP1 DUP6 CALLDATALOAD SWAP1 DUP7 ADD CALLDATALOAD PUSH2 0x361E JUMP JUMPDEST PUSH1 0x6 SLOAD PUSH1 0x40 MLOAD SWAP1 DUP2 MSTORE DUP4 CALLDATALOAD SWAP1 PUSH1 0x0 DUP1 MLOAD PUSH1 0x20 PUSH2 0x54B5 DUP4 CODECOPY DUP2 MLOAD SWAP2 MSTORE SWAP1 PUSH1 0x20 ADD PUSH1 0x40 MLOAD DUP1 SWAP2 SUB SWAP1 LOG2 POP POP POP DUP1 DUP1 PUSH2 0x3B04 SWAP1 PUSH2 0x4D5B JUMP JUMPDEST SWAP2 POP POP PUSH2 0x3A2C JUMP JUMPDEST POP PUSH1 0x6 SLOAD PUSH1 0x40 MLOAD PUSH1 0x1 PUSH1 0x1 PUSH1 0x60 SHL SUB NOT CALLER PUSH1 0x60 SHL AND PUSH1 0x20 DUP3 ADD MSTORE TIMESTAMP PUSH1 0x34 DUP3 ADD MSTORE PUSH1 0x54 DUP2 ADD SWAP2 SWAP1 SWAP2 MSTORE PUSH1 0x0 SWAP1 PUSH1 0x74 ADD PUSH1 0x40 DUP1 MLOAD PUSH1 0x1F NOT DUP2 DUP5 SUB ADD DUP2 MSTORE SWAP2 SWAP1 MSTORE DUP1 MLOAD PUSH1 0x20 SWAP1 SWAP2 ADD KECCAK256 SWAP1 POP PUSH1 0x0 DUP8 PUSH1 0x1 PUSH1 0x1 PUSH1 0x40 SHL SUB DUP2 GT ISZERO PUSH2 0x3B6E JUMPI PUSH2 0x3B6E PUSH2 0x48AF JUMP JUMPDEST PUSH1 0x40 MLOAD SWAP1 DUP1 DUP3 MSTORE DUP1 PUSH1 0x20 MUL PUSH1 0x20 ADD DUP3 ADD PUSH1 0x40 MSTORE DUP1 ISZERO PUSH2 0x3BC3 JUMPI DUP2 PUSH1 0x20 ADD JUMPDEST PUSH2 0x3BB0 PUSH1 0x40 MLOAD DUP1 PUSH1 0x60 ADD PUSH1 0x40 MSTORE DUP1 PUSH1 0x0 DUP2 MSTORE PUSH1 0x20 ADD PUSH1 0x0 DUP2 MSTORE PUSH1 0x20 ADD PUSH1 0x60 DUP2 MSTORE POP SWAP1 JUMP JUMPDEST DUP2 MSTORE PUSH1 0x20 ADD SWAP1 PUSH1 0x1 SWAP1 SUB SWAP1 DUP2 PUSH2 0x3B8C JUMPI SWAP1 POP JUMPDEST POP SWAP1 POP PUSH1 0x0 JUMPDEST DUP9 DUP2 LT ISZERO PUSH2 0x3C2E JUMPI DUP10 DUP10 DUP3 DUP2 DUP2 LT PUSH2 0x3BE3 JUMPI PUSH2 0x3BE3 PUSH2 0x4D2F JUMP JUMPDEST SWAP1 POP PUSH1 0x20 MUL DUP2 ADD SWAP1 PUSH2 0x3BF5 SWAP2 SWAP1 PUSH2 0x50FE JUMP JUMPDEST PUSH2 0x3BFE SWAP1 PUSH2 0x511E JUMP JUMPDEST DUP3 DUP3 DUP2 MLOAD DUP2 LT PUSH2 0x3C10 JUMPI PUSH2 0x3C10 PUSH2 0x4D2F JUMP JUMPDEST PUSH1 0x20 MUL PUSH1 0x20 ADD ADD DUP2 SWAP1 MSTORE POP DUP1 DUP1 PUSH2 0x3C26 SWAP1 PUSH2 0x4D5B JUMP JUMPDEST SWAP2 POP POP PUSH2 0x3BC9 JUMP JUMPDEST POP PUSH1 0x0 DUP7 PUSH1 0x1 PUSH1 0x1 PUSH1 0x40 SHL SUB DUP2 GT ISZERO PUSH2 0x3C49 JUMPI PUSH2 0x3C49 PUSH2 0x48AF JUMP JUMPDEST PUSH1 0x40 MLOAD SWAP1 DUP1 DUP3 MSTORE DUP1 PUSH1 0x20 MUL PUSH1 0x20 ADD DUP3 ADD PUSH1 0x40 MSTORE DUP1 ISZERO PUSH2 0x3C82 JUMPI DUP2 PUSH1 0x20 ADD JUMPDEST PUSH2 0x3C6F PUSH2 0x4409 JUMP JUMPDEST DUP2 MSTORE PUSH1 0x20 ADD SWAP1 PUSH1 0x1 SWAP1 SUB SWAP1 DUP2 PUSH2 0x3C67 JUMPI SWAP1 POP JUMPDEST POP SWAP1 POP PUSH1 0x0 JUMPDEST DUP8 DUP2 LT ISZERO PUSH2 0x3E45 JUMPI DUP9 DUP9 DUP3 DUP2 DUP2 LT PUSH2 0x3CA2 JUMPI PUSH2 0x3CA2 PUSH2 0x4D2F JUMP JUMPDEST SWAP1 POP PUSH1 0x80 MUL ADD DUP1 CALLDATASIZE SUB DUP2 ADD SWAP1 PUSH2 0x3CB8 SWAP2 SWAP1 PUSH2 0x51A6 JUMP JUMPDEST DUP3 DUP3 DUP2 MLOAD DUP2 LT PUSH2 0x3CCA JUMPI PUSH2 0x3CCA PUSH2 0x4D2F JUMP JUMPDEST PUSH1 0x20 MUL PUSH1 0x20 ADD ADD DUP2 SWAP1 MSTORE POP PUSH1 0x0 DUP5 DUP3 DUP12 DUP12 DUP6 DUP2 DUP2 LT PUSH2 0x3CEB JUMPI PUSH2 0x3CEB PUSH2 0x4D2F JUMP JUMPDEST PUSH1 0x40 DUP1 MLOAD PUSH1 0x20 DUP2 ADD SWAP7 SWAP1 SWAP7 MSTORE DUP6 ADD SWAP4 SWAP1 SWAP4 MSTORE POP PUSH1 0x80 SWAP2 DUP3 MUL ADD CALLDATALOAD PUSH1 0x60 DUP4 ADD MSTORE ADD PUSH1 0x40 MLOAD PUSH1 0x20 DUP2 DUP4 SUB SUB DUP2 MSTORE SWAP1 PUSH1 0x40 MSTORE DUP1 MLOAD SWAP1 PUSH1 0x20 ADD KECCAK256 PUSH1 0x0 SHR SWAP1 POP DUP10 DUP10 DUP4 DUP2 DUP2 LT PUSH2 0x3D38 JUMPI PUSH2 0x3D38 PUSH2 0x4D2F JUMP JUMPDEST SWAP1 POP PUSH1 0x80 MUL ADD PUSH1 0x3 PUSH1 0x0 DUP4 DUP2 MSTORE PUSH1 0x20 ADD SWAP1 DUP2 MSTORE PUSH1 0x20 ADD PUSH1 0x0 KECCAK256 DUP2 DUP2 PUSH2 0x3D5D SWAP2 SWAP1 PUSH2 0x521A JUMP JUMPDEST SWAP1 POP POP PUSH1 0x4 PUSH1 0x0 DUP12 DUP12 DUP6 DUP2 DUP2 LT PUSH2 0x3D76 JUMPI PUSH2 0x3D76 PUSH2 0x4D2F JUMP JUMPDEST SWAP1 POP PUSH1 0x80 MUL ADD PUSH1 0x20 ADD PUSH1 0x20 DUP2 ADD SWAP1 PUSH2 0x3D8E SWAP2 SWAP1 PUSH2 0x47BF JUMP JUMPDEST PUSH1 0x1 PUSH1 0x1 PUSH1 0xA0 SHL SUB AND DUP2 MSTORE PUSH1 0x20 DUP1 DUP3 ADD SWAP3 SWAP1 SWAP3 MSTORE PUSH1 0x40 ADD PUSH1 0x0 SWAP1 DUP2 KECCAK256 DUP1 SLOAD PUSH1 0x1 DUP2 ADD DUP3 SSTORE SWAP1 DUP3 MSTORE SWAP2 SWAP1 KECCAK256 ADD DUP2 SWAP1 SSTORE DUP10 DUP10 DUP4 DUP2 DUP2 LT PUSH2 0x3DCE JUMPI PUSH2 0x3DCE PUSH2 0x4D2F JUMP JUMPDEST SWAP1 POP PUSH1 0x80 MUL ADD PUSH1 0x20 ADD PUSH1 0x20 DUP2 ADD SWAP1 PUSH2 0x3DE6 SWAP2 SWAP1 PUSH2 0x47BF JUMP JUMPDEST PUSH1 0x1 PUSH1 0x1 PUSH1 0xA0 SHL SUB AND DUP2 PUSH1 0x0 DUP1 MLOAD PUSH1 0x20 PUSH2 0x5435 DUP4 CODECOPY DUP2 MLOAD SWAP2 MSTORE DUP13 DUP13 DUP7 DUP2 DUP2 LT PUSH2 0x3E11 JUMPI PUSH2 0x3E11 PUSH2 0x4D2F JUMP JUMPDEST SWAP1 POP PUSH1 0x80 MUL ADD PUSH1 0x0 ADD CALLDATALOAD PUSH1 0x40 MLOAD PUSH2 0x3E2A SWAP2 DUP2 MSTORE PUSH1 0x20 ADD SWAP1 JUMP JUMPDEST PUSH1 0x40 MLOAD DUP1 SWAP2 SUB SWAP1 LOG3 POP DUP1 PUSH2 0x3E3D DUP2 PUSH2 0x4D5B JUMP JUMPDEST SWAP2 POP POP PUSH2 0x3C88 JUMP JUMPDEST POP PUSH1 0x0 DUP4 DUP2 MSTORE PUSH1 0x2 PUSH1 0x20 MSTORE PUSH1 0x40 DUP2 KECCAK256 DUP5 DUP2 SSTORE TIMESTAMP PUSH1 0x3 DUP3 ADD SSTORE PUSH1 0x4 ADD DUP1 SLOAD PUSH1 0x1 PUSH1 0x1 PUSH1 0xA0 SHL SUB NOT AND CALLER OR SWAP1 SSTORE JUMPDEST DUP10 DUP2 LT ISZERO PUSH2 0x3EE5 JUMPI PUSH1 0x0 DUP5 DUP2 MSTORE PUSH1 0x2 PUSH1 0x20 MSTORE PUSH1 0x40 SWAP1 KECCAK256 PUSH1 0x1 ADD DUP12 DUP12 DUP4 DUP2 DUP2 LT PUSH2 0x3E9C JUMPI PUSH2 0x3E9C PUSH2 0x4D2F JUMP JUMPDEST SWAP1 POP PUSH1 0x20 MUL DUP2 ADD SWAP1 PUSH2 0x3EAE SWAP2 SWAP1 PUSH2 0x50FE JUMP JUMPDEST DUP2 SLOAD PUSH1 0x1 DUP2 ADD DUP4 SSTORE PUSH1 0x0 SWAP3 DUP4 MSTORE PUSH1 0x20 SWAP1 SWAP3 KECCAK256 SWAP1 SWAP2 PUSH1 0x3 MUL ADD PUSH2 0x3ED0 DUP3 DUP3 PUSH2 0x5278 JUMP JUMPDEST POP POP DUP1 DUP1 PUSH2 0x3EDD SWAP1 PUSH2 0x4D5B JUMP JUMPDEST SWAP2 POP POP PUSH2 0x3E71 JUMP JUMPDEST POP PUSH1 0x0 JUMPDEST DUP8 DUP2 LT ISZERO PUSH2 0x3F58 JUMPI PUSH1 0x0 DUP5 DUP2 MSTORE PUSH1 0x2 PUSH1 0x20 DUP2 SWAP1 MSTORE PUSH1 0x40 SWAP1 SWAP2 KECCAK256 ADD DUP10 DUP10 DUP4 DUP2 DUP2 LT PUSH2 0x3F15 JUMPI PUSH2 0x3F15 PUSH2 0x4D2F JUMP JUMPDEST DUP4 SLOAD PUSH1 0x1 DUP2 ADD DUP6 SSTORE PUSH1 0x0 SWAP5 DUP6 MSTORE PUSH1 0x20 SWAP1 SWAP5 KECCAK256 PUSH1 0x80 SWAP1 SWAP2 MUL SWAP3 SWAP1 SWAP3 ADD SWAP3 PUSH1 0x3 MUL SWAP1 SWAP2 ADD SWAP1 POP PUSH2 0x3F43 DUP3 DUP3 PUSH2 0x521A JUMP JUMPDEST POP POP DUP1 DUP1 PUSH2 0x3F50 SWAP1 PUSH2 0x4D5B JUMP JUMPDEST SWAP2 POP POP PUSH2 0x3EE9 JUMP JUMPDEST POP PUSH1 0x0 DUP4 DUP2 MSTORE PUSH1 0x5 PUSH1 0x20 MSTORE PUSH1 0x40 DUP2 KECCAK256 DUP1 SLOAD PUSH1 0xFF NOT AND PUSH1 0x1 OR SWAP1 SSTORE PUSH1 0x6 DUP1 SLOAD SWAP2 PUSH2 0x3F80 DUP4 PUSH2 0x4D5B JUMP JUMPDEST SWAP1 SWAP2 SSTORE POP POP PUSH1 0x40 MLOAD DUP8 DUP2 MSTORE CALLER SWAP1 DUP5 SWAP1 PUSH1 0x0 DUP1 MLOAD PUSH1 0x20 PUSH2 0x5495 DUP4 CODECOPY DUP2 MLOAD SWAP2 MSTORE SWAP1 PUSH1 0x20 ADD PUSH1 0x40 MLOAD DUP1 SWAP2 SUB SWAP1 LOG3 POP SWAP1 SWAP9 SWAP8 POP POP POP POP POP POP POP POP JUMP JUMPDEST PUSH1 0x40 DUP1 MLOAD PUSH1 0x20 DUP2 ADD SWAP1 SWAP2 MSTORE PUSH1 0x0 DUP1 DUP3 MSTORE SWAP1 DUP2 DUP1 JUMPDEST DUP5 PUSH1 0x40 ADD MLOAD MLOAD DUP2 LT ISZERO PUSH2 0x401A JUMPI DUP5 PUSH1 0x40 ADD MLOAD DUP2 DUP2 MLOAD DUP2 LT PUSH2 0x3FEF JUMPI PUSH2 0x3FEF PUSH2 0x4D2F JUMP JUMPDEST PUSH1 0x20 MUL PUSH1 0x20 ADD ADD MLOAD PUSH1 0x0 ADD MLOAD DUP3 PUSH2 0x4006 SWAP2 SWAP1 PUSH2 0x4D74 JUMP JUMPDEST SWAP2 POP DUP1 PUSH2 0x4012 DUP2 PUSH2 0x4D5B JUMP JUMPDEST SWAP2 POP POP PUSH2 0x3FCC JUMP JUMPDEST POP PUSH1 0xC SLOAD DUP2 GT ISZERO PUSH2 0x405D JUMPI PUSH1 0x1 SWAP3 POP PUSH1 0x40 MLOAD DUP1 PUSH1 0x40 ADD PUSH1 0x40 MSTORE DUP1 PUSH1 0x18 DUP2 MSTORE PUSH1 0x20 ADD PUSH24 0x13185C99D9481D1C985B9CD858DD1A5BDB88185B5BDD5B9D PUSH1 0x42 SHL DUP2 MSTORE POP SWAP2 POP JUMPDEST PUSH1 0x80 DUP5 ADD MLOAD PUSH1 0x1 PUSH1 0x1 PUSH1 0xA0 SHL SUB AND PUSH1 0x0 SWAP1 DUP2 MSTORE PUSH1 0xF PUSH1 0x20 MSTORE PUSH1 0x40 SWAP1 KECCAK256 SLOAD PUSH2 0xE10 SWAP1 PUSH2 0x4088 SWAP1 TIMESTAMP PUSH2 0x50D5 JUMP JUMPDEST LT ISZERO PUSH2 0x411B JUMPI PUSH1 0x80 DUP5 ADD MLOAD PUSH1 0x1 PUSH1 0x1 PUSH1 0xA0 SHL SUB AND PUSH1 0x0 SWAP1 DUP2 MSTORE PUSH1 0xE PUSH1 0x20 MSTORE PUSH1 0x40 DUP2 KECCAK256 DUP1 SLOAD SWAP2 PUSH2 0x40B6 DUP4 PUSH2 0x4D5B JUMP JUMPDEST SWAP1 SWAP2 SSTORE POP POP PUSH1 0xD SLOAD PUSH1 0x80 DUP6 ADD MLOAD PUSH1 0x1 PUSH1 0x1 PUSH1 0xA0 SHL SUB AND PUSH1 0x0 SWAP1 DUP2 MSTORE PUSH1 0xE PUSH1 0x20 MSTORE PUSH1 0x40 SWAP1 KECCAK256 SLOAD GT ISZERO PUSH2 0x4116 JUMPI PUSH1 0x1 SWAP3 POP PUSH1 0x40 MLOAD DUP1 PUSH1 0x40 ADD PUSH1 0x40 MSTORE DUP1 PUSH1 0x15 DUP2 MSTORE PUSH1 0x20 ADD PUSH21 0x4672657175656E74207472616E73616374696F6E73 PUSH1 0x58 SHL DUP2 MSTORE POP SWAP2 POP JUMPDEST PUSH2 0x4152 JUMP JUMPDEST PUSH1 0x80 DUP5 ADD DUP1 MLOAD PUSH1 0x1 PUSH1 0x1 PUSH1 0xA0 SHL SUB SWAP1 DUP2 AND PUSH1 0x0 SWAP1 DUP2 MSTORE PUSH1 0xF PUSH1 0x20 SWAP1 DUP2 MSTORE PUSH1 0x40 DUP1 DUP4 KECCAK256 TIMESTAMP SWAP1 SSTORE SWAP4 MLOAD SWAP1 SWAP3 AND DUP2 MSTORE PUSH1 0xE SWAP1 SWAP2 MSTORE KECCAK256 PUSH1 0x1 SWAP1 SSTORE JUMPDEST PUSH1 0x0 JUMPDEST DUP5 PUSH1 0x40 ADD MLOAD MLOAD DUP2 LT ISZERO PUSH2 0x41E6 JUMPI DUP5 PUSH1 0x40 ADD MLOAD DUP2 DUP2 MLOAD DUP2 LT PUSH2 0x4178 JUMPI PUSH2 0x4178 PUSH2 0x4D2F JUMP JUMPDEST PUSH1 0x20 MUL PUSH1 0x20 ADD ADD MLOAD PUSH1 0x20 ADD MLOAD PUSH1 0x1 PUSH1 0x1 PUSH1 0xA0 SHL SUB AND DUP6 PUSH1 0x80 ADD MLOAD PUSH1 0x1 PUSH1 0x1 PUSH1 0xA0 SHL SUB AND SUB PUSH2 0x41D4 JUMPI PUSH1 0x1 SWAP4 POP PUSH1 0x40 MLOAD DUP1 PUSH1 0x40 ADD PUSH1 0x40 MSTORE DUP1 PUSH1 0x10 DUP2 MSTORE PUSH1 0x20 ADD PUSH16 0x29B2B633103A3930B739B0B1BA34B7B7 PUSH1 0x81 SHL DUP2 MSTORE POP SWAP3 POP PUSH2 0x41E6 JUMP JUMPDEST DUP1 PUSH2 0x41DE DUP2 PUSH2 0x4D5B JUMP JUMPDEST SWAP2 POP POP PUSH2 0x4155 JUMP JUMPDEST POP DUP3 ISZERO PUSH2 0x2B29 JUMPI PUSH1 0x11 SLOAD PUSH1 0x40 DUP1 MLOAD PUSH1 0xE0 DUP2 ADD DUP3 MSTORE DUP8 DUP2 MSTORE PUSH1 0x80 DUP8 ADD MLOAD PUSH1 0x1 PUSH1 0x1 PUSH1 0xA0 SHL SUB AND PUSH1 0x20 DUP3 ADD MSTORE DUP7 DUP3 ADD MLOAD MLOAD PUSH1 0x0 SWAP3 DUP3 ADD SWAP1 PUSH2 0x4226 JUMPI PUSH1 0x0 PUSH2 0x424A JUMP JUMPDEST DUP8 PUSH1 0x40 ADD MLOAD PUSH1 0x0 DUP2 MLOAD DUP2 LT PUSH2 0x423D JUMPI PUSH2 0x423D PUSH2 0x4D2F JUMP JUMPDEST PUSH1 0x20 MUL PUSH1 0x20 ADD ADD MLOAD PUSH1 0x20 ADD MLOAD JUMPDEST PUSH1 0x1 PUSH1 0x1 PUSH1 0xA0 SHL SUB SWAP1 DUP2 AND DUP3 MSTORE PUSH1 0x20 DUP1 DUP4 ADD DUP8 SWAP1 MSTORE PUSH1 0x40 DUP1 DUP5 ADD DUP10 SWAP1 MSTORE PUSH1 0x0 PUSH1 0x60 DUP1 DUP7 ADD DUP3 SWAP1 MSTORE TIMESTAMP PUSH1 0x80 SWAP7 DUP8 ADD MSTORE DUP9 DUP3 MSTORE PUSH1 0xB DUP5 MSTORE SWAP1 DUP3 SWAP1 KECCAK256 DUP7 MLOAD DUP2 SSTORE SWAP3 DUP7 ADD MLOAD PUSH1 0x1 DUP5 ADD DUP1 SLOAD SWAP2 DUP7 AND PUSH1 0x1 PUSH1 0x1 PUSH1 0xA0 SHL SUB NOT SWAP3 DUP4 AND OR SWAP1 SSTORE SWAP2 DUP7 ADD MLOAD PUSH1 0x2 DUP5 ADD DUP1 SLOAD SWAP2 SWAP1 SWAP6 AND SWAP3 AND SWAP2 SWAP1 SWAP2 OR SWAP1 SWAP3 SSTORE SWAP1 DUP4 ADD MLOAD PUSH1 0x3 DUP3 ADD SSTORE SWAP1 DUP3 ADD MLOAD SWAP2 SWAP3 POP DUP3 SWAP2 PUSH1 0x4 DUP3 ADD SWAP1 PUSH2 0x42DB SWAP1 DUP3 PUSH2 0x4E0C JUMP JUMPDEST POP PUSH1 0xA0 DUP3 ADD MLOAD PUSH1 0x5 DUP3 ADD DUP1 SLOAD PUSH1 0xFF NOT AND SWAP2 ISZERO ISZERO SWAP2 SWAP1 SWAP2 OR SWAP1 SSTORE PUSH1 0xC0 SWAP1 SWAP2 ADD MLOAD PUSH1 0x6 SWAP1 SWAP2 ADD SSTORE PUSH1 0x40 MLOAD DUP8 SWAP1 DUP4 SWAP1 PUSH32 0x2C528BAEC717C6124A7B6043E8E53F0427FA6A08364005237DD6EAE932153C1A SWAP1 PUSH2 0x4334 SWAP1 DUP9 SWAP1 PUSH2 0x4F21 JUMP JUMPDEST PUSH1 0x40 MLOAD DUP1 SWAP2 SUB SWAP1 LOG3 PUSH1 0x11 DUP1 SLOAD SWAP1 PUSH1 0x0 PUSH2 0x434C DUP4 PUSH2 0x4D5B JUMP JUMPDEST SWAP2 SWAP1 POP SSTORE POP POP POP POP POP POP POP POP JUMP JUMPDEST PUSH2 0x4364 DUP3 DUP3 PUSH2 0x240B JUMP JUMPDEST PUSH2 0x4393 JUMPI PUSH1 0x40 MLOAD PUSH4 0xE2517D3F PUSH1 0xE0 SHL DUP2 MSTORE PUSH1 0x1 PUSH1 0x1 PUSH1 0xA0 SHL SUB DUP3 AND PUSH1 0x4 DUP3 ADD MSTORE PUSH1 0x24 DUP2 ADD DUP4 SWAP1 MSTORE PUSH1 0x44 ADD PUSH2 0xFB3 JUMP JUMPDEST POP POP JUMP JUMPDEST PUSH1 0x40 MLOAD DUP1 PUSH1 0xA0 ADD PUSH1 0x40 MSTORE DUP1 PUSH1 0x0 DUP2 MSTORE PUSH1 0x20 ADD PUSH1 0x60 DUP2 MSTORE PUSH1 0x20 ADD PUSH1 0x60 DUP2 MSTORE PUSH1 0x20 ADD PUSH1 0x0 DUP2 MSTORE PUSH1 0x20 ADD PUSH1 0x0 PUSH1 0x1 PUSH1 0x1 PUSH1 0xA0 SHL SUB AND DUP2 MSTORE POP SWAP1 JUMP JUMPDEST POP DUP1 SLOAD PUSH2 0x43DB SWAP1 PUSH2 0x4CF5 JUMP JUMPDEST PUSH1 0x0 DUP3 SSTORE DUP1 PUSH1 0x1F LT PUSH2 0x43EB JUMPI POP POP JUMP JUMPDEST PUSH1 0x1F ADD PUSH1 0x20 SWAP1 DIV SWAP1 PUSH1 0x0 MSTORE PUSH1 0x20 PUSH1 0x0 KECCAK256 SWAP1 DUP2 ADD SWAP1 PUSH2 0x351E SWAP2 SWAP1 PUSH2 0x443C JUMP JUMPDEST PUSH1 0x40 MLOAD DUP1 PUSH1 0x80 ADD PUSH1 0x40 MSTORE DUP1 PUSH1 0x0 DUP2 MSTORE PUSH1 0x20 ADD PUSH1 0x0 PUSH1 0x1 PUSH1 0x1 PUSH1 0xA0 SHL SUB AND DUP2 MSTORE PUSH1 0x20 ADD PUSH1 0x0 ISZERO ISZERO DUP2 MSTORE PUSH1 0x20 ADD PUSH1 0x0 DUP2 MSTORE POP SWAP1 JUMP JUMPDEST JUMPDEST DUP1 DUP3 GT ISZERO PUSH2 0x4451 JUMPI PUSH1 0x0 DUP2 SSTORE PUSH1 0x1 ADD PUSH2 0x443D JUMP JUMPDEST POP SWAP1 JUMP JUMPDEST PUSH1 0x0 PUSH1 0x20 DUP3 DUP5 SUB SLT ISZERO PUSH2 0x4467 JUMPI PUSH1 0x0 DUP1 REVERT JUMPDEST DUP2 CALLDATALOAD PUSH1 0x1 PUSH1 0x1 PUSH1 0xE0 SHL SUB NOT DUP2 AND DUP2 EQ PUSH2 0x11AE JUMPI PUSH1 0x0 DUP1 REVERT JUMPDEST PUSH1 0x0 PUSH1 0x20 DUP3 DUP5 SUB SLT ISZERO PUSH2 0x4491 JUMPI PUSH1 0x0 DUP1 REVERT JUMPDEST POP CALLDATALOAD SWAP2 SWAP1 POP JUMP JUMPDEST PUSH1 0x0 DUP2 MLOAD DUP1 DUP5 MSTORE PUSH1 0x0 JUMPDEST DUP2 DUP2 LT ISZERO PUSH2 0x44BE JUMPI PUSH1 0x20 DUP2 DUP6 ADD DUP2 ADD MLOAD DUP7 DUP4 ADD DUP3 ADD MSTORE ADD PUSH2 0x44A2 JUMP JUMPDEST POP PUSH1 0x0 PUSH1 0x20 DUP3 DUP7 ADD ADD MSTORE PUSH1 0x20 PUSH1 0x1F NOT PUSH1 0x1F DUP4 ADD AND DUP6 ADD ADD SWAP2 POP POP SWAP3 SWAP2 POP POP JUMP JUMPDEST DUP8 DUP2 MSTORE DUP7 PUSH1 0x20 DUP3 ADD MSTORE PUSH1 0x1 DUP1 PUSH1 0xA0 SHL SUB DUP7 AND PUSH1 0x40 DUP3 ADD MSTORE PUSH1 0xE0 PUSH1 0x60 DUP3 ADD MSTORE PUSH1 0x0 PUSH2 0x450B PUSH1 0xE0 DUP4 ADD DUP8 PUSH2 0x4498 JUMP JUMPDEST DUP3 DUP2 SUB PUSH1 0x80 DUP5 ADD MSTORE PUSH2 0x451D DUP2 DUP8 PUSH2 0x4498 JUMP JUMPDEST PUSH1 0xA0 DUP5 ADD SWAP6 SWAP1 SWAP6 MSTORE POP POP SWAP1 ISZERO ISZERO PUSH1 0xC0 SWAP1 SWAP2 ADD MSTORE SWAP6 SWAP5 POP POP POP POP POP JUMP JUMPDEST PUSH1 0x20 DUP2 MSTORE DUP2 MLOAD PUSH1 0x20 DUP3 ADD MSTORE PUSH1 0x0 PUSH1 0x20 DUP4 ADD MLOAD PUSH1 0x1 DUP1 PUSH1 0xA0 SHL SUB DUP1 DUP3 AND PUSH1 0x40 DUP6 ADD MSTORE DUP1 PUSH1 0x40 DUP7 ADD MLOAD AND PUSH1 0x60 DUP6 ADD MSTORE POP POP PUSH1 0x60 DUP4 ADD MLOAD PUSH1 0x80 DUP4 ADD MSTORE PUSH1 0x80 DUP4 ADD MLOAD PUSH1 0xE0 PUSH1 0xA0 DUP5 ADD MSTORE PUSH2 0x458C PUSH2 0x100 DUP5 ADD DUP3 PUSH2 0x4498 JUMP JUMPDEST SWAP1 POP PUSH1 0xA0 DUP5 ADD MLOAD ISZERO ISZERO PUSH1 0xC0 DUP5 ADD MSTORE PUSH1 0xC0 DUP5 ADD MLOAD PUSH1 0xE0 DUP5 ADD MSTORE DUP1 SWAP2 POP POP SWAP3 SWAP2 POP POP JUMP JUMPDEST PUSH1 0x1 PUSH1 0x1 PUSH1 0xA0 SHL SUB DUP2 AND DUP2 EQ PUSH2 0x351E JUMPI PUSH1 0x0 DUP1 REVERT JUMPDEST PUSH1 0x0 DUP1 PUSH1 0x0 PUSH1 0x60 DUP5 DUP7 SUB SLT ISZERO PUSH2 0x45D8 JUMPI PUSH1 0x0 DUP1 REVERT JUMPDEST DUP4 CALLDATALOAD PUSH2 0x45E3 DUP2 PUSH2 0x45AE JUMP JUMPDEST SWAP6 PUSH1 0x20 DUP6 ADD CALLDATALOAD SWAP6 POP PUSH1 0x40 SWAP1 SWAP5 ADD CALLDATALOAD SWAP4 SWAP3 POP POP POP JUMP JUMPDEST DUP1 MLOAD DUP3 MSTORE PUSH1 0x20 DUP1 DUP3 ADD MLOAD PUSH1 0x1 PUSH1 0x1 PUSH1 0xA0 SHL SUB AND SWAP1 DUP4 ADD MSTORE PUSH1 0x40 DUP1 DUP3 ADD MLOAD ISZERO ISZERO SWAP1 DUP4 ADD MSTORE PUSH1 0x60 SWAP1 DUP2 ADD MLOAD SWAP2 ADD MSTORE JUMP JUMPDEST PUSH1 0x0 DUP2 MLOAD DUP1 DUP5 MSTORE PUSH1 0x20 DUP1 DUP6 ADD SWAP5 POP DUP1 DUP5 ADD PUSH1 0x0 JUMPDEST DUP4 DUP2 LT ISZERO PUSH2 0x4660 JUMPI PUSH2 0x464D DUP8 DUP4 MLOAD PUSH2 0x45F8 JUMP JUMPDEST PUSH1 0x80 SWAP7 SWAP1 SWAP7 ADD SWAP6 SWAP1 DUP3 ADD SWAP1 PUSH1 0x1 ADD PUSH2 0x463A JUMP JUMPDEST POP SWAP5 SWAP6 SWAP5 POP POP POP POP POP JUMP JUMPDEST PUSH1 0x0 PUSH1 0xA0 DUP4 ADD DUP3 MLOAD DUP5 MSTORE PUSH1 0x20 DUP1 DUP5 ADD MLOAD PUSH1 0xA0 DUP3 DUP8 ADD MSTORE DUP3 DUP2 MLOAD DUP1 DUP6 MSTORE PUSH1 0xC0 DUP9 ADD SWAP2 POP PUSH1 0xC0 DUP2 PUSH1 0x5 SHL DUP10 ADD ADD SWAP5 POP DUP4 DUP4 ADD SWAP3 POP PUSH1 0x0 JUMPDEST DUP2 DUP2 LT ISZERO PUSH2 0x46EE JUMPI DUP9 DUP7 SUB PUSH1 0xBF NOT ADD DUP4 MSTORE DUP4 MLOAD DUP1 MLOAD DUP8 MSTORE DUP6 DUP2 ADD MLOAD DUP7 DUP9 ADD MSTORE PUSH1 0x40 SWAP1 DUP2 ADD MLOAD PUSH1 0x60 SWAP2 DUP9 ADD DUP3 SWAP1 MSTORE SWAP1 PUSH2 0x46DA DUP2 DUP10 ADD DUP4 PUSH2 0x4498 JUMP JUMPDEST SWAP8 POP POP POP SWAP3 DUP5 ADD SWAP3 SWAP2 DUP5 ADD SWAP2 PUSH1 0x1 ADD PUSH2 0x46A0 JUMP JUMPDEST POP POP POP POP POP PUSH1 0x40 DUP4 ADD MLOAD DUP5 DUP3 SUB PUSH1 0x40 DUP7 ADD MSTORE PUSH2 0x470A DUP3 DUP3 PUSH2 0x4626 JUMP JUMPDEST SWAP2 POP POP PUSH1 0x60 DUP4 ADD MLOAD PUSH1 0x60 DUP6 ADD MSTORE PUSH1 0x80 DUP4 ADD MLOAD PUSH2 0x1573 PUSH1 0x80 DUP7 ADD DUP3 PUSH1 0x1 PUSH1 0x1 PUSH1 0xA0 SHL SUB AND SWAP1 MSTORE JUMP JUMPDEST PUSH1 0x0 PUSH1 0x20 DUP1 DUP4 ADD DUP2 DUP5 MSTORE DUP1 DUP6 MLOAD DUP1 DUP4 MSTORE PUSH1 0x40 DUP7 ADD SWAP2 POP PUSH1 0x40 DUP2 PUSH1 0x5 SHL DUP8 ADD ADD SWAP3 POP DUP4 DUP8 ADD PUSH1 0x0 JUMPDEST DUP3 DUP2 LT ISZERO PUSH2 0x4786 JUMPI PUSH1 0x3F NOT DUP9 DUP7 SUB ADD DUP5 MSTORE PUSH2 0x4774 DUP6 DUP4 MLOAD PUSH2 0x466B JUMP JUMPDEST SWAP5 POP SWAP3 DUP6 ADD SWAP3 SWAP1 DUP6 ADD SWAP1 PUSH1 0x1 ADD PUSH2 0x4758 JUMP JUMPDEST POP SWAP3 SWAP8 SWAP7 POP POP POP POP POP POP POP JUMP JUMPDEST PUSH1 0x0 DUP1 PUSH1 0x40 DUP4 DUP6 SUB SLT ISZERO PUSH2 0x47A6 JUMPI PUSH1 0x0 DUP1 REVERT JUMPDEST DUP3 CALLDATALOAD PUSH2 0x47B1 DUP2 PUSH2 0x45AE JUMP JUMPDEST SWAP5 PUSH1 0x20 SWAP4 SWAP1 SWAP4 ADD CALLDATALOAD SWAP4 POP POP POP JUMP JUMPDEST PUSH1 0x0 PUSH1 0x20 DUP3 DUP5 SUB SLT ISZERO PUSH2 0x47D1 JUMPI PUSH1 0x0 DUP1 REVERT JUMPDEST DUP2 CALLDATALOAD PUSH2 0x11AE DUP2 PUSH2 0x45AE JUMP JUMPDEST PUSH1 0x1 PUSH1 0x1 PUSH1 0xA0 SHL SUB DUP7 AND DUP2 MSTORE PUSH1 0xA0 PUSH1 0x20 DUP3 ADD DUP2 SWAP1 MSTORE PUSH1 0x0 SWAP1 PUSH2 0x4800 SWAP1 DUP4 ADD DUP8 PUSH2 0x4498 JUMP JUMPDEST PUSH1 0x40 DUP4 ADD SWAP6 SWAP1 SWAP6 MSTORE POP SWAP2 ISZERO ISZERO PUSH1 0x60 DUP4 ADD MSTORE PUSH1 0x80 SWAP1 SWAP2 ADD MSTORE SWAP3 SWAP2 POP POP JUMP JUMPDEST PUSH1 0x0 DUP1 PUSH1 0x40 DUP4 DUP6 SUB SLT ISZERO PUSH2 0x4830 JUMPI PUSH1 0x0 DUP1 REVERT JUMPDEST DUP3 CALLDATALOAD SWAP2 POP PUSH1 0x20 DUP4 ADD CALLDATALOAD PUSH2 0x4842 DUP2 PUSH2 0x45AE JUMP JUMPDEST DUP1 SWAP2 POP POP SWAP3 POP SWAP3 SWAP1 POP JUMP JUMPDEST PUSH1 0x20 DUP2 MSTORE PUSH1 0x0 PUSH2 0x11AE PUSH1 0x20 DUP4 ADD DUP5 PUSH2 0x466B JUMP JUMPDEST DUP8 DUP2 MSTORE PUSH1 0x1 PUSH1 0x1 PUSH1 0xA0 SHL SUB DUP8 DUP2 AND PUSH1 0x20 DUP4 ADD MSTORE DUP7 AND PUSH1 0x40 DUP3 ADD MSTORE PUSH1 0x60 DUP2 ADD DUP6 SWAP1 MSTORE PUSH1 0xE0 PUSH1 0x80 DUP3 ADD DUP2 SWAP1 MSTORE PUSH1 0x0 SWAP1 PUSH2 0x4899 SWAP1 DUP4 ADD DUP7 PUSH2 0x4498 JUMP JUMPDEST SWAP4 ISZERO ISZERO PUSH1 0xA0 DUP4 ADD MSTORE POP PUSH1 0xC0 ADD MSTORE SWAP6 SWAP5 POP POP POP POP POP JUMP JUMPDEST PUSH4 0x4E487B71 PUSH1 0xE0 SHL PUSH1 0x0 MSTORE PUSH1 0x41 PUSH1 0x4 MSTORE PUSH1 0x24 PUSH1 0x0 REVERT JUMPDEST PUSH1 0x0 PUSH1 0x1 PUSH1 0x1 PUSH1 0x40 SHL SUB DUP1 DUP5 GT ISZERO PUSH2 0x48DF JUMPI PUSH2 0x48DF PUSH2 0x48AF JUMP JUMPDEST PUSH1 0x40 MLOAD PUSH1 0x1F DUP6 ADD PUSH1 0x1F NOT SWAP1 DUP2 AND PUSH1 0x3F ADD AND DUP2 ADD SWAP1 DUP3 DUP3 GT DUP2 DUP4 LT OR ISZERO PUSH2 0x4907 JUMPI PUSH2 0x4907 PUSH2 0x48AF JUMP JUMPDEST DUP2 PUSH1 0x40 MSTORE DUP1 SWAP4 POP DUP6 DUP2 MSTORE DUP7 DUP7 DUP7 ADD GT ISZERO PUSH2 0x4920 JUMPI PUSH1 0x0 DUP1 REVERT JUMPDEST DUP6 DUP6 PUSH1 0x20 DUP4 ADD CALLDATACOPY PUSH1 0x0 PUSH1 0x20 DUP8 DUP4 ADD ADD MSTORE POP POP POP SWAP4 SWAP3 POP POP POP JUMP JUMPDEST PUSH1 0x0 DUP3 PUSH1 0x1F DUP4 ADD SLT PUSH2 0x494B JUMPI PUSH1 0x0 DUP1 REVERT JUMPDEST PUSH2 0x11AE DUP4 DUP4 CALLDATALOAD PUSH1 0x20 DUP6 ADD PUSH2 0x48C5 JUMP JUMPDEST PUSH1 0x0 DUP1 PUSH1 0x40 DUP4 DUP6 SUB SLT ISZERO PUSH2 0x496D JUMPI PUSH1 0x0 DUP1 REVERT JUMPDEST DUP3 CALLDATALOAD PUSH2 0x4978 DUP2 PUSH2 0x45AE JUMP JUMPDEST SWAP2 POP PUSH1 0x20 DUP4 ADD CALLDATALOAD PUSH1 0x1 PUSH1 0x1 PUSH1 0x40 SHL SUB DUP2 GT ISZERO PUSH2 0x4993 JUMPI PUSH1 0x0 DUP1 REVERT JUMPDEST PUSH2 0x499F DUP6 DUP3 DUP7 ADD PUSH2 0x493A JUMP JUMPDEST SWAP2 POP POP SWAP3 POP SWAP3 SWAP1 POP JUMP JUMPDEST PUSH1 0x20 DUP1 DUP3 MSTORE DUP3 MLOAD DUP3 DUP3 ADD DUP2 SWAP1 MSTORE PUSH1 0x0 SWAP2 SWAP1 DUP5 DUP3 ADD SWAP1 PUSH1 0x40 DUP6 ADD SWAP1 DUP5 JUMPDEST DUP2 DUP2 LT ISZERO PUSH2 0x49E1 JUMPI DUP4 MLOAD DUP4 MSTORE SWAP3 DUP5 ADD SWAP3 SWAP2 DUP5 ADD SWAP2 PUSH1 0x1 ADD PUSH2 0x49C5 JUMP JUMPDEST POP SWAP1 SWAP7 SWAP6 POP POP POP POP POP POP JUMP JUMPDEST DUP1 ISZERO ISZERO DUP2 EQ PUSH2 0x351E JUMPI PUSH1 0x0 DUP1 REVERT JUMPDEST PUSH1 0x0 DUP1 PUSH1 0x0 PUSH1 0x60 DUP5 DUP7 SUB SLT ISZERO PUSH2 0x4A10 JUMPI PUSH1 0x0 DUP1 REVERT JUMPDEST DUP4 CALLDATALOAD PUSH2 0x4A1B DUP2 PUSH2 0x45AE JUMP JUMPDEST SWAP3 POP PUSH1 0x20 DUP5 ADD CALLDATALOAD PUSH1 0x1 PUSH1 0x1 PUSH1 0x40 SHL SUB DUP2 GT ISZERO PUSH2 0x4A36 JUMPI PUSH1 0x0 DUP1 REVERT JUMPDEST PUSH2 0x4A42 DUP7 DUP3 DUP8 ADD PUSH2 0x493A JUMP JUMPDEST SWAP3 POP POP PUSH1 0x40 DUP5 ADD CALLDATALOAD PUSH2 0x4A53 DUP2 PUSH2 0x49ED JUMP JUMPDEST DUP1 SWAP2 POP POP SWAP3 POP SWAP3 POP SWAP3 JUMP JUMPDEST PUSH1 0x0 DUP1 DUP4 PUSH1 0x1F DUP5 ADD SLT PUSH2 0x4A70 JUMPI PUSH1 0x0 DUP1 REVERT JUMPDEST POP DUP2 CALLDATALOAD PUSH1 0x1 PUSH1 0x1 PUSH1 0x40 SHL SUB DUP2 GT ISZERO PUSH2 0x4A87 JUMPI PUSH1 0x0 DUP1 REVERT JUMPDEST PUSH1 0x20 DUP4 ADD SWAP2 POP DUP4 PUSH1 0x20 DUP3 PUSH1 0x5 SHL DUP6 ADD ADD GT ISZERO PUSH2 0x4AA2 JUMPI PUSH1 0x0 DUP1 REVERT JUMPDEST SWAP3 POP SWAP3 SWAP1 POP JUMP JUMPDEST PUSH1 0x0 DUP1 PUSH1 0x0 PUSH1 0x40 DUP5 DUP7 SUB SLT ISZERO PUSH2 0x4ABE JUMPI PUSH1 0x0 DUP1 REVERT JUMPDEST DUP4 CALLDATALOAD PUSH1 0x1 PUSH1 0x1 PUSH1 0x40 SHL SUB DUP2 GT ISZERO PUSH2 0x4AD4 JUMPI PUSH1 0x0 DUP1 REVERT JUMPDEST PUSH2 0x4AE0 DUP7 DUP3 DUP8 ADD PUSH2 0x4A5E JUMP JUMPDEST SWAP1 SWAP8 SWAP1 SWAP7 POP PUSH1 0x20 SWAP6 SWAP1 SWAP6 ADD CALLDATALOAD SWAP5 SWAP4 POP POP POP POP JUMP JUMPDEST PUSH1 0x80 DUP2 ADD PUSH2 0x88C DUP3 DUP5 PUSH2 0x45F8 JUMP JUMPDEST PUSH1 0x0 DUP1 PUSH1 0x0 DUP1 PUSH1 0x40 DUP6 DUP8 SUB SLT ISZERO PUSH2 0x4B18 JUMPI PUSH1 0x0 DUP1 REVERT JUMPDEST DUP5 CALLDATALOAD PUSH1 0x1 PUSH1 0x1 PUSH1 0x40 SHL SUB DUP1 DUP3 GT ISZERO PUSH2 0x4B2F JUMPI PUSH1 0x0 DUP1 REVERT JUMPDEST PUSH2 0x4B3B DUP9 DUP4 DUP10 ADD PUSH2 0x4A5E JUMP JUMPDEST SWAP1 SWAP7 POP SWAP5 POP PUSH1 0x20 DUP8 ADD CALLDATALOAD SWAP2 POP DUP1 DUP3 GT ISZERO PUSH2 0x4B54 JUMPI PUSH1 0x0 DUP1 REVERT JUMPDEST DUP2 DUP8 ADD SWAP2 POP DUP8 PUSH1 0x1F DUP4 ADD SLT PUSH2 0x4B68 JUMPI PUSH1 0x0 DUP1 REVERT JUMPDEST DUP2 CALLDATALOAD DUP2 DUP2 GT ISZERO PUSH2 0x4B77 JUMPI PUSH1 0x0 DUP1 REVERT JUMPDEST DUP9 PUSH1 0x20 DUP3 PUSH1 0x7 SHL DUP6 ADD ADD GT ISZERO PUSH2 0x4B8C JUMPI PUSH1 0x0 DUP1 REVERT JUMPDEST SWAP6 SWAP9 SWAP5 SWAP8 POP POP PUSH1 0x20 ADD SWAP5 POP POP POP JUMP JUMPDEST PUSH1 0x0 DUP1 PUSH1 0x0 PUSH1 0x60 DUP5 DUP7 SUB SLT ISZERO PUSH2 0x4BB0 JUMPI PUSH1 0x0 DUP1 REVERT JUMPDEST DUP4 CALLDATALOAD SWAP3 POP PUSH1 0x20 DUP5 ADD CALLDATALOAD PUSH2 0x4BC2 DUP2 PUSH2 0x49ED JUMP JUMPDEST SWAP2 POP PUSH1 0x40 DUP5 ADD CALLDATALOAD PUSH1 0x1 PUSH1 0x1 PUSH1 0x40 SHL SUB DUP2 GT ISZERO PUSH2 0x4BDD JUMPI PUSH1 0x0 DUP1 REVERT JUMPDEST PUSH2 0x4BE9 DUP7 DUP3 DUP8 ADD PUSH2 0x493A JUMP JUMPDEST SWAP2 POP POP SWAP3 POP SWAP3 POP SWAP3 JUMP JUMPDEST PUSH1 0x0 DUP1 PUSH1 0x0 DUP1 PUSH1 0x80 DUP6 DUP8 SUB SLT ISZERO PUSH2 0x4C09 JUMPI PUSH1 0x0 DUP1 REVERT JUMPDEST DUP5 CALLDATALOAD SWAP4 POP PUSH1 0x20 DUP6 ADD CALLDATALOAD PUSH1 0x1 PUSH1 0x1 PUSH1 0x40 SHL SUB DUP1 DUP3 GT ISZERO PUSH2 0x4C27 JUMPI PUSH1 0x0 DUP1 REVERT JUMPDEST PUSH2 0x4C33 DUP9 DUP4 DUP10 ADD PUSH2 0x493A JUMP JUMPDEST SWAP5 POP PUSH1 0x40 DUP8 ADD CALLDATALOAD SWAP2 POP DUP1 DUP3 GT ISZERO PUSH2 0x4C49 JUMPI PUSH1 0x0 DUP1 REVERT JUMPDEST POP PUSH2 0x4C56 DUP8 DUP3 DUP9 ADD PUSH2 0x493A JUMP JUMPDEST SWAP3 POP POP PUSH1 0x60 DUP6 ADD CALLDATALOAD PUSH2 0x4C67 DUP2 PUSH2 0x49ED JUMP JUMPDEST SWAP4 SWAP7 SWAP3 SWAP6 POP SWAP1 SWAP4 POP POP JUMP JUMPDEST PUSH1 0x20 DUP2 MSTORE DUP2 MLOAD PUSH1 0x20 DUP3 ADD MSTORE PUSH1 0x20 DUP3 ADD MLOAD PUSH1 0x40 DUP3 ADD MSTORE PUSH1 0x1 DUP1 PUSH1 0xA0 SHL SUB PUSH1 0x40 DUP4 ADD MLOAD AND PUSH1 0x60 DUP3 ADD MSTORE PUSH1 0x0 PUSH1 0x60 DUP4 ADD MLOAD PUSH1 0xE0 PUSH1 0x80 DUP5 ADD MSTORE PUSH2 0x4CB5 PUSH2 0x100 DUP5 ADD DUP3 PUSH2 0x4498 JUMP JUMPDEST SWAP1 POP PUSH1 0x80 DUP5 ADD MLOAD PUSH1 0x1F NOT DUP5 DUP4 SUB ADD PUSH1 0xA0 DUP6 ADD MSTORE PUSH2 0x4CD2 DUP3 DUP3 PUSH2 0x4498 JUMP JUMPDEST SWAP2 POP POP PUSH1 0xA0 DUP5 ADD MLOAD PUSH1 0xC0 DUP5 ADD MSTORE PUSH1 0xC0 DUP5 ADD MLOAD ISZERO ISZERO PUSH1 0xE0 DUP5 ADD MSTORE DUP1 SWAP2 POP POP SWAP3 SWAP2 POP POP JUMP JUMPDEST PUSH1 0x1 DUP2 DUP2 SHR SWAP1 DUP3 AND DUP1 PUSH2 0x4D09 JUMPI PUSH1 0x7F DUP3 AND SWAP2 POP JUMPDEST PUSH1 0x20 DUP3 LT DUP2 SUB PUSH2 0x4D29 JUMPI PUSH4 0x4E487B71 PUSH1 0xE0 SHL PUSH1 0x0 MSTORE PUSH1 0x22 PUSH1 0x4 MSTORE PUSH1 0x24 PUSH1 0x0 REVERT JUMPDEST POP SWAP2 SWAP1 POP JUMP JUMPDEST PUSH4 0x4E487B71 PUSH1 0xE0 SHL PUSH1 0x0 MSTORE PUSH1 0x32 PUSH1 0x4 MSTORE PUSH1 0x24 PUSH1 0x0 REVERT JUMPDEST PUSH4 0x4E487B71 PUSH1 0xE0 SHL PUSH1 0x0 MSTORE PUSH1 0x11 PUSH1 0x4 MSTORE PUSH1 0x24 PUSH1 0x0 REVERT JUMPDEST PUSH1 0x0 PUSH1 0x1 DUP3 ADD PUSH2 0x4D6D JUMPI PUSH2 0x4D6D PUSH2 0x4D45 JUMP JUMPDEST POP PUSH1 0x1 ADD SWAP1 JUMP JUMPDEST DUP1 DUP3 ADD DUP1 DUP3 GT ISZERO PUSH2 0x88C JUMPI PUSH2 0x88C PUSH2 0x4D45 JUMP JUMPDEST PUSH1 0x60 SWAP5 SWAP1 SWAP5 SHL PUSH1 0x1 PUSH1 0x1 PUSH1 0x60 SHL SUB NOT AND DUP5 MSTORE PUSH1 0x14 DUP5 ADD SWAP3 SWAP1 SWAP3 MSTORE PUSH1 0x34 DUP4 ADD MSTORE PUSH1 0x54 DUP3 ADD MSTORE PUSH1 0x74 ADD SWAP1 JUMP JUMPDEST PUSH1 0x1F DUP3 GT ISZERO PUSH2 0x15AE JUMPI PUSH1 0x0 DUP2 DUP2 MSTORE PUSH1 0x20 DUP2 KECCAK256 PUSH1 0x1F DUP6 ADD PUSH1 0x5 SHR DUP2 ADD PUSH1 0x20 DUP7 LT ISZERO PUSH2 0x4DD8 JUMPI POP DUP1 JUMPDEST PUSH1 0x1F DUP6 ADD PUSH1 0x5 SHR DUP3 ADD SWAP2 POP JUMPDEST DUP2 DUP2 LT ISZERO PUSH2 0x3716 JUMPI DUP3 DUP2 SSTORE PUSH1 0x1 ADD PUSH2 0x4DE4 JUMP JUMPDEST PUSH1 0x0 NOT PUSH1 0x3 DUP4 SWAP1 SHL SHR NOT AND PUSH1 0x1 SWAP2 SWAP1 SWAP2 SHL OR SWAP1 JUMP JUMPDEST DUP2 MLOAD PUSH1 0x1 PUSH1 0x1 PUSH1 0x40 SHL SUB DUP2 GT ISZERO PUSH2 0x4E25 JUMPI PUSH2 0x4E25 PUSH2 0x48AF JUMP JUMPDEST PUSH2 0x4E39 DUP2 PUSH2 0x4E33 DUP5 SLOAD PUSH2 0x4CF5 JUMP JUMPDEST DUP5 PUSH2 0x4DB1 JUMP JUMPDEST PUSH1 0x20 DUP1 PUSH1 0x1F DUP4 GT PUSH1 0x1 DUP2 EQ PUSH2 0x4E68 JUMPI PUSH1 0x0 DUP5 ISZERO PUSH2 0x4E56 JUMPI POP DUP6 DUP4 ADD MLOAD JUMPDEST PUSH2 0x4E60 DUP6 DUP3 PUSH2 0x4DF7 JUMP JUMPDEST DUP7 SSTORE POP PUSH2 0x3716 JUMP JUMPDEST PUSH1 0x0 DUP6 DUP2 MSTORE PUSH1 0x20 DUP2 KECCAK256 PUSH1 0x1F NOT DUP7 AND SWAP2 JUMPDEST DUP3 DUP2 LT ISZERO PUSH2 0x4E97 JUMPI DUP9 DUP7 ADD MLOAD DUP3 SSTORE SWAP5 DUP5 ADD SWAP5 PUSH1 0x1 SWAP1 SWAP2 ADD SWAP1 DUP5 ADD PUSH2 0x4E78 JUMP JUMPDEST POP DUP6 DUP3 LT ISZERO PUSH2 0x4EB5 JUMPI DUP8 DUP6 ADD MLOAD PUSH1 0x0 NOT PUSH1 0x3 DUP9 SWAP1 SHL PUSH1 0xF8 AND SHR NOT AND DUP2 SSTORE JUMPDEST POP POP POP POP POP PUSH1 0x1 SWAP1 DUP2 SHL ADD SWAP1 SSTORE POP JUMP JUMPDEST DUP3 ISZERO ISZERO DUP2 MSTORE PUSH1 0x40 PUSH1 0x20 DUP3 ADD MSTORE PUSH1 0x0 PUSH2 0x22EA PUSH1 0x40 DUP4 ADD DUP5 PUSH2 0x4498 JUMP JUMPDEST PUSH1 0x20 DUP1 DUP3 MSTORE PUSH1 0x21 SWAP1 DUP3 ADD MSTORE PUSH32 0x4163636F756E7420697320616C72656164792061207072696D6172792062616E PUSH1 0x40 DUP3 ADD MSTORE PUSH1 0x6B PUSH1 0xF8 SHL PUSH1 0x60 DUP3 ADD MSTORE PUSH1 0x80 ADD SWAP1 JUMP JUMPDEST PUSH1 0x20 DUP2 MSTORE PUSH1 0x0 PUSH2 0x11AE PUSH1 0x20 DUP4 ADD DUP5 PUSH2 0x4498 JUMP JUMPDEST PUSH1 0x20 DUP1 DUP3 MSTORE PUSH1 0x28 SWAP1 DUP3 ADD MSTORE PUSH32 0x4163636F756E7420616C72656164792068617320757365722F656E7465727072 PUSH1 0x40 DUP3 ADD MSTORE PUSH8 0x69736520726F6C65 PUSH1 0xC0 SHL PUSH1 0x60 DUP3 ADD MSTORE PUSH1 0x80 ADD SWAP1 JUMP JUMPDEST PUSH1 0x20 DUP1 DUP3 MSTORE PUSH1 0x23 SWAP1 DUP3 ADD MSTORE PUSH32 0x4163636F756E7420697320616C72656164792061207365636F6E646172792062 PUSH1 0x40 DUP3 ADD MSTORE PUSH3 0x616E6B PUSH1 0xE8 SHL PUSH1 0x60 DUP3 ADD MSTORE PUSH1 0x80 ADD SWAP1 JUMP JUMPDEST PUSH1 0x20 DUP1 DUP3 MSTORE PUSH1 0x1D SWAP1 DUP3 ADD MSTORE PUSH32 0x53656E646572206D757374206861766520612076616C696420726F6C65000000 PUSH1 0x40 DUP3 ADD MSTORE PUSH1 0x60 ADD SWAP1 JUMP JUMPDEST PUSH1 0x40 DUP2 MSTORE PUSH1 0x0 PUSH2 0x5009 PUSH1 0x40 DUP4 ADD DUP6 PUSH2 0x4498 JUMP JUMPDEST SWAP1 POP DUP3 ISZERO ISZERO PUSH1 0x20 DUP4 ADD MSTORE SWAP4 SWAP3 POP POP POP JUMP JUMPDEST PUSH1 0x20 DUP1 DUP3 MSTORE PUSH1 0x12 SWAP1 DUP3 ADD MSTORE PUSH18 0x2737BA103A3432902AAA2C279037BBB732B9 PUSH1 0x71 SHL PUSH1 0x40 DUP3 ADD MSTORE PUSH1 0x60 ADD SWAP1 JUMP JUMPDEST PUSH1 0x20 DUP1 DUP3 MSTORE PUSH1 0x12 SWAP1 DUP3 ADD MSTORE PUSH18 0x15551613C8185B1C9958591E481CDC195B9D PUSH1 0x72 SHL PUSH1 0x40 DUP3 ADD MSTORE PUSH1 0x60 ADD SWAP1 JUMP JUMPDEST PUSH1 0x20 DUP1 DUP3 MSTORE PUSH1 0xB SWAP1 DUP3 ADD MSTORE PUSH11 0x15551613C81B1BD8DAD959 PUSH1 0xAA SHL PUSH1 0x40 DUP3 ADD MSTORE PUSH1 0x60 ADD SWAP1 JUMP JUMPDEST PUSH1 0x40 DUP2 MSTORE PUSH1 0x14 PUSH1 0x40 DUP3 ADD MSTORE PUSH20 0x436F6E6669726D656420737573706963696F7573 PUSH1 0x60 SHL PUSH1 0x60 DUP3 ADD MSTORE PUSH1 0x80 PUSH1 0x20 DUP3 ADD MSTORE PUSH1 0x0 PUSH2 0x11AE PUSH1 0x80 DUP4 ADD DUP5 PUSH2 0x4498 JUMP JUMPDEST DUP2 DUP2 SUB DUP2 DUP2 GT ISZERO PUSH2 0x88C JUMPI PUSH2 0x88C PUSH2 0x4D45 JUMP JUMPDEST PUSH4 0x4E487B71 PUSH1 0xE0 SHL PUSH1 0x0 MSTORE PUSH1 0x31 PUSH1 0x4 MSTORE PUSH1 0x24 PUSH1 0x0 REVERT JUMPDEST PUSH1 0x0 DUP3 CALLDATALOAD PUSH1 0x5E NOT DUP4 CALLDATASIZE SUB ADD DUP2 SLT PUSH2 0x5114 JUMPI PUSH1 0x0 DUP1 REVERT JUMPDEST SWAP2 SWAP1 SWAP2 ADD SWAP3 SWAP2 POP POP JUMP JUMPDEST PUSH1 0x0 PUSH1 0x60 DUP3 CALLDATASIZE SUB SLT ISZERO PUSH2 0x5130 JUMPI PUSH1 0x0 DUP1 REVERT JUMPDEST PUSH1 0x40 MLOAD PUSH1 0x60 DUP2 ADD PUSH1 0x1 PUSH1 0x1 PUSH1 0x40 SHL SUB DUP1 DUP3 GT DUP4 DUP4 LT OR ISZERO PUSH2 0x5153 JUMPI PUSH2 0x5153 PUSH2 0x48AF JUMP JUMPDEST DUP2 PUSH1 0x40 MSTORE DUP5 CALLDATALOAD DUP4 MSTORE PUSH1 0x20 DUP6 ADD CALLDATALOAD PUSH1 0x20 DUP5 ADD MSTORE PUSH1 0x40 DUP6 ADD CALLDATALOAD SWAP2 POP DUP1 DUP3 GT ISZERO PUSH2 0x5179 JUMPI PUSH1 0x0 DUP1 REVERT JUMPDEST POP DUP4 ADD CALLDATASIZE PUSH1 0x1F DUP3 ADD SLT PUSH2 0x518B JUMPI PUSH1 0x0 DUP1 REVERT JUMPDEST PUSH2 0x519A CALLDATASIZE DUP3 CALLDATALOAD PUSH1 0x20 DUP5 ADD PUSH2 0x48C5 JUMP JUMPDEST PUSH1 0x40 DUP4 ADD MSTORE POP SWAP3 SWAP2 POP POP JUMP JUMPDEST PUSH1 0x0 PUSH1 0x80 DUP3 DUP5 SUB SLT ISZERO PUSH2 0x51B8 JUMPI PUSH1 0x0 DUP1 REVERT JUMPDEST PUSH1 0x40 MLOAD PUSH1 0x80 DUP2 ADD PUSH1 0x1 PUSH1 0x1 PUSH1 0x40 SHL SUB DUP2 GT DUP3 DUP3 LT OR ISZERO PUSH2 0x51DA JUMPI PUSH2 0x51DA PUSH2 0x48AF JUMP JUMPDEST PUSH1 0x40 MSTORE DUP3 CALLDATALOAD DUP2 MSTORE PUSH1 0x20 DUP4 ADD CALLDATALOAD PUSH2 0x51EF DUP2 PUSH2 0x45AE JUMP JUMPDEST PUSH1 0x20 DUP3 ADD MSTORE PUSH1 0x40 DUP4 ADD CALLDATALOAD PUSH2 0x5202 DUP2 PUSH2 0x49ED JUMP JUMPDEST PUSH1 0x40 DUP3 ADD MSTORE PUSH1 0x60 SWAP3 DUP4 ADD CALLDATALOAD SWAP3 DUP2 ADD SWAP3 SWAP1 SWAP3 MSTORE POP SWAP2 SWAP1 POP JUMP JUMPDEST DUP2 CALLDATALOAD DUP2 SSTORE PUSH1 0x1 DUP2 ADD PUSH1 0x20 DUP4 ADD CALLDATALOAD PUSH2 0x5230 DUP2 PUSH2 0x45AE JUMP JUMPDEST DUP2 SLOAD PUSH1 0x40 DUP6 ADD CALLDATALOAD PUSH2 0x5240 DUP2 PUSH2 0x49ED JUMP JUMPDEST PUSH1 0xFF PUSH1 0xA0 SHL SWAP1 ISZERO ISZERO PUSH1 0xA0 SHL AND PUSH1 0x1 PUSH1 0x1 PUSH1 0xA0 SHL SUB SWAP3 SWAP1 SWAP3 AND PUSH1 0x1 PUSH1 0x1 PUSH1 0xA8 SHL SUB NOT SWAP2 SWAP1 SWAP2 AND OR OR SWAP1 SSTORE PUSH1 0x60 SWAP2 SWAP1 SWAP2 ADD CALLDATALOAD PUSH1 0x2 SWAP1 SWAP2 ADD SSTORE JUMP JUMPDEST DUP2 CALLDATALOAD DUP2 SSTORE PUSH1 0x1 PUSH1 0x20 DUP1 DUP5 ADD CALLDATALOAD DUP3 DUP5 ADD SSTORE PUSH1 0x2 DUP4 ADD PUSH1 0x40 DUP6 ADD CALLDATALOAD PUSH1 0x1E NOT DUP7 CALLDATASIZE SUB ADD DUP2 SLT PUSH2 0x52A3 JUMPI PUSH1 0x0 DUP1 REVERT JUMPDEST DUP6 ADD DUP1 CALLDATALOAD PUSH1 0x1 PUSH1 0x1 PUSH1 0x40 SHL SUB DUP2 GT ISZERO PUSH2 0x52BB JUMPI PUSH1 0x0 DUP1 REVERT JUMPDEST DUP1 CALLDATASIZE SUB DUP5 DUP4 ADD SGT ISZERO PUSH2 0x52CC JUMPI PUSH1 0x0 DUP1 REVERT JUMPDEST PUSH2 0x52E0 DUP2 PUSH2 0x52DA DUP6 SLOAD PUSH2 0x4CF5 JUMP JUMPDEST DUP6 PUSH2 0x4DB1 JUMP JUMPDEST PUSH1 0x0 PUSH1 0x1F DUP3 GT PUSH1 0x1 DUP2 EQ PUSH2 0x5310 JUMPI PUSH1 0x0 DUP4 ISZERO PUSH2 0x52FE JUMPI POP DUP4 DUP3 ADD DUP7 ADD CALLDATALOAD JUMPDEST PUSH2 0x5308 DUP5 DUP3 PUSH2 0x4DF7 JUMP JUMPDEST DUP7 SSTORE POP PUSH2 0x5369 JUMP JUMPDEST PUSH1 0x0 DUP6 DUP2 MSTORE PUSH1 0x20 SWAP1 KECCAK256 PUSH1 0x1F NOT DUP5 AND SWAP1 DUP4 JUMPDEST DUP3 DUP2 LT ISZERO PUSH2 0x5340 JUMPI DUP7 DUP6 ADD DUP10 ADD CALLDATALOAD DUP3 SSTORE SWAP4 DUP9 ADD SWAP4 SWAP1 DUP10 ADD SWAP1 DUP9 ADD PUSH2 0x5321 JUMP JUMPDEST POP DUP5 DUP3 LT ISZERO PUSH2 0x535F JUMPI PUSH1 0x0 NOT PUSH1 0xF8 DUP7 PUSH1 0x3 SHL AND SHR NOT DUP9 DUP6 DUP9 ADD ADD CALLDATALOAD AND DUP2 SSTORE JUMPDEST POP POP DUP7 DUP4 DUP9 SHL ADD DUP6 SSTORE JUMPDEST POP POP POP POP POP POP POP POP POP JUMP INVALID SWAP3 MULMOD SWAP5 0xFC EXTCODESIZE INVALID 0x28 0x2F EXTCODEHASH KECCAK256 0xCD 0xCC CALL 0xB7 0xC5 0xE4 PUSH13 0x63D963E822D98EFFF90ABD41C1 0x2E 0x21 SWAP9 DUP11 0xD2 0x49 LOG3 0xA5 PUSH25 0xF3CA7B7F03DA9FFDB25C0F9BF3684A5B8AAC97D04FC81C2107 0x21 PUSH17 0x2C8AF46127C7FA207F89D0B0A8441BB329 MSIZE LOG0 0xAC PUSH30 0xF790E9AB1A25C989269C1F2F4D9A91FDD6D73321B3B584A7616489B99E82 PUSH32 0xD80F998ABD6F379A412932D3B416B1E958137AA50D8C4EBE23BC919D27A2C40D PUSH14 0xB677D85D5BFE33C83020B5F7AC97 DUP15 0x5D PUSH2 0x99DE MOD BLOCKHASH EQ GT SWAP7 0xD STATICCALL DUP2 0xD2 0xF7 PUSH3 0x655F62 MOD 0xBD 0xC6 SAR CHAINID 0xFC NOT 0xE6 0xD 0xE MSTORE8 KECCAK256 LT 0x21 PUSH18 0x6A89723FE8A67E0588C5489401E7FAEED537 SWAP15 MSTORE ADDMOD 0x27 0x28 PUSH10 0xAC14823911F2DA1B49F0 GASLIMIT LOG0 SWAP3 SWAP11 PUSH1 0xB8 0xC1 CALLCODE 0xA7 0xFC DUP13 MOD 0xC7 0x28 0x4C LOG3 0xE8 0xAB 0x4E NOT GASPRICE ADDMOD 0xC8 OR SWAP13 INVALID 0xEA PUSH17 0xBFBADFC00A9B19F8CC0D49AB2A2B6854D1 SHL LOG2 EQ SWAP13 PUSH25 0x8F659E83ACFD27D176B6EBB21E0182C0E43DF5818E0D632867 0xE1 0xEB SELFBALANCE 0xC3 DUP4 0xC5 DUP14 0x22 SLT SDIV 0xFC 0xE3 MUL SLT SWAP14 MSTORE 0xC4 0x26 0xAC SHL DUP12 0xB3 PUSH8 0x45C8D2212568F7 DELEGATECALL SIGNEXTEND 0x49 DUP13 SLOAD 0x24 0xC5 PUSH30 0xC5691C22A1A26469706673582212209C31350E8414D7F2AD34B304C19B5B RETURNDATACOPY 0x22 REVERT MUL CHAINID 0xD2 MUL 0x4F 0xF7 EXTCODEHASH LOG3 DUP8 0xD4 COINBASE 0xAC 0xC8 DUP7 PUSH5 0x736F6C6343 STOP ADDMOD EQ STOP CALLER ORIGIN 0xD3 0xB4 AND 0xB1 0xE9 PC SGT PUSH27 0xA50D8C4EBE23BC919D27A2C40D6DB677D85D5BFE33C83000000000 "},"methodIdentifiers":{"DEFAULT_ADMIN_ROLE()":"a217fddf","ENTERPRISE_ROLE()":"68dd17a5","FREQUENT_TRANSACTION_THRESHOLD()":"780991bd","LARGE_TRANSACTION_THRESHOLD()":"81693d27","MAX_SUPPLY()":"32cb6b0c","PRIMARY_BANK_ROLE()":"e206ba50","REGULATOR_ROLE()":"144bf589","SECONDARY_BANK_ROLE()":"c5fbb610","USER_ROLE()":"13119161","VALIDATOR_ROLE()":"c49baebe","addressAuditReports(address,uint256)":"3ceaf7e9","addressUTXOs(address,uint256)":"8001cfe5","assignEnterprise(address,string)":"7304c588","assignRegulator(address,string)":"cf850c8d","assignSecondaryBank(address,string)":"5cead0e9","assignUser(address,string)":"658a4823","assignValidator(address,string)":"95706957","auditReports(uint256)":"0daf71ac","auditTransaction(uint256,string,string,bool)":"f74577d5","auditedTransactions(uint256)":"8e598f18","convertAccountToUTXO(uint256)":"8805ce35","convertUTXOToAccount(uint256[],uint256)":"d3138255","createTransaction((uint256,uint256,bytes)[],(uint256,address,bool,uint256)[])":"e0b99a2d","generateAddressAuditReport(address,string)":"5a3c61eb","getAddressAuditReports(address)":"76ad18b9","getAddressBalance(address)":"35046722","getAddressUTXOs(address)":"a43ef956","getAuditReport(uint256)":"f8031e90","getRoleAdmin(bytes32)":"248a9ca3","getRoleLevel(address)":"c8aee754","getSuspiciousTransaction(uint256)":"16d6d2c4","getTransaction(uint256)":"33ea3dc8","getTransactionHistory(address,uint256,uint256)":"197277fd","getUTXODetails(uint256)":"d980d735","grantRole(bytes32,address)":"2f2ff15d","hasRole(bytes32,address)":"91d14854","hasValidRole(address)":"217b8ee9","investigateSuspiciousTransaction(uint256,bool,string)":"ecc6152c","mint(address,uint256)":"40c10f19","recentTransactionCount(address)":"c2f959c3","recentTransactionWindow(address)":"ffe4c2d3","renounceRole(bytes32,address)":"36568abe","reportCounter()":"b9bc38f2","revokeRole(address,bytes32)":"208dd1ff","revokeRole(bytes32,address)":"d547741f","roleInfo(address)":"24f13320","setFrequentTransactionThreshold(uint256)":"612999d5","setLargeTransactionThreshold(uint256)":"17302eb9","supportsInterface(bytes4)":"01ffc9a7","suspiciousCounter()":"7b19f48c","suspiciousTransactions(uint256)":"3fd4c11b","totalSupply()":"18160ddd","transactions(uint256)":"9ace38c2","txCounter()":"74f079b8","txIdExists(uint256)":"3409d8f6","updateRoleInfo(address,string,bool)":"9859199d","utxos(uint256)":"81591387","validatePermission(address,uint256)":"7c0f8882"}}}}}