{
  "_format": "hh-sol-artifact-1",
  "contractName": "CDBCConsensusCore",
  "sourceName": "contracts/CDBCConsensusCore.sol",
  "abi": [
    {
      "inputs": [
        {
          "internalType": "address",
          "name": "_accessControlAddr",
          "type": "address"
        }
      ],
      "stateMutability": "nonpayable",
      "type": "constructor"
    },
    {
      "anonymous": false,
      "inputs": [
        {
          "indexed": true,
          "internalType": "uint256",
          "name": "blockNumber",
          "type": "uint256"
        },
        {
          "indexed": false,
          "internalType": "bool",
          "name": "verified",
          "type": "bool"
        },
        {
          "indexed": false,
          "internalType": "uint256",
          "name": "approvals",
          "type": "uint256"
        },
        {
          "indexed": false,
          "internalType": "uint256",
          "name": "rejections",
          "type": "uint256"
        }
      ],
      "name": "BlockVerified",
      "type": "event"
    },
    {
      "anonymous": false,
      "inputs": [
        {
          "indexed": false,
          "internalType": "string",
          "name": "paramName",
          "type": "string"
        },
        {
          "indexed": false,
          "internalType": "uint256",
          "name": "oldValue",
          "type": "uint256"
        },
        {
          "indexed": false,
          "internalType": "uint256",
          "name": "newValue",
          "type": "uint256"
        }
      ],
      "name": "ConsensusParameterUpdated",
      "type": "event"
    },
    {
      "anonymous": false,
      "inputs": [
        {
          "indexed": true,
          "internalType": "address",
          "name": "validator",
          "type": "address"
        },
        {
          "indexed": false,
          "internalType": "string",
          "name": "name",
          "type": "string"
        }
      ],
      "name": "ValidatorAdded",
      "type": "event"
    },
    {
      "anonymous": false,
      "inputs": [
        {
          "indexed": true,
          "internalType": "address",
          "name": "validator",
          "type": "address"
        }
      ],
      "name": "ValidatorRemoved",
      "type": "event"
    },
    {
      "anonymous": false,
      "inputs": [
        {
          "indexed": true,
          "internalType": "address",
          "name": "validator",
          "type": "address"
        },
        {
          "indexed": false,
          "internalType": "bool",
          "name": "active",
          "type": "bool"
        }
      ],
      "name": "ValidatorStatusChanged",
      "type": "event"
    },
    {
      "anonymous": false,
      "inputs": [
        {
          "indexed": true,
          "internalType": "address",
          "name": "validator",
          "type": "address"
        },
        {
          "indexed": true,
          "internalType": "uint256",
          "name": "blockNumber",
          "type": "uint256"
        },
        {
          "indexed": false,
          "internalType": "bool",
          "name": "approve",
          "type": "bool"
        }
      ],
      "name": "VoteCast",
      "type": "event"
    },
    {
      "inputs": [],
      "name": "MAX_VALIDATORS",
      "outputs": [
        {
          "internalType": "uint256",
          "name": "",
          "type": "uint256"
        }
      ],
      "stateMutability": "view",
      "type": "function"
    },
    {
      "inputs": [],
      "name": "MIN_VALIDATORS",
      "outputs": [
        {
          "internalType": "uint256",
          "name": "",
          "type": "uint256"
        }
      ],
      "stateMutability": "view",
      "type": "function"
    },
    {
      "inputs": [],
      "name": "VALIDATOR_QUORUM",
      "outputs": [
        {
          "internalType": "uint256",
          "name": "",
          "type": "uint256"
        }
      ],
      "stateMutability": "view",
      "type": "function"
    },
    {
      "inputs": [],
      "name": "accessControlAddr",
      "outputs": [
        {
          "internalType": "address",
          "name": "",
          "type": "address"
        }
      ],
      "stateMutability": "view",
      "type": "function"
    },
    {
      "inputs": [
        {
          "internalType": "address",
          "name": "validator",
          "type": "address"
        },
        {
          "internalType": "string",
          "name": "name",
          "type": "string"
        }
      ],
      "name": "addValidator",
      "outputs": [],
      "stateMutability": "nonpayable",
      "type": "function"
    },
    {
      "inputs": [
        {
          "internalType": "uint256",
          "name": "",
          "type": "uint256"
        },
        {
          "internalType": "uint256",
          "name": "",
          "type": "uint256"
        }
      ],
      "name": "blockValidators",
      "outputs": [
        {
          "internalType": "address",
          "name": "addr",
          "type": "address"
        },
        {
          "internalType": "string",
          "name": "name",
          "type": "string"
        },
        {
          "internalType": "bool",
          "name": "active",
          "type": "bool"
        },
        {
          "internalType": "uint256",
          "name": "stake",
          "type": "uint256"
        },
        {
          "internalType": "uint256",
          "name": "joinTime",
          "type": "uint256"
        },
        {
          "internalType": "uint256",
          "name": "lastBlockProposed",
          "type": "uint256"
        },
        {
          "internalType": "uint256",
          "name": "voteCount",
          "type": "uint256"
        }
      ],
      "stateMutability": "view",
      "type": "function"
    },
    {
      "inputs": [
        {
          "internalType": "uint256",
          "name": "",
          "type": "uint256"
        }
      ],
      "name": "blockVerifications",
      "outputs": [
        {
          "internalType": "uint256",
          "name": "blockNumber",
          "type": "uint256"
        },
        {
          "internalType": "uint256",
          "name": "txCount",
          "type": "uint256"
        },
        {
          "internalType": "uint256",
          "name": "approvals",
          "type": "uint256"
        },
        {
          "internalType": "uint256",
          "name": "rejections",
          "type": "uint256"
        },
        {
          "internalType": "bool",
          "name": "verified",
          "type": "bool"
        },
        {
          "internalType": "uint256",
          "name": "timestamp",
          "type": "uint256"
        }
      ],
      "stateMutability": "view",
      "type": "function"
    },
    {
      "inputs": [
        {
          "internalType": "uint256",
          "name": "",
          "type": "uint256"
        },
        {
          "internalType": "uint256",
          "name": "",
          "type": "uint256"
        }
      ],
      "name": "blockVotes",
      "outputs": [
        {
          "internalType": "address",
          "name": "validator",
          "type": "address"
        },
        {
          "internalType": "uint256",
          "name": "blockNumber",
          "type": "uint256"
        },
        {
          "internalType": "uint256",
          "name": "txId",
          "type": "uint256"
        },
        {
          "internalType": "bool",
          "name": "approve",
          "type": "bool"
        },
        {
          "internalType": "uint256",
          "name": "timestamp",
          "type": "uint256"
        }
      ],
      "stateMutability": "view",
      "type": "function"
    },
    {
      "inputs": [
        {
          "internalType": "uint256",
          "name": "blockNumber",
          "type": "uint256"
        },
        {
          "internalType": "uint256",
          "name": "txId",
          "type": "uint256"
        },
        {
          "internalType": "bool",
          "name": "approve",
          "type": "bool"
        }
      ],
      "name": "castVote",
      "outputs": [],
      "stateMutability": "nonpayable",
      "type": "function"
    },
    {
      "inputs": [],
      "name": "currentBlockNumber",
      "outputs": [
        {
          "internalType": "uint256",
          "name": "",
          "type": "uint256"
        }
      ],
      "stateMutability": "view",
      "type": "function"
    },
    {
      "inputs": [],
      "name": "currentValidatorCount",
      "outputs": [
        {
          "internalType": "uint256",
          "name": "",
          "type": "uint256"
        }
      ],
      "stateMutability": "view",
      "type": "function"
    },
    {
      "inputs": [],
      "name": "getActiveValidators",
      "outputs": [
        {
          "internalType": "address[]",
          "name": "",
          "type": "address[]"
        }
      ],
      "stateMutability": "view",
      "type": "function"
    },
    {
      "inputs": [
        {
          "internalType": "uint256",
          "name": "",
          "type": "uint256"
        },
        {
          "internalType": "address",
          "name": "",
          "type": "address"
        }
      ],
      "name": "hasVoted",
      "outputs": [
        {
          "internalType": "bool",
          "name": "",
          "type": "bool"
        }
      ],
      "stateMutability": "view",
      "type": "function"
    },
    {
      "inputs": [
        {
          "internalType": "address[]",
          "name": "initialValidators",
          "type": "address[]"
        },
        {
          "internalType": "string[]",
          "name": "names",
          "type": "string[]"
        }
      ],
      "name": "initializeValidators",
      "outputs": [],
      "stateMutability": "nonpayable",
      "type": "function"
    },
    {
      "inputs": [
        {
          "internalType": "uint256",
          "name": "blockNumber",
          "type": "uint256"
        }
      ],
      "name": "proposeBlock",
      "outputs": [],
      "stateMutability": "nonpayable",
      "type": "function"
    },
    {
      "inputs": [
        {
          "internalType": "address",
          "name": "validator",
          "type": "address"
        }
      ],
      "name": "removeValidator",
      "outputs": [],
      "stateMutability": "nonpayable",
      "type": "function"
    },
    {
      "inputs": [
        {
          "internalType": "address",
          "name": "validator",
          "type": "address"
        },
        {
          "internalType": "bool",
          "name": "active",
          "type": "bool"
        }
      ],
      "name": "updateValidatorStatus",
      "outputs": [],
      "stateMutability": "nonpayable",
      "type": "function"
    },
    {
      "inputs": [
        {
          "internalType": "address",
          "name": "",
          "type": "address"
        },
        {
          "internalType": "uint256",
          "name": "",
          "type": "uint256"
        }
      ],
      "name": "validatorBlocks",
      "outputs": [
        {
          "internalType": "uint256",
          "name": "",
          "type": "uint256"
        }
      ],
      "stateMutability": "view",
      "type": "function"
    },
    {
      "inputs": [
        {
          "internalType": "address",
          "name": "",
          "type": "address"
        }
      ],
      "name": "validators",
      "outputs": [
        {
          "internalType": "address",
          "name": "addr",
          "type": "address"
        },
        {
          "internalType": "string",
          "name": "name",
          "type": "string"
        },
        {
          "internalType": "bool",
          "name": "active",
          "type": "bool"
        },
        {
          "internalType": "uint256",
          "name": "stake",
          "type": "uint256"
        },
        {
          "internalType": "uint256",
          "name": "joinTime",
          "type": "uint256"
        },
        {
          "internalType": "uint256",
          "name": "lastBlockProposed",
          "type": "uint256"
        },
        {
          "internalType": "uint256",
          "name": "voteCount",
          "type": "uint256"
        }
      ],
      "stateMutability": "view",
      "type": "function"
    },
    {
      "inputs": [
        {
          "internalType": "uint256",
          "name": "blockNumber",
          "type": "uint256"
        },
        {
          "internalType": "uint256",
          "name": "txCount",
          "type": "uint256"
        }
      ],
      "name": "verifyBlock",
      "outputs": [],
      "stateMutability": "nonpayable",
      "type": "function"
    }
  ],
  "bytecode": "0x608060405234801561001057600080fd5b50604051620022213803806200222183398101604081905261003191610060565b600880546001600160a01b0319166001600160a01b039290921691909117905560006006819055600755610090565b60006020828403121561007257600080fd5b81516001600160a01b038116811461008957600080fd5b9392505050565b61218180620000a06000396000f3fe608060405234801561001057600080fd5b50600436106100fc5760003560e01c80632e0c4ad014610101578063378ec23b1461014d57806340a141ff1461016457806343859632146101795780634a936683146101b75780634f4471bc146101bf5780635ed1f963146101d25780635f8e710d146101da57806363e2a232146101ed578063714897df146102005780639432eb021461020857806395c0941e1461022e5780639a1c1999146102415780639de7025814610254578063cd6feb4b14610269578063cea857d914610289578063d755d36f14610301578063f9000ba81461030a578063fa52c7d81461031d578063fbfc249414610330575b600080fd5b61011461010f36600461195f565b610343565b604080516001600160a01b03909616865260208601949094529284019190915215156060830152608082015260a0015b60405180910390f35b61015660075481565b604051908152602001610144565b61017761017236600461199d565b61039e565b005b6101a76101873660046119bf565b600460209081526000928352604080842090915290825290205460ff1681565b6040519015158152602001610144565b610156600281565b6101776101cd36600461195f565b6105f7565b610156600381565b6101566101e83660046119eb565b6108d0565b6101776101fb366004611a2b565b610901565b610156600f81565b61021b61021636600461195f565b610c2a565b6040516101449796959493929190611b32565b61017761023c366004611bcb565b610d1d565b61017761024f366004611c36565b61123c565b61025c61139e565b6040516101449190611c4f565b60085461027c906001600160a01b031681565b6040516101449190611c9c565b6102d2610297366004611c36565b600560208190526000918252604090912080546001820154600283015460038401546004850154949095015492949193909260ff9091169086565b6040805196875260208701959095529385019290925260608401521515608083015260a082015260c001610144565b61015660065481565b610177610318366004611cc1565b611410565b61021b61032b36600461199d565b611603565b61017761033e366004611cfa565b61162f565b6003602052816000526040600020818154811061035f57600080fd5b6000918252602090912060059091020180546001820154600283015460038401546004909401546001600160a01b0390931695509093509160ff169085565b60085460408051630e206ba560e41b815290516001600160a01b0390921691600091839163e206ba50916004808201926020929091908290030181865afa1580156103ed573d6000803e3d6000fd5b505050506040513d601f19601f820116820180604052508101906104119190611d31565b604051632474521560e21b81529091506001600160a01b038316906391d14854906104429084903390600401611d4a565b602060405180830381865afa15801561045f573d6000803e3d6000fd5b505050506040513d601f19601f820116820180604052508101906104839190611d61565b6104e45760405162461bcd60e51b815260206004820152602760248201527f4f6e6c79207072696d6172792062616e6b2063616e2072656d6f76652076616c604482015266696461746f727360c81b60648201526084015b60405180910390fd5b6001600160a01b03831660009081526020819052604090206002015460ff1661051f5760405162461bcd60e51b81526004016104db90611d7e565b6003600654116105885760405162461bcd60e51b815260206004820152602e60248201527f43616e6e6f742072656d6f76652076616c696461746f723a206d696e696d756d60448201526d0818dbdd5b9d081c995858da195960921b60648201526084016104db565b6001600160a01b0383166000908152602081905260408120600201805460ff1916905560068054916105b983611dc6565b90915550506040516001600160a01b038416907fe1434e25d6611e0db941968fdc97811c982ac1602e951637d206f5fdda9dd8f190600090a2505050565b6008546040805163624dd75f60e11b815290516001600160a01b0390921691600091839163c49baebe916004808201926020929091908290030181865afa158015610646573d6000803e3d6000fd5b505050506040513d601f19601f8201168201806040525081019061066a9190611d31565b604051632474521560e21b81529091506001600160a01b038316906391d148549061069b9084903390600401611d4a565b602060405180830381865afa1580156106b8573d6000803e3d6000fd5b505050506040513d601f19601f820116820180604052508101906106dc9190611d61565b6107325760405162461bcd60e51b815260206004820152602160248201527f4f6e6c792076616c696461746f72732063616e2076657269667920626c6f636b6044820152607360f81b60648201526084016104db565b60008481526005602052604090206004015460ff161561078d5760405162461bcd60e51b8152602060048201526016602482015275109b1bd8dac8185b1c9958591e481d995c9a599a595960521b60448201526064016104db565b6040805160c0810182528581526020808201868152600083850181815260608501828152608086018381524260a088019081528c85526005808852898620895181559651600180890191909155945160028089019190915593516003880155915160048701805460ff19169115159190911790555194019390935560078a81553380845293855286832080548084018255908452858420018b90558a8352818552868320938352828552958220835480830185559383529390912083549290950290940180546001600160a01b039092166001600160a01b031990921691909117815591929091908181019061088590840182611e7b565b50600282810154908201805460ff191660ff90921615159190911790556003808301549082015560048083015490820155600580830154908201556006918201549101555050505050565b600260205281600052604060002081815481106108ec57600080fd5b90600052602060002001600091509150505481565b60085460408051630e206ba560e41b815290516001600160a01b0390921691600091839163e206ba50916004808201926020929091908290030181865afa158015610950573d6000803e3d6000fd5b505050506040513d601f19601f820116820180604052508101906109749190611d31565b604051632474521560e21b81529091506001600160a01b038316906391d14854906109a59084903390600401611d4a565b602060405180830381865afa1580156109c2573d6000803e3d6000fd5b505050506040513d601f19601f820116820180604052508101906109e69190611d61565b610a3e5760405162461bcd60e51b8152602060048201526024808201527f4f6e6c79207072696d6172792062616e6b2063616e206164642076616c696461604482015263746f727360e01b60648201526084016104db565b6001600160a01b03841660009081526020819052604090206002015460ff1615610a7a5760405162461bcd60e51b81526004016104db90611f55565b600f60065410610a9c5760405162461bcd60e51b81526004016104db90611f87565b60405163217b8ee960e01b81526001600160a01b0383169063217b8ee990610ac8908790600401611c9c565b602060405180830381865afa158015610ae5573d6000803e3d6000fd5b505050506040513d601f19601f82011682018060405250810190610b099190611d61565b610b255760405162461bcd60e51b81526004016104db90611fbb565b6040805160e0810182526001600160a01b038681168083526020808401888152600185870181905260006060870181905242608088015260a0870181905260c087018190529384529183905294909120835181546001600160a01b031916931692909217825592519192909190820190610b9f9082611ff0565b50604082015160028201805460ff1916911515919091179055606082015160038201556080820151600482015560a0820151600582015560c0909101516006918201558054906000610bf0836120a3565b9190505550836001600160a01b031660008051602061212c83398151915284604051610c1c91906120bc565b60405180910390a250505050565b60016020528160005260406000208181548110610c4657600080fd5b6000918252602090912060079091020180546001820180546001600160a01b039092169450919250610c7790611ddd565b80601f0160208091040260200160405190810160405280929190818152602001828054610ca390611ddd565b8015610cf05780601f10610cc557610100808354040283529160200191610cf0565b820191906000526020600020905b815481529060010190602001808311610cd357829003601f168201915b5050506002840154600385015460048601546005870154600690970154959660ff90931695919450925087565b60085460408051630e206ba560e41b815290516001600160a01b0390921691600091839163e206ba50916004808201926020929091908290030181865afa158015610d6c573d6000803e3d6000fd5b505050506040513d601f19601f82011682018060405250810190610d909190611d31565b604051632474521560e21b81529091506001600160a01b038316906391d1485490610dc19084903390600401611d4a565b602060405180830381865afa158015610dde573d6000803e3d6000fd5b505050506040513d601f19601f82011682018060405250810190610e029190611d61565b610e625760405162461bcd60e51b815260206004820152602b60248201527f4f6e6c79207072696d6172792062616e6b2063616e20696e697469616c697a6560448201526a2076616c696461746f727360a81b60648201526084016104db565b6003851015610ed05760405162461bcd60e51b815260206004820152603460248201527f4d7573742068617665206174206c65617374204d494e5f56414c494441544f526044820152735320696e697469616c2076616c696461746f727360601b60648201526084016104db565b600f851115610f395760405162461bcd60e51b815260206004820152602f60248201527f43616e6e6f7420657863656564204d41585f56414c494441544f525320696e6960448201526e7469616c2076616c696461746f727360881b60648201526084016104db565b848314610fa65760405162461bcd60e51b815260206004820152603560248201527f56616c696461746f727320616e64206e616d657320617272617973206d757374604482015274040d0c2ecca40e8d0ca40e6c2daca40d8cadccee8d605b1b60648201526084016104db565b60005b85811015611233576000878783818110610fc557610fc56120cf565b9050602002016020810190610fda919061199d565b90506000868684818110610ff057610ff06120cf565b905060200281019061100291906120e5565b8080601f01602080910402602001604051908101604052809392919081815260200183838082843760009201829052506001600160a01b038716815260208190526040902060020154939450505060ff9091161590506110745760405162461bcd60e51b81526004016104db90611f55565b600f600654106110965760405162461bcd60e51b81526004016104db90611f87565b60405163217b8ee960e01b81526001600160a01b0386169063217b8ee9906110c2908590600401611c9c565b602060405180830381865afa1580156110df573d6000803e3d6000fd5b505050506040513d601f19601f820116820180604052508101906111039190611d61565b61111f5760405162461bcd60e51b81526004016104db90611fbb565b6040805160e0810182526001600160a01b038481168083526020808401868152600185870181905260006060870181905242608088015260a0870181905260c087018190529384529183905294909120835181546001600160a01b0319169316929092178255925191929091908201906111999082611ff0565b50604082015160028201805460ff1916911515919091179055606082015160038201556080820151600482015560a0820151600582015560c09091015160069182015580549060006111ea836120a3565b9190505550816001600160a01b031660008051602061212c8339815191528260405161121691906120bc565b60405180910390a25050808061122b906120a3565b915050610fa9565b50505050505050565b3360009081526020819052604090206002015460ff166112b05760405162461bcd60e51b815260206004820152602960248201527f4f6e6c79206163746976652076616c696461746f72732063616e2070726f706f604482015268736520626c6f636b7360b81b60648201526084016104db565b336000908152602081905260408120600581018390556006018054916112d5836120a3565b9091555050336000818152600260209081526040808320805460018181018355918552838520018690558584528083528184209484528383529083208454808301865594845291909220815460079094020180546001600160a01b0319166001600160a01b039490941693909317835591908181019061135790840182611e7b565b50600282810154908201805460ff191660ff909216151591909117905560038083015490820155600480830154908201556005808301549082015560069182015491015550565b606060006006546001600160401b038111156113bc576113bc611a15565b6040519080825280602002602001820160405280156113e5578160200160208202803683370190505b5090506000805b6006548110156114085780611400816120a3565b9150506113ec565b509092915050565b3360009081526020819052604090206002015460ff166114725760405162461bcd60e51b815260206004820152601f60248201527f4f6e6c79206163746976652076616c696461746f72732063616e20766f74650060448201526064016104db565b600083815260046020908152604080832033845290915290205460ff16156114eb5760405162461bcd60e51b815260206004820152602660248201527f56616c696461746f7220616c726561647920766f74656420666f72207468697360448201526520626c6f636b60d01b60648201526084016104db565b6040805160a08101825233808252602080830187815283850187815286151560608601908152426080870190815260008b815260038087528982208054600181810183559184528884208b5160059092020180546001600160a01b03929092166001600160a01b0319909216919091178155965187820155945160028701559251928501805493151560ff1994851617905590516004948501558a8152928452868320948352938352858220805490941617909255819052918220600601805491926115b6836120a3565b90915550506040518215158152849033907fd356173ae8eeea8691aee4c1be712c314a975a3d43ebc48b08ca54d0dac912289060200160405180910390a36115fd8461184a565b50505050565b600060208190529081526040902080546001820180546001600160a01b039092169291610c7790611ddd565b60085460408051630e206ba560e41b815290516001600160a01b0390921691600091839163e206ba50916004808201926020929091908290030181865afa15801561167e573d6000803e3d6000fd5b505050506040513d601f19601f820116820180604052508101906116a29190611d31565b604051632474521560e21b81529091506001600160a01b038316906391d14854906116d39084903390600401611d4a565b602060405180830381865afa1580156116f0573d6000803e3d6000fd5b505050506040513d601f19601f820116820180604052508101906117149190611d61565b6117765760405162461bcd60e51b815260206004820152602d60248201527f4f6e6c79207072696d6172792062616e6b2063616e207570646174652076616c60448201526c696461746f722073746174757360981b60648201526084016104db565b6001600160a01b03848116600090815260208190526040902054166117ad5760405162461bcd60e51b81526004016104db90611d7e565b6001600160a01b0384166000908152602081905260409020600201805460ff191684158015919091179091556117f757600680549060006117ed836120a3565b919050555061180d565b6006805490600061180783611dc6565b91905055505b836001600160a01b03167f805c9c534537bef15c327683ea9e388211b8577686ab415f96941b440980c2d484604051610c1c911515815260200190565b60008181526003602052604081209080805b83548110156118c557838181548110611877576118776120cf565b600091825260209091206003600590920201015460ff16156118a5578261189d816120a3565b9350506118b3565b816118af816120a3565b9250505b806118bd816120a3565b91505061185c565b50600282101580156118d657508082115b156115fd57600084815260056020818152604092839020878155600281018690556003810185905560048101805460ff191660019081179091554293820193909355835192835290820185905291810183905285907f070f116115f38299c148fb171b6f558da834d5950d7397af5114fd1b03b675069060600160405180910390a25050505050565b6000806040838503121561197257600080fd5b50508035926020909101359150565b80356001600160a01b038116811461199857600080fd5b919050565b6000602082840312156119af57600080fd5b6119b882611981565b9392505050565b600080604083850312156119d257600080fd5b823591506119e260208401611981565b90509250929050565b600080604083850312156119fe57600080fd5b611a0783611981565b946020939093013593505050565b634e487b7160e01b600052604160045260246000fd5b60008060408385031215611a3e57600080fd5b611a4783611981565b915060208301356001600160401b0380821115611a6357600080fd5b818501915085601f830112611a7757600080fd5b813581811115611a8957611a89611a15565b604051601f8201601f19908116603f01168101908382118183101715611ab157611ab1611a15565b81604052828152886020848701011115611aca57600080fd5b8260208601602083013760006020848301015280955050505050509250929050565b6000815180845260005b81811015611b1257602081850181015186830182015201611af6565b506000602082860101526020601f19601f83011685010191505092915050565b6001600160a01b038816815260e060208201819052600090611b5690830189611aec565b9615156040830152506060810194909452608084019290925260a083015260c09091015292915050565b60008083601f840112611b9257600080fd5b5081356001600160401b03811115611ba957600080fd5b6020830191508360208260051b8501011115611bc457600080fd5b9250929050565b60008060008060408587031215611be157600080fd5b84356001600160401b0380821115611bf857600080fd5b611c0488838901611b80565b90965094506020870135915080821115611c1d57600080fd5b50611c2a87828801611b80565b95989497509550505050565b600060208284031215611c4857600080fd5b5035919050565b6020808252825182820181905260009190848201906040850190845b81811015611c905783516001600160a01b031683529284019291840191600101611c6b565b50909695505050505050565b6001600160a01b0391909116815260200190565b8015158114611cbe57600080fd5b50565b600080600060608486031215611cd657600080fd5b83359250602084013591506040840135611cef81611cb0565b809150509250925092565b60008060408385031215611d0d57600080fd5b611d1683611981565b91506020830135611d2681611cb0565b809150509250929050565b600060208284031215611d4357600080fd5b5051919050565b9182526001600160a01b0316602082015260400190565b600060208284031215611d7357600080fd5b81516119b881611cb0565b60208082526018908201527715985b1a59185d1bdc88191bd95cc81b9bdd08195e1a5cdd60421b604082015260600190565b634e487b7160e01b600052601160045260246000fd5b600081611dd557611dd5611db0565b506000190190565b600181811c90821680611df157607f821691505b602082108103611e1157634e487b7160e01b600052602260045260246000fd5b50919050565b601f821115611e6157600081815260208120601f850160051c81016020861015611e3e5750805b601f850160051c820191505b81811015611e5d57828155600101611e4a565b5050505b505050565b600019600383901b1c191660019190911b1790565b818103611e86575050565b611e908254611ddd565b6001600160401b03811115611ea757611ea7611a15565b611ebb81611eb58454611ddd565b84611e17565b6000601f821160018114611ee95760008315611ed75750848201545b611ee18482611e66565b855550611f4e565b600085815260209020601f19841690600086815260209020845b83811015611f235782860154825560019586019590910190602001611f03565b5085831015611f415781850154600019600388901b60f8161c191681555b50505060018360011b0184555b5050505050565b60208082526018908201527756616c696461746f7220616c72656164792065786973747360401b604082015260600190565b6020808252601a908201527913585e1a5b5d5b481d985b1a59185d1bdc9cc81c995858da195960321b604082015260600190565b6020808252818101527f56616c696461746f72206d757374206861766520612076616c696420726f6c65604082015260600190565b81516001600160401b0381111561200957612009611a15565b61201781611eb58454611ddd565b602080601f83116001811461204657600084156120345750858301515b61203e8582611e66565b865550611e5d565b600085815260208120601f198616915b8281101561207557888601518255948401946001909101908401612056565b50858210156120935787850151600019600388901b60f8161c191681555b5050505050600190811b01905550565b6000600182016120b5576120b5611db0565b5060010190565b6020815260006119b86020830184611aec565b634e487b7160e01b600052603260045260246000fd5b6000808335601e198436030181126120fc57600080fd5b8301803591506001600160401b0382111561211657600080fd5b602001915036819003821315611bc457600080fdfe1b7d03cceb084ba7be615fd8e4ed4d42b157b5accf0863d634316e93b2207b44a264697066735822122073070c4e3774952743c2f1a973a4b7f394a43bfd61456f1d2587ec11e7177d4664736f6c63430008140033",
  "linkReferences": {},
  "deployedLinkReferences": {}
}