{
  "_format": "hh-sol-artifact-1",
  "contractName": "CDBCAccessControl",
  "sourceName": "contracts/AccessControl.sol",
  "abi": [
    {
      "inputs": [],
      "stateMutability": "nonpayable",
      "type": "constructor"
    },
    {
      "inputs": [],
      "name": "AccessControlBadConfirmation",
      "type": "error"
    },
    {
      "inputs": [
        {
          "internalType": "address",
          "name": "account",
          "type": "address"
        },
        {
          "internalType": "bytes32",
          "name": "neededRole",
          "type": "bytes32"
        }
      ],
      "name": "AccessControlUnauthorizedAccount",
      "type": "error"
    },
    {
      "anonymous": false,
      "inputs": [
        {
          "indexed": true,
          "internalType": "bytes32",
          "name": "role",
          "type": "bytes32"
        },
        {
          "indexed": true,
          "internalType": "bytes32",
          "name": "previousAdminRole",
          "type": "bytes32"
        },
        {
          "indexed": true,
          "internalType": "bytes32",
          "name": "newAdminRole",
          "type": "bytes32"
        }
      ],
      "name": "RoleAdminChanged",
      "type": "event"
    },
    {
      "anonymous": false,
      "inputs": [
        {
          "indexed": true,
          "internalType": "address",
          "name": "account",
          "type": "address"
        },
        {
          "indexed": true,
          "internalType": "bytes32",
          "name": "role",
          "type": "bytes32"
        },
        {
          "indexed": false,
          "internalType": "string",
          "name": "name",
          "type": "string"
        }
      ],
      "name": "RoleAssigned",
      "type": "event"
    },
    {
      "anonymous": false,
      "inputs": [
        {
          "indexed": true,
          "internalType": "bytes32",
          "name": "role",
          "type": "bytes32"
        },
        {
          "indexed": true,
          "internalType": "address",
          "name": "account",
          "type": "address"
        },
        {
          "indexed": true,
          "internalType": "address",
          "name": "sender",
          "type": "address"
        }
      ],
      "name": "RoleGranted",
      "type": "event"
    },
    {
      "anonymous": false,
      "inputs": [
        {
          "indexed": true,
          "internalType": "bytes32",
          "name": "role",
          "type": "bytes32"
        },
        {
          "indexed": true,
          "internalType": "address",
          "name": "account",
          "type": "address"
        },
        {
          "indexed": true,
          "internalType": "address",
          "name": "sender",
          "type": "address"
        }
      ],
      "name": "RoleRevoked",
      "type": "event"
    },
    {
      "anonymous": false,
      "inputs": [
        {
          "indexed": true,
          "internalType": "address",
          "name": "account",
          "type": "address"
        },
        {
          "indexed": true,
          "internalType": "bytes32",
          "name": "role",
          "type": "bytes32"
        }
      ],
      "name": "RoleRevoked",
      "type": "event"
    },
    {
      "anonymous": false,
      "inputs": [
        {
          "indexed": true,
          "internalType": "address",
          "name": "account",
          "type": "address"
        },
        {
          "indexed": false,
          "internalType": "string",
          "name": "name",
          "type": "string"
        },
        {
          "indexed": false,
          "internalType": "bool",
          "name": "active",
          "type": "bool"
        }
      ],
      "name": "RoleUpdated",
      "type": "event"
    },
    {
      "inputs": [],
      "name": "DEFAULT_ADMIN_ROLE",
      "outputs": [
        {
          "internalType": "bytes32",
          "name": "",
          "type": "bytes32"
        }
      ],
      "stateMutability": "view",
      "type": "function"
    },
    {
      "inputs": [],
      "name": "ENTERPRISE_ROLE",
      "outputs": [
        {
          "internalType": "bytes32",
          "name": "",
          "type": "bytes32"
        }
      ],
      "stateMutability": "view",
      "type": "function"
    },
    {
      "inputs": [],
      "name": "PRIMARY_BANK_ROLE",
      "outputs": [
        {
          "internalType": "bytes32",
          "name": "",
          "type": "bytes32"
        }
      ],
      "stateMutability": "view",
      "type": "function"
    },
    {
      "inputs": [],
      "name": "REGULATOR_ROLE",
      "outputs": [
        {
          "internalType": "bytes32",
          "name": "",
          "type": "bytes32"
        }
      ],
      "stateMutability": "view",
      "type": "function"
    },
    {
      "inputs": [],
      "name": "SECONDARY_BANK_ROLE",
      "outputs": [
        {
          "internalType": "bytes32",
          "name": "",
          "type": "bytes32"
        }
      ],
      "stateMutability": "view",
      "type": "function"
    },
    {
      "inputs": [],
      "name": "USER_ROLE",
      "outputs": [
        {
          "internalType": "bytes32",
          "name": "",
          "type": "bytes32"
        }
      ],
      "stateMutability": "view",
      "type": "function"
    },
    {
      "inputs": [],
      "name": "VALIDATOR_ROLE",
      "outputs": [
        {
          "internalType": "bytes32",
          "name": "",
          "type": "bytes32"
        }
      ],
      "stateMutability": "view",
      "type": "function"
    },
    {
      "inputs": [
        {
          "internalType": "address",
          "name": "account",
          "type": "address"
        },
        {
          "internalType": "string",
          "name": "name",
          "type": "string"
        }
      ],
      "name": "assignEnterprise",
      "outputs": [],
      "stateMutability": "nonpayable",
      "type": "function"
    },
    {
      "inputs": [
        {
          "internalType": "address",
          "name": "account",
          "type": "address"
        },
        {
          "internalType": "string",
          "name": "name",
          "type": "string"
        }
      ],
      "name": "assignRegulator",
      "outputs": [],
      "stateMutability": "nonpayable",
      "type": "function"
    },
    {
      "inputs": [
        {
          "internalType": "address",
          "name": "account",
          "type": "address"
        },
        {
          "internalType": "string",
          "name": "name",
          "type": "string"
        }
      ],
      "name": "assignSecondaryBank",
      "outputs": [],
      "stateMutability": "nonpayable",
      "type": "function"
    },
    {
      "inputs": [
        {
          "internalType": "address",
          "name": "account",
          "type": "address"
        },
        {
          "internalType": "string",
          "name": "name",
          "type": "string"
        }
      ],
      "name": "assignUser",
      "outputs": [],
      "stateMutability": "nonpayable",
      "type": "function"
    },
    {
      "inputs": [
        {
          "internalType": "address",
          "name": "account",
          "type": "address"
        },
        {
          "internalType": "string",
          "name": "name",
          "type": "string"
        }
      ],
      "name": "assignValidator",
      "outputs": [],
      "stateMutability": "nonpayable",
      "type": "function"
    },
    {
      "inputs": [
        {
          "internalType": "bytes32",
          "name": "role",
          "type": "bytes32"
        }
      ],
      "name": "getRoleAdmin",
      "outputs": [
        {
          "internalType": "bytes32",
          "name": "",
          "type": "bytes32"
        }
      ],
      "stateMutability": "view",
      "type": "function"
    },
    {
      "inputs": [
        {
          "internalType": "address",
          "name": "account",
          "type": "address"
        }
      ],
      "name": "getRoleLevel",
      "outputs": [
        {
          "internalType": "uint256",
          "name": "",
          "type": "uint256"
        }
      ],
      "stateMutability": "view",
      "type": "function"
    },
    {
      "inputs": [
        {
          "internalType": "bytes32",
          "name": "role",
          "type": "bytes32"
        },
        {
          "internalType": "address",
          "name": "account",
          "type": "address"
        }
      ],
      "name": "grantRole",
      "outputs": [],
      "stateMutability": "nonpayable",
      "type": "function"
    },
    {
      "inputs": [
        {
          "internalType": "bytes32",
          "name": "role",
          "type": "bytes32"
        },
        {
          "internalType": "address",
          "name": "account",
          "type": "address"
        }
      ],
      "name": "hasRole",
      "outputs": [
        {
          "internalType": "bool",
          "name": "",
          "type": "bool"
        }
      ],
      "stateMutability": "view",
      "type": "function"
    },
    {
      "inputs": [
        {
          "internalType": "address",
          "name": "account",
          "type": "address"
        }
      ],
      "name": "hasValidRole",
      "outputs": [
        {
          "internalType": "bool",
          "name": "",
          "type": "bool"
        }
      ],
      "stateMutability": "view",
      "type": "function"
    },
    {
      "inputs": [
        {
          "internalType": "bytes32",
          "name": "role",
          "type": "bytes32"
        },
        {
          "internalType": "address",
          "name": "callerConfirmation",
          "type": "address"
        }
      ],
      "name": "renounceRole",
      "outputs": [],
      "stateMutability": "nonpayable",
      "type": "function"
    },
    {
      "inputs": [
        {
          "internalType": "address",
          "name": "account",
          "type": "address"
        },
        {
          "internalType": "bytes32",
          "name": "role",
          "type": "bytes32"
        }
      ],
      "name": "revokeRole",
      "outputs": [],
      "stateMutability": "nonpayable",
      "type": "function"
    },
    {
      "inputs": [
        {
          "internalType": "bytes32",
          "name": "role",
          "type": "bytes32"
        },
        {
          "internalType": "address",
          "name": "account",
          "type": "address"
        }
      ],
      "name": "revokeRole",
      "outputs": [],
      "stateMutability": "nonpayable",
      "type": "function"
    },
    {
      "inputs": [
        {
          "internalType": "address",
          "name": "",
          "type": "address"
        }
      ],
      "name": "roleInfo",
      "outputs": [
        {
          "internalType": "address",
          "name": "addr",
          "type": "address"
        },
        {
          "internalType": "string",
          "name": "name",
          "type": "string"
        },
        {
          "internalType": "uint256",
          "name": "level",
          "type": "uint256"
        },
        {
          "internalType": "bool",
          "name": "active",
          "type": "bool"
        },
        {
          "internalType": "uint256",
          "name": "createdAt",
          "type": "uint256"
        }
      ],
      "stateMutability": "view",
      "type": "function"
    },
    {
      "inputs": [
        {
          "internalType": "bytes4",
          "name": "interfaceId",
          "type": "bytes4"
        }
      ],
      "name": "supportsInterface",
      "outputs": [
        {
          "internalType": "bool",
          "name": "",
          "type": "bool"
        }
      ],
      "stateMutability": "view",
      "type": "function"
    },
    {
      "inputs": [
        {
          "internalType": "address",
          "name": "account",
          "type": "address"
        },
        {
          "internalType": "string",
          "name": "name",
          "type": "string"
        },
        {
          "internalType": "bool",
          "name": "active",
          "type": "bool"
        }
      ],
      "name": "updateRoleInfo",
      "outputs": [],
      "stateMutability": "nonpayable",
      "type": "function"
    },
    {
      "inputs": [
        {
          "internalType": "address",
          "name": "account",
          "type": "address"
        },
        {
          "internalType": "uint256",
          "name": "requiredLevel",
          "type": "uint256"
        }
      ],
      "name": "validatePermission",
      "outputs": [
        {
          "internalType": "bool",
          "name": "",
          "type": "bool"
        }
      ],
      "stateMutability": "view",
      "type": "function"
    }
  ],
  "bytecode": "0x60806040523480156200001157600080fd5b506200001f60003362000167565b506200003b60008051602062001d358339815191523362000167565b506040805160a0810182523380825282518084018452600b81526a5072696d61727942616e6b60a81b60208083019190915280840191825260018486018190526060850181905242608086015260009384529081905293909120825181546001600160a01b0319166001600160a01b0390911617815590519192909190820190620000c79082620002bb565b506040828101516002830155606083015160038301805491151560ff199092169190911790556080909201516004909101555160008051602062001d358339815191529033907f988ad249a3a578f3ca7b7f03da9ffdb25c0f9bf3684a5b8aac97d04fc81c21079062000159906020808252600b908201526a5072696d61727942616e6b60a81b604082015260600190565b60405180910390a362000387565b6000828152602081815260408083206001600160a01b038516845290915281205460ff166200020c576000838152602081815260408083206001600160a01b03861684529091529020805460ff19166001179055620001c33390565b6001600160a01b0316826001600160a01b0316847f2f8788117e7eff1d82e926ec794901d17c78024a50270940304540a733656f0d60405160405180910390a450600162000210565b5060005b92915050565b634e487b7160e01b600052604160045260246000fd5b600181811c908216806200024157607f821691505b6020821081036200026257634e487b7160e01b600052602260045260246000fd5b50919050565b601f821115620002b657600081815260208120601f850160051c81016020861015620002915750805b601f850160051c820191505b81811015620002b2578281556001016200029d565b5050505b505050565b81516001600160401b03811115620002d757620002d762000216565b620002ef81620002e884546200022c565b8462000268565b602080601f8311600181146200032757600084156200030e5750858301515b600019600386901b1c1916600185901b178555620002b2565b600085815260208120601f198616915b82811015620003585788860151825594840194600190910190840162000337565b5085821015620003775787850151600019600388901b60f8161c191681555b5050505050600190811b01905550565b61199e80620003976000396000f3fe608060405234801561001057600080fd5b50600436106101285760003560e01c806301ffc9a71461012d5780631311916114610155578063144bf58914610178578063208dd1ff1461018d578063217b8ee9146101a2578063248a9ca3146101b557806324f13320146101c85780632f2ff15d146101ec57806336568abe146101ff5780635cead0e914610212578063658a48231461022557806368dd17a5146102385780637304c5881461024d5780637c0f88821461026057806391d148541461027357806395706957146102865780639859199d14610299578063a217fddf146102ac578063c49baebe146102b4578063c5fbb610146102c9578063c8aee754146102de578063cf850c8d1461030a578063d547741f1461031d578063e206ba5014610330575b600080fd5b61014061013b366004611392565b610345565b60405190151581526020015b60405180910390f35b61016a60008051602061192983398151915281565b60405190815260200161014c565b61016a60008051602061190983398151915281565b6101a061019b3660046113d8565b61037c565b005b6101406101b0366004611402565b6104dd565b61016a6101c336600461141d565b6105e9565b6101db6101d6366004611402565b6105fe565b60405161014c95949392919061147c565b6101a06101fa3660046114bd565b6106c6565b6101a061020d3660046114bd565b6106e8565b6101a061022036600461158b565b610720565b6101a061023336600461158b565b6108db565b61016a60008051602061188983398151915281565b6101a061025b36600461158b565b610a9f565b61014061026e3660046113d8565b610c63565b6101406102813660046114bd565b610d6b565b6101a061029436600461158b565b610d94565b6101a06102a73660046115d8565b610f08565b61016a600081565b61016a6000805160206118c983398151915281565b61016a60008051602061194983398151915281565b61016a6102ec366004611402565b6001600160a01b031660009081526001602052604090206002015490565b6101a061031836600461158b565b611072565b6101a061032b3660046114bd565b6111e5565b61016a6000805160206118e983398151915281565b60006001600160e01b03198216637965db0b60e01b148061037657506301ffc9a760e01b6001600160e01b03198316145b92915050565b6103946000805160206118e983398151915233610d6b565b6103f05760405162461bcd60e51b815260206004820152602260248201527f4f6e6c79207072696d6172792062616e6b2063616e207265766f6b6520726f6c604482015261657360f01b60648201526084015b60405180910390fd5b6103fa8183610d6b565b6104465760405162461bcd60e51b815260206004820152601e60248201527f4163636f756e7420646f6573206e6f7420686176652074686520726f6c65000060448201526064016103e7565b61045081836111fd565b506001600160a01b0382166000908152600160208190526040822080546001600160a01b0319168155919061048790830182611344565b5060006002820181905560038201805460ff19169055600490910181905560405182916001600160a01b038516917fea83a7caef01824e96446a8c4bc8ff4669edd99e129b53e32c077f85d21680819190a35050565b6001600160a01b038082166000908152600160208181526040808420815160a08101909252805490951681529184018054939485949092840191906105219061163e565b80601f016020809104026020016040519081016040528092919081815260200182805461054d9061163e565b801561059a5780601f1061056f5761010080835404028352916020019161059a565b820191906000526020600020905b81548152906001019060200180831161057d57829003601f168201915b505050918352505060028201546020820152600382015460ff161515604082015260049091015460609182015281015190915080156105e2575080516001600160a01b031615155b9392505050565b60009081526020819052604090206001015490565b6001602081905260009182526040909120805491810180546001600160a01b039093169261062b9061163e565b80601f01602080910402602001604051908101604052809291908181526020018280546106579061163e565b80156106a45780601f10610679576101008083540402835291602001916106a4565b820191906000526020600020905b81548152906001019060200180831161068757829003601f168201915b50505050600283015460038401546004909401549293909260ff909116915085565b6106cf826105e9565b6106d881611270565b6106e2838361127d565b50505050565b6001600160a01b03811633146107115760405163334bd91960e11b815260040160405180910390fd5b61071b82826111fd565b505050565b6000805160206118e983398151915261073881611270565b61075060008051602061194983398151915284610d6b565b156107ad5760405162461bcd60e51b815260206004820152602760248201527f4163636f756e7420616c726561647920686173207365636f6e646172792062616044820152666e6b20726f6c6560c81b60648201526084016103e7565b6107c56000805160206118e983398151915284610d6b565b156107e25760405162461bcd60e51b81526004016103e790611678565b6107fa6000805160206119498339815191528461127d565b506040805160a0810182526001600160a01b03858116808352602080840187815260028587015260016060860181905242608087015260009384529182905294909120835181546001600160a01b0319169316929092178255925191929091908201906108679082611707565b506040828101516002830155606083015160038301805460ff191691151591909117905560809092015160049091015551600080516020611949833981519152906001600160a01b038516906000805160206118a9833981519152906108ce9086906117c6565b60405180910390a3505050565b6000805160206119498339815191526108f381611270565b61090b60008051602061192983398151915284610d6b565b15801561092d575061092b60008051602061188983398151915284610d6b565b155b6109495760405162461bcd60e51b81526004016103e7906117d9565b61096160008051602061194983398151915284610d6b565b1561097e5760405162461bcd60e51b81526004016103e790611821565b6109966000805160206118e983398151915284610d6b565b156109b35760405162461bcd60e51b81526004016103e790611678565b6109cb6000805160206119298339815191528461127d565b506040805160a0810182526001600160a01b03858116808352602080840187815260038587015260016060860181905242608087015260009384529182905294909120835181546001600160a01b031916931692909217825592519192909190820190610a389082611707565b506040828101516002830155606083015160038301805460ff191691151591909117905560809092015160049091015551600080516020611929833981519152906001600160a01b038516906000805160206118a9833981519152906108ce9086906117c6565b600080516020611949833981519152610ab781611270565b610acf60008051602061192983398151915284610d6b565b158015610af15750610aef60008051602061188983398151915284610d6b565b155b610b0d5760405162461bcd60e51b81526004016103e7906117d9565b610b2560008051602061194983398151915284610d6b565b15610b425760405162461bcd60e51b81526004016103e790611821565b610b5a6000805160206118e983398151915284610d6b565b15610b775760405162461bcd60e51b81526004016103e790611678565b610b8f6000805160206118898339815191528461127d565b506040805160a0810182526001600160a01b03858116808352602080840187815260038587015260016060860181905242608087015260009384529182905294909120835181546001600160a01b031916931692909217825592519192909190820190610bfc9082611707565b506040828101516002830155606083015160038301805460ff191691151591909117905560809092015160049091015551600080516020611889833981519152906001600160a01b038516906000805160206118a9833981519152906108ce9086906117c6565b6001600160a01b038083166000908152600160208181526040808420815160a0810190925280549095168152918401805493948594909284019190610ca79061163e565b80601f0160208091040260200160405190810160405280929190818152602001828054610cd39061163e565b8015610d205780601f10610cf557610100808354040283529160200191610d20565b820191906000526020600020905b815481529060010190602001808311610d0357829003601f168201915b505050918352505060028201546020820152600382015460ff16151560408201526004909101546060918201528101519091508015610d63575082816040015111155b949350505050565b6000918252602082815260408084206001600160a01b0393909316845291905290205460ff1690565b6000805160206118e9833981519152610dac81611270565b610dc46000805160206118c983398151915284610d6b565b15610e1c5760405162461bcd60e51b815260206004820152602260248201527f4163636f756e7420616c7265616479206861732076616c696461746f7220726f6044820152616c6560f01b60648201526084016103e7565b610e346000805160206118c98339815191528461127d565b506040805160a0810182526001600160a01b03858116808352602080840187815260028587015260016060860181905242608087015260009384529182905294909120835181546001600160a01b031916931692909217825592519192909190820190610ea19082611707565b506040828101516002830155606083015160038301805460ff1916911515919091179055608090920151600490910155516000805160206118c9833981519152906001600160a01b038516906000805160206118a9833981519152906108ce9086906117c6565b610f206000805160206118e983398151915233610d6b565b80610f3e5750610f3e60008051602061194983398151915233610d6b565b610f885760405162461bcd60e51b815260206004820152601b60248201527a4f6e6c792062616e6b732063616e2075706461746520726f6c657360281b60448201526064016103e7565b6001600160a01b0383811660009081526001602052604090205416610fee5760405162461bcd60e51b815260206004820152601c60248201527b4163636f756e7420646f6573206e6f742068617665206120726f6c6560201b60448201526064016103e7565b6001600160a01b03831660009081526001602081905260409091209081016110168482611707565b5060038101805460ff19168315151790556040516001600160a01b038516907fc4d12f4fed3c7d8e40b10b954dc4b19c26000388e17fd31b4af750dd33b41664906110649086908690611864565b60405180910390a250505050565b6000805160206118e983398151915261108a81611270565b6110a260008051602061190983398151915284610d6b565b156110fa5760405162461bcd60e51b815260206004820152602260248201527f4163636f756e7420616c72656164792068617320726567756c61746f7220726f6044820152616c6560f01b60648201526084016103e7565b6111126000805160206119098339815191528461127d565b506040805160a0810182526001600160a01b038581168083526020808401878152600085870181905260016060870181905242608088015293815291839052949020835181546001600160a01b03191693169290921782559251919290919082019061117e9082611707565b506040828101516002830155606083015160038301805460ff191691151591909117905560809092015160049091015551600080516020611909833981519152906001600160a01b038516906000805160206118a9833981519152906108ce9086906117c6565b6111ee826105e9565b6111f781611270565b6106e283835b60006112098383610d6b565b15611268576000838152602081815260408083206001600160a01b0386168085529252808320805460ff1916905551339286917ff6391f5c32d9c69d2a47ea670b442974b53935d1edc7fd64eb21e047a839171b9190a4506001610376565b506000610376565b61127a8133611307565b50565b60006112898383610d6b565b611268576000838152602081815260408083206001600160a01b03861684529091529020805460ff191660011790556112bf3390565b6001600160a01b0316826001600160a01b0316847f2f8788117e7eff1d82e926ec794901d17c78024a50270940304540a733656f0d60405160405180910390a4506001610376565b6113118282610d6b565b6113405760405163e2517d3f60e01b81526001600160a01b0382166004820152602481018390526044016103e7565b5050565b5080546113509061163e565b6000825580601f10611360575050565b601f01602090049060005260206000209081019061127a91905b8082111561138e576000815560010161137a565b5090565b6000602082840312156113a457600080fd5b81356001600160e01b0319811681146105e257600080fd5b80356001600160a01b03811681146113d357600080fd5b919050565b600080604083850312156113eb57600080fd5b6113f4836113bc565b946020939093013593505050565b60006020828403121561141457600080fd5b6105e2826113bc565b60006020828403121561142f57600080fd5b5035919050565b6000815180845260005b8181101561145c57602081850181015186830182015201611440565b506000602082860101526020601f19601f83011685010191505092915050565b6001600160a01b038616815260a0602082018190526000906114a090830187611436565b604083019590955250911515606083015260809091015292915050565b600080604083850312156114d057600080fd5b823591506114e0602084016113bc565b90509250929050565b634e487b7160e01b600052604160045260246000fd5b600082601f83011261151057600080fd5b81356001600160401b038082111561152a5761152a6114e9565b604051601f8301601f19908116603f01168101908282118183101715611552576115526114e9565b8160405283815286602085880101111561156b57600080fd5b836020870160208301376000602085830101528094505050505092915050565b6000806040838503121561159e57600080fd5b6115a7836113bc565b915060208301356001600160401b038111156115c257600080fd5b6115ce858286016114ff565b9150509250929050565b6000806000606084860312156115ed57600080fd5b6115f6846113bc565b925060208401356001600160401b0381111561161157600080fd5b61161d868287016114ff565b9250506040840135801515811461163357600080fd5b809150509250925092565b600181811c9082168061165257607f821691505b60208210810361167257634e487b7160e01b600052602260045260246000fd5b50919050565b60208082526021908201527f4163636f756e7420697320616c72656164792061207072696d6172792062616e6040820152606b60f81b606082015260800190565b601f82111561071b57600081815260208120601f850160051c810160208610156116e05750805b601f850160051c820191505b818110156116ff578281556001016116ec565b505050505050565b81516001600160401b03811115611720576117206114e9565b6117348161172e845461163e565b846116b9565b602080601f83116001811461176957600084156117515750858301515b600019600386901b1c1916600185901b1785556116ff565b600085815260208120601f198616915b8281101561179857888601518255948401946001909101908401611779565b50858210156117b65787850151600019600388901b60f8161c191681555b5050505050600190811b01905550565b6020815260006105e26020830184611436565b60208082526028908201527f4163636f756e7420616c72656164792068617320757365722f656e746572707260408201526769736520726f6c6560c01b606082015260800190565b60208082526023908201527f4163636f756e7420697320616c72656164792061207365636f6e646172792062604082015262616e6b60e81b606082015260800190565b6040815260006118776040830185611436565b90508215156020830152939250505056fe920994fc3bfe282f3f20cdccf1b7c5e46c63d963e822d98efff90abd41c12e21988ad249a3a578f3ca7b7f03da9ffdb25c0f9bf3684a5b8aac97d04fc81c210721702c8af46127c7fa207f89d0b0a8441bb32959a0ac7df790e9ab1a25c9892632d3b416b1e958137aa50d8c4ebe23bc919d27a2c40d6db677d85d5bfe33c83020b5f7ac978e5d6199de06401411960dfa81d2f762655f6206bdc61d46fc19e614823911f2da1b49f045a0929a60b8c1f2a7fc8c06c7284ca3e8ab4e193a08c8179cfeea70bfbadfc00a9b19f8cc0d49ab2a2b6854d11ba2149c788f659e83aca2646970667358221220013eab8cfd17910f1e1b65819dbc3450994fd921eb0e291bc65061b3ca7d6f8264736f6c6343000814003332d3b416b1e958137aa50d8c4ebe23bc919d27a2c40d6db677d85d5bfe33c830",
  "linkReferences": {},
  "deployedLinkReferences": {}
}