{
  "_format": "hh-sol-artifact-1",
  "contractName": "CDBCConsensus",
  "sourceName": "contracts/CDBCConsensus.sol",
  "abi": [
    {
      "inputs": [
        {
          "internalType": "address",
          "name": "_regulatoryAddr",
          "type": "address"
        },
        {
          "internalType": "address",
          "name": "_consensusCoreAddr",
          "type": "address"
        }
      ],
      "stateMutability": "nonpayable",
      "type": "constructor"
    },
    {
      "inputs": [
        {
          "internalType": "address",
          "name": "validator",
          "type": "address"
        },
        {
          "internalType": "string",
          "name": "name",
          "type": "string"
        }
      ],
      "name": "addValidator",
      "outputs": [],
      "stateMutability": "nonpayable",
      "type": "function"
    },
    {
      "inputs": [
        {
          "internalType": "uint256",
          "name": "blockNumber",
          "type": "uint256"
        },
        {
          "internalType": "uint256",
          "name": "txId",
          "type": "uint256"
        },
        {
          "internalType": "bool",
          "name": "approve",
          "type": "bool"
        }
      ],
      "name": "castVote",
      "outputs": [],
      "stateMutability": "nonpayable",
      "type": "function"
    },
    {
      "inputs": [
        {
          "internalType": "address",
          "name": "validator",
          "type": "address"
        }
      ],
      "name": "checkValidatorStatus",
      "outputs": [
        {
          "internalType": "bool",
          "name": "",
          "type": "bool"
        }
      ],
      "stateMutability": "view",
      "type": "function"
    },
    {
      "inputs": [],
      "name": "consensusCore",
      "outputs": [
        {
          "internalType": "contract CDBCConsensusCore",
          "name": "",
          "type": "address"
        }
      ],
      "stateMutability": "view",
      "type": "function"
    },
    {
      "inputs": [],
      "name": "getActiveValidators",
      "outputs": [
        {
          "internalType": "address[]",
          "name": "",
          "type": "address[]"
        }
      ],
      "stateMutability": "view",
      "type": "function"
    },
    {
      "inputs": [],
      "name": "getConsensusCoreAddr",
      "outputs": [
        {
          "internalType": "address",
          "name": "",
          "type": "address"
        }
      ],
      "stateMutability": "view",
      "type": "function"
    },
    {
      "inputs": [],
      "name": "getRegulatoryAddr",
      "outputs": [
        {
          "internalType": "address",
          "name": "",
          "type": "address"
        }
      ],
      "stateMutability": "view",
      "type": "function"
    },
    {
      "inputs": [
        {
          "internalType": "address",
          "name": "validator",
          "type": "address"
        }
      ],
      "name": "getValidatorVoteStats",
      "outputs": [
        {
          "internalType": "uint256",
          "name": "",
          "type": "uint256"
        }
      ],
      "stateMutability": "view",
      "type": "function"
    },
    {
      "inputs": [
        {
          "internalType": "address[]",
          "name": "initialValidators",
          "type": "address[]"
        },
        {
          "internalType": "string[]",
          "name": "names",
          "type": "string[]"
        }
      ],
      "name": "initializeValidators",
      "outputs": [],
      "stateMutability": "nonpayable",
      "type": "function"
    },
    {
      "inputs": [
        {
          "internalType": "uint256",
          "name": "blockNumber",
          "type": "uint256"
        }
      ],
      "name": "proposeBlock",
      "outputs": [],
      "stateMutability": "nonpayable",
      "type": "function"
    },
    {
      "inputs": [],
      "name": "regulatory",
      "outputs": [
        {
          "internalType": "contract ICDBCRegulatory",
          "name": "",
          "type": "address"
        }
      ],
      "stateMutability": "view",
      "type": "function"
    },
    {
      "inputs": [
        {
          "internalType": "address",
          "name": "validator",
          "type": "address"
        }
      ],
      "name": "removeValidator",
      "outputs": [],
      "stateMutability": "nonpayable",
      "type": "function"
    },
    {
      "inputs": [
        {
          "internalType": "address",
          "name": "validator",
          "type": "address"
        },
        {
          "internalType": "bool",
          "name": "active",
          "type": "bool"
        }
      ],
      "name": "updateValidatorStatus",
      "outputs": [],
      "stateMutability": "nonpayable",
      "type": "function"
    },
    {
      "inputs": [
        {
          "internalType": "uint256",
          "name": "blockNumber",
          "type": "uint256"
        },
        {
          "internalType": "uint256",
          "name": "txCount",
          "type": "uint256"
        }
      ],
      "name": "verifyBlock",
      "outputs": [],
      "stateMutability": "nonpayable",
      "type": "function"
    }
  ],
  "bytecode": "0x608060405234801561001057600080fd5b50604051610aca380380610aca83398101604081905261002f9161007c565b600180546001600160a01b039384166001600160a01b031991821617909155600080549290931691161790556100af565b80516001600160a01b038116811461007757600080fd5b919050565b6000806040838503121561008f57600080fd5b61009883610060565b91506100a660208401610060565b90509250929050565b610a0c806100be6000396000f3fe608060405234801561001057600080fd5b50600436106100ba5760003560e01c80632d897ad8146100bf57806340a141ff146100e85780634f4471bc146100fd57806363e2a2321461011057806376bc876c1461012357806395c0941e146101345780639a1c1999146101475780639de702581461015a578063d137a96c1461016f578063f56c66ef14610182578063f9000ba8146101a4578063f973af5f146101b7578063fab1742d146101db578063fbfc2494146101ec575b600080fd5b6001546100d2906001600160a01b031681565b6040516100df91906104c1565b60405180910390f35b6100fb6100f63660046104ed565b6101ff565b005b6100fb61010b366004610511565b610264565b6100fb61011e366004610579565b6102ce565b6001546001600160a01b03166100d2565b6100fb61014236600461066b565b610300565b6100fb6101553660046106d6565b61036e565b61016261039f565b6040516100df91906106ef565b6000546100d2906001600160a01b031681565b6101966101903660046104ed565b50600090565b6040519081526020016100df565b6100fb6101b2366004610751565b610415565b6101cb6101c53660046104ed565b50600190565b60405190151581526020016100df565b6000546001600160a01b03166100d2565b6100fb6101fa366004610786565b610487565b6000546040516340a141ff60e01b81526001600160a01b03909116906340a141ff9061022f9084906004016104c1565b600060405180830381600087803b15801561024957600080fd5b505af115801561025d573d6000803e3d6000fd5b5050505050565b6000546040516313d11c6f60e21b815260048101849052602481018390526001600160a01b0390911690634f4471bc906044015b600060405180830381600087803b1580156102b257600080fd5b505af11580156102c6573d6000803e3d6000fd5b505050505050565b6000546040516331f1511960e11b81526001600160a01b03909116906363e2a2329061029890859085906004016107bb565b600054604051634ae04a0f60e11b81526001600160a01b03909116906395c0941e90610336908790879087908790600401610842565b600060405180830381600087803b15801561035057600080fd5b505af1158015610364573d6000803e3d6000fd5b5050505050505050565b600054604051639a1c199960e01b8152600481018390526001600160a01b0390911690639a1c19999060240161022f565b60008054604080516313bce04b60e31b815290516060936001600160a01b0390931692639de7025892600480820193918290030181865afa1580156103e8573d6000803e3d6000fd5b505050506040513d6000823e601f3d908101601f191682016040526104109190810190610925565b905090565b600054604051631f20017560e31b8152600481018590526024810184905282151560448201526001600160a01b039091169063f9000ba890606401600060405180830381600087803b15801561046a57600080fd5b505af115801561047e573d6000803e3d6000fd5b50505050505050565b600054604051633eff092560e21b81526001600160a01b03848116600483015283151560248301529091169063fbfc249490604401610298565b6001600160a01b0391909116815260200190565b6001600160a01b03811681146104ea57600080fd5b50565b6000602082840312156104ff57600080fd5b813561050a816104d5565b9392505050565b6000806040838503121561052457600080fd5b50508035926020909101359150565b634e487b7160e01b600052604160045260246000fd5b604051601f8201601f191681016001600160401b038111828210171561057157610571610533565b604052919050565b6000806040838503121561058c57600080fd5b8235610597816104d5565b91506020838101356001600160401b03808211156105b457600080fd5b818601915086601f8301126105c857600080fd5b8135818111156105da576105da610533565b6105ec601f8201601f19168501610549565b9150808252878482850101111561060257600080fd5b80848401858401376000848284010152508093505050509250929050565b60008083601f84011261063257600080fd5b5081356001600160401b0381111561064957600080fd5b6020830191508360208260051b850101111561066457600080fd5b9250929050565b6000806000806040858703121561068157600080fd5b84356001600160401b038082111561069857600080fd5b6106a488838901610620565b909650945060208701359150808211156106bd57600080fd5b506106ca87828801610620565b95989497509550505050565b6000602082840312156106e857600080fd5b5035919050565b6020808252825182820181905260009190848201906040850190845b818110156107305783516001600160a01b03168352928401929184019160010161070b565b50909695505050505050565b8035801515811461074c57600080fd5b919050565b60008060006060848603121561076657600080fd5b833592506020840135915061077d6040850161073c565b90509250925092565b6000806040838503121561079957600080fd5b82356107a4816104d5565b91506107b26020840161073c565b90509250929050565b60018060a01b038316815260006020604081840152835180604085015260005b818110156107f7578581018301518582016060015282016107db565b506000606082860101526060601f19601f830116850101925050509392505050565b81835281816020850137506000828201602090810191909152601f909101601f19169091010190565b6040808252810184905260008560608301825b87811015610885578235610868816104d5565b6001600160a01b0316825260209283019290910190600101610855565b506020915083810382850152808582528282019050828660051b8301018760005b8881101561091557848303601f190184528135368b9003601e190181126108cc57600080fd5b8a0186810190356001600160401b038111156108e757600080fd5b8036038213156108f657600080fd5b610901858284610819565b9588019594505050908501906001016108a6565b50909a9950505050505050505050565b6000602080838503121561093857600080fd5b82516001600160401b038082111561094f57600080fd5b818501915085601f83011261096357600080fd5b81518181111561097557610975610533565b8060051b9150610986848301610549565b81815291830184019184810190888411156109a057600080fd5b938501935b838510156109ca57845192506109ba836104d5565b82825293850193908501906109a5565b9897505050505050505056fea264697066735822122019458cbea70e91c1ee8bd1871b03a06163b4bd1dba7e9dbf6a632715c0b39c7f64736f6c63430008140033",
  "linkReferences": {},
  "deployedLinkReferences": {}
}